{
  "hash": "f0bf6f94c6fe518173762c6208e4def955f70ab2c45b8dcdee2daf343c47760b",
  "confirmations": 199,
  "strippedsize": 3382,
  "size": 3418,
  "weight": 13564,
  "height": 1360795,
  "version": 536870912,
  "versionHex": "20000000",
  "merkleroot": "292c6c2f2517d950616280296c4cd64395cee0ea0b49fa5fdb83c3965689ee8c",
  "tx": [
    {
      "txid": "6c10884cf29001f0f6978db1d3a052f6fdce522c83f6c7470fe36a64858032bc",
      "hash": "1a481059fa5a3012b05ac2e584db13df7d442c6cafc12d93210d95ba34ef7c7e",
      "version": 1,
      "size": 277,
      "vsize": 250,
      "locktime": 950292678,
      "vin": [
        {
          "coinbase": "039bc3142cfabe6d6d3556e6eedf55b0d33646dfe063505d7f1466ed8fa832f659207b15789cc1621808000000f09f909f0e4d696e6564206279207267313138000000000000000000000000000000000000000000000000000000000000000000000000",
          "sequence": 1
        }
      ],
      "vout": [
        {
          "value": 25.03079200,
          "n": 0,
          "scriptPubKey": {
            "asm": "OP_DUP OP_HASH160 aa3750aa18b8a0f3f0590731e1fab934856680cf OP_EQUALVERIFY OP_CHECKSIG",
            "hex": "76a914aa3750aa18b8a0f3f0590731e1fab934856680cf88ac",
            "reqSigs": 1,
            "type": "pubkeyhash",
            "addresses": [
              "LajyQBeZaBA1NkZDeY8YT5RYYVRkXMvb2T"
            ]
          }
        }, 
        {
          "value": 0.00000000,
          "n": 1,
          "scriptPubKey": {
            "asm": "OP_RETURN aa21a9ed4d5618493ff771f470e29e8a71abfb7c86acd66bfbb161f801667d140b882d2b 0000000000000000",
            "hex": "6a24aa21a9ed4d5618493ff771f470e29e8a71abfb7c86acd66bfbb161f801667d140b882d2b080000000000000000",
            "type": "nulldata"
          }
        }
      ],
      "hex": "010000000001010000000000000000000000000000000000000000000000000000000000000000ffffffff64039bc3142cfabe6d6d3556e6eedf55b0d33646dfe063505d7f1466ed8fa832f659207b15789cc1621808000000f09f909f0e4d696e6564206279207267313138000000000000000000000000000000000000000000000000000000000000000000000000010000000220f53195000000001976a914aa3750aa18b8a0f3f0590731e1fab934856680cf88ac00000000000000002f6a24aa21a9ed4d5618493ff771f470e29e8a71abfb7c86acd66bfbb161f801667d140b882d2b08000000000000000001200000000000000000000000000000000000000000000000000000000000000000c650a438"
    }, 
    {
      "txid": "4c346bb5ec1908759c984c445170d948f467eccbbb221800a2ae9d8552708358",
      "hash": "4c346bb5ec1908759c984c445170d948f467eccbbb221800a2ae9d8552708358",
      "version": 1,
      "size": 2610,
      "vsize": 2610,
      "locktime": 0,
      "vin": [
        {
          "txid": "8b2e950fd5dd9d27c3584089308dbcca098cf3acfdee397e7ebead327dce676c",
          "vout": 26,
          "scriptSig": {
            "asm": "0 3045022100e0b5546a91613c33d2c2c803a9c639ac287d5a89f39ca9a92bd87b63d1ca4132022007417c6233a1ee963379d6d6753559454f70ef7624507dd226466461864c39e2[ALL] 3045022100f4a066e5440a02e892d668ced59a56000689a794ba2c533139eb9d0a32686322022028833ea4a4fdb82f1eb9cc9fc9c938a8391ec129be5a3c7eabd5c6c229d13253[ALL] 5221024f79f92948baf22fcbd72b3cad4e99480f33a7d80e57831d348c746d4cca3edc21024566a8bd2012e7bd2e0c9009a2645fcded8a6d4e97dc131da204cc004a6eaf712102bc87b51a3142f4e70b983a1fb81d5082e4c9b9cca7bec86c6c4ef9635994d37853ae",
            "hex": "00483045022100e0b5546a91613c33d2c2c803a9c639ac287d5a89f39ca9a92bd87b63d1ca4132022007417c6233a1ee963379d6d6753559454f70ef7624507dd226466461864c39e201483045022100f4a066e5440a02e892d668ced59a56000689a794ba2c533139eb9d0a32686322022028833ea4a4fdb82f1eb9cc9fc9c938a8391ec129be5a3c7eabd5c6c229d13253014c695221024f79f92948baf22fcbd72b3cad4e99480f33a7d80e57831d348c746d4cca3edc21024566a8bd2012e7bd2e0c9009a2645fcded8a6d4e97dc131da204cc004a6eaf712102bc87b51a3142f4e70b983a1fb81d5082e4c9b9cca7bec86c6c4ef9635994d37853ae"
          },
          "sequence": 4294967295
        }, 
        {
          "txid": "3fbe9a9e284b2639a29dc010a39bc192a845185da8a14849a0644dd4db621bd3",
          "vout": 11,
          "scriptSig": {
            "asm": "0 304402201d12ce81eb46d425937680a292c9a25a3df2a3c9e265e33762e18c0c2d26b54d02207fe9faaf450b58465433131f32a6a4ebb1a331e4c5dd79ea8328bf794dcf0a3e[ALL] 304402201f74288015675b98836b462384fd77475e995dfb0541331e6337d1cc85397b7c02205c06e214668b41fcc2f484ece9fd56cd1566ea80aff17b672d72fb374f05c5d0[ALL] 522103a30f7ffd1b363ff699075e45ae1514a3f0ab18f8f9d7622c61ef4fbf1cf8f836210244a6cb6e6b81c6bdd48f011daf13ab080697a6ec0c989677eafc56594fb975742103cadc2acd87e5092fc1df529e72e12a2c8034f1aa87c427e20253b67dacf8c49053ae",
            "hex": "0047304402201d12ce81eb46d425937680a292c9a25a3df2a3c9e265e33762e18c0c2d26b54d02207fe9faaf450b58465433131f32a6a4ebb1a331e4c5dd79ea8328bf794dcf0a3e0147304402201f74288015675b98836b462384fd77475e995dfb0541331e6337d1cc85397b7c02205c06e214668b41fcc2f484ece9fd56cd1566ea80aff17b672d72fb374f05c5d0014c69522103a30f7ffd1b363ff699075e45ae1514a3f0ab18f8f9d7622c61ef4fbf1cf8f836210244a6cb6e6b81c6bdd48f011daf13ab080697a6ec0c989677eafc56594fb975742103cadc2acd87e5092fc1df529e72e12a2c8034f1aa87c427e20253b67dacf8c49053ae"
          },
          "sequence": 4294967295
        }, 
        {
          "txid": "d75a142d062011c04dcd0e2f932c7800c8139e54af950a4fc698d0fca69d89ee",
          "vout": 31,
          "scriptSig": {
            "asm": "0 3045022100c7003105e75cf58f105556b0dbce345cd62b8dfd40bff36e6e9d390578aef2800220575de7515f306c3074e5c4f27c1ed6dd726ab7ca860d96074119310015ce591d[ALL] 304502210093092f35b0e4a74d0e5ea003132aefd5273a18e486a78b0eebb65bcb4b15fb65022012a7cf9905c3d175085a523cd98006f8b40766074ee7500e673f842f4a79ef75[ALL] 5221030b64990c7b5f0c720071f4273bc7bbcf0eff125b4bf9f4d7e4c56eae875325b221037953a1cd2676969e17a803bc34dfbf2a95b6e8af6aa9edb1b15f4fbbede65cc52102a04763c6ea25d6e7bb4fd86db13bb400233d2eb3c765f8eb30736175eced5be653ae",
            "hex": "00483045022100c7003105e75cf58f105556b0dbce345cd62b8dfd40bff36e6e9d390578aef2800220575de7515f306c3074e5c4f27c1ed6dd726ab7ca860d96074119310015ce591d0148304502210093092f35b0e4a74d0e5ea003132aefd5273a18e486a78b0eebb65bcb4b15fb65022012a7cf9905c3d175085a523cd98006f8b40766074ee7500e673f842f4a79ef75014c695221030b64990c7b5f0c720071f4273bc7bbcf0eff125b4bf9f4d7e4c56eae875325b221037953a1cd2676969e17a803bc34dfbf2a95b6e8af6aa9edb1b15f4fbbede65cc52102a04763c6ea25d6e7bb4fd86db13bb400233d2eb3c765f8eb30736175eced5be653ae"
          },
          "sequence": 4294967295
        }, 
        {
          "txid": "3fbe9a9e284b2639a29dc010a39bc192a845185da8a14849a0644dd4db621bd3",
          "vout": 17,
          "scriptSig": {
            "asm": "0 304402205db546e52863776d029ae18cd4a4f68e3ea979dbd92792e714b26b930f496761022078cf6e13eafe194c681c958e3de75153b32da613c7919ec6b81bee78546bde3d[ALL] 304502210082997e2963208a5d90ee0beeee392017b2f4090f4181603dd3d8396e6912f280022034d3ff8d4746ed947ba18ebc2eec3090569079adf972168d4e4dfe435321c306[ALL] 5221037970cf436632a50fae0f50e444d13840f32ad68d67d34547da2bb3b0e6394aaa2102fc241d63908ff896b857247078e1f6cc5cf05b434d64651a2919dfcdf6ea66cf2103ff7deb7bf238281dfefcb6131dfae384c7796d597d10be6f9c81402b17ce1bb253ae",
            "hex": "0047304402205db546e52863776d029ae18cd4a4f68e3ea979dbd92792e714b26b930f496761022078cf6e13eafe194c681c958e3de75153b32da613c7919ec6b81bee78546bde3d0148304502210082997e2963208a5d90ee0beeee392017b2f4090f4181603dd3d8396e6912f280022034d3ff8d4746ed947ba18ebc2eec3090569079adf972168d4e4dfe435321c306014c695221037970cf436632a50fae0f50e444d13840f32ad68d67d34547da2bb3b0e6394aaa2102fc241d63908ff896b857247078e1f6cc5cf05b434d64651a2919dfcdf6ea66cf2103ff7deb7bf238281dfefcb6131dfae384c7796d597d10be6f9c81402b17ce1bb253ae"
          },
          "sequence": 4294967295
        }, 
        {
          "txid": "d75a142d062011c04dcd0e2f932c7800c8139e54af950a4fc698d0fca69d89ee",
          "vout": 13,
          "scriptSig": {
            "asm": "0 3045022100adc6fbf981bcafff4624389e4dc820cbc2b2f52da276aaa8afba08bfcc9f6cde022029d71aa7b002d2f28272ce71f65cbaa9599e35471a893e8c37fca875313cbaa2[ALL] 304402202b710c56ccaef50c8b7f8f4bede9b71f6dbb2ab8bebea16817358b7e8007284c02206da724e39c9083e183c10d31a18ae28a70c38539f29e272f3bcd3c31a01b0e52[ALL] 522102fcd1755bdc36570bace0efb2abee5dd819d3f96f5193918198aea6d1408919c9210339ce2cff995e0dd7d5a2db28c17ecb5717e065e0584134ee3533ccceda2e308b2103d732c2049db9f36bbd52d79a8c22797399a65c385f6d6836d09600a8d6e4e8d153ae",
            "hex": "00483045022100adc6fbf981bcafff4624389e4dc820cbc2b2f52da276aaa8afba08bfcc9f6cde022029d71aa7b002d2f28272ce71f65cbaa9599e35471a893e8c37fca875313cbaa20147304402202b710c56ccaef50c8b7f8f4bede9b71f6dbb2ab8bebea16817358b7e8007284c02206da724e39c9083e183c10d31a18ae28a70c38539f29e272f3bcd3c31a01b0e52014c69522102fcd1755bdc36570bace0efb2abee5dd819d3f96f5193918198aea6d1408919c9210339ce2cff995e0dd7d5a2db28c17ecb5717e065e0584134ee3533ccceda2e308b2103d732c2049db9f36bbd52d79a8c22797399a65c385f6d6836d09600a8d6e4e8d153ae"
          },
          "sequence": 4294967295
        }, 
        {
          "txid": "b61db75231d48b7edab1586fa3265b86eb6695a8ecce9c619748db3d25d27e53",
          "vout": 1,
          "scriptSig": {
            "asm": "0 3044022068dc1412f830a2c9f43abce7c49629d9a9753777974005840a82d11add8de37702206830ba3f0a0c938de1e0ea2520afd7e318cedd4af4ff9c2cff947b8fe110b832[ALL] 3045022100ba80d2951da0047709a8f3dcd97fbf069dac15ab0a87cd7d666c32bd7a8aad6802203bcaaf559631008bcaf09214c193a59faf9f36b7b0b265349aaac6323ce43234[ALL] 522102c3414747a2ef61202dce1139a8751fd43f8cdae402b52988b03f21630efde3b52102a18056ee93c643347eb13311496e078317d5e38546401718f7f03995ce9b9f5a210324b188a4d10e0b660e21da865b8878ab4e805b089838ef1f54730e480de38bd153ae",
            "hex": "00473044022068dc1412f830a2c9f43abce7c49629d9a9753777974005840a82d11add8de37702206830ba3f0a0c938de1e0ea2520afd7e318cedd4af4ff9c2cff947b8fe110b83201483045022100ba80d2951da0047709a8f3dcd97fbf069dac15ab0a87cd7d666c32bd7a8aad6802203bcaaf559631008bcaf09214c193a59faf9f36b7b0b265349aaac6323ce43234014c69522102c3414747a2ef61202dce1139a8751fd43f8cdae402b52988b03f21630efde3b52102a18056ee93c643347eb13311496e078317d5e38546401718f7f03995ce9b9f5a210324b188a4d10e0b660e21da865b8878ab4e805b089838ef1f54730e480de38bd153ae"
          },
          "sequence": 4294967295
        }, 
        {
          "txid": "21eaf0ba5cd8c6b0b9f23dc2bb243ab67c2d85eae50e543785aac8082e5ffd98",
          "vout": 54,
          "scriptSig": {
            "asm": "0 304402200457364fb2478adfb3c5ff135434715a8fdb9e7d38988b496f0da78bccc15acc022014101a46a6a1a0da9683bcc498152e60b88e2d816865a281aceba738ced3992d[ALL] 304302206e0d475e2ba6a1c4b301b6e492e9c948d6c1c430fb2280d7dd9e64c179d7c146021f13d931320a76f64bbda8d35b57cbddf8309eb5211252bafb72962dd5831b56[ALL] 5221031e1f24f9d5c6c3deaa9fb8b75292b2299e102d69a82ae83c67151fe6db11fe6b2102718bb043042090c6695610d80b1b98ce509c7971a02e0184498c525d4357eb6321036db46ac28bc47530103f11d33e191ec36d7c2500b9926e484c29d663a66923b353ae",
            "hex": "0047304402200457364fb2478adfb3c5ff135434715a8fdb9e7d38988b496f0da78bccc15acc022014101a46a6a1a0da9683bcc498152e60b88e2d816865a281aceba738ced3992d0146304302206e0d475e2ba6a1c4b301b6e492e9c948d6c1c430fb2280d7dd9e64c179d7c146021f13d931320a76f64bbda8d35b57cbddf8309eb5211252bafb72962dd5831b56014c695221031e1f24f9d5c6c3deaa9fb8b75292b2299e102d69a82ae83c67151fe6db11fe6b2102718bb043042090c6695610d80b1b98ce509c7971a02e0184498c525d4357eb6321036db46ac28bc47530103f11d33e191ec36d7c2500b9926e484c29d663a66923b353ae"
          },
          "sequence": 4294967295
        }, 
        {
          "txid": "1a41b395e981e8c66fc698b865dcd35b338d6d5dc9c2e9589b3e3dbcb3e2563f",
          "vout": 4,
          "scriptSig": {
            "asm": "0 3045022100ee189a3c09fa9dddb23e77f84ea687ac2ca64ac826a9f4be004d341fe087ffeb02200dc50cdfb54d5b9f51d37c972e4a79b96ec32953770f5e186a8083e8f971f628[ALL] 3045022100fbb016eef78c673ce175818cfeb845864df786197cb5ce3cf93b749ad133dc9002207a915c7190d079320c2914cacbc5b00e71d840c4efe25e1f233bc7f474f59189[ALL] 522103b084ede4e29633aeab74a0782b420a819ea5344f01f7e591b27441950ebff1762102fb9e98e189197bb9436bb01611c89260dfccf91ca2d197592e5de4ff498ba32a2102ceb630ac675ee303e5348924cfca2400561fffae26476d8a411614a233bfdc4453ae",
            "hex": "00483045022100ee189a3c09fa9dddb23e77f84ea687ac2ca64ac826a9f4be004d341fe087ffeb02200dc50cdfb54d5b9f51d37c972e4a79b96ec32953770f5e186a8083e8f971f62801483045022100fbb016eef78c673ce175818cfeb845864df786197cb5ce3cf93b749ad133dc9002207a915c7190d079320c2914cacbc5b00e71d840c4efe25e1f233bc7f474f59189014c69522103b084ede4e29633aeab74a0782b420a819ea5344f01f7e591b27441950ebff1762102fb9e98e189197bb9436bb01611c89260dfccf91ca2d197592e5de4ff498ba32a2102ceb630ac675ee303e5348924cfca2400561fffae26476d8a411614a233bfdc4453ae"
          },
          "sequence": 4294967295
        }
      ],
      "vout": [
        {
          "value": 1.35155400,
          "n": 0,
          "scriptPubKey": {
            "asm": "OP_DUP OP_HASH160 b4b9d95a8f79134edbaef7d642ca41472e000e90 OP_EQUALVERIFY OP_CHECKSIG",
            "hex": "76a914b4b9d95a8f79134edbaef7d642ca41472e000e9088ac",
            "reqSigs": 1,
            "type": "pubkeyhash",
            "addresses": [
              "LbhYXm31kvYCZnvBh36NKkc5Lu7G8pzKzy"
            ]
          }
        }, 
        {
          "value": 8.00000000,
          "n": 1,
          "scriptPubKey": {
            "asm": "OP_DUP OP_HASH160 af6d1d5b836873382b5e92b4b3e694e8b0bf1692 OP_EQUALVERIFY OP_CHECKSIG",
            "hex": "76a914af6d1d5b836873382b5e92b4b3e694e8b0bf169288ac",
            "reqSigs": 1,
            "type": "pubkeyhash",
            "addresses": [
              "LbDXECngCyLMn8pquq8jw4dHF8FK3dPxS9"
            ]
          }
        }, 
        {
          "value": 1.00000000,
          "n": 2,
          "scriptPubKey": {
            "asm": "OP_DUP OP_HASH160 7a0b2fbf2686906fc5173ba8e6672891646a5977 OP_EQUALVERIFY OP_CHECKSIG",
            "hex": "76a9147a0b2fbf2686906fc5173ba8e6672891646a597788ac",
            "reqSigs": 1,
            "type": "pubkeyhash",
            "addresses": [
              "LWMG6sLZ82dcW2H7259gTGiJ1AXvVL8csq"
            ]
          }
        }, 
        {
          "value": 80.00000000,
          "n": 3,
          "scriptPubKey": {
            "asm": "OP_DUP OP_HASH160 9e5b3805d4e1331722add4a213ad554a71a32ce6 OP_EQUALVERIFY OP_CHECKSIG",
            "hex": "76a9149e5b3805d4e1331722add4a213ad554a71a32ce688ac",
            "reqSigs": 1,
            "type": "pubkeyhash",
            "addresses": [
              "LZfGJX1hHHnV6FR1RgRftntE2eVn1nWjkw"
            ]
          }
        }, 
        {
          "value": 46.50876141,
          "n": 4,
          "scriptPubKey": {
            "asm": "OP_HASH160 13768cfd3feb32b02757f6a84f3b989f581302b4 OP_EQUAL",
            "hex": "a91413768cfd3feb32b02757f6a84f3b989f581302b487",
            "reqSigs": 1,
            "type": "scripthash",
            "addresses": [
              "M9g568BsGAQw6Q8PKsFSvTHrDtYLQRbHnW"
            ]
          }
        }, 
        {
          "value": 1.18800000,
          "n": 5,
          "scriptPubKey": {
            "asm": "OP_DUP OP_HASH160 3a9af27c3094df13fdb29f4259079cbb0c2c4bea OP_EQUALVERIFY OP_CHECKSIG",
            "hex": "76a9143a9af27c3094df13fdb29f4259079cbb0c2c4bea88ac",
            "reqSigs": 1,
            "type": "pubkeyhash",
            "addresses": [
              "LQZq5G2XscrLm8MdZspyJyzAgvvQ7JGRxb"
            ]
          }
        }, 
        {
          "value": 0.88900000,
          "n": 6,
          "scriptPubKey": {
            "asm": "OP_DUP OP_HASH160 53fe1486e2f8c1b36b642ad591511e4814bdc10e OP_EQUALVERIFY OP_CHECKSIG",
            "hex": "76a91453fe1486e2f8c1b36b642ad591511e4814bdc10e88ac",
            "reqSigs": 1,
            "type": "pubkeyhash",
            "addresses": [
              "LSt4iwDUTeuao33KfDJCypHREbo7PXgjED"
            ]
          }
        }
      ],
      "hex": "01000000086c67ce7d32adbe7e7e39eefdacf38c09cabc8d30894058c3279dddd50f952e8b1a000000fdfe0000483045022100e0b5546a91613c33d2c2c803a9c639ac287d5a89f39ca9a92bd87b63d1ca4132022007417c6233a1ee963379d6d6753559454f70ef7624507dd226466461864c39e201483045022100f4a066e5440a02e892d668ced59a56000689a794ba2c533139eb9d0a32686322022028833ea4a4fdb82f1eb9cc9fc9c938a8391ec129be5a3c7eabd5c6c229d13253014c695221024f79f92948baf22fcbd72b3cad4e99480f33a7d80e57831d348c746d4cca3edc21024566a8bd2012e7bd2e0c9009a2645fcded8a6d4e97dc131da204cc004a6eaf712102bc87b51a3142f4e70b983a1fb81d5082e4c9b9cca7bec86c6c4ef9635994d37853aeffffffffd31b62dbd44d64a04948a1a85d1845a892c19ba310c09da239264b289e9abe3f0b000000fc0047304402201d12ce81eb46d425937680a292c9a25a3df2a3c9e265e33762e18c0c2d26b54d02207fe9faaf450b58465433131f32a6a4ebb1a331e4c5dd79ea8328bf794dcf0a3e0147304402201f74288015675b98836b462384fd77475e995dfb0541331e6337d1cc85397b7c02205c06e214668b41fcc2f484ece9fd56cd1566ea80aff17b672d72fb374f05c5d0014c69522103a30f7ffd1b363ff699075e45ae1514a3f0ab18f8f9d7622c61ef4fbf1cf8f836210244a6cb6e6b81c6bdd48f011daf13ab080697a6ec0c989677eafc56594fb975742103cadc2acd87e5092fc1df529e72e12a2c8034f1aa87c427e20253b67dacf8c49053aeffffffffee899da6fcd098c64f0a95af549e13c800782c932f0ecd4dc01120062d145ad71f000000fdfe0000483045022100c7003105e75cf58f105556b0dbce345cd62b8dfd40bff36e6e9d390578aef2800220575de7515f306c3074e5c4f27c1ed6dd726ab7ca860d96074119310015ce591d0148304502210093092f35b0e4a74d0e5ea003132aefd5273a18e486a78b0eebb65bcb4b15fb65022012a7cf9905c3d175085a523cd98006f8b40766074ee7500e673f842f4a79ef75014c695221030b64990c7b5f0c720071f4273bc7bbcf0eff125b4bf9f4d7e4c56eae875325b221037953a1cd2676969e17a803bc34dfbf2a95b6e8af6aa9edb1b15f4fbbede65cc52102a04763c6ea25d6e7bb4fd86db13bb400233d2eb3c765f8eb30736175eced5be653aeffffffffd31b62dbd44d64a04948a1a85d1845a892c19ba310c09da239264b289e9abe3f11000000fdfd000047304402205db546e52863776d029ae18cd4a4f68e3ea979dbd92792e714b26b930f496761022078cf6e13eafe194c681c958e3de75153b32da613c7919ec6b81bee78546bde3d0148304502210082997e2963208a5d90ee0beeee392017b2f4090f4181603dd3d8396e6912f280022034d3ff8d4746ed947ba18ebc2eec3090569079adf972168d4e4dfe435321c306014c695221037970cf436632a50fae0f50e444d13840f32ad68d67d34547da2bb3b0e6394aaa2102fc241d63908ff896b857247078e1f6cc5cf05b434d64651a2919dfcdf6ea66cf2103ff7deb7bf238281dfefcb6131dfae384c7796d597d10be6f9c81402b17ce1bb253aeffffffffee899da6fcd098c64f0a95af549e13c800782c932f0ecd4dc01120062d145ad70d000000fdfd0000483045022100adc6fbf981bcafff4624389e4dc820cbc2b2f52da276aaa8afba08bfcc9f6cde022029d71aa7b002d2f28272ce71f65cbaa9599e35471a893e8c37fca875313cbaa20147304402202b710c56ccaef50c8b7f8f4bede9b71f6dbb2ab8bebea16817358b7e8007284c02206da724e39c9083e183c10d31a18ae28a70c38539f29e272f3bcd3c31a01b0e52014c69522102fcd1755bdc36570bace0efb2abee5dd819d3f96f5193918198aea6d1408919c9210339ce2cff995e0dd7d5a2db28c17ecb5717e065e0584134ee3533ccceda2e308b2103d732c2049db9f36bbd52d79a8c22797399a65c385f6d6836d09600a8d6e4e8d153aeffffffff537ed2253ddb4897619cceeca89566eb865b26a36f58b1da7e8bd43152b71db601000000fdfd0000473044022068dc1412f830a2c9f43abce7c49629d9a9753777974005840a82d11add8de37702206830ba3f0a0c938de1e0ea2520afd7e318cedd4af4ff9c2cff947b8fe110b83201483045022100ba80d2951da0047709a8f3dcd97fbf069dac15ab0a87cd7d666c32bd7a8aad6802203bcaaf559631008bcaf09214c193a59faf9f36b7b0b265349aaac6323ce43234014c69522102c3414747a2ef61202dce1139a8751fd43f8cdae402b52988b03f21630efde3b52102a18056ee93c643347eb13311496e078317d5e38546401718f7f03995ce9b9f5a210324b188a4d10e0b660e21da865b8878ab4e805b089838ef1f54730e480de38bd153aeffffffff98fd5f2e08c8aa8537540ee5ea852d7cb63a24bbc23df2b9b0c6d85cbaf0ea2136000000fb0047304402200457364fb2478adfb3c5ff135434715a8fdb9e7d38988b496f0da78bccc15acc022014101a46a6a1a0da9683bcc498152e60b88e2d816865a281aceba738ced3992d0146304302206e0d475e2ba6a1c4b301b6e492e9c948d6c1c430fb2280d7dd9e64c179d7c146021f13d931320a76f64bbda8d35b57cbddf8309eb5211252bafb72962dd5831b56014c695221031e1f24f9d5c6c3deaa9fb8b75292b2299e102d69a82ae83c67151fe6db11fe6b2102718bb043042090c6695610d80b1b98ce509c7971a02e0184498c525d4357eb6321036db46ac28bc47530103f11d33e191ec36d7c2500b9926e484c29d663a66923b353aeffffffff3f56e2b3bc3d3e9b58e9c2c95d6d8d335bd3dc65b898c66fc6e881e995b3411a04000000fdfe0000483045022100ee189a3c09fa9dddb23e77f84ea687ac2ca64ac826a9f4be004d341fe087ffeb02200dc50cdfb54d5b9f51d37c972e4a79b96ec32953770f5e186a8083e8f971f62801483045022100fbb016eef78c673ce175818cfeb845864df786197cb5ce3cf93b749ad133dc9002207a915c7190d079320c2914cacbc5b00e71d840c4efe25e1f233bc7f474f59189014c69522103b084ede4e29633aeab74a0782b420a819ea5344f01f7e591b27441950ebff1762102fb9e98e189197bb9436bb01611c89260dfccf91ca2d197592e5de4ff498ba32a2102ceb630ac675ee303e5348924cfca2400561fffae26476d8a411614a233bfdc4453aeffffffff07c84e0e08000000001976a914b4b9d95a8f79134edbaef7d642ca41472e000e9088ac0008af2f000000001976a914af6d1d5b836873382b5e92b4b3e694e8b0bf169288ac00e1f505000000001976a9147a0b2fbf2686906fc5173ba8e6672891646a597788ac0050d6dc010000001976a9149e5b3805d4e1331722add4a213ad554a71a32ce688acedbc36150100000017a91413768cfd3feb32b02757f6a84f3b989f581302b48780be1407000000001976a9143a9af27c3094df13fdb29f4259079cbb0c2c4bea88aca0814c05000000001976a91453fe1486e2f8c1b36b642ad591511e4814bdc10e88ac00000000"
    }, 
    {
      "txid": "284271c66b6da272c8eb4ef28879ef208f59ce63ab91b9e84d1d0d60e880fb1c",
      "hash": "284271c66b6da272c8eb4ef28879ef208f59ce63ab91b9e84d1d0d60e880fb1c",
      "version": 2,
      "size": 225,
      "vsize": 225,
      "locktime": 1360793,
      "vin": [
        {
          "txid": "7b4252954a2a7109131e5c43c6918f89e70a80b98b8fa0e38c84819d2fcbe6ac",
          "vout": 1,
          "scriptSig": {
            "asm": "304402207cfccbe68ec73aab6778948c6644b678047f2d2733929d07b288bbf43ab677110220233168b34fdc7fc274b6c5f7f248f9fbe8d29bd37513981264074cdf99e36503[ALL] 03a7d0f5b6aee3054cd94742032234ff6dec87b3138eca72f583d07254febccddd",
            "hex": "47304402207cfccbe68ec73aab6778948c6644b678047f2d2733929d07b288bbf43ab677110220233168b34fdc7fc274b6c5f7f248f9fbe8d29bd37513981264074cdf99e36503012103a7d0f5b6aee3054cd94742032234ff6dec87b3138eca72f583d07254febccddd"
          },
          "sequence": 4294967294
        }
      ],
      "vout": [
        {
          "value": 0.40080980,
          "n": 0,
          "scriptPubKey": {
            "asm": "OP_DUP OP_HASH160 a0db3453c7b58b642f36798a5b3168d135af2540 OP_EQUALVERIFY OP_CHECKSIG",
            "hex": "76a914a0db3453c7b58b642f36798a5b3168d135af254088ac",
            "reqSigs": 1,
            "type": "pubkeyhash",
            "addresses": [
              "LZtUyVetPtg8VbkMuR3H7sKVcqdBmLXTsp"
            ]
          }
        }, 
        {
          "value": 9.83462860,
          "n": 1,
          "scriptPubKey": {
            "asm": "OP_DUP OP_HASH160 540f4ba9164b47d9975ff908220a2d84d577ced5 OP_EQUALVERIFY OP_CHECKSIG",
            "hex": "76a914540f4ba9164b47d9975ff908220a2d84d577ced588ac",
            "reqSigs": 1,
            "type": "pubkeyhash",
            "addresses": [
              "LStRM5bpF3BfJ8zAwbGKpk1v9apNzZJ8ze"
            ]
          }
        }
      ],
      "hex": "0200000001ace6cb2f9d81848ce3a08f8bb9800ae7898f91c6435c1e1309712a4a9552427b010000006a47304402207cfccbe68ec73aab6778948c6644b678047f2d2733929d07b288bbf43ab677110220233168b34fdc7fc274b6c5f7f248f9fbe8d29bd37513981264074cdf99e36503012103a7d0f5b6aee3054cd94742032234ff6dec87b3138eca72f583d07254febccdddfeffffff0254966302000000001976a914a0db3453c7b58b642f36798a5b3168d135af254088accc739e3a000000001976a914540f4ba9164b47d9975ff908220a2d84d577ced588ac99c31400"
    }, 
    {
      "txid": "5149d3182c93b39c27f80cd5b38cb6a9d58b1767bf077cea30cbe9acff99f2a8",
      "hash": "5149d3182c93b39c27f80cd5b38cb6a9d58b1767bf077cea30cbe9acff99f2a8",
      "version": 1,
      "size": 225,
      "vsize": 225,
      "locktime": 0,
      "vin": [
        {
          "txid": "5aaad83f110aa816416125bb41261ad0bef7dfea1f067c2edd4946d1545d6601",
          "vout": 1,
          "scriptSig": {
            "asm": "3044022002547a6ead62c23c07b1bfe28292d923f3795e0641e8dc921dbb2950a34d50a70220535b6dfbb47bf599fa300b406dcd71f540cee0bc20bcae44c3d409a6774e7ed1[ALL] 0336b5edcf16294bcf68352ec4fdc5840f406dcdab47e637bd5f28240fa5d25e66",
            "hex": "473044022002547a6ead62c23c07b1bfe28292d923f3795e0641e8dc921dbb2950a34d50a70220535b6dfbb47bf599fa300b406dcd71f540cee0bc20bcae44c3d409a6774e7ed101210336b5edcf16294bcf68352ec4fdc5840f406dcdab47e637bd5f28240fa5d25e66"
          },
          "sequence": 4294967295
        }
      ],
      "vout": [
        {
          "value": 80.90683655,
          "n": 0,
          "scriptPubKey": {
            "asm": "OP_DUP OP_HASH160 2f6faceb3baa9e6d6baf7d4d298a07ff1088382d OP_EQUALVERIFY OP_CHECKSIG",
            "hex": "76a9142f6faceb3baa9e6d6baf7d4d298a07ff1088382d88ac",
            "reqSigs": 1,
            "type": "pubkeyhash",
            "addresses": [
              "LPYmoaP471ChvC9WnC1Uh1YiGccTQ76JKy"
            ]
          }
        }, 
        {
          "value": 7.84833493,
          "n": 1,
          "scriptPubKey": {
            "asm": "OP_DUP OP_HASH160 99157cdb09347ad4bfe34c01d38002b259ea40ed OP_EQUALVERIFY OP_CHECKSIG",
            "hex": "76a91499157cdb09347ad4bfe34c01d38002b259ea40ed88ac",
            "reqSigs": 1,
            "type": "pubkeyhash",
            "addresses": [
              "LZBPPZC5Y1SPkYpyWhSUKGBWfgYzEq3akP"
            ]
          }
        }
      ],
      "hex": "010000000101665d54d14649dd2e7c061feadff7bed01a2641bb25614116a80a113fd8aa5a010000006a473044022002547a6ead62c23c07b1bfe28292d923f3795e0641e8dc921dbb2950a34d50a70220535b6dfbb47bf599fa300b406dcd71f540cee0bc20bcae44c3d409a6774e7ed101210336b5edcf16294bcf68352ec4fdc5840f406dcdab47e637bd5f28240fa5d25e66ffffffff0207093ee2010000001976a9142f6faceb3baa9e6d6baf7d4d298a07ff1088382d88acd59bc72e000000001976a91499157cdb09347ad4bfe34c01d38002b259ea40ed88ac00000000"
    }
  ],
  "time": 1517482704,
  "mediantime": 1517481903,
  "nonce": 2545996075,
  "bits": "1a042eae",
  "difficulty": 4011378.762614286,
  "chainwork": "00000000000000000000000000000000000000000000003545b7dfb6a4ebde38",
  "previousblockhash": "91fc51b640c42f6eb8a4e7d3444c8c4108916430a6539c4165200da563861f08",
  "nextblockhash": "49d5c5ae717cb0b165722a627396743aeed71e1ef98d2a5de036f128fa0af3ac"
}
