{
  "hash": "f17d1fbbdfd01f3acf1d41659685f49ed4facc9162d4c4a313fb50fdbf67fae6",
  "confirmations": 1376,
  "strippedsize": 3804,
  "size": 4171,
  "weight": 15583,
  "height": 1359618,
  "version": 536870912,
  "versionHex": "20000000",
  "merkleroot": "51d9238a19131c327a0ddd78c08d56efe91990bea75e2fff362aab9b0580d1ac",
  "tx": [
    {
      "txid": "f8d96bae5d2fd01256bc3f9d1e8b3b5c92987d153ba882c034d78a4999b5df27",
      "hash": "8bea46d29f064afaf535b87220ee233bc76d7b62d8d4365a75754051b887a1eb",
      "version": 1,
      "size": 253,
      "vsize": 226,
      "locktime": 0,
      "vin": [
        {
          "coinbase": "0302bf1441d69c122a73d6ba41d69c122a1c52fb2f4c54432e544f502ffabe6d6d93ec879f2011a8f505730074f7e5400a57dd2717cc9fd856f0443e1cb29d1b5801000000000000001531b32e1400000000000000",
          "sequence": 4294967295
        }
      ],
      "vout": [
        {
          "value": 25.01402790,
          "n": 0,
          "scriptPubKey": {
            "asm": "OP_DUP OP_HASH160 0c617fdb2ea42aed30a509595ee21ba3f6688db0 OP_EQUALVERIFY OP_CHECKSIG",
            "hex": "76a9140c617fdb2ea42aed30a509595ee21ba3f6688db088ac",
            "reqSigs": 1,
            "type": "pubkeyhash",
            "addresses": [
              "LLMRAtr3qBje2ySEa3CnZ55LA4TQMWnRY3"
            ]
          }
        }, 
        {
          "value": 0.00000000,
          "n": 1,
          "scriptPubKey": {
            "asm": "OP_RETURN aa21a9ed73a0364793001dbc8f23e0b34cdaad25d8e019bfc6c07180ff909443301b96de",
            "hex": "6a24aa21a9ed73a0364793001dbc8f23e0b34cdaad25d8e019bfc6c07180ff909443301b96de",
            "type": "nulldata"
          }
        }
      ],
      "hex": "010000000001010000000000000000000000000000000000000000000000000000000000000000ffffffff550302bf1441d69c122a73d6ba41d69c122a1c52fb2f4c54432e544f502ffabe6d6d93ec879f2011a8f505730074f7e5400a57dd2717cc9fd856f0443e1cb29d1b5801000000000000001531b32e1400000000000000ffffffff02a6601895000000001976a9140c617fdb2ea42aed30a509595ee21ba3f6688db088ac0000000000000000266a24aa21a9ed73a0364793001dbc8f23e0b34cdaad25d8e019bfc6c07180ff909443301b96de0120000000000000000000000000000000000000000000000000000000000000000000000000"
    }, 
    {
      "txid": "ddd82d307d98b4ffec6727b57a107e8b2655ac2347903f680026e6b8f76d4a3a",
      "hash": "ddd82d307d98b4ffec6727b57a107e8b2655ac2347903f680026e6b8f76d4a3a",
      "version": 1,
      "size": 487,
      "vsize": 487,
      "locktime": 0,
      "vin": [
        {
          "txid": "f013d992f645c7e52645f5223b0c07754c646bcafe34c2f0dfdef7f6c3e99a16",
          "vout": 1,
          "scriptSig": {
            "asm": "3044022075dbdfbeb20d2e0b354bacae238e3c1063150a3e815b77eed586e74d83e84b90022015d6ee400e564ca9002b9f31af820520b1199853aae10565427491a3df1f8528[ALL] 03037155011e45fc682fbec10ec8ef3f7661a1956ad7d62795b9b7b8af2205fac7",
            "hex": "473044022075dbdfbeb20d2e0b354bacae238e3c1063150a3e815b77eed586e74d83e84b90022015d6ee400e564ca9002b9f31af820520b1199853aae10565427491a3df1f8528012103037155011e45fc682fbec10ec8ef3f7661a1956ad7d62795b9b7b8af2205fac7"
          },
          "sequence": 4294967295
        }, 
        {
          "txid": "e99511ac4a6b4de86afcb1cfa7e665e3944c6b9661aaa5b3f8e31a9ceedf3f0a",
          "vout": 1,
          "scriptSig": {
            "asm": "3045022100889908751f4258ab70731e6c07c81896135f52f9b5ffdac1e905a1704ba0db4402200e92dfa86058240cd530a8b5510e8a739b3a95a8f28047c0ee5b07a03e9818fc[ALL] 028f860c8b22b37656cfbef3447382487eb6ecbc320085a02917f04af1589935c7",
            "hex": "483045022100889908751f4258ab70731e6c07c81896135f52f9b5ffdac1e905a1704ba0db4402200e92dfa86058240cd530a8b5510e8a739b3a95a8f28047c0ee5b07a03e9818fc0121028f860c8b22b37656cfbef3447382487eb6ecbc320085a02917f04af1589935c7"
          },
          "sequence": 4294967295
        }, 
        {
          "txid": "d6d228e4a8857b9fd7d90f73e8e9bcd530a7a6107a4f757d5865e30440e8229f",
          "vout": 1,
          "scriptSig": {
            "asm": "3045022100934b5f1995c38a5b4860195b5b4aab83836249fcdcfa797d217f58c354b5ec9c0220162f095ed91697938749f0d60d90a537f74babb13f4eadc940b97ec8bef4ceb6[ALL] 02cba0124ed4b5e600d5f08fc2aa39e9f23ed64c27c1afd44e5592cede6b1540de",
            "hex": "483045022100934b5f1995c38a5b4860195b5b4aab83836249fcdcfa797d217f58c354b5ec9c0220162f095ed91697938749f0d60d90a537f74babb13f4eadc940b97ec8bef4ceb6012102cba0124ed4b5e600d5f08fc2aa39e9f23ed64c27c1afd44e5592cede6b1540de"
          },
          "sequence": 4294967295
        }
      ],
      "vout": [
        {
          "value": 0.21942227,
          "n": 0,
          "scriptPubKey": {
            "asm": "OP_DUP OP_HASH160 e6a880c159e0e44e7876f5ae63d26effce8c3f75 OP_EQUALVERIFY OP_CHECKSIG",
            "hex": "76a914e6a880c159e0e44e7876f5ae63d26effce8c3f7588ac",
            "reqSigs": 1,
            "type": "pubkeyhash",
            "addresses": [
              "LgFZY8ADxLmj91CW2DfXpJsLtrNEhMX5rA"
            ]
          }
        }
      ],
      "hex": "0100000003169ae9c3f6f7dedff0c234feca6b644c75070c3b22f54526e5c745f692d913f0010000006a473044022075dbdfbeb20d2e0b354bacae238e3c1063150a3e815b77eed586e74d83e84b90022015d6ee400e564ca9002b9f31af820520b1199853aae10565427491a3df1f8528012103037155011e45fc682fbec10ec8ef3f7661a1956ad7d62795b9b7b8af2205fac7ffffffff0a3fdfee9c1ae3f8b3a5aa61966b4c94e365e6a7cfb1fc6ae84d6b4aac1195e9010000006b483045022100889908751f4258ab70731e6c07c81896135f52f9b5ffdac1e905a1704ba0db4402200e92dfa86058240cd530a8b5510e8a739b3a95a8f28047c0ee5b07a03e9818fc0121028f860c8b22b37656cfbef3447382487eb6ecbc320085a02917f04af1589935c7ffffffff9f22e84004e365587d754f7a10a6a730d5bce9e8730fd9d79f7b85a8e428d2d6010000006b483045022100934b5f1995c38a5b4860195b5b4aab83836249fcdcfa797d217f58c354b5ec9c0220162f095ed91697938749f0d60d90a537f74babb13f4eadc940b97ec8bef4ceb6012102cba0124ed4b5e600d5f08fc2aa39e9f23ed64c27c1afd44e5592cede6b1540deffffffff01d3cf4e01000000001976a914e6a880c159e0e44e7876f5ae63d26effce8c3f7588ac00000000"
    }, 
    {
      "txid": "95494c060b941899995186eaba1e8722050f35bd128a2abdec53eb1d3a2efb3d",
      "hash": "95494c060b941899995186eaba1e8722050f35bd128a2abdec53eb1d3a2efb3d",
      "version": 1,
      "size": 520,
      "vsize": 520,
      "locktime": 0,
      "vin": [
        {
          "txid": "94ed58fd629bd178e5167347c22611e0d143751f77408f0ac0b4e0096dd5d577",
          "vout": 2,
          "scriptSig": {
            "asm": "304402201cfd828d53e06ab3d81a72df546ff0b6ce8fbe5bbfa2ae2eab3a71bba210b9e202206a9a1534d5cf9bc01a596e898be62c1efb0a9c36bbc6e247189024d3bda27dab[ALL] 02a2f3542ccaf0264935fb24dc5c15b98e49a15a36c829fcfcc393ea6bb0046838",
            "hex": "47304402201cfd828d53e06ab3d81a72df546ff0b6ce8fbe5bbfa2ae2eab3a71bba210b9e202206a9a1534d5cf9bc01a596e898be62c1efb0a9c36bbc6e247189024d3bda27dab012102a2f3542ccaf0264935fb24dc5c15b98e49a15a36c829fcfcc393ea6bb0046838"
          },
          "sequence": 4294967295
        }, 
        {
          "txid": "02010683935eb94969d4955490537177a9a0406353bcd7b0434607af23839ca4",
          "vout": 1,
          "scriptSig": {
            "asm": "3045022100efb2112e31d3ae2961595e766c3315c6db9f1191a5fc13fd18b2b5f61213dd360220494f8431ce805751c49d4e5fbc6a1325ea6fe9c221655e4ac509650e9d5060f0[ALL] 03c4df9774e84822d9a64b644429f0019370e5ee4c90249728f4cf4ca7d5a28c4a",
            "hex": "483045022100efb2112e31d3ae2961595e766c3315c6db9f1191a5fc13fd18b2b5f61213dd360220494f8431ce805751c49d4e5fbc6a1325ea6fe9c221655e4ac509650e9d5060f0012103c4df9774e84822d9a64b644429f0019370e5ee4c90249728f4cf4ca7d5a28c4a"
          },
          "sequence": 4294967295
        }, 
        {
          "txid": "1b8434f32a78af948d2fd3642203b5ba07edb1fc13f4f93a798dae80cb61a79d",
          "vout": 1,
          "scriptSig": {
            "asm": "304402200b8ddb9c3b15093d06c86d4bbb5b9bf17683392c56699b06c39c7a5982875f9d02207f58306bbffebeccce5a07fcdc86dcc4acf437df2706aa08745d2e627dcfdbd7[ALL] 034cde783742d34bb2461f53fc3932cb9f9a62918d18eb3f833b1d24b0df683209",
            "hex": "47304402200b8ddb9c3b15093d06c86d4bbb5b9bf17683392c56699b06c39c7a5982875f9d02207f58306bbffebeccce5a07fcdc86dcc4acf437df2706aa08745d2e627dcfdbd70121034cde783742d34bb2461f53fc3932cb9f9a62918d18eb3f833b1d24b0df683209"
          },
          "sequence": 4294967295
        }
      ],
      "vout": [
        {
          "value": 1.95852320,
          "n": 0,
          "scriptPubKey": {
            "asm": "OP_DUP OP_HASH160 a2d668a4997f1557b592043db9457db3e90b5fc9 OP_EQUALVERIFY OP_CHECKSIG",
            "hex": "76a914a2d668a4997f1557b592043db9457db3e90b5fc988ac",
            "reqSigs": 1,
            "type": "pubkeyhash",
            "addresses": [
              "La4xafu4ZBf3fBKX7jv7emyFFiPWkkgUMm"
            ]
          }
        }, 
        {
          "value": 3.76034100,
          "n": 1,
          "scriptPubKey": {
            "asm": "OP_DUP OP_HASH160 44a0207972bb4d0ed73bade179c99207e83c9dd7 OP_EQUALVERIFY OP_CHECKSIG",
            "hex": "76a91444a0207972bb4d0ed73bade179c99207e83c9dd788ac",
            "reqSigs": 1,
            "type": "pubkeyhash",
            "addresses": [
              "LRUp34oF6EbMFXsHC2dnskDbfB6Jyyyso8"
            ]
          }
        }
      ],
      "hex": "010000000377d5d56d09e0b4c00a8f40771f7543d1e01126c2477316e578d19b62fd58ed94020000006a47304402201cfd828d53e06ab3d81a72df546ff0b6ce8fbe5bbfa2ae2eab3a71bba210b9e202206a9a1534d5cf9bc01a596e898be62c1efb0a9c36bbc6e247189024d3bda27dab012102a2f3542ccaf0264935fb24dc5c15b98e49a15a36c829fcfcc393ea6bb0046838ffffffffa49c8323af074643b0d7bc536340a0a9777153905495d46949b95e9383060102010000006b483045022100efb2112e31d3ae2961595e766c3315c6db9f1191a5fc13fd18b2b5f61213dd360220494f8431ce805751c49d4e5fbc6a1325ea6fe9c221655e4ac509650e9d5060f0012103c4df9774e84822d9a64b644429f0019370e5ee4c90249728f4cf4ca7d5a28c4affffffff9da761cb80ae8d793af9f413fcb1ed07bab5032264d32f8d94af782af334841b010000006a47304402200b8ddb9c3b15093d06c86d4bbb5b9bf17683392c56699b06c39c7a5982875f9d02207f58306bbffebeccce5a07fcdc86dcc4acf437df2706aa08745d2e627dcfdbd70121034cde783742d34bb2461f53fc3932cb9f9a62918d18eb3f833b1d24b0df683209ffffffff022078ac0b000000001976a914a2d668a4997f1557b592043db9457db3e90b5fc988ac34d36916000000001976a91444a0207972bb4d0ed73bade179c99207e83c9dd788ac00000000"
    }, 
    {
      "txid": "9b14642cc0e87739a926915c8ab6ccd6cf64efeeb0ea579bcf4a2bfe8bfd4e80",
      "hash": "9b14642cc0e87739a926915c8ab6ccd6cf64efeeb0ea579bcf4a2bfe8bfd4e80",
      "version": 1,
      "size": 225,
      "vsize": 225,
      "locktime": 0,
      "vin": [
        {
          "txid": "791279896af3dc63ee618b42e8d9664d1d813058105d385c91e7b2be475a362b",
          "vout": 1,
          "scriptSig": {
            "asm": "3044022063c89e37d9072be7176e57114d3ef6885729cfb8439c38908afde413b6fa79e3022045a0880adcd159fe165c1fe17081c2f3bb805e3f32c548a8921a34785c50b4e4[ALL] 02f3841ec0fd0539f29ea1515ce91701a08a747e938ffd6c43b2cff793a8389dfd",
            "hex": "473044022063c89e37d9072be7176e57114d3ef6885729cfb8439c38908afde413b6fa79e3022045a0880adcd159fe165c1fe17081c2f3bb805e3f32c548a8921a34785c50b4e4012102f3841ec0fd0539f29ea1515ce91701a08a747e938ffd6c43b2cff793a8389dfd"
          },
          "sequence": 4294967295
        }
      ],
      "vout": [
        {
          "value": 28.41900000,
          "n": 0,
          "scriptPubKey": {
            "asm": "OP_DUP OP_HASH160 e16cdaafbc333aaa03c3455639bf1376701216f3 OP_EQUALVERIFY OP_CHECKSIG",
            "hex": "76a914e16cdaafbc333aaa03c3455639bf1376701216f388ac",
            "reqSigs": 1,
            "type": "pubkeyhash",
            "addresses": [
              "Lfmthha9VECwLpTAKs2ed5kRJYx9xnWus8"
            ]
          }
        }, 
        {
          "value": 131.41211775,
          "n": 1,
          "scriptPubKey": {
            "asm": "OP_DUP OP_HASH160 77f66e698b3bef88dd4ebb01fd281335b4171b17 OP_EQUALVERIFY OP_CHECKSIG",
            "hex": "76a91477f66e698b3bef88dd4ebb01fd281335b4171b1788ac",
            "reqSigs": 1,
            "type": "pubkeyhash",
            "addresses": [
              "LWAFtPS7L2snzytb9SahK5pqE9wkwWEuor"
            ]
          }
        }
      ],
      "hex": "01000000012b365a47beb2e7915c385d105830811d4d66d9e8428b61ee63dcf36a89791279010000006a473044022063c89e37d9072be7176e57114d3ef6885729cfb8439c38908afde413b6fa79e3022045a0880adcd159fe165c1fe17081c2f3bb805e3f32c548a8921a34785c50b4e4012102f3841ec0fd0539f29ea1515ce91701a08a747e938ffd6c43b2cff793a8389dfdffffffff02e0f363a9000000001976a914e16cdaafbc333aaa03c3455639bf1376701216f388ac7ffa460f030000001976a91477f66e698b3bef88dd4ebb01fd281335b4171b1788ac00000000"
    }, 
    {
      "txid": "1c590dbb8d268fe9d1690948e95f11ae9e6f31bb385fb72b96e0afc8812db5f7",
      "hash": "1c590dbb8d268fe9d1690948e95f11ae9e6f31bb385fb72b96e0afc8812db5f7",
      "version": 1,
      "size": 226,
      "vsize": 226,
      "locktime": 0,
      "vin": [
        {
          "txid": "779269e280ba1667860ac2cc644364fce902db640e6b4a62c4a7e8db1dd2521e",
          "vout": 1,
          "scriptSig": {
            "asm": "3045022100910576548f83e26ea69ff38975c8f56bcb658b56b059f349b6c30a61d0ea9bee02203d2d0f9024ec908231ad954051bfe4028e97de99a136decc4800c60e946ed00c[ALL] 03f5e005d76c82d7e27d2adf23dee12e39fd7156c6ceabd02e8c498ad9f99562ce",
            "hex": "483045022100910576548f83e26ea69ff38975c8f56bcb658b56b059f349b6c30a61d0ea9bee02203d2d0f9024ec908231ad954051bfe4028e97de99a136decc4800c60e946ed00c012103f5e005d76c82d7e27d2adf23dee12e39fd7156c6ceabd02e8c498ad9f99562ce"
          },
          "sequence": 4294967295
        }
      ],
      "vout": [
        {
          "value": 3.30000000,
          "n": 0,
          "scriptPubKey": {
            "asm": "OP_DUP OP_HASH160 70b9cd4e2d7e96ffbf33dc79103e17c3165fd39f OP_EQUALVERIFY OP_CHECKSIG",
            "hex": "76a91470b9cd4e2d7e96ffbf33dc79103e17c3165fd39f88ac",
            "reqSigs": 1,
            "type": "pubkeyhash",
            "addresses": [
              "LVVzXSnwR6umnswtghWJEhGUMV1eyt4M5a"
            ]
          }
        }, 
        {
          "value": 156.47451550,
          "n": 1,
          "scriptPubKey": {
            "asm": "OP_DUP OP_HASH160 63838da42c3d40bde1f1021beaccc3891bb796ce OP_EQUALVERIFY OP_CHECKSIG",
            "hex": "76a91463838da42c3d40bde1f1021beaccc3891bb796ce88ac",
            "reqSigs": 1,
            "type": "pubkeyhash",
            "addresses": [
              "LUJ8kgnf1cn4ehDeQR3cKRDHSzBbodHAn9"
            ]
          }
        }
      ],
      "hex": "01000000011e52d21ddbe8a7c4624a6b0e64db02e9fc644364ccc20a866716ba80e2699277010000006b483045022100910576548f83e26ea69ff38975c8f56bcb658b56b059f349b6c30a61d0ea9bee02203d2d0f9024ec908231ad954051bfe4028e97de99a136decc4800c60e946ed00c012103f5e005d76c82d7e27d2adf23dee12e39fd7156c6ceabd02e8c498ad9f99562ceffffffff028066ab13000000001976a91470b9cd4e2d7e96ffbf33dc79103e17c3165fd39f88ac9e29a9a4030000001976a91463838da42c3d40bde1f1021beaccc3891bb796ce88ac00000000"
    }, 
    {
      "txid": "88c78eb317dc01dd9780cc52ae55bce4d01528faecec06b899edae9097b85a8b",
      "hash": "88c78eb317dc01dd9780cc52ae55bce4d01528faecec06b899edae9097b85a8b",
      "version": 1,
      "size": 259,
      "vsize": 259,
      "locktime": 0,
      "vin": [
        {
          "txid": "ac5c998715a3208833db3f53f6b3d932f9a186aa6ec8fb678e3b9d6fe5dcc5cb",
          "vout": 0,
          "scriptSig": {
            "asm": "304402207d6c1aa98afcaeef6d9a99feb1084031f372608afe970944dd239e7bc339211d02204263b9c39198d87d4ddcc216e1ed02e67ae60742fba299e64617c439fdb2d109[ALL] 039762aeac7f2dfa57183ab23600f5107f0cc2007a223bbea994de8e876041974f",
            "hex": "47304402207d6c1aa98afcaeef6d9a99feb1084031f372608afe970944dd239e7bc339211d02204263b9c39198d87d4ddcc216e1ed02e67ae60742fba299e64617c439fdb2d1090121039762aeac7f2dfa57183ab23600f5107f0cc2007a223bbea994de8e876041974f"
          },
          "sequence": 4294967295
        }
      ],
      "vout": [
        {
          "value": 3.70345526,
          "n": 0,
          "scriptPubKey": {
            "asm": "OP_DUP OP_HASH160 8054d8d8dd6bce91125bcfe8bbb473f54afcdc60 OP_EQUALVERIFY OP_CHECKSIG",
            "hex": "76a9148054d8d8dd6bce91125bcfe8bbb473f54afcdc6088ac",
            "reqSigs": 1,
            "type": "pubkeyhash",
            "addresses": [
              "LWvWQ3XMoipFsAqE1EZPQFUovLea7DC1ef"
            ]
          }
        }, 
        {
          "value": 0.14800000,
          "n": 1,
          "scriptPubKey": {
            "asm": "OP_DUP OP_HASH160 de436c6876575885de4302e11203b57593286942 OP_EQUALVERIFY OP_CHECKSIG",
            "hex": "76a914de436c6876575885de4302e11203b5759328694288ac",
            "reqSigs": 1,
            "type": "pubkeyhash",
            "addresses": [
              "LfVB3TsYdK38H9iwZHTE2qXghaXoXByoLM"
            ]
          }
        }, 
        {
          "value": 1.00000000,
          "n": 2,
          "scriptPubKey": {
            "asm": "OP_DUP OP_HASH160 ab93d4d1f492ef2744092f7551213e6ec8dcdf83 OP_EQUALVERIFY OP_CHECKSIG",
            "hex": "76a914ab93d4d1f492ef2744092f7551213e6ec8dcdf8388ac",
            "reqSigs": 1,
            "type": "pubkeyhash",
            "addresses": [
              "LasAuWvmwLgEY76UJq2CkBmp1e7Vfdndqi"
            ]
          }
        }
      ],
      "hex": "0100000001cbc5dce56f9d3b8e67fbc86eaa86a1f932d9b3f6533fdb338820a31587995cac000000006a47304402207d6c1aa98afcaeef6d9a99feb1084031f372608afe970944dd239e7bc339211d02204263b9c39198d87d4ddcc216e1ed02e67ae60742fba299e64617c439fdb2d1090121039762aeac7f2dfa57183ab23600f5107f0cc2007a223bbea994de8e876041974fffffffff0336061316000000001976a9148054d8d8dd6bce91125bcfe8bbb473f54afcdc6088ac80d4e100000000001976a914de436c6876575885de4302e11203b5759328694288ac00e1f505000000001976a914ab93d4d1f492ef2744092f7551213e6ec8dcdf8388ac00000000"
    }, 
    {
      "txid": "819ef544268f600a5ee5201d36062f971fa766fb5709411096129dfe3872d8cb",
      "hash": "8ea855b3371cf5a73e5dd7fd87472c78300944246c9c2e5cb2ec6739060e5042",
      "version": 1,
      "size": 374,
      "vsize": 208,
      "locktime": 0,
      "vin": [
        {
          "txid": "0da68184797969655b6b382f9332335e39fe647e21c648075924454a8c7a48c8",
          "vout": 1,
          "scriptSig": {
            "asm": "0020409fd93c7351b461fa46963fa28755038f397ee054ab9e56eda0b1081d768cc4",
            "hex": "220020409fd93c7351b461fa46963fa28755038f397ee054ab9e56eda0b1081d768cc4"
          },
          "txinwitness": [
            "", 
            "30450221009401d7c9795ff85267487403c9d3ae9a2585625b80caee04c159bb24ed59ea42022060953a6f293b7098a1e99758771432a441f3e2ad463c40c4597539b24652e58301", 
            "3045022100e3c3c514ed779deee4acc2bd65b0b3ccc7966d96aad95f990938ade1feae45b102203df1c46511251bc8da01dc408136f8604f1cd07dc1a2b6bd1b836b9e90b58b2b01", 
            "522103ceb293b39e087131961da42b3deaef48432d57a08bfd111247901be2936525b32103fa185b0d6c2a6d812d1a9418c54b3cea527d229a73a0c6c72345a1851ebcdad352ae"
          ],
          "sequence": 4294967295
        }
      ],
      "vout": [
        {
          "value": 0.05618000,
          "n": 0,
          "scriptPubKey": {
            "asm": "OP_DUP OP_HASH160 4dbd79fa58e78f619fed99466be8dd472b8bfa00 OP_EQUALVERIFY OP_CHECKSIG",
            "hex": "76a9144dbd79fa58e78f619fed99466be8dd472b8bfa0088ac",
            "reqSigs": 1,
            "type": "pubkeyhash",
            "addresses": [
              "LSK1H3HuMcjdgp2dx9TCZQzdJbALq4Dv1s"
            ]
          }
        }, 
        {
          "value": 0.33310200,
          "n": 1,
          "scriptPubKey": {
            "asm": "OP_HASH160 2d9ba1f1c217fd18a576b17eaf8a1c6f1cd2f1de OP_EQUAL",
            "hex": "a9142d9ba1f1c217fd18a576b17eaf8a1c6f1cd2f1de87",
            "reqSigs": 1,
            "type": "scripthash",
            "addresses": [
              "MC4K5c2x6rcVohDBLrLNQRsqL5atuzztot"
            ]
          }
        }
      ],
      "hex": "01000000000101c8487a8c4a4524590748c6217e64fe395e3332932f386b5b656979798481a60d0100000023220020409fd93c7351b461fa46963fa28755038f397ee054ab9e56eda0b1081d768cc4ffffffff0250b95500000000001976a9144dbd79fa58e78f619fed99466be8dd472b8bfa0088acf845fc010000000017a9142d9ba1f1c217fd18a576b17eaf8a1c6f1cd2f1de8704004830450221009401d7c9795ff85267487403c9d3ae9a2585625b80caee04c159bb24ed59ea42022060953a6f293b7098a1e99758771432a441f3e2ad463c40c4597539b24652e58301483045022100e3c3c514ed779deee4acc2bd65b0b3ccc7966d96aad95f990938ade1feae45b102203df1c46511251bc8da01dc408136f8604f1cd07dc1a2b6bd1b836b9e90b58b2b0147522103ceb293b39e087131961da42b3deaef48432d57a08bfd111247901be2936525b32103fa185b0d6c2a6d812d1a9418c54b3cea527d229a73a0c6c72345a1851ebcdad352ae00000000"
    }, 
    {
      "txid": "8980e0eeeeb0654da963930fe1f1d09f39af98ff1f7341ee443181335429853d",
      "hash": "ea9de303c936ac763d2eed69afcaae89e249669ec08e25e88634f512aa5e23c0",
      "version": 1,
      "size": 247,
      "vsize": 166,
      "locktime": 0,
      "vin": [
        {
          "txid": "5ee9c70d83ec7f976828f3caf50f818e28adc8842f34267bad5be06bfbd6e797",
          "vout": 1,
          "scriptSig": {
            "asm": "0014bf6bf3fcd41d2d1e2af7a3c7f2c5ee05d87346b0",
            "hex": "160014bf6bf3fcd41d2d1e2af7a3c7f2c5ee05d87346b0"
          },
          "txinwitness": [
            "304402201d862cb6af59a25b448f4449d2e401ed18548c898e8fecde967e48835f6d01f402207bfa1494afbf4a04753012609b6fff4dbc507c2340b723cfe0f4b628d779a55f01", 
            "03f2e160c0ec4d4abda7a33c7c8dd5ca54a85773820e3bfa45088679a359bb8021"
          ],
          "sequence": 4294967295
        }
      ],
      "vout": [
        {
          "value": 0.74600000,
          "n": 0,
          "scriptPubKey": {
            "asm": "OP_HASH160 187917e212ae036f7181284944057f70b79228d4 OP_EQUAL",
            "hex": "a914187917e212ae036f7181284944057f70b79228d487",
            "reqSigs": 1,
            "type": "scripthash",
            "addresses": [
              "MA8ZWk5sBkMzeVmRsrxNkizoA59PV53RCa"
            ]
          }
        }, 
        {
          "value": 13.92218637,
          "n": 1,
          "scriptPubKey": {
            "asm": "OP_HASH160 5e29865c43495397c0fdb7bd007191bb527a0ddb OP_EQUAL",
            "hex": "a9145e29865c43495397c0fdb7bd007191bb527a0ddb87",
            "reqSigs": 1,
            "type": "scripthash",
            "addresses": [
              "MGV3VfBQJ6ukHnRVUmHcrbqYvCGdMed65p"
            ]
          }
        }
      ],
      "hex": "0100000000010197e7d6fb6be05bad7b26342f84c8ad288e810ff5caf32868977fec830dc7e95e0100000017160014bf6bf3fcd41d2d1e2af7a3c7f2c5ee05d87346b0ffffffff02404e72040000000017a914187917e212ae036f7181284944057f70b79228d4870d92fb520000000017a9145e29865c43495397c0fdb7bd007191bb527a0ddb870247304402201d862cb6af59a25b448f4449d2e401ed18548c898e8fecde967e48835f6d01f402207bfa1494afbf4a04753012609b6fff4dbc507c2340b723cfe0f4b628d779a55f012103f2e160c0ec4d4abda7a33c7c8dd5ca54a85773820e3bfa45088679a359bb802100000000"
    }, 
    {
      "txid": "3f50da25b511f8ddf5865c014e0d6a9ddbf147c7d19dbc593c9c9d527c46e8fa",
      "hash": "3f50da25b511f8ddf5865c014e0d6a9ddbf147c7d19dbc593c9c9d527c46e8fa",
      "version": 1,
      "size": 371,
      "vsize": 371,
      "locktime": 1359616,
      "vin": [
        {
          "txid": "e5a5a0ae3c6659da22f227d4efbc1ae3ddcf25bdc8c05b22aaf564e029531f6c",
          "vout": 1,
          "scriptSig": {
            "asm": "3043022032501491ec330cb87fffb7a5f54ffa91747ce7c65e4f348118fe47775e78954e021f18f00c1ffb45c4792c18e48d222cbecb290d607a80d728a082cc0fa43e95d2[ALL] 03702c4c00915cc1c929a407ab1feb37fe35774d48b644268cddccec1c24e6d292",
            "hex": "463043022032501491ec330cb87fffb7a5f54ffa91747ce7c65e4f348118fe47775e78954e021f18f00c1ffb45c4792c18e48d222cbecb290d607a80d728a082cc0fa43e95d2012103702c4c00915cc1c929a407ab1feb37fe35774d48b644268cddccec1c24e6d292"
          },
          "sequence": 4294967294
        }, 
        {
          "txid": "9f8b6691c3c16b18e53231e4fda0c89507b17e652b15950e1e71c1d88febf666",
          "vout": 4,
          "scriptSig": {
            "asm": "304402202e882666f3536d83e62e83cb1e88a479c7fc3fa607e5ecd968b739ef4139f0fd02202126275628f5e87de26c3286a3258e4b259abdc232052337f72f41f06818e424[ALL] 0216c9cd6c20146716df07349f224a43a54874322eb30ecb2bf0c3fc8075abf0af",
            "hex": "47304402202e882666f3536d83e62e83cb1e88a479c7fc3fa607e5ecd968b739ef4139f0fd02202126275628f5e87de26c3286a3258e4b259abdc232052337f72f41f06818e42401210216c9cd6c20146716df07349f224a43a54874322eb30ecb2bf0c3fc8075abf0af"
          },
          "sequence": 4294967294
        }
      ],
      "vout": [
        {
          "value": 0.01011027,
          "n": 0,
          "scriptPubKey": {
            "asm": "OP_DUP OP_HASH160 fbdd8cef6cbf09625488863c56a43df3115db79a OP_EQUALVERIFY OP_CHECKSIG",
            "hex": "76a914fbdd8cef6cbf09625488863c56a43df3115db79a88ac",
            "reqSigs": 1,
            "type": "pubkeyhash",
            "addresses": [
              "LiBhGxosPHEFrGSoJyayKF4WMkh4rHNFTF"
            ]
          }
        }, 
        {
          "value": 5.75000000,
          "n": 1,
          "scriptPubKey": {
            "asm": "OP_DUP OP_HASH160 a387375353adaf5d668f988606840da09369d787 OP_EQUALVERIFY OP_CHECKSIG",
            "hex": "76a914a387375353adaf5d668f988606840da09369d78788ac",
            "reqSigs": 1,
            "type": "pubkeyhash",
            "addresses": [
              "La8cPTjcwxnhYtvSYqhNeT4o4z26QZW7N9"
            ]
          }
        }
      ],
      "hex": "01000000026c1f5329e064f5aa225bc0c8bd25cfdde31abcefd427f222da59663caea0a5e50100000069463043022032501491ec330cb87fffb7a5f54ffa91747ce7c65e4f348118fe47775e78954e021f18f00c1ffb45c4792c18e48d222cbecb290d607a80d728a082cc0fa43e95d2012103702c4c00915cc1c929a407ab1feb37fe35774d48b644268cddccec1c24e6d292feffffff66f6eb8fd8c1711e0e95152b657eb10795c8a0fde43132e5186bc1c391668b9f040000006a47304402202e882666f3536d83e62e83cb1e88a479c7fc3fa607e5ecd968b739ef4139f0fd02202126275628f5e87de26c3286a3258e4b259abdc232052337f72f41f06818e42401210216c9cd6c20146716df07349f224a43a54874322eb30ecb2bf0c3fc8075abf0affeffffff02536d0f00000000001976a914fbdd8cef6cbf09625488863c56a43df3115db79a88acc0cd4522000000001976a914a387375353adaf5d668f988606840da09369d78788ac00bf1400"
    }, 
    {
      "txid": "61e24ba7759d9bf76cfda1f3461849553e03c3609fa5e1d6c92c774785074d5c",
      "hash": "61e24ba7759d9bf76cfda1f3461849553e03c3609fa5e1d6c92c774785074d5c",
      "version": 1,
      "size": 225,
      "vsize": 225,
      "locktime": 0,
      "vin": [
        {
          "txid": "bf201a4b9db039eeadcb559e0a022fe26c67f50583b6f5d10a085b059a783083",
          "vout": 1,
          "scriptSig": {
            "asm": "3044022053eaa7c76bd366edb9e41ea9b2039beb152ee7409938a214085050e0afa0636602206fcafd9fd69ef232a7509da3af9ead3fa967aed7d1012d58f4dc35a3ccad8c1d[ALL] 03406980deb17c3c533b475a8468e4455e02087ba81a71c90af62ffaa595dcc977",
            "hex": "473044022053eaa7c76bd366edb9e41ea9b2039beb152ee7409938a214085050e0afa0636602206fcafd9fd69ef232a7509da3af9ead3fa967aed7d1012d58f4dc35a3ccad8c1d012103406980deb17c3c533b475a8468e4455e02087ba81a71c90af62ffaa595dcc977"
          },
          "sequence": 4294967295
        }
      ],
      "vout": [
        {
          "value": 1.70401545,
          "n": 0,
          "scriptPubKey": {
            "asm": "OP_DUP OP_HASH160 5ab79730797834d9aa85e788a66e11185d62226d OP_EQUALVERIFY OP_CHECKSIG",
            "hex": "76a9145ab79730797834d9aa85e788a66e11185d62226d88ac",
            "reqSigs": 1,
            "type": "pubkeyhash",
            "addresses": [
              "LTVd1aJwen3h5ksEQLXsiibpcwA76FfV3T"
            ]
          }
        }, 
        {
          "value": 0.26557778,
          "n": 1,
          "scriptPubKey": {
            "asm": "OP_DUP OP_HASH160 48171bc1b74dce345c708e23de33bc85a5663117 OP_EQUALVERIFY OP_CHECKSIG",
            "hex": "76a91448171bc1b74dce345c708e23de33bc85a566311788ac",
            "reqSigs": 1,
            "type": "pubkeyhash",
            "addresses": [
              "LRo8bdH7AtKkGyGQwUA5pkY5Rx6RKBx3if"
            ]
          }
        }
      ],
      "hex": "01000000018330789a055b080ad1f5b68305f5676ce22f020a9e55cbadee39b09d4b1a20bf010000006a473044022053eaa7c76bd366edb9e41ea9b2039beb152ee7409938a214085050e0afa0636602206fcafd9fd69ef232a7509da3af9ead3fa967aed7d1012d58f4dc35a3ccad8c1d012103406980deb17c3c533b475a8468e4455e02087ba81a71c90af62ffaa595dcc977ffffffff02091f280a000000001976a9145ab79730797834d9aa85e788a66e11185d62226d88ac523d9501000000001976a91448171bc1b74dce345c708e23de33bc85a566311788ac00000000"
    }, 
    {
      "txid": "1c35b5da8a4c3112f6543eb5fab0a1af87f73e2e4807d9498a66b7d186463f82",
      "hash": "1c35b5da8a4c3112f6543eb5fab0a1af87f73e2e4807d9498a66b7d186463f82",
      "version": 1,
      "size": 225,
      "vsize": 225,
      "locktime": 0,
      "vin": [
        {
          "txid": "82da3f1a4a18a961c73e4386cf5e759ed57c85cd1db3b2ad620eaf7c8a638679",
          "vout": 0,
          "scriptSig": {
            "asm": "304402205c9677715ea748528d2368547bbdd75f6de9e06671c116d31187c97cc6ef308902205bf8cd304f5843daa50e4635d5024faf22f3a8d359e679904773882a15b3b28d[ALL] 02573415c13b25986fa2d8da1019110d31988aea6706032dea45ffb02dded65df1",
            "hex": "47304402205c9677715ea748528d2368547bbdd75f6de9e06671c116d31187c97cc6ef308902205bf8cd304f5843daa50e4635d5024faf22f3a8d359e679904773882a15b3b28d012102573415c13b25986fa2d8da1019110d31988aea6706032dea45ffb02dded65df1"
          },
          "sequence": 4294967295
        }
      ],
      "vout": [
        {
          "value": 0.67831873,
          "n": 0,
          "scriptPubKey": {
            "asm": "OP_DUP OP_HASH160 cba0e444161276268b92f9cd01a5092a97851921 OP_EQUALVERIFY OP_CHECKSIG",
            "hex": "76a914cba0e444161276268b92f9cd01a5092a9785192188ac",
            "reqSigs": 1,
            "type": "pubkeyhash",
            "addresses": [
              "LdneB6x1nVDu5TUvUnEKVAa13qxnFndgrh"
            ]
          }
        }, 
        {
          "value": 0.32145527,
          "n": 1,
          "scriptPubKey": {
            "asm": "OP_DUP OP_HASH160 4897ec60617e2fd4932f72789b51e8b9dc5ee40f OP_EQUALVERIFY OP_CHECKSIG",
            "hex": "76a9144897ec60617e2fd4932f72789b51e8b9dc5ee40f88ac",
            "reqSigs": 1,
            "type": "pubkeyhash",
            "addresses": [
              "LRqnuquBgRbEo8KjRyqjMiETQ1Gmgd4EnF"
            ]
          }
        }
      ],
      "hex": "01000000017986638a7caf0e62adb2b31dcd857cd59e755ecf86433ec761a9184a1a3fda82000000006a47304402205c9677715ea748528d2368547bbdd75f6de9e06671c116d31187c97cc6ef308902205bf8cd304f5843daa50e4635d5024faf22f3a8d359e679904773882a15b3b28d012102573415c13b25986fa2d8da1019110d31988aea6706032dea45ffb02dded65df1ffffffff0241080b04000000001976a914cba0e444161276268b92f9cd01a5092a9785192188ac7780ea01000000001976a9144897ec60617e2fd4932f72789b51e8b9dc5ee40f88ac00000000"
    }, 
    {
      "txid": "a486937e7e2c49bec06cf2e9cc4270a3322193f550b683c1edef7460d7d94d5c",
      "hash": "a486937e7e2c49bec06cf2e9cc4270a3322193f550b683c1edef7460d7d94d5c",
      "version": 2,
      "size": 226,
      "vsize": 226,
      "locktime": 1359616,
      "vin": [
        {
          "txid": "bd32a7b6a494515ee4613e560cb6b53f94016e3147351e516ddbb87f5a377a11",
          "vout": 0,
          "scriptSig": {
            "asm": "3045022100f2a346f54770a9435cfdf020e142ef0b2502636d8835b0370a1d81669db26c2402204a83163a5cb6ed5d8116719ba6d2df59db445612f73cc04dc0895fd36e95104d[ALL] 02160cd8c91b649eb862f2a7e5430ccf367ff06916df75b38b8dc63957458f5c64",
            "hex": "483045022100f2a346f54770a9435cfdf020e142ef0b2502636d8835b0370a1d81669db26c2402204a83163a5cb6ed5d8116719ba6d2df59db445612f73cc04dc0895fd36e95104d012102160cd8c91b649eb862f2a7e5430ccf367ff06916df75b38b8dc63957458f5c64"
          },
          "sequence": 4294967294
        }
      ],
      "vout": [
        {
          "value": 1.26782299,
          "n": 0,
          "scriptPubKey": {
            "asm": "OP_DUP OP_HASH160 3d5b3eb6abe300155e40b716cfafe471706cdc94 OP_EQUALVERIFY OP_CHECKSIG",
            "hex": "76a9143d5b3eb6abe300155e40b716cfafe471706cdc9488ac",
            "reqSigs": 1,
            "type": "pubkeyhash",
            "addresses": [
              "LQpNnj6knbgjttDsKcSigJbLLv27z1kPJb"
            ]
          }
        }, 
        {
          "value": 1.49570001,
          "n": 1,
          "scriptPubKey": {
            "asm": "OP_DUP OP_HASH160 83862cf659de03588155788b9945d1008ce61c14 OP_EQUALVERIFY OP_CHECKSIG",
            "hex": "76a91483862cf659de03588155788b9945d1008ce61c1488ac",
            "reqSigs": 1,
            "type": "pubkeyhash",
            "addresses": [
              "LXDPX2emz3M3G41iD7EA9BubVZTcd79392"
            ]
          }
        }
      ],
      "hex": "0200000001117a375a7fb8db6d511e3547316e01943fb5b60c563e61e45e5194a4b6a732bd000000006b483045022100f2a346f54770a9435cfdf020e142ef0b2502636d8835b0370a1d81669db26c2402204a83163a5cb6ed5d8116719ba6d2df59db445612f73cc04dc0895fd36e95104d012102160cd8c91b649eb862f2a7e5430ccf367ff06916df75b38b8dc63957458f5c64feffffff025b8b8e07000000001976a9143d5b3eb6abe300155e40b716cfafe471706cdc9488acd141ea08000000001976a91483862cf659de03588155788b9945d1008ce61c1488ac00bf1400"
    }, 
    {
      "txid": "d290a94b8470326dffbaf55c6de72dfe8a0e79bcca155cdb45ac53a6dfcb458e",
      "hash": "d290a94b8470326dffbaf55c6de72dfe8a0e79bcca155cdb45ac53a6dfcb458e",
      "version": 1,
      "size": 226,
      "vsize": 226,
      "locktime": 0,
      "vin": [
        {
          "txid": "8adebbdab76c71aa5d31a31f6019af064b228bbef3355a8b56ae5a7464f4e735",
          "vout": 3,
          "scriptSig": {
            "asm": "3045022100fa8f99c2b7b2ddeebd422919fe1a67c919a03c46d32d36adf7a5527f0902646c022005c50cc060dc8eb3d7c324e7e7158dfef61368d0b3e3f01e906bd2f28fd51ffb[ALL] 03212a95888988fc822ea01a895d4f49bd52d2e2d082768fe65370eb4167b5cc67",
            "hex": "483045022100fa8f99c2b7b2ddeebd422919fe1a67c919a03c46d32d36adf7a5527f0902646c022005c50cc060dc8eb3d7c324e7e7158dfef61368d0b3e3f01e906bd2f28fd51ffb012103212a95888988fc822ea01a895d4f49bd52d2e2d082768fe65370eb4167b5cc67"
          },
          "sequence": 4294967295
        }
      ],
      "vout": [
        {
          "value": 0.03030614,
          "n": 0,
          "scriptPubKey": {
            "asm": "OP_DUP OP_HASH160 f344f2aea809145f928c5b438957e1380f98445d OP_EQUALVERIFY OP_CHECKSIG",
            "hex": "76a914f344f2aea809145f928c5b438957e1380f98445d88ac",
            "reqSigs": 1,
            "type": "pubkeyhash",
            "addresses": [
              "LhQF4R9wyDHGF7yZN629xuAQPKXvYxAaKE"
            ]
          }
        }, 
        {
          "value": 0.41646786,
          "n": 1,
          "scriptPubKey": {
            "asm": "OP_DUP OP_HASH160 30ad27772956971f8faaaa61192dbb1afdec9b1f OP_EQUALVERIFY OP_CHECKSIG",
            "hex": "76a91430ad27772956971f8faaaa61192dbb1afdec9b1f88ac",
            "reqSigs": 1,
            "type": "pubkeyhash",
            "addresses": [
              "LPfL8PAZ3zekVLSpQym9X3v1RzaztMHP5C"
            ]
          }
        }
      ],
      "hex": "010000000135e7f464745aae568b5a35f3be8b224b06af19601fa3315daa716cb7dabbde8a030000006b483045022100fa8f99c2b7b2ddeebd422919fe1a67c919a03c46d32d36adf7a5527f0902646c022005c50cc060dc8eb3d7c324e7e7158dfef61368d0b3e3f01e906bd2f28fd51ffb012103212a95888988fc822ea01a895d4f49bd52d2e2d082768fe65370eb4167b5cc67ffffffff02563e2e00000000001976a914f344f2aea809145f928c5b438957e1380f98445d88acc27a7b02000000001976a91430ad27772956971f8faaaa61192dbb1afdec9b1f88ac00000000"
    }, 
    {
      "txid": "aa9d298067278b7444484bf08de29bb7b6b481ebd3a9251e5d6212954d6610ea",
      "hash": "aa9d298067278b7444484bf08de29bb7b6b481ebd3a9251e5d6212954d6610ea",
      "version": 1,
      "size": 226,
      "vsize": 226,
      "locktime": 0,
      "vin": [
        {
          "txid": "6123c718a68b0f85f97322de5491b90660d49cf5b37396605d351a15b70059be",
          "vout": 0,
          "scriptSig": {
            "asm": "30450221009245d038dbd4742dda4e0fcd1aebac25d4ae51eba94af67f5858c1825ed2ed0902200c5d11fff73984f719b24de5e17176c018423ba200e531c91dc3181420e42d10[ALL] 0315373ed4d0c738f6ec10aed3881a7f293ec332c4393814401cf244048536b497",
            "hex": "4830450221009245d038dbd4742dda4e0fcd1aebac25d4ae51eba94af67f5858c1825ed2ed0902200c5d11fff73984f719b24de5e17176c018423ba200e531c91dc3181420e42d1001210315373ed4d0c738f6ec10aed3881a7f293ec332c4393814401cf244048536b497"
          },
          "sequence": 4294967295
        }
      ],
      "vout": [
        {
          "value": 0.22854800,
          "n": 0,
          "scriptPubKey": {
            "asm": "OP_DUP OP_HASH160 e2b2844b66400648f84ac924072fced15ab7c126 OP_EQUALVERIFY OP_CHECKSIG",
            "hex": "76a914e2b2844b66400648f84ac924072fced15ab7c12688ac",
            "reqSigs": 1,
            "type": "pubkeyhash",
            "addresses": [
              "Lftcq8UZW3Phwfdx1q4YDAhSCfwVJicQSX"
            ]
          }
        }, 
        {
          "value": 1.63600000,
          "n": 1,
          "scriptPubKey": {
            "asm": "OP_DUP OP_HASH160 2b9a71593c5ce9e9882cc4088e8079f794acc91a OP_EQUALVERIFY OP_CHECKSIG",
            "hex": "76a9142b9a71593c5ce9e9882cc4088e8079f794acc91a88ac",
            "reqSigs": 1,
            "type": "pubkeyhash",
            "addresses": [
              "LPCWLLHfsLBV59zs8WR58uGp7QcRw2JL7w"
            ]
          }
        }
      ],
      "hex": "0100000001be5900b7151a355d609673b3f59cd46006b99154de2273f9850f8ba618c72361000000006b4830450221009245d038dbd4742dda4e0fcd1aebac25d4ae51eba94af67f5858c1825ed2ed0902200c5d11fff73984f719b24de5e17176c018423ba200e531c91dc3181420e42d1001210315373ed4d0c738f6ec10aed3881a7f293ec332c4393814401cf244048536b497ffffffff0290bc5c01000000001976a914e2b2844b66400648f84ac924072fced15ab7c12688ac8056c009000000001976a9142b9a71593c5ce9e9882cc4088e8079f794acc91a88ac00000000"
    }
  ],
  "time": 1517308072,
  "mediantime": 1517307400,
  "nonce": 4179694744,
  "bits": "1a042eae",
  "difficulty": 4011378.762614286,
  "chainwork": "0000000000000000000000000000000000000000000000342c4c09a736068786",
  "previousblockhash": "f9609e7eafe31bcb497e67127d1f728fc4546a2535bfab065e5e898c3ae54d62",
  "nextblockhash": "24e256919b155cfe7ec05396d48d4d29f1dbb0749ee4ade0ca21e6a107f77f75"
}
