{
  "hash": "f17ebbbd5085666fa940f01da2d4beb394e928394fb3129c2d5565e85b6165f3",
  "confirmations": 330,
  "strippedsize": 281,
  "size": 317,
  "weight": 1160,
  "height": 1360664,
  "version": 536870912,
  "versionHex": "20000000",
  "merkleroot": "9c17351ebf43dc984eebc006c1d4da99d1755d3822273542f87b91f4c4321fd8",
  "tx": [
    {
      "txid": "9c17351ebf43dc984eebc006c1d4da99d1755d3822273542f87b91f4c4321fd8",
      "hash": "dfcaaf65fca730a851434d56bdc35e976cbe0cd28f5e81900bde2c1127cb7985",
      "version": 1,
      "size": 236,
      "vsize": 209,
      "locktime": 0,
      "vin": [
        {
          "coinbase": "0318c314045a72a6132cfabe6d6d9c20c50126eaa5a1b3b0d587867e8d04b5f23f8eb609a087a7d6d39cbc0e0e034000000000000000042f4c502f082200a377570d0000",
          "sequence": 4294967295
        }
      ],
      "vout": [
        {
          "value": 25.00000000,
          "n": 0,
          "scriptPubKey": {
            "asm": "OP_DUP OP_HASH160 57757ed2ecf2052ff3126c397aca7defb9ca2cec OP_EQUALVERIFY OP_CHECKSIG",
            "hex": "76a91457757ed2ecf2052ff3126c397aca7defb9ca2cec88ac",
            "reqSigs": 1,
            "type": "pubkeyhash",
            "addresses": [
              "LTCPodGk5FwcJaRzH9yKnwicxzFUbxp6tN"
            ]
          }
        }, 
        {
          "value": 0.00000000,
          "n": 1,
          "scriptPubKey": {
            "asm": "OP_RETURN aa21a9ede2f61c3f71d1defd3fa999dfa36953755c690689799962b48bebd836974e8cf9",
            "hex": "6a24aa21a9ede2f61c3f71d1defd3fa999dfa36953755c690689799962b48bebd836974e8cf9",
            "type": "nulldata"
          }
        }
      ],
      "hex": "010000000001010000000000000000000000000000000000000000000000000000000000000000ffffffff440318c314045a72a6132cfabe6d6d9c20c50126eaa5a1b3b0d587867e8d04b5f23f8eb609a087a7d6d39cbc0e0e034000000000000000042f4c502f082200a377570d0000ffffffff0200f90295000000001976a91457757ed2ecf2052ff3126c397aca7defb9ca2cec88ac0000000000000000266a24aa21a9ede2f61c3f71d1defd3fa999dfa36953755c690689799962b48bebd836974e8cf90120000000000000000000000000000000000000000000000000000000000000000000000000"
    }
  ],
  "time": 1517463059,
  "mediantime": 1517462731,
  "nonce": 2491770934,
  "bits": "1a042eae",
  "difficulty": 4011378.762614286,
  "chainwork": "000000000000000000000000000000000000000000000035266566aa44d720b2",
  "previousblockhash": "a86e2b36c399504810ec981face3281540fdfb2e29a2fa826498488e58e41c25",
  "nextblockhash": "a1dbb722d2c9af393339ec0174d51b392fc225085cf2b526edcc8666f14efb27"
}
