{
  "hash": "f1de0f9008e369623c2188690ade9eea331771d2d948ed263291b532aad82dde",
  "confirmations": 2003,
  "strippedsize": 4333,
  "size": 4700,
  "weight": 17699,
  "height": 1358991,
  "version": 536870912,
  "versionHex": "20000000",
  "merkleroot": "5797d21ffa8659ceb1723c76dd9527f9853518511add69f355bec29be42ebdbe",
  "tx": [
    {
      "txid": "5f16a77f8404f385a850a4d6d2804a649b37f834895011061bdf6dc3e903f4f0",
      "hash": "db38d6bb33b1aaf4b61e7bb5d6a7449abc8661096624ecc3041358c04a377241",
      "version": 1,
      "size": 253,
      "vsize": 226,
      "locktime": 0,
      "vin": [
        {
          "coinbase": "038fbc1441d69bbd8c5869a041d69bbd8ba204ea2f4c54432e544f502ffabe6d6d818b6ba52d13ee5ae98699fa289854e269553f962d78b011fba845aaddc84e5f01000000000000007931fe111c00000000000000",
          "sequence": 4294967295
        }
      ],
      "vout": [
        {
          "value": 25.00547800,
          "n": 0,
          "scriptPubKey": {
            "asm": "OP_DUP OP_HASH160 0c617fdb2ea42aed30a509595ee21ba3f6688db0 OP_EQUALVERIFY OP_CHECKSIG",
            "hex": "76a9140c617fdb2ea42aed30a509595ee21ba3f6688db088ac",
            "reqSigs": 1,
            "type": "pubkeyhash",
            "addresses": [
              "LLMRAtr3qBje2ySEa3CnZ55LA4TQMWnRY3"
            ]
          }
        }, 
        {
          "value": 0.00000000,
          "n": 1,
          "scriptPubKey": {
            "asm": "OP_RETURN aa21a9ed706542e3c1eda9bcc8a8c6ebf805c3b38a4b35007880a8737d1196ebfee6aaef",
            "hex": "6a24aa21a9ed706542e3c1eda9bcc8a8c6ebf805c3b38a4b35007880a8737d1196ebfee6aaef",
            "type": "nulldata"
          }
        }
      ],
      "hex": "010000000001010000000000000000000000000000000000000000000000000000000000000000ffffffff55038fbc1441d69bbd8c5869a041d69bbd8ba204ea2f4c54432e544f502ffabe6d6d818b6ba52d13ee5ae98699fa289854e269553f962d78b011fba845aaddc84e5f01000000000000007931fe111c00000000000000ffffffff02d8540b95000000001976a9140c617fdb2ea42aed30a509595ee21ba3f6688db088ac0000000000000000266a24aa21a9ed706542e3c1eda9bcc8a8c6ebf805c3b38a4b35007880a8737d1196ebfee6aaef0120000000000000000000000000000000000000000000000000000000000000000000000000"
    }, 
    {
      "txid": "1b563f16da9be9089a9b32cadc9c2f20af36111c2422f6f6d1a2f969ea5b314f",
      "hash": "b08176a3f66144fb890a2cb98bce1a25cbdc11274a64bfc78ca989ad8ee9010c",
      "version": 1,
      "size": 250,
      "vsize": 168,
      "locktime": 0,
      "vin": [
        {
          "txid": "64324625d4fcf94ef618d1cc2007b7881ff7fd72000cb44712f03ba2f0180c41",
          "vout": 1,
          "scriptSig": {
            "asm": "0014a5fd6308f829b60978bb6f12d4baf321aa83a46c",
            "hex": "160014a5fd6308f829b60978bb6f12d4baf321aa83a46c"
          },
          "txinwitness": [
            "3045022100b0380137bb5c44d2fd545779db67b78c804e4ef1c40b56bc0013c61ead6e480c02207bda65e52b1177cc77f4c947914d36939c7e792dc9747d50b52e2c18734b55d401", 
            "03a2547a0359d911d46288a543993aae15e62c3993f9f420d3224e2d8a9447d5c1"
          ],
          "sequence": 4294967295
        }
      ],
      "vout": [
        {
          "value": 2.00000000,
          "n": 0,
          "scriptPubKey": {
            "asm": "OP_DUP OP_HASH160 7f20f4f5f4dc38d0e8e76517487c36981f67798b OP_EQUALVERIFY OP_CHECKSIG",
            "hex": "76a9147f20f4f5f4dc38d0e8e76517487c36981f67798b88ac",
            "reqSigs": 1,
            "type": "pubkeyhash",
            "addresses": [
              "LWp9ZTc2RhuDW9EBPE7dgSqFteeAVy37DS"
            ]
          }
        }, 
        {
          "value": 0.04700000,
          "n": 1,
          "scriptPubKey": {
            "asm": "OP_HASH160 7376d806657c6bd8015c2b1a1702cb143062fef9 OP_EQUAL",
            "hex": "a9147376d806657c6bd8015c2b1a1702cb143062fef987",
            "reqSigs": 1,
            "type": "scripthash",
            "addresses": [
              "MJRgJuVyCWsgTEFnVJiyKRcu4reNKkQ8aF"
            ]
          }
        }
      ],
      "hex": "01000000000101410c18f0a23bf01247b40c0072fdf71f88b70720ccd118f64ef9fcd4254632640100000017160014a5fd6308f829b60978bb6f12d4baf321aa83a46cffffffff0200c2eb0b000000001976a9147f20f4f5f4dc38d0e8e76517487c36981f67798b88ac60b747000000000017a9147376d806657c6bd8015c2b1a1702cb143062fef98702483045022100b0380137bb5c44d2fd545779db67b78c804e4ef1c40b56bc0013c61ead6e480c02207bda65e52b1177cc77f4c947914d36939c7e792dc9747d50b52e2c18734b55d4012103a2547a0359d911d46288a543993aae15e62c3993f9f420d3224e2d8a9447d5c100000000"
    }, 
    {
      "txid": "7d02f17cadfcd84f3345c547561c7281a529e5e5cbc393d5292cc626b04383e3",
      "hash": "5fa207dcdc0da32611fd77f8710c779a8162cca08e24de8e9c725f941042610c",
      "version": 1,
      "size": 373,
      "vsize": 208,
      "locktime": 0,
      "vin": [
        {
          "txid": "0e38d05d4ecf79f25b3a1c8823f9d3c88e2035bfb057948a2e2506f17ff9e914",
          "vout": 1,
          "scriptSig": {
            "asm": "0020409fd93c7351b461fa46963fa28755038f397ee054ab9e56eda0b1081d768cc4",
            "hex": "220020409fd93c7351b461fa46963fa28755038f397ee054ab9e56eda0b1081d768cc4"
          },
          "txinwitness": [
            "", 
            "3045022100d3db126d088f1b78642bb9fbaea6512043fe9890c95a7cac56d2f3b40d537c640220335d845efa3452ad033c4d4d0a6cc85d811871e9ffadc3fa10ab2e5d3b34cd8401", 
            "30440220191f2e65098b2d062a0ceb5e5e8efc7d018a0340cd86a6095790ff1b4caea9e90220089f8568d9b991433e365f8ce9bff619f78aff66e1b90a9eaad7446cc7cedf9d01", 
            "522103ceb293b39e087131961da42b3deaef48432d57a08bfd111247901be2936525b32103fa185b0d6c2a6d812d1a9418c54b3cea527d229a73a0c6c72345a1851ebcdad352ae"
          ],
          "sequence": 4294967295
        }
      ],
      "vout": [
        {
          "value": 0.05208300,
          "n": 0,
          "scriptPubKey": {
            "asm": "OP_DUP OP_HASH160 c4b277df1c614acec466be0b8aed4612b93acba1 OP_EQUALVERIFY OP_CHECKSIG",
            "hex": "76a914c4b277df1c614acec466be0b8aed4612b93acba188ac",
            "reqSigs": 1,
            "type": "pubkeyhash",
            "addresses": [
              "Ld9zW18W9hbh6PPKr7ZmhhhsXnoQCHm3Vs"
            ]
          }
        }, 
        {
          "value": 0.85200700,
          "n": 1,
          "scriptPubKey": {
            "asm": "OP_HASH160 2d9ba1f1c217fd18a576b17eaf8a1c6f1cd2f1de OP_EQUAL",
            "hex": "a9142d9ba1f1c217fd18a576b17eaf8a1c6f1cd2f1de87",
            "reqSigs": 1,
            "type": "scripthash",
            "addresses": [
              "MC4K5c2x6rcVohDBLrLNQRsqL5atuzztot"
            ]
          }
        }
      ],
      "hex": "0100000000010114e9f97ff106252e8a9457b0bf35208ec8d3f923881c3a5bf279cf4e5dd0380e0100000023220020409fd93c7351b461fa46963fa28755038f397ee054ab9e56eda0b1081d768cc4ffffffff02ec784f00000000001976a914c4b277df1c614acec466be0b8aed4612b93acba188ac3c0f14050000000017a9142d9ba1f1c217fd18a576b17eaf8a1c6f1cd2f1de870400483045022100d3db126d088f1b78642bb9fbaea6512043fe9890c95a7cac56d2f3b40d537c640220335d845efa3452ad033c4d4d0a6cc85d811871e9ffadc3fa10ab2e5d3b34cd84014730440220191f2e65098b2d062a0ceb5e5e8efc7d018a0340cd86a6095790ff1b4caea9e90220089f8568d9b991433e365f8ce9bff619f78aff66e1b90a9eaad7446cc7cedf9d0147522103ceb293b39e087131961da42b3deaef48432d57a08bfd111247901be2936525b32103fa185b0d6c2a6d812d1a9418c54b3cea527d229a73a0c6c72345a1851ebcdad352ae00000000"
    }, 
    {
      "txid": "90dbef10c22144f7776f768db1b3b1e51309550e6cf5b3652066bb8fd14bd527",
      "hash": "90dbef10c22144f7776f768db1b3b1e51309550e6cf5b3652066bb8fd14bd527",
      "version": 1,
      "size": 668,
      "vsize": 668,
      "locktime": 1358980,
      "vin": [
        {
          "txid": "e3c6d1736b9e5b91a17045642ed90c1643e12f75eea602400b21ebded7805d92",
          "vout": 0,
          "scriptSig": {
            "asm": "30450221009df2f3610b81f62897665be38274e2a22562ab78853786631178ebc6c1f993c502206ec5f86124c24d64af3c0be8fb5e39917d27ed29fff1047994d2f05371897bfa[ALL] 03516a97a0c078290c9b53ec28ecba73a0480c99940e45bc9243313f9f2f4faf4f",
            "hex": "4830450221009df2f3610b81f62897665be38274e2a22562ab78853786631178ebc6c1f993c502206ec5f86124c24d64af3c0be8fb5e39917d27ed29fff1047994d2f05371897bfa012103516a97a0c078290c9b53ec28ecba73a0480c99940e45bc9243313f9f2f4faf4f"
          },
          "sequence": 4294967294
        }, 
        {
          "txid": "bb5f8bcd4d8a26b32feaa2d63ef5321bf830920440af72951188b8454685fef3",
          "vout": 0,
          "scriptSig": {
            "asm": "304402200356629fd5a4e124b8e6414abbc2caf5cf67b70ed9d23b45a8cb99ee39b9eb7d02206f64dac539a28dee82f86feea5653f0707cc1573601951b997daa2dabe5e7706[ALL] 034197ddfa0c79afc50dcb7b2b6218009b745f9e22ea6ffe6a1e37b5b3688a87ef",
            "hex": "47304402200356629fd5a4e124b8e6414abbc2caf5cf67b70ed9d23b45a8cb99ee39b9eb7d02206f64dac539a28dee82f86feea5653f0707cc1573601951b997daa2dabe5e77060121034197ddfa0c79afc50dcb7b2b6218009b745f9e22ea6ffe6a1e37b5b3688a87ef"
          },
          "sequence": 4294967294
        }, 
        {
          "txid": "3d007a6a07ea1f8251e05036409fbb88abe799e11bf73ad126825134bce42245",
          "vout": 1,
          "scriptSig": {
            "asm": "3044022043c8c29bc922d266dcc52215fb97a060920b87145693f333b9fa13fe9630f8d5022010c3c21be4fe4dea30af8b79c95d15c28e9796a708691f936559ebb8b0762f48[ALL] 03d4380532c85235a8f4c3c1a09f8b077e57e949520f81666190f3522a98d607da",
            "hex": "473044022043c8c29bc922d266dcc52215fb97a060920b87145693f333b9fa13fe9630f8d5022010c3c21be4fe4dea30af8b79c95d15c28e9796a708691f936559ebb8b0762f48012103d4380532c85235a8f4c3c1a09f8b077e57e949520f81666190f3522a98d607da"
          },
          "sequence": 4294967294
        }, 
        {
          "txid": "4055ad71da945f66826e18a3fff960cb4122560e1e51fe8d317392a7134386fa",
          "vout": 0,
          "scriptSig": {
            "asm": "3045022100a99e08cc233fa92c6bcc1c7c794ce224308cd710bc1b0b21a356a4d9a46ce86c02201fe7535b7e7c6a768b15356bf5b1afb2493cc0d92bbf9fd71a08185baa4e218a[ALL] 03f4a6cf30b63d14cf89fd3cac0285495f10bf63c5734d825e72dafb6caa69b7f1",
            "hex": "483045022100a99e08cc233fa92c6bcc1c7c794ce224308cd710bc1b0b21a356a4d9a46ce86c02201fe7535b7e7c6a768b15356bf5b1afb2493cc0d92bbf9fd71a08185baa4e218a012103f4a6cf30b63d14cf89fd3cac0285495f10bf63c5734d825e72dafb6caa69b7f1"
          },
          "sequence": 4294967294
        }
      ],
      "vout": [
        {
          "value": 0.01000037,
          "n": 0,
          "scriptPubKey": {
            "asm": "OP_DUP OP_HASH160 695d47c4e3d98233c658e5711bea22720519af23 OP_EQUALVERIFY OP_CHECKSIG",
            "hex": "76a914695d47c4e3d98233c658e5711bea22720519af2388ac",
            "reqSigs": 1,
            "type": "pubkeyhash",
            "addresses": [
              "LUq4xb2K6vKEB6r5mcU89q94fdRoA4BS8f"
            ]
          }
        }, 
        {
          "value": 6.12186348,
          "n": 1,
          "scriptPubKey": {
            "asm": "OP_DUP OP_HASH160 118c677ea9dfe917665fc0c1b5945bd309fa8d28 OP_EQUALVERIFY OP_CHECKSIG",
            "hex": "76a914118c677ea9dfe917665fc0c1b5945bd309fa8d2888ac",
            "reqSigs": 1,
            "type": "pubkeyhash",
            "addresses": [
              "LLpjww9BsmnVzBhPqhqKVHV4iRCKzdhPu1"
            ]
          }
        }
      ],
      "hex": "0100000004925d80d7deeb210b4002a6ee752fe143160cd92e644570a1915b9e6b73d1c6e3000000006b4830450221009df2f3610b81f62897665be38274e2a22562ab78853786631178ebc6c1f993c502206ec5f86124c24d64af3c0be8fb5e39917d27ed29fff1047994d2f05371897bfa012103516a97a0c078290c9b53ec28ecba73a0480c99940e45bc9243313f9f2f4faf4ffefffffff3fe854645b888119572af40049230f81b32f53ed6a2ea2fb3268a4dcd8b5fbb000000006a47304402200356629fd5a4e124b8e6414abbc2caf5cf67b70ed9d23b45a8cb99ee39b9eb7d02206f64dac539a28dee82f86feea5653f0707cc1573601951b997daa2dabe5e77060121034197ddfa0c79afc50dcb7b2b6218009b745f9e22ea6ffe6a1e37b5b3688a87effeffffff4522e4bc34518226d13af71be199e7ab88bb9f403650e051821fea076a7a003d010000006a473044022043c8c29bc922d266dcc52215fb97a060920b87145693f333b9fa13fe9630f8d5022010c3c21be4fe4dea30af8b79c95d15c28e9796a708691f936559ebb8b0762f48012103d4380532c85235a8f4c3c1a09f8b077e57e949520f81666190f3522a98d607dafefffffffa864313a79273318dfe511e0e562241cb60f9ffa3186e82665f94da71ad5540000000006b483045022100a99e08cc233fa92c6bcc1c7c794ce224308cd710bc1b0b21a356a4d9a46ce86c02201fe7535b7e7c6a768b15356bf5b1afb2493cc0d92bbf9fd71a08185baa4e218a012103f4a6cf30b63d14cf89fd3cac0285495f10bf63c5734d825e72dafb6caa69b7f1feffffff0265420f00000000001976a914695d47c4e3d98233c658e5711bea22720519af2388acec387d24000000001976a914118c677ea9dfe917665fc0c1b5945bd309fa8d2888ac84bc1400"
    }, 
    {
      "txid": "66c15550aadbdc1b3a550dda035cfd644d829648bd13783e12e2e76f4bbce955",
      "hash": "66c15550aadbdc1b3a550dda035cfd644d829648bd13783e12e2e76f4bbce955",
      "version": 2,
      "size": 372,
      "vsize": 372,
      "locktime": 1358990,
      "vin": [
        {
          "txid": "6cbdc09aa990f7707a4737f672bb318eb85142b57093485dbb84dcf479d8de55",
          "vout": 53,
          "scriptSig": {
            "asm": "304402202c29474a33ce0575943813217017a31d8417d97384e64e32f5cb61fbac5ea878022025fc42470826f6897a9d034ff8a4f2af974285b7981ca0b85477e55453bbb393[ALL] 03d0c41e200a08784d425052ee518a24636287d8c9f8493b803f467a42c44d330e",
            "hex": "47304402202c29474a33ce0575943813217017a31d8417d97384e64e32f5cb61fbac5ea878022025fc42470826f6897a9d034ff8a4f2af974285b7981ca0b85477e55453bbb393012103d0c41e200a08784d425052ee518a24636287d8c9f8493b803f467a42c44d330e"
          },
          "sequence": 4294967294
        }, 
        {
          "txid": "4a3d1b48f909dc8800d3711a5501f7a1c0571ab206a18197e9d333ab43d123f0",
          "vout": 1,
          "scriptSig": {
            "asm": "304402206afbde6b6ea377b66ac76cf2995c1cfb67c7eff02186da32efc190d42498dbc5022049b8ef34b3493e33232e122e37ee8ad9a14a86c78c91274d5b0f5d512d6ecdcb[ALL] 0363245674fabea28424cf28d9139f061941de9ec6cbca684f2029bbea1787c95f",
            "hex": "47304402206afbde6b6ea377b66ac76cf2995c1cfb67c7eff02186da32efc190d42498dbc5022049b8ef34b3493e33232e122e37ee8ad9a14a86c78c91274d5b0f5d512d6ecdcb01210363245674fabea28424cf28d9139f061941de9ec6cbca684f2029bbea1787c95f"
          },
          "sequence": 4294967294
        }
      ],
      "vout": [
        {
          "value": 0.34877974,
          "n": 0,
          "scriptPubKey": {
            "asm": "OP_DUP OP_HASH160 4bd63b93922220af869a8f89ffd4909f22c71c7f OP_EQUALVERIFY OP_CHECKSIG",
            "hex": "76a9144bd63b93922220af869a8f89ffd4909f22c71c7f88ac",
            "reqSigs": 1,
            "type": "pubkeyhash",
            "addresses": [
              "LS8wakVWFhBHgoTwxTiVLok3GB2GTX5sGL"
            ]
          }
        }, 
        {
          "value": 0.14571263,
          "n": 1,
          "scriptPubKey": {
            "asm": "OP_DUP OP_HASH160 fd1fdd762cfa5f701fd03ab6e34626afe129773b OP_EQUALVERIFY OP_CHECKSIG",
            "hex": "76a914fd1fdd762cfa5f701fd03ab6e34626afe129773b88ac",
            "reqSigs": 1,
            "type": "pubkeyhash",
            "addresses": [
              "LiJMPmfsa5qrTrkfzYtpbh1PVq1rBaUgUB"
            ]
          }
        }
      ],
      "hex": "020000000255ded879f4dc84bb5d489370b54251b88e31bb72f637477a70f790a99ac0bd6c350000006a47304402202c29474a33ce0575943813217017a31d8417d97384e64e32f5cb61fbac5ea878022025fc42470826f6897a9d034ff8a4f2af974285b7981ca0b85477e55453bbb393012103d0c41e200a08784d425052ee518a24636287d8c9f8493b803f467a42c44d330efefffffff023d143ab33d3e99781a106b21a57c0a1f701551a71d30088dc09f9481b3d4a010000006a47304402206afbde6b6ea377b66ac76cf2995c1cfb67c7eff02186da32efc190d42498dbc5022049b8ef34b3493e33232e122e37ee8ad9a14a86c78c91274d5b0f5d512d6ecdcb01210363245674fabea28424cf28d9139f061941de9ec6cbca684f2029bbea1787c95ffeffffff0216321402000000001976a9144bd63b93922220af869a8f89ffd4909f22c71c7f88acff56de00000000001976a914fd1fdd762cfa5f701fd03ab6e34626afe129773b88ac8ebc1400"
    }, 
    {
      "txid": "512689b18717dc224bd7a49091e1191045bfd50d40e6a384c5406d7c26b0974e",
      "hash": "512689b18717dc224bd7a49091e1191045bfd50d40e6a384c5406d7c26b0974e",
      "version": 1,
      "size": 223,
      "vsize": 223,
      "locktime": 0,
      "vin": [
        {
          "txid": "abe1f63cf25a57c7e2a36b81e63460974299d2e9a8ed1c100ec766fb08149168",
          "vout": 0,
          "scriptSig": {
            "asm": "30440220785d91de111e21eac97c2208c34637ceae47a60ae7463a3c043f5aeb1b77e42f02200ce83cc454f335548fb6549322a14470d2226e36e78f6608ebdfe2364e845afb[ALL] 02908cc3dbc60c2fa51377385e2d78a41a1063cacb30e8ca9ec27a07d1b5e6b5cb",
            "hex": "4730440220785d91de111e21eac97c2208c34637ceae47a60ae7463a3c043f5aeb1b77e42f02200ce83cc454f335548fb6549322a14470d2226e36e78f6608ebdfe2364e845afb012102908cc3dbc60c2fa51377385e2d78a41a1063cacb30e8ca9ec27a07d1b5e6b5cb"
          },
          "sequence": 4294967295
        }
      ],
      "vout": [
        {
          "value": 0.00266469,
          "n": 0,
          "scriptPubKey": {
            "asm": "OP_DUP OP_HASH160 3fef36a16752784e6fef3210e27dd394ab820042 OP_EQUALVERIFY OP_CHECKSIG",
            "hex": "76a9143fef36a16752784e6fef3210e27dd394ab82004288ac",
            "reqSigs": 1,
            "type": "pubkeyhash",
            "addresses": [
              "LR41Q8tLXgpkt1PmBvAV5zxwABsN3iMVpj"
            ]
          }
        }, 
        {
          "value": 0.25220000,
          "n": 1,
          "scriptPubKey": {
            "asm": "OP_HASH160 0530baec27730e4fb245393dd50d928d2deeb3e1 OP_EQUAL",
            "hex": "a9140530baec27730e4fb245393dd50d928d2deeb3e187",
            "reqSigs": 1,
            "type": "scripthash",
            "addresses": [
              "M8NbzDkSUx6oFbpbrZ8m4YsPFeYDhWM7vX"
            ]
          }
        }
      ],
      "hex": "010000000168911408fb66c70e101ceda8e9d29942976034e6816ba3e2c7575af23cf6e1ab000000006a4730440220785d91de111e21eac97c2208c34637ceae47a60ae7463a3c043f5aeb1b77e42f02200ce83cc454f335548fb6549322a14470d2226e36e78f6608ebdfe2364e845afb012102908cc3dbc60c2fa51377385e2d78a41a1063cacb30e8ca9ec27a07d1b5e6b5cbffffffff02e5100400000000001976a9143fef36a16752784e6fef3210e27dd394ab82004288aca0d380010000000017a9140530baec27730e4fb245393dd50d928d2deeb3e18700000000"
    }, 
    {
      "txid": "aecfa9fe8b9991eec1ac8b1294b6f14bbc1819aae51d7d528a937f529610e216",
      "hash": "aecfa9fe8b9991eec1ac8b1294b6f14bbc1819aae51d7d528a937f529610e216",
      "version": 1,
      "size": 225,
      "vsize": 225,
      "locktime": 0,
      "vin": [
        {
          "txid": "0e331ebc600e5760f2d1bffefb219e83eb27c9835e9849593e05042dc4e778d8",
          "vout": 0,
          "scriptSig": {
            "asm": "3044022071d194c3d2ba928ff28887a5fda83002b52ecf5e87d049abe94db9e723929a83022041c7f864715e07fb9b4b4d64ac0494ff0536b90adf9c61fe7bc7f2639252f95c[ALL] 02c924be41dfda372d735def785d35dafc5d71c18a4c04c8252a0440ce40cf5b74",
            "hex": "473044022071d194c3d2ba928ff28887a5fda83002b52ecf5e87d049abe94db9e723929a83022041c7f864715e07fb9b4b4d64ac0494ff0536b90adf9c61fe7bc7f2639252f95c012102c924be41dfda372d735def785d35dafc5d71c18a4c04c8252a0440ce40cf5b74"
          },
          "sequence": 4294967295
        }
      ],
      "vout": [
        {
          "value": 0.00085246,
          "n": 0,
          "scriptPubKey": {
            "asm": "OP_DUP OP_HASH160 ec239731326710384ddb85dd0cf4f3672780494d OP_EQUALVERIFY OP_CHECKSIG",
            "hex": "76a914ec239731326710384ddb85dd0cf4f3672780494d88ac",
            "reqSigs": 1,
            "type": "pubkeyhash",
            "addresses": [
              "LgkYNMzsGJ8hgd3KrLTVJVzfHvR59e1K6U"
            ]
          }
        }, 
        {
          "value": 0.12563098,
          "n": 1,
          "scriptPubKey": {
            "asm": "OP_DUP OP_HASH160 5e2aa0863d5795a031121e14c7db27edd666c8a5 OP_EQUALVERIFY OP_CHECKSIG",
            "hex": "76a9145e2aa0863d5795a031121e14c7db27edd666c8a588ac",
            "reqSigs": 1,
            "type": "pubkeyhash",
            "addresses": [
              "LTorr2N3g7aCi9eTEM3bPgHipecLKAmmiZ"
            ]
          }
        }
      ],
      "hex": "0100000001d878e7c42d04053e5949985e83c927eb839e21fbfebfd1f260570e60bc1e330e000000006a473044022071d194c3d2ba928ff28887a5fda83002b52ecf5e87d049abe94db9e723929a83022041c7f864715e07fb9b4b4d64ac0494ff0536b90adf9c61fe7bc7f2639252f95c012102c924be41dfda372d735def785d35dafc5d71c18a4c04c8252a0440ce40cf5b74ffffffff02fe4c0100000000001976a914ec239731326710384ddb85dd0cf4f3672780494d88ac9ab2bf00000000001976a9145e2aa0863d5795a031121e14c7db27edd666c8a588ac00000000"
    }, 
    {
      "txid": "a60b79c647c5f8b4bae17d67ceaae74391cdb23f89f2768cd7f16b323658df22",
      "hash": "a60b79c647c5f8b4bae17d67ceaae74391cdb23f89f2768cd7f16b323658df22",
      "version": 2,
      "size": 225,
      "vsize": 225,
      "locktime": 1358990,
      "vin": [
        {
          "txid": "ba6beee4ce38aa68f3df61a273ad63828360676c1b32ec55db302bc80da7adca",
          "vout": 1,
          "scriptSig": {
            "asm": "3044022014ab7ddf2912686df4f7d2158335fe923ed4d417ac15ce5c2e769cbc6f83a1b4022030802352b7e9be837cfeb7232a77d30ec51e19aebeea18b99b69e57810b4a017[ALL] 02f5fa85360c6b989a58195efdcc7dbb992e146054a0514421f641ee9221735521",
            "hex": "473044022014ab7ddf2912686df4f7d2158335fe923ed4d417ac15ce5c2e769cbc6f83a1b4022030802352b7e9be837cfeb7232a77d30ec51e19aebeea18b99b69e57810b4a017012102f5fa85360c6b989a58195efdcc7dbb992e146054a0514421f641ee9221735521"
          },
          "sequence": 4294967294
        }
      ],
      "vout": [
        {
          "value": 12914.57893378,
          "n": 0,
          "scriptPubKey": {
            "asm": "OP_DUP OP_HASH160 c7b08271e570e2cef034d787db02603c041f4347 OP_EQUALVERIFY OP_CHECKSIG",
            "hex": "76a914c7b08271e570e2cef034d787db02603c041f434788ac",
            "reqSigs": 1,
            "type": "pubkeyhash",
            "addresses": [
              "LdRpBV8bg4kZ5U9pdMCQ7bJUh16wqP4CZc"
            ]
          }
        }, 
        {
          "value": 422.42175070,
          "n": 1,
          "scriptPubKey": {
            "asm": "OP_DUP OP_HASH160 40bbfdc1af27ef50b7687736936a5ba7b5689bf2 OP_EQUALVERIFY OP_CHECKSIG",
            "hex": "76a91440bbfdc1af27ef50b7687736936a5ba7b5689bf288ac",
            "reqSigs": 1,
            "type": "pubkeyhash",
            "addresses": [
              "LR8EiMGZntn5NNmHgfj9LyGMcR6cd3TYRK"
            ]
          }
        }
      ],
      "hex": "0200000001caada70dc82b30db55ec321b6c6760838263ad73a261dff368aa38cee4ee6bba010000006a473044022014ab7ddf2912686df4f7d2158335fe923ed4d417ac15ce5c2e769cbc6f83a1b4022030802352b7e9be837cfeb7232a77d30ec51e19aebeea18b99b69e57810b4a017012102f5fa85360c6b989a58195efdcc7dbb992e146054a0514421f641ee9221735521feffffff020294e3b02c0100001976a914c7b08271e570e2cef034d787db02603c041f434788ac5e70d4d5090000001976a91440bbfdc1af27ef50b7687736936a5ba7b5689bf288ac8ebc1400"
    }, 
    {
      "txid": "aa767dd744a93925969537ff078a127565085ce7af31918c610747edbd3cfa6c",
      "hash": "aa767dd744a93925969537ff078a127565085ce7af31918c610747edbd3cfa6c",
      "version": 1,
      "size": 225,
      "vsize": 225,
      "locktime": 0,
      "vin": [
        {
          "txid": "6f482c1b5821a40277bfaa96575ca747723191a4ce19240876f09f194d48326d",
          "vout": 225,
          "scriptSig": {
            "asm": "3044022018a14218135072d3202d5cdacb31eaac6cc513e2335793f6848ed5ef1e5eb7e90220443b5eab9ba0797cc798a0f1d8d05bfa4b886d6313fd13262bc1cea607f92910[ALL] 0372bce74bab729b0cf24ad1a080b889fe2633bc6dcd23b868293454458ff1dd9c",
            "hex": "473044022018a14218135072d3202d5cdacb31eaac6cc513e2335793f6848ed5ef1e5eb7e90220443b5eab9ba0797cc798a0f1d8d05bfa4b886d6313fd13262bc1cea607f9291001210372bce74bab729b0cf24ad1a080b889fe2633bc6dcd23b868293454458ff1dd9c"
          },
          "sequence": 4294967295
        }
      ],
      "vout": [
        {
          "value": 0.14969139,
          "n": 0,
          "scriptPubKey": {
            "asm": "OP_DUP OP_HASH160 cc96eaba9c779b79086c8b29a965f2199b0f309d OP_EQUALVERIFY OP_CHECKSIG",
            "hex": "76a914cc96eaba9c779b79086c8b29a965f2199b0f309d88ac",
            "reqSigs": 1,
            "type": "pubkeyhash",
            "addresses": [
              "LdsiuEi32XtHNznbJnmVsRsoiANyyoa5ea"
            ]
          }
        }, 
        {
          "value": 0.00073192,
          "n": 1,
          "scriptPubKey": {
            "asm": "OP_DUP OP_HASH160 794dd09037ab06d323f888e12a0285390119b60d OP_EQUALVERIFY OP_CHECKSIG",
            "hex": "76a914794dd09037ab06d323f888e12a0285390119b60d88ac",
            "reqSigs": 1,
            "type": "pubkeyhash",
            "addresses": [
              "LWHMF5s6tJhs6uvTMXMi2YomRcPUxS21ag"
            ]
          }
        }
      ],
      "hex": "01000000016d32484d199ff076082419cea491317247a75c5796aabf7702a421581b2c486fe10000006a473044022018a14218135072d3202d5cdacb31eaac6cc513e2335793f6848ed5ef1e5eb7e90220443b5eab9ba0797cc798a0f1d8d05bfa4b886d6313fd13262bc1cea607f9291001210372bce74bab729b0cf24ad1a080b889fe2633bc6dcd23b868293454458ff1dd9cffffffff023369e400000000001976a914cc96eaba9c779b79086c8b29a965f2199b0f309d88ace81d0100000000001976a914794dd09037ab06d323f888e12a0285390119b60d88ac00000000"
    }, 
    {
      "txid": "4bfc29b41d33e1f0c970be076ca2f58d237327a44326856ded722d16992c7f7f",
      "hash": "4bfc29b41d33e1f0c970be076ca2f58d237327a44326856ded722d16992c7f7f",
      "version": 1,
      "size": 225,
      "vsize": 225,
      "locktime": 0,
      "vin": [
        {
          "txid": "d170216edf7ed9403654b1df0a574b2c16e276e189017966c1be9fa8012b9d6b",
          "vout": 1,
          "scriptSig": {
            "asm": "3044022010e390530ca352dee7034bfaa9ec7c28639675e97e8dafa7bb19a8173785fed002201754a232a8c55122598e20cb91b424dbbbedfb2d437f61b9f6eb6e77dcc78f73[ALL] 036b0927b7e8c827fce4f8bf77c4acaafa8d079ce643fe22d82e39fbab3dd35442",
            "hex": "473044022010e390530ca352dee7034bfaa9ec7c28639675e97e8dafa7bb19a8173785fed002201754a232a8c55122598e20cb91b424dbbbedfb2d437f61b9f6eb6e77dcc78f730121036b0927b7e8c827fce4f8bf77c4acaafa8d079ce643fe22d82e39fbab3dd35442"
          },
          "sequence": 4294967295
        }
      ],
      "vout": [
        {
          "value": 0.49001460,
          "n": 0,
          "scriptPubKey": {
            "asm": "OP_DUP OP_HASH160 99c99f607e7af8c611caca795fb086d8aa0e5810 OP_EQUALVERIFY OP_CHECKSIG",
            "hex": "76a91499c99f607e7af8c611caca795fb086d8aa0e581088ac",
            "reqSigs": 1,
            "type": "pubkeyhash",
            "addresses": [
              "LZF7BYY9787hx6kP5sSnWvUn7JC8FC872i"
            ]
          }
        }, 
        {
          "value": 1.00500941,
          "n": 1,
          "scriptPubKey": {
            "asm": "OP_DUP OP_HASH160 7ed73cccd5ddbd38d55ad61f350b5a2004586c9d OP_EQUALVERIFY OP_CHECKSIG",
            "hex": "76a9147ed73cccd5ddbd38d55ad61f350b5a2004586c9d88ac",
            "reqSigs": 1,
            "type": "pubkeyhash",
            "addresses": [
              "LWndFM6n6SPQ4kCVKNoTQpAC2G7Bx3c5FP"
            ]
          }
        }
      ],
      "hex": "01000000016b9d2b01a89fbec166790189e176e2162c4b570adfb1543640d97edf6e2170d1010000006a473044022010e390530ca352dee7034bfaa9ec7c28639675e97e8dafa7bb19a8173785fed002201754a232a8c55122598e20cb91b424dbbbedfb2d437f61b9f6eb6e77dcc78f730121036b0927b7e8c827fce4f8bf77c4acaafa8d079ce643fe22d82e39fbab3dd35442ffffffff02f4b3eb02000000001976a91499c99f607e7af8c611caca795fb086d8aa0e581088accd85fd05000000001976a9147ed73cccd5ddbd38d55ad61f350b5a2004586c9d88ac00000000"
    }, 
    {
      "txid": "a77da2dab32ac39a5024195404a045810f7617503a8104838302067ddf5ea891",
      "hash": "a77da2dab32ac39a5024195404a045810f7617503a8104838302067ddf5ea891",
      "version": 1,
      "size": 225,
      "vsize": 225,
      "locktime": 0,
      "vin": [
        {
          "txid": "5ad536920fed1db72613a8a6c21a6f506a67f07f121802c2ed4bfe54e3fd33de",
          "vout": 5,
          "scriptSig": {
            "asm": "304402204b5a6c244977e1164bd5324cf1760cc2a2aa04e1c843b0aba9e0bd3a68c948f7022076f8a10f8488c2fb20796ba626197016da81f6281eed84461302beaa2ac19a20[ALL] 026402f7b43b0ec38e0d6d87453dc66b9b52d3240310adfa915cbe447f2572b5e9",
            "hex": "47304402204b5a6c244977e1164bd5324cf1760cc2a2aa04e1c843b0aba9e0bd3a68c948f7022076f8a10f8488c2fb20796ba626197016da81f6281eed84461302beaa2ac19a200121026402f7b43b0ec38e0d6d87453dc66b9b52d3240310adfa915cbe447f2572b5e9"
          },
          "sequence": 4294967295
        }
      ],
      "vout": [
        {
          "value": 2.33200000,
          "n": 0,
          "scriptPubKey": {
            "asm": "OP_DUP OP_HASH160 3aee800f61b531fdb458c202cb3257ff8a6a15ef OP_EQUALVERIFY OP_CHECKSIG",
            "hex": "76a9143aee800f61b531fdb458c202cb3257ff8a6a15ef88ac",
            "reqSigs": 1,
            "type": "pubkeyhash",
            "addresses": [
              "LQbZAdG7aWtjPPiwvJdDn7J7Rq9sFxgGRS"
            ]
          }
        }, 
        {
          "value": 0.66777400,
          "n": 1,
          "scriptPubKey": {
            "asm": "OP_DUP OP_HASH160 63ca17ab9f581d39b050ad4ef5ed17a41e7198dd OP_EQUALVERIFY OP_CHECKSIG",
            "hex": "76a91463ca17ab9f581d39b050ad4ef5ed17a41e7198dd88ac",
            "reqSigs": 1,
            "type": "pubkeyhash",
            "addresses": [
              "LUKbFqN8pv3wEH9t1erqQ9Jp1bkQomiHNd"
            ]
          }
        }
      ],
      "hex": "0100000001de33fde354fe4bedc20218127ff0676a506f1ac2a6a81326b71ded0f9236d55a050000006a47304402204b5a6c244977e1164bd5324cf1760cc2a2aa04e1c843b0aba9e0bd3a68c948f7022076f8a10f8488c2fb20796ba626197016da81f6281eed84461302beaa2ac19a200121026402f7b43b0ec38e0d6d87453dc66b9b52d3240310adfa915cbe447f2572b5e9ffffffff028059e60d000000001976a9143aee800f61b531fdb458c202cb3257ff8a6a15ef88ac38f1fa03000000001976a91463ca17ab9f581d39b050ad4ef5ed17a41e7198dd88ac00000000"
    }, 
    {
      "txid": "d7fd6f032d16620c92d82488d4f16af71ec006e8f2cde96879d57b155a4448e0",
      "hash": "d7fd6f032d16620c92d82488d4f16af71ec006e8f2cde96879d57b155a4448e0",
      "version": 1,
      "size": 225,
      "vsize": 225,
      "locktime": 0,
      "vin": [
        {
          "txid": "d2b1be93747f3bc975d7e5f8f90f18e5115121eb794e518cce3a505c23180482",
          "vout": 0,
          "scriptSig": {
            "asm": "304402203d649cbf0eb641f9835bac6732fc6d4b35b5c810a919e5c1d6c4b0257100ef19022060b40c395d31afde08f681dd0ee9148eb1c79e61448db3905353d952e9d09a69[ALL] 02be83ecc098b6156bb47ebba43ba0aeadc1ab4a59c01d6acfc057d1db9cd10360",
            "hex": "47304402203d649cbf0eb641f9835bac6732fc6d4b35b5c810a919e5c1d6c4b0257100ef19022060b40c395d31afde08f681dd0ee9148eb1c79e61448db3905353d952e9d09a69012102be83ecc098b6156bb47ebba43ba0aeadc1ab4a59c01d6acfc057d1db9cd10360"
          },
          "sequence": 4294967295
        }
      ],
      "vout": [
        {
          "value": 0.50000000,
          "n": 0,
          "scriptPubKey": {
            "asm": "OP_DUP OP_HASH160 8b8a876b6b360e2c4b4cf400879f6170509ceaaf OP_EQUALVERIFY OP_CHECKSIG",
            "hex": "76a9148b8a876b6b360e2c4b4cf400879f6170509ceaaf88ac",
            "reqSigs": 1,
            "type": "pubkeyhash",
            "addresses": [
              "LXwn93GWP8RxopbLzdHZyETdzeMJgMa8KW"
            ]
          }
        }, 
        {
          "value": 0.00386400,
          "n": 1,
          "scriptPubKey": {
            "asm": "OP_DUP OP_HASH160 0693815340c74d5fd0ce9272864dc83da07f549a OP_EQUALVERIFY OP_CHECKSIG",
            "hex": "76a9140693815340c74d5fd0ce9272864dc83da07f549a88ac",
            "reqSigs": 1,
            "type": "pubkeyhash",
            "addresses": [
              "LKpj2CkHcmTR9XDick5Mn7cXo45mJivkrU"
            ]
          }
        }
      ],
      "hex": "0100000001820418235c503ace8c514e79eb215111e5180ff9f8e5d775c93b7f7493beb1d2000000006a47304402203d649cbf0eb641f9835bac6732fc6d4b35b5c810a919e5c1d6c4b0257100ef19022060b40c395d31afde08f681dd0ee9148eb1c79e61448db3905353d952e9d09a69012102be83ecc098b6156bb47ebba43ba0aeadc1ab4a59c01d6acfc057d1db9cd10360ffffffff0280f0fa02000000001976a9148b8a876b6b360e2c4b4cf400879f6170509ceaaf88ac60e50500000000001976a9140693815340c74d5fd0ce9272864dc83da07f549a88ac00000000"
    }, 
    {
      "txid": "1c78daead455111709efa36ecd6cdd8e3a16a1f2af42aea8cf0d371c1011100c",
      "hash": "1c78daead455111709efa36ecd6cdd8e3a16a1f2af42aea8cf0d371c1011100c",
      "version": 2,
      "size": 226,
      "vsize": 226,
      "locktime": 1358989,
      "vin": [
        {
          "txid": "dbedf8bb7b6393b7463fb6673758502c8941e029fe3b266f1e796aaa94f0c8ae",
          "vout": 1,
          "scriptSig": {
            "asm": "3045022100f6f07ad228b9e565168eb8eebea3ad53b37749970829a46e36b153b53c414b4802207371df0df6d7d4cf773d9f901b59c47fc1a8d69a4000debe01f5bf83c8f45d50[ALL] 03d25e7ee00f942612e0be93a545bfaffee8732b157958970d56023f75182cceb4",
            "hex": "483045022100f6f07ad228b9e565168eb8eebea3ad53b37749970829a46e36b153b53c414b4802207371df0df6d7d4cf773d9f901b59c47fc1a8d69a4000debe01f5bf83c8f45d50012103d25e7ee00f942612e0be93a545bfaffee8732b157958970d56023f75182cceb4"
          },
          "sequence": 4294967294
        }
      ],
      "vout": [
        {
          "value": 0.22000000,
          "n": 0,
          "scriptPubKey": {
            "asm": "OP_DUP OP_HASH160 e0910b9b4ff6ff3b3f4acee645922c23c7028b80 OP_EQUALVERIFY OP_CHECKSIG",
            "hex": "76a914e0910b9b4ff6ff3b3f4acee645922c23c7028b8088ac",
            "reqSigs": 1,
            "type": "pubkeyhash",
            "addresses": [
              "LfhMP7KjPm4Lf5y8f7ABxb6JDhxM5dQY8E"
            ]
          }
        }, 
        {
          "value": 0.43305041,
          "n": 1,
          "scriptPubKey": {
            "asm": "OP_DUP OP_HASH160 800f774437e2710daa52edbaa7a2f0e9364bd77a OP_EQUALVERIFY OP_CHECKSIG",
            "hex": "76a914800f774437e2710daa52edbaa7a2f0e9364bd77a88ac",
            "reqSigs": 1,
            "type": "pubkeyhash",
            "addresses": [
              "LWu5HMbD596WWRtT1fudK9J8RYbPznAkCt"
            ]
          }
        }
      ],
      "hex": "0200000001aec8f094aa6a791e6f263bfe29e041892c50583767b63f46b793637bbbf8eddb010000006b483045022100f6f07ad228b9e565168eb8eebea3ad53b37749970829a46e36b153b53c414b4802207371df0df6d7d4cf773d9f901b59c47fc1a8d69a4000debe01f5bf83c8f45d50012103d25e7ee00f942612e0be93a545bfaffee8732b157958970d56023f75182cceb4feffffff0280b14f01000000001976a914e0910b9b4ff6ff3b3f4acee645922c23c7028b8088ac51c89402000000001976a914800f774437e2710daa52edbaa7a2f0e9364bd77a88ac8dbc1400"
    }, 
    {
      "txid": "e64970dce9164e27ba053727b08fff6020187d5a9c978f515d0195c6b741b020",
      "hash": "e64970dce9164e27ba053727b08fff6020187d5a9c978f515d0195c6b741b020",
      "version": 1,
      "size": 226,
      "vsize": 226,
      "locktime": 0,
      "vin": [
        {
          "txid": "d322c6ab2fcc461cee37eb9877d5aaa4b0761c20033784add37b2c5bb8940469",
          "vout": 1,
          "scriptSig": {
            "asm": "3045022100c858f2742c226d4b078773a34f775e6bdb3a5106f1338be8aa93a24e6faadd6702200f8587cee6a1748795607828ec6c3223673c21c5b923df18bc6d8d41b14f3835[ALL] 032c2432c396cbe03c756f41397c78ff9fd597597076eeaf56d27ac72ea49ed632",
            "hex": "483045022100c858f2742c226d4b078773a34f775e6bdb3a5106f1338be8aa93a24e6faadd6702200f8587cee6a1748795607828ec6c3223673c21c5b923df18bc6d8d41b14f38350121032c2432c396cbe03c756f41397c78ff9fd597597076eeaf56d27ac72ea49ed632"
          },
          "sequence": 4294967295
        }
      ],
      "vout": [
        {
          "value": 1.79700578,
          "n": 0,
          "scriptPubKey": {
            "asm": "OP_DUP OP_HASH160 b6d7be805178b8b29569b7b33fa286d8071884da OP_EQUALVERIFY OP_CHECKSIG",
            "hex": "76a914b6d7be805178b8b29569b7b33fa286d8071884da88ac",
            "reqSigs": 1,
            "type": "pubkeyhash",
            "addresses": [
              "LbtjhHu85fengrpCYYyNzR3pSD4x5mGUaj"
            ]
          }
        }, 
        {
          "value": 1.19122157,
          "n": 1,
          "scriptPubKey": {
            "asm": "OP_DUP OP_HASH160 b4d99e1371486125971cb07516c5e0405d4c6590 OP_EQUALVERIFY OP_CHECKSIG",
            "hex": "76a914b4d99e1371486125971cb07516c5e0405d4c659088ac",
            "reqSigs": 1,
            "type": "pubkeyhash",
            "addresses": [
              "LbiCb52xtmJk2quHp5Nhhgv63vWPHo2knQ"
            ]
          }
        }
      ],
      "hex": "0100000001690494b85b2c7bd3ad843703201c76b0a4aad57798eb37ee1c46cc2fabc622d3010000006b483045022100c858f2742c226d4b078773a34f775e6bdb3a5106f1338be8aa93a24e6faadd6702200f8587cee6a1748795607828ec6c3223673c21c5b923df18bc6d8d41b14f38350121032c2432c396cbe03c756f41397c78ff9fd597597076eeaf56d27ac72ea49ed632ffffffff026203b60a000000001976a914b6d7be805178b8b29569b7b33fa286d8071884da88aceda81907000000001976a914b4d99e1371486125971cb07516c5e0405d4c659088ac00000000"
    }, 
    {
      "txid": "18ccd588b402d09b052bb134d25daf986db6f86835ae24688b0275f49639fcb5",
      "hash": "18ccd588b402d09b052bb134d25daf986db6f86835ae24688b0275f49639fcb5",
      "version": 1,
      "size": 226,
      "vsize": 226,
      "locktime": 0,
      "vin": [
        {
          "txid": "db3faecb8e16c5a856e8b880af47400194e9297a1255d904162d725f8c8f3b09",
          "vout": 3,
          "scriptSig": {
            "asm": "3045022100e2055296241ca6bc25620b08eeaaffdc7f1f891ddd1cbdbed1603aeb223270de022013a392325688915524f1863d56b0118869b373a1ece28eab0b233d655b2b620f[ALL] 038ac3e0c57fc29727c86193bc4643ff3498c68f3fd963c0c101a64d1284a3a289",
            "hex": "483045022100e2055296241ca6bc25620b08eeaaffdc7f1f891ddd1cbdbed1603aeb223270de022013a392325688915524f1863d56b0118869b373a1ece28eab0b233d655b2b620f0121038ac3e0c57fc29727c86193bc4643ff3498c68f3fd963c0c101a64d1284a3a289"
          },
          "sequence": 4294967295
        }
      ],
      "vout": [
        {
          "value": 0.00472138,
          "n": 0,
          "scriptPubKey": {
            "asm": "OP_DUP OP_HASH160 3006ef4e0accace2eaf7039964fb34a4a873536f OP_EQUALVERIFY OP_CHECKSIG",
            "hex": "76a9143006ef4e0accace2eaf7039964fb34a4a873536f88ac",
            "reqSigs": 1,
            "type": "pubkeyhash",
            "addresses": [
              "LPbu1FvgQyMfSvxzDBGmR9iSchQjUZw97k"
            ]
          }
        }, 
        {
          "value": 0.26775978,
          "n": 1,
          "scriptPubKey": {
            "asm": "OP_DUP OP_HASH160 8333344bbd1bf0844750591600a079cfc58295e7 OP_EQUALVERIFY OP_CHECKSIG",
            "hex": "76a9148333344bbd1bf0844750591600a079cfc58295e788ac",
            "reqSigs": 1,
            "type": "pubkeyhash",
            "addresses": [
              "LXBg85WdjT6wz51kULFG8aYBVGj8MnGwPc"
            ]
          }
        }
      ],
      "hex": "0100000001093b8f8c5f722d1604d955127a29e994014047af80b8e856a8c5168ecbae3fdb030000006b483045022100e2055296241ca6bc25620b08eeaaffdc7f1f891ddd1cbdbed1603aeb223270de022013a392325688915524f1863d56b0118869b373a1ece28eab0b233d655b2b620f0121038ac3e0c57fc29727c86193bc4643ff3498c68f3fd963c0c101a64d1284a3a289ffffffff024a340700000000001976a9143006ef4e0accace2eaf7039964fb34a4a873536f88acaa919801000000001976a9148333344bbd1bf0844750591600a079cfc58295e788ac00000000"
    }, 
    {
      "txid": "e9d56fe094b31753153ea3db91e5b50cedf5b69976d6f25b984deb6876ae47c7",
      "hash": "e9d56fe094b31753153ea3db91e5b50cedf5b69976d6f25b984deb6876ae47c7",
      "version": 1,
      "size": 226,
      "vsize": 226,
      "locktime": 1358990,
      "vin": [
        {
          "txid": "2d8e534dfc32eb914b0b976ff17f5290b19e48929b88f97c4f5eb35f1cff213a",
          "vout": 0,
          "scriptSig": {
            "asm": "3045022100aa3260b716d072713315d08fc8624bf88221a45a81d84b9bea0d63b798eb518a02206e1a2b073bbd380252eada8c2cea8718dd09c54974a39d7ad67c5c9d796eee11[ALL] 03b592ba48b0e2fb3668c4af263153cf2ea322e4e6bef42f5d7ea7332a8939cc19",
            "hex": "483045022100aa3260b716d072713315d08fc8624bf88221a45a81d84b9bea0d63b798eb518a02206e1a2b073bbd380252eada8c2cea8718dd09c54974a39d7ad67c5c9d796eee11012103b592ba48b0e2fb3668c4af263153cf2ea322e4e6bef42f5d7ea7332a8939cc19"
          },
          "sequence": 4294967294
        }
      ],
      "vout": [
        {
          "value": 0.53195155,
          "n": 0,
          "scriptPubKey": {
            "asm": "OP_DUP OP_HASH160 ef34264ce3fe5f2cd2054535fae3cea36ff0276d OP_EQUALVERIFY OP_CHECKSIG",
            "hex": "76a914ef34264ce3fe5f2cd2054535fae3cea36ff0276d88ac",
            "reqSigs": 1,
            "type": "pubkeyhash",
            "addresses": [
              "Lh2kEUjUpwzdXvEXF7JzsjNwWN4xWZZtfM"
            ]
          }
        }, 
        {
          "value": 0.01032245,
          "n": 1,
          "scriptPubKey": {
            "asm": "OP_DUP OP_HASH160 35c25e200ea00594ecf79f473e111c8ef7728cf9 OP_EQUALVERIFY OP_CHECKSIG",
            "hex": "76a91435c25e200ea00594ecf79f473e111c8ef7728cf988ac",
            "reqSigs": 1,
            "type": "pubkeyhash",
            "addresses": [
              "LQ8CvHN7ngGgfNuiTNpr8MZuySmbXRhJa9"
            ]
          }
        }
      ],
      "hex": "01000000013a21ff1c5fb35e4f7cf9889b92489eb190527ff16f970b4b91eb32fc4d538e2d000000006b483045022100aa3260b716d072713315d08fc8624bf88221a45a81d84b9bea0d63b798eb518a02206e1a2b073bbd380252eada8c2cea8718dd09c54974a39d7ad67c5c9d796eee11012103b592ba48b0e2fb3668c4af263153cf2ea322e4e6bef42f5d7ea7332a8939cc19feffffff0293b12b03000000001976a914ef34264ce3fe5f2cd2054535fae3cea36ff0276d88ac35c00f00000000001976a91435c25e200ea00594ecf79f473e111c8ef7728cf988ac8ebc1400"
    }, 
    {
      "txid": "e646d1c8ce281af095b66c0600ba891bf1ef443a72345295bbdf8119ded8eefe",
      "hash": "e646d1c8ce281af095b66c0600ba891bf1ef443a72345295bbdf8119ded8eefe",
      "version": 1,
      "size": 226,
      "vsize": 226,
      "locktime": 0,
      "vin": [
        {
          "txid": "5169fa7cfd45838cb12018107c23f63bf1ab2d6b9d2f9d4bc74dc4aecff74078",
          "vout": 1,
          "scriptSig": {
            "asm": "3045022100d1374dfa927a061088bb98752966874efc0777fb2756fce5d0ad94211bda68cc0220513c0c9825094b45b0a020eeb5faa15bd948d11a69fbe49d789cd070410e3b85[ALL] 02f0fa1cc430981c43781fad8d59cb67c880eb580e88804a96ef2b433d49b4bb07",
            "hex": "483045022100d1374dfa927a061088bb98752966874efc0777fb2756fce5d0ad94211bda68cc0220513c0c9825094b45b0a020eeb5faa15bd948d11a69fbe49d789cd070410e3b85012102f0fa1cc430981c43781fad8d59cb67c880eb580e88804a96ef2b433d49b4bb07"
          },
          "sequence": 4294967295
        }
      ],
      "vout": [
        {
          "value": 0.33982521,
          "n": 0,
          "scriptPubKey": {
            "asm": "OP_DUP OP_HASH160 31ea989794e5b233028fe28e0e9164739841e59b OP_EQUALVERIFY OP_CHECKSIG",
            "hex": "76a91431ea989794e5b233028fe28e0e9164739841e59b88ac",
            "reqSigs": 1,
            "type": "pubkeyhash",
            "addresses": [
              "LPmtQdfPCZcJD2biQJpjVuCz1pB2SPJE98"
            ]
          }
        }, 
        {
          "value": 0.00691583,
          "n": 1,
          "scriptPubKey": {
            "asm": "OP_DUP OP_HASH160 e022d22dbd712273e6be331d99b165a85cbe0417 OP_EQUALVERIFY OP_CHECKSIG",
            "hex": "76a914e022d22dbd712273e6be331d99b165a85cbe041788ac",
            "reqSigs": 1,
            "type": "pubkeyhash",
            "addresses": [
              "Lff5Lb8UtbTd75dwGy6TvNqTo1YFL9nahZ"
            ]
          }
        }
      ],
      "hex": "01000000017840f7cfaec44dc74b9d2f9d6b2dabf13bf6237c101820b18c8345fd7cfa6951010000006b483045022100d1374dfa927a061088bb98752966874efc0777fb2756fce5d0ad94211bda68cc0220513c0c9825094b45b0a020eeb5faa15bd948d11a69fbe49d789cd070410e3b85012102f0fa1cc430981c43781fad8d59cb67c880eb580e88804a96ef2b433d49b4bb07ffffffff0239880602000000001976a91431ea989794e5b233028fe28e0e9164739841e59b88ac7f8d0a00000000001976a914e022d22dbd712273e6be331d99b165a85cbe041788ac00000000"
    }
  ],
  "time": 1517221422,
  "mediantime": 1517220824,
  "nonce": 890784026,
  "bits": "1a042eae",
  "difficulty": 4011378.762614286,
  "chainwork": "00000000000000000000000000000000000000000000003396618ba88f495e20",
  "previousblockhash": "e1c58fa3f6206288c1c0bc4f9856d2a968adec3d9e0a32fc413423824013b110",
  "nextblockhash": "1c43da84f846bab166b40606a0a437508d8d09caba96e99d6c17d1fc7d807a0e"
}
