{
  "hash": "f1f1e40ff6060c4ae51d74da8e99a8585944ba9d25a66800422326442daa1cb0",
  "confirmations": 2568,
  "strippedsize": 5134,
  "size": 5170,
  "weight": 20572,
  "height": 1358427,
  "version": 536870912,
  "versionHex": "20000000",
  "merkleroot": "8dd8f6a156bfbbb5804639ba9f2ff2b066416a30e0ed77a7b64dc1fd6f9631d7",
  "tx": [
    {
      "txid": "5e8feead2437cfc1580a93fc4ab307bf4c5a72b038f99226e2ee63f0505434c8",
      "hash": "1db675d271fcb6b42f373c9bab800b0bdf24c2ec6c854cfd8945a5c202a74b9a",
      "version": 1,
      "size": 244,
      "vsize": 217,
      "locktime": 0,
      "vin": [
        {
          "coinbase": "035bba140479ba6d5a080206410717000000fabe6d6dd471b9b433f92d972a03af8345630a7ffb8508617f93111fcbaa1ace0968ad9740000000000000000d2f6e6f64655374726174756d2f",
          "sequence": 0
        }
      ],
      "vout": [
        {
          "value": 25.01161793,
          "n": 0,
          "scriptPubKey": {
            "asm": "OP_DUP OP_HASH160 0c617fdb2ea42aed30a509595ee21ba3f6688db0 OP_EQUALVERIFY OP_CHECKSIG",
            "hex": "76a9140c617fdb2ea42aed30a509595ee21ba3f6688db088ac",
            "reqSigs": 1,
            "type": "pubkeyhash",
            "addresses": [
              "LLMRAtr3qBje2ySEa3CnZ55LA4TQMWnRY3"
            ]
          }
        }, 
        {
          "value": 0.00000000,
          "n": 1,
          "scriptPubKey": {
            "asm": "OP_RETURN aa21a9ed7cbe21ef3a4434707f24cf0dbadeb97862eeed7f3c4a5cd8911ccb10664e29f9",
            "hex": "6a24aa21a9ed7cbe21ef3a4434707f24cf0dbadeb97862eeed7f3c4a5cd8911ccb10664e29f9",
            "type": "nulldata"
          }
        }
      ],
      "hex": "010000000001010000000000000000000000000000000000000000000000000000000000000000ffffffff4c035bba140479ba6d5a080206410717000000fabe6d6dd471b9b433f92d972a03af8345630a7ffb8508617f93111fcbaa1ace0968ad9740000000000000000d2f6e6f64655374726174756d2f000000000241b31495000000001976a9140c617fdb2ea42aed30a509595ee21ba3f6688db088ac0000000000000000266a24aa21a9ed7cbe21ef3a4434707f24cf0dbadeb97862eeed7f3c4a5cd8911ccb10664e29f90120000000000000000000000000000000000000000000000000000000000000000000000000"
    }, 
    {
      "txid": "4f51bffb39fa63863be69d17d295a88ff356326b1641c3cfc7f6d7900a978644",
      "hash": "4f51bffb39fa63863be69d17d295a88ff356326b1641c3cfc7f6d7900a978644",
      "version": 1,
      "size": 225,
      "vsize": 225,
      "locktime": 0,
      "vin": [
        {
          "txid": "6ab616363ee8d49b9bf3d37b5af6f20f767e6ed676e98c5b7d855875928aa45d",
          "vout": 1,
          "scriptSig": {
            "asm": "3044022017ce9bc82084f7a7eebc59f23b1a1c5f4060bd6d135b183bea716d53ded5813402203cff90b5c276a0c784ec379061f9c1d90f8a5d13577bdaf019a432d95eff76a4[ALL] 029ed3c51e204d86a249cc4db67b82a0bcee5d6ae09a1e99bc8dced42e2187ee1e",
            "hex": "473044022017ce9bc82084f7a7eebc59f23b1a1c5f4060bd6d135b183bea716d53ded5813402203cff90b5c276a0c784ec379061f9c1d90f8a5d13577bdaf019a432d95eff76a40121029ed3c51e204d86a249cc4db67b82a0bcee5d6ae09a1e99bc8dced42e2187ee1e"
          },
          "sequence": 4294967295
        }
      ],
      "vout": [
        {
          "value": 0.42872494,
          "n": 0,
          "scriptPubKey": {
            "asm": "OP_DUP OP_HASH160 1b1ea04fa61c6751029cec9b92344c68d901ff54 OP_EQUALVERIFY OP_CHECKSIG",
            "hex": "76a9141b1ea04fa61c6751029cec9b92344c68d901ff5488ac",
            "reqSigs": 1,
            "type": "pubkeyhash",
            "addresses": [
              "LMhMCLdG9uw7qpNaycXeW79VQbpb1Pq6mG"
            ]
          }
        }, 
        {
          "value": 0.56890206,
          "n": 1,
          "scriptPubKey": {
            "asm": "OP_DUP OP_HASH160 da6fa84789213f22afcc4e83354ee2f5bb383fdd OP_EQUALVERIFY OP_CHECKSIG",
            "hex": "76a914da6fa84789213f22afcc4e83354ee2f5bb383fdd88ac",
            "reqSigs": 1,
            "type": "pubkeyhash",
            "addresses": [
              "Lf8wL7vR9nhHdscYqkDRsScxZuzLJ76iqf"
            ]
          }
        }
      ],
      "hex": "01000000015da48a927558857d5b8ce976d66e7e760ff2f65a7bd3f39b9bd4e83e3616b66a010000006a473044022017ce9bc82084f7a7eebc59f23b1a1c5f4060bd6d135b183bea716d53ded5813402203cff90b5c276a0c784ec379061f9c1d90f8a5d13577bdaf019a432d95eff76a40121029ed3c51e204d86a249cc4db67b82a0bcee5d6ae09a1e99bc8dced42e2187ee1effffffff02ae2e8e02000000001976a9141b1ea04fa61c6751029cec9b92344c68d901ff5488ac5e136403000000001976a914da6fa84789213f22afcc4e83354ee2f5bb383fdd88ac00000000"
    }, 
    {
      "txid": "deabf40594f74a3525b959491d2f230bbd9bc8a21a667e8af8bdc339d2deefc4",
      "hash": "deabf40594f74a3525b959491d2f230bbd9bc8a21a667e8af8bdc339d2deefc4",
      "version": 1,
      "size": 225,
      "vsize": 225,
      "locktime": 0,
      "vin": [
        {
          "txid": "34bb077178df2aea303a04ee4d88e863cac6b9aa5556df818fadf04f2104d8d9",
          "vout": 1,
          "scriptSig": {
            "asm": "304402201dcb127a0d72bae285057ff725c83e8eada695994741356783a4d2ca46ad1ba802206bf119b71720f3ade23d8f56594ca6d59dd07e2775dc00b0392b0a45a46a274e[ALL] 03bbd92a2d9977b2d8044fcf8aa81562a412dbc10e0883c8f7a09ae93a971d000a",
            "hex": "47304402201dcb127a0d72bae285057ff725c83e8eada695994741356783a4d2ca46ad1ba802206bf119b71720f3ade23d8f56594ca6d59dd07e2775dc00b0392b0a45a46a274e012103bbd92a2d9977b2d8044fcf8aa81562a412dbc10e0883c8f7a09ae93a971d000a"
          },
          "sequence": 4294967295
        }
      ],
      "vout": [
        {
          "value": 0.09208633,
          "n": 0,
          "scriptPubKey": {
            "asm": "OP_DUP OP_HASH160 eac2842086387a1c096ce600b26f54a994cb6bb7 OP_EQUALVERIFY OP_CHECKSIG",
            "hex": "76a914eac2842086387a1c096ce600b26f54a994cb6bb788ac",
            "reqSigs": 1,
            "type": "pubkeyhash",
            "addresses": [
              "LgdFQKRGZxPxe27Vkfr1MpkVGDK12cuRwr"
            ]
          }
        }, 
        {
          "value": 1.54078232,
          "n": 1,
          "scriptPubKey": {
            "asm": "OP_DUP OP_HASH160 6c518f1e80e05aa6fb8e522bab3a1a6b80a94b0e OP_EQUALVERIFY OP_CHECKSIG",
            "hex": "76a9146c518f1e80e05aa6fb8e522bab3a1a6b80a94b0e88ac",
            "reqSigs": 1,
            "type": "pubkeyhash",
            "addresses": [
              "LV6gwkex9bvqRYHED8o2mZ8RxVzjucdU4w"
            ]
          }
        }
      ],
      "hex": "0100000001d9d804214ff0ad8f81df5655aab9c6ca63e8884dee043a30ea2adf787107bb34010000006a47304402201dcb127a0d72bae285057ff725c83e8eada695994741356783a4d2ca46ad1ba802206bf119b71720f3ade23d8f56594ca6d59dd07e2775dc00b0392b0a45a46a274e012103bbd92a2d9977b2d8044fcf8aa81562a412dbc10e0883c8f7a09ae93a971d000affffffff0239838c00000000001976a914eac2842086387a1c096ce600b26f54a994cb6bb788ac180c2f09000000001976a9146c518f1e80e05aa6fb8e522bab3a1a6b80a94b0e88ac00000000"
    }, 
    {
      "txid": "3e7a8c5517657d939e38cd23c506816bc2cfb6f386495750bd2387ce67f95226",
      "hash": "3e7a8c5517657d939e38cd23c506816bc2cfb6f386495750bd2387ce67f95226",
      "version": 1,
      "size": 224,
      "vsize": 224,
      "locktime": 0,
      "vin": [
        {
          "txid": "8e5ac201b9d19bb24a6c5189e8719877dfb0b3c58082b1b406d87ddf4849f9f7",
          "vout": 10,
          "scriptSig": {
            "asm": "3045022100be16d81f8aaefd5bb6033f2e45f59d08910a88e846326e7193859cf7f723b36202206825dbc1b60805279e743248672ca5bbb2f2ccb97828958d7a872cd1d2edd9eb[ALL] 036d8dce83d82a26af2667551a030de44b22abfe1d35b28380cadfe748d972a07f",
            "hex": "483045022100be16d81f8aaefd5bb6033f2e45f59d08910a88e846326e7193859cf7f723b36202206825dbc1b60805279e743248672ca5bbb2f2ccb97828958d7a872cd1d2edd9eb0121036d8dce83d82a26af2667551a030de44b22abfe1d35b28380cadfe748d972a07f"
          },
          "sequence": 4294967295
        }
      ],
      "vout": [
        {
          "value": 0.44733340,
          "n": 0,
          "scriptPubKey": {
            "asm": "OP_HASH160 e763bd9ef6f88422ba3c5d4109d14ee352951e25 OP_EQUAL",
            "hex": "a914e763bd9ef6f88422ba3c5d4109d14ee352951e2587",
            "reqSigs": 1,
            "type": "scripthash",
            "addresses": [
              "MUzdorBgiHjY7a4gaWGPkTp5hAaQq5u2qH"
            ]
          }
        }, 
        {
          "value": 0.22216420,
          "n": 1,
          "scriptPubKey": {
            "asm": "OP_DUP OP_HASH160 61be33344eccea3792b9461cf6f570b661b23be7 OP_EQUALVERIFY OP_CHECKSIG",
            "hex": "76a91461be33344eccea3792b9461cf6f570b661b23be788ac",
            "reqSigs": 1,
            "type": "pubkeyhash",
            "addresses": [
              "LU8mf9cu2NBJqnoESLKzsC1M8FXTbRGMeK"
            ]
          }
        }
      ],
      "hex": "0100000001f7f94948df7dd806b4b18280c5b3b0df779871e889516c4ab29bd1b901c25a8e0a0000006b483045022100be16d81f8aaefd5bb6033f2e45f59d08910a88e846326e7193859cf7f723b36202206825dbc1b60805279e743248672ca5bbb2f2ccb97828958d7a872cd1d2edd9eb0121036d8dce83d82a26af2667551a030de44b22abfe1d35b28380cadfe748d972a07fffffffff029c93aa020000000017a914e763bd9ef6f88422ba3c5d4109d14ee352951e2587e4fe5201000000001976a91461be33344eccea3792b9461cf6f570b661b23be788ac00000000"
    }, 
    {
      "txid": "9ceb608b434ff7d874d855d483cb24c2d6578f93057e135941495f75e57fc106",
      "hash": "9ceb608b434ff7d874d855d483cb24c2d6578f93057e135941495f75e57fc106",
      "version": 1,
      "size": 226,
      "vsize": 226,
      "locktime": 0,
      "vin": [
        {
          "txid": "c65bd7f6b4b8686c70567f1f7d617025116d40183c6cfe2c52d0257b672a6575",
          "vout": 0,
          "scriptSig": {
            "asm": "3045022100aa5c98d497c671853ed051c961c6cf7c9d01a187825384a2bd30691bbc0bcde3022024c3c0a7cb2d4992a4a0cee7136df11feb1f437d127c947d55e52d1556442610[ALL] 0384a9a36de00797765bb8cbd04dabb5aa68695b13ab3d76e64a85d79f0c76db7f",
            "hex": "483045022100aa5c98d497c671853ed051c961c6cf7c9d01a187825384a2bd30691bbc0bcde3022024c3c0a7cb2d4992a4a0cee7136df11feb1f437d127c947d55e52d155644261001210384a9a36de00797765bb8cbd04dabb5aa68695b13ab3d76e64a85d79f0c76db7f"
          },
          "sequence": 4294967295
        }
      ],
      "vout": [
        {
          "value": 78.43985749,
          "n": 0,
          "scriptPubKey": {
            "asm": "OP_DUP OP_HASH160 8a4fd1372b1dd683fede7d68f2332fae2e9c9f71 OP_EQUALVERIFY OP_CHECKSIG",
            "hex": "76a9148a4fd1372b1dd683fede7d68f2332fae2e9c9f7188ac",
            "reqSigs": 1,
            "type": "pubkeyhash",
            "addresses": [
              "LXqH8V6ZtsHBrURFbVxHR59KA24qcdosN3"
            ]
          }
        }, 
        {
          "value": 0.35800000,
          "n": 1,
          "scriptPubKey": {
            "asm": "OP_DUP OP_HASH160 70cf7cb8d94c8aa1329007ebf9dc62cd8714ab0b OP_EQUALVERIFY OP_CHECKSIG",
            "hex": "76a91470cf7cb8d94c8aa1329007ebf9dc62cd8714ab0b88ac",
            "reqSigs": 1,
            "type": "pubkeyhash",
            "addresses": [
              "LVWSWAJDMB5jawu9khBTcuQXGnrB4Twf3j"
            ]
          }
        }
      ],
      "hex": "010000000175652a677b25d0522cfe6c3c18406d112570617d1f7f56706c68b8b4f6d75bc6000000006b483045022100aa5c98d497c671853ed051c961c6cf7c9d01a187825384a2bd30691bbc0bcde3022024c3c0a7cb2d4992a4a0cee7136df11feb1f437d127c947d55e52d155644261001210384a9a36de00797765bb8cbd04dabb5aa68695b13ab3d76e64a85d79f0c76db7fffffffff0255b989d3010000001976a9148a4fd1372b1dd683fede7d68f2332fae2e9c9f7188acc0432202000000001976a91470cf7cb8d94c8aa1329007ebf9dc62cd8714ab0b88ac00000000"
    }, 
    {
      "txid": "f8e304ad9df08f376fd0f983c1f23401e6d0bd465526a2f3a2836d3402cb26c1",
      "hash": "f8e304ad9df08f376fd0f983c1f23401e6d0bd465526a2f3a2836d3402cb26c1",
      "version": 1,
      "size": 2141,
      "vsize": 2141,
      "locktime": 0,
      "vin": [
        {
          "txid": "cf3108923082457e21671afe310a611d3c06a5ac7801f0cbb926aa84bfabd7bc",
          "vout": 10,
          "scriptSig": {
            "asm": "3044022002bb4062cd2ee6caa76887a516abaf4105ba0f9df64fa0ccd7b9659266c462f002206d560990a4e8cada3fa8513d3f32a5ab471cbcbd59cbd8a16ee23aeb53d5b44e[ALL] 039a3162ed969f6f98cc5817b970f437ba6157ac66b99085737acfc7cda77935f5",
            "hex": "473044022002bb4062cd2ee6caa76887a516abaf4105ba0f9df64fa0ccd7b9659266c462f002206d560990a4e8cada3fa8513d3f32a5ab471cbcbd59cbd8a16ee23aeb53d5b44e0121039a3162ed969f6f98cc5817b970f437ba6157ac66b99085737acfc7cda77935f5"
          },
          "sequence": 4294967295
        }, 
        {
          "txid": "014a7fca0b8b902c2437f27e5a02cf20176ea51f754446d463ac663e8317ad20",
          "vout": 9,
          "scriptSig": {
            "asm": "30440220526a47dec91d5c266fde781dca3c623b7f69c333992fc724ef74b2072ab5fa9002204173138aa553d40a426d4e9c5a7ee61c7fed0d3ab195bc55583730a58a6849e5[ALL] 03076cd9e5cba0bee942c484dc1d9cff1642711bb926b9e51f3e075814f4de3c60",
            "hex": "4730440220526a47dec91d5c266fde781dca3c623b7f69c333992fc724ef74b2072ab5fa9002204173138aa553d40a426d4e9c5a7ee61c7fed0d3ab195bc55583730a58a6849e5012103076cd9e5cba0bee942c484dc1d9cff1642711bb926b9e51f3e075814f4de3c60"
          },
          "sequence": 4294967295
        }, 
        {
          "txid": "ae61d75f2b40ba70db7bf17c35b8af7628f7cb782fca78a613e653123e0e346a",
          "vout": 1,
          "scriptSig": {
            "asm": "3045022100a0031af4aa0a59e732478cc02a82aa6b61c80ee8b88e00c24f0f485d297c01bb02204488e0be672ffabdff91fad3bd4217a4dddde8ce571dda88fb9501fad1077d3a[ALL] 02e8ecca4d4c6ce2debd97db6f1556c8007d783e17203ab4b100139d46960fbb93",
            "hex": "483045022100a0031af4aa0a59e732478cc02a82aa6b61c80ee8b88e00c24f0f485d297c01bb02204488e0be672ffabdff91fad3bd4217a4dddde8ce571dda88fb9501fad1077d3a012102e8ecca4d4c6ce2debd97db6f1556c8007d783e17203ab4b100139d46960fbb93"
          },
          "sequence": 4294967295
        }, 
        {
          "txid": "18881027a380defdeb0edee8055fa8bb63e9ea728ee638640baccb9c58da8763",
          "vout": 0,
          "scriptSig": {
            "asm": "3045022100a6aa3cf31fb9818960c37ba7391433d391226a126cdd3d9810aef095eaf587030220283f5fa3a22ad7c230059b05f57f2171244a8e5de693a5e01d431cf545fa8fe6[ALL] 032fdeca69736dd02b225c906315feceb8c44cd1c49e13f8bd0a52e2dc55374557",
            "hex": "483045022100a6aa3cf31fb9818960c37ba7391433d391226a126cdd3d9810aef095eaf587030220283f5fa3a22ad7c230059b05f57f2171244a8e5de693a5e01d431cf545fa8fe60121032fdeca69736dd02b225c906315feceb8c44cd1c49e13f8bd0a52e2dc55374557"
          },
          "sequence": 4294967295
        }, 
        {
          "txid": "b6de62ead08cf005db5010cde1c99e156e657f00a83b99bda1ca08030f6ca412",
          "vout": 50,
          "scriptSig": {
            "asm": "3045022100e21a90187c02c4d6a89a742abaff0ee47bd169504560c7cc2719b086c87e4bba02204be1c246b71054b57aaf46f4ffac85ca65cd810beed1bc00dbb26e0395e54039[ALL] 022026da56280664cd4d5e53b8d07e1309774513d8a3ee9f3f9ab6679daacab80b",
            "hex": "483045022100e21a90187c02c4d6a89a742abaff0ee47bd169504560c7cc2719b086c87e4bba02204be1c246b71054b57aaf46f4ffac85ca65cd810beed1bc00dbb26e0395e540390121022026da56280664cd4d5e53b8d07e1309774513d8a3ee9f3f9ab6679daacab80b"
          },
          "sequence": 4294967295
        }, 
        {
          "txid": "b6de62ead08cf005db5010cde1c99e156e657f00a83b99bda1ca08030f6ca412",
          "vout": 52,
          "scriptSig": {
            "asm": "304402206c172cd9daad0eac22124e70f4fd8b9b49913eaa7b4ee258f329b2f4032af8ab02203d2b49d744c6bf56e10f3a3f70008d55e86d54cc5e4414e10f1cf0e146546afd[ALL] 03fbf0432364f9dbd4d753bedaad9f09c3967f70dda81bd9c68488ab4f842ac940",
            "hex": "47304402206c172cd9daad0eac22124e70f4fd8b9b49913eaa7b4ee258f329b2f4032af8ab02203d2b49d744c6bf56e10f3a3f70008d55e86d54cc5e4414e10f1cf0e146546afd012103fbf0432364f9dbd4d753bedaad9f09c3967f70dda81bd9c68488ab4f842ac940"
          },
          "sequence": 4294967295
        }, 
        {
          "txid": "b6de62ead08cf005db5010cde1c99e156e657f00a83b99bda1ca08030f6ca412",
          "vout": 55,
          "scriptSig": {
            "asm": "3044022063ea02be27dce4f3f9e41ecca9b99fc71c9ca6600395f50c3638ea0e548ca5e302204b3c643715825a36e492e89c5d10ece5bbce69260d58b6730e35c9c8c6c256cd[ALL] 026cdebe1ad6cc245f7ba388e359062073a4aa60f202f311c288011bdf346543aa",
            "hex": "473044022063ea02be27dce4f3f9e41ecca9b99fc71c9ca6600395f50c3638ea0e548ca5e302204b3c643715825a36e492e89c5d10ece5bbce69260d58b6730e35c9c8c6c256cd0121026cdebe1ad6cc245f7ba388e359062073a4aa60f202f311c288011bdf346543aa"
          },
          "sequence": 4294967295
        }, 
        {
          "txid": "3ab52aa2482678e9c0ff11d98a4fb0d08547a0f9406219796f89b89e4ea4e81e",
          "vout": 25,
          "scriptSig": {
            "asm": "3044022045d8ce4f1a6aadc8a040a32aae459822f56242e94b11bb74ee5daffa079b3ee7022047e237933c1569c2ea880b6689f3120d6252ba25e8277d1a3cf08b3bd0e93cdf[ALL] 027f0fc0ad55429e4fc8afde858d9650c95506845b89795cead2656a58d245221a",
            "hex": "473044022045d8ce4f1a6aadc8a040a32aae459822f56242e94b11bb74ee5daffa079b3ee7022047e237933c1569c2ea880b6689f3120d6252ba25e8277d1a3cf08b3bd0e93cdf0121027f0fc0ad55429e4fc8afde858d9650c95506845b89795cead2656a58d245221a"
          },
          "sequence": 4294967295
        }, 
        {
          "txid": "3ab52aa2482678e9c0ff11d98a4fb0d08547a0f9406219796f89b89e4ea4e81e",
          "vout": 31,
          "scriptSig": {
            "asm": "3044022048b60840378e6b8e15a43e648c08d8bfb65b343d54d1e73ea0689ec30c762b1102201a19cf0211e09de137c3ff4331f09e410237e72b097084d897f62c7150cbb70c[ALL] 02ee09d5827d44e3f60b38f55cf1618470883f65174c41f8426142b0197f6b4498",
            "hex": "473044022048b60840378e6b8e15a43e648c08d8bfb65b343d54d1e73ea0689ec30c762b1102201a19cf0211e09de137c3ff4331f09e410237e72b097084d897f62c7150cbb70c012102ee09d5827d44e3f60b38f55cf1618470883f65174c41f8426142b0197f6b4498"
          },
          "sequence": 4294967295
        }, 
        {
          "txid": "6ad17d0cdba51034919ea94d345039713ed99ea5bdbbf401a6f7c6cedc78002d",
          "vout": 53,
          "scriptSig": {
            "asm": "3045022100abb2a13e3f071926b82b5e2be1651a77e91b56a9e02f5acd267051b01b14cde8022079813b6d745df70569c3f78c64f11705b7741046bab7712e98d755b706a465aa[ALL] 02dd0a4e3403c07ead2d9837f19478b90c2ee5e7fbfbcf9e8c61a7344fa29a7571",
            "hex": "483045022100abb2a13e3f071926b82b5e2be1651a77e91b56a9e02f5acd267051b01b14cde8022079813b6d745df70569c3f78c64f11705b7741046bab7712e98d755b706a465aa012102dd0a4e3403c07ead2d9837f19478b90c2ee5e7fbfbcf9e8c61a7344fa29a7571"
          },
          "sequence": 4294967295
        }, 
        {
          "txid": "0832e19260248892de231bacfbab6df919c8d6dbcfdc1a9c4604c843d930816e",
          "vout": 10,
          "scriptSig": {
            "asm": "3044022073bf4549f2a346448c131b81d967946f8d29b05aade05463420808cf49a6d32102200a63d2dfd0c6fd5b2105df53ab9420fa9143576af5856e8ce40b53a0e5082ab9[ALL] 025f29c4a42f3bc85d29732bbd823789a80fdc8a85f15b0f30b7adee83b558137c",
            "hex": "473044022073bf4549f2a346448c131b81d967946f8d29b05aade05463420808cf49a6d32102200a63d2dfd0c6fd5b2105df53ab9420fa9143576af5856e8ce40b53a0e5082ab90121025f29c4a42f3bc85d29732bbd823789a80fdc8a85f15b0f30b7adee83b558137c"
          },
          "sequence": 4294967295
        }, 
        {
          "txid": "fc5a03fe0ce352d1234c15e4bfd2afb4f1e2706bc039933503e255cf2eb1f2a2",
          "vout": 35,
          "scriptSig": {
            "asm": "30440220659689fe5665a61d7bc54671db98d9bfbbe88014f8853223f1f2a86440ed1f15022051d4f504d18640febed15d6b6094398f19d03c6c719fd0b6ce584b2d1404d161[ALL] 03b2bf10bff6ebee73fb8a8f11990b05a765ba1e3d4cfe5e62372ecf47e8e68e6d",
            "hex": "4730440220659689fe5665a61d7bc54671db98d9bfbbe88014f8853223f1f2a86440ed1f15022051d4f504d18640febed15d6b6094398f19d03c6c719fd0b6ce584b2d1404d161012103b2bf10bff6ebee73fb8a8f11990b05a765ba1e3d4cfe5e62372ecf47e8e68e6d"
          },
          "sequence": 4294967295
        }, 
        {
          "txid": "c0d63576a5ff157591c450a0856cd19ce8aca1d7ae604eb2df6ffffeeaac59da",
          "vout": 3,
          "scriptSig": {
            "asm": "3045022100cac435483bc320a9a27e13f7f06693b42b4bcbc32007fe782cf2daf9a471b1c20220558637fa149988762c4f04bac1bb5559c0325d375a827589ae64842bc07f9ff9[ALL] 0225d47526fe3e91b72e3a2c2e393ead4b39d661a6e821107b06bb1930ab28a313",
            "hex": "483045022100cac435483bc320a9a27e13f7f06693b42b4bcbc32007fe782cf2daf9a471b1c20220558637fa149988762c4f04bac1bb5559c0325d375a827589ae64842bc07f9ff901210225d47526fe3e91b72e3a2c2e393ead4b39d661a6e821107b06bb1930ab28a313"
          },
          "sequence": 4294967295
        }, 
        {
          "txid": "b6de62ead08cf005db5010cde1c99e156e657f00a83b99bda1ca08030f6ca412",
          "vout": 33,
          "scriptSig": {
            "asm": "304402203be188d3caee96affa56fb91f7f855a85a73b7794c47187790e00c1e4748211802204ef3dcf2ffd05c4e6852f4f736b4382f96bfd4ee3e1e7126090e245e5be8b7da[ALL] 02d04d526046401f38d8c077cff6b6f532581b8bca60a640ce57a07ed7137a3e13",
            "hex": "47304402203be188d3caee96affa56fb91f7f855a85a73b7794c47187790e00c1e4748211802204ef3dcf2ffd05c4e6852f4f736b4382f96bfd4ee3e1e7126090e245e5be8b7da012102d04d526046401f38d8c077cff6b6f532581b8bca60a640ce57a07ed7137a3e13"
          },
          "sequence": 4294967295
        }
      ],
      "vout": [
        {
          "value": 5.50824844,
          "n": 0,
          "scriptPubKey": {
            "asm": "OP_DUP OP_HASH160 8054d8d8dd6bce91125bcfe8bbb473f54afcdc60 OP_EQUALVERIFY OP_CHECKSIG",
            "hex": "76a9148054d8d8dd6bce91125bcfe8bbb473f54afcdc6088ac",
            "reqSigs": 1,
            "type": "pubkeyhash",
            "addresses": [
              "LWvWQ3XMoipFsAqE1EZPQFUovLea7DC1ef"
            ]
          }
        }, 
        {
          "value": 0.00072183,
          "n": 1,
          "scriptPubKey": {
            "asm": "OP_DUP OP_HASH160 2868a743b89a66e31745b10b4148ea3c45d5a8fb OP_EQUALVERIFY OP_CHECKSIG",
            "hex": "76a9142868a743b89a66e31745b10b4148ea3c45d5a8fb88ac",
            "reqSigs": 1,
            "type": "pubkeyhash",
            "addresses": [
              "LNucfL7YNmhr3Y9S2oUbeAQGQ68UvZVLw5"
            ]
          }
        }
      ],
      "hex": "010000000ebcd7abbf84aa26b9cbf00178aca5063c1d610a31fe1a67217e458230920831cf0a0000006a473044022002bb4062cd2ee6caa76887a516abaf4105ba0f9df64fa0ccd7b9659266c462f002206d560990a4e8cada3fa8513d3f32a5ab471cbcbd59cbd8a16ee23aeb53d5b44e0121039a3162ed969f6f98cc5817b970f437ba6157ac66b99085737acfc7cda77935f5ffffffff20ad17833e66ac63d44644751fa56e1720cf025a7ef237242c908b0bca7f4a01090000006a4730440220526a47dec91d5c266fde781dca3c623b7f69c333992fc724ef74b2072ab5fa9002204173138aa553d40a426d4e9c5a7ee61c7fed0d3ab195bc55583730a58a6849e5012103076cd9e5cba0bee942c484dc1d9cff1642711bb926b9e51f3e075814f4de3c60ffffffff6a340e3e1253e613a678ca2f78cbf72876afb8357cf17bdb70ba402b5fd761ae010000006b483045022100a0031af4aa0a59e732478cc02a82aa6b61c80ee8b88e00c24f0f485d297c01bb02204488e0be672ffabdff91fad3bd4217a4dddde8ce571dda88fb9501fad1077d3a012102e8ecca4d4c6ce2debd97db6f1556c8007d783e17203ab4b100139d46960fbb93ffffffff6387da589ccbac0b6438e68e72eae963bba85f05e8de0eebfdde80a327108818000000006b483045022100a6aa3cf31fb9818960c37ba7391433d391226a126cdd3d9810aef095eaf587030220283f5fa3a22ad7c230059b05f57f2171244a8e5de693a5e01d431cf545fa8fe60121032fdeca69736dd02b225c906315feceb8c44cd1c49e13f8bd0a52e2dc55374557ffffffff12a46c0f0308caa1bd993ba8007f656e159ec9e1cd1050db05f08cd0ea62deb6320000006b483045022100e21a90187c02c4d6a89a742abaff0ee47bd169504560c7cc2719b086c87e4bba02204be1c246b71054b57aaf46f4ffac85ca65cd810beed1bc00dbb26e0395e540390121022026da56280664cd4d5e53b8d07e1309774513d8a3ee9f3f9ab6679daacab80bffffffff12a46c0f0308caa1bd993ba8007f656e159ec9e1cd1050db05f08cd0ea62deb6340000006a47304402206c172cd9daad0eac22124e70f4fd8b9b49913eaa7b4ee258f329b2f4032af8ab02203d2b49d744c6bf56e10f3a3f70008d55e86d54cc5e4414e10f1cf0e146546afd012103fbf0432364f9dbd4d753bedaad9f09c3967f70dda81bd9c68488ab4f842ac940ffffffff12a46c0f0308caa1bd993ba8007f656e159ec9e1cd1050db05f08cd0ea62deb6370000006a473044022063ea02be27dce4f3f9e41ecca9b99fc71c9ca6600395f50c3638ea0e548ca5e302204b3c643715825a36e492e89c5d10ece5bbce69260d58b6730e35c9c8c6c256cd0121026cdebe1ad6cc245f7ba388e359062073a4aa60f202f311c288011bdf346543aaffffffff1ee8a44e9eb8896f79196240f9a04785d0b04f8ad911ffc0e9782648a22ab53a190000006a473044022045d8ce4f1a6aadc8a040a32aae459822f56242e94b11bb74ee5daffa079b3ee7022047e237933c1569c2ea880b6689f3120d6252ba25e8277d1a3cf08b3bd0e93cdf0121027f0fc0ad55429e4fc8afde858d9650c95506845b89795cead2656a58d245221affffffff1ee8a44e9eb8896f79196240f9a04785d0b04f8ad911ffc0e9782648a22ab53a1f0000006a473044022048b60840378e6b8e15a43e648c08d8bfb65b343d54d1e73ea0689ec30c762b1102201a19cf0211e09de137c3ff4331f09e410237e72b097084d897f62c7150cbb70c012102ee09d5827d44e3f60b38f55cf1618470883f65174c41f8426142b0197f6b4498ffffffff2d0078dccec6f7a601f4bbbda59ed93e713950344da99e913410a5db0c7dd16a350000006b483045022100abb2a13e3f071926b82b5e2be1651a77e91b56a9e02f5acd267051b01b14cde8022079813b6d745df70569c3f78c64f11705b7741046bab7712e98d755b706a465aa012102dd0a4e3403c07ead2d9837f19478b90c2ee5e7fbfbcf9e8c61a7344fa29a7571ffffffff6e8130d943c804469c1adccfdbd6c819f96dabfbac1b23de9288246092e132080a0000006a473044022073bf4549f2a346448c131b81d967946f8d29b05aade05463420808cf49a6d32102200a63d2dfd0c6fd5b2105df53ab9420fa9143576af5856e8ce40b53a0e5082ab90121025f29c4a42f3bc85d29732bbd823789a80fdc8a85f15b0f30b7adee83b558137cffffffffa2f2b12ecf55e203359339c06b70e2f1b4afd2bfe4154c23d152e30cfe035afc230000006a4730440220659689fe5665a61d7bc54671db98d9bfbbe88014f8853223f1f2a86440ed1f15022051d4f504d18640febed15d6b6094398f19d03c6c719fd0b6ce584b2d1404d161012103b2bf10bff6ebee73fb8a8f11990b05a765ba1e3d4cfe5e62372ecf47e8e68e6dffffffffda59aceafeff6fdfb24e60aed7a1ace89cd16c85a050c4917515ffa57635d6c0030000006b483045022100cac435483bc320a9a27e13f7f06693b42b4bcbc32007fe782cf2daf9a471b1c20220558637fa149988762c4f04bac1bb5559c0325d375a827589ae64842bc07f9ff901210225d47526fe3e91b72e3a2c2e393ead4b39d661a6e821107b06bb1930ab28a313ffffffff12a46c0f0308caa1bd993ba8007f656e159ec9e1cd1050db05f08cd0ea62deb6210000006a47304402203be188d3caee96affa56fb91f7f855a85a73b7794c47187790e00c1e4748211802204ef3dcf2ffd05c4e6852f4f736b4382f96bfd4ee3e1e7126090e245e5be8b7da012102d04d526046401f38d8c077cff6b6f532581b8bca60a640ce57a07ed7137a3e13ffffffff028cebd420000000001976a9148054d8d8dd6bce91125bcfe8bbb473f54afcdc6088acf7190100000000001976a9142868a743b89a66e31745b10b4148ea3c45d5a8fb88ac00000000"
    }, 
    {
      "txid": "1ada672017575155d6fd994afa37a2bc4b077049bed2739c9d492c38a4cd4706",
      "hash": "1ada672017575155d6fd994afa37a2bc4b077049bed2739c9d492c38a4cd4706",
      "version": 1,
      "size": 225,
      "vsize": 225,
      "locktime": 0,
      "vin": [
        {
          "txid": "e497034d3994ed750be689366a1870819b98fbe03dd746c05c17d1d33d099962",
          "vout": 1,
          "scriptSig": {
            "asm": "3044022051aa11b51c03fe3f725bd8df75ec15c1e2dd8a34fe44c5b81e045b2b01fc755102200744454e2aa052d6ee066fca10ee6a3cca339f8156f5a6c8a8e3c6bce234967d[ALL] 02ebf48c17a423b1e819f7f218a9af4e00f17d7d516b43d1dd69d306bba6135b17",
            "hex": "473044022051aa11b51c03fe3f725bd8df75ec15c1e2dd8a34fe44c5b81e045b2b01fc755102200744454e2aa052d6ee066fca10ee6a3cca339f8156f5a6c8a8e3c6bce234967d012102ebf48c17a423b1e819f7f218a9af4e00f17d7d516b43d1dd69d306bba6135b17"
          },
          "sequence": 4294967295
        }
      ],
      "vout": [
        {
          "value": 0.09726672,
          "n": 0,
          "scriptPubKey": {
            "asm": "OP_DUP OP_HASH160 b0471a2fa7a7aca519df47467eee88ace00491d8 OP_EQUALVERIFY OP_CHECKSIG",
            "hex": "76a914b0471a2fa7a7aca519df47467eee88ace00491d888ac",
            "reqSigs": 1,
            "type": "pubkeyhash",
            "addresses": [
              "LbJ2NFPRT9uMf9JC3o98XqMQVuMBUKp3kH"
            ]
          }
        }, 
        {
          "value": 1.00040000,
          "n": 1,
          "scriptPubKey": {
            "asm": "OP_DUP OP_HASH160 1b508ebd07abb927b0aed330f267a49da9039381 OP_EQUALVERIFY OP_CHECKSIG",
            "hex": "76a9141b508ebd07abb927b0aed330f267a49da903938188ac",
            "reqSigs": 1,
            "type": "pubkeyhash",
            "addresses": [
              "LMiP1dXmqTzC2noYQe4EWbXNZWVdVDhUJz"
            ]
          }
        }
      ],
      "hex": "01000000016299093dd3d1175cc046d73de0fb989b8170186a3689e60b75ed94394d0397e4010000006a473044022051aa11b51c03fe3f725bd8df75ec15c1e2dd8a34fe44c5b81e045b2b01fc755102200744454e2aa052d6ee066fca10ee6a3cca339f8156f5a6c8a8e3c6bce234967d012102ebf48c17a423b1e819f7f218a9af4e00f17d7d516b43d1dd69d306bba6135b17ffffffff02d06a9400000000001976a914b0471a2fa7a7aca519df47467eee88ace00491d888ac407df605000000001976a9141b508ebd07abb927b0aed330f267a49da903938188ac00000000"
    }, 
    {
      "txid": "9e3563a94139f9b2574ebe1cea2228f5ed8a46df4d6041303549c99f84650792",
      "hash": "9e3563a94139f9b2574ebe1cea2228f5ed8a46df4d6041303549c99f84650792",
      "version": 1,
      "size": 225,
      "vsize": 225,
      "locktime": 0,
      "vin": [
        {
          "txid": "e377ef764ca473a4c18e3edbcd2a0ac73c351a51adf75c36d2f14ebab84fb2e6",
          "vout": 0,
          "scriptSig": {
            "asm": "30440220780ffa7c8889dc71ae2c11a95a0b3127c2cc0fb9ab82d843f7bd0872767d8d9302205c88a64b4bd53d55c06adb7edc8665ee0de098815cb09f7b92bfc6f09e43cda6[ALL] 03ee964578c9e48ef9e9389c512b8cdb50b6feda7104cb26d6b77c67272ff6a9c8",
            "hex": "4730440220780ffa7c8889dc71ae2c11a95a0b3127c2cc0fb9ab82d843f7bd0872767d8d9302205c88a64b4bd53d55c06adb7edc8665ee0de098815cb09f7b92bfc6f09e43cda6012103ee964578c9e48ef9e9389c512b8cdb50b6feda7104cb26d6b77c67272ff6a9c8"
          },
          "sequence": 4294967295
        }
      ],
      "vout": [
        {
          "value": 26.89984702,
          "n": 0,
          "scriptPubKey": {
            "asm": "OP_DUP OP_HASH160 c5e7d3cf4a5a742a70527f41c49e236344e63964 OP_EQUALVERIFY OP_CHECKSIG",
            "hex": "76a914c5e7d3cf4a5a742a70527f41c49e236344e6396488ac",
            "reqSigs": 1,
            "type": "pubkeyhash",
            "addresses": [
              "LdGP6eoBYaTvWSYKSLyM5msNr1DASA5Xii"
            ]
          }
        }, 
        {
          "value": 1.17128354,
          "n": 1,
          "scriptPubKey": {
            "asm": "OP_DUP OP_HASH160 b7e3d5317d147bc7cc188f03fa79e07805fac3ea OP_EQUALVERIFY OP_CHECKSIG",
            "hex": "76a914b7e3d5317d147bc7cc188f03fa79e07805fac3ea88ac",
            "reqSigs": 1,
            "type": "pubkeyhash",
            "addresses": [
              "LbzGrRAibPFU6WU5ZSuwThhGBbWUHkqzvd"
            ]
          }
        }
      ],
      "hex": "0100000001e6b24fb8ba4ef1d2365cf7ad511a353cc70a2acddb3e8ec1a473a44c76ef77e3000000006a4730440220780ffa7c8889dc71ae2c11a95a0b3127c2cc0fb9ab82d843f7bd0872767d8d9302205c88a64b4bd53d55c06adb7edc8665ee0de098815cb09f7b92bfc6f09e43cda6012103ee964578c9e48ef9e9389c512b8cdb50b6feda7104cb26d6b77c67272ff6a9c8ffffffff02bee855a0000000001976a914c5e7d3cf4a5a742a70527f41c49e236344e6396488aca23cfb06000000001976a914b7e3d5317d147bc7cc188f03fa79e07805fac3ea88ac00000000"
    }, 
    {
      "txid": "8c3293934eb9e62c652e0a36f1a3a0e07a41323915e32087a63f0035b22402b4",
      "hash": "8c3293934eb9e62c652e0a36f1a3a0e07a41323915e32087a63f0035b22402b4",
      "version": 1,
      "size": 225,
      "vsize": 225,
      "locktime": 0,
      "vin": [
        {
          "txid": "3745c878e9fe60a9e97f733203ac85205df4c939ca391e1fe5444298023b52e0",
          "vout": 0,
          "scriptSig": {
            "asm": "30440220575891f801227e17f07f12fd47152082aa0959c28fdbe468d61a5c213bde513002200da4de49730550e3438e35a7c14d6453645257e8c23a34b2ae4b2d4f76ab2965[ALL] 03dff48a7932a43b0255b3f1356410267ebd1051c024188e6d4ce1a5d8ac49758b",
            "hex": "4730440220575891f801227e17f07f12fd47152082aa0959c28fdbe468d61a5c213bde513002200da4de49730550e3438e35a7c14d6453645257e8c23a34b2ae4b2d4f76ab2965012103dff48a7932a43b0255b3f1356410267ebd1051c024188e6d4ce1a5d8ac49758b"
          },
          "sequence": 4294967295
        }
      ],
      "vout": [
        {
          "value": 0.01611599,
          "n": 0,
          "scriptPubKey": {
            "asm": "OP_DUP OP_HASH160 34c88ffd9c4afd380410684edeb573a61b2467d7 OP_EQUALVERIFY OP_CHECKSIG",
            "hex": "76a91434c88ffd9c4afd380410684edeb573a61b2467d788ac",
            "reqSigs": 1,
            "type": "pubkeyhash",
            "addresses": [
              "LQ33fWgBboAwapGpWQB3tsd5gNUWvjwSBU"
            ]
          }
        }, 
        {
          "value": 0.00058901,
          "n": 1,
          "scriptPubKey": {
            "asm": "OP_DUP OP_HASH160 fb2d8635942d41076166aa035bd12e3d12479440 OP_EQUALVERIFY OP_CHECKSIG",
            "hex": "76a914fb2d8635942d41076166aa035bd12e3d1247944088ac",
            "reqSigs": 1,
            "type": "pubkeyhash",
            "addresses": [
              "Li84QSeyvqk8GVuiwLAC3fheqDpPBJq3Sb"
            ]
          }
        }
      ],
      "hex": "0100000001e0523b02984244e51f1e39ca39c9f45d2085ac0332737fe9a960fee978c84537000000006a4730440220575891f801227e17f07f12fd47152082aa0959c28fdbe468d61a5c213bde513002200da4de49730550e3438e35a7c14d6453645257e8c23a34b2ae4b2d4f76ab2965012103dff48a7932a43b0255b3f1356410267ebd1051c024188e6d4ce1a5d8ac49758bffffffff024f971800000000001976a91434c88ffd9c4afd380410684edeb573a61b2467d788ac15e60000000000001976a914fb2d8635942d41076166aa035bd12e3d1247944088ac00000000"
    }, 
    {
      "txid": "867e3ace796fb557fb407c7558170f738195714ee4a5b9f2d2b88ead4e236add",
      "hash": "867e3ace796fb557fb407c7558170f738195714ee4a5b9f2d2b88ead4e236add",
      "version": 2,
      "size": 225,
      "vsize": 225,
      "locktime": 1358425,
      "vin": [
        {
          "txid": "046ffbf2c795c6d457f0ab2b9ca01cd7d97db336adb0769da448c659b267d570",
          "vout": 0,
          "scriptSig": {
            "asm": "30440220638f24c88386286b71309597f638a92e314168e1cbcac3049ce1e3b68e56b2d0022057915e4f0ef6e1206b5dd78967e3966bbb50404ecd1110eaa2818a3b24a91031[ALL] 0393276939cbc119571c3d4207f8be830c586d638856fea09d9d69702a304d4c7a",
            "hex": "4730440220638f24c88386286b71309597f638a92e314168e1cbcac3049ce1e3b68e56b2d0022057915e4f0ef6e1206b5dd78967e3966bbb50404ecd1110eaa2818a3b24a9103101210393276939cbc119571c3d4207f8be830c586d638856fea09d9d69702a304d4c7a"
          },
          "sequence": 4294967294
        }
      ],
      "vout": [
        {
          "value": 0.60624800,
          "n": 0,
          "scriptPubKey": {
            "asm": "OP_DUP OP_HASH160 c649c60e1a0bb218fe95f1c4b14c87a9497a340f OP_EQUALVERIFY OP_CHECKSIG",
            "hex": "76a914c649c60e1a0bb218fe95f1c4b14c87a9497a340f88ac",
            "reqSigs": 1,
            "type": "pubkeyhash",
            "addresses": [
              "LdJQS5WxRCSzkqJwyFqERvskNGvuzEZjD1"
            ]
          }
        }, 
        {
          "value": 9.09948439,
          "n": 1,
          "scriptPubKey": {
            "asm": "OP_DUP OP_HASH160 ca67c704621eb50c8e0157e2ffca955c0213f009 OP_EQUALVERIFY OP_CHECKSIG",
            "hex": "76a914ca67c704621eb50c8e0157e2ffca955c0213f00988ac",
            "reqSigs": 1,
            "type": "pubkeyhash",
            "addresses": [
              "LdgB5YV7zpvs6RqyxWVPZ27bkhPgv7PDBy"
            ]
          }
        }
      ],
      "hex": "020000000170d567b259c648a49d76b0ad36b37dd9d71ca09c2babf057d4c695c7f2fb6f04000000006a4730440220638f24c88386286b71309597f638a92e314168e1cbcac3049ce1e3b68e56b2d0022057915e4f0ef6e1206b5dd78967e3966bbb50404ecd1110eaa2818a3b24a9103101210393276939cbc119571c3d4207f8be830c586d638856fea09d9d69702a304d4c7afeffffff02a00f9d03000000001976a914c649c60e1a0bb218fe95f1c4b14c87a9497a340f88ac17b63c36000000001976a914ca67c704621eb50c8e0157e2ffca955c0213f00988ac59ba1400"
    }, 
    {
      "txid": "b22961c9fd45a973135d602697d2e399e22a35228f85ca8acf146bec5225ae21",
      "hash": "b22961c9fd45a973135d602697d2e399e22a35228f85ca8acf146bec5225ae21",
      "version": 2,
      "size": 226,
      "vsize": 226,
      "locktime": 1358425,
      "vin": [
        {
          "txid": "3782675c13639cac9d98287bb53cb39eee442c0221668e9a4ef5460c8b01137f",
          "vout": 1,
          "scriptSig": {
            "asm": "30450221009280b5dafa994552fb44a709b6e4c21e67a207201f8024bf7d6aceb100e6b47502200a0eee339ed0aca9c507be9f1dd97fb635c3c79dc60188562ce4e66edbd33c1f[ALL] 036fa0493473a514ee17752327b77d0bea3091ba58403112de1140693855ede3d1",
            "hex": "4830450221009280b5dafa994552fb44a709b6e4c21e67a207201f8024bf7d6aceb100e6b47502200a0eee339ed0aca9c507be9f1dd97fb635c3c79dc60188562ce4e66edbd33c1f0121036fa0493473a514ee17752327b77d0bea3091ba58403112de1140693855ede3d1"
          },
          "sequence": 4294967294
        }
      ],
      "vout": [
        {
          "value": 0.10000000,
          "n": 0,
          "scriptPubKey": {
            "asm": "OP_DUP OP_HASH160 16ed137a97c1a335cebbe07083acc5e6a447d1ff OP_EQUALVERIFY OP_CHECKSIG",
            "hex": "76a91416ed137a97c1a335cebbe07083acc5e6a447d1ff88ac",
            "reqSigs": 1,
            "type": "pubkeyhash",
            "addresses": [
              "LMKB8mYLDnXEPVxAsK9BfmUiRMEHAS7m1k"
            ]
          }
        }, 
        {
          "value": 0.89977400,
          "n": 1,
          "scriptPubKey": {
            "asm": "OP_DUP OP_HASH160 63ab6735bbe6f2c300f91819c1c46b96b2cff39e OP_EQUALVERIFY OP_CHECKSIG",
            "hex": "76a91463ab6735bbe6f2c300f91819c1c46b96b2cff39e88ac",
            "reqSigs": 1,
            "type": "pubkeyhash",
            "addresses": [
              "LUJxVWEU9XArPuyWUVAfcuQcWPmbmGf7As"
            ]
          }
        }
      ],
      "hex": "02000000017f13018b0c46f54e9a8e6621022c44ee9eb33cb57b28989dac9c63135c678237010000006b4830450221009280b5dafa994552fb44a709b6e4c21e67a207201f8024bf7d6aceb100e6b47502200a0eee339ed0aca9c507be9f1dd97fb635c3c79dc60188562ce4e66edbd33c1f0121036fa0493473a514ee17752327b77d0bea3091ba58403112de1140693855ede3d1feffffff0280969800000000001976a91416ed137a97c1a335cebbe07083acc5e6a447d1ff88ac38f25c05000000001976a91463ab6735bbe6f2c300f91819c1c46b96b2cff39e88ac59ba1400"
    }, 
    {
      "txid": "903ff25d50e5cbcbbb5b0ec35bc22660c027c33aed1331f7d4ff7f11e41ec140",
      "hash": "903ff25d50e5cbcbbb5b0ec35bc22660c027c33aed1331f7d4ff7f11e41ec140",
      "version": 2,
      "size": 226,
      "vsize": 226,
      "locktime": 1358425,
      "vin": [
        {
          "txid": "8739b3a16ba746072eeb3b915cb9e18da8468fa1cbd4538299022daec1139907",
          "vout": 1,
          "scriptSig": {
            "asm": "3045022100b2f4526c96dbab095852c9e81ffee2ed8850352a98d03838b788999123a4856602200f861f3db9a5dbde896997b3231af40d4261bf9b1aea37b35f81e8209494f235[ALL] 0216568ef459f930e0d2388923f6e48052395792aa4d8ed99f429090ac126509c6",
            "hex": "483045022100b2f4526c96dbab095852c9e81ffee2ed8850352a98d03838b788999123a4856602200f861f3db9a5dbde896997b3231af40d4261bf9b1aea37b35f81e8209494f23501210216568ef459f930e0d2388923f6e48052395792aa4d8ed99f429090ac126509c6"
          },
          "sequence": 4294967294
        }
      ],
      "vout": [
        {
          "value": 0.10000000,
          "n": 0,
          "scriptPubKey": {
            "asm": "OP_DUP OP_HASH160 635dcc610cce6441ce63ed802233cf2987a366a0 OP_EQUALVERIFY OP_CHECKSIG",
            "hex": "76a914635dcc610cce6441ce63ed802233cf2987a366a088ac",
            "reqSigs": 1,
            "type": "pubkeyhash",
            "addresses": [
              "LUHMXRnsNW9wA82Uqes2httpiVsdFfK7Ak"
            ]
          }
        }, 
        {
          "value": 21.34037400,
          "n": 1,
          "scriptPubKey": {
            "asm": "OP_DUP OP_HASH160 083bad96828be7c14a93c05580edde5732923fb6 OP_EQUALVERIFY OP_CHECKSIG",
            "hex": "76a914083bad96828be7c14a93c05580edde5732923fb688ac",
            "reqSigs": 1,
            "type": "pubkeyhash",
            "addresses": [
              "LKyVAFe1kMFpAcqXu6TxqdvTtwwG4BGMgg"
            ]
          }
        }
      ],
      "hex": "0200000001079913c1ae2d02998253d4cba18f46a88de1b95c913beb2e0746a76ba1b33987010000006b483045022100b2f4526c96dbab095852c9e81ffee2ed8850352a98d03838b788999123a4856602200f861f3db9a5dbde896997b3231af40d4261bf9b1aea37b35f81e8209494f23501210216568ef459f930e0d2388923f6e48052395792aa4d8ed99f429090ac126509c6feffffff0280969800000000001976a914635dcc610cce6441ce63ed802233cf2987a366a088ac98d3327f000000001976a914083bad96828be7c14a93c05580edde5732923fb688ac59ba1400"
    }, 
    {
      "txid": "14d2006972a41447d73d4397e71c41f838c512ef6826e7e0ad069c186b6820b0",
      "hash": "14d2006972a41447d73d4397e71c41f838c512ef6826e7e0ad069c186b6820b0",
      "version": 1,
      "size": 226,
      "vsize": 226,
      "locktime": 0,
      "vin": [
        {
          "txid": "e70244892a6452ef7c8e88f747d842c666e4f69a1183e3e66bdde233dd0a58eb",
          "vout": 0,
          "scriptSig": {
            "asm": "304502210080883fe8da00eac200ed88010b5a403e43dc6dbb8dd961c624bf679ea533a3e902204903efa535489ec38e90dc4341eecc982e4250869d271331eef2019395fa4f8b[ALL] 033e78893ec4797175e9dfd39d0356687796cfa057ad56d2d9b119042dd7b3cef8",
            "hex": "48304502210080883fe8da00eac200ed88010b5a403e43dc6dbb8dd961c624bf679ea533a3e902204903efa535489ec38e90dc4341eecc982e4250869d271331eef2019395fa4f8b0121033e78893ec4797175e9dfd39d0356687796cfa057ad56d2d9b119042dd7b3cef8"
          },
          "sequence": 4294967295
        }
      ],
      "vout": [
        {
          "value": 0.10478000,
          "n": 0,
          "scriptPubKey": {
            "asm": "OP_DUP OP_HASH160 d158e65a0ab7678e192e02df1619de0303fa39d1 OP_EQUALVERIFY OP_CHECKSIG",
            "hex": "76a914d158e65a0ab7678e192e02df1619de0303fa39d188ac",
            "reqSigs": 1,
            "type": "pubkeyhash",
            "addresses": [
              "LeJszAyQaGVQMuU1e8wSbR2GRzXiLa2ySw"
            ]
          }
        }, 
        {
          "value": 0.00065747,
          "n": 1,
          "scriptPubKey": {
            "asm": "OP_DUP OP_HASH160 f0acd29feed586f382f1b6548ae2da2c3df80630 OP_EQUALVERIFY OP_CHECKSIG",
            "hex": "76a914f0acd29feed586f382f1b6548ae2da2c3df8063088ac",
            "reqSigs": 1,
            "type": "pubkeyhash",
            "addresses": [
              "LhAXUBqfgPMprpH84w2BVwtccYjigxEAGf"
            ]
          }
        }
      ],
      "hex": "0100000001eb580add33e2dd6be6e383119af6e466c642d847f7888e7cef52642a894402e7000000006b48304502210080883fe8da00eac200ed88010b5a403e43dc6dbb8dd961c624bf679ea533a3e902204903efa535489ec38e90dc4341eecc982e4250869d271331eef2019395fa4f8b0121033e78893ec4797175e9dfd39d0356687796cfa057ad56d2d9b119042dd7b3cef8ffffffff02b0e19f00000000001976a914d158e65a0ab7678e192e02df1619de0303fa39d188acd3000100000000001976a914f0acd29feed586f382f1b6548ae2da2c3df8063088ac00000000"
    }, 
    {
      "txid": "ad94cbddbd213497b71e1c8521a5e179601b3329294a98965af39514883d1fdc",
      "hash": "ad94cbddbd213497b71e1c8521a5e179601b3329294a98965af39514883d1fdc",
      "version": 1,
      "size": 226,
      "vsize": 226,
      "locktime": 0,
      "vin": [
        {
          "txid": "6a7d6a172a56fa220bd798605f36251187d30f1cc52f1b87af9ce41a91e166e3",
          "vout": 0,
          "scriptSig": {
            "asm": "3045022100c3acb5826254d205b9daf9dee2d2113a850212c78b220d9b9ebb83e24a5dcf850220457aa3acd81249ddca1a95d5250f36529312ffb9382166709ca36c7e54d646cf[ALL] 03bc1fa10a0fb995409c380f9eb0d3a59ac05705847c019debdb0e57b3b6e3cf8f",
            "hex": "483045022100c3acb5826254d205b9daf9dee2d2113a850212c78b220d9b9ebb83e24a5dcf850220457aa3acd81249ddca1a95d5250f36529312ffb9382166709ca36c7e54d646cf012103bc1fa10a0fb995409c380f9eb0d3a59ac05705847c019debdb0e57b3b6e3cf8f"
          },
          "sequence": 4294967295
        }
      ],
      "vout": [
        {
          "value": 3.39220612,
          "n": 0,
          "scriptPubKey": {
            "asm": "OP_DUP OP_HASH160 5f17fb6bdd0f4c162172327a9e81156bebdeb3de OP_EQUALVERIFY OP_CHECKSIG",
            "hex": "76a9145f17fb6bdd0f4c162172327a9e81156bebdeb3de88ac",
            "reqSigs": 1,
            "type": "pubkeyhash",
            "addresses": [
              "LTtmBk5BWUACPCRfw8NTCR1zMpCUQDW8pH"
            ]
          }
        }, 
        {
          "value": 54.34930297,
          "n": 1,
          "scriptPubKey": {
            "asm": "OP_DUP OP_HASH160 e6e2ce69d945189a3489fa479757528865f9b1bd OP_EQUALVERIFY OP_CHECKSIG",
            "hex": "76a914e6e2ce69d945189a3489fa479757528865f9b1bd88ac",
            "reqSigs": 1,
            "type": "pubkeyhash",
            "addresses": [
              "LgGmP7TeU4P3tbh7P5E8M1KRaEUSMqcxHX"
            ]
          }
        }
      ],
      "hex": "0100000001e366e1911ae49caf871b2fc51c0fd3871125365f6098d70b22fa562a176a7d6a000000006b483045022100c3acb5826254d205b9daf9dee2d2113a850212c78b220d9b9ebb83e24a5dcf850220457aa3acd81249ddca1a95d5250f36529312ffb9382166709ca36c7e54d646cf012103bc1fa10a0fb995409c380f9eb0d3a59ac05705847c019debdb0e57b3b6e3cf8fffffffff0284183814000000001976a9145f17fb6bdd0f4c162172327a9e81156bebdeb3de88ac7974f243010000001976a914e6e2ce69d945189a3489fa479757528865f9b1bd88ac00000000"
    }
  ],
  "time": 1517140591,
  "mediantime": 1517140078,
  "nonce": 4157264583,
  "bits": "1a047f14",
  "difficulty": 3731199.183374282,
  "chainwork": "000000000000000000000000000000000000000000000033157942a45e961058",
  "previousblockhash": "f8a01dd03e374a0c8972200a979b4036107b196c044f479af5f1ee8b4c37ec77",
  "nextblockhash": "55b548fc12825618c79589cd301c3e2c032a584d07d2bb6e2d520b4c72979cd5"
}
