{
  "hash": "f239b2023177633d762fef6dc49e15a6ed3f9e8c14611013811cc5f92a6590fc",
  "confirmations": 1107,
  "strippedsize": 234,
  "size": 234,
  "weight": 936,
  "height": 1359887,
  "version": 536870912,
  "versionHex": "20000000",
  "merkleroot": "4a62478aa00524caa0c8732e3c7a80bf1e92c0e4b890f7fd40cceeda1c8a5982",
  "tx": [
    {
      "txid": "4a62478aa00524caa0c8732e3c7a80bf1e92c0e4b890f7fd40cceeda1c8a5982",
      "hash": "4a62478aa00524caa0c8732e3c7a80bf1e92c0e4b890f7fd40cceeda1c8a5982",
      "version": 1,
      "size": 153,
      "vsize": 153,
      "locktime": 0,
      "vin": [
        {
          "coinbase": "030fc014045a70d62f2cfabe6d6d187de8edd75889a9c0af1212f21652d3e993d13942c894b9941bf84b9329d5e84000000000000000042f4c502f082200397b03000000",
          "sequence": 4294967295
        }
      ],
      "vout": [
        {
          "value": 25.00000000,
          "n": 0,
          "scriptPubKey": {
            "asm": "OP_DUP OP_HASH160 57757ed2ecf2052ff3126c397aca7defb9ca2cec OP_EQUALVERIFY OP_CHECKSIG",
            "hex": "76a91457757ed2ecf2052ff3126c397aca7defb9ca2cec88ac",
            "reqSigs": 1,
            "type": "pubkeyhash",
            "addresses": [
              "LTCPodGk5FwcJaRzH9yKnwicxzFUbxp6tN"
            ]
          }
        }
      ],
      "hex": "01000000010000000000000000000000000000000000000000000000000000000000000000ffffffff44030fc014045a70d62f2cfabe6d6d187de8edd75889a9c0af1212f21652d3e993d13942c894b9941bf84b9329d5e84000000000000000042f4c502f082200397b03000000ffffffff0100f90295000000001976a91457757ed2ecf2052ff3126c397aca7defb9ca2cec88ac00000000"
    }
  ],
  "time": 1517344303,
  "mediantime": 1517343455,
  "nonce": 1451626770,
  "bits": "1a042eae",
  "difficulty": 4011378.762614286,
  "chainwork": "0000000000000000000000000000000000000000000000346c9d738fc49aa520",
  "previousblockhash": "6fa1038f01f240fb68e0e6be4401f27ad87196b1734f9e6af9e8fd9ab26f8799",
  "nextblockhash": "fbd541edb3418363a61af3d11036337cf880357ec2554441aeaa9a033403ec34"
}
