{
  "hash": "f2920cbb3c5819f4a5b2f71e92474dcd75990cfece5715bdd84821e923eea3d6",
  "confirmations": 1682,
  "strippedsize": 234,
  "size": 234,
  "weight": 936,
  "height": 1359312,
  "version": 536870912,
  "versionHex": "20000000",
  "merkleroot": "9aa8ac5f029826dfc64a268287b23fe225f8d9a91dd31866834090d772f8bd38",
  "tx": [
    {
      "txid": "9aa8ac5f029826dfc64a268287b23fe225f8d9a91dd31866834090d772f8bd38",
      "hash": "9aa8ac5f029826dfc64a268287b23fe225f8d9a91dd31866834090d772f8bd38",
      "version": 1,
      "size": 153,
      "vsize": 153,
      "locktime": 0,
      "vin": [
        {
          "coinbase": "03d0bd14045a6fa7b22cfabe6d6d08c559af568e7888819ea66aa9238dd9113e6d89be6d8c03ec6abd54e99163934000000000000000042f4c502f08160002aa01000000",
          "sequence": 4294967295
        }
      ],
      "vout": [
        {
          "value": 25.00000000,
          "n": 0,
          "scriptPubKey": {
            "asm": "OP_DUP OP_HASH160 57757ed2ecf2052ff3126c397aca7defb9ca2cec OP_EQUALVERIFY OP_CHECKSIG",
            "hex": "76a91457757ed2ecf2052ff3126c397aca7defb9ca2cec88ac",
            "reqSigs": 1,
            "type": "pubkeyhash",
            "addresses": [
              "LTCPodGk5FwcJaRzH9yKnwicxzFUbxp6tN"
            ]
          }
        }
      ],
      "hex": "01000000010000000000000000000000000000000000000000000000000000000000000000ffffffff4403d0bd14045a6fa7b22cfabe6d6d08c559af568e7888819ea66aa9238dd9113e6d89be6d8c03ec6abd54e99163934000000000000000042f4c502f08160002aa01000000ffffffff0100f90295000000001976a91457757ed2ecf2052ff3126c397aca7defb9ca2cec88ac00000000"
    }
  ],
  "time": 1517266866,
  "mediantime": 1517266391,
  "nonce": 3290043398,
  "bits": "1a042eae",
  "difficulty": 4011378.762614286,
  "chainwork": "000000000000000000000000000000000000000000000033e321dd4fad87ea22",
  "previousblockhash": "1110807fcb60283fd5ab9ff8281aa3b3861030356dc1bbeaf6aed7aa730456fa",
  "nextblockhash": "0326130134c361ad6bdbdadfa171cd2178b586102a3807cfcc6a97e44784af5e"
}
