{
  "hash": "f2baa0c650d6a8bb83dcce157063db9886cd6a3a5f0d9fffda36a3ab918270ab",
  "confirmations": 1210,
  "strippedsize": 1499,
  "size": 1535,
  "weight": 6032,
  "height": 1359784,
  "version": 536870912,
  "versionHex": "20000000",
  "merkleroot": "60367dda3ae215df94995feee73bb9be3eccc405855d537d6d66a0e5e2d9f998",
  "tx": [
    {
      "txid": "b4e16f473ca707ef652bcf1549ef0a5179f0219843d42d03c43c7ec7865fa720",
      "hash": "deb30e4b9d9e1aa0234bbe258a46ada06ac784a86111bd21e10e98c5cdaa6694",
      "version": 1,
      "size": 260,
      "vsize": 233,
      "locktime": 0,
      "vin": [
        {
          "coinbase": "03a8bf14192f5669614254432f4d696e6564206279206d797a313233342f2cfabe6d6d3811deb6ed141725e8c0910b537562f6239ecd51b3f61402bb8978ab51752ed7010000000000000010be7e72003f8cd1c090006d3a04000000",
          "sequence": 4294967295
        }
      ],
      "vout": [
        {
          "value": 25.00120000,
          "n": 0,
          "scriptPubKey": {
            "asm": "OP_DUP OP_HASH160 e16c28146ed4869c190b3f0bdc18d80d45f92134 OP_EQUALVERIFY OP_CHECKSIG",
            "hex": "76a914e16c28146ed4869c190b3f0bdc18d80d45f9213488ac",
            "reqSigs": 1,
            "type": "pubkeyhash",
            "addresses": [
              "LfmssDyX6iZvbVqHv6t9P6JWXia2JG7mdb"
            ]
          }
        }, 
        {
          "value": 0.00000000,
          "n": 1,
          "scriptPubKey": {
            "asm": "OP_RETURN aa21a9ed3e07a1f904a0db519b65266e828f497476bcbed667549ce361f2af79d6af5cf7",
            "hex": "6a24aa21a9ed3e07a1f904a0db519b65266e828f497476bcbed667549ce361f2af79d6af5cf7",
            "type": "nulldata"
          }
        }
      ],
      "hex": "010000000001010000000000000000000000000000000000000000000000000000000000000000ffffffff5c03a8bf14192f5669614254432f4d696e6564206279206d797a313233342f2cfabe6d6d3811deb6ed141725e8c0910b537562f6239ecd51b3f61402bb8978ab51752ed7010000000000000010be7e72003f8cd1c090006d3a04000000ffffffff02c0cd0495000000001976a914e16c28146ed4869c190b3f0bdc18d80d45f9213488ac0000000000000000266a24aa21a9ed3e07a1f904a0db519b65266e828f497476bcbed667549ce361f2af79d6af5cf70120000000000000000000000000000000000000000000000000000000000000000000000000"
    }, 
    {
      "txid": "227bd8d0acc541f6742a699259c3cfef4b9f714cf1f47352a1b204d6f42f43c6",
      "hash": "227bd8d0acc541f6742a699259c3cfef4b9f714cf1f47352a1b204d6f42f43c6",
      "version": 2,
      "size": 519,
      "vsize": 519,
      "locktime": 1359782,
      "vin": [
        {
          "txid": "e6466f862f3762908840e9b54a37415579ca617c11c1360d45805123a77f6305",
          "vout": 1,
          "scriptSig": {
            "asm": "304402200d4fac107a4623274ff88f4d7c438db811732bf87af0110ebced9f9f584371cf02206cd974d7f80a507facb6c71b0238284bb68143336a556ae30bdb18120d0ef216[ALL] 026412691b97de2973a98e5963d9963b20c5664decf60dbf0369ebb73f9e44684d",
            "hex": "47304402200d4fac107a4623274ff88f4d7c438db811732bf87af0110ebced9f9f584371cf02206cd974d7f80a507facb6c71b0238284bb68143336a556ae30bdb18120d0ef2160121026412691b97de2973a98e5963d9963b20c5664decf60dbf0369ebb73f9e44684d"
          },
          "sequence": 4294967294
        }, 
        {
          "txid": "2a064ece0f6c4f77bd82a2af98439494896c2eb3a5a0c1157b2199c49bbf28c7",
          "vout": 0,
          "scriptSig": {
            "asm": "304402205132167b351a3588ea9e2c968c5ea5c63d3d32ef5471f524ac841415685372aa0220485aa533f2ffc71d160adf6839e4f85210593326bcaf1152503c0ecb422d3384[ALL] 031559ff03e9cb807f8e7e950f6ef64c3b37deb597a8f7ab39533ea6588fdc3473",
            "hex": "47304402205132167b351a3588ea9e2c968c5ea5c63d3d32ef5471f524ac841415685372aa0220485aa533f2ffc71d160adf6839e4f85210593326bcaf1152503c0ecb422d33840121031559ff03e9cb807f8e7e950f6ef64c3b37deb597a8f7ab39533ea6588fdc3473"
          },
          "sequence": 4294967294
        }, 
        {
          "txid": "a4feefc78a468a496bd47fc7f4d611abf9e66af6b4c1b5d652ae5d84ae80bca8",
          "vout": 1,
          "scriptSig": {
            "asm": "3044022020a6b3fc2841cd426285b6d7c9213c1590bb237e914a7c00251da3e3b5cf952802205d89a60108989997e737ae1964020f8c27eca211c65443ec2d954ff4ca42cb05[ALL] 022ded3b010c7514219a446a33be23cb315ddab2c2710793094a71355ac6980078",
            "hex": "473044022020a6b3fc2841cd426285b6d7c9213c1590bb237e914a7c00251da3e3b5cf952802205d89a60108989997e737ae1964020f8c27eca211c65443ec2d954ff4ca42cb050121022ded3b010c7514219a446a33be23cb315ddab2c2710793094a71355ac6980078"
          },
          "sequence": 4294967294
        }
      ],
      "vout": [
        {
          "value": 0.01053271,
          "n": 0,
          "scriptPubKey": {
            "asm": "OP_DUP OP_HASH160 662b09d1e4c1ef7e5482b47f0505b502f62afc4f OP_EQUALVERIFY OP_CHECKSIG",
            "hex": "76a914662b09d1e4c1ef7e5482b47f0505b502f62afc4f88ac",
            "reqSigs": 1,
            "type": "pubkeyhash",
            "addresses": [
              "LUYAk8vCnwkKHKK7tswKjA5t7tRvBKxLsN"
            ]
          }
        }, 
        {
          "value": 3.58511269,
          "n": 1,
          "scriptPubKey": {
            "asm": "OP_DUP OP_HASH160 945039d5c7cd8aafcfdc9549e8aed1d4df20fd1e OP_EQUALVERIFY OP_CHECKSIG",
            "hex": "76a914945039d5c7cd8aafcfdc9549e8aed1d4df20fd1e88ac",
            "reqSigs": 1,
            "type": "pubkeyhash",
            "addresses": [
              "LYkANoGCp6jh7r3Grv6PKkUGSAoqpjN1wE"
            ]
          }
        }
      ],
      "hex": "020000000305637fa7235180450d36c1117c61ca795541374ab5e940889062372f866f46e6010000006a47304402200d4fac107a4623274ff88f4d7c438db811732bf87af0110ebced9f9f584371cf02206cd974d7f80a507facb6c71b0238284bb68143336a556ae30bdb18120d0ef2160121026412691b97de2973a98e5963d9963b20c5664decf60dbf0369ebb73f9e44684dfeffffffc728bf9bc499217b15c1a0a5b32e6c8994944398afa282bd774f6c0fce4e062a000000006a47304402205132167b351a3588ea9e2c968c5ea5c63d3d32ef5471f524ac841415685372aa0220485aa533f2ffc71d160adf6839e4f85210593326bcaf1152503c0ecb422d33840121031559ff03e9cb807f8e7e950f6ef64c3b37deb597a8f7ab39533ea6588fdc3473feffffffa8bc80ae845dae52d6b5c1b4f66ae6f9ab11d6f4c77fd46b498a468ac7effea4010000006a473044022020a6b3fc2841cd426285b6d7c9213c1590bb237e914a7c00251da3e3b5cf952802205d89a60108989997e737ae1964020f8c27eca211c65443ec2d954ff4ca42cb050121022ded3b010c7514219a446a33be23cb315ddab2c2710793094a71355ac6980078feffffff0257121000000000001976a914662b09d1e4c1ef7e5482b47f0505b502f62afc4f88aca5725e15000000001976a914945039d5c7cd8aafcfdc9549e8aed1d4df20fd1e88aca6bf1400"
    }, 
    {
      "txid": "1b297023480263d24bf61cc9b009896daa53e8b7b653a0cbb03d2e417f7afc34",
      "hash": "1b297023480263d24bf61cc9b009896daa53e8b7b653a0cbb03d2e417f7afc34",
      "version": 2,
      "size": 225,
      "vsize": 225,
      "locktime": 1359782,
      "vin": [
        {
          "txid": "8d7ab411798e7a9214d8e2bdb7dc2201f6eeb0617d06152995ff8a4a3d9b002f",
          "vout": 0,
          "scriptSig": {
            "asm": "304402205f0512d355dfa3c886e3aebbe57aee038405c078b27884c233da846bafb9876702207405edda7b87fbe45da9bee1361b0c30d74902157edb658439cc6790d330f721[ALL] 02648d946bdda581cf9102d9ee5643ac5c6e16886d2d67bea8a1acd3d7baa80d6f",
            "hex": "47304402205f0512d355dfa3c886e3aebbe57aee038405c078b27884c233da846bafb9876702207405edda7b87fbe45da9bee1361b0c30d74902157edb658439cc6790d330f721012102648d946bdda581cf9102d9ee5643ac5c6e16886d2d67bea8a1acd3d7baa80d6f"
          },
          "sequence": 4294967294
        }
      ],
      "vout": [
        {
          "value": 1.63688094,
          "n": 0,
          "scriptPubKey": {
            "asm": "OP_DUP OP_HASH160 2d19401da0b32283be3d0ad72ab9b507a4513467 OP_EQUALVERIFY OP_CHECKSIG",
            "hex": "76a9142d19401da0b32283be3d0ad72ab9b507a451346788ac",
            "reqSigs": 1,
            "type": "pubkeyhash",
            "addresses": [
              "LPLQvH3w1BVA3GCbTbFeaKZvgFMtFKdumP"
            ]
          }
        }, 
        {
          "value": 0.40131970,
          "n": 1,
          "scriptPubKey": {
            "asm": "OP_DUP OP_HASH160 6d3a140d3985caae52a29edf272d5c0386fd7ada OP_EQUALVERIFY OP_CHECKSIG",
            "hex": "76a9146d3a140d3985caae52a29edf272d5c0386fd7ada88ac",
            "reqSigs": 1,
            "type": "pubkeyhash",
            "addresses": [
              "LVBVVUXZbpP195eLJMGqN6by5CGXaGKi6d"
            ]
          }
        }
      ],
      "hex": "02000000012f009b3d4a8aff952915067d61b0eef60122dcb7bde2d814927a8e7911b47a8d000000006a47304402205f0512d355dfa3c886e3aebbe57aee038405c078b27884c233da846bafb9876702207405edda7b87fbe45da9bee1361b0c30d74902157edb658439cc6790d330f721012102648d946bdda581cf9102d9ee5643ac5c6e16886d2d67bea8a1acd3d7baa80d6ffeffffff029eaec109000000001976a9142d19401da0b32283be3d0ad72ab9b507a451346788ac825d6402000000001976a9146d3a140d3985caae52a29edf272d5c0386fd7ada88aca6bf1400"
    }, 
    {
      "txid": "ca4ae04c1feefb1524a839d158c51da6e2a2fa39d0f457f043eddcd1693e513f",
      "hash": "ca4ae04c1feefb1524a839d158c51da6e2a2fa39d0f457f043eddcd1693e513f",
      "version": 1,
      "size": 225,
      "vsize": 225,
      "locktime": 0,
      "vin": [
        {
          "txid": "eca4b2b8f87578dad1a13c89defbf0b6438e7368b1327689fd07589da5250cd1",
          "vout": 1,
          "scriptSig": {
            "asm": "304402206aff0e13496acd556cdb113a369a3250650982d433b9a5d33340c186f915f8d1022041bcd28c52b97128d8746ab4b231b566a10585f9989b4887605c93958a63bc0c[ALL] 033d918a1bb7fef70402a65a16d6392b4413667daf5ef66a13302dd3ce5b978afa",
            "hex": "47304402206aff0e13496acd556cdb113a369a3250650982d433b9a5d33340c186f915f8d1022041bcd28c52b97128d8746ab4b231b566a10585f9989b4887605c93958a63bc0c0121033d918a1bb7fef70402a65a16d6392b4413667daf5ef66a13302dd3ce5b978afa"
          },
          "sequence": 4294967295
        }
      ],
      "vout": [
        {
          "value": 9.24208791,
          "n": 0,
          "scriptPubKey": {
            "asm": "OP_DUP OP_HASH160 a75fa71845e9eeb3646cd0cd77212d2df37faee9 OP_EQUALVERIFY OP_CHECKSIG",
            "hex": "76a914a75fa71845e9eeb3646cd0cd77212d2df37faee988ac",
            "reqSigs": 1,
            "type": "pubkeyhash",
            "addresses": [
              "LaUwhKGYxDo6BYExv2RSd8coHrY7sSBzrF"
            ]
          }
        }, 
        {
          "value": 1.20159609,
          "n": 1,
          "scriptPubKey": {
            "asm": "OP_DUP OP_HASH160 9065252325e834e9505b4427d68f212f6ec4f2d4 OP_EQUALVERIFY OP_CHECKSIG",
            "hex": "76a9149065252325e834e9505b4427d68f212f6ec4f2d488ac",
            "reqSigs": 1,
            "type": "pubkeyhash",
            "addresses": [
              "LYPSjX4UgCLpdEeTJdCc2HLD4wS4FAa426"
            ]
          }
        }
      ],
      "hex": "0100000001d10c25a59d5807fd897632b168738e43b6f0fbde893ca1d1da7875f8b8b2a4ec010000006a47304402206aff0e13496acd556cdb113a369a3250650982d433b9a5d33340c186f915f8d1022041bcd28c52b97128d8746ab4b231b566a10585f9989b4887605c93958a63bc0c0121033d918a1bb7fef70402a65a16d6392b4413667daf5ef66a13302dd3ce5b978afaffffffff02974e1637000000001976a914a75fa71845e9eeb3646cd0cd77212d2df37faee988ac797d2907000000001976a9149065252325e834e9505b4427d68f212f6ec4f2d488ac00000000"
    }, 
    {
      "txid": "edee7dd0a7be94885de343f49e506f30b9e774268e23e8b33e63079201b22b89",
      "hash": "edee7dd0a7be94885de343f49e506f30b9e774268e23e8b33e63079201b22b89",
      "version": 1,
      "size": 225,
      "vsize": 225,
      "locktime": 0,
      "vin": [
        {
          "txid": "74d9f4e674c5b53b9247aca942643774906d7dbaac8b11adce7e4020e1bc4efd",
          "vout": 6,
          "scriptSig": {
            "asm": "3044022065c34b7145844af5570fdf088c9776caeeb20721970918372060e83ebb0dad6b0220102a563c9bf4cfab20aadbf27e2cb7aba52e6225fb2a8ef221f1e5acb0ff4d27[ALL] 02324095cda8f4fbd88b7db1a96d0a5465237c9a585122f5945916cd4d5af833b2",
            "hex": "473044022065c34b7145844af5570fdf088c9776caeeb20721970918372060e83ebb0dad6b0220102a563c9bf4cfab20aadbf27e2cb7aba52e6225fb2a8ef221f1e5acb0ff4d27012102324095cda8f4fbd88b7db1a96d0a5465237c9a585122f5945916cd4d5af833b2"
          },
          "sequence": 4294967295
        }
      ],
      "vout": [
        {
          "value": 4.52503795,
          "n": 0,
          "scriptPubKey": {
            "asm": "OP_DUP OP_HASH160 cc22ce9517fb9a4029d5ddcf13009464c7b1d145 OP_EQUALVERIFY OP_CHECKSIG",
            "hex": "76a914cc22ce9517fb9a4029d5ddcf13009464c7b1d14588ac",
            "reqSigs": 1,
            "type": "pubkeyhash",
            "addresses": [
              "LdqKomzdsJCjvgfLD38G3sfgSkickzuAZV"
            ]
          }
        }, 
        {
          "value": 3.36668290,
          "n": 1,
          "scriptPubKey": {
            "asm": "OP_DUP OP_HASH160 cbb6c289dee82a4ccd25d8c6b685ab86836c52a7 OP_EQUALVERIFY OP_CHECKSIG",
            "hex": "76a914cbb6c289dee82a4ccd25d8c6b685ab86836c52a788ac",
            "reqSigs": 1,
            "type": "pubkeyhash",
            "addresses": [
              "Ldo6NY3z3LbL2ZQu4DXXmRXA1cy6kcr54V"
            ]
          }
        }
      ],
      "hex": "0100000001fd4ebce120407ecead118bacba7d6d9074376442a9ac47923bb5c574e6f4d974060000006a473044022065c34b7145844af5570fdf088c9776caeeb20721970918372060e83ebb0dad6b0220102a563c9bf4cfab20aadbf27e2cb7aba52e6225fb2a8ef221f1e5acb0ff4d27012102324095cda8f4fbd88b7db1a96d0a5465237c9a585122f5945916cd4d5af833b2ffffffff02f3a8f81a000000001976a914cc22ce9517fb9a4029d5ddcf13009464c7b1d14588ac82261114000000001976a914cbb6c289dee82a4ccd25d8c6b685ab86836c52a788ac00000000"
    }
  ],
  "time": 1517331667,
  "mediantime": 1517331064,
  "nonce": 3193894348,
  "bits": "1a042eae",
  "difficulty": 4011378.762614286,
  "chainwork": "00000000000000000000000000000000000000000000003453fcd9c29e3071d2",
  "previousblockhash": "11c3db32591fb87ad29d3ac2e266aaa6782403a51e6e8b8182e60ecfbb304684",
  "nextblockhash": "24881c60f1e8e73c2826f5d97fccbbe825c8dc49ae38d50e69c86e786cb7c676"
}
