{
  "hash": "f326bf460e9a3a67ebd0611b0b03a514357870256681f51f2502b6fc241a77c4",
  "confirmations": 2373,
  "strippedsize": 234,
  "size": 234,
  "weight": 936,
  "height": 1358622,
  "version": 536870912,
  "versionHex": "20000000",
  "merkleroot": "f762b87e2ba21e0a4527fa7bc6e770887a61f9ffd06519de22fd826bf65aeef7",
  "tx": [
    {
      "txid": "f762b87e2ba21e0a4527fa7bc6e770887a61f9ffd06519de22fd826bf65aeef7",
      "hash": "f762b87e2ba21e0a4527fa7bc6e770887a61f9ffd06519de22fd826bf65aeef7",
      "version": 1,
      "size": 153,
      "vsize": 153,
      "locktime": 0,
      "vin": [
        {
          "coinbase": "031ebb14045a6e25202cfabe6d6dca4229842d3c9826b0b150c67b3ac72ea99b9f8ce5ffa20172ecca1e320c68a14000000000000000042f4c502f08220013a81d000000",
          "sequence": 4294967295
        }
      ],
      "vout": [
        {
          "value": 25.00000000,
          "n": 0,
          "scriptPubKey": {
            "asm": "OP_DUP OP_HASH160 57757ed2ecf2052ff3126c397aca7defb9ca2cec OP_EQUALVERIFY OP_CHECKSIG",
            "hex": "76a91457757ed2ecf2052ff3126c397aca7defb9ca2cec88ac",
            "reqSigs": 1,
            "type": "pubkeyhash",
            "addresses": [
              "LTCPodGk5FwcJaRzH9yKnwicxzFUbxp6tN"
            ]
          }
        }
      ],
      "hex": "01000000010000000000000000000000000000000000000000000000000000000000000000ffffffff44031ebb14045a6e25202cfabe6d6dca4229842d3c9826b0b150c67b3ac72ea99b9f8ce5ffa20172ecca1e320c68a14000000000000000042f4c502f08220013a81d000000ffffffff0100f90295000000001976a91457757ed2ecf2052ff3126c397aca7defb9ca2cec88ac00000000"
    }
  ],
  "time": 1517167904,
  "mediantime": 1517166542,
  "nonce": 3514521527,
  "bits": "1a047f14",
  "difficulty": 3731199.183374282,
  "chainwork": "00000000000000000000000000000000000000000000003340d77a6358605826",
  "previousblockhash": "b9d8b106dbb69dbf1f2c5d2222d17771cdeb317acda053e24865712ab1cbb9d0",
  "nextblockhash": "566b2c717efe8a2af5b5c6e0d6f45d3e92e5d54a3991b74b5dbf43c9818de0e5"
}
