{
  "hash": "f34044bf133f8f643c6877902febd1ffc72920cac8eb66b6905781a71b744da1",
  "confirmations": 3335,
  "strippedsize": 3964,
  "size": 4000,
  "weight": 15892,
  "height": 1357660,
  "version": 536870912,
  "versionHex": "20000000",
  "merkleroot": "a9e4ea7bc0e3027f84a647076e88abaaaeda03ea31315ebffa8679b895e204e6",
  "tx": [
    {
      "txid": "01e6b8e0c094ab6ac2ede1c51c9e6210876bd468af4d2bb52e8f5af9e1d50b5f",
      "hash": "e979f64c235c71a9f8afc8c0b9857ff9ce4ff77691cd8e4c35c998c8d83c4ccd",
      "version": 1,
      "size": 243,
      "vsize": 216,
      "locktime": 0,
      "vin": [
        {
          "coinbase": "035cb714041b116c5afabe6d6d390e00a1e494dac5af66f000ed64a3517ba3a294a8d872fce049b502f103ebc7100000000000000008e00003905e0000000c2f375a31344c30395831582f",
          "sequence": 0
        }
      ],
      "vout": [
        {
          "value": 25.00368761,
          "n": 0,
          "scriptPubKey": {
            "asm": "OP_DUP OP_HASH160 81308472f5a29a68cec40cbb4cd3f4be72094456 OP_EQUALVERIFY OP_CHECKSIG",
            "hex": "76a91481308472f5a29a68cec40cbb4cd3f4be7209445688ac",
            "reqSigs": 1,
            "type": "pubkeyhash",
            "addresses": [
              "LX13Z1HZKVzRDabi8CsPdGhp7YbC7Q8qtn"
            ]
          }
        }, 
        {
          "value": 0.00000000,
          "n": 1,
          "scriptPubKey": {
            "asm": "OP_RETURN aa21a9edb5245d19a1d1f63f89c8ef9d510674f6118e00571c396b212a82056e79a34efd",
            "hex": "6a24aa21a9edb5245d19a1d1f63f89c8ef9d510674f6118e00571c396b212a82056e79a34efd",
            "type": "nulldata"
          }
        }
      ],
      "hex": "010000000001010000000000000000000000000000000000000000000000000000000000000000ffffffff4b035cb714041b116c5afabe6d6d390e00a1e494dac5af66f000ed64a3517ba3a294a8d872fce049b502f103ebc7100000000000000008e00003905e0000000c2f375a31344c30395831582f000000000279990895000000001976a91481308472f5a29a68cec40cbb4cd3f4be7209445688ac0000000000000000266a24aa21a9edb5245d19a1d1f63f89c8ef9d510674f6118e00571c396b212a82056e79a34efd0120000000000000000000000000000000000000000000000000000000000000000000000000"
    }, 
    {
      "txid": "b372ac2765618fc2c08654a5c6bacbe59da56555769bec2a6b3d8de23e62e634",
      "hash": "b372ac2765618fc2c08654a5c6bacbe59da56555769bec2a6b3d8de23e62e634",
      "version": 2,
      "size": 223,
      "vsize": 223,
      "locktime": 1357658,
      "vin": [
        {
          "txid": "57d65c2d60783fc40d1ea633ea7f2396dabe18bcb1918346fbaa1b3517354725",
          "vout": 4,
          "scriptSig": {
            "asm": "304402201934336cd7377d1db4c463480a72db7ba917f4f66d7770c578ee1310ca1745fc0220506db453a16d526daf8cbd377008ca22c1e0f14aced49004d98523a7c367df55[ALL] 0223273a88af54ca947437f73440bdf6e5d7c293e7b37364646d85fcd26ba82561",
            "hex": "47304402201934336cd7377d1db4c463480a72db7ba917f4f66d7770c578ee1310ca1745fc0220506db453a16d526daf8cbd377008ca22c1e0f14aced49004d98523a7c367df5501210223273a88af54ca947437f73440bdf6e5d7c293e7b37364646d85fcd26ba82561"
          },
          "sequence": 4294967294
        }
      ],
      "vout": [
        {
          "value": 0.04326444,
          "n": 0,
          "scriptPubKey": {
            "asm": "OP_DUP OP_HASH160 a409c50928929a147c794940353245938c42b4ba OP_EQUALVERIFY OP_CHECKSIG",
            "hex": "76a914a409c50928929a147c794940353245938c42b4ba88ac",
            "reqSigs": 1,
            "type": "pubkeyhash",
            "addresses": [
              "LaBJnUuB3gmCwnwcctWwgGbrbFkStyYPzA"
            ]
          }
        }, 
        {
          "value": 16.95551099,
          "n": 1,
          "scriptPubKey": {
            "asm": "OP_HASH160 dcaade5f411bd8f2e10b33679243b4e3907ed1d6 OP_EQUAL",
            "hex": "a914dcaade5f411bd8f2e10b33679243b4e3907ed1d687",
            "reqSigs": 1,
            "type": "scripthash",
            "addresses": [
              "MU1wao1uBungobaP2RY3oFuCsz7tDK3wm6"
            ]
          }
        }
      ],
      "hex": "020000000125473517351baafb468391b1bc18beda96237fea33a61e0dc43f78602d5cd657040000006a47304402201934336cd7377d1db4c463480a72db7ba917f4f66d7770c578ee1310ca1745fc0220506db453a16d526daf8cbd377008ca22c1e0f14aced49004d98523a7c367df5501210223273a88af54ca947437f73440bdf6e5d7c293e7b37364646d85fcd26ba82561feffffff022c044200000000001976a914a409c50928929a147c794940353245938c42b4ba88ac7b0e10650000000017a914dcaade5f411bd8f2e10b33679243b4e3907ed1d6875ab71400"
    }, 
    {
      "txid": "394f360ca7eb880f122fa5b3d3fc7a1f2c0940a278d08a6c0b0984bd8d29745d",
      "hash": "394f360ca7eb880f122fa5b3d3fc7a1f2c0940a278d08a6c0b0984bd8d29745d",
      "version": 2,
      "size": 373,
      "vsize": 373,
      "locktime": 1357653,
      "vin": [
        {
          "txid": "dbc60fcd3f81f087a79e973720ab6770f1e150af011ef342e4fc9e0a6213606a",
          "vout": 0,
          "scriptSig": {
            "asm": "304402202e66267e89ba0c4f773bbb2a0a2df23c6f8ee1f5145d0513c63752c8f784dc840220337dc9360f46e750c421321ad0255593b5b91bd6b35e6d228d5780015ad6975f[ALL] 02407fad870bcbbedb7a32e705146de6f00cac829848f464472b099c80638b7dce",
            "hex": "47304402202e66267e89ba0c4f773bbb2a0a2df23c6f8ee1f5145d0513c63752c8f784dc840220337dc9360f46e750c421321ad0255593b5b91bd6b35e6d228d5780015ad6975f012102407fad870bcbbedb7a32e705146de6f00cac829848f464472b099c80638b7dce"
          },
          "sequence": 4294967294
        }, 
        {
          "txid": "4e3b67a42205e1acf457dec62c0ee5ac460d6794a6b805fcebccc3eb6f4c118a",
          "vout": 0,
          "scriptSig": {
            "asm": "3045022100c01cbd4ce8473343b4b0daaba4399728102a47610e58bf36fb85157a9fe4d5eb02201de6f147c1a2854585afaf006ad0f57a4d885528303d2eb2a429f7624032dfe1[ALL] 037a130dd4e520a3de09db22a65edf269f59321739dcaef36eee0c169af783d469",
            "hex": "483045022100c01cbd4ce8473343b4b0daaba4399728102a47610e58bf36fb85157a9fe4d5eb02201de6f147c1a2854585afaf006ad0f57a4d885528303d2eb2a429f7624032dfe10121037a130dd4e520a3de09db22a65edf269f59321739dcaef36eee0c169af783d469"
          },
          "sequence": 4294967294
        }
      ],
      "vout": [
        {
          "value": 0.18560450,
          "n": 0,
          "scriptPubKey": {
            "asm": "OP_DUP OP_HASH160 9b37ab847fb450c22664203aa03ce5751af68c49 OP_EQUALVERIFY OP_CHECKSIG",
            "hex": "76a9149b37ab847fb450c22664203aa03ce5751af68c4988ac",
            "reqSigs": 1,
            "type": "pubkeyhash",
            "addresses": [
              "LZNfgxx8WLHx4QeXD9rXU4cdhjJZ1HcwgL"
            ]
          }
        }, 
        {
          "value": 0.09646411,
          "n": 1,
          "scriptPubKey": {
            "asm": "OP_DUP OP_HASH160 77f36f168571bb08397b722524ef0c730ae01c95 OP_EQUALVERIFY OP_CHECKSIG",
            "hex": "76a91477f36f168571bb08397b722524ef0c730ae01c9588ac",
            "reqSigs": 1,
            "type": "pubkeyhash",
            "addresses": [
              "LWACJ8Lak7cuwKs1qYrSv5seyPdVjrDYMs"
            ]
          }
        }
      ],
      "hex": "02000000026a6013620a9efce442f31e01af50e1f17067ab2037979ea787f0813fcd0fc6db000000006a47304402202e66267e89ba0c4f773bbb2a0a2df23c6f8ee1f5145d0513c63752c8f784dc840220337dc9360f46e750c421321ad0255593b5b91bd6b35e6d228d5780015ad6975f012102407fad870bcbbedb7a32e705146de6f00cac829848f464472b099c80638b7dcefeffffff8a114c6febc3ccebfc05b8a694670d46ace50e2cc6de57f4ace10522a4673b4e000000006b483045022100c01cbd4ce8473343b4b0daaba4399728102a47610e58bf36fb85157a9fe4d5eb02201de6f147c1a2854585afaf006ad0f57a4d885528303d2eb2a429f7624032dfe10121037a130dd4e520a3de09db22a65edf269f59321739dcaef36eee0c169af783d469feffffff02c2351b01000000001976a9149b37ab847fb450c22664203aa03ce5751af68c4988ac4b319300000000001976a91477f36f168571bb08397b722524ef0c730ae01c9588ac55b71400"
    }, 
    {
      "txid": "c025803683edef6ed57752f06bd767c4d8afc7998780c228ca54da08f6bd3b14",
      "hash": "c025803683edef6ed57752f06bd767c4d8afc7998780c228ca54da08f6bd3b14",
      "version": 1,
      "size": 225,
      "vsize": 225,
      "locktime": 0,
      "vin": [
        {
          "txid": "02f84dadb6eb8d9c3649c96020635244570f815dde681f61a4d6024ed13c4ee7",
          "vout": 1,
          "scriptSig": {
            "asm": "30440220645855cc4493f8a754d91919d2c62df0b0151fedf9fa7013c7c39e4f79126ab802203e3162376aa6878d73723794936689d81d27fbe6033fa138387ba716e3247c33[ALL] 02db5609ceff3a0d5b10988a90c2af1354d6d2f9b235e6ecd085478e9b10fc1ebb",
            "hex": "4730440220645855cc4493f8a754d91919d2c62df0b0151fedf9fa7013c7c39e4f79126ab802203e3162376aa6878d73723794936689d81d27fbe6033fa138387ba716e3247c33012102db5609ceff3a0d5b10988a90c2af1354d6d2f9b235e6ecd085478e9b10fc1ebb"
          },
          "sequence": 4294967295
        }
      ],
      "vout": [
        {
          "value": 8.53500000,
          "n": 0,
          "scriptPubKey": {
            "asm": "OP_DUP OP_HASH160 9ce744c1b9df5673b980b8b3b9923fbfda4bb84a OP_EQUALVERIFY OP_CHECKSIG",
            "hex": "76a9149ce744c1b9df5673b980b8b3b9923fbfda4bb84a88ac",
            "reqSigs": 1,
            "type": "pubkeyhash",
            "addresses": [
              "LZXaixhygLpr3LrexmNEeNoX8Skj8qimKS"
            ]
          }
        }, 
        {
          "value": 0.78838402,
          "n": 1,
          "scriptPubKey": {
            "asm": "OP_DUP OP_HASH160 a9a9e21386e660ad70a074d218a03d84b09a6cfb OP_EQUALVERIFY OP_CHECKSIG",
            "hex": "76a914a9a9e21386e660ad70a074d218a03d84b09a6cfb88ac",
            "reqSigs": 1,
            "type": "pubkeyhash",
            "addresses": [
              "Lah3yKPLUu3fUJV1PZfgarrA8giUsUiVad"
            ]
          }
        }
      ],
      "hex": "0100000001e74e3cd14e02d6a4611f68de5d810f574452632060c949369c8debb6ad4df802010000006a4730440220645855cc4493f8a754d91919d2c62df0b0151fedf9fa7013c7c39e4f79126ab802203e3162376aa6878d73723794936689d81d27fbe6033fa138387ba716e3247c33012102db5609ceff3a0d5b10988a90c2af1354d6d2f9b235e6ecd085478e9b10fc1ebbffffffff026060df32000000001976a9149ce744c1b9df5673b980b8b3b9923fbfda4bb84a88ac82fab204000000001976a914a9a9e21386e660ad70a074d218a03d84b09a6cfb88ac00000000"
    }, 
    {
      "txid": "974c3cba9d301a1f2487fc9d1c3a1a6c36e2fe9b91d6c9d5792934a281d67116",
      "hash": "974c3cba9d301a1f2487fc9d1c3a1a6c36e2fe9b91d6c9d5792934a281d67116",
      "version": 1,
      "size": 225,
      "vsize": 225,
      "locktime": 0,
      "vin": [
        {
          "txid": "c2c6f5e01a63a8320760198a51e5fe10228f23df95710004e3fa285e5488b1a3",
          "vout": 1,
          "scriptSig": {
            "asm": "30440220412474b395e8fca55c7bd0c201e2b79eb34871521a912781c842ad945731c2d702203815883cc7c7c46afd6afcab9983d69e0d064fa301652b6716234db263b14009[ALL] 033b4415da3371dfcb818bcb61b168cda367fc9e6413ddd98a09e5996be39410fc",
            "hex": "4730440220412474b395e8fca55c7bd0c201e2b79eb34871521a912781c842ad945731c2d702203815883cc7c7c46afd6afcab9983d69e0d064fa301652b6716234db263b140090121033b4415da3371dfcb818bcb61b168cda367fc9e6413ddd98a09e5996be39410fc"
          },
          "sequence": 4294967295
        }
      ],
      "vout": [
        {
          "value": 0.09713599,
          "n": 0,
          "scriptPubKey": {
            "asm": "OP_DUP OP_HASH160 29b67f2c3daed3fa31bbd1db6d11a7bc3aff985e OP_EQUALVERIFY OP_CHECKSIG",
            "hex": "76a91429b67f2c3daed3fa31bbd1db6d11a7bc3aff985e88ac",
            "reqSigs": 1,
            "type": "pubkeyhash",
            "addresses": [
              "LP2WbB9pzWzxQ1XW3vaxAhq5TSEJ2BfBEA"
            ]
          }
        }, 
        {
          "value": 0.99977400,
          "n": 1,
          "scriptPubKey": {
            "asm": "OP_DUP OP_HASH160 5c588988af92e056c3217af8b5048096697e9ab5 OP_EQUALVERIFY OP_CHECKSIG",
            "hex": "76a9145c588988af92e056c3217af8b5048096697e9ab588ac",
            "reqSigs": 1,
            "type": "pubkeyhash",
            "addresses": [
              "LTeEVY68pDjUcRcidomHnakLdVsHCYJZsV"
            ]
          }
        }
      ],
      "hex": "0100000001a3b188545e28fae304007195df238f2210fee5518a19600732a8631ae0f5c6c2010000006a4730440220412474b395e8fca55c7bd0c201e2b79eb34871521a912781c842ad945731c2d702203815883cc7c7c46afd6afcab9983d69e0d064fa301652b6716234db263b140090121033b4415da3371dfcb818bcb61b168cda367fc9e6413ddd98a09e5996be39410fcffffffff02bf379400000000001976a91429b67f2c3daed3fa31bbd1db6d11a7bc3aff985e88acb888f505000000001976a9145c588988af92e056c3217af8b5048096697e9ab588ac00000000"
    }, 
    {
      "txid": "3d56ec6c37c930d9a9d676685e0580df174fabba8735c0126a32714e00ab1821",
      "hash": "3d56ec6c37c930d9a9d676685e0580df174fabba8735c0126a32714e00ab1821",
      "version": 1,
      "size": 225,
      "vsize": 225,
      "locktime": 0,
      "vin": [
        {
          "txid": "dcb27d95f63784476e07362e814b1bd27da1b99212468dac84e3c56b63a77401",
          "vout": 0,
          "scriptSig": {
            "asm": "30440220753e79c5173ae49d210e9575fe78ea9969c8f5a282178bfc26deb1cabd68d14202202bf69d184e58eb90e2aee0aeebb1c5ef82adde842ab20bd74eb3ac5120fa5eeb[ALL] 03963fa824670b22b1bf4b5428b91a0cf0d1d349a52796243015bf87bb07fc9691",
            "hex": "4730440220753e79c5173ae49d210e9575fe78ea9969c8f5a282178bfc26deb1cabd68d14202202bf69d184e58eb90e2aee0aeebb1c5ef82adde842ab20bd74eb3ac5120fa5eeb012103963fa824670b22b1bf4b5428b91a0cf0d1d349a52796243015bf87bb07fc9691"
          },
          "sequence": 4294967295
        }
      ],
      "vout": [
        {
          "value": 0.65995014,
          "n": 0,
          "scriptPubKey": {
            "asm": "OP_DUP OP_HASH160 b0f5d1d89bc503140101491322181d3ec8307a00 OP_EQUALVERIFY OP_CHECKSIG",
            "hex": "76a914b0f5d1d89bc503140101491322181d3ec8307a0088ac",
            "reqSigs": 1,
            "type": "pubkeyhash",
            "addresses": [
              "LbMdfpz98uuZuVaN5pgMChkDTRGFNbtiFZ"
            ]
          }
        }, 
        {
          "value": 0.31982386,
          "n": 1,
          "scriptPubKey": {
            "asm": "OP_DUP OP_HASH160 dfbf6a52eb8d3a79ecbdce0f14655478945766a7 OP_EQUALVERIFY OP_CHECKSIG",
            "hex": "76a914dfbf6a52eb8d3a79ecbdce0f14655478945766a788ac",
            "reqSigs": 1,
            "type": "pubkeyhash",
            "addresses": [
              "Lfd2Fm7NK4X55DgmFH33TkKmTqjkPzR295"
            ]
          }
        }
      ],
      "hex": "01000000010174a7636bc5e384ac8d461292b9a17dd21b4b812e36076e478437f6957db2dc000000006a4730440220753e79c5173ae49d210e9575fe78ea9969c8f5a282178bfc26deb1cabd68d14202202bf69d184e58eb90e2aee0aeebb1c5ef82adde842ab20bd74eb3ac5120fa5eeb012103963fa824670b22b1bf4b5428b91a0cf0d1d349a52796243015bf87bb07fc9691ffffffff020601ef03000000001976a914b0f5d1d89bc503140101491322181d3ec8307a0088ac3203e801000000001976a914dfbf6a52eb8d3a79ecbdce0f14655478945766a788ac00000000"
    }, 
    {
      "txid": "4924083e6a189c9a317fd9e9b19533ca6938ce5a545dfdd02931e5ff0e187669",
      "hash": "4924083e6a189c9a317fd9e9b19533ca6938ce5a545dfdd02931e5ff0e187669",
      "version": 1,
      "size": 225,
      "vsize": 225,
      "locktime": 0,
      "vin": [
        {
          "txid": "b83e978c96b551c93b5c3afa717723f411ffde79e77b82d2d79bfa1502bce724",
          "vout": 1,
          "scriptSig": {
            "asm": "30440220512f0f77561695ebca5ccb52df4e617e8f4482cd5317d0321c419daf8ee4bf960220585203d63646c512cba7fb7d890534db0cd2601412af5fefeb9bf5995e19946e[ALL] 03379009e541ba094177c6c686324b7be551df212d24443b8eb562a628630e69e8",
            "hex": "4730440220512f0f77561695ebca5ccb52df4e617e8f4482cd5317d0321c419daf8ee4bf960220585203d63646c512cba7fb7d890534db0cd2601412af5fefeb9bf5995e19946e012103379009e541ba094177c6c686324b7be551df212d24443b8eb562a628630e69e8"
          },
          "sequence": 4294967295
        }
      ],
      "vout": [
        {
          "value": 0.51000000,
          "n": 0,
          "scriptPubKey": {
            "asm": "OP_DUP OP_HASH160 773067d6af3ab17b96c30cbea6e4e2164e0ec640 OP_EQUALVERIFY OP_CHECKSIG",
            "hex": "76a914773067d6af3ab17b96c30cbea6e4e2164e0ec64088ac",
            "reqSigs": 1,
            "type": "pubkeyhash",
            "addresses": [
              "LW6AfKeHE5k6Exj2CzQMneDXa8ppoihn9j"
            ]
          }
        }, 
        {
          "value": 0.14252423,
          "n": 1,
          "scriptPubKey": {
            "asm": "OP_DUP OP_HASH160 6de88fa9d2d80e45f6de1477797f8a8e56db6b26 OP_EQUALVERIFY OP_CHECKSIG",
            "hex": "76a9146de88fa9d2d80e45f6de1477797f8a8e56db6b2688ac",
            "reqSigs": 1,
            "type": "pubkeyhash",
            "addresses": [
              "LVF6WkrcxGXwvtosuarbZMcBtczhb4jrLr"
            ]
          }
        }
      ],
      "hex": "010000000124e7bc0215fa9bd7d2827be779deff11f4237771fa3a5c3bc951b5968c973eb8010000006a4730440220512f0f77561695ebca5ccb52df4e617e8f4482cd5317d0321c419daf8ee4bf960220585203d63646c512cba7fb7d890534db0cd2601412af5fefeb9bf5995e19946e012103379009e541ba094177c6c686324b7be551df212d24443b8eb562a628630e69e8ffffffff02c0320a03000000001976a914773067d6af3ab17b96c30cbea6e4e2164e0ec64088ac8779d900000000001976a9146de88fa9d2d80e45f6de1477797f8a8e56db6b2688ac00000000"
    }, 
    {
      "txid": "91949c5eb564eb25aa1066b459595a87d4f39feb2e3d52d65df2eae94400a4ad",
      "hash": "91949c5eb564eb25aa1066b459595a87d4f39feb2e3d52d65df2eae94400a4ad",
      "version": 1,
      "size": 225,
      "vsize": 225,
      "locktime": 0,
      "vin": [
        {
          "txid": "7d61b65a3eab537c9ed71e2f92dec82135654b0222b85d0557c356c83ab3a715",
          "vout": 94,
          "scriptSig": {
            "asm": "304402204971d23236dfb235dcc3113a7c8cd9e423a9177bfda92021a7fcfc26321cf2330220507a6ce7520a0626fb0dbed6f24d26884eaaa460ac120c29e20e074a6f80fd39[ALL] 02fe2aca41d1724ef6721c0908fc32a8fceaad7dc4b1dc93fb35217d67a0f10733",
            "hex": "47304402204971d23236dfb235dcc3113a7c8cd9e423a9177bfda92021a7fcfc26321cf2330220507a6ce7520a0626fb0dbed6f24d26884eaaa460ac120c29e20e074a6f80fd39012102fe2aca41d1724ef6721c0908fc32a8fceaad7dc4b1dc93fb35217d67a0f10733"
          },
          "sequence": 4294967295
        }
      ],
      "vout": [
        {
          "value": 0.19620307,
          "n": 0,
          "scriptPubKey": {
            "asm": "OP_DUP OP_HASH160 d8e5b2dbca6a28eac4ebd0d5ab1c77329bebd467 OP_EQUALVERIFY OP_CHECKSIG",
            "hex": "76a914d8e5b2dbca6a28eac4ebd0d5ab1c77329bebd46788ac",
            "reqSigs": 1,
            "type": "pubkeyhash",
            "addresses": [
              "LezoPPfHR2cfhPFXeaUiMkznxRj2as5qBA"
            ]
          }
        }, 
        {
          "value": 0.00361609,
          "n": 1,
          "scriptPubKey": {
            "asm": "OP_DUP OP_HASH160 f1ba5570039aa315703f70395e921e160249e960 OP_EQUALVERIFY OP_CHECKSIG",
            "hex": "76a914f1ba5570039aa315703f70395e921e160249e96088ac",
            "reqSigs": 1,
            "type": "pubkeyhash",
            "addresses": [
              "LhG6L93CZnqTY6iwJvSHxRCAYK69oFpcE6"
            ]
          }
        }
      ],
      "hex": "010000000115a7b33ac856c357055db822024b653521c8de922f1ed79e7c53ab3e5ab6617d5e0000006a47304402204971d23236dfb235dcc3113a7c8cd9e423a9177bfda92021a7fcfc26321cf2330220507a6ce7520a0626fb0dbed6f24d26884eaaa460ac120c29e20e074a6f80fd39012102fe2aca41d1724ef6721c0908fc32a8fceaad7dc4b1dc93fb35217d67a0f10733ffffffff02d3612b01000000001976a914d8e5b2dbca6a28eac4ebd0d5ab1c77329bebd46788ac89840500000000001976a914f1ba5570039aa315703f70395e921e160249e96088ac00000000"
    }, 
    {
      "txid": "5d06c75c42a1ab226a712c186961661e05a4febd599d02ae654bfcb82df93dc8",
      "hash": "5d06c75c42a1ab226a712c186961661e05a4febd599d02ae654bfcb82df93dc8",
      "version": 1,
      "size": 225,
      "vsize": 225,
      "locktime": 0,
      "vin": [
        {
          "txid": "1fd32019cdf2178c1a945efe145947d4b81c94b2df1645bbea614e2aba838212",
          "vout": 0,
          "scriptSig": {
            "asm": "304402201bfe4dd40cacd4a0e5da13d7f16711c8d34583ebbf8949f198eb1523e09cf84d0220198dbe0ad21dbc87fab4b2c2d7ebdf398c06644bb9966680549d2f396ef5f270[ALL] 039d25a6797fee43d890f6c1bfd56aff8b1bfa4f5482f6e7eebdbea7dfa965fb5e",
            "hex": "47304402201bfe4dd40cacd4a0e5da13d7f16711c8d34583ebbf8949f198eb1523e09cf84d0220198dbe0ad21dbc87fab4b2c2d7ebdf398c06644bb9966680549d2f396ef5f2700121039d25a6797fee43d890f6c1bfd56aff8b1bfa4f5482f6e7eebdbea7dfa965fb5e"
          },
          "sequence": 4294967295
        }
      ],
      "vout": [
        {
          "value": 1.15700000,
          "n": 0,
          "scriptPubKey": {
            "asm": "OP_DUP OP_HASH160 cb7966dbcb8fa778985ec7c54be79886038df203 OP_EQUALVERIFY OP_CHECKSIG",
            "hex": "76a914cb7966dbcb8fa778985ec7c54be79886038df20388ac",
            "reqSigs": 1,
            "type": "pubkeyhash",
            "addresses": [
              "LdmpsJHqnwaHAZ6AJ745xDAsRb9LsEch7s"
            ]
          }
        }, 
        {
          "value": 0.49512502,
          "n": 1,
          "scriptPubKey": {
            "asm": "OP_DUP OP_HASH160 449b24046b577a9483720c4ebd2de93623b5da12 OP_EQUALVERIFY OP_CHECKSIG",
            "hex": "76a914449b24046b577a9483720c4ebd2de93623b5da1288ac",
            "reqSigs": 1,
            "type": "pubkeyhash",
            "addresses": [
              "LRUi4d1sqnZNJuLd1JZTmbfkjwLc6i626F"
            ]
          }
        }
      ],
      "hex": "0100000001128283ba2a4e61eabb4516dfb2941cb8d4475914fe5e941a8c17f2cd1920d31f000000006a47304402201bfe4dd40cacd4a0e5da13d7f16711c8d34583ebbf8949f198eb1523e09cf84d0220198dbe0ad21dbc87fab4b2c2d7ebdf398c06644bb9966680549d2f396ef5f2700121039d25a6797fee43d890f6c1bfd56aff8b1bfa4f5482f6e7eebdbea7dfa965fb5effffffff022071e506000000001976a914cb7966dbcb8fa778985ec7c54be79886038df20388ac3680f302000000001976a914449b24046b577a9483720c4ebd2de93623b5da1288ac00000000"
    }, 
    {
      "txid": "fc35071c84197af533e899cae6126ae56d0efdb0a0add3a280395389ccf1ef27",
      "hash": "fc35071c84197af533e899cae6126ae56d0efdb0a0add3a280395389ccf1ef27",
      "version": 2,
      "size": 374,
      "vsize": 374,
      "locktime": 1357658,
      "vin": [
        {
          "txid": "d62cadd4e73a28caa08000717b23eb701fec187cc8373c855eb2aece4607c000",
          "vout": 0,
          "scriptSig": {
            "asm": "3045022100f757c4eed9d7c2b0a2724c2e4656d69080f07ca74f2c9688c3f2275de3971c58022026c3cc1b1429e7a2b89f5e4679937da0a77f0e9cfc0b47d1b5cd01300ab0795a[ALL] 027a973e366488c10f70c4a83725671a97d56f196566c7d8b47313cf3a7a8a2d79",
            "hex": "483045022100f757c4eed9d7c2b0a2724c2e4656d69080f07ca74f2c9688c3f2275de3971c58022026c3cc1b1429e7a2b89f5e4679937da0a77f0e9cfc0b47d1b5cd01300ab0795a0121027a973e366488c10f70c4a83725671a97d56f196566c7d8b47313cf3a7a8a2d79"
          },
          "sequence": 4294967294
        }, 
        {
          "txid": "8619a9e8f8bfc61ec524ab18a332db5b0b512d69ec8678e7b7268aec4ed8b063",
          "vout": 0,
          "scriptSig": {
            "asm": "3045022100aeeca882af1459d68286fd9e9a4d34c4e15c37d17c3f787758cd26c9c4b75b4f02206c5d0ae10f4cf878bc262638e3bfd0c60face44ba3b2819b5a480f28feafede8[ALL] 0229a49e592e93211989a0a3cd5b28a9f928ad5ed34ab3160f27019ded0daf19f7",
            "hex": "483045022100aeeca882af1459d68286fd9e9a4d34c4e15c37d17c3f787758cd26c9c4b75b4f02206c5d0ae10f4cf878bc262638e3bfd0c60face44ba3b2819b5a480f28feafede801210229a49e592e93211989a0a3cd5b28a9f928ad5ed34ab3160f27019ded0daf19f7"
          },
          "sequence": 4294967294
        }
      ],
      "vout": [
        {
          "value": 0.57197973,
          "n": 0,
          "scriptPubKey": {
            "asm": "OP_DUP OP_HASH160 30907f508a941fec16b9225fd036e5b6c18270f6 OP_EQUALVERIFY OP_CHECKSIG",
            "hex": "76a91430907f508a941fec16b9225fd036e5b6c18270f688ac",
            "reqSigs": 1,
            "type": "pubkeyhash",
            "addresses": [
              "LPejoGfSppWLZstssH2hWh8iNFR3dHSapw"
            ]
          }
        }, 
        {
          "value": 0.01311170,
          "n": 1,
          "scriptPubKey": {
            "asm": "OP_DUP OP_HASH160 f1a9f2a091a9da9d65da40e02c309f472c50bfdb OP_EQUALVERIFY OP_CHECKSIG",
            "hex": "76a914f1a9f2a091a9da9d65da40e02c309f472c50bfdb88ac",
            "reqSigs": 1,
            "type": "pubkeyhash",
            "addresses": [
              "LhFkhd1eptGTwFwiP5bx7dD7eNQHGLv1XG"
            ]
          }
        }
      ],
      "hex": "020000000200c00746ceaeb25e853c37c87c18ec1f70eb237b710080a0ca283ae7d4ad2cd6000000006b483045022100f757c4eed9d7c2b0a2724c2e4656d69080f07ca74f2c9688c3f2275de3971c58022026c3cc1b1429e7a2b89f5e4679937da0a77f0e9cfc0b47d1b5cd01300ab0795a0121027a973e366488c10f70c4a83725671a97d56f196566c7d8b47313cf3a7a8a2d79feffffff63b0d84eec8a26b7e77886ec692d510b5bdb32a318ab24c51ec6bff8e8a91986000000006b483045022100aeeca882af1459d68286fd9e9a4d34c4e15c37d17c3f787758cd26c9c4b75b4f02206c5d0ae10f4cf878bc262638e3bfd0c60face44ba3b2819b5a480f28feafede801210229a49e592e93211989a0a3cd5b28a9f928ad5ed34ab3160f27019ded0daf19f7feffffff0295c56803000000001976a91430907f508a941fec16b9225fd036e5b6c18270f688acc2011400000000001976a914f1a9f2a091a9da9d65da40e02c309f472c50bfdb88ac5ab71400"
    }, 
    {
      "txid": "0ba7182799aa141cc16ea89f76fdbbb8f1941a8ed0f32d8c21922530c5c8fd15",
      "hash": "0ba7182799aa141cc16ea89f76fdbbb8f1941a8ed0f32d8c21922530c5c8fd15",
      "version": 2,
      "size": 226,
      "vsize": 226,
      "locktime": 1357656,
      "vin": [
        {
          "txid": "ad566ef2e2718ae4c21ea9e14a5159461ed6813bfdf1cc8d4a3a560bfaa83835",
          "vout": 1,
          "scriptSig": {
            "asm": "3045022100b19f9457adeb7dcfcbe16d51960182ddae456a5d3c15dbf4dd96072a729721c60220644ea63d822b481c2dc203edf40e37ba269a68d5963bfecd82fd52558489888b[ALL] 031c54f23308a050ba4394fa11e01546da3a8a785ab83f047b957a2368ada69e1f",
            "hex": "483045022100b19f9457adeb7dcfcbe16d51960182ddae456a5d3c15dbf4dd96072a729721c60220644ea63d822b481c2dc203edf40e37ba269a68d5963bfecd82fd52558489888b0121031c54f23308a050ba4394fa11e01546da3a8a785ab83f047b957a2368ada69e1f"
          },
          "sequence": 4294967294
        }
      ],
      "vout": [
        {
          "value": 4.90527878,
          "n": 0,
          "scriptPubKey": {
            "asm": "OP_DUP OP_HASH160 62f1408b15fe0ca2e90ebcb556b6d3d0dbb72d21 OP_EQUALVERIFY OP_CHECKSIG",
            "hex": "76a91462f1408b15fe0ca2e90ebcb556b6d3d0dbb72d2188ac",
            "reqSigs": 1,
            "type": "pubkeyhash",
            "addresses": [
              "LUF7VWAkpxtUC8fxFp3q3MfBU6iC8BBtjJ"
            ]
          }
        }, 
        {
          "value": 0.89700000,
          "n": 1,
          "scriptPubKey": {
            "asm": "OP_DUP OP_HASH160 b4b7f890fef13f9c1112db91c55a6a212f8375e0 OP_EQUALVERIFY OP_CHECKSIG",
            "hex": "76a914b4b7f890fef13f9c1112db91c55a6a212f8375e088ac",
            "reqSigs": 1,
            "type": "pubkeyhash",
            "addresses": [
              "LbhWHGZMBAcWK4tLKuU8WyFE749U7Zwtob"
            ]
          }
        }
      ],
      "hex": "02000000013538a8fa0b563a4a8dccf1fd3b81d61e4659514ae1a91ec2e48a71e2f26e56ad010000006b483045022100b19f9457adeb7dcfcbe16d51960182ddae456a5d3c15dbf4dd96072a729721c60220644ea63d822b481c2dc203edf40e37ba269a68d5963bfecd82fd52558489888b0121031c54f23308a050ba4394fa11e01546da3a8a785ab83f047b957a2368ada69e1ffeffffff0286dc3c1d000000001976a91462f1408b15fe0ca2e90ebcb556b6d3d0dbb72d2188aca0b65805000000001976a914b4b7f890fef13f9c1112db91c55a6a212f8375e088ac58b71400"
    }, 
    {
      "txid": "2a1d7c1d23ee8cce6c339c0ba8b6f7f659f07c2a73266aae89c335cea13f80de",
      "hash": "2a1d7c1d23ee8cce6c339c0ba8b6f7f659f07c2a73266aae89c335cea13f80de",
      "version": 2,
      "size": 226,
      "vsize": 226,
      "locktime": 1357658,
      "vin": [
        {
          "txid": "4f4c7b8f6dbd7323002f98c503339310aa75754b9fc99f57fb6b41170bd98b5f",
          "vout": 0,
          "scriptSig": {
            "asm": "3045022100f18b2da0215c0062dc4ba7933f74d0a4140f6cd149c4b0078323b8673998285c02205a9160c807983492807d79e913f8989d81bb57f92d61138ea6f43c935893007a[ALL] 032e2e3d16598dda9fcc2acf394df1549125028a2310dde3bd6a9a739263d819b3",
            "hex": "483045022100f18b2da0215c0062dc4ba7933f74d0a4140f6cd149c4b0078323b8673998285c02205a9160c807983492807d79e913f8989d81bb57f92d61138ea6f43c935893007a0121032e2e3d16598dda9fcc2acf394df1549125028a2310dde3bd6a9a739263d819b3"
          },
          "sequence": 4294967294
        }
      ],
      "vout": [
        {
          "value": 0.09859478,
          "n": 0,
          "scriptPubKey": {
            "asm": "OP_DUP OP_HASH160 9c839fcb4f3b5d656ffd7a9e328d7fca9f9c77f4 OP_EQUALVERIFY OP_CHECKSIG",
            "hex": "76a9149c839fcb4f3b5d656ffd7a9e328d7fca9f9c77f488ac",
            "reqSigs": 1,
            "type": "pubkeyhash",
            "addresses": [
              "LZVXMYjpJ7jKiLjGSCqrNoymsNigTaoNNF"
            ]
          }
        }, 
        {
          "value": 4.34804037,
          "n": 1,
          "scriptPubKey": {
            "asm": "OP_DUP OP_HASH160 d532874582a0d9a77c9c16aa77459ac227e4a75c OP_EQUALVERIFY OP_CHECKSIG",
            "hex": "76a914d532874582a0d9a77c9c16aa77459ac227e4a75c88ac",
            "reqSigs": 1,
            "type": "pubkeyhash",
            "addresses": [
              "LefEir8rHxbFh9wD5ivVnohFPzhBDVBmvW"
            ]
          }
        }
      ],
      "hex": "02000000015f8bd90b17416bfb579fc99f4b7575aa10933303c5982f002373bd6d8f7b4c4f000000006b483045022100f18b2da0215c0062dc4ba7933f74d0a4140f6cd149c4b0078323b8673998285c02205a9160c807983492807d79e913f8989d81bb57f92d61138ea6f43c935893007a0121032e2e3d16598dda9fcc2acf394df1549125028a2310dde3bd6a9a739263d819b3feffffff0296719600000000001976a9149c839fcb4f3b5d656ffd7a9e328d7fca9f9c77f488ac4595ea19000000001976a914d532874582a0d9a77c9c16aa77459ac227e4a75c88ac5ab71400"
    }, 
    {
      "txid": "1a890334ccd70655b21a6dd05b646fff3df83ddc1438df6c25bf30155b707e05",
      "hash": "1a890334ccd70655b21a6dd05b646fff3df83ddc1438df6c25bf30155b707e05",
      "version": 1,
      "size": 226,
      "vsize": 226,
      "locktime": 0,
      "vin": [
        {
          "txid": "33555db435a175dc71338c51a2abb11011eac59fb19becb5da1fb8ebfc5328f2",
          "vout": 0,
          "scriptSig": {
            "asm": "3045022100d48ea568ca2232d5fe8a5d1394d0a1bceb8e1687a9c00b30723149b83cf317f502205bff406019311b609a5d210361dd0ef638fbfa105385874b3d4c1d99d5499c7f[ALL] 03bb3f638a125e2cfeaf9846612a1073a23438c10ff7a03371153badc9ea62273d",
            "hex": "483045022100d48ea568ca2232d5fe8a5d1394d0a1bceb8e1687a9c00b30723149b83cf317f502205bff406019311b609a5d210361dd0ef638fbfa105385874b3d4c1d99d5499c7f012103bb3f638a125e2cfeaf9846612a1073a23438c10ff7a03371153badc9ea62273d"
          },
          "sequence": 4294967295
        }
      ],
      "vout": [
        {
          "value": 0.82257678,
          "n": 0,
          "scriptPubKey": {
            "asm": "OP_DUP OP_HASH160 2a379278593f1771fcdfd67c6749d9d740252131 OP_EQUALVERIFY OP_CHECKSIG",
            "hex": "76a9142a379278593f1771fcdfd67c6749d9d74025213188ac",
            "reqSigs": 1,
            "type": "pubkeyhash",
            "addresses": [
              "LP5BDVQFRRckyknj3S7a1odEWG9KbatbuR"
            ]
          }
        }, 
        {
          "value": 21.45157743,
          "n": 1,
          "scriptPubKey": {
            "asm": "OP_DUP OP_HASH160 0c7971d70d01d3a601286c39675b88595e209057 OP_EQUALVERIFY OP_CHECKSIG",
            "hex": "76a9140c7971d70d01d3a601286c39675b88595e20905788ac",
            "reqSigs": 1,
            "type": "pubkeyhash",
            "addresses": [
              "LLMure4ZmChddyKM7bn4d7WWGc48Xn77SC"
            ]
          }
        }
      ],
      "hex": "0100000001f22853fcebb81fdab5ec9bb19fc5ea1110b1aba2518c3371dc75a135b45d5533000000006b483045022100d48ea568ca2232d5fe8a5d1394d0a1bceb8e1687a9c00b30723149b83cf317f502205bff406019311b609a5d210361dd0ef638fbfa105385874b3d4c1d99d5499c7f012103bb3f638a125e2cfeaf9846612a1073a23438c10ff7a03371153badc9ea62273dffffffff020e27e704000000001976a9142a379278593f1771fcdfd67c6749d9d74025213188ac6f82dc7f000000001976a9140c7971d70d01d3a601286c39675b88595e20905788ac00000000"
    }, 
    {
      "txid": "f442b72d9f359ca43e88c4d0cb8b95731d4b3a919dbe2a83cc897953790cc54e",
      "hash": "f442b72d9f359ca43e88c4d0cb8b95731d4b3a919dbe2a83cc897953790cc54e",
      "version": 2,
      "size": 226,
      "vsize": 226,
      "locktime": 1357657,
      "vin": [
        {
          "txid": "7f075b790ed0b5a63385e9b9c21465c271ac603b9757e71ce154049a9ec065a3",
          "vout": 24,
          "scriptSig": {
            "asm": "3045022100a71ad3e78c7d9170e02daff152bd61bd946474bb3715e34a2cf4a0ecfaeb4e0d022003dc77de7e89119af26f00a4ffa8af795adc1f8783c0d547b44a831515fb9271[ALL] 0247033b964d08562f81186b3b2c877aeb3713f92a2e7453bb32ac90e908d56b6f",
            "hex": "483045022100a71ad3e78c7d9170e02daff152bd61bd946474bb3715e34a2cf4a0ecfaeb4e0d022003dc77de7e89119af26f00a4ffa8af795adc1f8783c0d547b44a831515fb927101210247033b964d08562f81186b3b2c877aeb3713f92a2e7453bb32ac90e908d56b6f"
          },
          "sequence": 4294967294
        }
      ],
      "vout": [
        {
          "value": 0.00979282,
          "n": 0,
          "scriptPubKey": {
            "asm": "OP_DUP OP_HASH160 5731a5ed7a6872ccff9291a3a108975d27b67de3 OP_EQUALVERIFY OP_CHECKSIG",
            "hex": "76a9145731a5ed7a6872ccff9291a3a108975d27b67de388ac",
            "reqSigs": 1,
            "type": "pubkeyhash",
            "addresses": [
              "LTAzXWut7xwS5ZzB3JrfG3fY8ytw7CAikn"
            ]
          }
        }, 
        {
          "value": 0.09310000,
          "n": 1,
          "scriptPubKey": {
            "asm": "OP_DUP OP_HASH160 d5aa18d543df848eeef3343f6dff1736420617fa OP_EQUALVERIFY OP_CHECKSIG",
            "hex": "76a914d5aa18d543df848eeef3343f6dff1736420617fa88ac",
            "reqSigs": 1,
            "type": "pubkeyhash",
            "addresses": [
              "LehhxcuiSoghLSXbe2zygwDYHCM7CW15yA"
            ]
          }
        }
      ],
      "hex": "0200000001a365c09e9a0454e11ce757973b60ac71c26514c2b9e98533a6b5d00e795b077f180000006b483045022100a71ad3e78c7d9170e02daff152bd61bd946474bb3715e34a2cf4a0ecfaeb4e0d022003dc77de7e89119af26f00a4ffa8af795adc1f8783c0d547b44a831515fb927101210247033b964d08562f81186b3b2c877aeb3713f92a2e7453bb32ac90e908d56b6ffeffffff0252f10e00000000001976a9145731a5ed7a6872ccff9291a3a108975d27b67de388ac300f8e00000000001976a914d5aa18d543df848eeef3343f6dff1736420617fa88ac59b71400"
    }, 
    {
      "txid": "bde4fea5ff0293cc29d3e639556bd5b2e6965c9b80f4f02a4f972c0bef36b1a4",
      "hash": "bde4fea5ff0293cc29d3e639556bd5b2e6965c9b80f4f02a4f972c0bef36b1a4",
      "version": 1,
      "size": 226,
      "vsize": 226,
      "locktime": 0,
      "vin": [
        {
          "txid": "576e2aaed7ee71a9f62f465f136c9dafe658d36e8a7430d7b0682110b5de2a8b",
          "vout": 6,
          "scriptSig": {
            "asm": "3045022100e9590abd2cd84191fd653a96e984c0ee58ec99eeb0580810fa1a88239f2c5e8f02207ce3eb7c76cc823646f059420aeba6ad39228980a3f1c44268d36d4a813c0de1[ALL] 03e4606942d29ba654beaa20fe33861b74dc54e9dd474a8feeaa7dd34be6294db2",
            "hex": "483045022100e9590abd2cd84191fd653a96e984c0ee58ec99eeb0580810fa1a88239f2c5e8f02207ce3eb7c76cc823646f059420aeba6ad39228980a3f1c44268d36d4a813c0de1012103e4606942d29ba654beaa20fe33861b74dc54e9dd474a8feeaa7dd34be6294db2"
          },
          "sequence": 4294967295
        }
      ],
      "vout": [
        {
          "value": 0.30986358,
          "n": 0,
          "scriptPubKey": {
            "asm": "OP_DUP OP_HASH160 117f25100e131cc1aa6f40b6af8235ca5dd4b88b OP_EQUALVERIFY OP_CHECKSIG",
            "hex": "76a914117f25100e131cc1aa6f40b6af8235ca5dd4b88b88ac",
            "reqSigs": 1,
            "type": "pubkeyhash",
            "addresses": [
              "LLpU4eYKCRP6XD8vXGVNMAtUmaZ9bLCy2T"
            ]
          }
        }, 
        {
          "value": 0.67991042,
          "n": 1,
          "scriptPubKey": {
            "asm": "OP_DUP OP_HASH160 8f35e3b0de5644ec2bd9a13047401302e8f29b24 OP_EQUALVERIFY OP_CHECKSIG",
            "hex": "76a9148f35e3b0de5644ec2bd9a13047401302e8f29b2488ac",
            "reqSigs": 1,
            "type": "pubkeyhash",
            "addresses": [
              "LYHBSwtRMgP5u6p1UXvvETGesqGe6dqrkX"
            ]
          }
        }
      ],
      "hex": "01000000018b2adeb5102168b0d730748a6ed358e6af9d6c135f462ff6a971eed7ae2a6e57060000006b483045022100e9590abd2cd84191fd653a96e984c0ee58ec99eeb0580810fa1a88239f2c5e8f02207ce3eb7c76cc823646f059420aeba6ad39228980a3f1c44268d36d4a813c0de1012103e4606942d29ba654beaa20fe33861b74dc54e9dd474a8feeaa7dd34be6294db2ffffffff0276d0d801000000001976a914117f25100e131cc1aa6f40b6af8235ca5dd4b88b88ac02760d04000000001976a9148f35e3b0de5644ec2bd9a13047401302e8f29b2488ac00000000"
    }, 
    {
      "txid": "288c480b619a6423b71ef7af9cf3631645f03e867a4c832348d7979138e022f3",
      "hash": "288c480b619a6423b71ef7af9cf3631645f03e867a4c832348d7979138e022f3",
      "version": 1,
      "size": 226,
      "vsize": 226,
      "locktime": 0,
      "vin": [
        {
          "txid": "7d61b65a3eab537c9ed71e2f92dec82135654b0222b85d0557c356c83ab3a715",
          "vout": 81,
          "scriptSig": {
            "asm": "304502210088eaaadeb8d9748b1ceb86660e9ccbf16f9db3426221ffc2cd8a610a0154a5dd0220475b141ce568e68dedd7999b2fc64a821e9766d9fb6a2ca019405386dfaff9dc[ALL] 03245e2a0dffa621970cd729d8a21adb5d267b1263559194cdaef1419be0cc2581",
            "hex": "48304502210088eaaadeb8d9748b1ceb86660e9ccbf16f9db3426221ffc2cd8a610a0154a5dd0220475b141ce568e68dedd7999b2fc64a821e9766d9fb6a2ca019405386dfaff9dc012103245e2a0dffa621970cd729d8a21adb5d267b1263559194cdaef1419be0cc2581"
          },
          "sequence": 4294967295
        }
      ],
      "vout": [
        {
          "value": 0.19903905,
          "n": 0,
          "scriptPubKey": {
            "asm": "OP_DUP OP_HASH160 cbef2595c5db8ca6e796aebfeb79c2bce6f16d3b OP_EQUALVERIFY OP_CHECKSIG",
            "hex": "76a914cbef2595c5db8ca6e796aebfeb79c2bce6f16d3b88ac",
            "reqSigs": 1,
            "type": "pubkeyhash",
            "addresses": [
              "LdpFvNDrj2T86js7UohoJ9G3WqMpz9AduX"
            ]
          }
        }, 
        {
          "value": 0.00072984,
          "n": 1,
          "scriptPubKey": {
            "asm": "OP_DUP OP_HASH160 4b9c33395e6caee8f670f1de57606e80a96d8b15 OP_EQUALVERIFY OP_CHECKSIG",
            "hex": "76a9144b9c33395e6caee8f670f1de57606e80a96d8b1588ac",
            "reqSigs": 1,
            "type": "pubkeyhash",
            "addresses": [
              "LS7k4aCANH9ivb9fahH5u5k7pMoGFGBYKM"
            ]
          }
        }
      ],
      "hex": "010000000115a7b33ac856c357055db822024b653521c8de922f1ed79e7c53ab3e5ab6617d510000006b48304502210088eaaadeb8d9748b1ceb86660e9ccbf16f9db3426221ffc2cd8a610a0154a5dd0220475b141ce568e68dedd7999b2fc64a821e9766d9fb6a2ca019405386dfaff9dc012103245e2a0dffa621970cd729d8a21adb5d267b1263559194cdaef1419be0cc2581ffffffff02a1b52f01000000001976a914cbef2595c5db8ca6e796aebfeb79c2bce6f16d3b88ac181d0100000000001976a9144b9c33395e6caee8f670f1de57606e80a96d8b1588ac00000000"
    }
  ],
  "time": 1517031602,
  "mediantime": 1517031146,
  "nonce": 1723987584,
  "bits": "1a047f14",
  "difficulty": 3731199.183374282,
  "chainwork": "0000000000000000000000000000000000000000000000326ae48981ff8b7e72",
  "previousblockhash": "12b364efbc99224c873276440bbd02126dcdfdbf214f66d78f0cd9efad9407bf",
  "nextblockhash": "7d2b7373502481f780283af6b37b832835892b59c1c4ca166437f58f3943cc32"
}
