{
  "hash": "f34aa0e64079a25edb545b400f1a202c58f1fb04fd5a9a13f1b349a74fc3f1af",
  "confirmations": 2179,
  "strippedsize": 2812,
  "size": 2848,
  "weight": 11284,
  "height": 1358815,
  "version": 536870912,
  "versionHex": "20000000",
  "merkleroot": "ec81089c45325c39bb9a340703884cce77377042de970504d4e0e6bdbf9abf58",
  "tx": [
    {
      "txid": "30401ade80d33382e632862397feb00068074e3ae45b45f6977fb2bd49ee8db9",
      "hash": "00f00191e892efe7e96048bbf37cb7955ed8de828b537fd402a51d66724cac9c",
      "version": 1,
      "size": 253,
      "vsize": 226,
      "locktime": 0,
      "vin": [
        {
          "coinbase": "03dfbb1441d69ba444c3446141d69ba4444f5cd92f4c54432e544f502ffabe6d6da2a7c035b9895e30ed382c4c61439c0c8b7747d45d27d820e1c937b512f23e650100000000000000720867bc0d00000000000000",
          "sequence": 4294967295
        }
      ],
      "vout": [
        {
          "value": 25.01539176,
          "n": 0,
          "scriptPubKey": {
            "asm": "OP_DUP OP_HASH160 0c617fdb2ea42aed30a509595ee21ba3f6688db0 OP_EQUALVERIFY OP_CHECKSIG",
            "hex": "76a9140c617fdb2ea42aed30a509595ee21ba3f6688db088ac",
            "reqSigs": 1,
            "type": "pubkeyhash",
            "addresses": [
              "LLMRAtr3qBje2ySEa3CnZ55LA4TQMWnRY3"
            ]
          }
        }, 
        {
          "value": 0.00000000,
          "n": 1,
          "scriptPubKey": {
            "asm": "OP_RETURN aa21a9edc4404bdb3b2c71a2f8ac56a227caf1df8208591b80a6dc73c81bb18b65a8e542",
            "hex": "6a24aa21a9edc4404bdb3b2c71a2f8ac56a227caf1df8208591b80a6dc73c81bb18b65a8e542",
            "type": "nulldata"
          }
        }
      ],
      "hex": "010000000001010000000000000000000000000000000000000000000000000000000000000000ffffffff5503dfbb1441d69ba444c3446141d69ba4444f5cd92f4c54432e544f502ffabe6d6da2a7c035b9895e30ed382c4c61439c0c8b7747d45d27d820e1c937b512f23e650100000000000000720867bc0d00000000000000ffffffff0268751a95000000001976a9140c617fdb2ea42aed30a509595ee21ba3f6688db088ac0000000000000000266a24aa21a9edc4404bdb3b2c71a2f8ac56a227caf1df8208591b80a6dc73c81bb18b65a8e5420120000000000000000000000000000000000000000000000000000000000000000000000000"
    }, 
    {
      "txid": "d3df502a7973f8138a24e52a596121d0129b4a1eddd419f1bebf22dccd837531",
      "hash": "d3df502a7973f8138a24e52a596121d0129b4a1eddd419f1bebf22dccd837531",
      "version": 1,
      "size": 373,
      "vsize": 373,
      "locktime": 1358813,
      "vin": [
        {
          "txid": "8708d99f2d4e9bb50297980165516084c83a4a2ea3e78ef8fc0313cf389f2038",
          "vout": 1,
          "scriptSig": {
            "asm": "3045022100b1018ef8d24c30e46cbe9c7438aa5ff5ebdeb92ac547827146fe0feb3ea3a53002202e7d71bfae9bde9167abb130e421703e6043e5965b7efa471d85440193b4ab5f[ALL] 023a7d2957b7c4e5a650d0843c032accd11607d041c271627b2f6a351299a0b381",
            "hex": "483045022100b1018ef8d24c30e46cbe9c7438aa5ff5ebdeb92ac547827146fe0feb3ea3a53002202e7d71bfae9bde9167abb130e421703e6043e5965b7efa471d85440193b4ab5f0121023a7d2957b7c4e5a650d0843c032accd11607d041c271627b2f6a351299a0b381"
          },
          "sequence": 4294967294
        }, 
        {
          "txid": "9a63815a1a0471bf61a2101f5f57c52db39fb4a7fbfaeb4700fa96b44baafa2f",
          "vout": 1,
          "scriptSig": {
            "asm": "304402206676ca7d1337b33bd1ad107af27661f368d273ed5944a6032abf13423255558b022053d698b48682b7ee24309265c34577413ddd4779ff7e4117a537705040f3cbe0[ALL] 0382e21c592e869a7100aee47fd86c7d0def4f663e08506c455b7502484971b22f",
            "hex": "47304402206676ca7d1337b33bd1ad107af27661f368d273ed5944a6032abf13423255558b022053d698b48682b7ee24309265c34577413ddd4779ff7e4117a537705040f3cbe001210382e21c592e869a7100aee47fd86c7d0def4f663e08506c455b7502484971b22f"
          },
          "sequence": 4294967294
        }
      ],
      "vout": [
        {
          "value": 1.45455621,
          "n": 0,
          "scriptPubKey": {
            "asm": "OP_DUP OP_HASH160 852a1242cf9932e27bec6ada2507009da0e6ed06 OP_EQUALVERIFY OP_CHECKSIG",
            "hex": "76a914852a1242cf9932e27bec6ada2507009da0e6ed0688ac",
            "reqSigs": 1,
            "type": "pubkeyhash",
            "addresses": [
              "LXN4XtoATbWF25mhZpNjkgFLTSur6VEHVc"
            ]
          }
        }, 
        {
          "value": 0.31548846,
          "n": 1,
          "scriptPubKey": {
            "asm": "OP_DUP OP_HASH160 656c3c6e9fd19dd3b2186ebbc539155834538123 OP_EQUALVERIFY OP_CHECKSIG",
            "hex": "76a914656c3c6e9fd19dd3b2186ebbc53915583453812388ac",
            "reqSigs": 1,
            "type": "pubkeyhash",
            "addresses": [
              "LUUEAxiM5A7kCymbHjnPAb9nfdoP5aeNLv"
            ]
          }
        }
      ],
      "hex": "010000000238209f38cf1303fcf88ee7a32e4a3ac88460516501989702b59b4e2d9fd90887010000006b483045022100b1018ef8d24c30e46cbe9c7438aa5ff5ebdeb92ac547827146fe0feb3ea3a53002202e7d71bfae9bde9167abb130e421703e6043e5965b7efa471d85440193b4ab5f0121023a7d2957b7c4e5a650d0843c032accd11607d041c271627b2f6a351299a0b381feffffff2ffaaa4bb496fa0047ebfafba7b49fb32dc5575f1f10a261bf71041a5a81639a010000006a47304402206676ca7d1337b33bd1ad107af27661f368d273ed5944a6032abf13423255558b022053d698b48682b7ee24309265c34577413ddd4779ff7e4117a537705040f3cbe001210382e21c592e869a7100aee47fd86c7d0def4f663e08506c455b7502484971b22ffeffffff02057aab08000000001976a914852a1242cf9932e27bec6ada2507009da0e6ed0688acae65e101000000001976a914656c3c6e9fd19dd3b2186ebbc53915583453812388acddbb1400"
    }, 
    {
      "txid": "4baf50fa0dde64752edf8e2dc8b05bab5e232db77173c4e8f23d67d79fc90e6d",
      "hash": "4baf50fa0dde64752edf8e2dc8b05bab5e232db77173c4e8f23d67d79fc90e6d",
      "version": 1,
      "size": 226,
      "vsize": 226,
      "locktime": 0,
      "vin": [
        {
          "txid": "9052fc28ecb26aa8dec28ad539d179de68469ebdf4dd3eaa1da3239460d45535",
          "vout": 1,
          "scriptSig": {
            "asm": "3045022100ed8ddeb205947174d6910f81cae9b89eb1be21492e13e95855e5325a67289c69022019de7a917819abc91da0c135298b83f9fa2b7f70a42de4a576a2963b61dc689e[ALL] 037173f143d9f9f7b4f09379d67a999cc521d6553ada9ee31ecb90faa39e3f7e08",
            "hex": "483045022100ed8ddeb205947174d6910f81cae9b89eb1be21492e13e95855e5325a67289c69022019de7a917819abc91da0c135298b83f9fa2b7f70a42de4a576a2963b61dc689e0121037173f143d9f9f7b4f09379d67a999cc521d6553ada9ee31ecb90faa39e3f7e08"
          },
          "sequence": 4294967295
        }
      ],
      "vout": [
        {
          "value": 0.38500000,
          "n": 0,
          "scriptPubKey": {
            "asm": "OP_DUP OP_HASH160 eef793c2f6ae13deb5a42f35f25b1b72acd70dd1 OP_EQUALVERIFY OP_CHECKSIG",
            "hex": "76a914eef793c2f6ae13deb5a42f35f25b1b72acd70dd188ac",
            "reqSigs": 1,
            "type": "pubkeyhash",
            "addresses": [
              "Lh1VfqJcer79TUXJRCx7EFKyb52R7CC3fY"
            ]
          }
        }, 
        {
          "value": 0.00651040,
          "n": 1,
          "scriptPubKey": {
            "asm": "OP_DUP OP_HASH160 1502058b7fa6ad6f610c1a03996007df3f29fcab OP_EQUALVERIFY OP_CHECKSIG",
            "hex": "76a9141502058b7fa6ad6f610c1a03996007df3f29fcab88ac",
            "reqSigs": 1,
            "type": "pubkeyhash",
            "addresses": [
              "LM92si4nktgGTcuhduniY3PQ8WB3Es3PtF"
            ]
          }
        }
      ],
      "hex": "01000000013555d4609423a31daa3eddf4bd9e4668de79d139d58ac2dea86ab2ec28fc5290010000006b483045022100ed8ddeb205947174d6910f81cae9b89eb1be21492e13e95855e5325a67289c69022019de7a917819abc91da0c135298b83f9fa2b7f70a42de4a576a2963b61dc689e0121037173f143d9f9f7b4f09379d67a999cc521d6553ada9ee31ecb90faa39e3f7e08ffffffff02a0764b02000000001976a914eef793c2f6ae13deb5a42f35f25b1b72acd70dd188ac20ef0900000000001976a9141502058b7fa6ad6f610c1a03996007df3f29fcab88ac00000000"
    }, 
    {
      "txid": "e42f75584dc3adf106b1ef1219fcdab710238fb2575c4cfb859d65b6806ba8cc",
      "hash": "e42f75584dc3adf106b1ef1219fcdab710238fb2575c4cfb859d65b6806ba8cc",
      "version": 1,
      "size": 226,
      "vsize": 226,
      "locktime": 0,
      "vin": [
        {
          "txid": "b3f88f41c347bd964b4c9e73e134667b13aeb818c2a760b542f20d6c4ac8415a",
          "vout": 0,
          "scriptSig": {
            "asm": "3045022100bbabf891e550eaf27aa66e9ccdfcca5342fc19286a42896a9fe9a50d3548a4a702204e7a5bccc60d4db6cbaa65ff08bafde5c49d5370f0e4b1141909fa1e160e1646[ALL] 03d4d96d0915d723a41fae03626aa347c4bc154c57d22416f4c4fa4f77fbe7a6b9",
            "hex": "483045022100bbabf891e550eaf27aa66e9ccdfcca5342fc19286a42896a9fe9a50d3548a4a702204e7a5bccc60d4db6cbaa65ff08bafde5c49d5370f0e4b1141909fa1e160e1646012103d4d96d0915d723a41fae03626aa347c4bc154c57d22416f4c4fa4f77fbe7a6b9"
          },
          "sequence": 4294967295
        }
      ],
      "vout": [
        {
          "value": 0.01012196,
          "n": 0,
          "scriptPubKey": {
            "asm": "OP_DUP OP_HASH160 2e0f22558c4a6d2f53ff61a6dde91b11f64e7fff OP_EQUALVERIFY OP_CHECKSIG",
            "hex": "76a9142e0f22558c4a6d2f53ff61a6dde91b11f64e7fff88ac",
            "reqSigs": 1,
            "type": "pubkeyhash",
            "addresses": [
              "LPRVUaFiP4YbtKhmEtYQZzY6RNxXpLjGMW"
            ]
          }
        }, 
        {
          "value": 0.14186744,
          "n": 1,
          "scriptPubKey": {
            "asm": "OP_DUP OP_HASH160 33f4cf304b643fc9ac1f161eae44a4c00e4e1859 OP_EQUALVERIFY OP_CHECKSIG",
            "hex": "76a91433f4cf304b643fc9ac1f161eae44a4c00e4e185988ac",
            "reqSigs": 1,
            "type": "pubkeyhash",
            "addresses": [
              "LPxfzeUHVgotchsqypT5sdhm6biXo2AsMa"
            ]
          }
        }
      ],
      "hex": "01000000015a41c84a6c0df242b560a7c218b8ae137b6634e1739e4c4b96bd47c3418ff8b3000000006b483045022100bbabf891e550eaf27aa66e9ccdfcca5342fc19286a42896a9fe9a50d3548a4a702204e7a5bccc60d4db6cbaa65ff08bafde5c49d5370f0e4b1141909fa1e160e1646012103d4d96d0915d723a41fae03626aa347c4bc154c57d22416f4c4fa4f77fbe7a6b9ffffffff02e4710f00000000001976a9142e0f22558c4a6d2f53ff61a6dde91b11f64e7fff88acf878d800000000001976a91433f4cf304b643fc9ac1f161eae44a4c00e4e185988ac00000000"
    }, 
    {
      "txid": "939d60699ee34b9b87dca788de4384da71ebb7db9fcb6b3f52d02a85e1371e15",
      "hash": "939d60699ee34b9b87dca788de4384da71ebb7db9fcb6b3f52d02a85e1371e15",
      "version": 1,
      "size": 335,
      "vsize": 335,
      "locktime": 0,
      "vin": [
        {
          "txid": "298ac7b5331bc08262c01f50681a6ec5401fda4db27f42d4222956e0226a6459",
          "vout": 1,
          "scriptSig": {
            "asm": "0 3044022037f518c17bed6f05c452aecb35bd9ce4d95abaeffdcb2dae249bab4832fd5d6d02207a6c13304cc933ef6a8533d3d3a72e101ade98a3cfddc75950731203cafda118[ALL] 3045022100c3118b72b02d26575a135bc9ad80d26814de542437054ddec180fdf5641e44f702206beaf8ee3f54a5b5493410d45639b5422f4c0a9c6ae128126a43f0f9a1f768c9[ALL] 522102f77ec37a042ba4e5e6aef7760398bf59b87ac4c5dee30a2fb8798e9630d4916e210276b93401dc495b28592f66411a7c9093b468f8678db51144fc6a36f550d94aa952ae",
            "hex": "00473044022037f518c17bed6f05c452aecb35bd9ce4d95abaeffdcb2dae249bab4832fd5d6d02207a6c13304cc933ef6a8533d3d3a72e101ade98a3cfddc75950731203cafda11801483045022100c3118b72b02d26575a135bc9ad80d26814de542437054ddec180fdf5641e44f702206beaf8ee3f54a5b5493410d45639b5422f4c0a9c6ae128126a43f0f9a1f768c90147522102f77ec37a042ba4e5e6aef7760398bf59b87ac4c5dee30a2fb8798e9630d4916e210276b93401dc495b28592f66411a7c9093b468f8678db51144fc6a36f550d94aa952ae"
          },
          "sequence": 4294967295
        }
      ],
      "vout": [
        {
          "value": 0.03053700,
          "n": 0,
          "scriptPubKey": {
            "asm": "OP_DUP OP_HASH160 0b87afc0105260fe6de499a7e396c4f3a9d34c6d OP_EQUALVERIFY OP_CHECKSIG",
            "hex": "76a9140b87afc0105260fe6de499a7e396c4f3a9d34c6d88ac",
            "reqSigs": 1,
            "type": "pubkeyhash",
            "addresses": [
              "LLGvEzGMzgp2ZwQHVcpLiRSsir3joMzH91"
            ]
          }
        }, 
        {
          "value": 13.80199700,
          "n": 1,
          "scriptPubKey": {
            "asm": "OP_HASH160 75b77316f8d91ff71fb2819115d1b6b9e80ccee9 OP_EQUAL",
            "hex": "a91475b77316f8d91ff71fb2819115d1b6b9e80ccee987",
            "reqSigs": 1,
            "type": "scripthash",
            "addresses": [
              "MJdb4B3BMDrfpB1FpKsPYQ1tDHdkNa1oLB"
            ]
          }
        }
      ],
      "hex": "010000000159646a22e0562922d4427fb24dda1f40c56e1a68501fc06282c01b33b5c78a2901000000da00473044022037f518c17bed6f05c452aecb35bd9ce4d95abaeffdcb2dae249bab4832fd5d6d02207a6c13304cc933ef6a8533d3d3a72e101ade98a3cfddc75950731203cafda11801483045022100c3118b72b02d26575a135bc9ad80d26814de542437054ddec180fdf5641e44f702206beaf8ee3f54a5b5493410d45639b5422f4c0a9c6ae128126a43f0f9a1f768c90147522102f77ec37a042ba4e5e6aef7760398bf59b87ac4c5dee30a2fb8798e9630d4916e210276b93401dc495b28592f66411a7c9093b468f8678db51144fc6a36f550d94aa952aeffffffff0284982e00000000001976a9140b87afc0105260fe6de499a7e396c4f3a9d34c6d88ac142d44520000000017a91475b77316f8d91ff71fb2819115d1b6b9e80ccee98700000000"
    }, 
    {
      "txid": "465cd25c4a36c5bb58be4dc419e113c251c531e26ad0d1fcc0328820390f5afc",
      "hash": "465cd25c4a36c5bb58be4dc419e113c251c531e26ad0d1fcc0328820390f5afc",
      "version": 2,
      "size": 225,
      "vsize": 225,
      "locktime": 0,
      "vin": [
        {
          "txid": "9fd5e2a7fc0a172161a5b988b83a3af003be1029604cedc09aab65bc214eda58",
          "vout": 0,
          "scriptSig": {
            "asm": "30440220078a6eeac82a4bcaf05852b4a5ffe2d284c12dbe945fa781974f530c56dec297022071f997cd9fdec400f8d44f9cf33693c96a090c83c835e4cc9234c755479b4f66[ALL] 02a7fd4d1c0af576d60002fbe22264d8c942d5a8341369c523c66b95e5175190ee",
            "hex": "4730440220078a6eeac82a4bcaf05852b4a5ffe2d284c12dbe945fa781974f530c56dec297022071f997cd9fdec400f8d44f9cf33693c96a090c83c835e4cc9234c755479b4f66012102a7fd4d1c0af576d60002fbe22264d8c942d5a8341369c523c66b95e5175190ee"
          },
          "sequence": 4294967295
        }
      ],
      "vout": [
        {
          "value": 39.44509212,
          "n": 0,
          "scriptPubKey": {
            "asm": "OP_DUP OP_HASH160 8b3ce6f45ee6bf0abd9caa1592b4d0409aa20fb7 OP_EQUALVERIFY OP_CHECKSIG",
            "hex": "76a9148b3ce6f45ee6bf0abd9caa1592b4d0409aa20fb788ac",
            "reqSigs": 1,
            "type": "pubkeyhash",
            "addresses": [
              "LXvB9S8hdcsFWUffXqv8wmudq27kUJdfHs"
            ]
          }
        }, 
        {
          "value": 68.07435612,
          "n": 1,
          "scriptPubKey": {
            "asm": "OP_DUP OP_HASH160 306d72b8cfe05bb6eeddc179ad09cae727a73b21 OP_EQUALVERIFY OP_CHECKSIG",
            "hex": "76a914306d72b8cfe05bb6eeddc179ad09cae727a73b2188ac",
            "reqSigs": 1,
            "type": "pubkeyhash",
            "addresses": [
              "LPe1p1ZN7CqFuhTML6zqTs8e1VuXFKkgpu"
            ]
          }
        }
      ],
      "hex": "020000000158da4e21bc65ab9ac0ed4c602910be03f03a3ab888b9a56121170afca7e2d59f000000006a4730440220078a6eeac82a4bcaf05852b4a5ffe2d284c12dbe945fa781974f530c56dec297022071f997cd9fdec400f8d44f9cf33693c96a090c83c835e4cc9234c755479b4f66012102a7fd4d1c0af576d60002fbe22264d8c942d5a8341369c523c66b95e5175190eeffffffff021c6f1ceb000000001976a9148b3ce6f45ee6bf0abd9caa1592b4d0409aa20fb788ac5c39c195010000001976a914306d72b8cfe05bb6eeddc179ad09cae727a73b2188ac00000000"
    }, 
    {
      "txid": "f3ee259e1ac005a977ebd89430c87562c82d0b5a4fdcb36519ee25686f1bfafd",
      "hash": "f3ee259e1ac005a977ebd89430c87562c82d0b5a4fdcb36519ee25686f1bfafd",
      "version": 1,
      "size": 225,
      "vsize": 225,
      "locktime": 0,
      "vin": [
        {
          "txid": "29bcbc639c08ed7ab13ee1ed2d9b3cc02e9db2cf57bd37ca619a76c89e2e8516",
          "vout": 1,
          "scriptSig": {
            "asm": "3044022008ed41cb7740ce843c9fc39bdb4a9112e395b53837018cd70cb6f7512b0d8f9d0220433494e481bf47ca912e99e9f5ccc7bf8aacd50b811a4221fbf0a900f51e6b31[ALL] 0319dcdffea99e6ea6f04cde7efd7b84865cd8090ac28c42bd75c7dab119582caf",
            "hex": "473044022008ed41cb7740ce843c9fc39bdb4a9112e395b53837018cd70cb6f7512b0d8f9d0220433494e481bf47ca912e99e9f5ccc7bf8aacd50b811a4221fbf0a900f51e6b3101210319dcdffea99e6ea6f04cde7efd7b84865cd8090ac28c42bd75c7dab119582caf"
          },
          "sequence": 4294967294
        }
      ],
      "vout": [
        {
          "value": 0.05956203,
          "n": 0,
          "scriptPubKey": {
            "asm": "OP_DUP OP_HASH160 c3172628e73866d7c1e9cd5472f3e4a7c9fc656c OP_EQUALVERIFY OP_CHECKSIG",
            "hex": "76a914c3172628e73866d7c1e9cd5472f3e4a7c9fc656c88ac",
            "reqSigs": 1,
            "type": "pubkeyhash",
            "addresses": [
              "Ld1Vm3ZSwQsZnQnbk7weuXhxE34zhtyEeW"
            ]
          }
        }, 
        {
          "value": 0.61767733,
          "n": 1,
          "scriptPubKey": {
            "asm": "OP_DUP OP_HASH160 3c4a9ff033bac8a89fa7e848c58443be2036f94f OP_EQUALVERIFY OP_CHECKSIG",
            "hex": "76a9143c4a9ff033bac8a89fa7e848c58443be2036f94f88ac",
            "reqSigs": 1,
            "type": "pubkeyhash",
            "addresses": [
              "LQikCjzJeYiZphCEhcRcz52NuyuQ1tsF1T"
            ]
          }
        }
      ],
      "hex": "010000000116852e9ec8769a61ca37bd57cfb29d2ec03c9b2dede13eb17aed089c63bcbc29010000006a473044022008ed41cb7740ce843c9fc39bdb4a9112e395b53837018cd70cb6f7512b0d8f9d0220433494e481bf47ca912e99e9f5ccc7bf8aacd50b811a4221fbf0a900f51e6b3101210319dcdffea99e6ea6f04cde7efd7b84865cd8090ac28c42bd75c7dab119582caffeffffff026be25a00000000001976a914c3172628e73866d7c1e9cd5472f3e4a7c9fc656c88ac3580ae03000000001976a9143c4a9ff033bac8a89fa7e848c58443be2036f94f88ac00000000"
    }, 
    {
      "txid": "a2d3511d22fb1e1984d0a482ccf5b44192bb1bc6278dd9c1f96ac872c5897e1c",
      "hash": "a2d3511d22fb1e1984d0a482ccf5b44192bb1bc6278dd9c1f96ac872c5897e1c",
      "version": 1,
      "size": 226,
      "vsize": 226,
      "locktime": 0,
      "vin": [
        {
          "txid": "291d53dc1f55d9f13207834f75fcccf659b596af45de82a73659905bdad8b63e",
          "vout": 1,
          "scriptSig": {
            "asm": "30450221008b34fed5ae0ffa43cd4fe6d589234746ef9c1f69d79bd2c9359cf55d0716058502202a157689cf524d42871774f8e47f4cf689c5186067e35c7b89e995c390eb8fce[ALL] 02019dfa17c5ac9ce563b3b88305126af3622e0ef770cf27045380a6cd12ca6177",
            "hex": "4830450221008b34fed5ae0ffa43cd4fe6d589234746ef9c1f69d79bd2c9359cf55d0716058502202a157689cf524d42871774f8e47f4cf689c5186067e35c7b89e995c390eb8fce012102019dfa17c5ac9ce563b3b88305126af3622e0ef770cf27045380a6cd12ca6177"
          },
          "sequence": 4294967295
        }
      ],
      "vout": [
        {
          "value": 0.65312257,
          "n": 0,
          "scriptPubKey": {
            "asm": "OP_DUP OP_HASH160 07e7535651c24a3180e774f342831e11d94c1091 OP_EQUALVERIFY OP_CHECKSIG",
            "hex": "76a91407e7535651c24a3180e774f342831e11d94c109188ac",
            "reqSigs": 1,
            "type": "pubkeyhash",
            "addresses": [
              "LKwk7LRzrE5xf2AGu7vVCjPBRBRww6voRc"
            ]
          }
        }, 
        {
          "value": 86.32341306,
          "n": 1,
          "scriptPubKey": {
            "asm": "OP_DUP OP_HASH160 7788e13650764e62193b9e05acf14e683fabca0e OP_EQUALVERIFY OP_CHECKSIG",
            "hex": "76a9147788e13650764e62193b9e05acf14e683fabca0e88ac",
            "reqSigs": 1,
            "type": "pubkeyhash",
            "addresses": [
              "LW7zecRX9Xi9oaioF4x2zFz3FJVE3jGAN4"
            ]
          }
        }
      ],
      "hex": "01000000013eb6d8da5b905936a782de45af96b559f6ccfc754f830732f1d9551fdc531d29010000006b4830450221008b34fed5ae0ffa43cd4fe6d589234746ef9c1f69d79bd2c9359cf55d0716058502202a157689cf524d42871774f8e47f4cf689c5186067e35c7b89e995c390eb8fce012102019dfa17c5ac9ce563b3b88305126af3622e0ef770cf27045380a6cd12ca6177ffffffff020196e403000000001976a91407e7535651c24a3180e774f342831e11d94c109188ac3a138702020000001976a9147788e13650764e62193b9e05acf14e683fabca0e88ac00000000"
    }, 
    {
      "txid": "10d5ece58ee555f36aca00488756f3e37afac5781f32bead8f22ec353e070e4e",
      "hash": "10d5ece58ee555f36aca00488756f3e37afac5781f32bead8f22ec353e070e4e",
      "version": 2,
      "size": 226,
      "vsize": 226,
      "locktime": 1358726,
      "vin": [
        {
          "txid": "e2dfc9fdd1cc829235e236eb2a4674d59484822cc81d5664cbaa6b9a34d3073e",
          "vout": 3,
          "scriptSig": {
            "asm": "3045022100d4dbeb90e6d1dedbc44ec28c2186a50d9ac10b2db36d0b6221f79fda13bdcd2e02202695c5b9290f3e7c45158d03dd634c373b067562d24dd92674f3b28c3b6a2095[ALL] 038ba189913b42ac26de55ebefa5da329631634331b2d662d2d8e96fd1f2320511",
            "hex": "483045022100d4dbeb90e6d1dedbc44ec28c2186a50d9ac10b2db36d0b6221f79fda13bdcd2e02202695c5b9290f3e7c45158d03dd634c373b067562d24dd92674f3b28c3b6a20950121038ba189913b42ac26de55ebefa5da329631634331b2d662d2d8e96fd1f2320511"
          },
          "sequence": 4294967294
        }
      ],
      "vout": [
        {
          "value": 2.24457600,
          "n": 0,
          "scriptPubKey": {
            "asm": "OP_DUP OP_HASH160 86fd09a44c7512db6d5e8aedcc1e5e3467c914b6 OP_EQUALVERIFY OP_CHECKSIG",
            "hex": "76a91486fd09a44c7512db6d5e8aedcc1e5e3467c914b688ac",
            "reqSigs": 1,
            "type": "pubkeyhash",
            "addresses": [
              "LXXhwHPTQoisJ7zojzK9NnHLwgyugTCubc"
            ]
          }
        }, 
        {
          "value": 0.83897800,
          "n": 1,
          "scriptPubKey": {
            "asm": "OP_DUP OP_HASH160 9a6b198d21fd99c00dc60713f8f1732af31d8e67 OP_EQUALVERIFY OP_CHECKSIG",
            "hex": "76a9149a6b198d21fd99c00dc60713f8f1732af31d8e6788ac",
            "reqSigs": 1,
            "type": "pubkeyhash",
            "addresses": [
              "LZJSdBQEbEe1GfE2FULnehSSfeD1tLinoP"
            ]
          }
        }
      ],
      "hex": "02000000013e07d3349a6baacb64561dc82c828494d574462aeb36e2359282ccd1fdc9dfe2030000006b483045022100d4dbeb90e6d1dedbc44ec28c2186a50d9ac10b2db36d0b6221f79fda13bdcd2e02202695c5b9290f3e7c45158d03dd634c373b067562d24dd92674f3b28c3b6a20950121038ba189913b42ac26de55ebefa5da329631634331b2d662d2d8e96fd1f2320511feffffff0280f3600d000000001976a91486fd09a44c7512db6d5e8aedcc1e5e3467c914b688acc82d0005000000001976a9149a6b198d21fd99c00dc60713f8f1732af31d8e6788ac86bb1400"
    }, 
    {
      "txid": "8c8e2581f2eb2653cefd0b21544bd9a6d3bfb01a8bd243a24764c33944334e73",
      "hash": "8c8e2581f2eb2653cefd0b21544bd9a6d3bfb01a8bd243a24764c33944334e73",
      "version": 1,
      "size": 226,
      "vsize": 226,
      "locktime": 1358813,
      "vin": [
        {
          "txid": "4e55cb8bb83916c3dfcd3f8bd27ef0c61e03610e0f2d5f85827dc85d58cc809a",
          "vout": 1,
          "scriptSig": {
            "asm": "3045022100afc7ce8b734b79f164b1aa0791de404e90466a940049f643a64b4b73d81fc75c022007dc6d89f5831d0b6b75583233ba7d544121354e2ce28a66177aa406d7e91f94[ALL] 0285424da3136650a0d80f9fddd0bb4eb0b72485c3fe4a34c8afcd4a2205628ee3",
            "hex": "483045022100afc7ce8b734b79f164b1aa0791de404e90466a940049f643a64b4b73d81fc75c022007dc6d89f5831d0b6b75583233ba7d544121354e2ce28a66177aa406d7e91f9401210285424da3136650a0d80f9fddd0bb4eb0b72485c3fe4a34c8afcd4a2205628ee3"
          },
          "sequence": 4294967294
        }
      ],
      "vout": [
        {
          "value": 0.08805208,
          "n": 0,
          "scriptPubKey": {
            "asm": "OP_DUP OP_HASH160 23595e58dc5a17d873d096da082320bb31e73d32 OP_EQUALVERIFY OP_CHECKSIG",
            "hex": "76a91423595e58dc5a17d873d096da082320bb31e73d3288ac",
            "reqSigs": 1,
            "type": "pubkeyhash",
            "addresses": [
              "LNSryMy95U8iRiwuBP3ToUesnVcCKPaQs6"
            ]
          }
        }, 
        {
          "value": 1.08361845,
          "n": 1,
          "scriptPubKey": {
            "asm": "OP_DUP OP_HASH160 4fd2620aa313ea544b4da84bfca3c704981a616e OP_EQUALVERIFY OP_CHECKSIG",
            "hex": "76a9144fd2620aa313ea544b4da84bfca3c704981a616e88ac",
            "reqSigs": 1,
            "type": "pubkeyhash",
            "addresses": [
              "LSW1g2sAfkLB2rvB7rtECdcKM1GCkmEKcw"
            ]
          }
        }
      ],
      "hex": "01000000019a80cc585dc87d82855f2d0f0e61031ec6f07ed28b3fcddfc31639b88bcb554e010000006b483045022100afc7ce8b734b79f164b1aa0791de404e90466a940049f643a64b4b73d81fc75c022007dc6d89f5831d0b6b75583233ba7d544121354e2ce28a66177aa406d7e91f9401210285424da3136650a0d80f9fddd0bb4eb0b72485c3fe4a34c8afcd4a2205628ee3feffffff02585b8600000000001976a91423595e58dc5a17d873d096da082320bb31e73d3288ac75787506000000001976a9144fd2620aa313ea544b4da84bfca3c704981a616e88acddbb1400"
    }, 
    {
      "txid": "d10a61c1f6e7b39f3145690aacdc28fd0586b9933951ac03bde4ebe7892290e8",
      "hash": "d10a61c1f6e7b39f3145690aacdc28fd0586b9933951ac03bde4ebe7892290e8",
      "version": 1,
      "size": 226,
      "vsize": 226,
      "locktime": 0,
      "vin": [
        {
          "txid": "c7884c8050a916d6dd7e030a65afa96b2d9199df59c07b52cd3813d605b4178f",
          "vout": 1,
          "scriptSig": {
            "asm": "3045022100cac0b7bb670169130505d04c85e4d3c5f408d58e83ad07422e7aa608e781867502200a5e1f031372c411a7b23ffda1be099a3a5ec7673d361c3493a16fe826eb6c23[ALL] 0361d52c2c82506cfc29d29fc3bc2f7cc5a2ca2b9dea05d07b0fded342f8bfc8b9",
            "hex": "483045022100cac0b7bb670169130505d04c85e4d3c5f408d58e83ad07422e7aa608e781867502200a5e1f031372c411a7b23ffda1be099a3a5ec7673d361c3493a16fe826eb6c2301210361d52c2c82506cfc29d29fc3bc2f7cc5a2ca2b9dea05d07b0fded342f8bfc8b9"
          },
          "sequence": 4294967295
        }
      ],
      "vout": [
        {
          "value": 1.00000000,
          "n": 0,
          "scriptPubKey": {
            "asm": "OP_DUP OP_HASH160 3344e5088f363bef1695f94a88321fb9794387c6 OP_EQUALVERIFY OP_CHECKSIG",
            "hex": "76a9143344e5088f363bef1695f94a88321fb9794387c688ac",
            "reqSigs": 1,
            "type": "pubkeyhash",
            "addresses": [
              "LPu3Ft5FSMgzW1vJxLQGzY2kxaJxswVhbW"
            ]
          }
        }, 
        {
          "value": 83.38176344,
          "n": 1,
          "scriptPubKey": {
            "asm": "OP_DUP OP_HASH160 bec8ef2f4d68912ff3f9b710f5d5fe84ee10d457 OP_EQUALVERIFY OP_CHECKSIG",
            "hex": "76a914bec8ef2f4d68912ff3f9b710f5d5fe84ee10d45788ac",
            "reqSigs": 1,
            "type": "pubkeyhash",
            "addresses": [
              "LccjMpcm13LL87rZ8ZAWtgyyZnkiTKsxA7"
            ]
          }
        }
      ],
      "hex": "01000000018f17b405d61338cd527bc059df99912d6ba9af650a037eddd616a950804c88c7010000006b483045022100cac0b7bb670169130505d04c85e4d3c5f408d58e83ad07422e7aa608e781867502200a5e1f031372c411a7b23ffda1be099a3a5ec7673d361c3493a16fe826eb6c2301210361d52c2c82506cfc29d29fc3bc2f7cc5a2ca2b9dea05d07b0fded342f8bfc8b9ffffffff0200e1f505000000001976a9143344e5088f363bef1695f94a88321fb9794387c688ac5879fef0010000001976a914bec8ef2f4d68912ff3f9b710f5d5fe84ee10d45788ac00000000"
    }
  ],
  "time": 1517195537,
  "mediantime": 1517194733,
  "nonce": 1705410699,
  "bits": "1a042eae",
  "difficulty": 4011378.762614286,
  "chainwork": "0000000000000000000000000000000000000000000000336c4ca2ad6df4d4c0",
  "previousblockhash": "5701a7814f0f63b0d99fc262c3450855d397f1600fe598e3a0f67ec0ed358ee1",
  "nextblockhash": "424afe87d8267de8392b4447d7d318914913e6994a7439cd74553bdaadd54e71"
}
