{
  "hash": "f3fedad993225f5378703ea1fdf11676eff3850e759efa0662ba0535967e9ba0",
  "confirmations": 3532,
  "strippedsize": 234,
  "size": 234,
  "weight": 936,
  "height": 1357463,
  "version": 536870912,
  "versionHex": "20000000",
  "merkleroot": "0d6fa9748ac51a6ae40e751c9a4c94ab4019100116f3c18429f91dc2181a04ce",
  "tx": [
    {
      "txid": "0d6fa9748ac51a6ae40e751c9a4c94ab4019100116f3c18429f91dc2181a04ce",
      "hash": "0d6fa9748ac51a6ae40e751c9a4c94ab4019100116f3c18429f91dc2181a04ce",
      "version": 1,
      "size": 153,
      "vsize": 153,
      "locktime": 0,
      "vin": [
        {
          "coinbase": "0397b614045a6bacea2cfabe6d6d4acec5f7fc64788e1b4aee677586baa125f3ea378155da95cdaf2fe641f1f7ab4000000000000000042f4c502f0816003a6f0c000000",
          "sequence": 4294967295
        }
      ],
      "vout": [
        {
          "value": 25.00000000,
          "n": 0,
          "scriptPubKey": {
            "asm": "OP_DUP OP_HASH160 57757ed2ecf2052ff3126c397aca7defb9ca2cec OP_EQUALVERIFY OP_CHECKSIG",
            "hex": "76a91457757ed2ecf2052ff3126c397aca7defb9ca2cec88ac",
            "reqSigs": 1,
            "type": "pubkeyhash",
            "addresses": [
              "LTCPodGk5FwcJaRzH9yKnwicxzFUbxp6tN"
            ]
          }
        }
      ],
      "hex": "01000000010000000000000000000000000000000000000000000000000000000000000000ffffffff440397b614045a6bacea2cfabe6d6d4acec5f7fc64788e1b4aee677586baa125f3ea378155da95cdaf2fe641f1f7ab4000000000000000042f4c502f0816003a6f0c000000ffffffff0100f90295000000001976a91457757ed2ecf2052ff3126c397aca7defb9ca2cec88ac00000000"
    }
  ],
  "time": 1517006058,
  "mediantime": 1517005761,
  "nonce": 1389037065,
  "bits": "1a047f14",
  "difficulty": 3731199.183374282,
  "chainwork": "0000000000000000000000000000000000000000000000323f147352c96dbe70",
  "previousblockhash": "7e4cfbcb6ffa7124222cd14f609906386732f33af788053d785393af836af841",
  "nextblockhash": "7b620398bc323dc708d363480727a6dc8d9410d05068dd42afe5a3046eb2cac5"
}
