{
  "hash": "f406d265961fcb81f26d0a824b669e5be56527e91aba8addc0d3a5197fdeec30",
  "confirmations": 2622,
  "strippedsize": 4512,
  "size": 4769,
  "weight": 18305,
  "height": 1358373,
  "version": 536870912,
  "versionHex": "20000000",
  "merkleroot": "5345d77cf814ff61ea4c7db684e298309ace94a6587291c5f09c27c80471cbec",
  "tx": [
    {
      "txid": "89ad89439d4f47bed89ab38c2428ed9a8aa6b558131a5dfac181fec36bacac05",
      "hash": "56f6639c2cb6d527a9c5d56aa252afc229aac72f1096ad595d828ded90b9dc4d",
      "version": 1,
      "size": 244,
      "vsize": 217,
      "locktime": 0,
      "vin": [
        {
          "coinbase": "0325ba1404519c6d5a0801870a430e000000fabe6d6d71e06cf972f9b21f5ad92a1d62a807e2d47be30327f1f39f984e51d0082caf5740000000000000000d2f6e6f64655374726174756d2f",
          "sequence": 0
        }
      ],
      "vout": [
        {
          "value": 25.01254589,
          "n": 0,
          "scriptPubKey": {
            "asm": "OP_DUP OP_HASH160 0c617fdb2ea42aed30a509595ee21ba3f6688db0 OP_EQUALVERIFY OP_CHECKSIG",
            "hex": "76a9140c617fdb2ea42aed30a509595ee21ba3f6688db088ac",
            "reqSigs": 1,
            "type": "pubkeyhash",
            "addresses": [
              "LLMRAtr3qBje2ySEa3CnZ55LA4TQMWnRY3"
            ]
          }
        }, 
        {
          "value": 0.00000000,
          "n": 1,
          "scriptPubKey": {
            "asm": "OP_RETURN aa21a9ed8436e0bb4da2d3291e8287e1a4072d3d1418da7ac8fb895c1469d3664f1d84ab",
            "hex": "6a24aa21a9ed8436e0bb4da2d3291e8287e1a4072d3d1418da7ac8fb895c1469d3664f1d84ab",
            "type": "nulldata"
          }
        }
      ],
      "hex": "010000000001010000000000000000000000000000000000000000000000000000000000000000ffffffff4c0325ba1404519c6d5a0801870a430e000000fabe6d6d71e06cf972f9b21f5ad92a1d62a807e2d47be30327f1f39f984e51d0082caf5740000000000000000d2f6e6f64655374726174756d2f0000000002bd1d1695000000001976a9140c617fdb2ea42aed30a509595ee21ba3f6688db088ac0000000000000000266a24aa21a9ed8436e0bb4da2d3291e8287e1a4072d3d1418da7ac8fb895c1469d3664f1d84ab0120000000000000000000000000000000000000000000000000000000000000000000000000"
    }, 
    {
      "txid": "0e258ad3e10b06bc01a8270d9a05ec9305f8e0fc13d17220a8416c8d5c89d7f2",
      "hash": "0e258ad3e10b06bc01a8270d9a05ec9305f8e0fc13d17220a8416c8d5c89d7f2",
      "version": 1,
      "size": 226,
      "vsize": 226,
      "locktime": 0,
      "vin": [
        {
          "txid": "8dc1d96b8ae19f492338a303cafc5d854559eebb28d2fa763750a6e0ed24214e",
          "vout": 1,
          "scriptSig": {
            "asm": "3045022100d856983701a2a0537c25a50e986987d533f3151c5e43f2e845843aa26695f613022074091add3461ccb2c06cb0fbf91785da54ca4c85e4d3b9e73040b20541252cef[ALL] 0223886c57c031945b740eab225d0fb24d33f7fe051a04e4cdcee39a26df2d4b7c",
            "hex": "483045022100d856983701a2a0537c25a50e986987d533f3151c5e43f2e845843aa26695f613022074091add3461ccb2c06cb0fbf91785da54ca4c85e4d3b9e73040b20541252cef01210223886c57c031945b740eab225d0fb24d33f7fe051a04e4cdcee39a26df2d4b7c"
          },
          "sequence": 4294967295
        }
      ],
      "vout": [
        {
          "value": 0.07888629,
          "n": 0,
          "scriptPubKey": {
            "asm": "OP_DUP OP_HASH160 da1f6caba2661fa0c0f007cb8d2289d66e579440 OP_EQUALVERIFY OP_CHECKSIG",
            "hex": "76a914da1f6caba2661fa0c0f007cb8d2289d66e57944088ac",
            "reqSigs": 1,
            "type": "pubkeyhash",
            "addresses": [
              "Lf7HDSiQmmRuf2MY1Qmuq2yPkfKiykDMN4"
            ]
          }
        }, 
        {
          "value": 0.01000059,
          "n": 1,
          "scriptPubKey": {
            "asm": "OP_DUP OP_HASH160 0c74955f7e6cabbf974ed330e56f4990f1113936 OP_EQUALVERIFY OP_CHECKSIG",
            "hex": "76a9140c74955f7e6cabbf974ed330e56f4990f111393688ac",
            "reqSigs": 1,
            "type": "pubkeyhash",
            "addresses": [
              "LLMp2ss2z8NMD2q2Mrq4cBPHRaKXF7jLdp"
            ]
          }
        }
      ],
      "hex": "01000000014e2124ede0a6503776fad228bbee5945855dfcca03a33823499fe18a6bd9c18d010000006b483045022100d856983701a2a0537c25a50e986987d533f3151c5e43f2e845843aa26695f613022074091add3461ccb2c06cb0fbf91785da54ca4c85e4d3b9e73040b20541252cef01210223886c57c031945b740eab225d0fb24d33f7fe051a04e4cdcee39a26df2d4b7cffffffff02f55e7800000000001976a914da1f6caba2661fa0c0f007cb8d2289d66e57944088ac7b420f00000000001976a9140c74955f7e6cabbf974ed330e56f4990f111393688ac00000000"
    }, 
    {
      "txid": "2fe515a0abcf0167fa4c8cc18e1cdd5114df3c0a9ff0e089b5e89b97ebdeee27",
      "hash": "2fe515a0abcf0167fa4c8cc18e1cdd5114df3c0a9ff0e089b5e89b97ebdeee27",
      "version": 1,
      "size": 408,
      "vsize": 408,
      "locktime": 0,
      "vin": [
        {
          "txid": "c188d11e10abc5ad22080623bb4704f38000e008fc77e1f4f70ec78cbc3283e5",
          "vout": 1,
          "scriptSig": {
            "asm": "3045022100ab0ffc1745454401be86ae662258bd4e074401ef5cf5ec9cba143b132fc74ca302203d8884ef1f7d52a436bfd2e89264991d4f2070bb29863f13a41df167e6b45526[ALL] 039f4d7ebd94573ddfd0dd9ca39a18f890431eaef6e8a5dd839c50e85bf1c8d4d4",
            "hex": "483045022100ab0ffc1745454401be86ae662258bd4e074401ef5cf5ec9cba143b132fc74ca302203d8884ef1f7d52a436bfd2e89264991d4f2070bb29863f13a41df167e6b455260121039f4d7ebd94573ddfd0dd9ca39a18f890431eaef6e8a5dd839c50e85bf1c8d4d4"
          },
          "sequence": 4294967295
        }, 
        {
          "txid": "662036e9319d313dbf4089e011b1d0c39a4315be29f1e2f13fb91cf6f84329b9",
          "vout": 20,
          "scriptSig": {
            "asm": "3045022100e7779b74a4f9c31c4aaaae05c007c56293881c89ffae11b9aa88263c2c0a402902205b913757838c6a1ded050b1d72526205c609ba574c0f39f1193094f57972c97d[ALL] 038decf680a32693cccfbae90ea6e9ab0bf4a1349a1216cdff5fbe6a3503211814",
            "hex": "483045022100e7779b74a4f9c31c4aaaae05c007c56293881c89ffae11b9aa88263c2c0a402902205b913757838c6a1ded050b1d72526205c609ba574c0f39f1193094f57972c97d0121038decf680a32693cccfbae90ea6e9ab0bf4a1349a1216cdff5fbe6a3503211814"
          },
          "sequence": 4294967295
        }
      ],
      "vout": [
        {
          "value": 0.99269440,
          "n": 0,
          "scriptPubKey": {
            "asm": "OP_DUP OP_HASH160 07f4ba11419f439c88c784c9f4923d8f3f39009a OP_EQUALVERIFY OP_CHECKSIG",
            "hex": "76a91407f4ba11419f439c88c784c9f4923d8f3f39009a88ac",
            "reqSigs": 1,
            "type": "pubkeyhash",
            "addresses": [
              "LKx2AUS4EkkZHn8hXpB697kXuh2dSn5dbG"
            ]
          }
        }, 
        {
          "value": 0.51456680,
          "n": 1,
          "scriptPubKey": {
            "asm": "OP_DUP OP_HASH160 83b1a482f76b3220009b599d422a1cf97b32f239 OP_EQUALVERIFY OP_CHECKSIG",
            "hex": "76a91483b1a482f76b3220009b599d422a1cf97b32f23988ac",
            "reqSigs": 1,
            "type": "pubkeyhash",
            "addresses": [
              "LXEHbAjcNmEusHz2f3EnDm9fpMseXxq7Jo"
            ]
          }
        }, 
        {
          "value": 3.88885352,
          "n": 2,
          "scriptPubKey": {
            "asm": "OP_DUP OP_HASH160 7adf04cad0df7033758ebc60081fda49599ac531 OP_EQUALVERIFY OP_CHECKSIG",
            "hex": "76a9147adf04cad0df7033758ebc60081fda49599ac53188ac",
            "reqSigs": 1,
            "type": "pubkeyhash",
            "addresses": [
              "LWRdsEDMZoSDqhnzGzKNt7uVFGpCUMcEcX"
            ]
          }
        }
      ],
      "hex": "0100000002e58332bc8cc70ef7f4e177fc08e00080f30447bb23060822adc5ab101ed188c1010000006b483045022100ab0ffc1745454401be86ae662258bd4e074401ef5cf5ec9cba143b132fc74ca302203d8884ef1f7d52a436bfd2e89264991d4f2070bb29863f13a41df167e6b455260121039f4d7ebd94573ddfd0dd9ca39a18f890431eaef6e8a5dd839c50e85bf1c8d4d4ffffffffb92943f8f61cb93ff1e2f129be15439ac3d0b111e08940bf3d319d31e9362066140000006b483045022100e7779b74a4f9c31c4aaaae05c007c56293881c89ffae11b9aa88263c2c0a402902205b913757838c6a1ded050b1d72526205c609ba574c0f39f1193094f57972c97d0121038decf680a32693cccfbae90ea6e9ab0bf4a1349a1216cdff5fbe6a3503211814ffffffff0340bbea05000000001976a91407f4ba11419f439c88c784c9f4923d8f3f39009a88aca82a1103000000001976a91483b1a482f76b3220009b599d422a1cf97b32f23988ac68eb2d17000000001976a9147adf04cad0df7033758ebc60081fda49599ac53188ac00000000"
    }, 
    {
      "txid": "d3cfd570b08e8f51df20009c06d9f7b859febd0b0462f8c80b25090afb04486f",
      "hash": "d3cfd570b08e8f51df20009c06d9f7b859febd0b0462f8c80b25090afb04486f",
      "version": 1,
      "size": 191,
      "vsize": 191,
      "locktime": 0,
      "vin": [
        {
          "txid": "1537ba3c14c839be2d24c1853f4d92814c3cfeb177133b2402f580dd618735db",
          "vout": 0,
          "scriptSig": {
            "asm": "304402202b6ab06864e5648597f99f0f83fa440ecb3ffd071f76d5b97ee5fd72a8b7828702207da273ccb50e768008dff7917f8bb298345bf6fb80a6b71dfeed6abff30c2ca4[ALL] 0384d28f357eb58c223f4b45e9a0d038ff0270d2ec17b58c9f93069983739a3b60",
            "hex": "47304402202b6ab06864e5648597f99f0f83fa440ecb3ffd071f76d5b97ee5fd72a8b7828702207da273ccb50e768008dff7917f8bb298345bf6fb80a6b71dfeed6abff30c2ca401210384d28f357eb58c223f4b45e9a0d038ff0270d2ec17b58c9f93069983739a3b60"
          },
          "sequence": 4294967295
        }
      ],
      "vout": [
        {
          "value": 0.92167246,
          "n": 0,
          "scriptPubKey": {
            "asm": "OP_DUP OP_HASH160 ccaa51344c531b35c4ccb206cdd5c0034b384831 OP_EQUALVERIFY OP_CHECKSIG",
            "hex": "76a914ccaa51344c531b35c4ccb206cdd5c0034b38483188ac",
            "reqSigs": 1,
            "type": "pubkeyhash",
            "addresses": [
              "Ldt89CAHVbexrfpBCPkLKbxrLPty3Qw1Ex"
            ]
          }
        }
      ],
      "hex": "0100000001db358761dd80f502243b1377b1fe3c4c81924d3f85c1242dbe39c8143cba3715000000006a47304402202b6ab06864e5648597f99f0f83fa440ecb3ffd071f76d5b97ee5fd72a8b7828702207da273ccb50e768008dff7917f8bb298345bf6fb80a6b71dfeed6abff30c2ca401210384d28f357eb58c223f4b45e9a0d038ff0270d2ec17b58c9f93069983739a3b60ffffffff014e5c7e05000000001976a914ccaa51344c531b35c4ccb206cdd5c0034b38483188ac00000000"
    }, 
    {
      "txid": "b0d8db4147dc6a6c5004ffc890e4b40bdcda6c18a653e051f6d66258e8b8074a",
      "hash": "b0d8db4147dc6a6c5004ffc890e4b40bdcda6c18a653e051f6d66258e8b8074a",
      "version": 1,
      "size": 334,
      "vsize": 334,
      "locktime": 0,
      "vin": [
        {
          "txid": "89e8ccea8f613425f1ccbb150f2d91fc67700786d40828f26a9c0f34e3e1ddbb",
          "vout": 1,
          "scriptSig": {
            "asm": "0 304302206f7bba78899495adc12875f85de72d1272b8d4ae7639f60c5ccb63c08ee32839021f1134c7a434e3110a9ea9184327dbcdd07d1b594b2ee7f040770585de254115[ALL] 3045022100dc3bd7cd132a6abffb7d16819f7cd4803991e7665ad39fb266fce9786a318efd02200697f171e971bd532fb77f9ea17235cf16efef3e00d5adba852fe4808fa83651[ALL] 522102f77ec37a042ba4e5e6aef7760398bf59b87ac4c5dee30a2fb8798e9630d4916e210276b93401dc495b28592f66411a7c9093b468f8678db51144fc6a36f550d94aa952ae",
            "hex": "0046304302206f7bba78899495adc12875f85de72d1272b8d4ae7639f60c5ccb63c08ee32839021f1134c7a434e3110a9ea9184327dbcdd07d1b594b2ee7f040770585de25411501483045022100dc3bd7cd132a6abffb7d16819f7cd4803991e7665ad39fb266fce9786a318efd02200697f171e971bd532fb77f9ea17235cf16efef3e00d5adba852fe4808fa836510147522102f77ec37a042ba4e5e6aef7760398bf59b87ac4c5dee30a2fb8798e9630d4916e210276b93401dc495b28592f66411a7c9093b468f8678db51144fc6a36f550d94aa952ae"
          },
          "sequence": 4294967295
        }
      ],
      "vout": [
        {
          "value": 0.15528700,
          "n": 0,
          "scriptPubKey": {
            "asm": "OP_DUP OP_HASH160 c61d871893258d785111182e071d96a0b84259d0 OP_EQUALVERIFY OP_CHECKSIG",
            "hex": "76a914c61d871893258d785111182e071d96a0b84259d088ac",
            "reqSigs": 1,
            "type": "pubkeyhash",
            "addresses": [
              "LdHVRpMeuK2s8RfKrX4J222BD8nY7te64z"
            ]
          }
        }, 
        {
          "value": 27.05158400,
          "n": 1,
          "scriptPubKey": {
            "asm": "OP_HASH160 75b77316f8d91ff71fb2819115d1b6b9e80ccee9 OP_EQUAL",
            "hex": "a91475b77316f8d91ff71fb2819115d1b6b9e80ccee987",
            "reqSigs": 1,
            "type": "scripthash",
            "addresses": [
              "MJdb4B3BMDrfpB1FpKsPYQ1tDHdkNa1oLB"
            ]
          }
        }
      ],
      "hex": "0100000001bbdde1e3340f9c6af22808d486077067fc912d0f15bbccf12534618feacce88901000000d90046304302206f7bba78899495adc12875f85de72d1272b8d4ae7639f60c5ccb63c08ee32839021f1134c7a434e3110a9ea9184327dbcdd07d1b594b2ee7f040770585de25411501483045022100dc3bd7cd132a6abffb7d16819f7cd4803991e7665ad39fb266fce9786a318efd02200697f171e971bd532fb77f9ea17235cf16efef3e00d5adba852fe4808fa836510147522102f77ec37a042ba4e5e6aef7760398bf59b87ac4c5dee30a2fb8798e9630d4916e210276b93401dc495b28592f66411a7c9093b468f8678db51144fc6a36f550d94aa952aeffffffff02fcf2ec00000000001976a914c61d871893258d785111182e071d96a0b84259d088ac00713da10000000017a91475b77316f8d91ff71fb2819115d1b6b9e80ccee98700000000"
    }, 
    {
      "txid": "9da0cc8c904d78cda8781e0c65121049e20acc4458dc21fa621cf4eef8b43310",
      "hash": "9da0cc8c904d78cda8781e0c65121049e20acc4458dc21fa621cf4eef8b43310",
      "version": 1,
      "size": 225,
      "vsize": 225,
      "locktime": 0,
      "vin": [
        {
          "txid": "b9ad4e0c9350b0fba4da64b594dd348be02fd770b07737f0b936a7889bd87089",
          "vout": 452,
          "scriptSig": {
            "asm": "304402203c331a35514fdba2c371c8049655ac7a3e4d0ad3dd9418e9df76ec3347843fc2022005315059d2fe55659f70d9ea68dd231cc4f3cf8e70271540bd5c020ba0d4aa81[ALL] 0235a245a9700b80ae11faf1ecf91d8fef32fbc8ff64d6dcdb7a548c0c7cf5ec96",
            "hex": "47304402203c331a35514fdba2c371c8049655ac7a3e4d0ad3dd9418e9df76ec3347843fc2022005315059d2fe55659f70d9ea68dd231cc4f3cf8e70271540bd5c020ba0d4aa8101210235a245a9700b80ae11faf1ecf91d8fef32fbc8ff64d6dcdb7a548c0c7cf5ec96"
          },
          "sequence": 4294967295
        }
      ],
      "vout": [
        {
          "value": 1.53806681,
          "n": 0,
          "scriptPubKey": {
            "asm": "OP_DUP OP_HASH160 ad585702864dd56ccb30059a0a3a2795b41a85be OP_EQUALVERIFY OP_CHECKSIG",
            "hex": "76a914ad585702864dd56ccb30059a0a3a2795b41a85be88ac",
            "reqSigs": 1,
            "type": "pubkeyhash",
            "addresses": [
              "Lb2WzMy35id6xvNzMrUxBcPDuRyN6bbcUt"
            ]
          }
        }, 
        {
          "value": 1.00000000,
          "n": 1,
          "scriptPubKey": {
            "asm": "OP_DUP OP_HASH160 682b5093ae36002431d8c9130d514f4b5b089be2 OP_EQUALVERIFY OP_CHECKSIG",
            "hex": "76a914682b5093ae36002431d8c9130d514f4b5b089be288ac",
            "reqSigs": 1,
            "type": "pubkeyhash",
            "addresses": [
              "LUikRj1r3kM1f5DVh5JkndSpknGYJrsgXG"
            ]
          }
        }
      ],
      "hex": "01000000018970d89b88a736b9f03777b070d72fe08b34dd94b564daa4fbb050930c4eadb9c40100006a47304402203c331a35514fdba2c371c8049655ac7a3e4d0ad3dd9418e9df76ec3347843fc2022005315059d2fe55659f70d9ea68dd231cc4f3cf8e70271540bd5c020ba0d4aa8101210235a245a9700b80ae11faf1ecf91d8fef32fbc8ff64d6dcdb7a548c0c7cf5ec96ffffffff0259e72a09000000001976a914ad585702864dd56ccb30059a0a3a2795b41a85be88ac00e1f505000000001976a914682b5093ae36002431d8c9130d514f4b5b089be288ac00000000"
    }, 
    {
      "txid": "a5848daef81f7c365b5c81fa1e99fc56dd5296e48e1322e5459d4972c004bf31",
      "hash": "fd3fd675ee1099704982c3a8eab9acb35f2616d79537f2b179b6641f8c4f2f37",
      "version": 1,
      "size": 373,
      "vsize": 208,
      "locktime": 0,
      "vin": [
        {
          "txid": "b3f9060e5646db774d45ab22c8bf087e006dc00fe257729f19a4c428f1a93e7a",
          "vout": 1,
          "scriptSig": {
            "asm": "0020409fd93c7351b461fa46963fa28755038f397ee054ab9e56eda0b1081d768cc4",
            "hex": "220020409fd93c7351b461fa46963fa28755038f397ee054ab9e56eda0b1081d768cc4"
          },
          "txinwitness": [
            "", 
            "30450221008fe1593b849e506cefd0366edcb60446de522907c2a0144ea21424def3fcaa5a022039de87299e0bb426eaa3669a0f37c0f56a2b3ad3f6abc9dd8e2026cba918ba9c01", 
            "3044022033a0ba4ed88c077044449c9b07ce00cebd3e2bb59c2b7556ff90166965accfd9022066038d73e411d6657695d34a165d9fc96c9c895652e2c1379cb1f3094f0c302c01", 
            "522103ceb293b39e087131961da42b3deaef48432d57a08bfd111247901be2936525b32103fa185b0d6c2a6d812d1a9418c54b3cea527d229a73a0c6c72345a1851ebcdad352ae"
          ],
          "sequence": 4294967295
        }
      ],
      "vout": [
        {
          "value": 0.05208300,
          "n": 0,
          "scriptPubKey": {
            "asm": "OP_DUP OP_HASH160 0ee8e4b91f0243fd42486e2016eda69394fac4fe OP_EQUALVERIFY OP_CHECKSIG",
            "hex": "76a9140ee8e4b91f0243fd42486e2016eda69394fac4fe88ac",
            "reqSigs": 1,
            "type": "pubkeyhash",
            "addresses": [
              "LLanicsH4AChBa9RTZDMFgqZ7uYWmTXeAo"
            ]
          }
        }, 
        {
          "value": 0.85287100,
          "n": 1,
          "scriptPubKey": {
            "asm": "OP_HASH160 2d9ba1f1c217fd18a576b17eaf8a1c6f1cd2f1de OP_EQUAL",
            "hex": "a9142d9ba1f1c217fd18a576b17eaf8a1c6f1cd2f1de87",
            "reqSigs": 1,
            "type": "scripthash",
            "addresses": [
              "MC4K5c2x6rcVohDBLrLNQRsqL5atuzztot"
            ]
          }
        }
      ],
      "hex": "010000000001017a3ea9f128c4a4199f7257e20fc06d007e08bfc822ab454d77db46560e06f9b30100000023220020409fd93c7351b461fa46963fa28755038f397ee054ab9e56eda0b1081d768cc4ffffffff02ec784f00000000001976a9140ee8e4b91f0243fd42486e2016eda69394fac4fe88acbc6015050000000017a9142d9ba1f1c217fd18a576b17eaf8a1c6f1cd2f1de8704004830450221008fe1593b849e506cefd0366edcb60446de522907c2a0144ea21424def3fcaa5a022039de87299e0bb426eaa3669a0f37c0f56a2b3ad3f6abc9dd8e2026cba918ba9c01473044022033a0ba4ed88c077044449c9b07ce00cebd3e2bb59c2b7556ff90166965accfd9022066038d73e411d6657695d34a165d9fc96c9c895652e2c1379cb1f3094f0c302c0147522103ceb293b39e087131961da42b3deaef48432d57a08bfd111247901be2936525b32103fa185b0d6c2a6d812d1a9418c54b3cea527d229a73a0c6c72345a1851ebcdad352ae00000000"
    }, 
    {
      "txid": "b96fb2b7cf4b71833b05112f576240e3c54fc7b6ea396f9e8a4ce6ad9de5ba02",
      "hash": "b96fb2b7cf4b71833b05112f576240e3c54fc7b6ea396f9e8a4ce6ad9de5ba02",
      "version": 2,
      "size": 666,
      "vsize": 666,
      "locktime": 0,
      "vin": [
        {
          "txid": "9b9c90393a7e4bc543e4e54722c9cca29a196c019f73a869d963318807324625",
          "vout": 1,
          "scriptSig": {
            "asm": "3044022067ad873e64f009487a80b1708662988c5f01c804204a37bdaa973b1dcb72bce6022021450b5c6e77d2c6a22eff677c9e1c04c3cb263531b92241bf8fb0262c4e1c2d[ALL] 038f9d39a96a75a49024a0370e0d2c46a5feb5d0b88d595e4fe13e7e83b554b32c",
            "hex": "473044022067ad873e64f009487a80b1708662988c5f01c804204a37bdaa973b1dcb72bce6022021450b5c6e77d2c6a22eff677c9e1c04c3cb263531b92241bf8fb0262c4e1c2d0121038f9d39a96a75a49024a0370e0d2c46a5feb5d0b88d595e4fe13e7e83b554b32c"
          },
          "sequence": 4294967295
        }, 
        {
          "txid": "55a267e4c71df8a6c2a87ebf2c220a083c13e9c6104237cd9867d28be0142406",
          "vout": 1,
          "scriptSig": {
            "asm": "304402201ba4d859bae7dfbc20c307075a50406781af1c383fabef66c0ce19d164d70839022040924344ff7afb5b62c7ed158a5b0818e1375a847f3c7c822218757da8917873[ALL] 0249ed268845325edbf7f6f36762cf868b48ab3c0a2663f6693ccd94e889fa51ad",
            "hex": "47304402201ba4d859bae7dfbc20c307075a50406781af1c383fabef66c0ce19d164d70839022040924344ff7afb5b62c7ed158a5b0818e1375a847f3c7c822218757da891787301210249ed268845325edbf7f6f36762cf868b48ab3c0a2663f6693ccd94e889fa51ad"
          },
          "sequence": 4294967295
        }, 
        {
          "txid": "cab4b450d9f705ef61c565eea028ee91fc3657421882cc4bff355b51382c021a",
          "vout": 1,
          "scriptSig": {
            "asm": "3044022009891eddd53d0eaf9392b142eb7bad3eae0b0e62cefbee99bcf3711b2d87da9102200c23d130cc58e958492df52ec2646741458331a0a7f5829f8fbbd7d3ae762451[ALL] 0249ed268845325edbf7f6f36762cf868b48ab3c0a2663f6693ccd94e889fa51ad",
            "hex": "473044022009891eddd53d0eaf9392b142eb7bad3eae0b0e62cefbee99bcf3711b2d87da9102200c23d130cc58e958492df52ec2646741458331a0a7f5829f8fbbd7d3ae76245101210249ed268845325edbf7f6f36762cf868b48ab3c0a2663f6693ccd94e889fa51ad"
          },
          "sequence": 4294967295
        }, 
        {
          "txid": "33624555e2383766076697c9c2eedd4ced4f9f58b7de7cdf25d4cf870f30ddd9",
          "vout": 37,
          "scriptSig": {
            "asm": "3044022031f135c2aa93b9cb23ef3050ba8a57e007cb8ce25cab2be9080cd7494a30b44d02205deb520b9cd4185284898f013290cdc0d4cb03f5f9a1072b9e3a3cdf539a63f1[ALL] 02edff3c305668e30a6bd691a5f6982251bdcaafea7bd65ea80aa61db985c6b849",
            "hex": "473044022031f135c2aa93b9cb23ef3050ba8a57e007cb8ce25cab2be9080cd7494a30b44d02205deb520b9cd4185284898f013290cdc0d4cb03f5f9a1072b9e3a3cdf539a63f1012102edff3c305668e30a6bd691a5f6982251bdcaafea7bd65ea80aa61db985c6b849"
          },
          "sequence": 4294967295
        }
      ],
      "vout": [
        {
          "value": 1.90000000,
          "n": 0,
          "scriptPubKey": {
            "asm": "OP_DUP OP_HASH160 94676ecf25272a195732d69d988b186ba9a57e15 OP_EQUALVERIFY OP_CHECKSIG",
            "hex": "76a91494676ecf25272a195732d69d988b186ba9a57e1588ac",
            "reqSigs": 1,
            "type": "pubkeyhash",
            "addresses": [
              "LYkeBF7kr14NCiMrcszqarWFfRL5HoHSJb"
            ]
          }
        }, 
        {
          "value": 0.18136824,
          "n": 1,
          "scriptPubKey": {
            "asm": "OP_DUP OP_HASH160 90bd92d25dbac1bcdc8e58e1796ad71b49ee642c OP_EQUALVERIFY OP_CHECKSIG",
            "hex": "76a91490bd92d25dbac1bcdc8e58e1796ad71b49ee642c88ac",
            "reqSigs": 1,
            "type": "pubkeyhash",
            "addresses": [
              "LYRGfdqFVegSsfX2gYhm1ChxBb6fB7Y5rN"
            ]
          }
        }
      ],
      "hex": "020000000425463207883163d969a8739f016c199aa2ccc92247e5e443c54b7e3a39909c9b010000006a473044022067ad873e64f009487a80b1708662988c5f01c804204a37bdaa973b1dcb72bce6022021450b5c6e77d2c6a22eff677c9e1c04c3cb263531b92241bf8fb0262c4e1c2d0121038f9d39a96a75a49024a0370e0d2c46a5feb5d0b88d595e4fe13e7e83b554b32cffffffff062414e08bd26798cd374210c6e9133c080a222cbf7ea8c2a6f81dc7e467a255010000006a47304402201ba4d859bae7dfbc20c307075a50406781af1c383fabef66c0ce19d164d70839022040924344ff7afb5b62c7ed158a5b0818e1375a847f3c7c822218757da891787301210249ed268845325edbf7f6f36762cf868b48ab3c0a2663f6693ccd94e889fa51adffffffff1a022c38515b35ff4bcc8218425736fc91ee28a0ee65c561ef05f7d950b4b4ca010000006a473044022009891eddd53d0eaf9392b142eb7bad3eae0b0e62cefbee99bcf3711b2d87da9102200c23d130cc58e958492df52ec2646741458331a0a7f5829f8fbbd7d3ae76245101210249ed268845325edbf7f6f36762cf868b48ab3c0a2663f6693ccd94e889fa51adffffffffd9dd300f87cfd425df7cdeb7589f4fed4cddeec2c9976607663738e255456233250000006a473044022031f135c2aa93b9cb23ef3050ba8a57e007cb8ce25cab2be9080cd7494a30b44d02205deb520b9cd4185284898f013290cdc0d4cb03f5f9a1072b9e3a3cdf539a63f1012102edff3c305668e30a6bd691a5f6982251bdcaafea7bd65ea80aa61db985c6b849ffffffff02802b530b000000001976a91494676ecf25272a195732d69d988b186ba9a57e1588acf8be1401000000001976a91490bd92d25dbac1bcdc8e58e1796ad71b49ee642c88ac00000000"
    }, 
    {
      "txid": "f93704494e724e09d7e327aaab0c0a2b58ba348d55d7233e5b99d09b09e37b4a",
      "hash": "f93704494e724e09d7e327aaab0c0a2b58ba348d55d7233e5b99d09b09e37b4a",
      "version": 1,
      "size": 225,
      "vsize": 225,
      "locktime": 0,
      "vin": [
        {
          "txid": "d75a019018c7cee5e3760252295ed2ce673ffc4ecf170c7fe2f8c6f16ba82f1c",
          "vout": 0,
          "scriptSig": {
            "asm": "304402200a0b58de8a55bea7ec0134d44dfabf102a7afadc3a16626f56ff9490724040440220444ed0f6c632c573b773498420f67b72150dd48449d12f2a277218b65212c2f7[ALL] 026cedc710f7c1114d7e6e587ab2a20e5c424fffd69fb0d88bf5f0e2255093a693",
            "hex": "47304402200a0b58de8a55bea7ec0134d44dfabf102a7afadc3a16626f56ff9490724040440220444ed0f6c632c573b773498420f67b72150dd48449d12f2a277218b65212c2f70121026cedc710f7c1114d7e6e587ab2a20e5c424fffd69fb0d88bf5f0e2255093a693"
          },
          "sequence": 4294967295
        }
      ],
      "vout": [
        {
          "value": 7.31218335,
          "n": 0,
          "scriptPubKey": {
            "asm": "OP_DUP OP_HASH160 7dc645874801e548878967233d3a1dc1cf0c5227 OP_EQUALVERIFY OP_CHECKSIG",
            "hex": "76a9147dc645874801e548878967233d3a1dc1cf0c522788ac",
            "reqSigs": 1,
            "type": "pubkeyhash",
            "addresses": [
              "LWgzFLtjaWAL8rujN4KhiESeebXtxgXZik"
            ]
          }
        }, 
        {
          "value": 10.00000000,
          "n": 1,
          "scriptPubKey": {
            "asm": "OP_DUP OP_HASH160 317fea535fdbaf32e7ae5aab53043ddea66e74d6 OP_EQUALVERIFY OP_CHECKSIG",
            "hex": "76a914317fea535fdbaf32e7ae5aab53043ddea66e74d688ac",
            "reqSigs": 1,
            "type": "pubkeyhash",
            "addresses": [
              "LPjgcKrpNRsSr6D6UUgCbEqVSvBxCcMocY"
            ]
          }
        }
      ],
      "hex": "01000000011c2fa86bf1c6f8e27f0c17cf4efc3f67ced25e29520276e3e5cec71890015ad7000000006a47304402200a0b58de8a55bea7ec0134d44dfabf102a7afadc3a16626f56ff9490724040440220444ed0f6c632c573b773498420f67b72150dd48449d12f2a277218b65212c2f70121026cedc710f7c1114d7e6e587ab2a20e5c424fffd69fb0d88bf5f0e2255093a693ffffffff029f81952b000000001976a9147dc645874801e548878967233d3a1dc1cf0c522788ac00ca9a3b000000001976a914317fea535fdbaf32e7ae5aab53043ddea66e74d688ac00000000"
    }, 
    {
      "txid": "8b520be7028fc7bd0208a9f1accc5266c6f46e121d7962e8303103381a9e22d6",
      "hash": "8b520be7028fc7bd0208a9f1accc5266c6f46e121d7962e8303103381a9e22d6",
      "version": 1,
      "size": 225,
      "vsize": 225,
      "locktime": 0,
      "vin": [
        {
          "txid": "f9ee9d98b5432186c33ca91fb99fb1e12d1630d37388de4aaaacba9c6270873a",
          "vout": 1,
          "scriptSig": {
            "asm": "304402206dbd04adb683d45a80865d7b8fbcff29d7ad85e36f89e9a298d5119b17061f66022075e23ea18c7a6bd6b0242fc7cdc2e56903a18f38285288668ccce8db00491a02[ALL] 031d830de55c6a6169202fcf1a996319a2f86609eeb1dd8844be6c836e6e1b57fd",
            "hex": "47304402206dbd04adb683d45a80865d7b8fbcff29d7ad85e36f89e9a298d5119b17061f66022075e23ea18c7a6bd6b0242fc7cdc2e56903a18f38285288668ccce8db00491a020121031d830de55c6a6169202fcf1a996319a2f86609eeb1dd8844be6c836e6e1b57fd"
          },
          "sequence": 4294967295
        }
      ],
      "vout": [
        {
          "value": 0.78886771,
          "n": 0,
          "scriptPubKey": {
            "asm": "OP_DUP OP_HASH160 70bb05a0d83ca8b6b5039be0882867a768ac8348 OP_EQUALVERIFY OP_CHECKSIG",
            "hex": "76a91470bb05a0d83ca8b6b5039be0882867a768ac834888ac",
            "reqSigs": 1,
            "type": "pubkeyhash",
            "addresses": [
              "LVW1zDL5dNh7D4wDBsX8RXwY6jtY3k2dUC"
            ]
          }
        }, 
        {
          "value": 0.02032900,
          "n": 1,
          "scriptPubKey": {
            "asm": "OP_DUP OP_HASH160 5a1d74e20c703145b7de060705aec61a11a658b5 OP_EQUALVERIFY OP_CHECKSIG",
            "hex": "76a9145a1d74e20c703145b7de060705aec61a11a658b588ac",
            "reqSigs": 1,
            "type": "pubkeyhash",
            "addresses": [
              "LTSSNA2QvQQdwHzYx6XJVPsGXzA4ra56bG"
            ]
          }
        }
      ],
      "hex": "01000000013a8770629cbaacaa4ade8873d330162de1b19fb91fa93cc3862143b5989deef9010000006a47304402206dbd04adb683d45a80865d7b8fbcff29d7ad85e36f89e9a298d5119b17061f66022075e23ea18c7a6bd6b0242fc7cdc2e56903a18f38285288668ccce8db00491a020121031d830de55c6a6169202fcf1a996319a2f86609eeb1dd8844be6c836e6e1b57fdffffffff0273b7b304000000001976a91470bb05a0d83ca8b6b5039be0882867a768ac834888ac04051f00000000001976a9145a1d74e20c703145b7de060705aec61a11a658b588ac00000000"
    }, 
    {
      "txid": "fba24ae3ef45d1124b139263ff24b9786c1527373fdf40aabd7fd6a2e32e8a3e",
      "hash": "fba24ae3ef45d1124b139263ff24b9786c1527373fdf40aabd7fd6a2e32e8a3e",
      "version": 1,
      "size": 226,
      "vsize": 226,
      "locktime": 0,
      "vin": [
        {
          "txid": "2abc7faf27fa0d2a19249cf433cd2e1fe1b96ecb6598f8245df909f5f9b2e5f2",
          "vout": 1,
          "scriptSig": {
            "asm": "3045022100bb9e72cf112cba255fac5736c188763ce170f650b0c7a356812ecbba2d57e01802207d3551f6c47710c7009fef4f3b9b8f822ff9300b9bd2c65659e61e81bdaa5c12[ALL] 028f44ba3da7ca2a74a4e169d49852e319839c90bc95e5b873e7c9f4afaf63dde2",
            "hex": "483045022100bb9e72cf112cba255fac5736c188763ce170f650b0c7a356812ecbba2d57e01802207d3551f6c47710c7009fef4f3b9b8f822ff9300b9bd2c65659e61e81bdaa5c120121028f44ba3da7ca2a74a4e169d49852e319839c90bc95e5b873e7c9f4afaf63dde2"
          },
          "sequence": 4294967295
        }
      ],
      "vout": [
        {
          "value": 1.00700000,
          "n": 0,
          "scriptPubKey": {
            "asm": "OP_DUP OP_HASH160 07efed7a7c42286c25d039716ef4ffb8e6db054f OP_EQUALVERIFY OP_CHECKSIG",
            "hex": "76a91407efed7a7c42286c25d039716ef4ffb8e6db054f88ac",
            "reqSigs": 1,
            "type": "pubkeyhash",
            "addresses": [
              "LKwvR2BdKkhN9w1CLtzgFq6gHTzGQg6g5a"
            ]
          }
        }, 
        {
          "value": 5.06601039,
          "n": 1,
          "scriptPubKey": {
            "asm": "OP_DUP OP_HASH160 b702bd9b4cbc760ce154cac096e1f2a139daa37c OP_EQUALVERIFY OP_CHECKSIG",
            "hex": "76a914b702bd9b4cbc760ce154cac096e1f2a139daa37c88ac",
            "reqSigs": 1,
            "type": "pubkeyhash",
            "addresses": [
              "LbudCjyV5MxXBjgUjgejbSDduikBc6FjvS"
            ]
          }
        }
      ],
      "hex": "0100000001f2e5b2f9f509f95d24f89865cb6eb9e11f2ecd33f49c24192a0dfa27af7fbc2a010000006b483045022100bb9e72cf112cba255fac5736c188763ce170f650b0c7a356812ecbba2d57e01802207d3551f6c47710c7009fef4f3b9b8f822ff9300b9bd2c65659e61e81bdaa5c120121028f44ba3da7ca2a74a4e169d49852e319839c90bc95e5b873e7c9f4afaf63dde2ffffffff02608f0006000000001976a91407efed7a7c42286c25d039716ef4ffb8e6db054f88ac4f1e321e000000001976a914b702bd9b4cbc760ce154cac096e1f2a139daa37c88ac00000000"
    }, 
    {
      "txid": "b0c7bcfe4f965de63c4b270f6d307934e30ca0aa7826e8e8b4f933125953dd66",
      "hash": "b0c7bcfe4f965de63c4b270f6d307934e30ca0aa7826e8e8b4f933125953dd66",
      "version": 1,
      "size": 226,
      "vsize": 226,
      "locktime": 0,
      "vin": [
        {
          "txid": "e048efa2b2932a0b6be57bb1a604ec40442866e81c140e0856f7bb4424d85904",
          "vout": 3,
          "scriptSig": {
            "asm": "3045022100fae811aafe51d9fe5408dce79b82c6f25dd7b372788ac22c3e7606b313cd9d31022065e3858510fecc5b357511ff20be15d7a74c8ce273fd73ec314112048338ddeb[ALL] 031fa165fa836fdacf7b737bbf544ed2e1b7ab0e10920cd708dc199fbefd2835d6",
            "hex": "483045022100fae811aafe51d9fe5408dce79b82c6f25dd7b372788ac22c3e7606b313cd9d31022065e3858510fecc5b357511ff20be15d7a74c8ce273fd73ec314112048338ddeb0121031fa165fa836fdacf7b737bbf544ed2e1b7ab0e10920cd708dc199fbefd2835d6"
          },
          "sequence": 4294967295
        }
      ],
      "vout": [
        {
          "value": 0.00067549,
          "n": 0,
          "scriptPubKey": {
            "asm": "OP_DUP OP_HASH160 1a50a806be9684342a68b6e9612139762ac46633 OP_EQUALVERIFY OP_CHECKSIG",
            "hex": "76a9141a50a806be9684342a68b6e9612139762ac4663388ac",
            "reqSigs": 1,
            "type": "pubkeyhash",
            "addresses": [
              "LMd6TJV2SgZBEP5GoHQ2fD4JBiaEeQiHya"
            ]
          }
        }, 
        {
          "value": 0.21955720,
          "n": 1,
          "scriptPubKey": {
            "asm": "OP_DUP OP_HASH160 bd923b696f038ad597f0c4d0ee1502cfbab402e0 OP_EQUALVERIFY OP_CHECKSIG",
            "hex": "76a914bd923b696f038ad597f0c4d0ee1502cfbab402e088ac",
            "reqSigs": 1,
            "type": "pubkeyhash",
            "addresses": [
              "LcWK9rMpaVk1GZ4NoBaTmix9NfT19dJptH"
            ]
          }
        }
      ],
      "hex": "01000000010459d82444bbf756080e141ce866284440ec04a6b17be56b0b2a93b2a2ef48e0030000006b483045022100fae811aafe51d9fe5408dce79b82c6f25dd7b372788ac22c3e7606b313cd9d31022065e3858510fecc5b357511ff20be15d7a74c8ce273fd73ec314112048338ddeb0121031fa165fa836fdacf7b737bbf544ed2e1b7ab0e10920cd708dc199fbefd2835d6ffffffff02dd070100000000001976a9141a50a806be9684342a68b6e9612139762ac4663388ac88044f01000000001976a914bd923b696f038ad597f0c4d0ee1502cfbab402e088ac00000000"
    }, 
    {
      "txid": "92a1b7b423b47fb19bb9174eb0c0149d43931c794cce16255cb0a8b982ce0496",
      "hash": "92a1b7b423b47fb19bb9174eb0c0149d43931c794cce16255cb0a8b982ce0496",
      "version": 1,
      "size": 225,
      "vsize": 225,
      "locktime": 1358371,
      "vin": [
        {
          "txid": "2cdda80a3b171d246d936c0b0746cff90b5bc437b8ce8c8accc6872c5a81f34b",
          "vout": 1,
          "scriptSig": {
            "asm": "30440220161634016c055f8423907a61287ffbbf5e1e31dff0b57607b172d958848c96ba02204ab94d7b87b47e158f4b51717c3fcdbd16a38561e03582cb3d4940d936892aa7[ALL] 020a465dab9657d9d4e76535e009b4862c5ec392b81ff30270ba9aa0145593278d",
            "hex": "4730440220161634016c055f8423907a61287ffbbf5e1e31dff0b57607b172d958848c96ba02204ab94d7b87b47e158f4b51717c3fcdbd16a38561e03582cb3d4940d936892aa70121020a465dab9657d9d4e76535e009b4862c5ec392b81ff30270ba9aa0145593278d"
          },
          "sequence": 4294967294
        }
      ],
      "vout": [
        {
          "value": 0.52475824,
          "n": 0,
          "scriptPubKey": {
            "asm": "OP_DUP OP_HASH160 608a886ce8dcc004b43e2b4794fb5ba591c3782a OP_EQUALVERIFY OP_CHECKSIG",
            "hex": "76a914608a886ce8dcc004b43e2b4794fb5ba591c3782a88ac",
            "reqSigs": 1,
            "type": "pubkeyhash",
            "addresses": [
              "LU2R64gCPf61qCb6aAeyjtiWo5WM87LeEH"
            ]
          }
        }, 
        {
          "value": 4.21448462,
          "n": 1,
          "scriptPubKey": {
            "asm": "OP_DUP OP_HASH160 d334b84f53db3896de45b4a1efce33909caec1dc OP_EQUALVERIFY OP_CHECKSIG",
            "hex": "76a914d334b84f53db3896de45b4a1efce33909caec1dc88ac",
            "reqSigs": 1,
            "type": "pubkeyhash",
            "addresses": [
              "LeUhzjfAmw4xSvs1CVqT6WZFL27xFzqBcp"
            ]
          }
        }
      ],
      "hex": "01000000014bf3815a2c87c6cc8a8cceb837c45b0bf9cf46070b6c936d241d173b0aa8dd2c010000006a4730440220161634016c055f8423907a61287ffbbf5e1e31dff0b57607b172d958848c96ba02204ab94d7b87b47e158f4b51717c3fcdbd16a38561e03582cb3d4940d936892aa70121020a465dab9657d9d4e76535e009b4862c5ec392b81ff30270ba9aa0145593278dfeffffff02b0b72003000000001976a914608a886ce8dcc004b43e2b4794fb5ba591c3782a88ac0ecb1e19000000001976a914d334b84f53db3896de45b4a1efce33909caec1dc88ac23ba1400"
    }, 
    {
      "txid": "8cfe9c1c3612a3c62db9e13ac1d84807e00eefe8160735500b25402c3b15bcd7",
      "hash": "8cfe9c1c3612a3c62db9e13ac1d84807e00eefe8160735500b25402c3b15bcd7",
      "version": 1,
      "size": 226,
      "vsize": 226,
      "locktime": 0,
      "vin": [
        {
          "txid": "92e6ef3b4d4cc16d486d1153ed45eb5109cea7663f5d88e9978cee66e8258ae4",
          "vout": 0,
          "scriptSig": {
            "asm": "3045022100c3db0edd7ae1a8577d508409174647266111b5688e7fcf1768540345f70542fe022033ec6ad24896377f172d2e0b54e8c5cd67f84d392ec56c2cbbf080cde5e518bb[ALL] 034f785e4ea7def15a292a03bbf23aea631959e623d51a648a62c2f55ccb7af6ec",
            "hex": "483045022100c3db0edd7ae1a8577d508409174647266111b5688e7fcf1768540345f70542fe022033ec6ad24896377f172d2e0b54e8c5cd67f84d392ec56c2cbbf080cde5e518bb0121034f785e4ea7def15a292a03bbf23aea631959e623d51a648a62c2f55ccb7af6ec"
          },
          "sequence": 4294967295
        }
      ],
      "vout": [
        {
          "value": 0.60000000,
          "n": 0,
          "scriptPubKey": {
            "asm": "OP_DUP OP_HASH160 67a25ba15f04f42f41175a8443fe1539be6bc76d OP_EQUALVERIFY OP_CHECKSIG",
            "hex": "76a91467a25ba15f04f42f41175a8443fe1539be6bc76d88ac",
            "reqSigs": 1,
            "type": "pubkeyhash",
            "addresses": [
              "LUfvMoFx32ELuMMCz46joZbgGcQd6hnPCR"
            ]
          }
        }, 
        {
          "value": 0.05955000,
          "n": 1,
          "scriptPubKey": {
            "asm": "OP_DUP OP_HASH160 bff2f68ccb3b8d3c940a35516c2b5dcdc2b98a15 OP_EQUALVERIFY OP_CHECKSIG",
            "hex": "76a914bff2f68ccb3b8d3c940a35516c2b5dcdc2b98a1588ac",
            "reqSigs": 1,
            "type": "pubkeyhash",
            "addresses": [
              "LcitPDw3Skz9nEyU8hTuxKs89E3u8aGk1L"
            ]
          }
        }
      ],
      "hex": "0100000001e48a25e866ee8c97e9885d3f66a7ce0951eb45ed53116d486dc14c4d3befe692000000006b483045022100c3db0edd7ae1a8577d508409174647266111b5688e7fcf1768540345f70542fe022033ec6ad24896377f172d2e0b54e8c5cd67f84d392ec56c2cbbf080cde5e518bb0121034f785e4ea7def15a292a03bbf23aea631959e623d51a648a62c2f55ccb7af6ecffffffff0200879303000000001976a91467a25ba15f04f42f41175a8443fe1539be6bc76d88acb8dd5a00000000001976a914bff2f68ccb3b8d3c940a35516c2b5dcdc2b98a1588ac00000000"
    }, 
    {
      "txid": "9106252eb58a1675406b28c4ea293084bb210890ec9860bd3d15bf2e53f957df",
      "hash": "9106252eb58a1675406b28c4ea293084bb210890ec9860bd3d15bf2e53f957df",
      "version": 1,
      "size": 668,
      "vsize": 668,
      "locktime": 1358371,
      "vin": [
        {
          "txid": "8b0e00f624e1af509d3a5d82c7e30ddda4fb99e1289e60e7a65fc94bc580b5a8",
          "vout": 1,
          "scriptSig": {
            "asm": "30440220521cc8be194bbdfabe2d45cb07031b13b84e4a793e529d8d277229b614d0e5ad02202fb0259c65d55c61de1f737bdecd6b464edec4bafbd0da450af422afc5589b34[ALL] 02764135bb80ecc44fa72908a5efa5e1d189b48175b709cd9c54d005fe7c7e2a3c",
            "hex": "4730440220521cc8be194bbdfabe2d45cb07031b13b84e4a793e529d8d277229b614d0e5ad02202fb0259c65d55c61de1f737bdecd6b464edec4bafbd0da450af422afc5589b34012102764135bb80ecc44fa72908a5efa5e1d189b48175b709cd9c54d005fe7c7e2a3c"
          },
          "sequence": 4294967294
        }, 
        {
          "txid": "69d4a3120bfe21051ffdbadc42648fd7ee1dce798d7a46f7f59e9c372331b192",
          "vout": 0,
          "scriptSig": {
            "asm": "304402202806c65e3cd9e334e4015f6f99b3f443f74254b2ac2045284e0383b6c786db7c02201445effec0dd2dab11a5b175de9d59a5d1949d789c13bcc1c66c3d982499bea3[ALL] 02c7ba7df9c30777f40e4aad0b294d9d68c1c9ac50713bc3c55e58e7f8ddf1515d",
            "hex": "47304402202806c65e3cd9e334e4015f6f99b3f443f74254b2ac2045284e0383b6c786db7c02201445effec0dd2dab11a5b175de9d59a5d1949d789c13bcc1c66c3d982499bea3012102c7ba7df9c30777f40e4aad0b294d9d68c1c9ac50713bc3c55e58e7f8ddf1515d"
          },
          "sequence": 4294967294
        }, 
        {
          "txid": "2edd99ccfaac433776cbc95bc2b5aba34904e41a7c5518dd408d5fd6d6d0f525",
          "vout": 0,
          "scriptSig": {
            "asm": "3045022100c0def0bc797f24d5fc299f0f7a72e1a611384801eb40730fcb0ac284fc11e59902204b0fa1f8d67b64e519d0e511126e4f67116c5c77ed9e353653c079f6cabbf159[ALL] 02a9906251c434c894fce3514392c74a54323e4cf1ab058d144e5deb1214122e61",
            "hex": "483045022100c0def0bc797f24d5fc299f0f7a72e1a611384801eb40730fcb0ac284fc11e59902204b0fa1f8d67b64e519d0e511126e4f67116c5c77ed9e353653c079f6cabbf159012102a9906251c434c894fce3514392c74a54323e4cf1ab058d144e5deb1214122e61"
          },
          "sequence": 4294967294
        }, 
        {
          "txid": "b549f095f2d015bc6c6b103494879b8dffec82862faf65a77bf4480f1ad90c2b",
          "vout": 0,
          "scriptSig": {
            "asm": "3045022100cdcb83c0ef9bddd15c95bcf6ed720a1f23ea16fe1aafdfc55ea72f03cb19637b02202c985bfc1a20264afd919109ad8a90185900e708662aa3ce6d7c40d693d1a7db[ALL] 02c3e7d4a55dba239e07f7ac3b806484e081c59a4b7ebcb43925ef32a7d65afb0c",
            "hex": "483045022100cdcb83c0ef9bddd15c95bcf6ed720a1f23ea16fe1aafdfc55ea72f03cb19637b02202c985bfc1a20264afd919109ad8a90185900e708662aa3ce6d7c40d693d1a7db012102c3e7d4a55dba239e07f7ac3b806484e081c59a4b7ebcb43925ef32a7d65afb0c"
          },
          "sequence": 4294967294
        }
      ],
      "vout": [
        {
          "value": 0.01000041,
          "n": 0,
          "scriptPubKey": {
            "asm": "OP_DUP OP_HASH160 5407e0214b3538522d8714e190a9b9cfab39863e OP_EQUALVERIFY OP_CHECKSIG",
            "hex": "76a9145407e0214b3538522d8714e190a9b9cfab39863e88ac",
            "reqSigs": 1,
            "type": "pubkeyhash",
            "addresses": [
              "LStGTXVw8KEvDuXKCRu4GJH1SnoK5J7zJL"
            ]
          }
        }, 
        {
          "value": 26.55733305,
          "n": 1,
          "scriptPubKey": {
            "asm": "OP_DUP OP_HASH160 92a9260ce0c165816133e9855eff09bc793b8141 OP_EQUALVERIFY OP_CHECKSIG",
            "hex": "76a91492a9260ce0c165816133e9855eff09bc793b814188ac",
            "reqSigs": 1,
            "type": "pubkeyhash",
            "addresses": [
              "LYbRYscK7GeWhY2LvQ8TT5V6zq3Njp39NZ"
            ]
          }
        }
      ],
      "hex": "0100000004a8b580c54bc95fa6e7609e28e199fba4dd0de3c7825d3a9d50afe124f6000e8b010000006a4730440220521cc8be194bbdfabe2d45cb07031b13b84e4a793e529d8d277229b614d0e5ad02202fb0259c65d55c61de1f737bdecd6b464edec4bafbd0da450af422afc5589b34012102764135bb80ecc44fa72908a5efa5e1d189b48175b709cd9c54d005fe7c7e2a3cfeffffff92b13123379c9ef5f7467a8d79ce1deed78f6442dcbafd1f0521fe0b12a3d469000000006a47304402202806c65e3cd9e334e4015f6f99b3f443f74254b2ac2045284e0383b6c786db7c02201445effec0dd2dab11a5b175de9d59a5d1949d789c13bcc1c66c3d982499bea3012102c7ba7df9c30777f40e4aad0b294d9d68c1c9ac50713bc3c55e58e7f8ddf1515dfeffffff25f5d0d6d65f8d40dd18557c1ae40449a3abb5c25bc9cb763743acfacc99dd2e000000006b483045022100c0def0bc797f24d5fc299f0f7a72e1a611384801eb40730fcb0ac284fc11e59902204b0fa1f8d67b64e519d0e511126e4f67116c5c77ed9e353653c079f6cabbf159012102a9906251c434c894fce3514392c74a54323e4cf1ab058d144e5deb1214122e61feffffff2b0cd91a0f48f47ba765af2f8682ecff8d9b879434106b6cbc15d0f295f049b5000000006b483045022100cdcb83c0ef9bddd15c95bcf6ed720a1f23ea16fe1aafdfc55ea72f03cb19637b02202c985bfc1a20264afd919109ad8a90185900e708662aa3ce6d7c40d693d1a7db012102c3e7d4a55dba239e07f7ac3b806484e081c59a4b7ebcb43925ef32a7d65afb0cfeffffff0269420f00000000001976a9145407e0214b3538522d8714e190a9b9cfab39863e88ac39464b9e000000001976a91492a9260ce0c165816133e9855eff09bc793b814188ac23ba1400"
    }
  ],
  "time": 1517132880,
  "mediantime": 1517132522,
  "nonce": 320332964,
  "bits": "1a047f14",
  "difficulty": 3731199.183374282,
  "chainwork": "0000000000000000000000000000000000000000000000330976ccce01c862dc",
  "previousblockhash": "d9a586cb6477c51ecdbb17894a39f747852d15f3ef73d32806afda7e0620346f",
  "nextblockhash": "b816914249a6ca9d5b120b36cc215fc4d39c1bf1e5f765b5f29f082200994acd"
}
