{
  "hash": "f4d38e9ef9a0d37e1378119a9d8a3809accd1178dc6d79b82d6f2c5b34a3d180",
  "confirmations": 1791,
  "strippedsize": 254,
  "size": 254,
  "weight": 1016,
  "height": 1359203,
  "version": 536870912,
  "versionHex": "20000000",
  "merkleroot": "7c0df0ea7279b9df79959ffc5233f40ebd0b73b8ec56d176ff44352485bc1020",
  "tx": [
    {
      "txid": "7c0df0ea7279b9df79959ffc5233f40ebd0b73b8ec56d176ff44352485bc1020",
      "hash": "7c0df0ea7279b9df79959ffc5233f40ebd0b73b8ec56d176ff44352485bc1020",
      "version": 1,
      "size": 173,
      "vsize": 173,
      "locktime": 0,
      "vin": [
        {
          "coinbase": "0363bd141b4d696e656420627920416e74506f6f6c20626a302042205a6f6af4fabe6d6d2f581da3c57189e54288cbeee39700bb51621e908a3db3bc5b3b6f08aab1dc5e0400000000000000f42600000000000010000000",
          "sequence": 4294967295
        }
      ],
      "vout": [
        {
          "value": 25.00000000,
          "n": 0,
          "scriptPubKey": {
            "asm": "OP_DUP OP_HASH160 0ff3ccc5e8be88afe24b5d634e5852d474dbdff1 OP_EQUALVERIFY OP_CHECKSIG",
            "hex": "76a9140ff3ccc5e8be88afe24b5d634e5852d474dbdff188ac",
            "reqSigs": 1,
            "type": "pubkeyhash",
            "addresses": [
              "LLgJTbzZMsRTCUF1NtvvL9SR1a4pVieW89"
            ]
          }
        }
      ],
      "hex": "01000000010000000000000000000000000000000000000000000000000000000000000000ffffffff580363bd141b4d696e656420627920416e74506f6f6c20626a302042205a6f6af4fabe6d6d2f581da3c57189e54288cbeee39700bb51621e908a3db3bc5b3b6f08aab1dc5e0400000000000000f42600000000000010000000ffffffff0100f90295000000001976a9140ff3ccc5e8be88afe24b5d634e5852d474dbdff188ac00000000"
    }
  ],
  "time": 1517251316,
  "mediantime": 1517250360,
  "nonce": 394846346,
  "bits": "1a042eae",
  "difficulty": 4011378.762614286,
  "chainwork": "000000000000000000000000000000000000000000000033c9120162b19dbdc8",
  "previousblockhash": "034f9ab78d56e9bb01ac23d7755cfa76756aa32320efb8e9faf3dc71b004d7bc",
  "nextblockhash": "a85dee5cb5f10c8fa744007777c999de864dd8f14edcfb7c63b80e1688f84905"
}
