{
  "hash": "f4fdebdfd035e5f6622ada6f7a2454ca19f9211a4ec95d477a98647f18dbc0b6",
  "confirmations": 1723,
  "strippedsize": 234,
  "size": 234,
  "weight": 936,
  "height": 1359271,
  "version": 536870912,
  "versionHex": "20000000",
  "merkleroot": "7962c5e4d50bc6b40a11518524afdb2b815967f896a97c23c34242d359c9a545",
  "tx": [
    {
      "txid": "7962c5e4d50bc6b40a11518524afdb2b815967f896a97c23c34242d359c9a545",
      "hash": "7962c5e4d50bc6b40a11518524afdb2b815967f896a97c23c34242d359c9a545",
      "version": 1,
      "size": 153,
      "vsize": 153,
      "locktime": 0,
      "vin": [
        {
          "coinbase": "03a7bd14045a6f8e962cfabe6d6d38e6ee26646e8316fbc2b76120b0f71ae44d505e28ecb7c447631749d744698c4000000000000000042f4c502f082200a20704000000",
          "sequence": 4294967295
        }
      ],
      "vout": [
        {
          "value": 25.00000000,
          "n": 0,
          "scriptPubKey": {
            "asm": "OP_DUP OP_HASH160 57757ed2ecf2052ff3126c397aca7defb9ca2cec OP_EQUALVERIFY OP_CHECKSIG",
            "hex": "76a91457757ed2ecf2052ff3126c397aca7defb9ca2cec88ac",
            "reqSigs": 1,
            "type": "pubkeyhash",
            "addresses": [
              "LTCPodGk5FwcJaRzH9yKnwicxzFUbxp6tN"
            ]
          }
        }
      ],
      "hex": "01000000010000000000000000000000000000000000000000000000000000000000000000ffffffff4403a7bd14045a6f8e962cfabe6d6d38e6ee26646e8316fbc2b76120b0f71ae44d505e28ecb7c447631749d744698c4000000000000000042f4c502f082200a20704000000ffffffff0100f90295000000001976a91457757ed2ecf2052ff3126c397aca7defb9ca2cec88ac00000000"
    }
  ],
  "time": 1517260438,
  "mediantime": 1517259517,
  "nonce": 956867074,
  "bits": "1a042eae",
  "difficulty": 4011378.762614286,
  "chainwork": "000000000000000000000000000000000000000000000033d9544420cff2c450",
  "previousblockhash": "3fddb9903e337d5c8d08454f193ad6ed1050887af19d7f9b1966ccfc13aa5eb5",
  "nextblockhash": "3c06ede68f99a6bcd26da3cb46f9affaaadd251007d122176a7b35a58f3877d4"
}
