{
  "hash": "f50e3fdee29d689512163793b83e37d9649a6819a179e50c9db730865481b105",
  "confirmations": 2119,
  "strippedsize": 2980,
  "size": 3676,
  "weight": 12616,
  "height": 1358875,
  "version": 536870912,
  "versionHex": "20000000",
  "merkleroot": "033f4c06499c4b4e96d15da270102afaf9ee57babb314ba10fb7821028d20055",
  "tx": [
    {
      "txid": "a3ae169fdef050a0d641cd081dd74013b33f729de1fa0feb4a18063ee54175d6",
      "hash": "967ba2bd2531ecb4f4a8739355d0cdddab9d3a96839a99fe3a890605ca7f200c",
      "version": 1,
      "size": 277,
      "vsize": 250,
      "locktime": 950470381,
      "vin": [
        {
          "coinbase": "031bbc142cfabe6d6defc7a7d26256006bcec93633c959a9780eda37ff2cd03e0b5708dec76ccd340e08000000f09f909f154d696e6564206279206431333930333930383832320000000000000000000000000000000000000000000000000000000000",
          "sequence": 2
        }
      ],
      "vout": [
        {
          "value": 25.00788748,
          "n": 0,
          "scriptPubKey": {
            "asm": "OP_DUP OP_HASH160 aa3750aa18b8a0f3f0590731e1fab934856680cf OP_EQUALVERIFY OP_CHECKSIG",
            "hex": "76a914aa3750aa18b8a0f3f0590731e1fab934856680cf88ac",
            "reqSigs": 1,
            "type": "pubkeyhash",
            "addresses": [
              "LajyQBeZaBA1NkZDeY8YT5RYYVRkXMvb2T"
            ]
          }
        }, 
        {
          "value": 0.00000000,
          "n": 1,
          "scriptPubKey": {
            "asm": "OP_RETURN aa21a9edc003f3023ab86e36c2b48ae61512f76b67b11889449ef95e3900985bdf6f4c20 0000000000000000",
            "hex": "6a24aa21a9edc003f3023ab86e36c2b48ae61512f76b67b11889449ef95e3900985bdf6f4c20080000000000000000",
            "type": "nulldata"
          }
        }
      ],
      "hex": "010000000001010000000000000000000000000000000000000000000000000000000000000000ffffffff64031bbc142cfabe6d6defc7a7d26256006bcec93633c959a9780eda37ff2cd03e0b5708dec76ccd340e08000000f09f909f154d696e656420627920643133393033393038383232000000000000000000000000000000000000000000000000000000000002000000020c020f95000000001976a914aa3750aa18b8a0f3f0590731e1fab934856680cf88ac00000000000000002f6a24aa21a9edc003f3023ab86e36c2b48ae61512f76b67b11889449ef95e3900985bdf6f4c2008000000000000000001200000000000000000000000000000000000000000000000000000000000000000ed06a738"
    }, 
    {
      "txid": "6317639be5d7f7332413162fe466ef80fec4bb45388211ffb1fa7a5b08d26c4e",
      "hash": "6317639be5d7f7332413162fe466ef80fec4bb45388211ffb1fa7a5b08d26c4e",
      "version": 1,
      "size": 226,
      "vsize": 226,
      "locktime": 0,
      "vin": [
        {
          "txid": "4500cd5c3a3933a23a8058afdb8ac6801178292c02fea66e3b9cbc468a759c14",
          "vout": 1,
          "scriptSig": {
            "asm": "3045022100efa6d2ed20c9f563b4ee11287b935935cc3790614264643cc656be00ec45a1e9022009975c6bf49c57dea21cca215c55e84d89c884238180c8897c21e8a585a60fd6[ALL] 027326a532e9a5c86e9223000313185e20a05a2ba4770ef3d951da593b35648ee1",
            "hex": "483045022100efa6d2ed20c9f563b4ee11287b935935cc3790614264643cc656be00ec45a1e9022009975c6bf49c57dea21cca215c55e84d89c884238180c8897c21e8a585a60fd60121027326a532e9a5c86e9223000313185e20a05a2ba4770ef3d951da593b35648ee1"
          },
          "sequence": 4294967295
        }
      ],
      "vout": [
        {
          "value": 0.01112000,
          "n": 0,
          "scriptPubKey": {
            "asm": "OP_DUP OP_HASH160 526cffbadffa5eda3897e1f3d190f01dc88f7a54 OP_EQUALVERIFY OP_CHECKSIG",
            "hex": "76a914526cffbadffa5eda3897e1f3d190f01dc88f7a5488ac",
            "reqSigs": 1,
            "type": "pubkeyhash",
            "addresses": [
              "LSjnFKfTNfuQ1EtYbQ4FVdJn5U2HUVYtmo"
            ]
          }
        }, 
        {
          "value": 0.65703591,
          "n": 1,
          "scriptPubKey": {
            "asm": "OP_DUP OP_HASH160 49aa0588e1fe7754806ba6989550bafc058c2907 OP_EQUALVERIFY OP_CHECKSIG",
            "hex": "76a91449aa0588e1fe7754806ba6989550bafc058c290788ac",
            "reqSigs": 1,
            "type": "pubkeyhash",
            "addresses": [
              "LRwTGXTLURJNPYkHFw1LYfAnZtVyiXKFny"
            ]
          }
        }
      ],
      "hex": "0100000001149c758a46bc9c3b6ea6fe022c29781180c68adbaf58803aa233393a5ccd0045010000006b483045022100efa6d2ed20c9f563b4ee11287b935935cc3790614264643cc656be00ec45a1e9022009975c6bf49c57dea21cca215c55e84d89c884238180c8897c21e8a585a60fd60121027326a532e9a5c86e9223000313185e20a05a2ba4770ef3d951da593b35648ee1ffffffff02c0f71000000000001976a914526cffbadffa5eda3897e1f3d190f01dc88f7a5488aca78eea03000000001976a91449aa0588e1fe7754806ba6989550bafc058c290788ac00000000"
    }, 
    {
      "txid": "1f818e86e283e0f213149b3bab0f9ebccc23474eedc06cb148f138abf626ddf8",
      "hash": "1f818e86e283e0f213149b3bab0f9ebccc23474eedc06cb148f138abf626ddf8",
      "version": 1,
      "size": 225,
      "vsize": 225,
      "locktime": 0,
      "vin": [
        {
          "txid": "0d4ec0f81442e27f8d5d01f456673ab0072fb80039ec4690e5cfbc3ee2fd2e2f",
          "vout": 1,
          "scriptSig": {
            "asm": "304402200f20298d01fc52c92e14fe990c4ba051b8e699192819feee77cb32cee63414ea022030dc93479c68ff90e8860c0bbffc3f324f986e2374e1dfecea54fa1d5618d945[ALL] 02d222dc49c99145d02a31131b7ee370a77b04c5b77eef7f2f389f14710cf4d118",
            "hex": "47304402200f20298d01fc52c92e14fe990c4ba051b8e699192819feee77cb32cee63414ea022030dc93479c68ff90e8860c0bbffc3f324f986e2374e1dfecea54fa1d5618d945012102d222dc49c99145d02a31131b7ee370a77b04c5b77eef7f2f389f14710cf4d118"
          },
          "sequence": 4294967295
        }
      ],
      "vout": [
        {
          "value": 0.47704814,
          "n": 0,
          "scriptPubKey": {
            "asm": "OP_DUP OP_HASH160 6c4feebf43590d608d737fccf80383230680dd7e OP_EQUALVERIFY OP_CHECKSIG",
            "hex": "76a9146c4feebf43590d608d737fccf80383230680dd7e88ac",
            "reqSigs": 1,
            "type": "pubkeyhash",
            "addresses": [
              "LV6ezkCCPyasktqvGGqXxMBNGRZqHojLbd"
            ]
          }
        }, 
        {
          "value": 83.14927652,
          "n": 1,
          "scriptPubKey": {
            "asm": "OP_DUP OP_HASH160 fbcc9e08c05a3af90271a10012f777e260065a61 OP_EQUALVERIFY OP_CHECKSIG",
            "hex": "76a914fbcc9e08c05a3af90271a10012f777e260065a6188ac",
            "reqSigs": 1,
            "type": "pubkeyhash",
            "addresses": [
              "LiBLzRVkSXJ31B8v752nFBvWDC6Bnw8yRv"
            ]
          }
        }
      ],
      "hex": "01000000012f2efde23ebccfe59046ec3900b82f07b03a6756f4015d8d7fe24214f8c04e0d010000006a47304402200f20298d01fc52c92e14fe990c4ba051b8e699192819feee77cb32cee63414ea022030dc93479c68ff90e8860c0bbffc3f324f986e2374e1dfecea54fa1d5618d945012102d222dc49c99145d02a31131b7ee370a77b04c5b77eef7f2f389f14710cf4d118ffffffff02eeead702000000001976a9146c4feebf43590d608d737fccf80383230680dd7e88ac24ba9bef010000001976a914fbcc9e08c05a3af90271a10012f777e260065a6188ac00000000"
    }, 
    {
      "txid": "2c4046fd58c078234f86097817fcf6f48a820c27dccb2fd38c27654949d055cc",
      "hash": "d3f87f2434068b84a509b71353e2f013f1e06f788d208f6d6fbaf538c907fc12",
      "version": 1,
      "size": 667,
      "vsize": 338,
      "locktime": 0,
      "vin": [
        {
          "txid": "a19fddb33af2879ebb7974da30bb50a9675459a67580346f48cbeff51523db59",
          "vout": 1,
          "scriptSig": {
            "asm": "002084a6504ba237e053e5df735f3cea173633a87cf835aa379ffb3b9f4a37a08177",
            "hex": "22002084a6504ba237e053e5df735f3cea173633a87cf835aa379ffb3b9f4a37a08177"
          },
          "txinwitness": [
            "", 
            "304402201add9cc2138c42c360c5a5c4580cd7c72ad33598accfecfa6a513454205f4ee60220079c42f030e8826803698b99946f8ea00d12ec4abff828db85f938da1e199a2c01", 
            "3044022071bde11f65255fe30ddccc8f928a6e07e30243ef4ec1526c43c120226ab8736002202451c5b9f43c4699a863fdc387e677f92e887a1639031b2425129b6a964c8c0001", 
            "522102df52cb84ab60a01ffd9472485649922354206cf69fba02423c17570a526a5eac210337eed7a452a79400ff9f1abc1adcd6472f56c114820bf8fe34e337b62f34199652ae"
          ],
          "sequence": 4294967295
        }, 
        {
          "txid": "65c5fc5cde3fe03e429b07fee27578ed9a38c1846933d3bbf85acc274b9cfe68",
          "vout": 1,
          "scriptSig": {
            "asm": "0020827131934c58613fd7d145d8aacf91c0d1ee3381b53f78e991d5dc4f3783238e",
            "hex": "220020827131934c58613fd7d145d8aacf91c0d1ee3381b53f78e991d5dc4f3783238e"
          },
          "txinwitness": [
            "", 
            "304402205f42ecee1120d7f2324768093221a793b3da3d2e70420707cfcda59214372bba022067e3df6b263d7ef91625e7b01afab39eaad03c9d512690c97699efcc12c1578501", 
            "3045022100f556b33c18638d2c429b021d723b474b7c9a2d187112226e4aec0341c496870e02207a5d1847d55ab4b9d84109ca543c121f8341a7db960859a8f3e2980205294df501", 
            "52210221f97ed72d79252f821079c1d8d49ddc9d350697b75706fd085534b14761f78c210337eed7a452a79400ff9f1abc1adcd6472f56c114820bf8fe34e337b62f34199652ae"
          ],
          "sequence": 4294967295
        }
      ],
      "vout": [
        {
          "value": 1.36600000,
          "n": 0,
          "scriptPubKey": {
            "asm": "OP_DUP OP_HASH160 7084c52eb0b1073f3a6e57563d9bc0b11eaf6a63 OP_EQUALVERIFY OP_CHECKSIG",
            "hex": "76a9147084c52eb0b1073f3a6e57563d9bc0b11eaf6a6388ac",
            "reqSigs": 1,
            "type": "pubkeyhash",
            "addresses": [
              "LVUtzjf6BZ1VmGAmVXBR2wrCs7uupcrPqP"
            ]
          }
        }, 
        {
          "value": 1.25731463,
          "n": 1,
          "scriptPubKey": {
            "asm": "OP_HASH160 a5ca63ffa782df786957a7b53bd4b37c4cdffd79 OP_EQUAL",
            "hex": "a914a5ca63ffa782df786957a7b53bd4b37c4cdffd7987",
            "reqSigs": 1,
            "type": "scripthash",
            "addresses": [
              "MP1nBRqPnb6dveeavNppBjWsTD49FxFtF7"
            ]
          }
        }
      ],
      "hex": "0100000000010259db2315f5efcb486f348075a6595467a950bb30da7479bb9e87f23ab3dd9fa1010000002322002084a6504ba237e053e5df735f3cea173633a87cf835aa379ffb3b9f4a37a08177ffffffff68fe9c4b27cc5af8bbd3336984c1389aed7875e2fe079b423ee03fde5cfcc5650100000023220020827131934c58613fd7d145d8aacf91c0d1ee3381b53f78e991d5dc4f3783238effffffff02c0592408000000001976a9147084c52eb0b1073f3a6e57563d9bc0b11eaf6a6388ac87827e070000000017a914a5ca63ffa782df786957a7b53bd4b37c4cdffd7987040047304402201add9cc2138c42c360c5a5c4580cd7c72ad33598accfecfa6a513454205f4ee60220079c42f030e8826803698b99946f8ea00d12ec4abff828db85f938da1e199a2c01473044022071bde11f65255fe30ddccc8f928a6e07e30243ef4ec1526c43c120226ab8736002202451c5b9f43c4699a863fdc387e677f92e887a1639031b2425129b6a964c8c000147522102df52cb84ab60a01ffd9472485649922354206cf69fba02423c17570a526a5eac210337eed7a452a79400ff9f1abc1adcd6472f56c114820bf8fe34e337b62f34199652ae040047304402205f42ecee1120d7f2324768093221a793b3da3d2e70420707cfcda59214372bba022067e3df6b263d7ef91625e7b01afab39eaad03c9d512690c97699efcc12c1578501483045022100f556b33c18638d2c429b021d723b474b7c9a2d187112226e4aec0341c496870e02207a5d1847d55ab4b9d84109ca543c121f8341a7db960859a8f3e2980205294df5014752210221f97ed72d79252f821079c1d8d49ddc9d350697b75706fd085534b14761f78c210337eed7a452a79400ff9f1abc1adcd6472f56c114820bf8fe34e337b62f34199652ae00000000"
    }, 
    {
      "txid": "8bca479d39b705ee211177098e779a8a3dad95ec6f4a46f15a3f417848f3ef0d",
      "hash": "8bca479d39b705ee211177098e779a8a3dad95ec6f4a46f15a3f417848f3ef0d",
      "version": 1,
      "size": 225,
      "vsize": 225,
      "locktime": 0,
      "vin": [
        {
          "txid": "3f3a076abbdae268ce33a9d6922330ff9e2002d77422cdfc2a88712c9d529804",
          "vout": 0,
          "scriptSig": {
            "asm": "30440220658789460f3c73c19f673b6dbce51e26fbde73561d0d666d0a573799dc1f7c9302203791d6e8bc9c5e1f19edcf9e12fe362139e9f699aee77adf5506d17d4d7e8092[ALL] 0384a9a36de00797765bb8cbd04dabb5aa68695b13ab3d76e64a85d79f0c76db7f",
            "hex": "4730440220658789460f3c73c19f673b6dbce51e26fbde73561d0d666d0a573799dc1f7c9302203791d6e8bc9c5e1f19edcf9e12fe362139e9f699aee77adf5506d17d4d7e809201210384a9a36de00797765bb8cbd04dabb5aa68695b13ab3d76e64a85d79f0c76db7f"
          },
          "sequence": 4294967295
        }
      ],
      "vout": [
        {
          "value": 1.09300000,
          "n": 0,
          "scriptPubKey": {
            "asm": "OP_DUP OP_HASH160 a266ab1c7490131c92f5d93e1c4d94153c1a8721 OP_EQUALVERIFY OP_CHECKSIG",
            "hex": "76a914a266ab1c7490131c92f5d93e1c4d94153c1a872188ac",
            "reqSigs": 1,
            "type": "pubkeyhash",
            "addresses": [
              "La2eipEi8rbs2oo3iWuiBVgCiF9DAWZ4ER"
            ]
          }
        }, 
        {
          "value": 60.38545392,
          "n": 1,
          "scriptPubKey": {
            "asm": "OP_DUP OP_HASH160 8a4fd1372b1dd683fede7d68f2332fae2e9c9f71 OP_EQUALVERIFY OP_CHECKSIG",
            "hex": "76a9148a4fd1372b1dd683fede7d68f2332fae2e9c9f7188ac",
            "reqSigs": 1,
            "type": "pubkeyhash",
            "addresses": [
              "LXqH8V6ZtsHBrURFbVxHR59KA24qcdosN3"
            ]
          }
        }
      ],
      "hex": "01000000010498529d2c71882afccd2274d702209eff302392d6a933ce68e2dabb6a073a3f000000006a4730440220658789460f3c73c19f673b6dbce51e26fbde73561d0d666d0a573799dc1f7c9302203791d6e8bc9c5e1f19edcf9e12fe362139e9f699aee77adf5506d17d4d7e809201210384a9a36de00797765bb8cbd04dabb5aa68695b13ab3d76e64a85d79f0c76db7fffffffff0220c98306000000001976a914a266ab1c7490131c92f5d93e1c4d94153c1a872188acf0e3ec67010000001976a9148a4fd1372b1dd683fede7d68f2332fae2e9c9f7188ac00000000"
    }, 
    {
      "txid": "49c7cf407955a29974dc1bb0c2b1fa5ad8e76ffa60ffef63d645f6b5a4eef537",
      "hash": "49c7cf407955a29974dc1bb0c2b1fa5ad8e76ffa60ffef63d645f6b5a4eef537",
      "version": 1,
      "size": 475,
      "vsize": 475,
      "locktime": 0,
      "vin": [
        {
          "txid": "23747e74b566e7568c2ebf513e789d9c0a396f1bcbabde23a4f528da228b9ceb",
          "vout": 2,
          "scriptSig": {
            "asm": "304402200deacf893f09078f164786d4bc1b1e084ffcf8d7afcb3351ad964a2e29425b250220572bca9a63b805d3e09f926a3877e01eb4352c6da9f1e32518e1cac72105bdc0[ALL] 0328c9ae635abf580c261c44815dc1aac309e16ff26250525b7e99951369d2b8c7",
            "hex": "47304402200deacf893f09078f164786d4bc1b1e084ffcf8d7afcb3351ad964a2e29425b250220572bca9a63b805d3e09f926a3877e01eb4352c6da9f1e32518e1cac72105bdc001210328c9ae635abf580c261c44815dc1aac309e16ff26250525b7e99951369d2b8c7"
          },
          "sequence": 4294967295
        }, 
        {
          "txid": "62645c607049fe7fd4f2b4e8df9e376e60c8e9051446b27a346fa3bb80e436bf",
          "vout": 1,
          "scriptSig": {
            "asm": "3045022100d919526fb6f5512de44b67208a46bc0b6230572a471e92224017eb07894619d802202766054727230ae136f6f20ec8bacd02e3b1700f5010a7db5494acc50e90473d[ALL] 028b3267b0f1dceabefcc07e9e12283f76893267bd6a3c4085554f1660e26785ba",
            "hex": "483045022100d919526fb6f5512de44b67208a46bc0b6230572a471e92224017eb07894619d802202766054727230ae136f6f20ec8bacd02e3b1700f5010a7db5494acc50e90473d0121028b3267b0f1dceabefcc07e9e12283f76893267bd6a3c4085554f1660e26785ba"
          },
          "sequence": 4294967295
        }
      ],
      "vout": [
        {
          "value": 0.20100000,
          "n": 0,
          "scriptPubKey": {
            "asm": "OP_DUP OP_HASH160 8704b69cb4b5ca1aa4e494f6df6e366c0454c78d OP_EQUALVERIFY OP_CHECKSIG",
            "hex": "76a9148704b69cb4b5ca1aa4e494f6df6e366c0454c78d88ac",
            "reqSigs": 1,
            "type": "pubkeyhash",
            "addresses": [
              "LXXs8bdhyW3S84uCnHQLMtD7effPyJQArT"
            ]
          }
        }, 
        {
          "value": 1.93609000,
          "n": 1,
          "scriptPubKey": {
            "asm": "OP_DUP OP_HASH160 0c8ddc1c64e785974f0b8694211abcedbfa6de36 OP_EQUALVERIFY OP_CHECKSIG",
            "hex": "76a9140c8ddc1c64e785974f0b8694211abcedbfa6de3688ac",
            "reqSigs": 1,
            "type": "pubkeyhash",
            "addresses": [
              "LLNLK7B4AKJwTCMTyxzFJx8TY4wSwdYoxa"
            ]
          }
        }, 
        {
          "value": 4.98650000,
          "n": 2,
          "scriptPubKey": {
            "asm": "OP_DUP OP_HASH160 979a5997741e817f2ab7ebce930b50917d6967c8 OP_EQUALVERIFY OP_CHECKSIG",
            "hex": "76a914979a5997741e817f2ab7ebce930b50917d6967c888ac",
            "reqSigs": 1,
            "type": "pubkeyhash",
            "addresses": [
              "LZ3ZCbwE3GoW2cDGMQ65G59pURdFFbNakV"
            ]
          }
        }, 
        {
          "value": 10.74900000,
          "n": 3,
          "scriptPubKey": {
            "asm": "OP_DUP OP_HASH160 1ebbe8a40a51691bf951f8bad31f297c47b11ccc OP_EQUALVERIFY OP_CHECKSIG",
            "hex": "76a9141ebbe8a40a51691bf951f8bad31f297c47b11ccc88ac",
            "reqSigs": 1,
            "type": "pubkeyhash",
            "addresses": [
              "LN2Te6aV7jrJqa4jm5YVUVmqqwip4dad3Y"
            ]
          }
        }, 
        {
          "value": 49.23557261,
          "n": 4,
          "scriptPubKey": {
            "asm": "OP_DUP OP_HASH160 c6e3836c2f4cd8f9c53e32813ded99ac0ce001f1 OP_EQUALVERIFY OP_CHECKSIG",
            "hex": "76a914c6e3836c2f4cd8f9c53e32813ded99ac0ce001f188ac",
            "reqSigs": 1,
            "type": "pubkeyhash",
            "addresses": [
              "LdMac6qdwFnBCVXN96dvoPjzbcE36gzs64"
            ]
          }
        }
      ],
      "hex": "0100000002eb9c8b22da28f5a423deabcb1b6f390a9c9d783e51bf2e8c56e766b5747e7423020000006a47304402200deacf893f09078f164786d4bc1b1e084ffcf8d7afcb3351ad964a2e29425b250220572bca9a63b805d3e09f926a3877e01eb4352c6da9f1e32518e1cac72105bdc001210328c9ae635abf580c261c44815dc1aac309e16ff26250525b7e99951369d2b8c7ffffffffbf36e480bba36f347ab2461405e9c8606e379edfe8b4f2d47ffe4970605c6462010000006b483045022100d919526fb6f5512de44b67208a46bc0b6230572a471e92224017eb07894619d802202766054727230ae136f6f20ec8bacd02e3b1700f5010a7db5494acc50e90473d0121028b3267b0f1dceabefcc07e9e12283f76893267bd6a3c4085554f1660e26785baffffffff05a0b33201000000001976a9148704b69cb4b5ca1aa4e494f6df6e366c0454c78d88ac283d8a0b000000001976a9140c8ddc1c64e785974f0b8694211abcedbfa6de3688ac90cbb81d000000001976a914979a5997741e817f2ab7ebce930b50917d6967c888ac20ac1140000000001976a9141ebbe8a40a51691bf951f8bad31f297c47b11ccc88ac8d857725010000001976a914c6e3836c2f4cd8f9c53e32813ded99ac0ce001f188ac00000000"
    }, 
    {
      "txid": "4ccf3a0158708caaba7a924d69631ae09f2e2c24aadb5378361afaca5498aef2",
      "hash": "7044647c278c7ab28b2ffd9bfe6e3e3da6c8d7ac15228930d866e4e0e1ed423f",
      "version": 1,
      "size": 373,
      "vsize": 208,
      "locktime": 0,
      "vin": [
        {
          "txid": "326f8887e4c37b1df5001d05763e40ce7b23623592357c3825296435b8307dfa",
          "vout": 1,
          "scriptSig": {
            "asm": "00207975c3f0d1bf8b6205e1c664d703c93d68409676bf17c5e78cdece78bdbf3dbf",
            "hex": "2200207975c3f0d1bf8b6205e1c664d703c93d68409676bf17c5e78cdece78bdbf3dbf"
          },
          "txinwitness": [
            "", 
            "304402203fbda5c06beae9d9373d7d47121c2e6b4fefd2e38339f030d1e3bed64c0a7dd2022055449090622c3a84117694fb55eca9cb369d5cdf469c52792105b0c39fcfb01501", 
            "3045022100c408758b2fb78d4f47289a8c30a9d5ec9df2977a14908af4fac376668cd4c22002201ee7397463bb7f80e1d1faead1716154430c36bcd5ddd7c8151c509d0e35fa3701", 
            "522102611be09a0c6a571c8f68adb2481e938888756d93d4ee5b670f08c16e939b7f1a21022cc7a96a72ef014bf078a6489644e2edb05bb216d30b4f28363b637fe4463fd652ae"
          ],
          "sequence": 4294967295
        }
      ],
      "vout": [
        {
          "value": 0.02607700,
          "n": 0,
          "scriptPubKey": {
            "asm": "OP_DUP OP_HASH160 67e3a26468e836126679ff6017fc3ed28425b755 OP_EQUALVERIFY OP_CHECKSIG",
            "hex": "76a91467e3a26468e836126679ff6017fc3ed28425b75588ac",
            "reqSigs": 1,
            "type": "pubkeyhash",
            "addresses": [
              "LUhGZHNZucRfUm2otQk6qAWW4ERfCDpiam"
            ]
          }
        }, 
        {
          "value": 11.59446652,
          "n": 1,
          "scriptPubKey": {
            "asm": "OP_HASH160 486ce63d83e8406016f310cd321d36bbdd10d412 OP_EQUAL",
            "hex": "a914486ce63d83e8406016f310cd321d36bbdd10d41287",
            "reqSigs": 1,
            "type": "scripthash",
            "addresses": [
              "MEW7Lhk6QzBLmCNp5pmpYzwv1KAcKYsSQp"
            ]
          }
        }
      ],
      "hex": "01000000000101fa7d30b835642925387c35923562237bce403e76051d00f51d7bc3e487886f3201000000232200207975c3f0d1bf8b6205e1c664d703c93d68409676bf17c5e78cdece78bdbf3dbfffffffff0254ca2700000000001976a91467e3a26468e836126679ff6017fc3ed28425b75588ac7cc01b450000000017a914486ce63d83e8406016f310cd321d36bbdd10d41287040047304402203fbda5c06beae9d9373d7d47121c2e6b4fefd2e38339f030d1e3bed64c0a7dd2022055449090622c3a84117694fb55eca9cb369d5cdf469c52792105b0c39fcfb01501483045022100c408758b2fb78d4f47289a8c30a9d5ec9df2977a14908af4fac376668cd4c22002201ee7397463bb7f80e1d1faead1716154430c36bcd5ddd7c8151c509d0e35fa370147522102611be09a0c6a571c8f68adb2481e938888756d93d4ee5b670f08c16e939b7f1a21022cc7a96a72ef014bf078a6489644e2edb05bb216d30b4f28363b637fe4463fd652ae00000000"
    }, 
    {
      "txid": "8a738b9fd054685c266d98d617c902f9fbe3ebde12005dfa0e71d2c9ada39517",
      "hash": "8a738b9fd054685c266d98d617c902f9fbe3ebde12005dfa0e71d2c9ada39517",
      "version": 2,
      "size": 225,
      "vsize": 225,
      "locktime": 1358873,
      "vin": [
        {
          "txid": "24da8b31ea8a028b45a02bbc9df2c9b036e8f89247e35488df6fb494a9431f45",
          "vout": 1,
          "scriptSig": {
            "asm": "30440220288b14a6d841516ed674e1611a62e339639136b2d00f7245fd7d27f2d31ae0e102204885472b40d9c42d849850c180a486d55c3df64f928539b14102e0bc8822405a[ALL] 038c35bb68cbb3048d7d7db1ae9410adf8b0c1500bb3db38d022da7b3fbe54e75f",
            "hex": "4730440220288b14a6d841516ed674e1611a62e339639136b2d00f7245fd7d27f2d31ae0e102204885472b40d9c42d849850c180a486d55c3df64f928539b14102e0bc8822405a0121038c35bb68cbb3048d7d7db1ae9410adf8b0c1500bb3db38d022da7b3fbe54e75f"
          },
          "sequence": 4294967294
        }
      ],
      "vout": [
        {
          "value": 0.25000000,
          "n": 0,
          "scriptPubKey": {
            "asm": "OP_DUP OP_HASH160 375be616e689fa639db88da0f123bfd2adfacea2 OP_EQUALVERIFY OP_CHECKSIG",
            "hex": "76a914375be616e689fa639db88da0f123bfd2adfacea288ac",
            "reqSigs": 1,
            "type": "pubkeyhash",
            "addresses": [
              "LQGfX19VxfJuW7DbzvvoWX1aFAsTiku8wN"
            ]
          }
        }, 
        {
          "value": 0.00977400,
          "n": 1,
          "scriptPubKey": {
            "asm": "OP_DUP OP_HASH160 9846843b56b81248dce6b79dd32eaefde48a97f4 OP_EQUALVERIFY OP_CHECKSIG",
            "hex": "76a9149846843b56b81248dce6b79dd32eaefde48a97f488ac",
            "reqSigs": 1,
            "type": "pubkeyhash",
            "addresses": [
              "LZ77SwoUeRhdsHEZz76Fqo82PaNrF4KdK9"
            ]
          }
        }
      ],
      "hex": "0200000001451f43a994b46fdf8854e34792f8e836b0c9f29dbc2ba0458b028aea318bda24010000006a4730440220288b14a6d841516ed674e1611a62e339639136b2d00f7245fd7d27f2d31ae0e102204885472b40d9c42d849850c180a486d55c3df64f928539b14102e0bc8822405a0121038c35bb68cbb3048d7d7db1ae9410adf8b0c1500bb3db38d022da7b3fbe54e75ffeffffff0240787d01000000001976a914375be616e689fa639db88da0f123bfd2adfacea288acf8e90e00000000001976a9149846843b56b81248dce6b79dd32eaefde48a97f488ac19bc1400"
    }, 
    {
      "txid": "33626d4aaae51a7bd63c0314dc4a9fb240f87a064af0302dcee050d57f2ead80",
      "hash": "33626d4aaae51a7bd63c0314dc4a9fb240f87a064af0302dcee050d57f2ead80",
      "version": 1,
      "size": 225,
      "vsize": 225,
      "locktime": 0,
      "vin": [
        {
          "txid": "612ba38e55fb9c0d5e84a9a393dd649836f0282b4fe68482c1ced059828514a2",
          "vout": 1,
          "scriptSig": {
            "asm": "3044022022c5e8edeaf470a5ddef37c504f0d7f37bab6eb32cf7b620c777f243f6b3481402201cea10a769a4100994b0db126f6165d3319de31b77ff9d01c4f5bbce25574432[ALL] 037ec8d71c378c166396c4e26d8543abeaa5ef6c969bb9e23e4d4fc0b190a0af42",
            "hex": "473044022022c5e8edeaf470a5ddef37c504f0d7f37bab6eb32cf7b620c777f243f6b3481402201cea10a769a4100994b0db126f6165d3319de31b77ff9d01c4f5bbce255744320121037ec8d71c378c166396c4e26d8543abeaa5ef6c969bb9e23e4d4fc0b190a0af42"
          },
          "sequence": 4294967295
        }
      ],
      "vout": [
        {
          "value": 0.35518559,
          "n": 0,
          "scriptPubKey": {
            "asm": "OP_DUP OP_HASH160 567db0f5df6877058a05cba049ded88936a65ba3 OP_EQUALVERIFY OP_CHECKSIG",
            "hex": "76a914567db0f5df6877058a05cba049ded88936a65ba388ac",
            "reqSigs": 1,
            "type": "pubkeyhash",
            "addresses": [
              "LT7GwtfwMUKphSps33ToxT6ELH4T7a1bxX"
            ]
          }
        }, 
        {
          "value": 0.99977400,
          "n": 1,
          "scriptPubKey": {
            "asm": "OP_DUP OP_HASH160 5b3371ae47aacfeb834a4ed40d7c28613affb483 OP_EQUALVERIFY OP_CHECKSIG",
            "hex": "76a9145b3371ae47aacfeb834a4ed40d7c28613affb48388ac",
            "reqSigs": 1,
            "type": "pubkeyhash",
            "addresses": [
              "LTYBP4n1HXqD41T1FWuE2SP4L1Ztku1sgT"
            ]
          }
        }
      ],
      "hex": "0100000001a214858259d0cec18284e64f2b28f0369864dd93a3a9845e0d9cfb558ea32b61010000006a473044022022c5e8edeaf470a5ddef37c504f0d7f37bab6eb32cf7b620c777f243f6b3481402201cea10a769a4100994b0db126f6165d3319de31b77ff9d01c4f5bbce255744320121037ec8d71c378c166396c4e26d8543abeaa5ef6c969bb9e23e4d4fc0b190a0af42ffffffff025ff81d02000000001976a914567db0f5df6877058a05cba049ded88936a65ba388acb888f505000000001976a9145b3371ae47aacfeb834a4ed40d7c28613affb48388ac00000000"
    }, 
    {
      "txid": "7a54cd81ef430a5b4ba6bbbc93ccb6b2547ac55ad6bbcb8dfd9022c80bcc23ce",
      "hash": "7a54cd81ef430a5b4ba6bbbc93ccb6b2547ac55ad6bbcb8dfd9022c80bcc23ce",
      "version": 1,
      "size": 225,
      "vsize": 225,
      "locktime": 0,
      "vin": [
        {
          "txid": "e09cd46dbc76d6c68dc1fa639e5bf88a8a3a6f15a9d4285f9f21ef7aeb2bf755",
          "vout": 0,
          "scriptSig": {
            "asm": "30440220597a639e48b3f5e0fd9c323e493d82f1e664059ac4a00f26f730c4daef36054e022066481f0d404f7062b62210da57256cc09bed5d3914d462d804d5559eff2ecb81[ALL] 023390dc2f3c289aae7a86de6652627388dcadd66a3542a6ccc0ccb1454bb8f880",
            "hex": "4730440220597a639e48b3f5e0fd9c323e493d82f1e664059ac4a00f26f730c4daef36054e022066481f0d404f7062b62210da57256cc09bed5d3914d462d804d5559eff2ecb810121023390dc2f3c289aae7a86de6652627388dcadd66a3542a6ccc0ccb1454bb8f880"
          },
          "sequence": 4294967295
        }
      ],
      "vout": [
        {
          "value": 0.08977600,
          "n": 0,
          "scriptPubKey": {
            "asm": "OP_DUP OP_HASH160 95b779a3a0f3d4cfda6821a13b3b3aadc060ef19 OP_EQUALVERIFY OP_CHECKSIG",
            "hex": "76a91495b779a3a0f3d4cfda6821a13b3b3aadc060ef1988ac",
            "reqSigs": 1,
            "type": "pubkeyhash",
            "addresses": [
              "LYsajsaaS8EPmLjALNJKZyQb9bnLxo9uCu"
            ]
          }
        }, 
        {
          "value": 0.49977400,
          "n": 1,
          "scriptPubKey": {
            "asm": "OP_DUP OP_HASH160 958eb0680f2fb5574805945f7a1624a9785a6fda OP_EQUALVERIFY OP_CHECKSIG",
            "hex": "76a914958eb0680f2fb5574805945f7a1624a9785a6fda88ac",
            "reqSigs": 1,
            "type": "pubkeyhash",
            "addresses": [
              "LYrjt1P4eBtGiKygV4TbYXrZVdNsJLxk52"
            ]
          }
        }
      ],
      "hex": "010000000155f72beb7aef219f5f28d4a9156f3a8a8af85b9e63fac18dc6d676bc6dd49ce0000000006a4730440220597a639e48b3f5e0fd9c323e493d82f1e664059ac4a00f26f730c4daef36054e022066481f0d404f7062b62210da57256cc09bed5d3914d462d804d5559eff2ecb810121023390dc2f3c289aae7a86de6652627388dcadd66a3542a6ccc0ccb1454bb8f880ffffffff02c0fc8800000000001976a91495b779a3a0f3d4cfda6821a13b3b3aadc060ef1988ac3898fa02000000001976a914958eb0680f2fb5574805945f7a1624a9785a6fda88ac00000000"
    }, 
    {
      "txid": "22c43d409a5ac1512623ad6add42060acd45bb86bd259727884e483c05eb013d",
      "hash": "22c43d409a5ac1512623ad6add42060acd45bb86bd259727884e483c05eb013d",
      "version": 1,
      "size": 226,
      "vsize": 226,
      "locktime": 0,
      "vin": [
        {
          "txid": "3289879a99315bd14597da392ca62bfebcb3f624241f227f307bcf41524a3d76",
          "vout": 0,
          "scriptSig": {
            "asm": "3045022100fc9c5bd4529a43995ded35edac3908ff22ca3b0ae4a3ee9e517d1dd3edc13d7d02202a9820461863f1cd2a77298b60bbf5da3b0af4957398adbc634d88d443a589bb[ALL] 03e2c8510b605c0ff2d0d84aef9d7f493e55e66534f54709ea5e8918dfe319001a",
            "hex": "483045022100fc9c5bd4529a43995ded35edac3908ff22ca3b0ae4a3ee9e517d1dd3edc13d7d02202a9820461863f1cd2a77298b60bbf5da3b0af4957398adbc634d88d443a589bb012103e2c8510b605c0ff2d0d84aef9d7f493e55e66534f54709ea5e8918dfe319001a"
          },
          "sequence": 4294967295
        }
      ],
      "vout": [
        {
          "value": 0.00099500,
          "n": 0,
          "scriptPubKey": {
            "asm": "OP_DUP OP_HASH160 31a98f5dd166122225bc37a72cc0f073f1c4c408 OP_EQUALVERIFY OP_CHECKSIG",
            "hex": "76a91431a98f5dd166122225bc37a72cc0f073f1c4c40888ac",
            "reqSigs": 1,
            "type": "pubkeyhash",
            "addresses": [
              "LPkYVrEyvBTM9AbcdBgtRtMM4EfCHmrrBU"
            ]
          }
        }, 
        {
          "value": 0.34000000,
          "n": 1,
          "scriptPubKey": {
            "asm": "OP_DUP OP_HASH160 cf0b99bddf5d25d4a63ee39e2a377955f7fb1b88 OP_EQUALVERIFY OP_CHECKSIG",
            "hex": "76a914cf0b99bddf5d25d4a63ee39e2a377955f7fb1b8888ac",
            "reqSigs": 1,
            "type": "pubkeyhash",
            "addresses": [
              "Le6i2wcovYxGZQgGJnrddNKWaLJXFLgKuV"
            ]
          }
        }
      ],
      "hex": "0100000001763d4a5241cf7b307f221f2424f6b3bcfe2ba62c39da9745d15b31999a878932000000006b483045022100fc9c5bd4529a43995ded35edac3908ff22ca3b0ae4a3ee9e517d1dd3edc13d7d02202a9820461863f1cd2a77298b60bbf5da3b0af4957398adbc634d88d443a589bb012103e2c8510b605c0ff2d0d84aef9d7f493e55e66534f54709ea5e8918dfe319001affffffff02ac840100000000001976a91431a98f5dd166122225bc37a72cc0f073f1c4c40888ac80cc0602000000001976a914cf0b99bddf5d25d4a63ee39e2a377955f7fb1b8888ac00000000"
    }, 
    {
      "txid": "1740ca2c433b3ecf4d6a10c3f7673578f3f1d6334d4d3fbc812dd7a22d84a277",
      "hash": "1740ca2c433b3ecf4d6a10c3f7673578f3f1d6334d4d3fbc812dd7a22d84a277",
      "version": 1,
      "size": 226,
      "vsize": 226,
      "locktime": 0,
      "vin": [
        {
          "txid": "e057405fea326cdf049695b04481da3e003ebff383d295cb1cff8738ce2e68d0",
          "vout": 0,
          "scriptSig": {
            "asm": "3045022100be95144043a4547b6e070558c9f1d208e169dbcf7fae53b43f0083b047cae24e0220722d98502bbfc325167a84f3bc78bfe7ff0556a640ba13d565568ab2d5aeb0a1[ALL] 02b5845f5621df85b64e2984df485947f7d917520470ff33039edf79cbc3d76783",
            "hex": "483045022100be95144043a4547b6e070558c9f1d208e169dbcf7fae53b43f0083b047cae24e0220722d98502bbfc325167a84f3bc78bfe7ff0556a640ba13d565568ab2d5aeb0a1012102b5845f5621df85b64e2984df485947f7d917520470ff33039edf79cbc3d76783"
          },
          "sequence": 4294967295
        }
      ],
      "vout": [
        {
          "value": 0.01540755,
          "n": 0,
          "scriptPubKey": {
            "asm": "OP_DUP OP_HASH160 14fdb5b011d7e86281011edc2f1ca38d3b88c96e OP_EQUALVERIFY OP_CHECKSIG",
            "hex": "76a91414fdb5b011d7e86281011edc2f1ca38d3b88c96e88ac",
            "reqSigs": 1,
            "type": "pubkeyhash",
            "addresses": [
              "LM8wi7KpVitD6QPbEbXpzP7jKdwVXgYqVL"
            ]
          }
        }, 
        {
          "value": 0.30000000,
          "n": 1,
          "scriptPubKey": {
            "asm": "OP_DUP OP_HASH160 394f7395832a75cd97469cccfb851e36ffe081d6 OP_EQUALVERIFY OP_CHECKSIG",
            "hex": "76a914394f7395832a75cd97469cccfb851e36ffe081d688ac",
            "reqSigs": 1,
            "type": "pubkeyhash",
            "addresses": [
              "LQSyxXwphSEbsobAcEmLsMPkKzAan11fKy"
            ]
          }
        }
      ],
      "hex": "0100000001d0682ece3887ff1ccb95d283f3bf3e003eda8144b0959604df6c32ea5f4057e0000000006b483045022100be95144043a4547b6e070558c9f1d208e169dbcf7fae53b43f0083b047cae24e0220722d98502bbfc325167a84f3bc78bfe7ff0556a640ba13d565568ab2d5aeb0a1012102b5845f5621df85b64e2984df485947f7d917520470ff33039edf79cbc3d76783ffffffff0293821700000000001976a91414fdb5b011d7e86281011edc2f1ca38d3b88c96e88ac80c3c901000000001976a914394f7395832a75cd97469cccfb851e36ffe081d688ac00000000"
    }
  ],
  "time": 1517204421,
  "mediantime": 1517203973,
  "nonce": 2088167591,
  "bits": "1a042eae",
  "difficulty": 4011378.762614286,
  "chainwork": "0000000000000000000000000000000000000000000000337aa537ebc4f48f38",
  "previousblockhash": "2e8e424411c7867206783685debcfd072a103032f99319c90bb4eb290b2fb53a",
  "nextblockhash": "bc47bc027bc1b69d22ebc13f9360d434cacfb534667bb9f8a6db4d49cff78817"
}
