{
  "hash": "f53d88ada8d602e1205325218ff55932c43fe906d4d7db1224bd4d05894d98dd",
  "confirmations": 3056,
  "strippedsize": 3324,
  "size": 3360,
  "weight": 13332,
  "height": 1357939,
  "version": 536870912,
  "versionHex": "20000000",
  "merkleroot": "aa86c5615147d763a5b3d45a15fcb8ce3223a2442a8713369730c34dbf6103c9",
  "tx": [
    {
      "txid": "f0a3b0b2ace9eeccd393aab690f55fbed42275e3a8f75587ceddea10b563c611",
      "hash": "26343c899b621578575cc3bc72ef1750547b168cc451ea7b551a3451a307b80a",
      "version": 1,
      "size": 287,
      "vsize": 260,
      "locktime": 0,
      "vin": [
        {
          "coinbase": "0373b81441d69b272bd77bf041d69b272b4b395a2f4c54432e544f502ffabe6d6d2b64c8750f7509be63bc6286b5e44eb12c88cd97685a1734d1a3efd0482498f90100000000000000583104710400000000000000",
          "sequence": 4294967295
        }
      ],
      "vout": [
        {
          "value": 24.76544408,
          "n": 0,
          "scriptPubKey": {
            "asm": "OP_DUP OP_HASH160 7b96c291c4d9e252907e9275cd3d14fdeaeac0f1 OP_EQUALVERIFY OP_CHECKSIG",
            "hex": "76a9147b96c291c4d9e252907e9275cd3d14fdeaeac0f188ac",
            "reqSigs": 1,
            "type": "pubkeyhash",
            "addresses": [
              "LWVRyoJawzDYtvRmLVzUXqUSkNT7H1MLTt"
            ]
          }
        }, 
        {
          "value": 0.00000000,
          "n": 1,
          "scriptPubKey": {
            "asm": "OP_RETURN aa21a9edce5d892cef7f0fe711dd7f78018b92330b0f4e3276c4b3da659cab8b0414705b",
            "hex": "6a24aa21a9edce5d892cef7f0fe711dd7f78018b92330b0f4e3276c4b3da659cab8b0414705b",
            "type": "nulldata"
          }
        }, 
        {
          "value": 0.25015600,
          "n": 2,
          "scriptPubKey": {
            "asm": "OP_DUP OP_HASH160 0c617fdb2ea42aed30a509595ee21ba3f6688db0 OP_EQUALVERIFY OP_CHECKSIG",
            "hex": "76a9140c617fdb2ea42aed30a509595ee21ba3f6688db088ac",
            "reqSigs": 1,
            "type": "pubkeyhash",
            "addresses": [
              "LLMRAtr3qBje2ySEa3CnZ55LA4TQMWnRY3"
            ]
          }
        }
      ],
      "hex": "010000000001010000000000000000000000000000000000000000000000000000000000000000ffffffff550373b81441d69b272bd77bf041d69b272b4b395a2f4c54432e544f502ffabe6d6d2b64c8750f7509be63bc6286b5e44eb12c88cd97685a1734d1a3efd0482498f90100000000000000583104710400000000000000ffffffff0398119d93000000001976a9147b96c291c4d9e252907e9275cd3d14fdeaeac0f188ac0000000000000000266a24aa21a9edce5d892cef7f0fe711dd7f78018b92330b0f4e3276c4b3da659cab8b0414705b30b57d01000000001976a9140c617fdb2ea42aed30a509595ee21ba3f6688db088ac0120000000000000000000000000000000000000000000000000000000000000000000000000"
    }, 
    {
      "txid": "4deb9cfd6804eaa157f00091b2423e6e90ec854667d4aa0f84978198da1eb1c5",
      "hash": "4deb9cfd6804eaa157f00091b2423e6e90ec854667d4aa0f84978198da1eb1c5",
      "version": 1,
      "size": 373,
      "vsize": 373,
      "locktime": 1357937,
      "vin": [
        {
          "txid": "f9f9bab70c4c927c7546ba156a1bad49147991151001d016089c08fa3f3a06c9",
          "vout": 0,
          "scriptSig": {
            "asm": "3045022100ad483aab893e93d5fab919841e88bb323996895a4acca6dec35ac7fe2eb32b6c022046dcb8e1f8efbe50c20224cb64929c806f594b6ea401dce46b6ae4ca0ca441ed[ALL] 0231e0506ff6c4f74b48034e16f2e166e4d5b5aa873c0ec5f2a3b98a402a24dc08",
            "hex": "483045022100ad483aab893e93d5fab919841e88bb323996895a4acca6dec35ac7fe2eb32b6c022046dcb8e1f8efbe50c20224cb64929c806f594b6ea401dce46b6ae4ca0ca441ed01210231e0506ff6c4f74b48034e16f2e166e4d5b5aa873c0ec5f2a3b98a402a24dc08"
          },
          "sequence": 4294967294
        }, 
        {
          "txid": "c57a56962e456f692bccbbbf2eeecdf889a684247ff5740f3c89a63859d2cf4f",
          "vout": 1,
          "scriptSig": {
            "asm": "3044022075b649185fde3dd0eb030f407c7375ada2acdbed3f9210269536b92dd0893cc1022035bff490ce51021c31036a1369632d83084558161ae740064d99b02eb60ef9e4[ALL] 03be264086c9a8e81fa9eb59a403bb8cf299339c9c53d0acb7b3d7c503d5eac216",
            "hex": "473044022075b649185fde3dd0eb030f407c7375ada2acdbed3f9210269536b92dd0893cc1022035bff490ce51021c31036a1369632d83084558161ae740064d99b02eb60ef9e4012103be264086c9a8e81fa9eb59a403bb8cf299339c9c53d0acb7b3d7c503d5eac216"
          },
          "sequence": 4294967294
        }
      ],
      "vout": [
        {
          "value": 0.01104099,
          "n": 0,
          "scriptPubKey": {
            "asm": "OP_DUP OP_HASH160 a0e00bfc85f0f33e3b7d48921d9d1bae1dcaadd5 OP_EQUALVERIFY OP_CHECKSIG",
            "hex": "76a914a0e00bfc85f0f33e3b7d48921d9d1bae1dcaadd588ac",
            "reqSigs": 1,
            "type": "pubkeyhash",
            "addresses": [
              "LZtamxAhyTd7EYdFxrABMx1K36xHcenqrR"
            ]
          }
        }, 
        {
          "value": 0.00220090,
          "n": 1,
          "scriptPubKey": {
            "asm": "OP_DUP OP_HASH160 b62d71c9973c74694f30032b96e45685fe56d9e3 OP_EQUALVERIFY OP_CHECKSIG",
            "hex": "76a914b62d71c9973c74694f30032b96e45685fe56d9e388ac",
            "reqSigs": 1,
            "type": "pubkeyhash",
            "addresses": [
              "LbqDgfUQ8JLiD52H7qjpuPBS2fr2Az9eEh"
            ]
          }
        }
      ],
      "hex": "0100000002c9063a3ffa089c0816d001101591791449ad1b6a15ba46757c924c0cb7baf9f9000000006b483045022100ad483aab893e93d5fab919841e88bb323996895a4acca6dec35ac7fe2eb32b6c022046dcb8e1f8efbe50c20224cb64929c806f594b6ea401dce46b6ae4ca0ca441ed01210231e0506ff6c4f74b48034e16f2e166e4d5b5aa873c0ec5f2a3b98a402a24dc08feffffff4fcfd25938a6893c0f74f57f2484a689f8cdee2ebfbbcc2b696f452e96567ac5010000006a473044022075b649185fde3dd0eb030f407c7375ada2acdbed3f9210269536b92dd0893cc1022035bff490ce51021c31036a1369632d83084558161ae740064d99b02eb60ef9e4012103be264086c9a8e81fa9eb59a403bb8cf299339c9c53d0acb7b3d7c503d5eac216feffffff02e3d81000000000001976a914a0e00bfc85f0f33e3b7d48921d9d1bae1dcaadd588acba5b0300000000001976a914b62d71c9973c74694f30032b96e45685fe56d9e388ac71b81400"
    }, 
    {
      "txid": "b546cd0af152af6f66a22f7ad584b774ee12092a514c2b32ed4d2817c4ad607d",
      "hash": "b546cd0af152af6f66a22f7ad584b774ee12092a514c2b32ed4d2817c4ad607d",
      "version": 1,
      "size": 225,
      "vsize": 225,
      "locktime": 0,
      "vin": [
        {
          "txid": "0c5145dd2d37b8c6a9c7c3836f056c4172f9dd734f28b525d1b8d7cd2de89174",
          "vout": 8,
          "scriptSig": {
            "asm": "304402206cdfd870bcf5e3d813fb1ead07922a7ac082a9e44cacd57498b97cd2ccbef9a1022038d75a40473d99b02ee1c169ccc7ae04354bcb5d1e3e2c3dc8a39d046bd2496f[ALL] 032168e400bba251e2f40678d0e6d0ac84a1aade6a06bc027755d0dcd3070a69bf",
            "hex": "47304402206cdfd870bcf5e3d813fb1ead07922a7ac082a9e44cacd57498b97cd2ccbef9a1022038d75a40473d99b02ee1c169ccc7ae04354bcb5d1e3e2c3dc8a39d046bd2496f0121032168e400bba251e2f40678d0e6d0ac84a1aade6a06bc027755d0dcd3070a69bf"
          },
          "sequence": 4294967295
        }
      ],
      "vout": [
        {
          "value": 0.01846537,
          "n": 0,
          "scriptPubKey": {
            "asm": "OP_DUP OP_HASH160 2104924a101328c6b2ae7bcf959cbd314da897e8 OP_EQUALVERIFY OP_CHECKSIG",
            "hex": "76a9142104924a101328c6b2ae7bcf959cbd314da897e888ac",
            "reqSigs": 1,
            "type": "pubkeyhash",
            "addresses": [
              "LNEY3AycVmrUtPFTaUucpWSfGfWtPcsn7D"
            ]
          }
        }, 
        {
          "value": 0.01005215,
          "n": 1,
          "scriptPubKey": {
            "asm": "OP_DUP OP_HASH160 382cd4ec17e3b876fbc95d54ed40dec8534aba60 OP_EQUALVERIFY OP_CHECKSIG",
            "hex": "76a914382cd4ec17e3b876fbc95d54ed40dec8534aba6088ac",
            "reqSigs": 1,
            "type": "pubkeyhash",
            "addresses": [
              "LQLyovEGDPwvjeCttfMRs7RXpQLQzDfiVv"
            ]
          }
        }
      ],
      "hex": "01000000017491e82dcdd7b8d125b5284f73ddf972416c056f83c3c7a9c6b8372ddd45510c080000006a47304402206cdfd870bcf5e3d813fb1ead07922a7ac082a9e44cacd57498b97cd2ccbef9a1022038d75a40473d99b02ee1c169ccc7ae04354bcb5d1e3e2c3dc8a39d046bd2496f0121032168e400bba251e2f40678d0e6d0ac84a1aade6a06bc027755d0dcd3070a69bfffffffff02092d1c00000000001976a9142104924a101328c6b2ae7bcf959cbd314da897e888ac9f560f00000000001976a914382cd4ec17e3b876fbc95d54ed40dec8534aba6088ac00000000"
    }, 
    {
      "txid": "6bb0fd8d3e0126f1eab88cf1a08de3d31db931b715c9eef29e9ef5e559b5bb93",
      "hash": "6bb0fd8d3e0126f1eab88cf1a08de3d31db931b715c9eef29e9ef5e559b5bb93",
      "version": 1,
      "size": 225,
      "vsize": 225,
      "locktime": 0,
      "vin": [
        {
          "txid": "c5d624a2d9826a09ae717960cc35e357438b64901ecaf1aa99550a377861a9b4",
          "vout": 357,
          "scriptSig": {
            "asm": "3044022008e8215df326bcf1b4ef4c6d5d22c1762fe66a6d797bb64c434a675426204df002200fe1dee523f314c1b29cf90eecdf76feb9cdc5059f687d143ad3f4234ed0b9cd[ALL] 034bbed5d8e1e39720e02e372ee3b1d40760af0b66b862702677a87653bbe827e6",
            "hex": "473044022008e8215df326bcf1b4ef4c6d5d22c1762fe66a6d797bb64c434a675426204df002200fe1dee523f314c1b29cf90eecdf76feb9cdc5059f687d143ad3f4234ed0b9cd0121034bbed5d8e1e39720e02e372ee3b1d40760af0b66b862702677a87653bbe827e6"
          },
          "sequence": 4294967295
        }
      ],
      "vout": [
        {
          "value": 0.04893005,
          "n": 0,
          "scriptPubKey": {
            "asm": "OP_DUP OP_HASH160 e54f9fce863226bf5cf64c725230a662db226574 OP_EQUALVERIFY OP_CHECKSIG",
            "hex": "76a914e54f9fce863226bf5cf64c725230a662db22657488ac",
            "reqSigs": 1,
            "type": "pubkeyhash",
            "addresses": [
              "Lg8SPXnwgtX537MPxAJGBu5otVcg7aVRrk"
            ]
          }
        }, 
        {
          "value": 0.01000711,
          "n": 1,
          "scriptPubKey": {
            "asm": "OP_DUP OP_HASH160 f8944f62a42c5e4f4b43e3046302b89aec57be43 OP_EQUALVERIFY OP_CHECKSIG",
            "hex": "76a914f8944f62a42c5e4f4b43e3046302b89aec57be4388ac",
            "reqSigs": 1,
            "type": "pubkeyhash",
            "addresses": [
              "LhtKWZ3VrzgoUaUfp1TfGLM9ztsoUgFSHs"
            ]
          }
        }
      ],
      "hex": "0100000001b4a96178370a5599aaf1ca1e90648b4357e335cc607971ae096a82d9a224d6c5650100006a473044022008e8215df326bcf1b4ef4c6d5d22c1762fe66a6d797bb64c434a675426204df002200fe1dee523f314c1b29cf90eecdf76feb9cdc5059f687d143ad3f4234ed0b9cd0121034bbed5d8e1e39720e02e372ee3b1d40760af0b66b862702677a87653bbe827e6ffffffff024da94a00000000001976a914e54f9fce863226bf5cf64c725230a662db22657488ac07450f00000000001976a914f8944f62a42c5e4f4b43e3046302b89aec57be4388ac00000000"
    }, 
    {
      "txid": "8feded6a1d51760338f11f14dd05fdc56e6dca5fa353a7ecf53769c59d9b1bce",
      "hash": "8feded6a1d51760338f11f14dd05fdc56e6dca5fa353a7ecf53769c59d9b1bce",
      "version": 1,
      "size": 225,
      "vsize": 225,
      "locktime": 0,
      "vin": [
        {
          "txid": "4aaeb19af4df4fdff42c332fb5277b7f5df0fa141b79e7f85ac9c40eb713d44f",
          "vout": 1,
          "scriptSig": {
            "asm": "30440220066646ad7d2f380d73308cbb7167103e1acde3e46e97767ef5caeffe47ef4fe002204b30dabebbe877bd0a61e81dc92a4378ff430dd8b841bc98178eef28ef6d7f0c[ALL] 025295d18a6366b5ddd091dce4938dc6d6c5c6f18a7574bfbe98400374307459f1",
            "hex": "4730440220066646ad7d2f380d73308cbb7167103e1acde3e46e97767ef5caeffe47ef4fe002204b30dabebbe877bd0a61e81dc92a4378ff430dd8b841bc98178eef28ef6d7f0c0121025295d18a6366b5ddd091dce4938dc6d6c5c6f18a7574bfbe98400374307459f1"
          },
          "sequence": 4294967295
        }
      ],
      "vout": [
        {
          "value": 0.23012000,
          "n": 0,
          "scriptPubKey": {
            "asm": "OP_DUP OP_HASH160 03c7cff3ad4de6b2ec0b88d49fdbb2bfe83988a7 OP_EQUALVERIFY OP_CHECKSIG",
            "hex": "76a91403c7cff3ad4de6b2ec0b88d49fdbb2bfe83988a788ac",
            "reqSigs": 1,
            "type": "pubkeyhash",
            "addresses": [
              "LKZwezT5n5XrWPNFSiMocRVp8zqZqyW2da"
            ]
          }
        }, 
        {
          "value": 165.76708065,
          "n": 1,
          "scriptPubKey": {
            "asm": "OP_DUP OP_HASH160 ece501187187286844c7810c0a4e67c1cc714f5a OP_EQUALVERIFY OP_CHECKSIG",
            "hex": "76a914ece501187187286844c7810c0a4e67c1cc714f5a88ac",
            "reqSigs": 1,
            "type": "pubkeyhash",
            "addresses": [
              "LgpY4ysDJGHiZMUkbxNBKGqMgNt7RMs1zK"
            ]
          }
        }
      ],
      "hex": "01000000014fd413b70ec4c95af8e7791b14faf05d7f7b27b52f332cf4df4fdff49ab1ae4a010000006a4730440220066646ad7d2f380d73308cbb7167103e1acde3e46e97767ef5caeffe47ef4fe002204b30dabebbe877bd0a61e81dc92a4378ff430dd8b841bc98178eef28ef6d7f0c0121025295d18a6366b5ddd091dce4938dc6d6c5c6f18a7574bfbe98400374307459f1ffffffff02a0225f01000000001976a91403c7cff3ad4de6b2ec0b88d49fdbb2bfe83988a788ace17d0cdc030000001976a914ece501187187286844c7810c0a4e67c1cc714f5a88ac00000000"
    }, 
    {
      "txid": "2aeafa23a1329106eae538f829f7eca583feac1340f8290a192a92fe6e7d99c9",
      "hash": "2aeafa23a1329106eae538f829f7eca583feac1340f8290a192a92fe6e7d99c9",
      "version": 1,
      "size": 226,
      "vsize": 226,
      "locktime": 0,
      "vin": [
        {
          "txid": "62c0dfff0a9ae9000ae9595184fe4bd55533b0b745f995ee74710eddc33a29ef",
          "vout": 1,
          "scriptSig": {
            "asm": "30450221009e7007179e0d0fd922f13d8f2f6b0dfd2ec0dd8182121a310667e46cf97dc4c50220123db0d8150f458666269224b29471206996db47a38c769e4ba29583f95c8a86[ALL] 02bca2b512cd469b6491694d1596cca64ccd3ec17e8fc2d7a99bc30df29054dcba",
            "hex": "4830450221009e7007179e0d0fd922f13d8f2f6b0dfd2ec0dd8182121a310667e46cf97dc4c50220123db0d8150f458666269224b29471206996db47a38c769e4ba29583f95c8a86012102bca2b512cd469b6491694d1596cca64ccd3ec17e8fc2d7a99bc30df29054dcba"
          },
          "sequence": 4294967295
        }
      ],
      "vout": [
        {
          "value": 0.05056000,
          "n": 0,
          "scriptPubKey": {
            "asm": "OP_DUP OP_HASH160 b871b49b1f63c5ce97d2561bc43cc0ff264e0c41 OP_EQUALVERIFY OP_CHECKSIG",
            "hex": "76a914b871b49b1f63c5ce97d2561bc43cc0ff264e0c4188ac",
            "reqSigs": 1,
            "type": "pubkeyhash",
            "addresses": [
              "Lc3CouVgxYaeb1YQoGPzEPfEG2TKhkgfTc"
            ]
          }
        }, 
        {
          "value": 0.08169935,
          "n": 1,
          "scriptPubKey": {
            "asm": "OP_DUP OP_HASH160 614f995858f7fd0e75ef69fe24878966cad5535e OP_EQUALVERIFY OP_CHECKSIG",
            "hex": "76a914614f995858f7fd0e75ef69fe24878966cad5535e88ac",
            "reqSigs": 1,
            "type": "pubkeyhash",
            "addresses": [
              "LU6VATRPf3rcAGjm8py3kFLrQATgpGHRSL"
            ]
          }
        }
      ],
      "hex": "0100000001ef293ac3dd0e7174ee95f945b7b03355d54bfe845159e90a00e99a0affdfc062010000006b4830450221009e7007179e0d0fd922f13d8f2f6b0dfd2ec0dd8182121a310667e46cf97dc4c50220123db0d8150f458666269224b29471206996db47a38c769e4ba29583f95c8a86012102bca2b512cd469b6491694d1596cca64ccd3ec17e8fc2d7a99bc30df29054dcbaffffffff0200264d00000000001976a914b871b49b1f63c5ce97d2561bc43cc0ff264e0c4188accfa97c00000000001976a914614f995858f7fd0e75ef69fe24878966cad5535e88ac00000000"
    }, 
    {
      "txid": "c0594e3b2784552d14051e2a87aa88c90dd4f520c4e83e03a98d9bebdd9594d4",
      "hash": "c0594e3b2784552d14051e2a87aa88c90dd4f520c4e83e03a98d9bebdd9594d4",
      "version": 1,
      "size": 225,
      "vsize": 225,
      "locktime": 0,
      "vin": [
        {
          "txid": "2d8f2b54c5b1be266cd160f90f8c4a334217be25a7f07401b191e00f52b14f97",
          "vout": 0,
          "scriptSig": {
            "asm": "304402204af00bf801a30a6880a7e35d102baf32386479181d3c5c874098863b499ee649022002f7831c94d951754d78fe42d3b71a7a07c4d542df28c4820c2673eac27aadc5[ALL] 029b3d7c337d787527780933ff9e9d3d05bb8fcc86fadbe2cdb703a5f4d6789e79",
            "hex": "47304402204af00bf801a30a6880a7e35d102baf32386479181d3c5c874098863b499ee649022002f7831c94d951754d78fe42d3b71a7a07c4d542df28c4820c2673eac27aadc50121029b3d7c337d787527780933ff9e9d3d05bb8fcc86fadbe2cdb703a5f4d6789e79"
          },
          "sequence": 4294967295
        }
      ],
      "vout": [
        {
          "value": 0.10577610,
          "n": 0,
          "scriptPubKey": {
            "asm": "OP_DUP OP_HASH160 5674494e7cc85aad1440b611ada4bf5fbc45134a OP_EQUALVERIFY OP_CHECKSIG",
            "hex": "76a9145674494e7cc85aad1440b611ada4bf5fbc45134a88ac",
            "reqSigs": 1,
            "type": "pubkeyhash",
            "addresses": [
              "LT75gRmrXx9tcX2NPFGjP5RWC7SE2LHUw1"
            ]
          }
        }, 
        {
          "value": 0.10000000,
          "n": 1,
          "scriptPubKey": {
            "asm": "OP_DUP OP_HASH160 afad4b2617a1e61bfcdb227b4afc0056d6e0e40b OP_EQUALVERIFY OP_CHECKSIG",
            "hex": "76a914afad4b2617a1e61bfcdb227b4afc0056d6e0e40b88ac",
            "reqSigs": 1,
            "type": "pubkeyhash",
            "addresses": [
              "LbEr7RuhpnnhfiSWgJuBUifQCFwvj9ZknM"
            ]
          }
        }
      ],
      "hex": "0100000001974fb1520fe091b10174f0a725be1742334a8c0ff960d16c26beb1c5542b8f2d000000006a47304402204af00bf801a30a6880a7e35d102baf32386479181d3c5c874098863b499ee649022002f7831c94d951754d78fe42d3b71a7a07c4d542df28c4820c2673eac27aadc50121029b3d7c337d787527780933ff9e9d3d05bb8fcc86fadbe2cdb703a5f4d6789e79ffffffff02ca66a100000000001976a9145674494e7cc85aad1440b611ada4bf5fbc45134a88ac80969800000000001976a914afad4b2617a1e61bfcdb227b4afc0056d6e0e40b88ac00000000"
    }, 
    {
      "txid": "80403b44b4ab4d940b194688fa62eea0b99e4bc0cda406e0a22adf6fe0ad101e",
      "hash": "80403b44b4ab4d940b194688fa62eea0b99e4bc0cda406e0a22adf6fe0ad101e",
      "version": 2,
      "size": 225,
      "vsize": 225,
      "locktime": 1357936,
      "vin": [
        {
          "txid": "ad1f872cfc5015a5fcaaacad8bfcbb0aee662d3893dd44587491437b4ab1725b",
          "vout": 0,
          "scriptSig": {
            "asm": "304402202df4d4ad4b4d9bf3d45fb85d64d06f942cedff8337a91df94f35eca44abbe7e702206e40de19678609329711b04ea70491c6b8a74fe04d5fb739709ed297ac36c46b[ALL] 038ba189913b42ac26de55ebefa5da329631634331b2d662d2d8e96fd1f2320511",
            "hex": "47304402202df4d4ad4b4d9bf3d45fb85d64d06f942cedff8337a91df94f35eca44abbe7e702206e40de19678609329711b04ea70491c6b8a74fe04d5fb739709ed297ac36c46b0121038ba189913b42ac26de55ebefa5da329631634331b2d662d2d8e96fd1f2320511"
          },
          "sequence": 4294967294
        }
      ],
      "vout": [
        {
          "value": 1.34488700,
          "n": 0,
          "scriptPubKey": {
            "asm": "OP_DUP OP_HASH160 4f96174ddb72d8d36babb545068b3c33112a7662 OP_EQUALVERIFY OP_CHECKSIG",
            "hex": "76a9144f96174ddb72d8d36babb545068b3c33112a766288ac",
            "reqSigs": 1,
            "type": "pubkeyhash",
            "addresses": [
              "LSUmSsirRMFZGJSRfdWLeRvUzCt2JzpfB5"
            ]
          }
        }, 
        {
          "value": 0.79156600,
          "n": 1,
          "scriptPubKey": {
            "asm": "OP_DUP OP_HASH160 aaf17fadaa86b145b505edfdf21f1d37a98306dc OP_EQUALVERIFY OP_CHECKSIG",
            "hex": "76a914aaf17fadaa86b145b505edfdf21f1d37a98306dc88ac",
            "reqSigs": 1,
            "type": "pubkeyhash",
            "addresses": [
              "LaopST7dL7VyHnUwK8KrEYctqn4mo1H78t"
            ]
          }
        }
      ],
      "hex": "02000000015b72b14a7b4391745844dd93382d66ee0abbfc8badacaafca51550fc2c871fad000000006a47304402202df4d4ad4b4d9bf3d45fb85d64d06f942cedff8337a91df94f35eca44abbe7e702206e40de19678609329711b04ea70491c6b8a74fe04d5fb739709ed297ac36c46b0121038ba189913b42ac26de55ebefa5da329631634331b2d662d2d8e96fd1f2320511feffffff027c220408000000001976a9144f96174ddb72d8d36babb545068b3c33112a766288ac78d5b704000000001976a914aaf17fadaa86b145b505edfdf21f1d37a98306dc88ac70b81400"
    }, 
    {
      "txid": "bcd1cee61a4b45fca8b3eb855e97406dcc250edee7dc579cca92193d70a4679b",
      "hash": "bcd1cee61a4b45fca8b3eb855e97406dcc250edee7dc579cca92193d70a4679b",
      "version": 1,
      "size": 225,
      "vsize": 225,
      "locktime": 0,
      "vin": [
        {
          "txid": "e2a3b364f580492dff6c15994cb6b4c16f463439b372d0382df4027b7e570caf",
          "vout": 0,
          "scriptSig": {
            "asm": "304402202d692f2e9a361dcfeb64a5c57341ab0304e8cc9f6238cdd266263b41acae59b60220524cc0e3ec90511ca891125f460cb1fb75d15e4bfc8c776d8c4ec7dc388b4a24[ALL] 0275df908a53ccbdd9195375d01471f384926758ef56b5f735665091a217dd2021",
            "hex": "47304402202d692f2e9a361dcfeb64a5c57341ab0304e8cc9f6238cdd266263b41acae59b60220524cc0e3ec90511ca891125f460cb1fb75d15e4bfc8c776d8c4ec7dc388b4a2401210275df908a53ccbdd9195375d01471f384926758ef56b5f735665091a217dd2021"
          },
          "sequence": 4294967295
        }
      ],
      "vout": [
        {
          "value": 0.18588182,
          "n": 0,
          "scriptPubKey": {
            "asm": "OP_DUP OP_HASH160 12a67fdfe6c609935ea89d07ccdf4b933dcb0509 OP_EQUALVERIFY OP_CHECKSIG",
            "hex": "76a91412a67fdfe6c609935ea89d07ccdf4b933dcb050988ac",
            "reqSigs": 1,
            "type": "pubkeyhash",
            "addresses": [
              "LLvZtFjCmeJ2X6SyzZvjCkVdvm3ACVXEuU"
            ]
          }
        }, 
        {
          "value": 2.00000000,
          "n": 1,
          "scriptPubKey": {
            "asm": "OP_DUP OP_HASH160 3f08f95a5bb873cfe58dad27a780e5b9b8e35870 OP_EQUALVERIFY OP_CHECKSIG",
            "hex": "76a9143f08f95a5bb873cfe58dad27a780e5b9b8e3587088ac",
            "reqSigs": 1,
            "type": "pubkeyhash",
            "addresses": [
              "LQyFappGdyMBUiH4uydMvnHxzczrhLUAep"
            ]
          }
        }
      ],
      "hex": "0100000001af0c577e7b02f42d38d072b33934466fc1b4b64c99156cff2d4980f564b3a3e2000000006a47304402202d692f2e9a361dcfeb64a5c57341ab0304e8cc9f6238cdd266263b41acae59b60220524cc0e3ec90511ca891125f460cb1fb75d15e4bfc8c776d8c4ec7dc388b4a2401210275df908a53ccbdd9195375d01471f384926758ef56b5f735665091a217dd2021ffffffff0216a21b01000000001976a91412a67fdfe6c609935ea89d07ccdf4b933dcb050988ac00c2eb0b000000001976a9143f08f95a5bb873cfe58dad27a780e5b9b8e3587088ac00000000"
    }, 
    {
      "txid": "2a805170579da2cd97c0a68543c020a5056238f870f557b9e3b43bf201b7b0ad",
      "hash": "2a805170579da2cd97c0a68543c020a5056238f870f557b9e3b43bf201b7b0ad",
      "version": 2,
      "size": 817,
      "vsize": 817,
      "locktime": 1357937,
      "vin": [
        {
          "txid": "82b29974c3df6d7d50eeef2a439d9dde4b727cf007582dff2f7ee227da751f20",
          "vout": 0,
          "scriptSig": {
            "asm": "3045022100914b0cc3d21fdb418e9afcfcf63d56c9e50accb6a09ffec7a9dfa4e2acf26a7f0220039073ab595721bb0fcde7a061f01ea66df2f80d2a178accdc0ac067f92ae295[ALL] 02fd0f47f3944ed54b45aeb386a70e38f83ad5af2fec6090da7b4accc819a5150e",
            "hex": "483045022100914b0cc3d21fdb418e9afcfcf63d56c9e50accb6a09ffec7a9dfa4e2acf26a7f0220039073ab595721bb0fcde7a061f01ea66df2f80d2a178accdc0ac067f92ae295012102fd0f47f3944ed54b45aeb386a70e38f83ad5af2fec6090da7b4accc819a5150e"
          },
          "sequence": 4294967294
        }, 
        {
          "txid": "9b1ef928e1580f9286f8fc59517d2dee85d2d32cb7c241a6cb18f3d045d7c5b3",
          "vout": 0,
          "scriptSig": {
            "asm": "30450221008331b7737f80963ed81dfa2c191719d4d7ebc566b0e2f54db1a5e7c88d3b541802206d62e95a77bad5609ccc9e2e96bd344857b8f9460ec3e7caf562a65c9cbbbf5d[ALL] 02730f07e01b11113f574e2b0d11b697ba151812c6cba9659e19ddac014e0c1aff",
            "hex": "4830450221008331b7737f80963ed81dfa2c191719d4d7ebc566b0e2f54db1a5e7c88d3b541802206d62e95a77bad5609ccc9e2e96bd344857b8f9460ec3e7caf562a65c9cbbbf5d012102730f07e01b11113f574e2b0d11b697ba151812c6cba9659e19ddac014e0c1aff"
          },
          "sequence": 4294967294
        }, 
        {
          "txid": "fa456ab87f84dffed1b27c199f8634e643f5b01d2d14dd7011b0192e2b8626c8",
          "vout": 1,
          "scriptSig": {
            "asm": "304402202c3809fe3b698ace28bd4ca7d4ad9e84ca26b52dcee8cad4581ca874661876e10220715b18a7f772f16870752a7f538e0d4f373f88291521151400e6379200fbc542[ALL] 02892f02ac5250544d8bdf86141df9b4261e4dd5a85e7405bd4be8d80ea5347537",
            "hex": "47304402202c3809fe3b698ace28bd4ca7d4ad9e84ca26b52dcee8cad4581ca874661876e10220715b18a7f772f16870752a7f538e0d4f373f88291521151400e6379200fbc542012102892f02ac5250544d8bdf86141df9b4261e4dd5a85e7405bd4be8d80ea5347537"
          },
          "sequence": 4294967294
        }, 
        {
          "txid": "11cbaf86cafa4f6e510ce28a2f16898e823d789f36091033e31005a6739b3db4",
          "vout": 0,
          "scriptSig": {
            "asm": "3045022100f86f87651a18a1ae4422937f1d05b6aabc6eb04727a22e0570d8f93218493126022072fbff5d6852869507bf095ae068152f98cdea70b608fd9fa4e26eec1a02de3c[ALL] 02e936011d1f25204bac5d97f963857e00c5e05abb2010d0c0e0bd6ea7e0a72ec5",
            "hex": "483045022100f86f87651a18a1ae4422937f1d05b6aabc6eb04727a22e0570d8f93218493126022072fbff5d6852869507bf095ae068152f98cdea70b608fd9fa4e26eec1a02de3c012102e936011d1f25204bac5d97f963857e00c5e05abb2010d0c0e0bd6ea7e0a72ec5"
          },
          "sequence": 4294967294
        }, 
        {
          "txid": "6baf4e2ac1fd19e78324c3c3c8873ff3f8c2456aba4e8af77196f766eb8bcf70",
          "vout": 1,
          "scriptSig": {
            "asm": "3045022100f3766a868ca0599cb7163cb7177f404980a6b4fb510c860f3a0212c775453c200220108c1be447c6f43cd30d53b85ae2bc99aa11bd1a7a9b5157773e77a77d44aa01[ALL] 02ad37e3bcec20a4bc8ccfeafea0bca63740c03dab6eb5fda382e7df624c08823a",
            "hex": "483045022100f3766a868ca0599cb7163cb7177f404980a6b4fb510c860f3a0212c775453c200220108c1be447c6f43cd30d53b85ae2bc99aa11bd1a7a9b5157773e77a77d44aa01012102ad37e3bcec20a4bc8ccfeafea0bca63740c03dab6eb5fda382e7df624c08823a"
          },
          "sequence": 4294967294
        }
      ],
      "vout": [
        {
          "value": 0.01036268,
          "n": 0,
          "scriptPubKey": {
            "asm": "OP_DUP OP_HASH160 c9f6f8895a2582c1960479e9e0936045e61316dd OP_EQUALVERIFY OP_CHECKSIG",
            "hex": "76a914c9f6f8895a2582c1960479e9e0936045e61316dd88ac",
            "reqSigs": 1,
            "type": "pubkeyhash",
            "addresses": [
              "Lddqwc7GSpS3kCPca66Qc6rSyWKcFzUR97"
            ]
          }
        }, 
        {
          "value": 0.40421637,
          "n": 1,
          "scriptPubKey": {
            "asm": "OP_DUP OP_HASH160 45f7ecfcb0a0afefdc2adaed3edaf0a6f4dccbba OP_EQUALVERIFY OP_CHECKSIG",
            "hex": "76a91445f7ecfcb0a0afefdc2adaed3edaf0a6f4dccbba88ac",
            "reqSigs": 1,
            "type": "pubkeyhash",
            "addresses": [
              "LRbutdZCpEchGyMe6qqeeV2kkXENf4QupJ"
            ]
          }
        }
      ],
      "hex": "0200000005201f75da27e27e2fff2d5807f07c724bde9d9d432aefee507d6ddfc37499b282000000006b483045022100914b0cc3d21fdb418e9afcfcf63d56c9e50accb6a09ffec7a9dfa4e2acf26a7f0220039073ab595721bb0fcde7a061f01ea66df2f80d2a178accdc0ac067f92ae295012102fd0f47f3944ed54b45aeb386a70e38f83ad5af2fec6090da7b4accc819a5150efeffffffb3c5d745d0f318cba641c2b72cd3d285ee2d7d5159fcf886920f58e128f91e9b000000006b4830450221008331b7737f80963ed81dfa2c191719d4d7ebc566b0e2f54db1a5e7c88d3b541802206d62e95a77bad5609ccc9e2e96bd344857b8f9460ec3e7caf562a65c9cbbbf5d012102730f07e01b11113f574e2b0d11b697ba151812c6cba9659e19ddac014e0c1afffeffffffc826862b2e19b01170dd142d1db0f543e634869f197cb2d1fedf847fb86a45fa010000006a47304402202c3809fe3b698ace28bd4ca7d4ad9e84ca26b52dcee8cad4581ca874661876e10220715b18a7f772f16870752a7f538e0d4f373f88291521151400e6379200fbc542012102892f02ac5250544d8bdf86141df9b4261e4dd5a85e7405bd4be8d80ea5347537feffffffb43d9b73a60510e3331009369f783d828e89162f8ae20c516e4ffaca86afcb11000000006b483045022100f86f87651a18a1ae4422937f1d05b6aabc6eb04727a22e0570d8f93218493126022072fbff5d6852869507bf095ae068152f98cdea70b608fd9fa4e26eec1a02de3c012102e936011d1f25204bac5d97f963857e00c5e05abb2010d0c0e0bd6ea7e0a72ec5feffffff70cf8beb66f79671f78a4eba6a45c2f8f33f87c8c3c32483e719fdc12a4eaf6b010000006b483045022100f3766a868ca0599cb7163cb7177f404980a6b4fb510c860f3a0212c775453c200220108c1be447c6f43cd30d53b85ae2bc99aa11bd1a7a9b5157773e77a77d44aa01012102ad37e3bcec20a4bc8ccfeafea0bca63740c03dab6eb5fda382e7df624c08823afeffffff02eccf0f00000000001976a914c9f6f8895a2582c1960479e9e0936045e61316dd88ac05c96802000000001976a91445f7ecfcb0a0afefdc2adaed3edaf0a6f4dccbba88ac71b81400"
    }, 
    {
      "txid": "bd7d2bcf8b2c3582f47a7f8bab70f81eee41ca09ccd2c580fda3a87e5fee6770",
      "hash": "bd7d2bcf8b2c3582f47a7f8bab70f81eee41ca09ccd2c580fda3a87e5fee6770",
      "version": 2,
      "size": 226,
      "vsize": 226,
      "locktime": 1357937,
      "vin": [
        {
          "txid": "f789e809c3b29e8d24aba4f877f0568b8c371a8fe628301c61f28b0341eadd04",
          "vout": 0,
          "scriptSig": {
            "asm": "30450221009af2a0e38f875a4d536805110e24c0724a9b0f4a269d21eea394b95989e9e4110220774769708aecd8a93c4743a8a6dce6af8a95d41c5886da603e0526377e056f13[ALL] 02fcf0cc716dc240fe5d7f6e84f2af8fccd14199bf01ef641cb808995e0ff34c31",
            "hex": "4830450221009af2a0e38f875a4d536805110e24c0724a9b0f4a269d21eea394b95989e9e4110220774769708aecd8a93c4743a8a6dce6af8a95d41c5886da603e0526377e056f13012102fcf0cc716dc240fe5d7f6e84f2af8fccd14199bf01ef641cb808995e0ff34c31"
          },
          "sequence": 4294967294
        }
      ],
      "vout": [
        {
          "value": 225.30310612,
          "n": 0,
          "scriptPubKey": {
            "asm": "OP_DUP OP_HASH160 6bcf2a5ace91973a29740b4dc4e17a5f568a8dbb OP_EQUALVERIFY OP_CHECKSIG",
            "hex": "76a9146bcf2a5ace91973a29740b4dc4e17a5f568a8dbb88ac",
            "reqSigs": 1,
            "type": "pubkeyhash",
            "addresses": [
              "LV3zjr43KZdyu2y9ugtdHc4PHdEQ5gn1FS"
            ]
          }
        }, 
        {
          "value": 7.09180098,
          "n": 1,
          "scriptPubKey": {
            "asm": "OP_DUP OP_HASH160 32f2829760916261d3715e145f73a502f721e0e9 OP_EQUALVERIFY OP_CHECKSIG",
            "hex": "76a91432f2829760916261d3715e145f73a502f721e0e988ac",
            "reqSigs": 1,
            "type": "pubkeyhash",
            "addresses": [
              "LPsLZhjvjq65eCgeSu5YJsxTScmC9MTC49"
            ]
          }
        }
      ],
      "hex": "020000000104ddea41038bf2611c3028e68f1a378c8b56f077f8a4ab248d9eb2c309e889f7000000006b4830450221009af2a0e38f875a4d536805110e24c0724a9b0f4a269d21eea394b95989e9e4110220774769708aecd8a93c4743a8a6dce6af8a95d41c5886da603e0526377e056f13012102fcf0cc716dc240fe5d7f6e84f2af8fccd14199bf01ef641cb808995e0ff34c31feffffff02d441e93e050000001976a9146bcf2a5ace91973a29740b4dc4e17a5f568a8dbb88acc23a452a000000001976a91432f2829760916261d3715e145f73a502f721e0e988ac71b81400"
    }
  ],
  "time": 1517067437,
  "mediantime": 1517067126,
  "nonce": 847931671,
  "bits": "1a047f14",
  "difficulty": 3731199.183374282,
  "chainwork": "000000000000000000000000000000000000000000000032a8f13faadf077ec8",
  "previousblockhash": "c879112942f823ba69a69d4535bf58459303b1b545774323601a42d0ab82ca67",
  "nextblockhash": "3cbe5228ff5ee978297e4538863c2a71fde206670342db6b114b793cc40103e5"
}
