{
  "hash": "f5ae6cf2858df87c35072c612f849f9e5dadd569a91014ecb91f5fbd3b9644ba",
  "confirmations": 906,
  "strippedsize": 1424,
  "size": 2776,
  "weight": 7048,
  "height": 1360088,
  "version": 536870912,
  "versionHex": "20000000",
  "merkleroot": "cece3c84de2cad0a41ed5a9deb401119b81430cf25471a5976ac408e22b3e973",
  "tx": [
    {
      "txid": "0ff0754cc94d7c91d20eb43c3f5bd060391e815744a493a78d151bbd7e66da62",
      "hash": "822a56dfeda84bf43c7293a977b709ce9da80925911dcca1f246c485e7918d6d",
      "version": 1,
      "size": 236,
      "vsize": 209,
      "locktime": 0,
      "vin": [
        {
          "coinbase": "03d8c014045a7144592cfabe6d6d908134f84cdf6e357a8d4eaa64075983e28fe5038947d9e3f265bc12a1b3cba94000000000000000042f4c502f08570063cc02000000",
          "sequence": 4294967295
        }
      ],
      "vout": [
        {
          "value": 25.00269701,
          "n": 0,
          "scriptPubKey": {
            "asm": "OP_DUP OP_HASH160 57757ed2ecf2052ff3126c397aca7defb9ca2cec OP_EQUALVERIFY OP_CHECKSIG",
            "hex": "76a91457757ed2ecf2052ff3126c397aca7defb9ca2cec88ac",
            "reqSigs": 1,
            "type": "pubkeyhash",
            "addresses": [
              "LTCPodGk5FwcJaRzH9yKnwicxzFUbxp6tN"
            ]
          }
        }, 
        {
          "value": 0.00000000,
          "n": 1,
          "scriptPubKey": {
            "asm": "OP_RETURN aa21a9ed5a593b67fe193c04729b4efb8670675fc58205f0e628afbd7878b29b8f64a00d",
            "hex": "6a24aa21a9ed5a593b67fe193c04729b4efb8670675fc58205f0e628afbd7878b29b8f64a00d",
            "type": "nulldata"
          }
        }
      ],
      "hex": "010000000001010000000000000000000000000000000000000000000000000000000000000000ffffffff4403d8c014045a7144592cfabe6d6d908134f84cdf6e357a8d4eaa64075983e28fe5038947d9e3f265bc12a1b3cba94000000000000000042f4c502f08570063cc02000000ffffffff0285160795000000001976a91457757ed2ecf2052ff3126c397aca7defb9ca2cec88ac0000000000000000266a24aa21a9ed5a593b67fe193c04729b4efb8670675fc58205f0e628afbd7878b29b8f64a00d0120000000000000000000000000000000000000000000000000000000000000000000000000"
    }, 
    {
      "txid": "58f4ba012f062d1d1d90be173e4bfa4d026cbdc136ab22cef8609147c7baa2ae",
      "hash": "e4a74f9708856d071b48b67c3be8ec18ca8dcd37b8384184025ddc7e345e7585",
      "version": 1,
      "size": 1816,
      "vsize": 829,
      "locktime": 0,
      "vin": [
        {
          "txid": "3def8c7f19e1747db0a36701864a4ead0338809f062b72b0d3a4ff845740cc0d",
          "vout": 128,
          "scriptSig": {
            "asm": "0020bedcb79770a63ce56713ca966aaa84128cfa6686db8a394018a84a5ead269cfb",
            "hex": "220020bedcb79770a63ce56713ca966aaa84128cfa6686db8a394018a84a5ead269cfb"
          },
          "txinwitness": [
            "", 
            "304402203fadaa3649d8959887d716b3571ddda05c3d83a569243b2d680a6b0611509d0f022042b17eb9f5c0a84407d947f87dda152f7221f5302b16723a2d89364725f02a0001", 
            "3045022100e3cd445aa127b5ff144f66c9451ff51e229e740761324fe670fec1031fdbfde002207352e86ebb0f33f1aae0191fd5ace494d2ff0f95e71346399dd81dce33b3f59701", 
            "5221027d33de64bc5077edd43f136f8b1a49d4624bffb99b2d7950e7a96ebce0113bf9210211fdae50e3f9cb83bb5a3f7171f745b100d963ac2dc2f56cc1d3a5310d1b8e6252ae"
          ],
          "sequence": 4294967295
        }, 
        {
          "txid": "99ec3ae7607c0873f67844012ea52bdf09ee15cd7d6bbdb6f1c1b4e1ab8a120b",
          "vout": 32,
          "scriptSig": {
            "asm": "0020358299d65388e7bd3de3a7b3f41de197753451c78711f404bf911a745b2fa9fc",
            "hex": "220020358299d65388e7bd3de3a7b3f41de197753451c78711f404bf911a745b2fa9fc"
          },
          "txinwitness": [
            "", 
            "3044022076af30fac28d250fa0a5f3dca0e7168d44de8f2b3d06d166f3955072db8990040220443267e1a55e9a1994ad7e4edb53d7615658dfb0d15abcd29ae7e035ca32e54801", 
            "30450221009b2000c98c38cfed63dbeeae2fccc1b94a9805f3e90f06429a40b468745c9e46022020d48a69992b019cf76ab33d7b48c41936132cf75e47734ed45d6696e678c87401", 
            "5221025b7531e87ef0afc6b391d34fc55949fac365ee6c1f9c032a9eaaf57a441b7f61210211fdae50e3f9cb83bb5a3f7171f745b100d963ac2dc2f56cc1d3a5310d1b8e6252ae"
          ],
          "sequence": 4294967295
        }, 
        {
          "txid": "99ec3ae7607c0873f67844012ea52bdf09ee15cd7d6bbdb6f1c1b4e1ab8a120b",
          "vout": 153,
          "scriptSig": {
            "asm": "00208bca2517411fc21da2d5fa17f3203b7b2a2db5fee7c948730f848aeb10e68138",
            "hex": "2200208bca2517411fc21da2d5fa17f3203b7b2a2db5fee7c948730f848aeb10e68138"
          },
          "txinwitness": [
            "", 
            "30440220507c95b71c3d43bc9b8b7101efdb2cb26255ca98ed6d8f1e42a7f46c0ef115c502205d40159e081766ca7f86dc8f52f0cc08e1e0ce975b6e14687edfd767ab1a3bc301", 
            "304502210081ec63cfc874297cd23773daedf5fd9672a8b5fbaae9343d62b19bae0759505802200860af9fb8b8b949125115552979aff3bbbf763a3aee2b33d94d3c3a9a8e2a6b01", 
            "52210235d7d7caf75326b5f2be00501f74547df9acbbe7fad38c1603be9be6663027e4210211fdae50e3f9cb83bb5a3f7171f745b100d963ac2dc2f56cc1d3a5310d1b8e6252ae"
          ],
          "sequence": 4294967295
        }, 
        {
          "txid": "71c62398e3b5f0af025a864f3aca32175537ac03382ec23017896cc17c06f273",
          "vout": 130,
          "scriptSig": {
            "asm": "0020bedcb79770a63ce56713ca966aaa84128cfa6686db8a394018a84a5ead269cfb",
            "hex": "220020bedcb79770a63ce56713ca966aaa84128cfa6686db8a394018a84a5ead269cfb"
          },
          "txinwitness": [
            "", 
            "3045022100c7e429abca7c812b500a0bba267cb6d2cd19b88594dee26ae605dab2906c03c302201f5a1b6c161cfda909469f52622c811574fd339ccd85509adf59c08346d8b00101", 
            "304402201a31c34266807e98ef37ab5b4867e2056088469a700c88c4697023da16821b860220094496dff0f080cfffa9e5c27aab5e64fe82aa88a4c02b757b6b81e171983f5701", 
            "5221027d33de64bc5077edd43f136f8b1a49d4624bffb99b2d7950e7a96ebce0113bf9210211fdae50e3f9cb83bb5a3f7171f745b100d963ac2dc2f56cc1d3a5310d1b8e6252ae"
          ],
          "sequence": 4294967295
        }, 
        {
          "txid": "9e61cc2a5a412320a9cbe93c396a89650782fbab452ae49da039545b6f0eff1e",
          "vout": 28,
          "scriptSig": {
            "asm": "0020358299d65388e7bd3de3a7b3f41de197753451c78711f404bf911a745b2fa9fc",
            "hex": "220020358299d65388e7bd3de3a7b3f41de197753451c78711f404bf911a745b2fa9fc"
          },
          "txinwitness": [
            "", 
            "3044022042bb0642e0c6b5ebca17970429b02eca926684ba007e2830e1c805722d8c480a0220731cc5b57915a84b2ced07abed4d8c340a4dc94e97a18068c4beefe3d0ca9b2f01", 
            "3045022100b4ac7d643a264e3bb6520d5fe6f323d09c5456ca65c43ed515377ff01fecb43102203b891724e98b51d122f8dd832525797494e3ef55eac7e0abaa8c470ff604103501", 
            "5221025b7531e87ef0afc6b391d34fc55949fac365ee6c1f9c032a9eaaf57a441b7f61210211fdae50e3f9cb83bb5a3f7171f745b100d963ac2dc2f56cc1d3a5310d1b8e6252ae"
          ],
          "sequence": 4294967295
        }, 
        {
          "txid": "9e61cc2a5a412320a9cbe93c396a89650782fbab452ae49da039545b6f0eff1e",
          "vout": 146,
          "scriptSig": {
            "asm": "00208bca2517411fc21da2d5fa17f3203b7b2a2db5fee7c948730f848aeb10e68138",
            "hex": "2200208bca2517411fc21da2d5fa17f3203b7b2a2db5fee7c948730f848aeb10e68138"
          },
          "txinwitness": [
            "", 
            "3045022100f47fb882237a3418fffa8b4588f20dbd16f535859e9ed90a8a13b4445e81ceba022008973cca250208ae6c10aeae6e77163923dc247cea3ec1c58fbf41123bf5ecbf01", 
            "3044022040669f24c818f898fccb0c51164237f54ff3ff4e2f11b4fc9a1ef6364b8d3ccb02205f84cab9abb8b9d719bce812149f2d8347be176bf9fb4db28d15d9d13f0995f301", 
            "52210235d7d7caf75326b5f2be00501f74547df9acbbe7fad38c1603be9be6663027e4210211fdae50e3f9cb83bb5a3f7171f745b100d963ac2dc2f56cc1d3a5310d1b8e6252ae"
          ],
          "sequence": 4294967295
        }
      ],
      "vout": [
        {
          "value": 0.61710000,
          "n": 0,
          "scriptPubKey": {
            "asm": "OP_DUP OP_HASH160 99d924174b3eac000be6eca4e94b71dd254136b0 OP_EQUALVERIFY OP_CHECKSIG",
            "hex": "76a91499d924174b3eac000be6eca4e94b71dd254136b088ac",
            "reqSigs": 1,
            "type": "pubkeyhash",
            "addresses": [
              "LZFRmnMstWxaS5sCebSsCWJZFJWpBetHpk"
            ]
          }
        }
      ],
      "hex": "010000000001060dcc405784ffa4d3b0722b069f803803ad4e4a860167a3b07d74e1197f8cef3d8000000023220020bedcb79770a63ce56713ca966aaa84128cfa6686db8a394018a84a5ead269cfbffffffff0b128aabe1b4c1f1b6bd6b7dcd15ee09df2ba52e014478f673087c60e73aec992000000023220020358299d65388e7bd3de3a7b3f41de197753451c78711f404bf911a745b2fa9fcffffffff0b128aabe1b4c1f1b6bd6b7dcd15ee09df2ba52e014478f673087c60e73aec9999000000232200208bca2517411fc21da2d5fa17f3203b7b2a2db5fee7c948730f848aeb10e68138ffffffff73f2067cc16c891730c22e3803ac37551732ca3a4f865a02aff0b5e39823c6718200000023220020bedcb79770a63ce56713ca966aaa84128cfa6686db8a394018a84a5ead269cfbffffffff1eff0e6f5b5439a09de42a45abfb820765896a393ce9cba92023415a2acc619e1c00000023220020358299d65388e7bd3de3a7b3f41de197753451c78711f404bf911a745b2fa9fcffffffff1eff0e6f5b5439a09de42a45abfb820765896a393ce9cba92023415a2acc619e92000000232200208bca2517411fc21da2d5fa17f3203b7b2a2db5fee7c948730f848aeb10e68138ffffffff01b09ead03000000001976a91499d924174b3eac000be6eca4e94b71dd254136b088ac040047304402203fadaa3649d8959887d716b3571ddda05c3d83a569243b2d680a6b0611509d0f022042b17eb9f5c0a84407d947f87dda152f7221f5302b16723a2d89364725f02a0001483045022100e3cd445aa127b5ff144f66c9451ff51e229e740761324fe670fec1031fdbfde002207352e86ebb0f33f1aae0191fd5ace494d2ff0f95e71346399dd81dce33b3f59701475221027d33de64bc5077edd43f136f8b1a49d4624bffb99b2d7950e7a96ebce0113bf9210211fdae50e3f9cb83bb5a3f7171f745b100d963ac2dc2f56cc1d3a5310d1b8e6252ae0400473044022076af30fac28d250fa0a5f3dca0e7168d44de8f2b3d06d166f3955072db8990040220443267e1a55e9a1994ad7e4edb53d7615658dfb0d15abcd29ae7e035ca32e548014830450221009b2000c98c38cfed63dbeeae2fccc1b94a9805f3e90f06429a40b468745c9e46022020d48a69992b019cf76ab33d7b48c41936132cf75e47734ed45d6696e678c87401475221025b7531e87ef0afc6b391d34fc55949fac365ee6c1f9c032a9eaaf57a441b7f61210211fdae50e3f9cb83bb5a3f7171f745b100d963ac2dc2f56cc1d3a5310d1b8e6252ae04004730440220507c95b71c3d43bc9b8b7101efdb2cb26255ca98ed6d8f1e42a7f46c0ef115c502205d40159e081766ca7f86dc8f52f0cc08e1e0ce975b6e14687edfd767ab1a3bc30148304502210081ec63cfc874297cd23773daedf5fd9672a8b5fbaae9343d62b19bae0759505802200860af9fb8b8b949125115552979aff3bbbf763a3aee2b33d94d3c3a9a8e2a6b014752210235d7d7caf75326b5f2be00501f74547df9acbbe7fad38c1603be9be6663027e4210211fdae50e3f9cb83bb5a3f7171f745b100d963ac2dc2f56cc1d3a5310d1b8e6252ae0400483045022100c7e429abca7c812b500a0bba267cb6d2cd19b88594dee26ae605dab2906c03c302201f5a1b6c161cfda909469f52622c811574fd339ccd85509adf59c08346d8b0010147304402201a31c34266807e98ef37ab5b4867e2056088469a700c88c4697023da16821b860220094496dff0f080cfffa9e5c27aab5e64fe82aa88a4c02b757b6b81e171983f5701475221027d33de64bc5077edd43f136f8b1a49d4624bffb99b2d7950e7a96ebce0113bf9210211fdae50e3f9cb83bb5a3f7171f745b100d963ac2dc2f56cc1d3a5310d1b8e6252ae0400473044022042bb0642e0c6b5ebca17970429b02eca926684ba007e2830e1c805722d8c480a0220731cc5b57915a84b2ced07abed4d8c340a4dc94e97a18068c4beefe3d0ca9b2f01483045022100b4ac7d643a264e3bb6520d5fe6f323d09c5456ca65c43ed515377ff01fecb43102203b891724e98b51d122f8dd832525797494e3ef55eac7e0abaa8c470ff604103501475221025b7531e87ef0afc6b391d34fc55949fac365ee6c1f9c032a9eaaf57a441b7f61210211fdae50e3f9cb83bb5a3f7171f745b100d963ac2dc2f56cc1d3a5310d1b8e6252ae0400483045022100f47fb882237a3418fffa8b4588f20dbd16f535859e9ed90a8a13b4445e81ceba022008973cca250208ae6c10aeae6e77163923dc247cea3ec1c58fbf41123bf5ecbf01473044022040669f24c818f898fccb0c51164237f54ff3ff4e2f11b4fc9a1ef6364b8d3ccb02205f84cab9abb8b9d719bce812149f2d8347be176bf9fb4db28d15d9d13f0995f3014752210235d7d7caf75326b5f2be00501f74547df9acbbe7fad38c1603be9be6663027e4210211fdae50e3f9cb83bb5a3f7171f745b100d963ac2dc2f56cc1d3a5310d1b8e6252ae00000000"
    }, 
    {
      "txid": "afd285b7acc1ce39a220e902953dc9db7e6b631aa901c0dc9834e64d6868d984",
      "hash": "afd285b7acc1ce39a220e902953dc9db7e6b631aa901c0dc9834e64d6868d984",
      "version": 1,
      "size": 226,
      "vsize": 226,
      "locktime": 0,
      "vin": [
        {
          "txid": "5eb3fd72389f4bc1afa4db3207d70e30cebd945c4a2bf208c3f2be3a45edfadb",
          "vout": 1,
          "scriptSig": {
            "asm": "3045022100a286921f2b4f15d8b84affd089316cfa430d65db2343b7c7a0e8cda4f1ae8f10022010629315f5e22e3456220cd33d771414c7576503238640af75dfb192d03f2626[ALL] 0259b5cb7bf91eee98b246bca7a2c886983e7bf5a2a12e2c28cccaf872781241fe",
            "hex": "483045022100a286921f2b4f15d8b84affd089316cfa430d65db2343b7c7a0e8cda4f1ae8f10022010629315f5e22e3456220cd33d771414c7576503238640af75dfb192d03f262601210259b5cb7bf91eee98b246bca7a2c886983e7bf5a2a12e2c28cccaf872781241fe"
          },
          "sequence": 4294967295
        }
      ],
      "vout": [
        {
          "value": 0.94881398,
          "n": 0,
          "scriptPubKey": {
            "asm": "OP_DUP OP_HASH160 5341b9ec0f739b4128ebcb157118b1edfaccea4b OP_EQUALVERIFY OP_CHECKSIG",
            "hex": "76a9145341b9ec0f739b4128ebcb157118b1edfaccea4b88ac",
            "reqSigs": 1,
            "type": "pubkeyhash",
            "addresses": [
              "LSpB5sjAqevMacoMHqwzV59rANxkaHobUX"
            ]
          }
        }, 
        {
          "value": 64.60186722,
          "n": 1,
          "scriptPubKey": {
            "asm": "OP_DUP OP_HASH160 1f878714f5f77d6d25ab3b85b7700660611f24d3 OP_EQUALVERIFY OP_CHECKSIG",
            "hex": "76a9141f878714f5f77d6d25ab3b85b7700660611f24d388ac",
            "reqSigs": 1,
            "type": "pubkeyhash",
            "addresses": [
              "LN6fZnbQbtjiP4VbQpJzEfHHN3QnNUEhDk"
            ]
          }
        }
      ],
      "hex": "0100000001dbfaed453abef2c308f22b4a5c94bdce300ed70732dba4afc14b9f3872fdb35e010000006b483045022100a286921f2b4f15d8b84affd089316cfa430d65db2343b7c7a0e8cda4f1ae8f10022010629315f5e22e3456220cd33d771414c7576503238640af75dfb192d03f262601210259b5cb7bf91eee98b246bca7a2c886983e7bf5a2a12e2c28cccaf872781241feffffffff0276c6a705000000001976a9145341b9ec0f739b4128ebcb157118b1edfaccea4b88ac62a00e81010000001976a9141f878714f5f77d6d25ab3b85b7700660611f24d388ac00000000"
    }, 
    {
      "txid": "640c20552e54cae3bf6d8771e4078f0f6f203c65d37371f72f7fa4a238b1adef",
      "hash": "640c20552e54cae3bf6d8771e4078f0f6f203c65d37371f72f7fa4a238b1adef",
      "version": 1,
      "size": 191,
      "vsize": 191,
      "locktime": 0,
      "vin": [
        {
          "txid": "afd285b7acc1ce39a220e902953dc9db7e6b631aa901c0dc9834e64d6868d984",
          "vout": 0,
          "scriptSig": {
            "asm": "3044022078ed701ccfb669fef4dc8331550dde72b84960e5b5a7a9bd73c6692d09cb7fe2022065e64e26b1a979d599e9a5aedbf252c8af8b02357fc92ac053a272c19413e704[ALL] 0283b3fa03cbbef2e0c2b85a2ab64581c523417dfda608a5325e80a40f9ba97942",
            "hex": "473044022078ed701ccfb669fef4dc8331550dde72b84960e5b5a7a9bd73c6692d09cb7fe2022065e64e26b1a979d599e9a5aedbf252c8af8b02357fc92ac053a272c19413e70401210283b3fa03cbbef2e0c2b85a2ab64581c523417dfda608a5325e80a40f9ba97942"
          },
          "sequence": 4294967295
        }
      ],
      "vout": [
        {
          "value": 0.94831398,
          "n": 0,
          "scriptPubKey": {
            "asm": "OP_DUP OP_HASH160 4848f1e0e33b1539629f5c2182eed26f202f3e93 OP_EQUALVERIFY OP_CHECKSIG",
            "hex": "76a9144848f1e0e33b1539629f5c2182eed26f202f3e9388ac",
            "reqSigs": 1,
            "type": "pubkeyhash",
            "addresses": [
              "LRpAJKa3Yz7FwrwUsBM5rZh57qVJd1ZvH4"
            ]
          }
        }
      ],
      "hex": "010000000184d968684de63498dcc001a91a636b7edbc93d9502e920a239cec1acb785d2af000000006a473044022078ed701ccfb669fef4dc8331550dde72b84960e5b5a7a9bd73c6692d09cb7fe2022065e64e26b1a979d599e9a5aedbf252c8af8b02357fc92ac053a272c19413e70401210283b3fa03cbbef2e0c2b85a2ab64581c523417dfda608a5325e80a40f9ba97942ffffffff012603a705000000001976a9144848f1e0e33b1539629f5c2182eed26f202f3e9388ac00000000"
    }, 
    {
      "txid": "2628c46713e409af0230657bfa0b6cda552405192f4d06835b702837534cf66b",
      "hash": "2628c46713e409af0230657bfa0b6cda552405192f4d06835b702837534cf66b",
      "version": 2,
      "size": 226,
      "vsize": 226,
      "locktime": 1360086,
      "vin": [
        {
          "txid": "e6388d6ae1023519b549c0eaa207e31a5b81a445d70391dabd0936cb29bbc609",
          "vout": 1,
          "scriptSig": {
            "asm": "3045022100c61846e421aafb93bcf863969f8951384d439ee4de5c1529969c3a293733cc8502201d6f76fede1615531abf1edd5f36a52aa616f655d6549902fc1982c8b30f132d[ALL] 02045eb186ccf990acd436d2c8dd7bbd4269b0ab9a6e051a0c91792b6c58974ba9",
            "hex": "483045022100c61846e421aafb93bcf863969f8951384d439ee4de5c1529969c3a293733cc8502201d6f76fede1615531abf1edd5f36a52aa616f655d6549902fc1982c8b30f132d012102045eb186ccf990acd436d2c8dd7bbd4269b0ab9a6e051a0c91792b6c58974ba9"
          },
          "sequence": 4294967294
        }
      ],
      "vout": [
        {
          "value": 19.34085896,
          "n": 0,
          "scriptPubKey": {
            "asm": "OP_DUP OP_HASH160 c35e3b9d27c702bdb197a637d9361d1aed4bf916 OP_EQUALVERIFY OP_CHECKSIG",
            "hex": "76a914c35e3b9d27c702bdb197a637d9361d1aed4bf91688ac",
            "reqSigs": 1,
            "type": "pubkeyhash",
            "addresses": [
              "Ld2xv2wg6CXcB7BrUPfPxZXgeykgvpPk68"
            ]
          }
        }, 
        {
          "value": 31.12919006,
          "n": 1,
          "scriptPubKey": {
            "asm": "OP_DUP OP_HASH160 90c7fba0bb40b36bada5fa790b8bfeba6bd5ea09 OP_EQUALVERIFY OP_CHECKSIG",
            "hex": "76a91490c7fba0bb40b36bada5fa790b8bfeba6bd5ea0988ac",
            "reqSigs": 1,
            "type": "pubkeyhash",
            "addresses": [
              "LYRV8tnCc5nbg5TWfLdUBVgFcBBUnPfvyS"
            ]
          }
        }
      ],
      "hex": "020000000109c6bb29cb3609bdda9103d745a4815b1ae307a2eac049b5193502e16a8d38e6010000006b483045022100c61846e421aafb93bcf863969f8951384d439ee4de5c1529969c3a293733cc8502201d6f76fede1615531abf1edd5f36a52aa616f655d6549902fc1982c8b30f132d012102045eb186ccf990acd436d2c8dd7bbd4269b0ab9a6e051a0c91792b6c58974ba9feffffff0208cf4773000000001976a914c35e3b9d27c702bdb197a637d9361d1aed4bf91688acde5f8bb9000000001976a91490c7fba0bb40b36bada5fa790b8bfeba6bd5ea0988acd6c01400"
    }
  ],
  "time": 1517372505,
  "mediantime": 1517371315,
  "nonce": 3848710824,
  "bits": "1a042eae",
  "difficulty": 4011378.762614286,
  "chainwork": "0000000000000000000000000000000000000000000000349cac9aba34d9bc32",
  "previousblockhash": "de7422fa14202a51afcfcc8dc8d4bee0325e2c78cab315faeeea015ccc821b89",
  "nextblockhash": "472d9072525f97d6c5e2a3c1e728f67d6fd14e13f7a5829ea96a393bfc4712a0"
}
