{
  "hash": "f5d39f12d34471fed78c3e9f16f096d76c57b9d2a00d02431461053e8701b2a9",
  "confirmations": 373,
  "strippedsize": 918,
  "size": 954,
  "weight": 3708,
  "height": 1360621,
  "version": 536870912,
  "versionHex": "20000000",
  "merkleroot": "370a73bf5bfe2e5333521f69d810ef279c78161be493c15870837bb38f1d3401",
  "tx": [
    {
      "txid": "3d37399fa7f4ea69c0d378b0fc58a2df4774d6a1df3b1ddb29a305e62ab41aab",
      "hash": "209d714c6c267a7237c498ebb3075fad5f436d4f9f0bb2fed7de49328b113abc",
      "version": 1,
      "size": 253,
      "vsize": 226,
      "locktime": 0,
      "vin": [
        {
          "coinbase": "03edc21441d69ca448e59da541d69ca447f91c382f4c54432e544f502ffabe6d6d9ebf6c37105704be644816986d15d4d6612ce48e139c6fb3a45953f34607b6c701000000000000006f396ade0100000000000000",
          "sequence": 4294967295
        }
      ],
      "vout": [
        {
          "value": 25.00062200,
          "n": 0,
          "scriptPubKey": {
            "asm": "OP_DUP OP_HASH160 0c617fdb2ea42aed30a509595ee21ba3f6688db0 OP_EQUALVERIFY OP_CHECKSIG",
            "hex": "76a9140c617fdb2ea42aed30a509595ee21ba3f6688db088ac",
            "reqSigs": 1,
            "type": "pubkeyhash",
            "addresses": [
              "LLMRAtr3qBje2ySEa3CnZ55LA4TQMWnRY3"
            ]
          }
        }, 
        {
          "value": 0.00000000,
          "n": 1,
          "scriptPubKey": {
            "asm": "OP_RETURN aa21a9ed84f57aaee45fe8da73220b3b62a9dfd227399fa053ffe15da6b97ab27118a580",
            "hex": "6a24aa21a9ed84f57aaee45fe8da73220b3b62a9dfd227399fa053ffe15da6b97ab27118a580",
            "type": "nulldata"
          }
        }
      ],
      "hex": "010000000001010000000000000000000000000000000000000000000000000000000000000000ffffffff5503edc21441d69ca448e59da541d69ca447f91c382f4c54432e544f502ffabe6d6d9ebf6c37105704be644816986d15d4d6612ce48e139c6fb3a45953f34607b6c701000000000000006f396ade0100000000000000ffffffff02f8eb0395000000001976a9140c617fdb2ea42aed30a509595ee21ba3f6688db088ac0000000000000000266a24aa21a9ed84f57aaee45fe8da73220b3b62a9dfd227399fa053ffe15da6b97ab27118a5800120000000000000000000000000000000000000000000000000000000000000000000000000"
    }, 
    {
      "txid": "531fa736afee8e295ad58713b4e284035932181aba41439902bf36d6f50614f7",
      "hash": "531fa736afee8e295ad58713b4e284035932181aba41439902bf36d6f50614f7",
      "version": 2,
      "size": 620,
      "vsize": 620,
      "locktime": 1360619,
      "vin": [
        {
          "txid": "26490d23da414414719edee54d67d0825be6abbc4f624153abf36adb5b92ffc6",
          "vout": 28,
          "scriptSig": {
            "asm": "3044022031895c1ba5872c4be7fc9dce6bcc5ce0c8b3f61cfd58f35aafb1f6f78fcbb45c02203b821f477f15a1c20f7fecf42b916e1e7ef6a385ca51c05e7f3544ef5d911350[ALL] 02b3be7c54efcaa77df524de96d3a747a2bb41bd5909692942035b4e381607a75f",
            "hex": "473044022031895c1ba5872c4be7fc9dce6bcc5ce0c8b3f61cfd58f35aafb1f6f78fcbb45c02203b821f477f15a1c20f7fecf42b916e1e7ef6a385ca51c05e7f3544ef5d911350012102b3be7c54efcaa77df524de96d3a747a2bb41bd5909692942035b4e381607a75f"
          },
          "sequence": 4294967294
        }, 
        {
          "txid": "c340ee423b384055aee109c3bb82319f07b7b8e16d8a87d7b95859efde814502",
          "vout": 0,
          "scriptSig": {
            "asm": "304502210093681a0dea21b28e1497f0d184bc9865a1a5e64e8cef6a1fab1a64803c668fb1022003ccefe6a233e962d1622ee34d3a62a85ba0eebc0d29a65fcf4deda9035c459f[ALL] 03cd72b64aa09ef97f07e6e15ff927a64c54cfa0994fb8661225c65f986bce2afa",
            "hex": "48304502210093681a0dea21b28e1497f0d184bc9865a1a5e64e8cef6a1fab1a64803c668fb1022003ccefe6a233e962d1622ee34d3a62a85ba0eebc0d29a65fcf4deda9035c459f012103cd72b64aa09ef97f07e6e15ff927a64c54cfa0994fb8661225c65f986bce2afa"
          },
          "sequence": 4294967294
        }, 
        {
          "txid": "d5945721ec53e0d740bdef763946715ee97f530e441399ebfac12f85720ddb8d",
          "vout": 0,
          "scriptSig": {
            "asm": "30440220256a8f30a78be3d631ddf9220edb026549e83ab6cdec9ee9d2fe2667ce1f884402207e39b421b522e720a88961972ba7c6c5ee82f3d4f828356d52df926e312600a6[ALL] 03ea4920b4747a2180e3bf4fb6c75f362c6c62a30a8ceaf0d49f69565e14b86c65",
            "hex": "4730440220256a8f30a78be3d631ddf9220edb026549e83ab6cdec9ee9d2fe2667ce1f884402207e39b421b522e720a88961972ba7c6c5ee82f3d4f828356d52df926e312600a6012103ea4920b4747a2180e3bf4fb6c75f362c6c62a30a8ceaf0d49f69565e14b86c65"
          },
          "sequence": 4294967294
        }
      ],
      "vout": [
        {
          "value": 0.10695600,
          "n": 0,
          "scriptPubKey": {
            "asm": "OP_DUP OP_HASH160 6d3dc909a33bb69b764dd128bde39af7ca79f1e9 OP_EQUALVERIFY OP_CHECKSIG",
            "hex": "76a9146d3dc909a33bb69b764dd128bde39af7ca79f1e988ac",
            "reqSigs": 1,
            "type": "pubkeyhash",
            "addresses": [
              "LVBZw3K3SFVZPFvJceHWuWPhsAu9hFqx97"
            ]
          }
        }, 
        {
          "value": 3.59600000,
          "n": 1,
          "scriptPubKey": {
            "asm": "OP_HASH160 dadc90fd929fa55208ab0ffd77a2aae714cbe24c OP_EQUAL",
            "hex": "a914dadc90fd929fa55208ab0ffd77a2aae714cbe24c87",
            "reqSigs": 1,
            "type": "scripthash",
            "addresses": [
              "MTrPmUAiR9EL2fzzuBZhhfwyYANLypMPcW"
            ]
          }
        }, 
        {
          "value": 0.23030000,
          "n": 2,
          "scriptPubKey": {
            "asm": "OP_DUP OP_HASH160 93d18fd9e20b1feb01eafd1ff3de2f6e846fc5cc OP_EQUALVERIFY OP_CHECKSIG",
            "hex": "76a91493d18fd9e20b1feb01eafd1ff3de2f6e846fc5cc88ac",
            "reqSigs": 1,
            "type": "pubkeyhash",
            "addresses": [
              "LYhYe2fHVup7XVH4oNbu9j65y99h31MWag"
            ]
          }
        }, 
        {
          "value": 0.00937860,
          "n": 3,
          "scriptPubKey": {
            "asm": "OP_DUP OP_HASH160 44f193a012afc261f07ad58c4b4883b2735ab81b OP_EQUALVERIFY OP_CHECKSIG",
            "hex": "76a91444f193a012afc261f07ad58c4b4883b2735ab81b88ac",
            "reqSigs": 1,
            "type": "pubkeyhash",
            "addresses": [
              "LRWVcJFHs77ZQGtht8kTxYK3u36P5Rw2UB"
            ]
          }
        }, 
        {
          "value": 1.45980000,
          "n": 4,
          "scriptPubKey": {
            "asm": "OP_DUP OP_HASH160 9d708a6265f21ca2fc02c50c7eec48609327c0c2 OP_EQUALVERIFY OP_CHECKSIG",
            "hex": "76a9149d708a6265f21ca2fc02c50c7eec48609327c0c288ac",
            "reqSigs": 1,
            "type": "pubkeyhash",
            "addresses": [
              "LZaRAnXsXzXMd8QR8fUVgHyv14NEdzvx2L"
            ]
          }
        }
      ],
      "hex": "0200000003c6ff925bdb6af3ab5341624fbcabe65b82d0674de5de9e71144441da230d49261c0000006a473044022031895c1ba5872c4be7fc9dce6bcc5ce0c8b3f61cfd58f35aafb1f6f78fcbb45c02203b821f477f15a1c20f7fecf42b916e1e7ef6a385ca51c05e7f3544ef5d911350012102b3be7c54efcaa77df524de96d3a747a2bb41bd5909692942035b4e381607a75ffeffffff024581deef5958b9d7878a6de1b8b7079f3182bbc309e1ae5540383b42ee40c3000000006b48304502210093681a0dea21b28e1497f0d184bc9865a1a5e64e8cef6a1fab1a64803c668fb1022003ccefe6a233e962d1622ee34d3a62a85ba0eebc0d29a65fcf4deda9035c459f012103cd72b64aa09ef97f07e6e15ff927a64c54cfa0994fb8661225c65f986bce2afafeffffff8ddb0d72852fc1faeb9913440e537fe95e71463976efbd40d7e053ec215794d5000000006a4730440220256a8f30a78be3d631ddf9220edb026549e83ab6cdec9ee9d2fe2667ce1f884402207e39b421b522e720a88961972ba7c6c5ee82f3d4f828356d52df926e312600a6012103ea4920b4747a2180e3bf4fb6c75f362c6c62a30a8ceaf0d49f69565e14b86c65feffffff05b033a300000000001976a9146d3dc909a33bb69b764dd128bde39af7ca79f1e988ac800f6f150000000017a914dadc90fd929fa55208ab0ffd77a2aae714cbe24c87f0685f01000000001976a91493d18fd9e20b1feb01eafd1ff3de2f6e846fc5cc88ac844f0e00000000001976a91444f193a012afc261f07ad58c4b4883b2735ab81b88ac607ab308000000001976a9149d708a6265f21ca2fc02c50c7eec48609327c0c288acebc21400"
    }
  ],
  "time": 1517457695,
  "mediantime": 1517457254,
  "nonce": 3508011450,
  "bits": "1a042eae",
  "difficulty": 4011378.762614286,
  "chainwork": "0000000000000000000000000000000000000000000000351c1d621b756ca7dc",
  "previousblockhash": "6febc1dcb61544858f83bf6febb81fc4b79de7fbede7fa16ae11d58ede8e7e3a",
  "nextblockhash": "fcfd02574cfcab41d9cbb5b79383d14af32c4737b4033d1f7cd5931f44917e59"
}
