{
  "hash": "f5ec063f2de315d754e21aa07ba179cdb6db739c18f82276d5153274a2c5adc0",
  "confirmations": 2191,
  "strippedsize": 254,
  "size": 254,
  "weight": 1016,
  "height": 1358803,
  "version": 536870912,
  "versionHex": "20000000",
  "merkleroot": "07828c6e4f314a3923d3368e738121df2ba927a5573213d861aa5ebdd1ee0947",
  "tx": [
    {
      "txid": "07828c6e4f314a3923d3368e738121df2ba927a5573213d861aa5ebdd1ee0947",
      "hash": "07828c6e4f314a3923d3368e738121df2ba927a5573213d861aa5ebdd1ee0947",
      "version": 1,
      "size": 173,
      "vsize": 173,
      "locktime": 0,
      "vin": [
        {
          "coinbase": "03d3bb141b4d696e656420627920416e74506f6f6c20626a312045205a6e8a61fabe6d6d365ada72e40f92d30136c10605ce30817d6e5ccddd6d8da6efab5f8711d7ab7504000000000000003a1400000000000004000000",
          "sequence": 4294967295
        }
      ],
      "vout": [
        {
          "value": 25.00000000,
          "n": 0,
          "scriptPubKey": {
            "asm": "OP_DUP OP_HASH160 0ff3ccc5e8be88afe24b5d634e5852d474dbdff1 OP_EQUALVERIFY OP_CHECKSIG",
            "hex": "76a9140ff3ccc5e8be88afe24b5d634e5852d474dbdff188ac",
            "reqSigs": 1,
            "type": "pubkeyhash",
            "addresses": [
              "LLgJTbzZMsRTCUF1NtvvL9SR1a4pVieW89"
            ]
          }
        }
      ],
      "hex": "01000000010000000000000000000000000000000000000000000000000000000000000000ffffffff5803d3bb141b4d696e656420627920416e74506f6f6c20626a312045205a6e8a61fabe6d6d365ada72e40f92d30136c10605ce30817d6e5ccddd6d8da6efab5f8711d7ab7504000000000000003a1400000000000004000000ffffffff0100f90295000000001976a9140ff3ccc5e8be88afe24b5d634e5852d474dbdff188ac00000000"
    }
  ],
  "time": 1517193825,
  "mediantime": 1517193531,
  "nonce": 546466263,
  "bits": "1a042eae",
  "difficulty": 4011378.762614286,
  "chainwork": "000000000000000000000000000000000000000000000033696e1e6dc2f4e2a8",
  "previousblockhash": "797f1e128780d6e34cbb455619cf111e70bd4260b0c98371246e7080875dfcf4",
  "nextblockhash": "f3249f6eca21e6a0263c49b877439490ab616537695034c0d027bc704ca0b24a"
}
