{
  "hash": "f647b2ff641951a7b5ae276476e374f68909a4094809779e8b0f9f325ba08e75",
  "confirmations": 3216,
  "strippedsize": 548,
  "size": 584,
  "weight": 2228,
  "height": 1357779,
  "version": 536870912,
  "versionHex": "20000000",
  "merkleroot": "57c57980c52c475b66d6c92359510c32368754bb3c350ad22ef2b80ae3f6ee75",
  "tx": [
    {
      "txid": "af88026b92f5d84bbbb0b1cb37cd71cceb8f3d24c35de2c7dddb657b9abf6dcc",
      "hash": "05765f03f500405d62ff97193abcb4ed54181efa354b659482cf6aebf477b89d",
      "version": 1,
      "size": 277,
      "vsize": 250,
      "locktime": 958277627,
      "vin": [
        {
          "coinbase": "03d3b7142cfabe6d6ddd63d53beb19d9f0e19f1261197dee1207136597e9bebaeac6e1a978508a5fd908000000f09f909f0e4d696e6564206279206c6a333231000000000000000000000000000000000000000000000000000000000000000000000000",
          "sequence": 2
        }
      ],
      "vout": [
        {
          "value": 25.00022600,
          "n": 0,
          "scriptPubKey": {
            "asm": "OP_DUP OP_HASH160 aa3750aa18b8a0f3f0590731e1fab934856680cf OP_EQUALVERIFY OP_CHECKSIG",
            "hex": "76a914aa3750aa18b8a0f3f0590731e1fab934856680cf88ac",
            "reqSigs": 1,
            "type": "pubkeyhash",
            "addresses": [
              "LajyQBeZaBA1NkZDeY8YT5RYYVRkXMvb2T"
            ]
          }
        }, 
        {
          "value": 0.00000000,
          "n": 1,
          "scriptPubKey": {
            "asm": "OP_RETURN aa21a9ed0b3bd817cf6c5c231ae8b022c8166ccc3244ffce5235c9ece7585d3516b57265 0000000000000000",
            "hex": "6a24aa21a9ed0b3bd817cf6c5c231ae8b022c8166ccc3244ffce5235c9ece7585d3516b57265080000000000000000",
            "type": "nulldata"
          }
        }
      ],
      "hex": "010000000001010000000000000000000000000000000000000000000000000000000000000000ffffffff6403d3b7142cfabe6d6ddd63d53beb19d9f0e19f1261197dee1207136597e9bebaeac6e1a978508a5fd908000000f09f909f0e4d696e6564206279206c6a333231000000000000000000000000000000000000000000000000000000000000000000000000020000000248510395000000001976a914aa3750aa18b8a0f3f0590731e1fab934856680cf88ac00000000000000002f6a24aa21a9ed0b3bd817cf6c5c231ae8b022c8166ccc3244ffce5235c9ece7585d3516b5726508000000000000000001200000000000000000000000000000000000000000000000000000000000000000fb271e39"
    }, 
    {
      "txid": "859b7199decce863fdb1a22448152d447310c86c650a2cef5059bea5cae9383d",
      "hash": "859b7199decce863fdb1a22448152d447310c86c650a2cef5059bea5cae9383d",
      "version": 1,
      "size": 226,
      "vsize": 226,
      "locktime": 0,
      "vin": [
        {
          "txid": "7302aff09233d1906885d37c74733a3fef618687c72f08773ee34bc817e57b35",
          "vout": 0,
          "scriptSig": {
            "asm": "3045022100f8308d8657ff7b3ecbb565ca1030cd44992d01ee6ee9230f9b4291508a05a14302200d03eac5117156296a26577b73ffc6f7ef308d5615193989c6a27c1b3249bfd9[ALL] 0327ac902a515e693797d9e1fc5c278909d8c573f47b1e7f62deb4e126f4f398ea",
            "hex": "483045022100f8308d8657ff7b3ecbb565ca1030cd44992d01ee6ee9230f9b4291508a05a14302200d03eac5117156296a26577b73ffc6f7ef308d5615193989c6a27c1b3249bfd901210327ac902a515e693797d9e1fc5c278909d8c573f47b1e7f62deb4e126f4f398ea"
          },
          "sequence": 4294967295
        }
      ],
      "vout": [
        {
          "value": 41.78979274,
          "n": 0,
          "scriptPubKey": {
            "asm": "OP_DUP OP_HASH160 443e2414e036b194ec8b22e023145f001bc1f42d OP_EQUALVERIFY OP_CHECKSIG",
            "hex": "76a914443e2414e036b194ec8b22e023145f001bc1f42d88ac",
            "reqSigs": 1,
            "type": "pubkeyhash",
            "addresses": [
              "LRSnetLXcbiL1gjtFaYEDDwPnnN2m1W95f"
            ]
          }
        }, 
        {
          "value": 1.72718000,
          "n": 1,
          "scriptPubKey": {
            "asm": "OP_DUP OP_HASH160 6b83e38bdc78bb8e259c8e3cfa7804965d1b87b0 OP_EQUALVERIFY OP_CHECKSIG",
            "hex": "76a9146b83e38bdc78bb8e259c8e3cfa7804965d1b87b088ac",
            "reqSigs": 1,
            "type": "pubkeyhash",
            "addresses": [
              "LV2SZY6n9RvgFmdC7LAHvw5895JzEE4z3s"
            ]
          }
        }
      ],
      "hex": "0100000001357be517c84be33e77082fc7878661ef3f3a73747cd3856890d13392f0af0273000000006b483045022100f8308d8657ff7b3ecbb565ca1030cd44992d01ee6ee9230f9b4291508a05a14302200d03eac5117156296a26577b73ffc6f7ef308d5615193989c6a27c1b3249bfd901210327ac902a515e693797d9e1fc5c278909d8c573f47b1e7f62deb4e126f4f398eaffffffff02ca2916f9000000001976a914443e2414e036b194ec8b22e023145f001bc1f42d88acb0774b0a000000001976a9146b83e38bdc78bb8e259c8e3cfa7804965d1b87b088ac00000000"
    }
  ],
  "time": 1517047045,
  "mediantime": 1517046585,
  "nonce": 3264385943,
  "bits": "1a047f14",
  "difficulty": 3731199.183374282,
  "chainwork": "000000000000000000000000000000000000000000000032855bbc9804f1ee88",
  "previousblockhash": "cf12a77b2b38c8250e4e44c500c1c8ac68b54b6d492d7d42da489b288fc5621b",
  "nextblockhash": "3e20307855ff30cfea57a228ad6b9f96ce1fcbb0e3c4692460b26439f756ddb8"
}
