{
  "hash": "f65eb76169aa474bc329368c2fb343f60f8e20607414aa6db399de251101b8b3",
  "confirmations": 1230,
  "strippedsize": 2193,
  "size": 2229,
  "weight": 8808,
  "height": 1359764,
  "version": 536870912,
  "versionHex": "20000000",
  "merkleroot": "2722e525b158bf45be5499867fe7a6e68c43026c3ec31c18ea29930d36b6503c",
  "tx": [
    {
      "txid": "47bb5325d2c85673237367819964eb52f3ec6bcd880b2af0e0013f9d1f3ee042",
      "hash": "dfc4d8ac011865f275524b25b38087c3e2f7fc753037901843aaf1a0e4898ec7",
      "version": 1,
      "size": 240,
      "vsize": 213,
      "locktime": 0,
      "vin": [
        {
          "coinbase": "0394bf14fabe6d6d51602f7abc538b64c51899152b9a486162edc455a4e557b45d6e757fb2f4bad8080000000000000004a099705a08086bca3611000000092f7374726174756d2f",
          "sequence": 0
        }
      ],
      "vout": [
        {
          "value": 25.00304800,
          "n": 0,
          "scriptPubKey": {
            "asm": "OP_DUP OP_HASH160 c5ef1ffb24706e3ffac045ef9c847f25b0e07aa8 OP_EQUALVERIFY OP_CHECKSIG",
            "hex": "76a914c5ef1ffb24706e3ffac045ef9c847f25b0e07aa888ac",
            "reqSigs": 1,
            "type": "pubkeyhash",
            "addresses": [
              "LdGXqhFKzutgs6EnRv6yVydZLqKdufcC96"
            ]
          }
        }, 
        {
          "value": 0.00000000,
          "n": 1,
          "scriptPubKey": {
            "asm": "OP_RETURN aa21a9ede882845e20df0c0d126278c72215635872a8370a90331fd36414eca2f14d65f1",
            "hex": "6a24aa21a9ede882845e20df0c0d126278c72215635872a8370a90331fd36414eca2f14d65f1",
            "type": "nulldata"
          }
        }
      ],
      "hex": "010000000001010000000000000000000000000000000000000000000000000000000000000000ffffffff480394bf14fabe6d6d51602f7abc538b64c51899152b9a486162edc455a4e557b45d6e757fb2f4bad8080000000000000004a099705a08086bca3611000000092f7374726174756d2f0000000002a09f0795000000001976a914c5ef1ffb24706e3ffac045ef9c847f25b0e07aa888ac0000000000000000266a24aa21a9ede882845e20df0c0d126278c72215635872a8370a90331fd36414eca2f14d65f10120000000000000000000000000000000000000000000000000000000000000000000000000"
    }, 
    {
      "txid": "8536dffe88b874f871c2f9fa5a0d33441b23fd7e25a3b6d0b6aafb49ea91a21e",
      "hash": "8536dffe88b874f871c2f9fa5a0d33441b23fd7e25a3b6d0b6aafb49ea91a21e",
      "version": 1,
      "size": 224,
      "vsize": 224,
      "locktime": 0,
      "vin": [
        {
          "txid": "53208307abae3f09f5bef795e82c23f6f0341e5f11792b519791e87afc019b27",
          "vout": 2,
          "scriptSig": {
            "asm": "3045022100cd0a95776ffc4c7eb3f5f1106a2e3de4c37575c84b3dd5183d74c241a69e760f022044deaacf6763832f1f3b12f14e382853a8f4d9d76fbceecba2428499d1b027a1[ALL] 0328c9ae635abf580c261c44815dc1aac309e16ff26250525b7e99951369d2b8c7",
            "hex": "483045022100cd0a95776ffc4c7eb3f5f1106a2e3de4c37575c84b3dd5183d74c241a69e760f022044deaacf6763832f1f3b12f14e382853a8f4d9d76fbceecba2428499d1b027a101210328c9ae635abf580c261c44815dc1aac309e16ff26250525b7e99951369d2b8c7"
          },
          "sequence": 4294967295
        }
      ],
      "vout": [
        {
          "value": 0.13252480,
          "n": 0,
          "scriptPubKey": {
            "asm": "OP_HASH160 ae813fead7f56723e28746fe480031b97ea2e59e OP_EQUAL",
            "hex": "a914ae813fead7f56723e28746fe480031b97ea2e59e87",
            "reqSigs": 1,
            "type": "scripthash",
            "addresses": [
              "MPoreEWP9t9P4jvXnJ463gxB8NEdcSzsy9"
            ]
          }
        }, 
        {
          "value": 0.06189798,
          "n": 1,
          "scriptPubKey": {
            "asm": "OP_DUP OP_HASH160 c6e3836c2f4cd8f9c53e32813ded99ac0ce001f1 OP_EQUALVERIFY OP_CHECKSIG",
            "hex": "76a914c6e3836c2f4cd8f9c53e32813ded99ac0ce001f188ac",
            "reqSigs": 1,
            "type": "pubkeyhash",
            "addresses": [
              "LdMac6qdwFnBCVXN96dvoPjzbcE36gzs64"
            ]
          }
        }
      ],
      "hex": "0100000001279b01fc7ae89197512b79115f1e34f0f6232ce895f7bef5093faeab07832053020000006b483045022100cd0a95776ffc4c7eb3f5f1106a2e3de4c37575c84b3dd5183d74c241a69e760f022044deaacf6763832f1f3b12f14e382853a8f4d9d76fbceecba2428499d1b027a101210328c9ae635abf580c261c44815dc1aac309e16ff26250525b7e99951369d2b8c7ffffffff028037ca000000000017a914ae813fead7f56723e28746fe480031b97ea2e59e87e6725e00000000001976a914c6e3836c2f4cd8f9c53e32813ded99ac0ce001f188ac00000000"
    }, 
    {
      "txid": "8ccfa5695aa5e3573837fa78a6e07e3950ae282e7ceb6867b1a5c83d698d5743",
      "hash": "8ccfa5695aa5e3573837fa78a6e07e3950ae282e7ceb6867b1a5c83d698d5743",
      "version": 1,
      "size": 334,
      "vsize": 334,
      "locktime": 0,
      "vin": [
        {
          "txid": "292560f956abc3a23688345668006a1180f6c143075463aa155c825fd042fb7a",
          "vout": 1,
          "scriptSig": {
            "asm": "0 3044022026b3a8392d67153fecd5811d0a043d77d09822457830e648db6c887d4caac3bf02202f1495b1e2e6326c382a2ad0f471faac8a50633ab06452b7ecad25c4cc81aab7[ALL] 3044022075f5025f6239ef8f0e1b987f6979646220cbeff561c1dfa69afa6b5839e60e6e022056f9972322b76c7ccefe16e0d0c4e86dbeed1c7686385ed4b8d87421904325c6[ALL] 522103e3f69d7a4128f3f7a6659e4dd8bb174d9fcaf87aee032b36619d0ff493f19ae62102e7602199a52ff1d34a91917ed5ff3ff16bfce2d7ec2d00f9b84baf721134527c52ae",
            "hex": "00473044022026b3a8392d67153fecd5811d0a043d77d09822457830e648db6c887d4caac3bf02202f1495b1e2e6326c382a2ad0f471faac8a50633ab06452b7ecad25c4cc81aab701473044022075f5025f6239ef8f0e1b987f6979646220cbeff561c1dfa69afa6b5839e60e6e022056f9972322b76c7ccefe16e0d0c4e86dbeed1c7686385ed4b8d87421904325c60147522103e3f69d7a4128f3f7a6659e4dd8bb174d9fcaf87aee032b36619d0ff493f19ae62102e7602199a52ff1d34a91917ed5ff3ff16bfce2d7ec2d00f9b84baf721134527c52ae"
          },
          "sequence": 4294967295
        }
      ],
      "vout": [
        {
          "value": 0.05559600,
          "n": 0,
          "scriptPubKey": {
            "asm": "OP_DUP OP_HASH160 8658613325648126c5ea4be18d064fbd79484828 OP_EQUALVERIFY OP_CHECKSIG",
            "hex": "76a9148658613325648126c5ea4be18d064fbd7948482888ac",
            "reqSigs": 1,
            "type": "pubkeyhash",
            "addresses": [
              "LXUJgeTKz8t78KJDji1NXEQwqM9ozsQ9gN"
            ]
          }
        }, 
        {
          "value": 2.72000800,
          "n": 1,
          "scriptPubKey": {
            "asm": "OP_HASH160 074e23f195576e85253c382deb78d633d80b70ed OP_EQUAL",
            "hex": "a914074e23f195576e85253c382deb78d633d80b70ed87",
            "reqSigs": 1,
            "type": "scripthash",
            "addresses": [
              "M8Zna4dwsKFr6eggvZjEVhXrXmXfCEZQQB"
            ]
          }
        }
      ],
      "hex": "01000000017afb42d05f825c15aa63540743c1f680116a006856348836a2c3ab56f960252901000000d900473044022026b3a8392d67153fecd5811d0a043d77d09822457830e648db6c887d4caac3bf02202f1495b1e2e6326c382a2ad0f471faac8a50633ab06452b7ecad25c4cc81aab701473044022075f5025f6239ef8f0e1b987f6979646220cbeff561c1dfa69afa6b5839e60e6e022056f9972322b76c7ccefe16e0d0c4e86dbeed1c7686385ed4b8d87421904325c60147522103e3f69d7a4128f3f7a6659e4dd8bb174d9fcaf87aee032b36619d0ff493f19ae62102e7602199a52ff1d34a91917ed5ff3ff16bfce2d7ec2d00f9b84baf721134527c52aeffffffff0230d55400000000001976a9148658613325648126c5ea4be18d064fbd7948482888ac206736100000000017a914074e23f195576e85253c382deb78d633d80b70ed8700000000"
    }, 
    {
      "txid": "43b4ab07e33ea4c764fbbd37d1598738536553afbfb632412d843825d581d33b",
      "hash": "43b4ab07e33ea4c764fbbd37d1598738536553afbfb632412d843825d581d33b",
      "version": 1,
      "size": 225,
      "vsize": 225,
      "locktime": 0,
      "vin": [
        {
          "txid": "440703421361aa043e8af34ac2eb899a98cfe7847a8052b4b011932f8d9c517e",
          "vout": 1,
          "scriptSig": {
            "asm": "3044022078c89f62c572b3551df7edc680e948b5c70bb6f0e77cb25dc641f2864e6f28e90220437bcd798ed9a2b1b6ab4384e611af3ae5a369f7a41e302fe6e54efdc3922952[ALL] 02e3a74318e773857750bfda033cfd3f0a5b9272f0fef85665f25f434ae5f837a3",
            "hex": "473044022078c89f62c572b3551df7edc680e948b5c70bb6f0e77cb25dc641f2864e6f28e90220437bcd798ed9a2b1b6ab4384e611af3ae5a369f7a41e302fe6e54efdc3922952012102e3a74318e773857750bfda033cfd3f0a5b9272f0fef85665f25f434ae5f837a3"
          },
          "sequence": 4294967295
        }
      ],
      "vout": [
        {
          "value": 72.24593414,
          "n": 0,
          "scriptPubKey": {
            "asm": "OP_DUP OP_HASH160 40299cf0d1aced1484cab1b44b49829c05ed855e OP_EQUALVERIFY OP_CHECKSIG",
            "hex": "76a91440299cf0d1aced1484cab1b44b49829c05ed855e88ac",
            "reqSigs": 1,
            "type": "pubkeyhash",
            "addresses": [
              "LR5DMpFiLDrkUnbvxCE7CpcPyigmb5C4TQ"
            ]
          }
        }, 
        {
          "value": 4.99900000,
          "n": 1,
          "scriptPubKey": {
            "asm": "OP_DUP OP_HASH160 40c7004181fd797187f0f0c28999a71ba662f7d7 OP_EQUALVERIFY OP_CHECKSIG",
            "hex": "76a91440c7004181fd797187f0f0c28999a71ba662f7d788ac",
            "reqSigs": 1,
            "type": "pubkeyhash",
            "addresses": [
              "LR8TuKdVpJoqWkR2mvFNK4CPP4CJYgm8QW"
            ]
          }
        }
      ],
      "hex": "01000000017e519c8d2f9311b0b452807a84e7cf989a89ebc24af38a3e04aa611342030744010000006a473044022078c89f62c572b3551df7edc680e948b5c70bb6f0e77cb25dc641f2864e6f28e90220437bcd798ed9a2b1b6ab4384e611af3ae5a369f7a41e302fe6e54efdc3922952012102e3a74318e773857750bfda033cfd3f0a5b9272f0fef85665f25f434ae5f837a3ffffffff02068c9eae010000001976a91440299cf0d1aced1484cab1b44b49829c05ed855e88ac60decb1d000000001976a91440c7004181fd797187f0f0c28999a71ba662f7d788ac00000000"
    }, 
    {
      "txid": "d55079f8c03b7e914412ddbf08588d4f1723aeb2d27ee2ef3eeeff830071e36c",
      "hash": "d55079f8c03b7e914412ddbf08588d4f1723aeb2d27ee2ef3eeeff830071e36c",
      "version": 1,
      "size": 225,
      "vsize": 225,
      "locktime": 0,
      "vin": [
        {
          "txid": "54e52d79f316150eec487de193dd6ed5778efd2fd03d66cf4718bcd47f844ecd",
          "vout": 31,
          "scriptSig": {
            "asm": "3044022030eff8aedad29629737b603f5385b34cf59778ff52bb312bd4da2eb5e177c94c02205d44c258ac78a4233b247759729e18a6bbfa3837c6183c76407f9641e8668f99[ALL] 02c7175b1e7fd423b16bcc61421871ba343cca6b20d83b7841aabb10f61c7fefd1",
            "hex": "473044022030eff8aedad29629737b603f5385b34cf59778ff52bb312bd4da2eb5e177c94c02205d44c258ac78a4233b247759729e18a6bbfa3837c6183c76407f9641e8668f99012102c7175b1e7fd423b16bcc61421871ba343cca6b20d83b7841aabb10f61c7fefd1"
          },
          "sequence": 4294967295
        }
      ],
      "vout": [
        {
          "value": 1.50000000,
          "n": 0,
          "scriptPubKey": {
            "asm": "OP_DUP OP_HASH160 15ef35b3f39a6825c23e9336826c82656b3f8cd1 OP_EQUALVERIFY OP_CHECKSIG",
            "hex": "76a91415ef35b3f39a6825c23e9336826c82656b3f8cd188ac",
            "reqSigs": 1,
            "type": "pubkeyhash",
            "addresses": [
              "LMDw1pz8GT8C6SMNrcGLTZ4HnXjEAzMcgC"
            ]
          }
        }, 
        {
          "value": 75.54970798,
          "n": 1,
          "scriptPubKey": {
            "asm": "OP_DUP OP_HASH160 ae6137195086360f4daba33cc0e0aebc03a79146 OP_EQUALVERIFY OP_CHECKSIG",
            "hex": "76a914ae6137195086360f4daba33cc0e0aebc03a7914688ac",
            "reqSigs": 1,
            "type": "pubkeyhash",
            "addresses": [
              "Lb7zJDx99ixYWN9RKqR7vY5VVMHvA3ikv8"
            ]
          }
        }
      ],
      "hex": "0100000001cd4e847fd4bc1847cf663dd02ffd8e77d56edd93e17d48ec0e1516f3792de5541f0000006a473044022030eff8aedad29629737b603f5385b34cf59778ff52bb312bd4da2eb5e177c94c02205d44c258ac78a4233b247759729e18a6bbfa3837c6183c76407f9641e8668f99012102c7175b1e7fd423b16bcc61421871ba343cca6b20d83b7841aabb10f61c7fefd1ffffffff0280d1f008000000001976a91415ef35b3f39a6825c23e9336826c82656b3f8cd188acaeb44fc2010000001976a914ae6137195086360f4daba33cc0e0aebc03a7914688ac00000000"
    }, 
    {
      "txid": "8c9129f0034a2be065541ca838eba1b20eb4b4b823f428ccd79f29b91f548c80",
      "hash": "8c9129f0034a2be065541ca838eba1b20eb4b4b823f428ccd79f29b91f548c80",
      "version": 2,
      "size": 225,
      "vsize": 225,
      "locktime": 1359762,
      "vin": [
        {
          "txid": "cc44b873f80dd9c3d4271dc855b899110af0b493f507c9ce6b22ceb1c27edef2",
          "vout": 26,
          "scriptSig": {
            "asm": "30440220245c50086a922c568827418fadf16e4f7ffd9277ce8f8eb0d44956d689c2377a02207c6f1822585ec2e9d19aa34a7b2cc97fc2ae829ad8e157b80c865ea30506be2d[ALL] 03cc99880c60e6c7e3d8d8afac52ef9d2b1383a39223a3c278ad316b31a46c46f5",
            "hex": "4730440220245c50086a922c568827418fadf16e4f7ffd9277ce8f8eb0d44956d689c2377a02207c6f1822585ec2e9d19aa34a7b2cc97fc2ae829ad8e157b80c865ea30506be2d012103cc99880c60e6c7e3d8d8afac52ef9d2b1383a39223a3c278ad316b31a46c46f5"
          },
          "sequence": 4294967294
        }
      ],
      "vout": [
        {
          "value": 3.10809388,
          "n": 0,
          "scriptPubKey": {
            "asm": "OP_DUP OP_HASH160 d2bbdb24acf3b5053243cffd3e31f770468f1f47 OP_EQUALVERIFY OP_CHECKSIG",
            "hex": "76a914d2bbdb24acf3b5053243cffd3e31f770468f1f4788ac",
            "reqSigs": 1,
            "type": "pubkeyhash",
            "addresses": [
              "LeSDCxp3i6i3NkvX5ePH1WnQWowJAmuxes"
            ]
          }
        }, 
        {
          "value": 0.35498841,
          "n": 1,
          "scriptPubKey": {
            "asm": "OP_DUP OP_HASH160 0f4b073494dfa0bcd96790ed694a03ae2e9831d4 OP_EQUALVERIFY OP_CHECKSIG",
            "hex": "76a9140f4b073494dfa0bcd96790ed694a03ae2e9831d488ac",
            "reqSigs": 1,
            "type": "pubkeyhash",
            "addresses": [
              "LLcpH8vdoJmtfDVpHW5AM9omAJx26ZXRLe"
            ]
          }
        }
      ],
      "hex": "0200000001f2de7ec2b1ce226bcec907f593b4f00a1199b855c81d27d4c3d90df873b844cc1a0000006a4730440220245c50086a922c568827418fadf16e4f7ffd9277ce8f8eb0d44956d689c2377a02207c6f1822585ec2e9d19aa34a7b2cc97fc2ae829ad8e157b80c865ea30506be2d012103cc99880c60e6c7e3d8d8afac52ef9d2b1383a39223a3c278ad316b31a46c46f5feffffff022c938612000000001976a914d2bbdb24acf3b5053243cffd3e31f770468f1f4788ac59ab1d02000000001976a9140f4b073494dfa0bcd96790ed694a03ae2e9831d488ac92bf1400"
    }, 
    {
      "txid": "10d2a0ab65ecde54f151b3c35d983f7989ac74d8b50f8c8bfb4d80c6043315bb",
      "hash": "10d2a0ab65ecde54f151b3c35d983f7989ac74d8b50f8c8bfb4d80c6043315bb",
      "version": 1,
      "size": 225,
      "vsize": 225,
      "locktime": 0,
      "vin": [
        {
          "txid": "0750a320947f1253e8eed5dd1c6ca4aae8971c500ed0a883f0c37561cf0c960f",
          "vout": 1,
          "scriptSig": {
            "asm": "3044022020b31cb6c669b4ea621617e9518dc5b6cdf754a032e2f29f621562e17dbf48c002202d9d5f428878fbab9b0d85ac134dd8a778d3324a761303f944e9d0ab42b20099[ALL] 02b438cf3c04092ba710dcf333ae47f578f0e56c1ddd985c764c8d07cfe0ad9c07",
            "hex": "473044022020b31cb6c669b4ea621617e9518dc5b6cdf754a032e2f29f621562e17dbf48c002202d9d5f428878fbab9b0d85ac134dd8a778d3324a761303f944e9d0ab42b20099012102b438cf3c04092ba710dcf333ae47f578f0e56c1ddd985c764c8d07cfe0ad9c07"
          },
          "sequence": 4294967295
        }
      ],
      "vout": [
        {
          "value": 0.12830000,
          "n": 0,
          "scriptPubKey": {
            "asm": "OP_DUP OP_HASH160 7ee1df3de025dae53a6bfde1e614cb6b0773d63a OP_EQUALVERIFY OP_CHECKSIG",
            "hex": "76a9147ee1df3de025dae53a6bfde1e614cb6b0773d63a88ac",
            "reqSigs": 1,
            "type": "pubkeyhash",
            "addresses": [
              "LWnqzFLRmu3aDmzkWYvD9VDfMwTqw6etJA"
            ]
          }
        }, 
        {
          "value": 0.00056437,
          "n": 1,
          "scriptPubKey": {
            "asm": "OP_DUP OP_HASH160 47c43a8ec9617fce58116d8da1408938760d1706 OP_EQUALVERIFY OP_CHECKSIG",
            "hex": "76a91447c43a8ec9617fce58116d8da1408938760d170688ac",
            "reqSigs": 1,
            "type": "pubkeyhash",
            "addresses": [
              "LRmRK3ZRmoNBxfEM2akYadBKpRDJW2Qzux"
            ]
          }
        }
      ],
      "hex": "01000000010f960ccf6175c3f083a8d00e501c97e8aaa46c1cddd5eee853127f9420a35007010000006a473044022020b31cb6c669b4ea621617e9518dc5b6cdf754a032e2f29f621562e17dbf48c002202d9d5f428878fbab9b0d85ac134dd8a778d3324a761303f944e9d0ab42b20099012102b438cf3c04092ba710dcf333ae47f578f0e56c1ddd985c764c8d07cfe0ad9c07ffffffff0230c5c300000000001976a9147ee1df3de025dae53a6bfde1e614cb6b0773d63a88ac75dc0000000000001976a91447c43a8ec9617fce58116d8da1408938760d170688ac00000000"
    }, 
    {
      "txid": "79c8fe6701694a51c48c20f1431900fae9746a61019de0132bbfeb38672e51be",
      "hash": "79c8fe6701694a51c48c20f1431900fae9746a61019de0132bbfeb38672e51be",
      "version": 1,
      "size": 225,
      "vsize": 225,
      "locktime": 0,
      "vin": [
        {
          "txid": "04f1818daec2c3152b9060e7026c07b94d7f61bdb866625ca7eb495ddaf29d94",
          "vout": 0,
          "scriptSig": {
            "asm": "304402201055e87e4ca89ba66288de3d607197d7cbfb60599396b077b9ea172704196bb60220633542a67f6fccfd9ce04bec32a78cb658e544f1220632d861a478b10398a979[ALL] 0322de3a3b2ea63f1c089b96fae96c30b9009296fb94eea1c7ccfbad21ff0833e0",
            "hex": "47304402201055e87e4ca89ba66288de3d607197d7cbfb60599396b077b9ea172704196bb60220633542a67f6fccfd9ce04bec32a78cb658e544f1220632d861a478b10398a97901210322de3a3b2ea63f1c089b96fae96c30b9009296fb94eea1c7ccfbad21ff0833e0"
          },
          "sequence": 4294967295
        }
      ],
      "vout": [
        {
          "value": 17.59995000,
          "n": 0,
          "scriptPubKey": {
            "asm": "OP_DUP OP_HASH160 dafcd0b5a2feb41d97faef4485fe6edd5af44dfc OP_EQUALVERIFY OP_CHECKSIG",
            "hex": "76a914dafcd0b5a2feb41d97faef4485fe6edd5af44dfc88ac",
            "reqSigs": 1,
            "type": "pubkeyhash",
            "addresses": [
              "LfBrRwmStPEjNb2KJfvSkSstzhcE9zwg85"
            ]
          }
        }, 
        {
          "value": 59.44113591,
          "n": 1,
          "scriptPubKey": {
            "asm": "OP_DUP OP_HASH160 1b2e520a840438bc9ff209ec460c41f889241a77 OP_EQUALVERIFY OP_CHECKSIG",
            "hex": "76a9141b2e520a840438bc9ff209ec460c41f889241a7788ac",
            "reqSigs": 1,
            "type": "pubkeyhash",
            "addresses": [
              "LMhfzo5hj5BVkds6yV51FsrpLVtgbyGKRy"
            ]
          }
        }
      ],
      "hex": "0100000001949df2da5d49eba75c6266b8bd617f4db9076c02e760902b15c3c2ae8d81f104000000006a47304402201055e87e4ca89ba66288de3d607197d7cbfb60599396b077b9ea172704196bb60220633542a67f6fccfd9ce04bec32a78cb658e544f1220632d861a478b10398a97901210322de3a3b2ea63f1c089b96fae96c30b9009296fb94eea1c7ccfbad21ff0833e0ffffffff027864e768000000001976a914dafcd0b5a2feb41d97faef4485fe6edd5af44dfc88acb7f94b62010000001976a9141b2e520a840438bc9ff209ec460c41f889241a7788ac00000000"
    }, 
    {
      "txid": "ac85e0eeefc7addc069fcdfecfc1ad0b85183954db59511ac36c65e9c40ce3c5",
      "hash": "ac85e0eeefc7addc069fcdfecfc1ad0b85183954db59511ac36c65e9c40ce3c5",
      "version": 2,
      "size": 225,
      "vsize": 225,
      "locktime": 1359762,
      "vin": [
        {
          "txid": "264d3fedad8f1aa8c2ebf9da511b1186d47690ad808414b048297b50ca872d19",
          "vout": 0,
          "scriptSig": {
            "asm": "30440220613f8a1702bdec0367a5533ce461d6adbd5d45fa2da235bf9d2220669c20a32b022017d4e6d32be300dd8fb3edc1a82fed97ea60d81e33483c12ddd410da0533eb9a[ALL] 026572f3f57bfad355cf42bf0129b68828cc5c7f33b59ab1d789c7b61d606b2362",
            "hex": "4730440220613f8a1702bdec0367a5533ce461d6adbd5d45fa2da235bf9d2220669c20a32b022017d4e6d32be300dd8fb3edc1a82fed97ea60d81e33483c12ddd410da0533eb9a0121026572f3f57bfad355cf42bf0129b68828cc5c7f33b59ab1d789c7b61d606b2362"
          },
          "sequence": 4294967294
        }
      ],
      "vout": [
        {
          "value": 30.00000000,
          "n": 0,
          "scriptPubKey": {
            "asm": "OP_DUP OP_HASH160 f8119965ec48487416a2016d45d3258053895d48 OP_EQUALVERIFY OP_CHECKSIG",
            "hex": "76a914f8119965ec48487416a2016d45d3258053895d4888ac",
            "reqSigs": 1,
            "type": "pubkeyhash",
            "addresses": [
              "Lhqcvbr4XSGJPVLsB1tQYMv82waepR5sPq"
            ]
          }
        }, 
        {
          "value": 153.70069796,
          "n": 1,
          "scriptPubKey": {
            "asm": "OP_DUP OP_HASH160 12b845683415e3f2198798b53848396f9aee3065 OP_EQUALVERIFY OP_CHECKSIG",
            "hex": "76a91412b845683415e3f2198798b53848396f9aee306588ac",
            "reqSigs": 1,
            "type": "pubkeyhash",
            "addresses": [
              "LLvwB3jUN7ZhJcyDorJqbQpHo77UarBvGH"
            ]
          }
        }
      ],
      "hex": "0200000001192d87ca507b2948b0148480ad9076d486111b51daf9ebc2a81a8faded3f4d26000000006a4730440220613f8a1702bdec0367a5533ce461d6adbd5d45fa2da235bf9d2220669c20a32b022017d4e6d32be300dd8fb3edc1a82fed97ea60d81e33483c12ddd410da0533eb9a0121026572f3f57bfad355cf42bf0129b68828cc5c7f33b59ab1d789c7b61d606b2362feffffff02005ed0b2000000001976a914f8119965ec48487416a2016d45d3258053895d4888ac24a72094030000001976a91412b845683415e3f2198798b53848396f9aee306588ac92bf1400"
    }
  ],
  "time": 1517328677,
  "mediantime": 1517328151,
  "nonce": 4017517714,
  "bits": "1a042eae",
  "difficulty": 4011378.762614286,
  "chainwork": "0000000000000000000000000000000000000000000000344f34a8032bdb33aa",
  "previousblockhash": "7185bca4b5124bdd08540cce05c189c80f71ac59441db99a09fbde7dfaff3ac0",
  "nextblockhash": "f46cbde737db026980fe2e83b58d45703c918e8ada174c5a4a16b4b02a5ee0f8"
}
