{
  "hash": "f698a529e1c8e5692d9296429a1c88ba08f8aafb84fa091c8ac866d21caab467",
  "confirmations": 1433,
  "strippedsize": 971,
  "size": 1007,
  "weight": 3920,
  "height": 1359561,
  "version": 536870912,
  "versionHex": "20000000",
  "merkleroot": "182babbb793a20b8706414d19f0654a39f34ede0947e4909028580ac078c2f6f",
  "tx": [
    {
      "txid": "6ae8839df067a81adef21887623d3c46055c90b1b460308e316c9eb38ece7cfe",
      "hash": "5309a290cb98611c6f3cb257471916e2f61341c39d00be86af676cb82469cfd7",
      "version": 1,
      "size": 251,
      "vsize": 224,
      "locktime": 0,
      "vin": [
        {
          "coinbase": "03c9be140000000000fabe6d6df6ed8b36b7802a5eb1bd53a75fd16cfdcd802c1fa1a6440927a82f7c31d6cb38010000000000000004b626705a04a66f961208210c4043150000000a42570a6657042f42572f",
          "sequence": 4294967295
        }
      ],
      "vout": [
        {
          "value": 25.00067600,
          "n": 0,
          "scriptPubKey": {
            "asm": "OP_DUP OP_HASH160 5373bc9425fd49e6bfe522d3dfc85432da2cc023 OP_EQUALVERIFY OP_CHECKSIG",
            "hex": "76a9145373bc9425fd49e6bfe522d3dfc85432da2cc02388ac",
            "reqSigs": 1,
            "type": "pubkeyhash",
            "addresses": [
              "LSqCzf5bPfkqGf94pJcfxWx5bZMPJE5XRf"
            ]
          }
        }, 
        {
          "value": 0.00000000,
          "n": 1,
          "scriptPubKey": {
            "asm": "OP_RETURN aa21a9ed3195ff62a852a4f954ec8de1eb190a83d5cc4459985f656b6326a469862a9790",
            "hex": "6a24aa21a9ed3195ff62a852a4f954ec8de1eb190a83d5cc4459985f656b6326a469862a9790",
            "type": "nulldata"
          }
        }
      ],
      "hex": "010000000001010000000000000000000000000000000000000000000000000000000000000000ffffffff5303c9be140000000000fabe6d6df6ed8b36b7802a5eb1bd53a75fd16cfdcd802c1fa1a6440927a82f7c31d6cb38010000000000000004b626705a04a66f961208210c4043150000000a42570a6657042f42572fffffffff0210010495000000001976a9145373bc9425fd49e6bfe522d3dfc85432da2cc02388ac0000000000000000266a24aa21a9ed3195ff62a852a4f954ec8de1eb190a83d5cc4459985f656b6326a469862a97900120000000000000000000000000000000000000000000000000000000000000000000000000"
    }, 
    {
      "txid": "2e4e6bf3f1a24c00761d0f84d29ea52399ccc6ecfbea53cd1042035d7a3f0a2b",
      "hash": "2e4e6bf3f1a24c00761d0f84d29ea52399ccc6ecfbea53cd1042035d7a3f0a2b",
      "version": 1,
      "size": 225,
      "vsize": 225,
      "locktime": 0,
      "vin": [
        {
          "txid": "b388ad3ca859d4c5921a2ff969e6f7f28a2774b96e404e6e04ad92b10349be83",
          "vout": 1,
          "scriptSig": {
            "asm": "30440220759ef013884e375cf9d17b4ecf5e6ca92c12525a87536f22e357e0a539792dfe022023aec13f9384bac56aacdcd8e5af1be5eda4661f4831b93cee659716936b9b05[ALL] 020b4e10b5d84cfbf26e0da1185fdd0a53afee81ec438ed355cfbb899b0fce70b1",
            "hex": "4730440220759ef013884e375cf9d17b4ecf5e6ca92c12525a87536f22e357e0a539792dfe022023aec13f9384bac56aacdcd8e5af1be5eda4661f4831b93cee659716936b9b050121020b4e10b5d84cfbf26e0da1185fdd0a53afee81ec438ed355cfbb899b0fce70b1"
          },
          "sequence": 4294967295
        }
      ],
      "vout": [
        {
          "value": 1.10006899,
          "n": 0,
          "scriptPubKey": {
            "asm": "OP_DUP OP_HASH160 eeb483863bbdbdb2441c568207c6857f758e6c93 OP_EQUALVERIFY OP_CHECKSIG",
            "hex": "76a914eeb483863bbdbdb2441c568207c6857f758e6c9388ac",
            "reqSigs": 1,
            "type": "pubkeyhash",
            "addresses": [
              "Lgz7LBgp4ALapX1eZCG4aaZsbCwZAuZ9D3"
            ]
          }
        }, 
        {
          "value": 0.68857721,
          "n": 1,
          "scriptPubKey": {
            "asm": "OP_DUP OP_HASH160 2fc9ef77c980cdde6ba41d41fd809b1dcac007c7 OP_EQUALVERIFY OP_CHECKSIG",
            "hex": "76a9142fc9ef77c980cdde6ba41d41fd809b1dcac007c788ac",
            "reqSigs": 1,
            "type": "pubkeyhash",
            "addresses": [
              "LPadvwwgqXksSQo9DzMFjfKUAGeY2ofSBU"
            ]
          }
        }
      ],
      "hex": "010000000183be4903b192ad046e4e406eb974278af2f7e669f92f1a92c5d459a83cad88b3010000006a4730440220759ef013884e375cf9d17b4ecf5e6ca92c12525a87536f22e357e0a539792dfe022023aec13f9384bac56aacdcd8e5af1be5eda4661f4831b93cee659716936b9b050121020b4e10b5d84cfbf26e0da1185fdd0a53afee81ec438ed355cfbb899b0fce70b1ffffffff0273928e06000000001976a914eeb483863bbdbdb2441c568207c6857f758e6c9388ac79af1a04000000001976a9142fc9ef77c980cdde6ba41d41fd809b1dcac007c788ac00000000"
    }, 
    {
      "txid": "0df52b812c5fa61ed6eb370d767c7ad11cb0b0fecb4900c344ebace2061d9a1f",
      "hash": "0df52b812c5fa61ed6eb370d767c7ad11cb0b0fecb4900c344ebace2061d9a1f",
      "version": 2,
      "size": 224,
      "vsize": 224,
      "locktime": 1359559,
      "vin": [
        {
          "txid": "9ead236bf38d5a788da59a2fd47840c9446f861f76568f1c47c06f833adba2ae",
          "vout": 1,
          "scriptSig": {
            "asm": "304502210099d4284dceb99d99bf5a5aa1d6ce088b5378a7e1f541f6d3504ec33a6175d88a0220443d4c7df65d3bea23a48dc27af318836b62c3f917a7da312b917296b22eea75[ALL] 0214f57761c4b1c9a1ab7ffcd17d888b516516033256a49e1cbfdfb3ce892edb8f",
            "hex": "48304502210099d4284dceb99d99bf5a5aa1d6ce088b5378a7e1f541f6d3504ec33a6175d88a0220443d4c7df65d3bea23a48dc27af318836b62c3f917a7da312b917296b22eea7501210214f57761c4b1c9a1ab7ffcd17d888b516516033256a49e1cbfdfb3ce892edb8f"
          },
          "sequence": 4294967294
        }
      ],
      "vout": [
        {
          "value": 0.75936006,
          "n": 0,
          "scriptPubKey": {
            "asm": "OP_DUP OP_HASH160 7f7d21137833848f965c3065ec79aa176de7bfeb OP_EQUALVERIFY OP_CHECKSIG",
            "hex": "76a9147f7d21137833848f965c3065ec79aa176de7bfeb88ac",
            "reqSigs": 1,
            "type": "pubkeyhash",
            "addresses": [
              "LWr3yhqgMKmYVLRWtzqE4NjSKJctjnYb1G"
            ]
          }
        }, 
        {
          "value": 1.18724994,
          "n": 1,
          "scriptPubKey": {
            "asm": "OP_HASH160 f95a7c31284afc23eccacdb760a83b248642c7e1 OP_EQUAL",
            "hex": "a914f95a7c31284afc23eccacdb760a83b248642c7e187",
            "reqSigs": 1,
            "type": "scripthash",
            "addresses": [
              "MWdctDHgXFAGNRdty8srkEqtZXxzdSm8vL"
            ]
          }
        }
      ],
      "hex": "0200000001aea2db3a836fc0471c8f56761f866f44c94078d42f9aa58d785a8df36b23ad9e010000006b48304502210099d4284dceb99d99bf5a5aa1d6ce088b5378a7e1f541f6d3504ec33a6175d88a0220443d4c7df65d3bea23a48dc27af318836b62c3f917a7da312b917296b22eea7501210214f57761c4b1c9a1ab7ffcd17d888b516516033256a49e1cbfdfb3ce892edb8ffeffffff0206b18604000000001976a9147f7d21137833848f965c3065ec79aa176de7bfeb88ac829913070000000017a914f95a7c31284afc23eccacdb760a83b248642c7e187c7be1400"
    }, 
    {
      "txid": "f2239f4a390f2c51f695b9fb0851d35f84507c8c553c278baca16128e2c81bb8",
      "hash": "f2239f4a390f2c51f695b9fb0851d35f84507c8c553c278baca16128e2c81bb8",
      "version": 1,
      "size": 226,
      "vsize": 226,
      "locktime": 0,
      "vin": [
        {
          "txid": "e8a7f99a4682945d57539008174bf663ca3a32220703e9e18d984b420c30c3b1",
          "vout": 0,
          "scriptSig": {
            "asm": "3045022100848930f5bf16af0abe0894544b252d957f178b0481f1a00bbba69edb46c0b14602201ab6990dec0ad422eb408e06200c74ce04230ec3de28e96bc5358d2f489ebc51[ALL] 030360de57f2d35dcd88933d49fda7cf5aec622e513ca2839d4a1adc8b1fa79815",
            "hex": "483045022100848930f5bf16af0abe0894544b252d957f178b0481f1a00bbba69edb46c0b14602201ab6990dec0ad422eb408e06200c74ce04230ec3de28e96bc5358d2f489ebc510121030360de57f2d35dcd88933d49fda7cf5aec622e513ca2839d4a1adc8b1fa79815"
          },
          "sequence": 4294967295
        }
      ],
      "vout": [
        {
          "value": 0.00147818,
          "n": 0,
          "scriptPubKey": {
            "asm": "OP_DUP OP_HASH160 61cf82e8fc762ffe4dbb457544f4aebdfc93b7cd OP_EQUALVERIFY OP_CHECKSIG",
            "hex": "76a91461cf82e8fc762ffe4dbb457544f4aebdfc93b7cd88ac",
            "reqSigs": 1,
            "type": "pubkeyhash",
            "addresses": [
              "LU98PxpHwYWyUXeKKnYktBcmFPdNrgf6hR"
            ]
          }
        }, 
        {
          "value": 0.43371074,
          "n": 1,
          "scriptPubKey": {
            "asm": "OP_DUP OP_HASH160 bbe46697cf5ebb6da9f3be2b5841f15a0353b94e OP_EQUALVERIFY OP_CHECKSIG",
            "hex": "76a914bbe46697cf5ebb6da9f3be2b5841f15a0353b94e88ac",
            "reqSigs": 1,
            "type": "pubkeyhash",
            "addresses": [
              "LcMSEeXnCXbhx2sJ2pVHwSgf2hWXT79iNw"
            ]
          }
        }
      ],
      "hex": "0100000001b1c3300c424b988de1e9030722323aca63f64b17089053575d9482469af9a7e8000000006b483045022100848930f5bf16af0abe0894544b252d957f178b0481f1a00bbba69edb46c0b14602201ab6990dec0ad422eb408e06200c74ce04230ec3de28e96bc5358d2f489ebc510121030360de57f2d35dcd88933d49fda7cf5aec622e513ca2839d4a1adc8b1fa79815ffffffff026a410200000000001976a91461cf82e8fc762ffe4dbb457544f4aebdfc93b7cd88ac42ca9502000000001976a914bbe46697cf5ebb6da9f3be2b5841f15a0353b94e88ac00000000"
    }
  ],
  "time": 1517299382,
  "mediantime": 1517298260,
  "nonce": 2995074049,
  "bits": "1a042eae",
  "difficulty": 4011378.762614286,
  "chainwork": "0000000000000000000000000000000000000000000000341eab1578c9c6c994",
  "previousblockhash": "873d94de3a873191f4f4eeae3bd48a3a64705fa982002f44ec8429b43c66fd09",
  "nextblockhash": "2dcad2cafc69c6ad23bb735db982792bf8333f6c76f62f8a52217e39a8047a8b"
}
