{
  "hash": "f6f603e3f676b1eb982278e5e2972d59e74b684d8085adac0394009bd2328067",
  "confirmations": 2100,
  "strippedsize": 253,
  "size": 253,
  "weight": 1012,
  "height": 1358894,
  "version": 536870912,
  "versionHex": "20000000",
  "merkleroot": "13b237d5116268eed2aa3c9dc2500fccc104d8813f92c91790ca5d819a71ad9a",
  "tx": [
    {
      "txid": "13b237d5116268eed2aa3c9dc2500fccc104d8813f92c91790ca5d819a71ad9a",
      "hash": "13b237d5116268eed2aa3c9dc2500fccc104d8813f92c91790ca5d819a71ad9a",
      "version": 1,
      "size": 172,
      "vsize": 172,
      "locktime": 0,
      "vin": [
        {
          "coinbase": "032ebc141a4d696e656420627920416e74506f6f6c20626a3242205a6ebe99fabe6d6dd718af2a0a37dbb39dfb7192d36f31aa0f82a912c1cba94faf37054bc82d11b30400000000000000822b00000000000013000000",
          "sequence": 4294967295
        }
      ],
      "vout": [
        {
          "value": 25.00000000,
          "n": 0,
          "scriptPubKey": {
            "asm": "OP_DUP OP_HASH160 0ff3ccc5e8be88afe24b5d634e5852d474dbdff1 OP_EQUALVERIFY OP_CHECKSIG",
            "hex": "76a9140ff3ccc5e8be88afe24b5d634e5852d474dbdff188ac",
            "reqSigs": 1,
            "type": "pubkeyhash",
            "addresses": [
              "LLgJTbzZMsRTCUF1NtvvL9SR1a4pVieW89"
            ]
          }
        }
      ],
      "hex": "01000000010000000000000000000000000000000000000000000000000000000000000000ffffffff57032ebc141a4d696e656420627920416e74506f6f6c20626a3242205a6ebe99fabe6d6dd718af2a0a37dbb39dfb7192d36f31aa0f82a912c1cba94faf37054bc82d11b30400000000000000822b00000000000013000000ffffffff0100f90295000000001976a9140ff3ccc5e8be88afe24b5d634e5852d474dbdff188ac00000000"
    }
  ],
  "time": 1517207193,
  "mediantime": 1517206307,
  "nonce": 399068310,
  "bits": "1a042eae",
  "difficulty": 4011378.762614286,
  "chainwork": "0000000000000000000000000000000000000000000000337f3033fb3e5f23de",
  "previousblockhash": "48208affe33b537267cd75129696f1200a9eb402384402604a1ffce5be00a334",
  "nextblockhash": "74b7adf841d7fe022e5c7f5aaee2e6a16f7d6a8349e617ccf3ba4d2bb868a07a"
}
