{
  "hash": "f735d9959f87fe752526f3d32ef0021059641c18d6309d8b966cc96804810774",
  "confirmations": 2598,
  "strippedsize": 1506,
  "size": 1542,
  "weight": 6060,
  "height": 1358397,
  "version": 536870912,
  "versionHex": "20000000",
  "merkleroot": "31a582b4d0083b96797b6d11ee57bc4e40622d99187dc9fccf4a9ceb9b33a011",
  "tx": [
    {
      "txid": "eea5b4694e4e8415c3f416b6da269bef2d74af2535c9ff811293cdba0f9e6723",
      "hash": "186ccacaa1438b7e5e4d33725bd64efb5cfba6e3026b1c4590eb827111701261",
      "version": 1,
      "size": 236,
      "vsize": 209,
      "locktime": 0,
      "vin": [
        {
          "coinbase": "033dba14045a6da77e2cfabe6d6d0c695a7f79e7ae31d668216fba2f9a5da4c29b703510f2ab926a44247c94d62c4000000000000000042f4c502f0816002692db170000",
          "sequence": 4294967295
        }
      ],
      "vout": [
        {
          "value": 25.00100000,
          "n": 0,
          "scriptPubKey": {
            "asm": "OP_DUP OP_HASH160 57757ed2ecf2052ff3126c397aca7defb9ca2cec OP_EQUALVERIFY OP_CHECKSIG",
            "hex": "76a91457757ed2ecf2052ff3126c397aca7defb9ca2cec88ac",
            "reqSigs": 1,
            "type": "pubkeyhash",
            "addresses": [
              "LTCPodGk5FwcJaRzH9yKnwicxzFUbxp6tN"
            ]
          }
        }, 
        {
          "value": 0.00000000,
          "n": 1,
          "scriptPubKey": {
            "asm": "OP_RETURN aa21a9ed1ce0b4b2fa5cbc3d12edb808115af81c525ac53b3085202e0a8818ae06f4c82f",
            "hex": "6a24aa21a9ed1ce0b4b2fa5cbc3d12edb808115af81c525ac53b3085202e0a8818ae06f4c82f",
            "type": "nulldata"
          }
        }
      ],
      "hex": "010000000001010000000000000000000000000000000000000000000000000000000000000000ffffffff44033dba14045a6da77e2cfabe6d6d0c695a7f79e7ae31d668216fba2f9a5da4c29b703510f2ab926a44247c94d62c4000000000000000042f4c502f0816002692db170000ffffffff02a07f0495000000001976a91457757ed2ecf2052ff3126c397aca7defb9ca2cec88ac0000000000000000266a24aa21a9ed1ce0b4b2fa5cbc3d12edb808115af81c525ac53b3085202e0a8818ae06f4c82f0120000000000000000000000000000000000000000000000000000000000000000000000000"
    }, 
    {
      "txid": "b42ad2c3d1f8f2b330b7351558ab38a15f48986be94ae0872a89af573c2a1ebc",
      "hash": "b42ad2c3d1f8f2b330b7351558ab38a15f48986be94ae0872a89af573c2a1ebc",
      "version": 1,
      "size": 1225,
      "vsize": 1225,
      "locktime": 0,
      "vin": [
        {
          "txid": "6030235dca0c26fa17092b0e87a5f4dfa2ae4ce73261666d2134ebbd0b963cef",
          "vout": 17,
          "scriptSig": {
            "asm": "304402203b295ed79a5b6ebe0bd9d7c98090ee458c8727345bcd95f9eb0c8c992c5683ee0220722662de3c842181dcca9d4f9092ea437596fd48496d3b91dcfa67f77ce6259f[ALL] 03bc7159cd0b32e23f866a5fc4fa8f3c13dd6b9a6c822118dedf9e06bab63b5b1d",
            "hex": "47304402203b295ed79a5b6ebe0bd9d7c98090ee458c8727345bcd95f9eb0c8c992c5683ee0220722662de3c842181dcca9d4f9092ea437596fd48496d3b91dcfa67f77ce6259f012103bc7159cd0b32e23f866a5fc4fa8f3c13dd6b9a6c822118dedf9e06bab63b5b1d"
          },
          "sequence": 4294967295
        }, 
        {
          "txid": "6030235dca0c26fa17092b0e87a5f4dfa2ae4ce73261666d2134ebbd0b963cef",
          "vout": 16,
          "scriptSig": {
            "asm": "3045022100f89a1ea0dc066210948a0415a6263ba06753955a53b514dac318fa524d46a12e022058c034895b75e31f483c53fdd809165d59769473c099ccffe07c238b6f371531[ALL] 0217dd43ecf857f6ac9a956a1620428e9271092a5784e54489efc8d27e020f968e",
            "hex": "483045022100f89a1ea0dc066210948a0415a6263ba06753955a53b514dac318fa524d46a12e022058c034895b75e31f483c53fdd809165d59769473c099ccffe07c238b6f37153101210217dd43ecf857f6ac9a956a1620428e9271092a5784e54489efc8d27e020f968e"
          },
          "sequence": 4294967295
        }, 
        {
          "txid": "fab6e0a94235b9f849c52b4b95a8615e4cb9163c0b386aef5a30050b2e47d517",
          "vout": 8,
          "scriptSig": {
            "asm": "3045022100aae02ce33d77fd9afbe4f8d2e7ee431b3677904cf6f56731f88c8b3f1165b0f902206d16108df4049977df3860eaebda8dd47269be46238117b3a9db2fef30692189[ALL] 0306e2f883af62eb73e67f979397a0ee6711090f66b5e336dbde3927e1a8ff512d",
            "hex": "483045022100aae02ce33d77fd9afbe4f8d2e7ee431b3677904cf6f56731f88c8b3f1165b0f902206d16108df4049977df3860eaebda8dd47269be46238117b3a9db2fef3069218901210306e2f883af62eb73e67f979397a0ee6711090f66b5e336dbde3927e1a8ff512d"
          },
          "sequence": 4294967295
        }, 
        {
          "txid": "89c7a1806fe45e924b31b239ec016eac78ed0ea22c40e31c492d46c8fabdce0d",
          "vout": 1,
          "scriptSig": {
            "asm": "304502210083153a4d82158d305fc0facbc2404c5411ab675f3df28689c368b5a2009f53e50220127f17e6a1ce621e009bda6dc7e1df052204bd8d8726282438b925dfbc296ae1[ALL] 02e4d8813a326f386b669cb78fa3122af202b0ab520a2b58c325e7f4d2a74f1131",
            "hex": "48304502210083153a4d82158d305fc0facbc2404c5411ab675f3df28689c368b5a2009f53e50220127f17e6a1ce621e009bda6dc7e1df052204bd8d8726282438b925dfbc296ae1012102e4d8813a326f386b669cb78fa3122af202b0ab520a2b58c325e7f4d2a74f1131"
          },
          "sequence": 4294967295
        }, 
        {
          "txid": "d6a80be31fd7ec8910f7b69f6587b0d4403a7e3fa6dc00157086f6953e70b97d",
          "vout": 9,
          "scriptSig": {
            "asm": "304402203ce2fa51df468d56d6f866675a5d6765bca2a93baab1713f31bc432fbb6bc179022054886bb85896f9ac2b98663829d51d576c689b8d2522b09bed26af8c20f035b5[ALL] 03021fc984b470c5b0dc141096c95a6fa707c49c04d1acdab4381d4e5149a70e06",
            "hex": "47304402203ce2fa51df468d56d6f866675a5d6765bca2a93baab1713f31bc432fbb6bc179022054886bb85896f9ac2b98663829d51d576c689b8d2522b09bed26af8c20f035b5012103021fc984b470c5b0dc141096c95a6fa707c49c04d1acdab4381d4e5149a70e06"
          },
          "sequence": 4294967295
        }, 
        {
          "txid": "49f512748dc1d5ac3f5b718586c709a81670624cfcee89cee4cef7345a449e2e",
          "vout": 0,
          "scriptSig": {
            "asm": "3045022100b10c0cd01d74d71b7f384ec36d75a4e787a88fe7136b58c2cb81de60815864350220271488296d2685516b033184ca5edf5cf5ea75e0842a927d8d93db2554fd12a6[ALL] 02b8807fbe6b736a8c79eaffea4cae734d465375f3640df718214aabe0e9471029",
            "hex": "483045022100b10c0cd01d74d71b7f384ec36d75a4e787a88fe7136b58c2cb81de60815864350220271488296d2685516b033184ca5edf5cf5ea75e0842a927d8d93db2554fd12a6012102b8807fbe6b736a8c79eaffea4cae734d465375f3640df718214aabe0e9471029"
          },
          "sequence": 4294967295
        }, 
        {
          "txid": "08ae37c7aa73a109fc3ae1864d30db0fe2ea23b94a146f1baa2dec35a25b5dd6",
          "vout": 0,
          "scriptSig": {
            "asm": "3045022100f0ff1a701e214ef175b15e0cc96166128c9d8dde0a5525b971a3a94c24f1becd022015ab06df7a54697731e6e6274b94c8e9fea4f2dd3fa6a4cc0cb47a6f554eee5e[ALL] 0263f753020340a806bf9fca6d9e62640a477db41b6423e91dcece824b6d045ba2",
            "hex": "483045022100f0ff1a701e214ef175b15e0cc96166128c9d8dde0a5525b971a3a94c24f1becd022015ab06df7a54697731e6e6274b94c8e9fea4f2dd3fa6a4cc0cb47a6f554eee5e01210263f753020340a806bf9fca6d9e62640a477db41b6423e91dcece824b6d045ba2"
          },
          "sequence": 4294967295
        }, 
        {
          "txid": "f9957f3c7c1acb8eef0794942ba3d450c933787fc15a1c74897cbf269baf3866",
          "vout": 0,
          "scriptSig": {
            "asm": "3044022027fd4e562598596455337979d4867ec8423ba8179d88364823336b8cc6774bd1022055745cefdc97abaa20ba765137776bcdd3ee222772f3fb3c61439462edd322fc[ALL] 0228368bd72fbb55e3050a6ae419c241347b18597c065d32128766187ed58d598a",
            "hex": "473044022027fd4e562598596455337979d4867ec8423ba8179d88364823336b8cc6774bd1022055745cefdc97abaa20ba765137776bcdd3ee222772f3fb3c61439462edd322fc01210228368bd72fbb55e3050a6ae419c241347b18597c065d32128766187ed58d598a"
          },
          "sequence": 4294967295
        }
      ],
      "vout": [
        {
          "value": 33.16166243,
          "n": 0,
          "scriptPubKey": {
            "asm": "OP_DUP OP_HASH160 6c2614c7b45ef8dfa8dc83e6739ddbe201d05ab0 OP_EQUALVERIFY OP_CHECKSIG",
            "hex": "76a9146c2614c7b45ef8dfa8dc83e6739ddbe201d05ab088ac",
            "reqSigs": 1,
            "type": "pubkeyhash",
            "addresses": [
              "LV5nrreyVZJVvptA9PZSD4ViegKh7Qa8MA"
            ]
          }
        }
      ],
      "hex": "0100000008ef3c960bbdeb34216d666132e74caea2dff4a5870e2b0917fa260cca5d233060110000006a47304402203b295ed79a5b6ebe0bd9d7c98090ee458c8727345bcd95f9eb0c8c992c5683ee0220722662de3c842181dcca9d4f9092ea437596fd48496d3b91dcfa67f77ce6259f012103bc7159cd0b32e23f866a5fc4fa8f3c13dd6b9a6c822118dedf9e06bab63b5b1dffffffffef3c960bbdeb34216d666132e74caea2dff4a5870e2b0917fa260cca5d233060100000006b483045022100f89a1ea0dc066210948a0415a6263ba06753955a53b514dac318fa524d46a12e022058c034895b75e31f483c53fdd809165d59769473c099ccffe07c238b6f37153101210217dd43ecf857f6ac9a956a1620428e9271092a5784e54489efc8d27e020f968effffffff17d5472e0b05305aef6a380b3c16b94c5e61a8954b2bc549f8b93542a9e0b6fa080000006b483045022100aae02ce33d77fd9afbe4f8d2e7ee431b3677904cf6f56731f88c8b3f1165b0f902206d16108df4049977df3860eaebda8dd47269be46238117b3a9db2fef3069218901210306e2f883af62eb73e67f979397a0ee6711090f66b5e336dbde3927e1a8ff512dffffffff0dcebdfac8462d491ce3402ca20eed78ac6e01ec39b2314b925ee46f80a1c789010000006b48304502210083153a4d82158d305fc0facbc2404c5411ab675f3df28689c368b5a2009f53e50220127f17e6a1ce621e009bda6dc7e1df052204bd8d8726282438b925dfbc296ae1012102e4d8813a326f386b669cb78fa3122af202b0ab520a2b58c325e7f4d2a74f1131ffffffff7db9703e95f686701500dca63f7e3a40d4b087659fb6f71089ecd71fe30ba8d6090000006a47304402203ce2fa51df468d56d6f866675a5d6765bca2a93baab1713f31bc432fbb6bc179022054886bb85896f9ac2b98663829d51d576c689b8d2522b09bed26af8c20f035b5012103021fc984b470c5b0dc141096c95a6fa707c49c04d1acdab4381d4e5149a70e06ffffffff2e9e445a34f7cee4ce89eefc4c627016a809c78685715b3facd5c18d7412f549000000006b483045022100b10c0cd01d74d71b7f384ec36d75a4e787a88fe7136b58c2cb81de60815864350220271488296d2685516b033184ca5edf5cf5ea75e0842a927d8d93db2554fd12a6012102b8807fbe6b736a8c79eaffea4cae734d465375f3640df718214aabe0e9471029ffffffffd65d5ba235ec2daa1b6f144ab923eae20fdb304d86e13afc09a173aac737ae08000000006b483045022100f0ff1a701e214ef175b15e0cc96166128c9d8dde0a5525b971a3a94c24f1becd022015ab06df7a54697731e6e6274b94c8e9fea4f2dd3fa6a4cc0cb47a6f554eee5e01210263f753020340a806bf9fca6d9e62640a477db41b6423e91dcece824b6d045ba2ffffffff6638af9b26bf7c89741c5ac17f7833c950d4a32b949407ef8ecb1a7c3c7f95f9000000006a473044022027fd4e562598596455337979d4867ec8423ba8179d88364823336b8cc6774bd1022055745cefdc97abaa20ba765137776bcdd3ee222772f3fb3c61439462edd322fc01210228368bd72fbb55e3050a6ae419c241347b18597c065d32128766187ed58d598affffffff0163aea8c5000000001976a9146c2614c7b45ef8dfa8dc83e6739ddbe201d05ab088ac00000000"
    }
  ],
  "time": 1517135742,
  "mediantime": 1517135044,
  "nonce": 1572371846,
  "bits": "1a047f14",
  "difficulty": 3731199.183374282,
  "chainwork": "0000000000000000000000000000000000000000000000330ecd3a10d5b2054c",
  "previousblockhash": "4ac45a710b69125fc57fde3acb2cb4ba3964e44b4430b5d8cbab8607f44445a5",
  "nextblockhash": "23d2b7b24a8b9bc153f2cec1aa8d45dfdabb10b1d76902f79ac19aa0fb04e669"
}
