{
  "hash": "f8433c00431d826cfce1564b632105ea366349e1df834302e980bdf8f38ba227",
  "confirmations": 3470,
  "strippedsize": 253,
  "size": 253,
  "weight": 1012,
  "height": 1357525,
  "version": 536870912,
  "versionHex": "20000000",
  "merkleroot": "9ea494c80fd27c4476cfa8db1ce8eb3fc772a9eb33e4725a05d7c01adcdb17a9",
  "tx": [
    {
      "txid": "9ea494c80fd27c4476cfa8db1ce8eb3fc772a9eb33e4725a05d7c01adcdb17a9",
      "hash": "9ea494c80fd27c4476cfa8db1ce8eb3fc772a9eb33e4725a05d7c01adcdb17a9",
      "version": 1,
      "size": 172,
      "vsize": 172,
      "locktime": 0,
      "vin": [
        {
          "coinbase": "03d5b6141a4d696e656420627920416e74506f6f6c20626a331f205a6bcaf1fabe6d6d571718d8f9632cdd333ef630856de4554190f0a9ab60892b8fdf504470f89b080400000000000000b9380000000000000f000000",
          "sequence": 4294967295
        }
      ],
      "vout": [
        {
          "value": 25.00000000,
          "n": 0,
          "scriptPubKey": {
            "asm": "OP_DUP OP_HASH160 0ff3ccc5e8be88afe24b5d634e5852d474dbdff1 OP_EQUALVERIFY OP_CHECKSIG",
            "hex": "76a9140ff3ccc5e8be88afe24b5d634e5852d474dbdff188ac",
            "reqSigs": 1,
            "type": "pubkeyhash",
            "addresses": [
              "LLgJTbzZMsRTCUF1NtvvL9SR1a4pVieW89"
            ]
          }
        }
      ],
      "hex": "01000000010000000000000000000000000000000000000000000000000000000000000000ffffffff5703d5b6141a4d696e656420627920416e74506f6f6c20626a331f205a6bcaf1fabe6d6d571718d8f9632cdd333ef630856de4554190f0a9ab60892b8fdf504470f89b080400000000000000b9380000000000000f000000ffffffff0100f90295000000001976a9140ff3ccc5e8be88afe24b5d634e5852d474dbdff188ac00000000"
    }
  ],
  "time": 1517013745,
  "mediantime": 1517012772,
  "nonce": 265164119,
  "bits": "1a047f14",
  "difficulty": 3731199.183374282,
  "chainwork": "0000000000000000000000000000000000000000000000324cde62ea17894cbc",
  "previousblockhash": "b0e3ac695dfac24427b019301c967e56212ce300f24814d32bb06b3d8a2f621d",
  "nextblockhash": "ec50150c00ad726e5302d206f6356da45a597141ea6f36cf6b7ecd95d72660eb"
}
