{
  "hash": "f8a477f23540e07ebf12c3dee2a57d83a3fa5e50d0495703c73e7216c33f8f01",
  "confirmations": 714,
  "strippedsize": 255,
  "size": 255,
  "weight": 1020,
  "height": 1360280,
  "version": 536870912,
  "versionHex": "20000000",
  "merkleroot": "def860463cb29c729083da6af46d3fa2124c15c766d7a14547f816eab806af38",
  "tx": [
    {
      "txid": "def860463cb29c729083da6af46d3fa2124c15c766d7a14547f816eab806af38",
      "hash": "def860463cb29c729083da6af46d3fa2124c15c766d7a14547f816eab806af38",
      "version": 1,
      "size": 174,
      "vsize": 174,
      "locktime": 0,
      "vin": [
        {
          "coinbase": "0398c1141c4d696e656420627920416e74506f6f6c20626a341e205a71c42d1001fabe6d6de316ee51849b165a8c54f9ca87d627b79f2c28ae8f619541c993f3faa271566c0400000000000000b82900000000000003000000",
          "sequence": 4294967295
        }
      ],
      "vout": [
        {
          "value": 25.00000000,
          "n": 0,
          "scriptPubKey": {
            "asm": "OP_DUP OP_HASH160 0ff3ccc5e8be88afe24b5d634e5852d474dbdff1 OP_EQUALVERIFY OP_CHECKSIG",
            "hex": "76a9140ff3ccc5e8be88afe24b5d634e5852d474dbdff188ac",
            "reqSigs": 1,
            "type": "pubkeyhash",
            "addresses": [
              "LLgJTbzZMsRTCUF1NtvvL9SR1a4pVieW89"
            ]
          }
        }
      ],
      "hex": "01000000010000000000000000000000000000000000000000000000000000000000000000ffffffff590398c1141c4d696e656420627920416e74506f6f6c20626a341e205a71c42d1001fabe6d6de316ee51849b165a8c54f9ca87d627b79f2c28ae8f619541c993f3faa271566c0400000000000000b82900000000000003000000ffffffff0100f90295000000001976a9140ff3ccc5e8be88afe24b5d634e5852d474dbdff188ac00000000"
    }
  ],
  "time": 1517405229,
  "mediantime": 1517403822,
  "nonce": 3823985157,
  "bits": "1a042eae",
  "difficulty": 4011378.762614286,
  "chainwork": "000000000000000000000000000000000000000000000034ca94deb4e4d8ddb2",
  "previousblockhash": "0d35b926c03e577df9745930abb8c1bf8bab40f82bbbf89d5b4ac799ed5b5f30",
  "nextblockhash": "8d00787ee9c481fdd45161b8c024f756b1731008d73f233ef2dc66013f7764db"
}
