{
  "hash": "f8f692eb1c1f1fdf1e2adcb50abeb281850a0d7117fb7ad44ed462f203c6ef3a",
  "confirmations": 2011,
  "strippedsize": 253,
  "size": 253,
  "weight": 1012,
  "height": 1358983,
  "version": 536870912,
  "versionHex": "20000000",
  "merkleroot": "b150f7d6521865c5bb61f14af93d1452e22fae90071b389cbefd9e2b697ce888",
  "tx": [
    {
      "txid": "b150f7d6521865c5bb61f14af93d1452e22fae90071b389cbefd9e2b697ce888",
      "hash": "b150f7d6521865c5bb61f14af93d1452e22fae90071b389cbefd9e2b697ce888",
      "version": 1,
      "size": 172,
      "vsize": 172,
      "locktime": 0,
      "vin": [
        {
          "coinbase": "0387bc141a4d696e656420627920416e74506f6f6c20626a3242205a6ef27efabe6d6dd5b950675d493ab91ae50dda043b07dca2066b8030f522223993792633c56d130400000000000000ef0f0000000000001c000000",
          "sequence": 4294967295
        }
      ],
      "vout": [
        {
          "value": 25.00000000,
          "n": 0,
          "scriptPubKey": {
            "asm": "OP_DUP OP_HASH160 0ff3ccc5e8be88afe24b5d634e5852d474dbdff1 OP_EQUALVERIFY OP_CHECKSIG",
            "hex": "76a9140ff3ccc5e8be88afe24b5d634e5852d474dbdff188ac",
            "reqSigs": 1,
            "type": "pubkeyhash",
            "addresses": [
              "LLgJTbzZMsRTCUF1NtvvL9SR1a4pVieW89"
            ]
          }
        }
      ],
      "hex": "01000000010000000000000000000000000000000000000000000000000000000000000000ffffffff570387bc141a4d696e656420627920416e74506f6f6c20626a3242205a6ef27efabe6d6dd5b950675d493ab91ae50dda043b07dca2066b8030f522223993792633c56d130400000000000000ef0f0000000000001c000000ffffffff0100f90295000000001976a9140ff3ccc5e8be88afe24b5d634e5852d474dbdff188ac00000000"
    }
  ],
  "time": 1517220478,
  "mediantime": 1517220046,
  "nonce": 2749519392,
  "bits": "1a042eae",
  "difficulty": 4011378.762614286,
  "chainwork": "0000000000000000000000000000000000000000000000339477de28c7f41210",
  "previousblockhash": "aa5d5696408bc1b72cabe79315c9d05bb05acfd1b208292ee1697a27e343e08b",
  "nextblockhash": "0fd2da414f26ebca462df45a50d4a31ba5e75952e49f2cf66326f7f8852c8844"
}
