{
  "hash": "f9096cfaed4db205a2e3631038f77367c73986a7ae467032925c2cc9009d0867",
  "confirmations": 2016,
  "strippedsize": 1991,
  "size": 2027,
  "weight": 8000,
  "height": 1358978,
  "version": 536870912,
  "versionHex": "20000000",
  "merkleroot": "5c09888e99209f115fbf0ec205e63d11782c6bacead71f1b68e75f952ae2e2d1",
  "tx": [
    {
      "txid": "c26ccec4eed9b949d9f7dc37d353b8f376e6d1ecac0cd66adeb3fd8f810acf17",
      "hash": "05e8a81b9741c99d014b42f68571e6d9fa3b67543f9884a3307e4d164584b900",
      "version": 1,
      "size": 244,
      "vsize": 217,
      "locktime": 0,
      "vin": [
        {
          "coinbase": "0382bc14040cf16e5a080461b3b413000000fabe6d6d9be9db3a856f4be0e174fa225f751ad6992d930f9bafc2c14073a9c57c1c65f340000000000000000d2f6e6f64655374726174756d2f",
          "sequence": 0
        }
      ],
      "vout": [
        {
          "value": 25.00556945,
          "n": 0,
          "scriptPubKey": {
            "asm": "OP_DUP OP_HASH160 0c617fdb2ea42aed30a509595ee21ba3f6688db0 OP_EQUALVERIFY OP_CHECKSIG",
            "hex": "76a9140c617fdb2ea42aed30a509595ee21ba3f6688db088ac",
            "reqSigs": 1,
            "type": "pubkeyhash",
            "addresses": [
              "LLMRAtr3qBje2ySEa3CnZ55LA4TQMWnRY3"
            ]
          }
        }, 
        {
          "value": 0.00000000,
          "n": 1,
          "scriptPubKey": {
            "asm": "OP_RETURN aa21a9ed1b8dc55b43ccb1a364cd46203bb5f2e73ea2fc23e46986dfc968ceb273c9d3e1",
            "hex": "6a24aa21a9ed1b8dc55b43ccb1a364cd46203bb5f2e73ea2fc23e46986dfc968ceb273c9d3e1",
            "type": "nulldata"
          }
        }
      ],
      "hex": "010000000001010000000000000000000000000000000000000000000000000000000000000000ffffffff4c0382bc14040cf16e5a080461b3b413000000fabe6d6d9be9db3a856f4be0e174fa225f751ad6992d930f9bafc2c14073a9c57c1c65f340000000000000000d2f6e6f64655374726174756d2f000000000291780b95000000001976a9140c617fdb2ea42aed30a509595ee21ba3f6688db088ac0000000000000000266a24aa21a9ed1b8dc55b43ccb1a364cd46203bb5f2e73ea2fc23e46986dfc968ceb273c9d3e10120000000000000000000000000000000000000000000000000000000000000000000000000"
    }, 
    {
      "txid": "8a9f546fd474a5b713b4cc4bb4900a53f9ac7ba5909bb8d0aa05c6850c7f7793",
      "hash": "8a9f546fd474a5b713b4cc4bb4900a53f9ac7ba5909bb8d0aa05c6850c7f7793",
      "version": 1,
      "size": 520,
      "vsize": 520,
      "locktime": 1358970,
      "vin": [
        {
          "txid": "b80f733fb1d47394c002d0da5ea88165afe8883472cd3599c0e3e8d017716168",
          "vout": 281,
          "scriptSig": {
            "asm": "3044022035da19717527e588197069e963e91c18a67d41ba864afd40d446c3bab4ce603202204118092b7d762ffa0726dc0049df3df594bb6acece9f3dac091ff5fee540c733[ALL] 02dfd4f340e26b8bfddd2fe026ea197ef8c72192fcbacbc593f7d9080f65319cb0",
            "hex": "473044022035da19717527e588197069e963e91c18a67d41ba864afd40d446c3bab4ce603202204118092b7d762ffa0726dc0049df3df594bb6acece9f3dac091ff5fee540c733012102dfd4f340e26b8bfddd2fe026ea197ef8c72192fcbacbc593f7d9080f65319cb0"
          },
          "sequence": 4294967294
        }, 
        {
          "txid": "8b747219f4acee35062a904eb224011b60c7c3c03a4364c60d50fc69e5dd01f1",
          "vout": 43,
          "scriptSig": {
            "asm": "3045022100d59949f415e4acb63a6936179bca5da20f5c8512a85799483e44bcdbc4090051022045a50ca076b0004d3e2824bb493ac8017f5c91a2d531b07d0e0438c7a8effc50[ALL] 0278379aeba9fb429271c34364b5dc72fcb00be28c5938799d2539fa7de53b1167",
            "hex": "483045022100d59949f415e4acb63a6936179bca5da20f5c8512a85799483e44bcdbc4090051022045a50ca076b0004d3e2824bb493ac8017f5c91a2d531b07d0e0438c7a8effc5001210278379aeba9fb429271c34364b5dc72fcb00be28c5938799d2539fa7de53b1167"
          },
          "sequence": 4294967294
        }, 
        {
          "txid": "b8f428731c91abdddd331ddc53ae06167e73451bab83676ee72c520c334a451a",
          "vout": 39,
          "scriptSig": {
            "asm": "304402200541a09a5bb44665168e253be470ae617c6ea9fc6515ef1af6b129818852340a02206bed27591bf46069a4b28a95aa956e3485af8c3e58e5f53af7d9ea44b13ddeca[ALL] 02adddb7614e7ab536579358a337e5f387cf5788ad2dd6ddcdd07ae2a5836f0f3a",
            "hex": "47304402200541a09a5bb44665168e253be470ae617c6ea9fc6515ef1af6b129818852340a02206bed27591bf46069a4b28a95aa956e3485af8c3e58e5f53af7d9ea44b13ddeca012102adddb7614e7ab536579358a337e5f387cf5788ad2dd6ddcdd07ae2a5836f0f3a"
          },
          "sequence": 4294967294
        }
      ],
      "vout": [
        {
          "value": 0.01002740,
          "n": 0,
          "scriptPubKey": {
            "asm": "OP_DUP OP_HASH160 499eec8f0e7abbfb0953f833393280a45eceefce OP_EQUALVERIFY OP_CHECKSIG",
            "hex": "76a914499eec8f0e7abbfb0953f833393280a45eceefce88ac",
            "reqSigs": 1,
            "type": "pubkeyhash",
            "addresses": [
              "LRwDyTGhHpssVLPd6HvJW8ZprhWaNPk23H"
            ]
          }
        }, 
        {
          "value": 0.40319094,
          "n": 1,
          "scriptPubKey": {
            "asm": "OP_DUP OP_HASH160 395c05685f412dcf2e494980909e059d4f46a296 OP_EQUALVERIFY OP_CHECKSIG",
            "hex": "76a914395c05685f412dcf2e494980909e059d4f46a29688ac",
            "reqSigs": 1,
            "type": "pubkeyhash",
            "addresses": [
              "LQTF1tQXgiK3Lar9ELPBYsb9hxooKpVMoG"
            ]
          }
        }
      ],
      "hex": "010000000368617117d0e8e3c09935cd723488e8af6581a85edad002c09473d4b13f730fb8190100006a473044022035da19717527e588197069e963e91c18a67d41ba864afd40d446c3bab4ce603202204118092b7d762ffa0726dc0049df3df594bb6acece9f3dac091ff5fee540c733012102dfd4f340e26b8bfddd2fe026ea197ef8c72192fcbacbc593f7d9080f65319cb0fefffffff101dde569fc500dc664433ac0c3c7601b0124b24e902a0635eeacf41972748b2b0000006b483045022100d59949f415e4acb63a6936179bca5da20f5c8512a85799483e44bcdbc4090051022045a50ca076b0004d3e2824bb493ac8017f5c91a2d531b07d0e0438c7a8effc5001210278379aeba9fb429271c34364b5dc72fcb00be28c5938799d2539fa7de53b1167feffffff1a454a330c522ce76e6783ab1b45737e1606ae53dc1d33ddddab911c7328f4b8270000006a47304402200541a09a5bb44665168e253be470ae617c6ea9fc6515ef1af6b129818852340a02206bed27591bf46069a4b28a95aa956e3485af8c3e58e5f53af7d9ea44b13ddeca012102adddb7614e7ab536579358a337e5f387cf5788ad2dd6ddcdd07ae2a5836f0f3afeffffff02f44c0f00000000001976a914499eec8f0e7abbfb0953f833393280a45eceefce88ac76386702000000001976a914395c05685f412dcf2e494980909e059d4f46a29688ac7abc1400"
    }, 
    {
      "txid": "7944060627b798a224c628962b1216aab2932c7269da98b5708c86b7cc1019d4",
      "hash": "7944060627b798a224c628962b1216aab2932c7269da98b5708c86b7cc1019d4",
      "version": 1,
      "size": 225,
      "vsize": 225,
      "locktime": 0,
      "vin": [
        {
          "txid": "4505ae976a4c0609736cbce5d6add5d5ad359b9cfdbcb4730ee1e38eb70f7849",
          "vout": 1,
          "scriptSig": {
            "asm": "304402202ba954ee88bff741fc0c9a1d4484274ad25ce707a77f3ab099e5747a22a7b765022023239c96941be2becf140e1aaa957d857ef8cbce7e6ece87c98bf7df0be48540[ALL] 03c54c598df7c5b043ca17bcd8e78b06d3d9230213f03e018d14e1361f2f6f9ceb",
            "hex": "47304402202ba954ee88bff741fc0c9a1d4484274ad25ce707a77f3ab099e5747a22a7b765022023239c96941be2becf140e1aaa957d857ef8cbce7e6ece87c98bf7df0be48540012103c54c598df7c5b043ca17bcd8e78b06d3d9230213f03e018d14e1361f2f6f9ceb"
          },
          "sequence": 4294967295
        }
      ],
      "vout": [
        {
          "value": 1.36742000,
          "n": 0,
          "scriptPubKey": {
            "asm": "OP_DUP OP_HASH160 cc77bb5c30c0adffacea382285113a0073b5ef91 OP_EQUALVERIFY OP_CHECKSIG",
            "hex": "76a914cc77bb5c30c0adffacea382285113a0073b5ef9188ac",
            "reqSigs": 1,
            "type": "pubkeyhash",
            "addresses": [
              "Lds5YTogeeYoMxoU2p9J5HaLDNowd3duos"
            ]
          }
        }, 
        {
          "value": 161.14315710,
          "n": 1,
          "scriptPubKey": {
            "asm": "OP_DUP OP_HASH160 018ef738b4d0ce2aacb23471331f6089628633c1 OP_EQUALVERIFY OP_CHECKSIG",
            "hex": "76a914018ef738b4d0ce2aacb23471331f6089628633c188ac",
            "reqSigs": 1,
            "type": "pubkeyhash",
            "addresses": [
              "LKNCCqU5HgwZh1KmFJKBM2rgsYu157iPi3"
            ]
          }
        }
      ],
      "hex": "010000000149780fb78ee3e10e73b4bcfd9c9b35add5d5add6e5bc6c7309064c6a97ae0545010000006a47304402202ba954ee88bff741fc0c9a1d4484274ad25ce707a77f3ab099e5747a22a7b765022023239c96941be2becf140e1aaa957d857ef8cbce7e6ece87c98bf7df0be48540012103c54c598df7c5b043ca17bcd8e78b06d3d9230213f03e018d14e1361f2f6f9cebffffffff0270842608000000001976a914cc77bb5c30c0adffacea382285113a0073b5ef9188acbef17cc0030000001976a914018ef738b4d0ce2aacb23471331f6089628633c188ac00000000"
    }, 
    {
      "txid": "bf12385b4eb3b41aaabc839d5a60932762c7361062bfe59119bf0b3e0e7b4c2f",
      "hash": "bf12385b4eb3b41aaabc839d5a60932762c7361062bfe59119bf0b3e0e7b4c2f",
      "version": 1,
      "size": 280,
      "vsize": 280,
      "locktime": 0,
      "vin": [
        {
          "txid": "744013076e927ad3dd666ceecb20126a5382086db10ad5e5c21d3a73e72e6889",
          "vout": 1,
          "scriptSig": {
            "asm": "3045022100fb7c0f2d664ec335d7d1af6f9a4656fb6196f9bcdbd6bfae7e095f7dd9b09cbb0220362e57e21bef11914006615162a59c1dfa7e3c37832b06f70682aeeafe2ba34d[ALL] 039183df657ecce4343d0d270c89c1a2c2ee6957f38d42ae4151e4888fee4166f8",
            "hex": "483045022100fb7c0f2d664ec335d7d1af6f9a4656fb6196f9bcdbd6bfae7e095f7dd9b09cbb0220362e57e21bef11914006615162a59c1dfa7e3c37832b06f70682aeeafe2ba34d0121039183df657ecce4343d0d270c89c1a2c2ee6957f38d42ae4151e4888fee4166f8"
          },
          "sequence": 4294967293
        }
      ],
      "vout": [
        {
          "value": 0.00000000,
          "n": 0,
          "scriptPubKey": {
            "asm": "OP_RETURN 4070726f6f662e6c696e6b4064656234336233356463633637306364666339353339373063363363313438366164623561396137393238663463316364303235383538393064633437636436",
            "hex": "6a4c4c4070726f6f662e6c696e6b4064656234336233356463633637306364666339353339373063363363313438366164623561396137393238663463316364303235383538393064633437636436",
            "type": "nulldata"
          }
        }, 
        {
          "value": 0.10804108,
          "n": 1,
          "scriptPubKey": {
            "asm": "OP_DUP OP_HASH160 69c116d8601702cdb1336d9f3f37cccdc5d4395e OP_EQUALVERIFY OP_CHECKSIG",
            "hex": "76a91469c116d8601702cdb1336d9f3f37cccdc5d4395e88ac",
            "reqSigs": 1,
            "type": "pubkeyhash",
            "addresses": [
              "LUs8XRwGTA1RixzDEdsWrWBsdLoxrnmcE5"
            ]
          }
        }
      ],
      "hex": "010000000189682ee7733a1dc2e5d50ab16d0882536a1220cbee6c66ddd37a926e07134074010000006b483045022100fb7c0f2d664ec335d7d1af6f9a4656fb6196f9bcdbd6bfae7e095f7dd9b09cbb0220362e57e21bef11914006615162a59c1dfa7e3c37832b06f70682aeeafe2ba34d0121039183df657ecce4343d0d270c89c1a2c2ee6957f38d42ae4151e4888fee4166f8fdffffff0200000000000000004f6a4c4c4070726f6f662e6c696e6b40646562343362333564636336373063646663393533393730633633633134383661646235613961373932386634633163643032353835383930646334376364368cdba400000000001976a91469c116d8601702cdb1336d9f3f37cccdc5d4395e88ac00000000"
    }, 
    {
      "txid": "ad2dc28dc504c5a4ff93d7bc5feac8c3147b555a020beb68cf69ea28dcdc0a20",
      "hash": "ad2dc28dc504c5a4ff93d7bc5feac8c3147b555a020beb68cf69ea28dcdc0a20",
      "version": 1,
      "size": 225,
      "vsize": 225,
      "locktime": 1358975,
      "vin": [
        {
          "txid": "0ef5c366b701e27da266e086224b26ca00ba0d11f6ccbab91233ab6a8d5f8947",
          "vout": 7,
          "scriptSig": {
            "asm": "30440220290fc72801d9c17651815ccb25ebef754312fc3e51d8c8fcf4d1d9792e9d8f1e022044995e1675b0d5b4d7975317ac1ba3d3530472e98fee78760a02b69179da69c0[ALL] 021d9f4619e1d607c30fc33e4f4e2cca0488e5b8168eddbd0c6d8a91701a0693fa",
            "hex": "4730440220290fc72801d9c17651815ccb25ebef754312fc3e51d8c8fcf4d1d9792e9d8f1e022044995e1675b0d5b4d7975317ac1ba3d3530472e98fee78760a02b69179da69c00121021d9f4619e1d607c30fc33e4f4e2cca0488e5b8168eddbd0c6d8a91701a0693fa"
          },
          "sequence": 4294967294
        }
      ],
      "vout": [
        {
          "value": 0.20429150,
          "n": 0,
          "scriptPubKey": {
            "asm": "OP_DUP OP_HASH160 1299d1ae117b098ff86991d11f9cd039be8e5082 OP_EQUALVERIFY OP_CHECKSIG",
            "hex": "76a9141299d1ae117b098ff86991d11f9cd039be8e508288ac",
            "reqSigs": 1,
            "type": "pubkeyhash",
            "addresses": [
              "LLvJhCf2Z32pKJn1LPGyG1E7o4nLppcjbv"
            ]
          }
        }, 
        {
          "value": 4.35628117,
          "n": 1,
          "scriptPubKey": {
            "asm": "OP_DUP OP_HASH160 7bb5510277107966017caf4c10fb6f48e9f35bcc OP_EQUALVERIFY OP_CHECKSIG",
            "hex": "76a9147bb5510277107966017caf4c10fb6f48e9f35bcc88ac",
            "reqSigs": 1,
            "type": "pubkeyhash",
            "addresses": [
              "LWW4attq3WthSNLDWYS9CTtW6t9RwLpmQW"
            ]
          }
        }
      ],
      "hex": "010000000147895f8d6aab3312b9baccf6110dba00ca264b2286e066a27de201b766c3f50e070000006a4730440220290fc72801d9c17651815ccb25ebef754312fc3e51d8c8fcf4d1d9792e9d8f1e022044995e1675b0d5b4d7975317ac1ba3d3530472e98fee78760a02b69179da69c00121021d9f4619e1d607c30fc33e4f4e2cca0488e5b8168eddbd0c6d8a91701a0693fafeffffff025eb93701000000001976a9141299d1ae117b098ff86991d11f9cd039be8e508288ac5528f719000000001976a9147bb5510277107966017caf4c10fb6f48e9f35bcc88ac7fbc1400"
    }, 
    {
      "txid": "8c1153b938423341f8fe09657c68a41f00b87ba472edf6b1142b1b74d8f7c26d",
      "hash": "8c1153b938423341f8fe09657c68a41f00b87ba472edf6b1142b1b74d8f7c26d",
      "version": 2,
      "size": 226,
      "vsize": 226,
      "locktime": 1358975,
      "vin": [
        {
          "txid": "a06306ceecbef81c31c45a04b4976005d53759a283946bcceb1622a74061f2f7",
          "vout": 0,
          "scriptSig": {
            "asm": "3045022100af7197e3f53cb9dbd5af94e680d7185db586f4d1cb7071c52332536991cd453302201c5d39597692e1ba3d314927d5246786b8152755cdecd8abcc7252d54f2d5574[ALL] 030335fed90da76a0bea3e8ef7d6dee2a655e4e773f02cebb73c39c0e4d3cee597",
            "hex": "483045022100af7197e3f53cb9dbd5af94e680d7185db586f4d1cb7071c52332536991cd453302201c5d39597692e1ba3d314927d5246786b8152755cdecd8abcc7252d54f2d55740121030335fed90da76a0bea3e8ef7d6dee2a655e4e773f02cebb73c39c0e4d3cee597"
          },
          "sequence": 4294967294
        }
      ],
      "vout": [
        {
          "value": 0.01139579,
          "n": 0,
          "scriptPubKey": {
            "asm": "OP_DUP OP_HASH160 d883a5afdf29656ef1c6d64fb28f5293cf89b354 OP_EQUALVERIFY OP_CHECKSIG",
            "hex": "76a914d883a5afdf29656ef1c6d64fb28f5293cf89b35488ac",
            "reqSigs": 1,
            "type": "pubkeyhash",
            "addresses": [
              "Lexmvf5ArwNFx9WwB3zTE5VVjgLZXEFNUi"
            ]
          }
        }, 
        {
          "value": 0.19000000,
          "n": 1,
          "scriptPubKey": {
            "asm": "OP_DUP OP_HASH160 673a6f417149ff893b3021f295feb8d49ea281d5 OP_EQUALVERIFY OP_CHECKSIG",
            "hex": "76a914673a6f417149ff893b3021f295feb8d49ea281d588ac",
            "reqSigs": 1,
            "type": "pubkeyhash",
            "addresses": [
              "LUdms5VKKMBCQ3PKqQwjed8gc61JE8eg3B"
            ]
          }
        }
      ],
      "hex": "0200000001f7f26140a72216ebcc6b9483a25937d5056097b4045ac4311cf8beecce0663a0000000006b483045022100af7197e3f53cb9dbd5af94e680d7185db586f4d1cb7071c52332536991cd453302201c5d39597692e1ba3d314927d5246786b8152755cdecd8abcc7252d54f2d55740121030335fed90da76a0bea3e8ef7d6dee2a655e4e773f02cebb73c39c0e4d3cee597feffffff027b631100000000001976a914d883a5afdf29656ef1c6d64fb28f5293cf89b35488acc0ea2101000000001976a914673a6f417149ff893b3021f295feb8d49ea281d588ac7fbc1400"
    }, 
    {
      "txid": "1783edc71f5645ee7f7073c962e288ed124a38c1db34345267838d67c8200bd2",
      "hash": "1783edc71f5645ee7f7073c962e288ed124a38c1db34345267838d67c8200bd2",
      "version": 1,
      "size": 226,
      "vsize": 226,
      "locktime": 0,
      "vin": [
        {
          "txid": "2ef6c5b354cda9008a73bbc94122105f404e35963d234cb4b4390d820c41f16d",
          "vout": 0,
          "scriptSig": {
            "asm": "3045022100b7ccd5450fb54d6ff1fd09b4948263083787735910199b46097e205b0018d13602203cd3c5d095e9597db00ab4c4ec39538f40b8769c553386477f1d919b6e283383[ALL] 03d56bfbb195dfc9e0c19c3b477d9615ae92f16fd0f1703a1dda9850256953c636",
            "hex": "483045022100b7ccd5450fb54d6ff1fd09b4948263083787735910199b46097e205b0018d13602203cd3c5d095e9597db00ab4c4ec39538f40b8769c553386477f1d919b6e283383012103d56bfbb195dfc9e0c19c3b477d9615ae92f16fd0f1703a1dda9850256953c636"
          },
          "sequence": 4294967295
        }
      ],
      "vout": [
        {
          "value": 0.75496600,
          "n": 0,
          "scriptPubKey": {
            "asm": "OP_DUP OP_HASH160 4a0ba9b38c9d29c1d768a04609bca7cd678200bb OP_EQUALVERIFY OP_CHECKSIG",
            "hex": "76a9144a0ba9b38c9d29c1d768a04609bca7cd678200bb88ac",
            "reqSigs": 1,
            "type": "pubkeyhash",
            "addresses": [
              "LRyUEm5BkuksG7SCguNUcwma6EjeZXFE3o"
            ]
          }
        }, 
        {
          "value": 1.12073000,
          "n": 1,
          "scriptPubKey": {
            "asm": "OP_DUP OP_HASH160 3f09fb7a701785ea5d350bb3f8db7a7edd3c97ab OP_EQUALVERIFY OP_CHECKSIG",
            "hex": "76a9143f09fb7a701785ea5d350bb3f8db7a7edd3c97ab88ac",
            "reqSigs": 1,
            "type": "pubkeyhash",
            "addresses": [
              "LQyGntBZ48z8EtwjVDZHWoYXapA1d81pmr"
            ]
          }
        }
      ],
      "hex": "01000000016df1410c820d39b4b44c233d96354e405f102241c9bb738a00a9cd54b3c5f62e000000006b483045022100b7ccd5450fb54d6ff1fd09b4948263083787735910199b46097e205b0018d13602203cd3c5d095e9597db00ab4c4ec39538f40b8769c553386477f1d919b6e283383012103d56bfbb195dfc9e0c19c3b477d9615ae92f16fd0f1703a1dda9850256953c636ffffffff0298fc7f04000000001976a9144a0ba9b38c9d29c1d768a04609bca7cd678200bb88ac2819ae06000000001976a9143f09fb7a701785ea5d350bb3f8db7a7edd3c97ab88ac00000000"
    }
  ],
  "time": 1517220046,
  "mediantime": 1517219457,
  "nonce": 4066692948,
  "bits": "1a042eae",
  "difficulty": 4011378.762614286,
  "chainwork": "0000000000000000000000000000000000000000000000339345d1b8eb5ec286",
  "previousblockhash": "25344b740b3ecbd013384092a732a1df965ab59b7f222665588523e7a7312216",
  "nextblockhash": "369a353c48b5044586e31fab27fe876988f76a41857eb5ab27d942ccafda8503"
}
