{
  "hash": "f90d9541753c411bf8cd1bc3fb9fb4830ec680bf9dbd0056b79a2574cdc9b0d0",
  "confirmations": 2237,
  "strippedsize": 253,
  "size": 253,
  "weight": 1012,
  "height": 1358757,
  "version": 536870912,
  "versionHex": "20000000",
  "merkleroot": "01e47d46c14abd44469ef55441778bb822dff5c24b58c48a8e314c0acecf08db",
  "tx": [
    {
      "txid": "01e47d46c14abd44469ef55441778bb822dff5c24b58c48a8e314c0acecf08db",
      "hash": "01e47d46c14abd44469ef55441778bb822dff5c24b58c48a8e314c0acecf08db",
      "version": 1,
      "size": 172,
      "vsize": 172,
      "locktime": 0,
      "vin": [
        {
          "coinbase": "03a5bb141a4d696e656420627920416e74506f6f6c20626a341e205a6e7486fabe6d6d639a4ce0a84e083ef80cb5256c1d19ee39947e294fd047485310320e5eacd43004000000000000003e100000000000001f000000",
          "sequence": 4294967295
        }
      ],
      "vout": [
        {
          "value": 25.00000000,
          "n": 0,
          "scriptPubKey": {
            "asm": "OP_DUP OP_HASH160 0ff3ccc5e8be88afe24b5d634e5852d474dbdff1 OP_EQUALVERIFY OP_CHECKSIG",
            "hex": "76a9140ff3ccc5e8be88afe24b5d634e5852d474dbdff188ac",
            "reqSigs": 1,
            "type": "pubkeyhash",
            "addresses": [
              "LLgJTbzZMsRTCUF1NtvvL9SR1a4pVieW89"
            ]
          }
        }
      ],
      "hex": "01000000010000000000000000000000000000000000000000000000000000000000000000ffffffff5703a5bb141a4d696e656420627920416e74506f6f6c20626a341e205a6e7486fabe6d6d639a4ce0a84e083ef80cb5256c1d19ee39947e294fd047485310320e5eacd43004000000000000003e100000000000001f000000ffffffff0100f90295000000001976a9140ff3ccc5e8be88afe24b5d634e5852d474dbdff188ac00000000"
    }
  ],
  "time": 1517188230,
  "mediantime": 1517187349,
  "nonce": 2088581046,
  "bits": "1a047f14",
  "difficulty": 3731199.183374282,
  "chainwork": "0000000000000000000000000000000000000000000000335edda0fb406289dc",
  "previousblockhash": "f2d28ea2a69577d8b495f613a85e049ebf4d4ac0a44e70f126d08e8a9ceece58",
  "nextblockhash": "eb623df4fa7e87b08efcc60290163adadbfcfc9e8c0c02e9b14dd54056605e7b"
}
