{
  "hash": "f912bbdfa6ae3a766b02a2cb9579c510c5d68f425154ba150fb9b551a0511e5f",
  "confirmations": 1660,
  "strippedsize": 234,
  "size": 234,
  "weight": 936,
  "height": 1359334,
  "version": 536870912,
  "versionHex": "20000000",
  "merkleroot": "24c932f093d6f99fad1f24dbd35cad23592ee5e946cb613899e5a4d5d784e115",
  "tx": [
    {
      "txid": "24c932f093d6f99fad1f24dbd35cad23592ee5e946cb613899e5a4d5d784e115",
      "hash": "24c932f093d6f99fad1f24dbd35cad23592ee5e946cb613899e5a4d5d784e115",
      "version": 1,
      "size": 153,
      "vsize": 153,
      "locktime": 0,
      "vin": [
        {
          "coinbase": "03e6bd14045a6faff32cfabe6d6d786aed73e7d39b92251d7a22815204c609f2eb504099e35c77719188d2b79e894000000000000000042f4c502f082200470a02000000",
          "sequence": 4294967295
        }
      ],
      "vout": [
        {
          "value": 25.00000000,
          "n": 0,
          "scriptPubKey": {
            "asm": "OP_DUP OP_HASH160 57757ed2ecf2052ff3126c397aca7defb9ca2cec OP_EQUALVERIFY OP_CHECKSIG",
            "hex": "76a91457757ed2ecf2052ff3126c397aca7defb9ca2cec88ac",
            "reqSigs": 1,
            "type": "pubkeyhash",
            "addresses": [
              "LTCPodGk5FwcJaRzH9yKnwicxzFUbxp6tN"
            ]
          }
        }
      ],
      "hex": "01000000010000000000000000000000000000000000000000000000000000000000000000ffffffff4403e6bd14045a6faff32cfabe6d6d786aed73e7d39b92251d7a22815204c609f2eb504099e35c77719188d2b79e894000000000000000042f4c502f082200470a02000000ffffffff0100f90295000000001976a91457757ed2ecf2052ff3126c397aca7defb9ca2cec88ac00000000"
    }
  ],
  "time": 1517268979,
  "mediantime": 1517268659,
  "nonce": 2193249409,
  "bits": "1a042eae",
  "difficulty": 4011378.762614286,
  "chainwork": "000000000000000000000000000000000000000000000033e8647a6f11b27b4e",
  "previousblockhash": "6d9ac29426700350bffc6d9a7a3d1bda00532d6c37006a52720c44a868b4772b",
  "nextblockhash": "d636398b55d49493b2cb524f1604e5b84616712f075142c3402000f454e37535"
}
