{
  "hash": "f9609e7eafe31bcb497e67127d1f728fc4546a2535bfab065e5e898c3ae54d62",
  "confirmations": 1377,
  "strippedsize": 253,
  "size": 253,
  "weight": 1012,
  "height": 1359617,
  "version": 536870912,
  "versionHex": "20000000",
  "merkleroot": "a39301f501c42c1d954a8b8a34afbee3fb396f32743f6fee72d56bad4e4df12b",
  "tx": [
    {
      "txid": "a39301f501c42c1d954a8b8a34afbee3fb396f32743f6fee72d56bad4e4df12b",
      "hash": "a39301f501c42c1d954a8b8a34afbee3fb396f32743f6fee72d56bad4e4df12b",
      "version": 1,
      "size": 172,
      "vsize": 172,
      "locktime": 0,
      "vin": [
        {
          "coinbase": "0301bf141a4d696e656420627920416e74506f6f6c20626a341e205a70488afabe6d6d3f2ca681418e2f9f4ab0bd48a654898716126ad99345d0be677307cfc2cfc8f804000000000000009e2e0000000000000f000000",
          "sequence": 4294967295
        }
      ],
      "vout": [
        {
          "value": 25.00000000,
          "n": 0,
          "scriptPubKey": {
            "asm": "OP_DUP OP_HASH160 0ff3ccc5e8be88afe24b5d634e5852d474dbdff1 OP_EQUALVERIFY OP_CHECKSIG",
            "hex": "76a9140ff3ccc5e8be88afe24b5d634e5852d474dbdff188ac",
            "reqSigs": 1,
            "type": "pubkeyhash",
            "addresses": [
              "LLgJTbzZMsRTCUF1NtvvL9SR1a4pVieW89"
            ]
          }
        }
      ],
      "hex": "01000000010000000000000000000000000000000000000000000000000000000000000000ffffffff570301bf141a4d696e656420627920416e74506f6f6c20626a341e205a70488afabe6d6d3f2ca681418e2f9f4ab0bd48a654898716126ad99345d0be677307cfc2cfc8f804000000000000009e2e0000000000000f000000ffffffff0100f90295000000001976a9140ff3ccc5e8be88afe24b5d634e5852d474dbdff188ac00000000"
    }
  ],
  "time": 1517308042,
  "mediantime": 1517307325,
  "nonce": 1047914370,
  "bits": "1a042eae",
  "difficulty": 4011378.762614286,
  "chainwork": "0000000000000000000000000000000000000000000000342c0ed3f73d1bde04",
  "previousblockhash": "880a5b98670854c46f771429fc16f6db22588ad19af7b7949230b77abae820ad",
  "nextblockhash": "f17d1fbbdfd01f3acf1d41659685f49ed4facc9162d4c4a313fb50fdbf67fae6"
}
