{
  "hash": "fad9dd39c0e8c191a487db6bb24116e755681693819579c7420fb23cd802fc89",
  "confirmations": 3210,
  "strippedsize": 3731,
  "size": 3767,
  "weight": 14960,
  "height": 1357785,
  "version": 536870912,
  "versionHex": "20000000",
  "merkleroot": "8874582c26033b1c6b4c95b23379286b10d1b07ff3840c58863a61e838207eae",
  "tx": [
    {
      "txid": "fa9edea31add375f7cca31fbbb539c1f2671f1cd8782e414bea8578cc59b9b18",
      "hash": "20bf994d2505750a181be2694794b8f9ae8af0f7ed17f760d7c4061c8280f447",
      "version": 1,
      "size": 236,
      "vsize": 209,
      "locktime": 0,
      "vin": [
        {
          "coinbase": "03d9b714045a6c4ead2cfabe6d6d24b5cc14086e48fcfe74316cdadffc6aa9732287f7c27d5be6b4c9cc585849954000000000000000042f4c502f085800695b0c000000",
          "sequence": 4294967295
        }
      ],
      "vout": [
        {
          "value": 25.02328399,
          "n": 0,
          "scriptPubKey": {
            "asm": "OP_DUP OP_HASH160 57757ed2ecf2052ff3126c397aca7defb9ca2cec OP_EQUALVERIFY OP_CHECKSIG",
            "hex": "76a91457757ed2ecf2052ff3126c397aca7defb9ca2cec88ac",
            "reqSigs": 1,
            "type": "pubkeyhash",
            "addresses": [
              "LTCPodGk5FwcJaRzH9yKnwicxzFUbxp6tN"
            ]
          }
        }, 
        {
          "value": 0.00000000,
          "n": 1,
          "scriptPubKey": {
            "asm": "OP_RETURN aa21a9edeac9538b6ee790dd82658969653204e67ac95b0380ba1b5d78244a6c3eb6c6a9",
            "hex": "6a24aa21a9edeac9538b6ee790dd82658969653204e67ac95b0380ba1b5d78244a6c3eb6c6a9",
            "type": "nulldata"
          }
        }
      ],
      "hex": "010000000001010000000000000000000000000000000000000000000000000000000000000000ffffffff4403d9b714045a6c4ead2cfabe6d6d24b5cc14086e48fcfe74316cdadffc6aa9732287f7c27d5be6b4c9cc585849954000000000000000042f4c502f085800695b0c000000ffffffff024f802695000000001976a91457757ed2ecf2052ff3126c397aca7defb9ca2cec88ac0000000000000000266a24aa21a9edeac9538b6ee790dd82658969653204e67ac95b0380ba1b5d78244a6c3eb6c6a90120000000000000000000000000000000000000000000000000000000000000000000000000"
    }, 
    {
      "txid": "7ba1d0d9080ad93799491ce53e45ee3f1767ea9a54195d2ce3d8825c5a96d650",
      "hash": "7ba1d0d9080ad93799491ce53e45ee3f1767ea9a54195d2ce3d8825c5a96d650",
      "version": 1,
      "size": 2144,
      "vsize": 2144,
      "locktime": 0,
      "vin": [
        {
          "txid": "09e95b484ba3c9b9bc4e7c88bf7e927261a034f6c6c63297736d9689455c9d45",
          "vout": 1,
          "scriptSig": {
            "asm": "3044022048399d41687866955becb4c86074c759101a30760c58bf602aee43f8b4f7655e02202ee3b0bafcdd87c3d4b8563e76469aba9b6011b96a4650363d498e0e08e13c9d[ALL] 034822750acbab86e9e356afcd948a8e2f7c42a4e356fc8232df5d9c661772fe37",
            "hex": "473044022048399d41687866955becb4c86074c759101a30760c58bf602aee43f8b4f7655e02202ee3b0bafcdd87c3d4b8563e76469aba9b6011b96a4650363d498e0e08e13c9d0121034822750acbab86e9e356afcd948a8e2f7c42a4e356fc8232df5d9c661772fe37"
          },
          "sequence": 4294967295
        }, 
        {
          "txid": "49e31201273d9e972ce89efd4e6950aa5cc35115ecfce37cc54610bbabb3ac88",
          "vout": 0,
          "scriptSig": {
            "asm": "304502210087520ba65affe1b0b2bc47ccee429d77345a32ccd589d406abb3166c606c8110022003abdba95ab5092af6a2d577008eb117122e3372c6aa3bd2085ac8a5dee96aef[ALL] 034822750acbab86e9e356afcd948a8e2f7c42a4e356fc8232df5d9c661772fe37",
            "hex": "48304502210087520ba65affe1b0b2bc47ccee429d77345a32ccd589d406abb3166c606c8110022003abdba95ab5092af6a2d577008eb117122e3372c6aa3bd2085ac8a5dee96aef0121034822750acbab86e9e356afcd948a8e2f7c42a4e356fc8232df5d9c661772fe37"
          },
          "sequence": 4294967295
        }, 
        {
          "txid": "39718833b5e92fb6bf89f65a941380ad2cfab70d19d19de483f282ed5b588391",
          "vout": 0,
          "scriptSig": {
            "asm": "3045022100d9c62c68b1733665fe21fe2f081fdcbb1a7723c0fda0d5b4fdfd23fbfc214b5102200a7431041f126c92c1d7083863a673520426988e18643603b4fe1407a3c17c6f[ALL] 034822750acbab86e9e356afcd948a8e2f7c42a4e356fc8232df5d9c661772fe37",
            "hex": "483045022100d9c62c68b1733665fe21fe2f081fdcbb1a7723c0fda0d5b4fdfd23fbfc214b5102200a7431041f126c92c1d7083863a673520426988e18643603b4fe1407a3c17c6f0121034822750acbab86e9e356afcd948a8e2f7c42a4e356fc8232df5d9c661772fe37"
          },
          "sequence": 4294967295
        }, 
        {
          "txid": "047d0dd8632af08c6be75b7e5213519123aa2fb22762407670312aea77ba98c4",
          "vout": 0,
          "scriptSig": {
            "asm": "304402200fd8a175b015cf69849215d01d3b289dacb61a1342b59badd809851d3c652125022064053b0fcaafafa2b93bcce0d9a964b09ccdb240b5891de5ccd45e6001500c84[ALL] 034822750acbab86e9e356afcd948a8e2f7c42a4e356fc8232df5d9c661772fe37",
            "hex": "47304402200fd8a175b015cf69849215d01d3b289dacb61a1342b59badd809851d3c652125022064053b0fcaafafa2b93bcce0d9a964b09ccdb240b5891de5ccd45e6001500c840121034822750acbab86e9e356afcd948a8e2f7c42a4e356fc8232df5d9c661772fe37"
          },
          "sequence": 4294967295
        }, 
        {
          "txid": "2d9d600e129ca40a30c56095076ea38083b55fbc641a7cc075ccf9b4a608b385",
          "vout": 1,
          "scriptSig": {
            "asm": "3045022100fea202671d8d34b7ee916205bd53c829e1c7431a9a09a1b92e25ed905b0b411d02207c01bcd3993297c5754eef809b2772c1d2f6ce0138c260b3b66cb5a9381b0f55[ALL] 034822750acbab86e9e356afcd948a8e2f7c42a4e356fc8232df5d9c661772fe37",
            "hex": "483045022100fea202671d8d34b7ee916205bd53c829e1c7431a9a09a1b92e25ed905b0b411d02207c01bcd3993297c5754eef809b2772c1d2f6ce0138c260b3b66cb5a9381b0f550121034822750acbab86e9e356afcd948a8e2f7c42a4e356fc8232df5d9c661772fe37"
          },
          "sequence": 4294967295
        }, 
        {
          "txid": "8519eddc80c9da5f36c2edcdd6c80337aaabe836d665086a11b8782667c95631",
          "vout": 0,
          "scriptSig": {
            "asm": "304402206b297d5b7f61c1dc5dd3b4e2863477f77008fbc522cf64e0bb2897ecfa39ec80022062ef46fe46edd558e2507142d5593923844980ea82cd372ec6d53aff9f23fed2[ALL] 034822750acbab86e9e356afcd948a8e2f7c42a4e356fc8232df5d9c661772fe37",
            "hex": "47304402206b297d5b7f61c1dc5dd3b4e2863477f77008fbc522cf64e0bb2897ecfa39ec80022062ef46fe46edd558e2507142d5593923844980ea82cd372ec6d53aff9f23fed20121034822750acbab86e9e356afcd948a8e2f7c42a4e356fc8232df5d9c661772fe37"
          },
          "sequence": 4294967295
        }, 
        {
          "txid": "628d07270dfe646005d6799c82eaf8ccd3ad183c03cde7eba1fa30c1ba164fcd",
          "vout": 1,
          "scriptSig": {
            "asm": "304402206015f59f8d9bde9290bab5920967d82400fe3b45a13d69e593e80c2e130bf3dd02206e548db41a88f2fe174f839426cab9c338d9b9606fd4b8f94f2936393e9e4e79[ALL] 034822750acbab86e9e356afcd948a8e2f7c42a4e356fc8232df5d9c661772fe37",
            "hex": "47304402206015f59f8d9bde9290bab5920967d82400fe3b45a13d69e593e80c2e130bf3dd02206e548db41a88f2fe174f839426cab9c338d9b9606fd4b8f94f2936393e9e4e790121034822750acbab86e9e356afcd948a8e2f7c42a4e356fc8232df5d9c661772fe37"
          },
          "sequence": 4294967295
        }, 
        {
          "txid": "72596544f684c04c91dcbfe4fb82bf1ea4854b92d3c6da4b3b8e4fadf838349c",
          "vout": 0,
          "scriptSig": {
            "asm": "30450221008b980d70af2686aec0dc47beb46a17593f792b07255f1b28ddcc781a413f246d02202049290a8b8d7d983d1bf4db785280f5148c48a02653f98314dd56e45cd244d0[ALL] 034822750acbab86e9e356afcd948a8e2f7c42a4e356fc8232df5d9c661772fe37",
            "hex": "4830450221008b980d70af2686aec0dc47beb46a17593f792b07255f1b28ddcc781a413f246d02202049290a8b8d7d983d1bf4db785280f5148c48a02653f98314dd56e45cd244d00121034822750acbab86e9e356afcd948a8e2f7c42a4e356fc8232df5d9c661772fe37"
          },
          "sequence": 4294967295
        }, 
        {
          "txid": "536d6de9645cc93ece830e6330e16c8a75ad3d8b20322c18b7263346c56e44c8",
          "vout": 0,
          "scriptSig": {
            "asm": "3045022100a9f45d7f857385d893719294367fa582a79d4c0224bab62e7d268b1b20541aca022009391441aea40ec2e40705c52136b90974c5a2d593ef293938a3ceabd7227b50[ALL] 034822750acbab86e9e356afcd948a8e2f7c42a4e356fc8232df5d9c661772fe37",
            "hex": "483045022100a9f45d7f857385d893719294367fa582a79d4c0224bab62e7d268b1b20541aca022009391441aea40ec2e40705c52136b90974c5a2d593ef293938a3ceabd7227b500121034822750acbab86e9e356afcd948a8e2f7c42a4e356fc8232df5d9c661772fe37"
          },
          "sequence": 4294967295
        }, 
        {
          "txid": "1d39fca25b953aae784999b581fa944c77488568d3682b36b03ed5778ce03823",
          "vout": 1,
          "scriptSig": {
            "asm": "30450221009b896d214d67cc33590180d554501d9de67045bd8216d315021e5b7c0949a36f02207bacffbdb94262dd9173dfeb5742ad4f39ce8579666d8dfebc3781f24b347404[ALL] 034822750acbab86e9e356afcd948a8e2f7c42a4e356fc8232df5d9c661772fe37",
            "hex": "4830450221009b896d214d67cc33590180d554501d9de67045bd8216d315021e5b7c0949a36f02207bacffbdb94262dd9173dfeb5742ad4f39ce8579666d8dfebc3781f24b3474040121034822750acbab86e9e356afcd948a8e2f7c42a4e356fc8232df5d9c661772fe37"
          },
          "sequence": 4294967295
        }, 
        {
          "txid": "6dc641e2e7af35866eb3c6f133813ff560e285ac476b58121e872853f4be2d12",
          "vout": 0,
          "scriptSig": {
            "asm": "304402203a6331f8816247472f1407984c88febf26521c09b4d9afefaae45207747c238002204632efb8df28bcaf6baf8815db3c5d59b954dfa62b21d773a81fd3b252642cb7[ALL] 034822750acbab86e9e356afcd948a8e2f7c42a4e356fc8232df5d9c661772fe37",
            "hex": "47304402203a6331f8816247472f1407984c88febf26521c09b4d9afefaae45207747c238002204632efb8df28bcaf6baf8815db3c5d59b954dfa62b21d773a81fd3b252642cb70121034822750acbab86e9e356afcd948a8e2f7c42a4e356fc8232df5d9c661772fe37"
          },
          "sequence": 4294967295
        }, 
        {
          "txid": "b1c6a7fc81ec0e822eaa7e98d75a8281f2ecf985f8b804fe59df76ff8131eeb4",
          "vout": 1,
          "scriptSig": {
            "asm": "30440220200f0d1de1b6b7ce0153ad62fd151f5d17cbb5cc5205458cc63d0e6f8cd01e8302200cc8040cf1fc4b63ff8aaa18b3bc895ff44a6f622c292ba75320993df2cbb8ca[ALL] 03156f7002b39b30173df8a75f379cc44706ca14a8e1e32ee29198d908643495b2",
            "hex": "4730440220200f0d1de1b6b7ce0153ad62fd151f5d17cbb5cc5205458cc63d0e6f8cd01e8302200cc8040cf1fc4b63ff8aaa18b3bc895ff44a6f622c292ba75320993df2cbb8ca012103156f7002b39b30173df8a75f379cc44706ca14a8e1e32ee29198d908643495b2"
          },
          "sequence": 4294967295
        }, 
        {
          "txid": "ee0be1ef8bc6a4e3ebb968e43df7a4614c3d48b754f8b822730f40a6c9665f2c",
          "vout": 1,
          "scriptSig": {
            "asm": "3045022100b26ed9f4e4d4cebc9124b65752b4376b96ed52255e70b23a92b55044dadfc2b50220203b05d09d4329995d064328ba010a5947a89a23e3b94cfe7d4ba13f140ad5a0[ALL] 03c086a52e50c3e66ca35d1edf7a1569c18fab559ce1a84148ad689efbc376c05a",
            "hex": "483045022100b26ed9f4e4d4cebc9124b65752b4376b96ed52255e70b23a92b55044dadfc2b50220203b05d09d4329995d064328ba010a5947a89a23e3b94cfe7d4ba13f140ad5a0012103c086a52e50c3e66ca35d1edf7a1569c18fab559ce1a84148ad689efbc376c05a"
          },
          "sequence": 4294967295
        }, 
        {
          "txid": "8c6a6a9936447afc70946cb2b80ccf1d98852447b4e8664740f45669b2394c0d",
          "vout": 1,
          "scriptSig": {
            "asm": "30450221008a7dc3a14c289138b409a78e348863992dfbadbaf12945cf6f5a029843eec20602201394b6166cf74d0fa41bf497f445043c5145564de771288018d7aec7c6c717a9[ALL] 03557ecc61b4eb1d6b8948782475563c6fbb0410c01d0a3f46732bd85bbe5ef902",
            "hex": "4830450221008a7dc3a14c289138b409a78e348863992dfbadbaf12945cf6f5a029843eec20602201394b6166cf74d0fa41bf497f445043c5145564de771288018d7aec7c6c717a9012103557ecc61b4eb1d6b8948782475563c6fbb0410c01d0a3f46732bd85bbe5ef902"
          },
          "sequence": 4294967295
        }
      ],
      "vout": [
        {
          "value": 387.81163435,
          "n": 0,
          "scriptPubKey": {
            "asm": "OP_DUP OP_HASH160 977604e77146078737db2ff326dc4fc1cf66feca OP_EQUALVERIFY OP_CHECKSIG",
            "hex": "76a914977604e77146078737db2ff326dc4fc1cf66feca88ac",
            "reqSigs": 1,
            "type": "pubkeyhash",
            "addresses": [
              "LZ2ogJ1ootahpjxSrrmEpbLDm4Yp5JnLdB"
            ]
          }
        }, 
        {
          "value": 5.46950407,
          "n": 1,
          "scriptPubKey": {
            "asm": "OP_DUP OP_HASH160 6ac1184a1db5cb87d071aa5047d28ddc9b6f312d OP_EQUALVERIFY OP_CHECKSIG",
            "hex": "76a9146ac1184a1db5cb87d071aa5047d28ddc9b6f312d88ac",
            "reqSigs": 1,
            "type": "pubkeyhash",
            "addresses": [
              "LUxRD1oGYP6dXu72Q61wve1HGrnTwjNbYk"
            ]
          }
        }
      ],
      "hex": "010000000e459d5c4589966d739732c6c6f634a06172927ebf887c4ebcb9c9a34b485be909010000006a473044022048399d41687866955becb4c86074c759101a30760c58bf602aee43f8b4f7655e02202ee3b0bafcdd87c3d4b8563e76469aba9b6011b96a4650363d498e0e08e13c9d0121034822750acbab86e9e356afcd948a8e2f7c42a4e356fc8232df5d9c661772fe37ffffffff88acb3abbb1046c57ce3fcec1551c35caa50694efd9ee82c979e3d270112e349000000006b48304502210087520ba65affe1b0b2bc47ccee429d77345a32ccd589d406abb3166c606c8110022003abdba95ab5092af6a2d577008eb117122e3372c6aa3bd2085ac8a5dee96aef0121034822750acbab86e9e356afcd948a8e2f7c42a4e356fc8232df5d9c661772fe37ffffffff9183585bed82f283e49dd1190db7fa2cad8013945af689bfb62fe9b533887139000000006b483045022100d9c62c68b1733665fe21fe2f081fdcbb1a7723c0fda0d5b4fdfd23fbfc214b5102200a7431041f126c92c1d7083863a673520426988e18643603b4fe1407a3c17c6f0121034822750acbab86e9e356afcd948a8e2f7c42a4e356fc8232df5d9c661772fe37ffffffffc498ba77ea2a317076406227b22faa23915113527e5be76b8cf02a63d80d7d04000000006a47304402200fd8a175b015cf69849215d01d3b289dacb61a1342b59badd809851d3c652125022064053b0fcaafafa2b93bcce0d9a964b09ccdb240b5891de5ccd45e6001500c840121034822750acbab86e9e356afcd948a8e2f7c42a4e356fc8232df5d9c661772fe37ffffffff85b308a6b4f9cc75c07c1a64bc5fb58380a36e079560c5300aa49c120e609d2d010000006b483045022100fea202671d8d34b7ee916205bd53c829e1c7431a9a09a1b92e25ed905b0b411d02207c01bcd3993297c5754eef809b2772c1d2f6ce0138c260b3b66cb5a9381b0f550121034822750acbab86e9e356afcd948a8e2f7c42a4e356fc8232df5d9c661772fe37ffffffff3156c9672678b8116a0865d636e8abaa3703c8d6cdedc2365fdac980dced1985000000006a47304402206b297d5b7f61c1dc5dd3b4e2863477f77008fbc522cf64e0bb2897ecfa39ec80022062ef46fe46edd558e2507142d5593923844980ea82cd372ec6d53aff9f23fed20121034822750acbab86e9e356afcd948a8e2f7c42a4e356fc8232df5d9c661772fe37ffffffffcd4f16bac130faa1ebe7cd033c18add3ccf8ea829c79d6056064fe0d27078d62010000006a47304402206015f59f8d9bde9290bab5920967d82400fe3b45a13d69e593e80c2e130bf3dd02206e548db41a88f2fe174f839426cab9c338d9b9606fd4b8f94f2936393e9e4e790121034822750acbab86e9e356afcd948a8e2f7c42a4e356fc8232df5d9c661772fe37ffffffff9c3438f8ad4f8e3b4bdac6d3924b85a41ebf82fbe4bfdc914cc084f644655972000000006b4830450221008b980d70af2686aec0dc47beb46a17593f792b07255f1b28ddcc781a413f246d02202049290a8b8d7d983d1bf4db785280f5148c48a02653f98314dd56e45cd244d00121034822750acbab86e9e356afcd948a8e2f7c42a4e356fc8232df5d9c661772fe37ffffffffc8446ec5463326b7182c32208b3dad758a6ce130630e83ce3ec95c64e96d6d53000000006b483045022100a9f45d7f857385d893719294367fa582a79d4c0224bab62e7d268b1b20541aca022009391441aea40ec2e40705c52136b90974c5a2d593ef293938a3ceabd7227b500121034822750acbab86e9e356afcd948a8e2f7c42a4e356fc8232df5d9c661772fe37ffffffff2338e08c77d53eb0362b68d3688548774c94fa81b5994978ae3a955ba2fc391d010000006b4830450221009b896d214d67cc33590180d554501d9de67045bd8216d315021e5b7c0949a36f02207bacffbdb94262dd9173dfeb5742ad4f39ce8579666d8dfebc3781f24b3474040121034822750acbab86e9e356afcd948a8e2f7c42a4e356fc8232df5d9c661772fe37ffffffff122dbef45328871e12586b47ac85e260f53f8133f1c6b36e8635afe7e241c66d000000006a47304402203a6331f8816247472f1407984c88febf26521c09b4d9afefaae45207747c238002204632efb8df28bcaf6baf8815db3c5d59b954dfa62b21d773a81fd3b252642cb70121034822750acbab86e9e356afcd948a8e2f7c42a4e356fc8232df5d9c661772fe37ffffffffb4ee3181ff76df59fe04b8f885f9ecf281825ad7987eaa2e820eec81fca7c6b1010000006a4730440220200f0d1de1b6b7ce0153ad62fd151f5d17cbb5cc5205458cc63d0e6f8cd01e8302200cc8040cf1fc4b63ff8aaa18b3bc895ff44a6f622c292ba75320993df2cbb8ca012103156f7002b39b30173df8a75f379cc44706ca14a8e1e32ee29198d908643495b2ffffffff2c5f66c9a6400f7322b8f854b7483d4c61a4f73de468b9ebe3a4c68befe10bee010000006b483045022100b26ed9f4e4d4cebc9124b65752b4376b96ed52255e70b23a92b55044dadfc2b50220203b05d09d4329995d064328ba010a5947a89a23e3b94cfe7d4ba13f140ad5a0012103c086a52e50c3e66ca35d1edf7a1569c18fab559ce1a84148ad689efbc376c05affffffff0d4c39b26956f4404766e8b4472485981dcf0cb8b26c9470fc7a4436996a6a8c010000006b4830450221008a7dc3a14c289138b409a78e348863992dfbadbaf12945cf6f5a029843eec20602201394b6166cf74d0fa41bf497f445043c5145564de771288018d7aec7c6c717a9012103557ecc61b4eb1d6b8948782475563c6fbb0410c01d0a3f46732bd85bbe5ef902ffffffff02ab978907090000001976a914977604e77146078737db2ff326dc4fc1cf66feca88ac07cd9920000000001976a9146ac1184a1db5cb87d071aa5047d28ddc9b6f312d88ac00000000"
    }, 
    {
      "txid": "0615ea4a1d4704d1135aa6a31bd1089a8e534aaf1707d4d7459fc791c309a725",
      "hash": "0615ea4a1d4704d1135aa6a31bd1089a8e534aaf1707d4d7459fc791c309a725",
      "version": 2,
      "size": 373,
      "vsize": 373,
      "locktime": 0,
      "vin": [
        {
          "txid": "b3615b8045ddcf278104ceaa0785678c641b7c4f4db18db9280af123a4c0fb0d",
          "vout": 1,
          "scriptSig": {
            "asm": "0 3045022100bb8f8f7a56785a149f232c91404b65f845b49476a9bdfc3379daf907bfc509bd022030d8bb3ef55c1a08cdac9f3695ef48c521cc866bfbd9d15afbb77f62df944d29[ALL] 3045022100beeae51c80b8e1002b35be88d43f55c95c10404894e03c225e2317b2211e6deb02202fc560d25dd3b99b569d8704a3c9fa681a9d94f604762892ae7bb38598d61bf5[ALL] 522102b2cfa633f3d831ecb95225b59797ffc31f74f525f7e27e346ca0a2cdd0aafbe821038dd16bd78aa0874ea26df53dacfa74b33d15a883286dcd63ef3bfb20016ffc9f21029287eceecd871810299406941708731aabf371ae5064c03f67cc4770848cb45253ae",
            "hex": "00483045022100bb8f8f7a56785a149f232c91404b65f845b49476a9bdfc3379daf907bfc509bd022030d8bb3ef55c1a08cdac9f3695ef48c521cc866bfbd9d15afbb77f62df944d2901483045022100beeae51c80b8e1002b35be88d43f55c95c10404894e03c225e2317b2211e6deb02202fc560d25dd3b99b569d8704a3c9fa681a9d94f604762892ae7bb38598d61bf5014c69522102b2cfa633f3d831ecb95225b59797ffc31f74f525f7e27e346ca0a2cdd0aafbe821038dd16bd78aa0874ea26df53dacfa74b33d15a883286dcd63ef3bfb20016ffc9f21029287eceecd871810299406941708731aabf371ae5064c03f67cc4770848cb45253ae"
          },
          "sequence": 0
        }
      ],
      "vout": [
        {
          "value": 0.90000000,
          "n": 0,
          "scriptPubKey": {
            "asm": "OP_DUP OP_HASH160 59e36f57b53bddf2c0b634dc52ff8db0172f60a1 OP_EQUALVERIFY OP_CHECKSIG",
            "hex": "76a91459e36f57b53bddf2c0b634dc52ff8db0172f60a188ac",
            "reqSigs": 1,
            "type": "pubkeyhash",
            "addresses": [
              "LTRErjzTpfNhRmrcpVEuB6jSYMSTox9hz7"
            ]
          }
        }, 
        {
          "value": 77.73828903,
          "n": 1,
          "scriptPubKey": {
            "asm": "OP_HASH160 b0643250322aeea6dc58aa1f367b042c75032920 OP_EQUAL",
            "hex": "a914b0643250322aeea6dc58aa1f367b042c7503292087",
            "reqSigs": 1,
            "type": "scripthash",
            "addresses": [
              "MPyqByCQbDtHqQTM8gKzJvvggharhBG6E8"
            ]
          }
        }
      ],
      "hex": "02000000010dfbc0a423f10a28b98db14d4f7c1b648c678507aace048127cfdd45805b61b301000000fdfe0000483045022100bb8f8f7a56785a149f232c91404b65f845b49476a9bdfc3379daf907bfc509bd022030d8bb3ef55c1a08cdac9f3695ef48c521cc866bfbd9d15afbb77f62df944d2901483045022100beeae51c80b8e1002b35be88d43f55c95c10404894e03c225e2317b2211e6deb02202fc560d25dd3b99b569d8704a3c9fa681a9d94f604762892ae7bb38598d61bf5014c69522102b2cfa633f3d831ecb95225b59797ffc31f74f525f7e27e346ca0a2cdd0aafbe821038dd16bd78aa0874ea26df53dacfa74b33d15a883286dcd63ef3bfb20016ffc9f21029287eceecd871810299406941708731aabf371ae5064c03f67cc4770848cb45253ae0000000002804a5d05000000001976a91459e36f57b53bddf2c0b634dc52ff8db0172f60a188ac27375bcf0100000017a914b0643250322aeea6dc58aa1f367b042c750329208700000000"
    }, 
    {
      "txid": "d75ae28a0295d3804a93cefebe830e2eb191067961b9042dd3fcb2d166b42b2c",
      "hash": "d75ae28a0295d3804a93cefebe830e2eb191067961b9042dd3fcb2d166b42b2c",
      "version": 2,
      "size": 259,
      "vsize": 259,
      "locktime": 1357784,
      "vin": [
        {
          "txid": "68185c0f2106a78455e4e1e37c55ab51d767850d5227eb08d2cca7a067556aa7",
          "vout": 1,
          "scriptSig": {
            "asm": "30440220395a540ed0c495b39ea919efa0262bb66641ce62f73cdba8896d42a00d3ecc150220483d85265b00d6b03edc7ed95bc3acfd56caf57feb394b47e84e5c96170b75dd[ALL] 034a1a8232a0b5fbd9aa69cdfb6032b2d7e50e7d8f456251fcd0281ebc8a8f2389",
            "hex": "4730440220395a540ed0c495b39ea919efa0262bb66641ce62f73cdba8896d42a00d3ecc150220483d85265b00d6b03edc7ed95bc3acfd56caf57feb394b47e84e5c96170b75dd0121034a1a8232a0b5fbd9aa69cdfb6032b2d7e50e7d8f456251fcd0281ebc8a8f2389"
          },
          "sequence": 4294967294
        }
      ],
      "vout": [
        {
          "value": 0.40509459,
          "n": 0,
          "scriptPubKey": {
            "asm": "OP_DUP OP_HASH160 3b0c0bf721e808d5291530c19339b24661573890 OP_EQUALVERIFY OP_CHECKSIG",
            "hex": "76a9143b0c0bf721e808d5291530c19339b2466157389088ac",
            "reqSigs": 1,
            "type": "pubkeyhash",
            "addresses": [
              "LQcAZZ34yHYeUgGipY9Soy2iCCPsCjEh8t"
            ]
          }
        }, 
        {
          "value": 0.11125696,
          "n": 1,
          "scriptPubKey": {
            "asm": "OP_DUP OP_HASH160 54550495fadf9d2e0829437b9dcf0281f9348eab OP_EQUALVERIFY OP_CHECKSIG",
            "hex": "76a91454550495fadf9d2e0829437b9dcf0281f9348eab88ac",
            "reqSigs": 1,
            "type": "pubkeyhash",
            "addresses": [
              "LSursUW1mY26QVYithDGBKYsLVesmeqpsJ"
            ]
          }
        }, 
        {
          "value": 13.75682680,
          "n": 2,
          "scriptPubKey": {
            "asm": "OP_DUP OP_HASH160 87aeb721a645c51fe06100eb96aa388624eb2761 OP_EQUALVERIFY OP_CHECKSIG",
            "hex": "76a91487aeb721a645c51fe06100eb96aa388624eb276188ac",
            "reqSigs": 1,
            "type": "pubkeyhash",
            "addresses": [
              "LXbNnYcrN79MntfnxTdBhHx2vHbBEaBA6q"
            ]
          }
        }
      ],
      "hex": "0200000001a76a5567a0a7ccd208eb27520d8567d751ab557ce3e1e45584a706210f5c1868010000006a4730440220395a540ed0c495b39ea919efa0262bb66641ce62f73cdba8896d42a00d3ecc150220483d85265b00d6b03edc7ed95bc3acfd56caf57feb394b47e84e5c96170b75dd0121034a1a8232a0b5fbd9aa69cdfb6032b2d7e50e7d8f456251fcd0281ebc8a8f2389feffffff0313206a02000000001976a9143b0c0bf721e808d5291530c19339b2466157389088acc0c3a900000000001976a91454550495fadf9d2e0829437b9dcf0281f9348eab88ac7840ff51000000001976a91487aeb721a645c51fe06100eb96aa388624eb276188acd8b71400"
    }, 
    {
      "txid": "f87650f7280b5230e24e5ea9e539870c6d43598e5841ed58236f30e35fb88550",
      "hash": "f87650f7280b5230e24e5ea9e539870c6d43598e5841ed58236f30e35fb88550",
      "version": 1,
      "size": 224,
      "vsize": 224,
      "locktime": 0,
      "vin": [
        {
          "txid": "4e78439ef1cd601ac50a6ae9bec0e985db40785e49a68d60f39c592f22be3dec",
          "vout": 0,
          "scriptSig": {
            "asm": "3045022100880bebc073041d417b2649a63fb97af75e3a252d82fb9ec156e8aaf162058f2202201c0e8147638490bfa84ad1050362baf32f2c743e4a99ae088c774b3f2e4f43a3[ALL] 02e0ec97e6c68290f3f027108a2b3786c7b696d49ab877eccc10ff0c3544522cbd",
            "hex": "483045022100880bebc073041d417b2649a63fb97af75e3a252d82fb9ec156e8aaf162058f2202201c0e8147638490bfa84ad1050362baf32f2c743e4a99ae088c774b3f2e4f43a3012102e0ec97e6c68290f3f027108a2b3786c7b696d49ab877eccc10ff0c3544522cbd"
          },
          "sequence": 4294967295
        }
      ],
      "vout": [
        {
          "value": 0.00204629,
          "n": 0,
          "scriptPubKey": {
            "asm": "OP_DUP OP_HASH160 0a4ca807f223c6f2c12ffc1d6b9f0c672c9ac0df OP_EQUALVERIFY OP_CHECKSIG",
            "hex": "76a9140a4ca807f223c6f2c12ffc1d6b9f0c672c9ac0df88ac",
            "reqSigs": 1,
            "type": "pubkeyhash",
            "addresses": [
              "LLAQrJtxbP8rgn3migd39XiaU5tVoRw2Fa"
            ]
          }
        }, 
        {
          "value": 0.40000000,
          "n": 1,
          "scriptPubKey": {
            "asm": "OP_HASH160 863320db389ad614b834b4e75fdfcb179468b30c OP_EQUAL",
            "hex": "a914863320db389ad614b834b4e75fdfcb179468b30c87",
            "reqSigs": 1,
            "type": "scripthash",
            "addresses": [
              "ML8k2bUMwFYpRGpT9yLawec29xxourzW6o"
            ]
          }
        }
      ],
      "hex": "0100000001ec3dbe222f599cf3608da6495e7840db85e9c0bee96a0ac51a60cdf19e43784e000000006b483045022100880bebc073041d417b2649a63fb97af75e3a252d82fb9ec156e8aaf162058f2202201c0e8147638490bfa84ad1050362baf32f2c743e4a99ae088c774b3f2e4f43a3012102e0ec97e6c68290f3f027108a2b3786c7b696d49ab877eccc10ff0c3544522cbdffffffff02551f0300000000001976a9140a4ca807f223c6f2c12ffc1d6b9f0c672c9ac0df88ac005a62020000000017a914863320db389ad614b834b4e75fdfcb179468b30c8700000000"
    }, 
    {
      "txid": "c5b1015a031a662d6498348ccf31ac52b522464a117ca4f9cd6f6869271caa91",
      "hash": "c5b1015a031a662d6498348ccf31ac52b522464a117ca4f9cd6f6869271caa91",
      "version": 1,
      "size": 224,
      "vsize": 224,
      "locktime": 0,
      "vin": [
        {
          "txid": "bd697de027ae1635641b457c31358aa1166da037ddc4723c80c7ca32f82151a4",
          "vout": 0,
          "scriptSig": {
            "asm": "3045022100f2a6d963ab15a1dd00f221c2f89e2447ed71adbed51b968ecdb07e866628a5db02204595020276d4934a45371f2865480fb9283d027566dd20c1c21f46092674d1b2[ALL] 032c873816c9cbd3e7ba3d8cfe2f6368285330c6329f971da3b4abe505f828e77d",
            "hex": "483045022100f2a6d963ab15a1dd00f221c2f89e2447ed71adbed51b968ecdb07e866628a5db02204595020276d4934a45371f2865480fb9283d027566dd20c1c21f46092674d1b20121032c873816c9cbd3e7ba3d8cfe2f6368285330c6329f971da3b4abe505f828e77d"
          },
          "sequence": 4294967295
        }
      ],
      "vout": [
        {
          "value": 2.02370000,
          "n": 0,
          "scriptPubKey": {
            "asm": "OP_HASH160 22d98bd4753d37467ebea634f8b62ef402a02622 OP_EQUAL",
            "hex": "a91422d98bd4753d37467ebea634f8b62ef402a0262287",
            "reqSigs": 1,
            "type": "scripthash",
            "addresses": [
              "MB5RpKz4pY5R1Q8twbyLVXQfrQnp6MKxKm"
            ]
          }
        }, 
        {
          "value": 46.46078655,
          "n": 1,
          "scriptPubKey": {
            "asm": "OP_DUP OP_HASH160 25c61b47f17e0eb9ba5eeb04ee50a52bc5cabb40 OP_EQUALVERIFY OP_CHECKSIG",
            "hex": "76a91425c61b47f17e0eb9ba5eeb04ee50a52bc5cabb4088ac",
            "reqSigs": 1,
            "type": "pubkeyhash",
            "addresses": [
              "LNfgazjn5zFWHNV7ec1xTVh32CTJABoDJk"
            ]
          }
        }
      ],
      "hex": "0100000001a45121f832cac7803c72c4dd37a06d16a18a35317c451b643516ae27e07d69bd000000006b483045022100f2a6d963ab15a1dd00f221c2f89e2447ed71adbed51b968ecdb07e866628a5db02204595020276d4934a45371f2865480fb9283d027566dd20c1c21f46092674d1b20121032c873816c9cbd3e7ba3d8cfe2f6368285330c6329f971da3b4abe505f828e77dffffffff02d0eb0f0c0000000017a91422d98bd4753d37467ebea634f8b62ef402a0262287bf88ed14010000001976a91425c61b47f17e0eb9ba5eeb04ee50a52bc5cabb4088ac00000000"
    }, 
    {
      "txid": "361ee5e4ff40960d1ba6e768ddb5ae9201357f296c9d26e85c3b7947d0a883e1",
      "hash": "361ee5e4ff40960d1ba6e768ddb5ae9201357f296c9d26e85c3b7947d0a883e1",
      "version": 2,
      "size": 226,
      "vsize": 226,
      "locktime": 1357783,
      "vin": [
        {
          "txid": "09414ab5f581bf1211cd0474792e9b9bb35f9adc427adfb13b76a41e9c995dad",
          "vout": 5,
          "scriptSig": {
            "asm": "3045022100c4d009dde70fd86d081acaefc7428dd22212d3c6be5f56ca4c6238f0156946c5022038ae436bd0813276f87410bdeb34a712cc5b5ee72ee9caac186ccfc7f08abffe[ALL] 03ec4844f25361530491725fd4b08b821b4a5e03a815db56b3083105a5b7edef89",
            "hex": "483045022100c4d009dde70fd86d081acaefc7428dd22212d3c6be5f56ca4c6238f0156946c5022038ae436bd0813276f87410bdeb34a712cc5b5ee72ee9caac186ccfc7f08abffe012103ec4844f25361530491725fd4b08b821b4a5e03a815db56b3083105a5b7edef89"
          },
          "sequence": 4294967294
        }
      ],
      "vout": [
        {
          "value": 0.01374079,
          "n": 0,
          "scriptPubKey": {
            "asm": "OP_DUP OP_HASH160 020057ed956fe7c4c556ff75b4640fdd7820de2d OP_EQUALVERIFY OP_CHECKSIG",
            "hex": "76a914020057ed956fe7c4c556ff75b4640fdd7820de2d88ac",
            "reqSigs": 1,
            "type": "pubkeyhash",
            "addresses": [
              "LKQY2Ti8JF9o4LHesDT93HLF1qwrYX7hh3"
            ]
          }
        }, 
        {
          "value": 0.86314521,
          "n": 1,
          "scriptPubKey": {
            "asm": "OP_DUP OP_HASH160 f24366ed726a63e1ea1b5d2a9f1449017fa917a9 OP_EQUALVERIFY OP_CHECKSIG",
            "hex": "76a914f24366ed726a63e1ea1b5d2a9f1449017fa917a988ac",
            "reqSigs": 1,
            "type": "pubkeyhash",
            "addresses": [
              "LhJvXp82aqBAjHZcXbCrfn4STAiYnFLQQr"
            ]
          }
        }
      ],
      "hex": "0200000001ad5d999c1ea4763bb1df7a42dc9a5fb39b9b2e797404cd1112bf81f5b54a4109050000006b483045022100c4d009dde70fd86d081acaefc7428dd22212d3c6be5f56ca4c6238f0156946c5022038ae436bd0813276f87410bdeb34a712cc5b5ee72ee9caac186ccfc7f08abffe012103ec4844f25361530491725fd4b08b821b4a5e03a815db56b3083105a5b7edef89feffffff027ff71400000000001976a914020057ed956fe7c4c556ff75b4640fdd7820de2d88ac190e2505000000001976a914f24366ed726a63e1ea1b5d2a9f1449017fa917a988acd7b71400"
    }
  ],
  "time": 1517047469,
  "mediantime": 1517047065,
  "nonce": 4245824955,
  "bits": "1a047f14",
  "difficulty": 3731199.183374282,
  "chainwork": "00000000000000000000000000000000000000000000003286b157e8b9ec5724",
  "previousblockhash": "8bb6e636a73519dbdcadd9ef8d1e27c54b01e43f47b4abe2e3874e950658b00c",
  "nextblockhash": "55fe17502531cb0ebb280c487d22fe4daf078ad7ef7a8e990f12fd3a0f434de5"
}
