{
  "hash": "fb139304239f47b85a6d39c34be7440e391b000c4ac50f027a35b3018cf18b8b",
  "confirmations": 567,
  "strippedsize": 3328,
  "size": 3473,
  "weight": 13457,
  "height": 1360427,
  "version": 536870912,
  "versionHex": "20000000",
  "merkleroot": "cdfa65ec9ba817bd99ad99179fda77c741a41551c18cb24bc81480cb1732e9ce",
  "tx": [
    {
      "txid": "7d4d2c0032b30b175b32c173e6adb5713cdd53ccc74b36bda1d8e7f8f29bb451",
      "hash": "211670cc6cada5ed0a58b2e81fc601d9615dc4102d53d6b9674af3f48f78b423",
      "version": 1,
      "size": 277,
      "vsize": 250,
      "locktime": 949813795,
      "vin": [
        {
          "coinbase": "032bc2142cfabe6d6d56f9b6e73382429e7a0760e3d60d710b9150d13f5b367670389468312ae286cc08000000f09f909f134d696e65642062792068757869616f62696e6700000000000000000000000000000000000000000000000000000000000000",
          "sequence": 999
        }
      ],
      "vout": [
        {
          "value": 25.01527080,
          "n": 0,
          "scriptPubKey": {
            "asm": "OP_DUP OP_HASH160 aa3750aa18b8a0f3f0590731e1fab934856680cf OP_EQUALVERIFY OP_CHECKSIG",
            "hex": "76a914aa3750aa18b8a0f3f0590731e1fab934856680cf88ac",
            "reqSigs": 1,
            "type": "pubkeyhash",
            "addresses": [
              "LajyQBeZaBA1NkZDeY8YT5RYYVRkXMvb2T"
            ]
          }
        }, 
        {
          "value": 0.00000000,
          "n": 1,
          "scriptPubKey": {
            "asm": "OP_RETURN aa21a9ed5ce921b85525ad0e6623fd9b2525f191ded6c8b3f0b8e4c6ea9b6c60640532ea 0000000000000000",
            "hex": "6a24aa21a9ed5ce921b85525ad0e6623fd9b2525f191ded6c8b3f0b8e4c6ea9b6c60640532ea080000000000000000",
            "type": "nulldata"
          }
        }
      ],
      "hex": "010000000001010000000000000000000000000000000000000000000000000000000000000000ffffffff64032bc2142cfabe6d6d56f9b6e73382429e7a0760e3d60d710b9150d13f5b367670389468312ae286cc08000000f09f909f134d696e65642062792068757869616f62696e6700000000000000000000000000000000000000000000000000000000000000e70300000228461a95000000001976a914aa3750aa18b8a0f3f0590731e1fab934856680cf88ac00000000000000002f6a24aa21a9ed5ce921b85525ad0e6623fd9b2525f191ded6c8b3f0b8e4c6ea9b6c60640532ea0800000000000000000120000000000000000000000000000000000000000000000000000000000000000023029d38"
    }, 
    {
      "txid": "7a295b81db8d08a81ff94873e719b9af5214c3660a876462c2f6ed45b3370709",
      "hash": "7a295b81db8d08a81ff94873e719b9af5214c3660a876462c2f6ed45b3370709",
      "version": 1,
      "size": 372,
      "vsize": 372,
      "locktime": 0,
      "vin": [
        {
          "txid": "f2027a3c2d79e2ab82d52f32e4a54dcd3efa277829a53cc5bbf1a4f1bc8e7930",
          "vout": 1,
          "scriptSig": {
            "asm": "0 3045022100dd423952024dd8e534259cc6d51862adeef71d06a07c04f115a5044bdc637de5022050905a60e4d0b2613f95130c3c3120ad55c3c11d17efa126893b0b0076c1e330[ALL] 30440220270b411aac83e037ae99755e4af32121a4e05bb952c61dbcb6c53e5698325b64022063d708dcae5a347a88243b4af2ed1aaec2d2ef91cd1b02f960cd51eb1d7ddf87[ALL] 522103b3e0dece329f75772f167df2215548e2448b25c257cbc64490d1ea1f8e6b37b021035976fc22b11bf33bf30959b52a8c3ad7c977e7fdf3ebd9a48da7191a6eb753ae210309d526ffca42c91d38f011f656af5853019d05b675045b16242234e4ea12d10753ae",
            "hex": "00483045022100dd423952024dd8e534259cc6d51862adeef71d06a07c04f115a5044bdc637de5022050905a60e4d0b2613f95130c3c3120ad55c3c11d17efa126893b0b0076c1e330014730440220270b411aac83e037ae99755e4af32121a4e05bb952c61dbcb6c53e5698325b64022063d708dcae5a347a88243b4af2ed1aaec2d2ef91cd1b02f960cd51eb1d7ddf87014c69522103b3e0dece329f75772f167df2215548e2448b25c257cbc64490d1ea1f8e6b37b021035976fc22b11bf33bf30959b52a8c3ad7c977e7fdf3ebd9a48da7191a6eb753ae210309d526ffca42c91d38f011f656af5853019d05b675045b16242234e4ea12d10753ae"
          },
          "sequence": 4294967295
        }
      ],
      "vout": [
        {
          "value": 0.10385294,
          "n": 0,
          "scriptPubKey": {
            "asm": "OP_DUP OP_HASH160 1b2f74f420e409e60a91c72d1eea2d75b86b119d OP_EQUALVERIFY OP_CHECKSIG",
            "hex": "76a9141b2f74f420e409e60a91c72d1eea2d75b86b119d88ac",
            "reqSigs": 1,
            "type": "pubkeyhash",
            "addresses": [
              "LMhhMkacFHVYxAVUUxUwpTDdkD9zao3eiW"
            ]
          }
        }, 
        {
          "value": 5.68605499,
          "n": 1,
          "scriptPubKey": {
            "asm": "OP_HASH160 df5913c1e35f5e015b3e6c053506a0a5c8d64d09 OP_EQUAL",
            "hex": "a914df5913c1e35f5e015b3e6c053506a0a5c8d64d0987",
            "reqSigs": 1,
            "type": "scripthash",
            "addresses": [
              "MUG7dQ6zjgreWQ4kBJf2gDhsA5SYJRwWGd"
            ]
          }
        }
      ],
      "hex": "010000000130798ebcf1a4f1bbc53ca5297827fa3ecd4da5e4322fd582abe2792d3c7a02f201000000fdfd0000483045022100dd423952024dd8e534259cc6d51862adeef71d06a07c04f115a5044bdc637de5022050905a60e4d0b2613f95130c3c3120ad55c3c11d17efa126893b0b0076c1e330014730440220270b411aac83e037ae99755e4af32121a4e05bb952c61dbcb6c53e5698325b64022063d708dcae5a347a88243b4af2ed1aaec2d2ef91cd1b02f960cd51eb1d7ddf87014c69522103b3e0dece329f75772f167df2215548e2448b25c257cbc64490d1ea1f8e6b37b021035976fc22b11bf33bf30959b52a8c3ad7c977e7fdf3ebd9a48da7191a6eb753ae210309d526ffca42c91d38f011f656af5853019d05b675045b16242234e4ea12d10753aeffffffff028e779e00000000001976a9141b2f74f420e409e60a91c72d1eea2d75b86b119d88ac3b3be4210000000017a914df5913c1e35f5e015b3e6c053506a0a5c8d64d098700000000"
    }, 
    {
      "txid": "868310d402a5bc99bc1496b568374e93ebaefda09f19502ec986f15d92ea2e0a",
      "hash": "868310d402a5bc99bc1496b568374e93ebaefda09f19502ec986f15d92ea2e0a",
      "version": 1,
      "size": 225,
      "vsize": 225,
      "locktime": 0,
      "vin": [
        {
          "txid": "a34b2707ef6022e46b5a81d3df420e5bf10a635aa1fa06122189f452d4e0fb93",
          "vout": 1,
          "scriptSig": {
            "asm": "3044022015269153cc0cb47929d36594c12b323453b09fae87954e036df1ddb69d08c769022074c83524a2f1e3074a6f70939c5d34c9269938b1d7b0d201e480ffa3c74a2b38[ALL] 03739abb5e4736d37ab1bf38e930cd80fcde446698949ca0bca3a7920bfa497542",
            "hex": "473044022015269153cc0cb47929d36594c12b323453b09fae87954e036df1ddb69d08c769022074c83524a2f1e3074a6f70939c5d34c9269938b1d7b0d201e480ffa3c74a2b38012103739abb5e4736d37ab1bf38e930cd80fcde446698949ca0bca3a7920bfa497542"
          },
          "sequence": 4294967295
        }
      ],
      "vout": [
        {
          "value": 0.21124272,
          "n": 0,
          "scriptPubKey": {
            "asm": "OP_DUP OP_HASH160 ab7c2b7c9eafd69646ac11170ddc9978e0b9deaf OP_EQUALVERIFY OP_CHECKSIG",
            "hex": "76a914ab7c2b7c9eafd69646ac11170ddc9978e0b9deaf88ac",
            "reqSigs": 1,
            "type": "pubkeyhash",
            "addresses": [
              "LargZVN7rqqTbFGyd4zNKtuq5ioLzB64V2"
            ]
          }
        }, 
        {
          "value": 2.00729823,
          "n": 1,
          "scriptPubKey": {
            "asm": "OP_DUP OP_HASH160 6992634f75c427da62fa90a9e0c81969c5855a99 OP_EQUALVERIFY OP_CHECKSIG",
            "hex": "76a9146992634f75c427da62fa90a9e0c81969c5855a9988ac",
            "reqSigs": 1,
            "type": "pubkeyhash",
            "addresses": [
              "LUrAaZqaWQD4qQZ5cXJ4eC7zkJyYsezthB"
            ]
          }
        }
      ],
      "hex": "010000000193fbe0d452f489211206faa15a630af15b0e42dfd3815a6be42260ef07274ba3010000006a473044022015269153cc0cb47929d36594c12b323453b09fae87954e036df1ddb69d08c769022074c83524a2f1e3074a6f70939c5d34c9269938b1d7b0d201e480ffa3c74a2b38012103739abb5e4736d37ab1bf38e930cd80fcde446698949ca0bca3a7920bfa497542ffffffff02b0544201000000001976a914ab7c2b7c9eafd69646ac11170ddc9978e0b9deaf88acdfe4f60b000000001976a9146992634f75c427da62fa90a9e0c81969c5855a9988ac00000000"
    }, 
    {
      "txid": "abb62824b692ac3d4cb9b6b558b9914b60149976ab4f53e20a133d998de0611c",
      "hash": "abb62824b692ac3d4cb9b6b558b9914b60149976ab4f53e20a133d998de0611c",
      "version": 1,
      "size": 226,
      "vsize": 226,
      "locktime": 0,
      "vin": [
        {
          "txid": "df0173c602093c0718f2cbaf7d3b62840425ebfdd9085b50ba4bb29b8280e83f",
          "vout": 1,
          "scriptSig": {
            "asm": "3045022100d56797f24c1d3dcf1e4882fdf5eca88ebefb77f88c5592a2717d81db230ae74e022000837d96beab534314bdd776a618500e9cde7e30e2a55347c8f797b8b19bb9de[ALL] 021249d1e7eb91b68b81ed522c76ce1ea0be25338dab9cac4bd9bfb7ba75c3be2a",
            "hex": "483045022100d56797f24c1d3dcf1e4882fdf5eca88ebefb77f88c5592a2717d81db230ae74e022000837d96beab534314bdd776a618500e9cde7e30e2a55347c8f797b8b19bb9de0121021249d1e7eb91b68b81ed522c76ce1ea0be25338dab9cac4bd9bfb7ba75c3be2a"
          },
          "sequence": 4294967295
        }
      ],
      "vout": [
        {
          "value": 0.33384920,
          "n": 0,
          "scriptPubKey": {
            "asm": "OP_DUP OP_HASH160 c556e358275f62505485eafd544883a27c64438f OP_EQUALVERIFY OP_CHECKSIG",
            "hex": "76a914c556e358275f62505485eafd544883a27c64438f88ac",
            "reqSigs": 1,
            "type": "pubkeyhash",
            "addresses": [
              "LdDPU6J9XnNnbyyCNLJYpUPCvNDJBq3St7"
            ]
          }
        }, 
        {
          "value": 0.00032500,
          "n": 1,
          "scriptPubKey": {
            "asm": "OP_DUP OP_HASH160 682039d489876810aa7c55a827313a1f39604cf4 OP_EQUALVERIFY OP_CHECKSIG",
            "hex": "76a914682039d489876810aa7c55a827313a1f39604cf488ac",
            "reqSigs": 1,
            "type": "pubkeyhash",
            "addresses": [
              "LUiX9FvYy21GdrbrSzyKEEr1qCoiXhdhtt"
            ]
          }
        }
      ],
      "hex": "01000000013fe880829bb24bba505b08d9fdeb250484623b7dafcbf218073c0902c67301df010000006b483045022100d56797f24c1d3dcf1e4882fdf5eca88ebefb77f88c5592a2717d81db230ae74e022000837d96beab534314bdd776a618500e9cde7e30e2a55347c8f797b8b19bb9de0121021249d1e7eb91b68b81ed522c76ce1ea0be25338dab9cac4bd9bfb7ba75c3be2affffffff02d869fd01000000001976a914c556e358275f62505485eafd544883a27c64438f88acf47e0000000000001976a914682039d489876810aa7c55a827313a1f39604cf488ac00000000"
    }, 
    {
      "txid": "01ca7e218c019d0fd846db689317ae9905238fea3eddcd23143c62569629f51e",
      "hash": "baf418a45b8f7329fcfe65810384b80f09ed03e764e56401648840d4a1c2678d",
      "version": 1,
      "size": 249,
      "vsize": 168,
      "locktime": 0,
      "vin": [
        {
          "txid": "7ec0b7490bc17b16d350fdbb2dd7e1d335c11c7a4fe8355f53f0ed2a65c920f2",
          "vout": 4,
          "scriptSig": {
            "asm": "00144621f5d940dee82dc40dc87e5595d649b03a34da",
            "hex": "1600144621f5d940dee82dc40dc87e5595d649b03a34da"
          },
          "txinwitness": [
            "304402202e510c32cd8e38a6d8696fa53eaae3c18b327bf715e0bdba9fbe5ee117a9d9720220049bc091f8aec447f21223bd19ff85512976dd6d4defc593e6d664d7776bb0a201", 
            "03420da3dd30c846f3cf38eb6e9f675343ad7995ff81c7c7d7300213ace83f2bb2"
          ],
          "sequence": 4294967295
        }
      ],
      "vout": [
        {
          "value": 0.25000000,
          "n": 0,
          "scriptPubKey": {
            "asm": "OP_DUP OP_HASH160 4c82dc046d1ba9cece793ae8c86cd370a665d77a OP_EQUALVERIFY OP_CHECKSIG",
            "hex": "76a9144c82dc046d1ba9cece793ae8c86cd370a665d77a88ac",
            "reqSigs": 1,
            "type": "pubkeyhash",
            "addresses": [
              "LSCWP4kuE7mtLAdfaSkQXShfQ4zw5vwcdb"
            ]
          }
        }, 
        {
          "value": 3.95731256,
          "n": 1,
          "scriptPubKey": {
            "asm": "OP_HASH160 88fac9c89bd271b5df61e7f7315c7cd0889361f4 OP_EQUAL",
            "hex": "a91488fac9c89bd271b5df61e7f7315c7cd0889361f487",
            "reqSigs": 1,
            "type": "scripthash",
            "addresses": [
              "MLPSZbApxwBZUYcehZ1nQupHYXMDJ9sLz8"
            ]
          }
        }
      ],
      "hex": "01000000000101f220c9652aedf0535f35e84f7a1cc135d3e1d72dbbfd50d3167bc10b49b7c07e04000000171600144621f5d940dee82dc40dc87e5595d649b03a34daffffffff0240787d01000000001976a9144c82dc046d1ba9cece793ae8c86cd370a665d77a88ac386196170000000017a91488fac9c89bd271b5df61e7f7315c7cd0889361f4870247304402202e510c32cd8e38a6d8696fa53eaae3c18b327bf715e0bdba9fbe5ee117a9d9720220049bc091f8aec447f21223bd19ff85512976dd6d4defc593e6d664d7776bb0a2012103420da3dd30c846f3cf38eb6e9f675343ad7995ff81c7c7d7300213ace83f2bb200000000"
    }, 
    {
      "txid": "cbecb195526d3cffc993e68f7162f0fc35a8ec15ad74dfa98258ea2831d93119",
      "hash": "cbecb195526d3cffc993e68f7162f0fc35a8ec15ad74dfa98258ea2831d93119",
      "version": 1,
      "size": 225,
      "vsize": 225,
      "locktime": 0,
      "vin": [
        {
          "txid": "9411014d3f68ef932156d6d6300bf48167626bbbb451475746880416bd2c1873",
          "vout": 0,
          "scriptSig": {
            "asm": "304402204697106f1747d258306cbf1b5fbf110f3ef099703e4c02e3771dbc37c7ab6b4702207e366b2c9011d916842075fc3e9baf65dcb35d0b253c3aa17eb94008000dd893[ALL] 02d5595de7b1834c8717b81bbc573d321dfbf1eaec1bc1f41aacdcf3f13154ae69",
            "hex": "47304402204697106f1747d258306cbf1b5fbf110f3ef099703e4c02e3771dbc37c7ab6b4702207e366b2c9011d916842075fc3e9baf65dcb35d0b253c3aa17eb94008000dd893012102d5595de7b1834c8717b81bbc573d321dfbf1eaec1bc1f41aacdcf3f13154ae69"
          },
          "sequence": 4294967295
        }
      ],
      "vout": [
        {
          "value": 0.35264797,
          "n": 0,
          "scriptPubKey": {
            "asm": "OP_DUP OP_HASH160 c49c6337de4462ba79a976a33b3e6251b334ea0e OP_EQUALVERIFY OP_CHECKSIG",
            "hex": "76a914c49c6337de4462ba79a976a33b3e6251b334ea0e88ac",
            "reqSigs": 1,
            "type": "pubkeyhash",
            "addresses": [
              "Ld9Y3oyWXsnjzRzUs5e9oYUUiE2BJPfHvG"
            ]
          }
        }, 
        {
          "value": 0.54712603,
          "n": 1,
          "scriptPubKey": {
            "asm": "OP_DUP OP_HASH160 a938dc416ddabb268c45bf2c50499093ffb13247 OP_EQUALVERIFY OP_CHECKSIG",
            "hex": "76a914a938dc416ddabb268c45bf2c50499093ffb1324788ac",
            "reqSigs": 1,
            "type": "pubkeyhash",
            "addresses": [
              "LaeiaMrVa1Ugane3UMSin2AjLKx9AUmeYn"
            ]
          }
        }
      ],
      "hex": "010000000173182cbd16048846574751b4bb6b626781f40b30d6d6562193ef683f4d011194000000006a47304402204697106f1747d258306cbf1b5fbf110f3ef099703e4c02e3771dbc37c7ab6b4702207e366b2c9011d916842075fc3e9baf65dcb35d0b253c3aa17eb94008000dd893012102d5595de7b1834c8717b81bbc573d321dfbf1eaec1bc1f41aacdcf3f13154ae69ffffffff021d191a02000000001976a914c49c6337de4462ba79a976a33b3e6251b334ea0e88ac1bd94203000000001976a914a938dc416ddabb268c45bf2c50499093ffb1324788ac00000000"
    }, 
    {
      "txid": "6a379b43e424c9db89ebebc5995d75fc68aeb300c989e2d20765da0fee483862",
      "hash": "6a379b43e424c9db89ebebc5995d75fc68aeb300c989e2d20765da0fee483862",
      "version": 1,
      "size": 225,
      "vsize": 225,
      "locktime": 0,
      "vin": [
        {
          "txid": "250159f6a73e7d5cc269c6c20d3a00f67504b930637d48da1183613a76aa7a99",
          "vout": 0,
          "scriptSig": {
            "asm": "3044022072aea7cb1727874c58550b5938e9025a7c172b9955bb15c56290346dbe14a95202201ba8654c04e332aa0fd85493aa871775fe3fc51b85ff0bb1241ebc1437ced49d[ALL] 03f4bc22e4c93bf79cb806e6bf467b9283e99452d54cb598eab3c266db934e5587",
            "hex": "473044022072aea7cb1727874c58550b5938e9025a7c172b9955bb15c56290346dbe14a95202201ba8654c04e332aa0fd85493aa871775fe3fc51b85ff0bb1241ebc1437ced49d012103f4bc22e4c93bf79cb806e6bf467b9283e99452d54cb598eab3c266db934e5587"
          },
          "sequence": 4294967295
        }
      ],
      "vout": [
        {
          "value": 0.74304746,
          "n": 0,
          "scriptPubKey": {
            "asm": "OP_DUP OP_HASH160 c9ae89986e6e0e7fc89be605f8d33b03b1d96847 OP_EQUALVERIFY OP_CHECKSIG",
            "hex": "76a914c9ae89986e6e0e7fc89be605f8d33b03b1d9684788ac",
            "reqSigs": 1,
            "type": "pubkeyhash",
            "addresses": [
              "LdcMAr8DkhVRK1VC7vZbXMHwx5Wi1xrWPt"
            ]
          }
        }, 
        {
          "value": 0.14608254,
          "n": 1,
          "scriptPubKey": {
            "asm": "OP_DUP OP_HASH160 fcce5896f03ed94c052e7e75b938f2ec84850424 OP_EQUALVERIFY OP_CHECKSIG",
            "hex": "76a914fcce5896f03ed94c052e7e75b938f2ec8485042488ac",
            "reqSigs": 1,
            "type": "pubkeyhash",
            "addresses": [
              "LiGfjjFx4P7j4Zfu4ga9pH4G9wS9xQEwDB"
            ]
          }
        }
      ],
      "hex": "0100000001997aaa763a618311da487d6330b90475f6003a0dc2c669c25c7d3ea7f6590125000000006a473044022072aea7cb1727874c58550b5938e9025a7c172b9955bb15c56290346dbe14a95202201ba8654c04e332aa0fd85493aa871775fe3fc51b85ff0bb1241ebc1437ced49d012103f4bc22e4c93bf79cb806e6bf467b9283e99452d54cb598eab3c266db934e5587ffffffff02eacc6d04000000001976a914c9ae89986e6e0e7fc89be605f8d33b03b1d9684788ac7ee7de00000000001976a914fcce5896f03ed94c052e7e75b938f2ec8485042488ac00000000"
    }, 
    {
      "txid": "f2c1410229585a1420a02dab2ca987767f252aaa1abbf747497080b187600688",
      "hash": "f2c1410229585a1420a02dab2ca987767f252aaa1abbf747497080b187600688",
      "version": 1,
      "size": 225,
      "vsize": 225,
      "locktime": 0,
      "vin": [
        {
          "txid": "3ca58c749325daa08b0bd2a23e49eb0aca58935efab59733928d768ece79724a",
          "vout": 1,
          "scriptSig": {
            "asm": "304402203f178e06f349e2fc6751d968b509fd2b6ea9e04e0645b3222828ce386339ba0a022045414c5b65b47360db6f99f31a64eb59421a6bd217fea8f52a7d55446118d3bc[ALL] 020194805ecacc3a83e7766f1fac86e39fba5bc5b7dcc4ec75666c10069359e73b",
            "hex": "47304402203f178e06f349e2fc6751d968b509fd2b6ea9e04e0645b3222828ce386339ba0a022045414c5b65b47360db6f99f31a64eb59421a6bd217fea8f52a7d55446118d3bc0121020194805ecacc3a83e7766f1fac86e39fba5bc5b7dcc4ec75666c10069359e73b"
          },
          "sequence": 4294967295
        }
      ],
      "vout": [
        {
          "value": 0.24398647,
          "n": 0,
          "scriptPubKey": {
            "asm": "OP_DUP OP_HASH160 b8f099607885c06a1146e00747cf8c25149aa5fd OP_EQUALVERIFY OP_CHECKSIG",
            "hex": "76a914b8f099607885c06a1146e00747cf8c25149aa5fd88ac",
            "reqSigs": 1,
            "type": "pubkeyhash",
            "addresses": [
              "Lc5ppdWdTojWsRx6v8xTCvEcyRjA7ystGf"
            ]
          }
        }, 
        {
          "value": 0.00168835,
          "n": 1,
          "scriptPubKey": {
            "asm": "OP_DUP OP_HASH160 86d0c974b1fb1ffe8e56d22907a42bde1d2c519a OP_EQUALVERIFY OP_CHECKSIG",
            "hex": "76a91486d0c974b1fb1ffe8e56d22907a42bde1d2c519a88ac",
            "reqSigs": 1,
            "type": "pubkeyhash",
            "addresses": [
              "LXWnvguznrwsL5HnkbrvkfNM25uVVqPoAq"
            ]
          }
        }
      ],
      "hex": "01000000014a7279ce8e768d923397b5fa5e9358ca0aeb493ea2d20b8ba0da2593748ca53c010000006a47304402203f178e06f349e2fc6751d968b509fd2b6ea9e04e0645b3222828ce386339ba0a022045414c5b65b47360db6f99f31a64eb59421a6bd217fea8f52a7d55446118d3bc0121020194805ecacc3a83e7766f1fac86e39fba5bc5b7dcc4ec75666c10069359e73bffffffff02374b7401000000001976a914b8f099607885c06a1146e00747cf8c25149aa5fd88ac83930200000000001976a91486d0c974b1fb1ffe8e56d22907a42bde1d2c519a88ac00000000"
    }, 
    {
      "txid": "c479932976bd7d74b95efdfd8c2165f9d87ea0a019491ab21edbb53da6fe1ca9",
      "hash": "c479932976bd7d74b95efdfd8c2165f9d87ea0a019491ab21edbb53da6fe1ca9",
      "version": 1,
      "size": 372,
      "vsize": 372,
      "locktime": 1360425,
      "vin": [
        {
          "txid": "a4dcfc5902bbe9ddd6e1c00f3ceefbe3840ba088a75bff5c3b6d1a853337904f",
          "vout": 0,
          "scriptSig": {
            "asm": "304402206f9b667c6cb8dcf0b9f43f4a4604403dd0ca650f40ba6f471d600f947feed5f602202cee55758f9f6dde9e146de20b73f594d29371bc14b0e6eeb46facb76868f0ac[ALL] 030cc1dbddf46ae2c23c020d2e294fded897c3c0573b08aedc2bf167ad2a0bd175",
            "hex": "47304402206f9b667c6cb8dcf0b9f43f4a4604403dd0ca650f40ba6f471d600f947feed5f602202cee55758f9f6dde9e146de20b73f594d29371bc14b0e6eeb46facb76868f0ac0121030cc1dbddf46ae2c23c020d2e294fded897c3c0573b08aedc2bf167ad2a0bd175"
          },
          "sequence": 4294967294
        }, 
        {
          "txid": "55c09d0c44b703aee990ebb5d4215b72ad33d5c53603c50cc55b213820e290a7",
          "vout": 1,
          "scriptSig": {
            "asm": "304402207e1dd9b891b029cfedf77174cc26081f9cd697052569c85890b22d8664d8f8ff02204a4aa3a09231ed1f1ed8ff734fa051040a31958c824d845d0f75cda0f5104480[ALL] 02b0ffad84335ab1328856d5f579ff5aa37b998fd06b4ae5307a0c8281283c06d6",
            "hex": "47304402207e1dd9b891b029cfedf77174cc26081f9cd697052569c85890b22d8664d8f8ff02204a4aa3a09231ed1f1ed8ff734fa051040a31958c824d845d0f75cda0f5104480012102b0ffad84335ab1328856d5f579ff5aa37b998fd06b4ae5307a0c8281283c06d6"
          },
          "sequence": 4294967294
        }
      ],
      "vout": [
        {
          "value": 0.01000485,
          "n": 0,
          "scriptPubKey": {
            "asm": "OP_DUP OP_HASH160 7f6c9e81a50ed3f07e0a2619254e4e05a9553856 OP_EQUALVERIFY OP_CHECKSIG",
            "hex": "76a9147f6c9e81a50ed3f07e0a2619254e4e05a955385688ac",
            "reqSigs": 1,
            "type": "pubkeyhash",
            "addresses": [
              "LWqiCZs3ozVKJpGS1LKWszpgGp6tfh5WZt"
            ]
          }
        }, 
        {
          "value": 2.36500000,
          "n": 1,
          "scriptPubKey": {
            "asm": "OP_DUP OP_HASH160 c9ca9eff13cee7738ecfa4a1af67b2c45ec29bbe OP_EQUALVERIFY OP_CHECKSIG",
            "hex": "76a914c9ca9eff13cee7738ecfa4a1af67b2c45ec29bbe88ac",
            "reqSigs": 1,
            "type": "pubkeyhash",
            "addresses": [
              "Ldcvp8WmA1MDsLrbSSqKfTA7nF882NGTsq"
            ]
          }
        }
      ],
      "hex": "01000000024f903733851a6d3b5cff5ba788a00b84e3fbee3c0fc0e1d6dde9bb0259fcdca4000000006a47304402206f9b667c6cb8dcf0b9f43f4a4604403dd0ca650f40ba6f471d600f947feed5f602202cee55758f9f6dde9e146de20b73f594d29371bc14b0e6eeb46facb76868f0ac0121030cc1dbddf46ae2c23c020d2e294fded897c3c0573b08aedc2bf167ad2a0bd175feffffffa790e22038215bc50cc50336c5d533ad725b21d4b5eb90e9ae03b7440c9dc055010000006a47304402207e1dd9b891b029cfedf77174cc26081f9cd697052569c85890b22d8664d8f8ff02204a4aa3a09231ed1f1ed8ff734fa051040a31958c824d845d0f75cda0f5104480012102b0ffad84335ab1328856d5f579ff5aa37b998fd06b4ae5307a0c8281283c06d6feffffff0225440f00000000001976a9147f6c9e81a50ed3f07e0a2619254e4e05a955385688ac20b4180e000000001976a914c9ca9eff13cee7738ecfa4a1af67b2c45ec29bbe88ac29c21400"
    }, 
    {
      "txid": "ecf9166add0ca518b797a2c0ba475a2daeff48f1502b6addae83b7d56544255a",
      "hash": "ecf9166add0ca518b797a2c0ba475a2daeff48f1502b6addae83b7d56544255a",
      "version": 1,
      "size": 226,
      "vsize": 226,
      "locktime": 0,
      "vin": [
        {
          "txid": "f1f53f30011f96328816a53ed6525cef63813c4006264507568c10ea4847d8c8",
          "vout": 1,
          "scriptSig": {
            "asm": "3045022100e5e84cc0bf0a60b4d99c9455cdaf8b023096814b688d7a8549c2448dd7a4c4e902206d899e4273ba56285fcaaf44530b269b391177823bf76119f530db68fbe4063a[ALL] 03d907c5812824dc2b489e69f26b69c607cc79a8ca4868ee9383dc2d4a8f9baad8",
            "hex": "483045022100e5e84cc0bf0a60b4d99c9455cdaf8b023096814b688d7a8549c2448dd7a4c4e902206d899e4273ba56285fcaaf44530b269b391177823bf76119f530db68fbe4063a012103d907c5812824dc2b489e69f26b69c607cc79a8ca4868ee9383dc2d4a8f9baad8"
          },
          "sequence": 4294967295
        }
      ],
      "vout": [
        {
          "value": 0.04200357,
          "n": 0,
          "scriptPubKey": {
            "asm": "OP_DUP OP_HASH160 b36d5c6bbf2259a241d9ee61cbfe42649ad8d433 OP_EQUALVERIFY OP_CHECKSIG",
            "hex": "76a914b36d5c6bbf2259a241d9ee61cbfe42649ad8d43388ac",
            "reqSigs": 1,
            "type": "pubkeyhash",
            "addresses": [
              "LbagE62XAiYgpukGgEukqPUp7VZEfoJVhZ"
            ]
          }
        }, 
        {
          "value": 0.25577043,
          "n": 1,
          "scriptPubKey": {
            "asm": "OP_DUP OP_HASH160 71c2bf6481ff6b2ce0525b50b12dfc510c1a3288 OP_EQUALVERIFY OP_CHECKSIG",
            "hex": "76a91471c2bf6481ff6b2ce0525b50b12dfc510c1a328888ac",
            "reqSigs": 1,
            "type": "pubkeyhash",
            "addresses": [
              "LVbTvC6tAkTmfJL7yiHUReaarJGmcodWEi"
            ]
          }
        }
      ],
      "hex": "0100000001c8d84748ea108c5607452606403c8163ef5c52d63ea5168832961f01303ff5f1010000006b483045022100e5e84cc0bf0a60b4d99c9455cdaf8b023096814b688d7a8549c2448dd7a4c4e902206d899e4273ba56285fcaaf44530b269b391177823bf76119f530db68fbe4063a012103d907c5812824dc2b489e69f26b69c607cc79a8ca4868ee9383dc2d4a8f9baad8ffffffff02a5174000000000001976a914b36d5c6bbf2259a241d9ee61cbfe42649ad8d43388ac53468601000000001976a91471c2bf6481ff6b2ce0525b50b12dfc510c1a328888ac00000000"
    }, 
    {
      "txid": "2a4caf96424c0d744872bbd050be0a1b75993f2ed58bc4541c2bc14be8557694",
      "hash": "2a4caf96424c0d744872bbd050be0a1b75993f2ed58bc4541c2bc14be8557694",
      "version": 2,
      "size": 544,
      "vsize": 544,
      "locktime": 1360425,
      "vin": [
        {
          "txid": "cf61e7e24d76887fe09c479c26c50041ec71c317ae5491927c6c4de69bf5eef5",
          "vout": 15,
          "scriptSig": {
            "asm": "3045022100ce7f2732af362782a9671bd14594f98370ecd06878aee039564a8e2704e38b1b022041c0b67a4614227754ed71082ad0100c69c51b3d8a3a616325c621b57269b6c5[ALL] 0320028742345c4c36052ecb0e81b67c726004528d79aec11690e317dcc1363156",
            "hex": "483045022100ce7f2732af362782a9671bd14594f98370ecd06878aee039564a8e2704e38b1b022041c0b67a4614227754ed71082ad0100c69c51b3d8a3a616325c621b57269b6c501210320028742345c4c36052ecb0e81b67c726004528d79aec11690e317dcc1363156"
          },
          "sequence": 4294967294
        }
      ],
      "vout": [
        {
          "value": 0.11361956,
          "n": 0,
          "scriptPubKey": {
            "asm": "OP_HASH160 3f92812aa094f40241abab5d6b433e11c22598b1 OP_EQUAL",
            "hex": "a9143f92812aa094f40241abab5d6b433e11c22598b187",
            "reqSigs": 1,
            "type": "scripthash",
            "addresses": [
              "MDhJJq8FdCL59VDbnURWUD1ZrqxwVpVs9a"
            ]
          }
        }, 
        {
          "value": 0.26729030,
          "n": 1,
          "scriptPubKey": {
            "asm": "OP_HASH160 3d2f5e5ad0531eb7af046e753f4a80e8d0ceb57e OP_EQUAL",
            "hex": "a9143d2f5e5ad0531eb7af046e753f4a80e8d0ceb57e87",
            "reqSigs": 1,
            "type": "scripthash",
            "addresses": [
              "MDUgCMibYaHChebuWNVjfL9eGHTFJNPRHg"
            ]
          }
        }, 
        {
          "value": 0.29204330,
          "n": 2,
          "scriptPubKey": {
            "asm": "OP_HASH160 5d032f879bfaa087df46fa5558bf8e70d2325a44 OP_EQUAL",
            "hex": "a9145d032f879bfaa087df46fa5558bf8e70d2325a4487",
            "reqSigs": 1,
            "type": "scripthash",
            "addresses": [
              "MGNxtcaHwtDY3Pk8DLUKHcNC5FVJDyfjUk"
            ]
          }
        }, 
        {
          "value": 0.11083709,
          "n": 3,
          "scriptPubKey": {
            "asm": "OP_HASH160 6f6e63d6bcedf1cc8edef934dbb488075ea159a2 OP_EQUAL",
            "hex": "a9146f6e63d6bcedf1cc8edef934dbb488075ea159a287",
            "reqSigs": 1,
            "type": "scripthash",
            "addresses": [
              "MJ4MUkj6Tfy7LB1N1gvGUEKtZGCpdAXFRo"
            ]
          }
        }, 
        {
          "value": 0.75994475,
          "n": 4,
          "scriptPubKey": {
            "asm": "OP_DUP OP_HASH160 89575906b5988b12c3ac8fade90832aede506ad3 OP_EQUALVERIFY OP_CHECKSIG",
            "hex": "76a91489575906b5988b12c3ac8fade90832aede506ad388ac",
            "reqSigs": 1,
            "type": "pubkeyhash",
            "addresses": [
              "LXk9UXFmPKxbr5UCRNKbyK2moUFpdBd2zC"
            ]
          }
        }, 
        {
          "value": 0.04986242,
          "n": 5,
          "scriptPubKey": {
            "asm": "OP_HASH160 81fa36c9e2e7b7d1d025a39c4bd96eafc083cd7a OP_EQUAL",
            "hex": "a91481fa36c9e2e7b7d1d025a39c4bd96eafc083cd7a87",
            "reqSigs": 1,
            "type": "scripthash",
            "addresses": [
              "MKkR9MKFHNpKV4xob727Pyu2o6SL2iPviM"
            ]
          }
        }, 
        {
          "value": 0.01751881,
          "n": 6,
          "scriptPubKey": {
            "asm": "OP_HASH160 b70a943b0cf0af0a61542cb08269edb4ff68c635 OP_EQUAL",
            "hex": "a914b70a943b0cf0af0a61542cb08269edb4ff68c63587",
            "reqSigs": 1,
            "type": "scripthash",
            "addresses": [
              "MQazZaXEg9LdqXYkoCB4MxvryufcZWrGeF"
            ]
          }
        }, 
        {
          "value": 0.00407449,
          "n": 7,
          "scriptPubKey": {
            "asm": "OP_HASH160 b507f22f19e0caea73a00fc11ce4861862f47d0c OP_EQUAL",
            "hex": "a914b507f22f19e0caea73a00fc11ce4861862f47d0c87",
            "reqSigs": 1,
            "type": "scripthash",
            "addresses": [
              "MQQN4FY2vrKJJHLbH4896xowjJiszwQgD1"
            ]
          }
        }, 
        {
          "value": 0.07235043,
          "n": 8,
          "scriptPubKey": {
            "asm": "OP_HASH160 c79488a4bc078c315d1786ef5311e2c70622ce2e OP_EQUAL",
            "hex": "a914c79488a4bc078c315d1786ef5311e2c70622ce2e87",
            "reqSigs": 1,
            "type": "scripthash",
            "addresses": [
              "MS6SduoknA74wgsLk1tzjQaHrj7noA5Knt"
            ]
          }
        }, 
        {
          "value": 0.00836598,
          "n": 9,
          "scriptPubKey": {
            "asm": "OP_HASH160 d36026777ee741748300ab620e6d4498e440c7e8 OP_EQUAL",
            "hex": "a914d36026777ee741748300ab620e6d4498e440c7e887",
            "reqSigs": 1,
            "type": "scripthash",
            "addresses": [
              "MTAozYV6QH5C2WWJ7jNNHM1mZYHTjydtjW"
            ]
          }
        }, 
        {
          "value": 0.10050191,
          "n": 10,
          "scriptPubKey": {
            "asm": "OP_HASH160 d598f633d05692c3374b88b42cad52cafb889199 OP_EQUAL",
            "hex": "a914d598f633d05692c3374b88b42cad52cafb88919987",
            "reqSigs": 1,
            "type": "scripthash",
            "addresses": [
              "MTNZQFsfigW5bYZ59NiaJLSpVx36CCUFxv"
            ]
          }
        }, 
        {
          "value": 0.10324065,
          "n": 11,
          "scriptPubKey": {
            "asm": "OP_HASH160 e0831d7013a48787f18d4f1a60764262563ad3c4 OP_EQUAL",
            "hex": "a914e0831d7013a48787f18d4f1a60764262563ad3c487",
            "reqSigs": 1,
            "type": "scripthash",
            "addresses": [
              "MUNGfRs94ukXQ4kqYzr4sxN4cP4xirP6JC"
            ]
          }
        }
      ],
      "hex": "0200000001f5eef59be64d6c7c929154ae17c371ec4100c5269c479ce07f88764de2e761cf0f0000006b483045022100ce7f2732af362782a9671bd14594f98370ecd06878aee039564a8e2704e38b1b022041c0b67a4614227754ed71082ad0100c69c51b3d8a3a616325c621b57269b6c501210320028742345c4c36052ecb0e81b67c726004528d79aec11690e317dcc1363156feffffff0ca45ead000000000017a9143f92812aa094f40241abab5d6b433e11c22598b18746da97010000000017a9143d2f5e5ad0531eb7af046e753f4a80e8d0ceb57e876a9fbd010000000017a9145d032f879bfaa087df46fa5558bf8e70d2325a4487bd1fa9000000000017a9146f6e63d6bcedf1cc8edef934dbb488075ea159a2876b958704000000001976a91489575906b5988b12c3ac8fade90832aede506ad388ac82154c000000000017a91481fa36c9e2e7b7d1d025a39c4bd96eafc083cd7a8749bb1a000000000017a914b70a943b0cf0af0a61542cb08269edb4ff68c63587993706000000000017a914b507f22f19e0caea73a00fc11ce4861862f47d0c87e3656e000000000017a914c79488a4bc078c315d1786ef5311e2c70622ce2e87f6c30c000000000017a914d36026777ee741748300ab620e6d4498e440c7e8878f5a99000000000017a914d598f633d05692c3374b88b42cad52cafb8891998761889d000000000017a914e0831d7013a48787f18d4f1a60764262563ad3c48729c21400"
    }, 
    {
      "txid": "b39968aba89843ccbb054d02b2b11cc4cd732d53ed55d4d1c8134743709b50b5",
      "hash": "b39968aba89843ccbb054d02b2b11cc4cd732d53ed55d4d1c8134743709b50b5",
      "version": 1,
      "size": 226,
      "vsize": 226,
      "locktime": 0,
      "vin": [
        {
          "txid": "7b7c257b30252503d1d92935d432d46757793281fe3561bf92526645622e6f0f",
          "vout": 48,
          "scriptSig": {
            "asm": "3045022100fa508a37fcd64985a969223f0b59b0a9ef7216241195760413ff442ae93e4af702200ff4bb7d8ebf9546e4ccef7c4c2b3aaa3d3eb3ced354827beecac8cae2cb9530[ALL] 034773cde99db5729dbf228b59f9e3957372d35afccd49d82fc0ff18801fa64e5f",
            "hex": "483045022100fa508a37fcd64985a969223f0b59b0a9ef7216241195760413ff442ae93e4af702200ff4bb7d8ebf9546e4ccef7c4c2b3aaa3d3eb3ced354827beecac8cae2cb95300121034773cde99db5729dbf228b59f9e3957372d35afccd49d82fc0ff18801fa64e5f"
          },
          "sequence": 4294967295
        }
      ],
      "vout": [
        {
          "value": 0.93578000,
          "n": 0,
          "scriptPubKey": {
            "asm": "OP_DUP OP_HASH160 6fd0057bcd8ca5f49324cdb844826be494e55011 OP_EQUALVERIFY OP_CHECKSIG",
            "hex": "76a9146fd0057bcd8ca5f49324cdb844826be494e5501188ac",
            "reqSigs": 1,
            "type": "pubkeyhash",
            "addresses": [
              "LVRAU63pjjrYB6uNhdDtcm115cGzMEVhdM"
            ]
          }
        }, 
        {
          "value": 0.06399400,
          "n": 1,
          "scriptPubKey": {
            "asm": "OP_DUP OP_HASH160 d133dc391c84810f31404603f05e7c21d6881324 OP_EQUALVERIFY OP_CHECKSIG",
            "hex": "76a914d133dc391c84810f31404603f05e7c21d688132488ac",
            "reqSigs": 1,
            "type": "pubkeyhash",
            "addresses": [
              "LeJ7ccqSYP7peR3C35R4EhhywCnmxXtpvC"
            ]
          }
        }
      ],
      "hex": "01000000010f6f2e6245665292bf6135fe8132795767d432d43529d9d1032525307b257c7b300000006b483045022100fa508a37fcd64985a969223f0b59b0a9ef7216241195760413ff442ae93e4af702200ff4bb7d8ebf9546e4ccef7c4c2b3aaa3d3eb3ced354827beecac8cae2cb95300121034773cde99db5729dbf228b59f9e3957372d35afccd49d82fc0ff18801fa64e5fffffffff0210e39305000000001976a9146fd0057bcd8ca5f49324cdb844826be494e5501188aca8a56100000000001976a914d133dc391c84810f31404603f05e7c21d688132488ac00000000"
    }
  ],
  "time": 1517429607,
  "mediantime": 1517428552,
  "nonce": 88275059,
  "bits": "1a042eae",
  "difficulty": 4011378.762614286,
  "chainwork": "000000000000000000000000000000000000000000000034edbab2c0d3983358",
  "previousblockhash": "d9bed310a85d40b3a55a755a15cdfda17b40df04f0d2fe0ec004088ed0652839",
  "nextblockhash": "6f52174709e0936b4ad54b26bdf917d5abd7f061ae555eeca75ff4c189300104"
}
