{
  "hash": "fb4efa464a2a5f84e06c8aab9d5fb78b1146ea2c295ce7f2113c223cbde49477",
  "confirmations": 3341,
  "strippedsize": 3522,
  "size": 3558,
  "weight": 14124,
  "height": 1357654,
  "version": 536870912,
  "versionHex": "20000000",
  "merkleroot": "7b24651fda60206c7397e4d72c02772988d65038939bf8bcd741104433d5a661",
  "tx": [
    {
      "txid": "3342acc7e99c9e16361dbd0c61a8daaa2235fcee64b6a12520d7d6b271066fa7",
      "hash": "f70c2dcba7b259d758d5d90607230f061aaf460f33e45a4baa8ee54bdf20a8aa",
      "version": 1,
      "size": 236,
      "vsize": 209,
      "locktime": 0,
      "vin": [
        {
          "coinbase": "0356b714045a6c0eac2cfabe6d6d18c2d24dd496a40eaf9378325bbe0d8ec8ddd2b7f5d4143bfb871e6e9f3ddefb4000000000000000042f4c502f08220003ce3e270000",
          "sequence": 4294967295
        }
      ],
      "vout": [
        {
          "value": 25.02798870,
          "n": 0,
          "scriptPubKey": {
            "asm": "OP_DUP OP_HASH160 57757ed2ecf2052ff3126c397aca7defb9ca2cec OP_EQUALVERIFY OP_CHECKSIG",
            "hex": "76a91457757ed2ecf2052ff3126c397aca7defb9ca2cec88ac",
            "reqSigs": 1,
            "type": "pubkeyhash",
            "addresses": [
              "LTCPodGk5FwcJaRzH9yKnwicxzFUbxp6tN"
            ]
          }
        }, 
        {
          "value": 0.00000000,
          "n": 1,
          "scriptPubKey": {
            "asm": "OP_RETURN aa21a9edf6b522215692a933f70ffefbf2662058b104f9391b2442b87a000ff3630ca85f",
            "hex": "6a24aa21a9edf6b522215692a933f70ffefbf2662058b104f9391b2442b87a000ff3630ca85f",
            "type": "nulldata"
          }
        }
      ],
      "hex": "010000000001010000000000000000000000000000000000000000000000000000000000000000ffffffff440356b714045a6c0eac2cfabe6d6d18c2d24dd496a40eaf9378325bbe0d8ec8ddd2b7f5d4143bfb871e6e9f3ddefb4000000000000000042f4c502f08220003ce3e270000ffffffff0216ae2d95000000001976a91457757ed2ecf2052ff3126c397aca7defb9ca2cec88ac0000000000000000266a24aa21a9edf6b522215692a933f70ffefbf2662058b104f9391b2442b87a000ff3630ca85f0120000000000000000000000000000000000000000000000000000000000000000000000000"
    }, 
    {
      "txid": "a453ddb0866d3b3885a8b29aac934d468c7c5ef9579d5f88f1df45458848e29e",
      "hash": "a453ddb0866d3b3885a8b29aac934d468c7c5ef9579d5f88f1df45458848e29e",
      "version": 1,
      "size": 501,
      "vsize": 501,
      "locktime": 0,
      "vin": [
        {
          "txid": "fa18165ff0d140f08a06393eac12a2f65a007eb82129846a108fcd7d3294f0bf",
          "vout": 1,
          "scriptSig": {
            "asm": "0 3045022100cd2cb30d6895664ba4593d03eebdfb149ffa35686a17a23228be7583cee7fa9802202bf79f7ab08f5a8ac67101a1812ee9d268ca587f600200cc14867619c8fb65bb[ALL] 30450221009afb96b58890668a463d8ebb41bdcd1d63d7f34162f49d5c85dd792c8b8309ee0220059a44434ca45ceb44c3114034042448790b550a89887d1ac5601d324ae8ec4f[ALL] 52210389f79592930b5e86271ee8deaac2948ffd5aeb79c21fae8794de4d5fdb7c70fa2102c7ed76f4f53dcdc97164ca7f49593153a06a0e768c0337ef51b389407a6bad852102eac409567064fe38549e8f08b0eb8cf1885def3b90faf172a787a7f54e30718c53ae",
            "hex": "00483045022100cd2cb30d6895664ba4593d03eebdfb149ffa35686a17a23228be7583cee7fa9802202bf79f7ab08f5a8ac67101a1812ee9d268ca587f600200cc14867619c8fb65bb014830450221009afb96b58890668a463d8ebb41bdcd1d63d7f34162f49d5c85dd792c8b8309ee0220059a44434ca45ceb44c3114034042448790b550a89887d1ac5601d324ae8ec4f014c6952210389f79592930b5e86271ee8deaac2948ffd5aeb79c21fae8794de4d5fdb7c70fa2102c7ed76f4f53dcdc97164ca7f49593153a06a0e768c0337ef51b389407a6bad852102eac409567064fe38549e8f08b0eb8cf1885def3b90faf172a787a7f54e30718c53ae"
          },
          "sequence": 4294967295
        }
      ],
      "vout": [
        {
          "value": 2.36336000,
          "n": 0,
          "scriptPubKey": {
            "asm": "OP_HASH160 9b25a6fefe74e7100bf465055b3e38be492cbcd9 OP_EQUAL",
            "hex": "a9149b25a6fefe74e7100bf465055b3e38be492cbcd987",
            "reqSigs": 1,
            "type": "scripthash",
            "addresses": [
              "MN3W5HyjdMwNDX46iWbwYbPqLV1duD5nz8"
            ]
          }
        }, 
        {
          "value": 3.47596000,
          "n": 1,
          "scriptPubKey": {
            "asm": "OP_HASH160 2b2f65c9830050627f022958e0b304b056257a25 OP_EQUAL",
            "hex": "a9142b2f65c9830050627f022958e0b304b056257a2587",
            "reqSigs": 1,
            "type": "scripthash",
            "addresses": [
              "MBqW4vSsZs5dbX1HuAisnv4yCgctKgRYwh"
            ]
          }
        }, 
        {
          "value": 4.57233600,
          "n": 2,
          "scriptPubKey": {
            "asm": "OP_HASH160 fae75f02068f4128791e6b1ac6f289b3370cbbea OP_EQUAL",
            "hex": "a914fae75f02068f4128791e6b1ac6f289b3370cbbea87",
            "reqSigs": 1,
            "type": "scripthash",
            "addresses": [
              "MWmpLLQRJ1tpXfKmJEN1ssQehxQYvnfyyq"
            ]
          }
        }, 
        {
          "value": 3.00846000,
          "n": 3,
          "scriptPubKey": {
            "asm": "OP_HASH160 232d5fdaaa3511393434b87d299f2c9080c4310b OP_EQUAL",
            "hex": "a914232d5fdaaa3511393434b87d299f2c9080c4310b87",
            "reqSigs": 1,
            "type": "scripthash",
            "addresses": [
              "MB7AEpDiNppszFqydciPMdexwef1rfmtp7"
            ]
          }
        }, 
        {
          "value": 1.62516000,
          "n": 4,
          "scriptPubKey": {
            "asm": "OP_HASH160 09a87734d72c5cc5c4d10ecbd92ba5559eadb8a9 OP_EQUAL",
            "hex": "a91409a87734d72c5cc5c4d10ecbd92ba5559eadb8a987",
            "reqSigs": 1,
            "type": "scripthash",
            "addresses": [
              "M8nE8MZFg5ADJAKavwTfKMyn5DRTKzkzCA"
            ]
          }
        }, 
        {
          "value": 1.01673400,
          "n": 5,
          "scriptPubKey": {
            "asm": "OP_DUP OP_HASH160 b0e3092400b7b00511a39997fc558285b20bf011 OP_EQUALVERIFY OP_CHECKSIG",
            "hex": "76a914b0e3092400b7b00511a39997fc558285b20bf01188ac",
            "reqSigs": 1,
            "type": "pubkeyhash",
            "addresses": [
              "LbMFAh7xw9Wru4fGzCh735LdedS4HX3rnb"
            ]
          }
        }
      ],
      "hex": "0100000001bff094327dcd8f106a842921b87e005af6a212ac3e39068af040d1f05f1618fa01000000fdfe0000483045022100cd2cb30d6895664ba4593d03eebdfb149ffa35686a17a23228be7583cee7fa9802202bf79f7ab08f5a8ac67101a1812ee9d268ca587f600200cc14867619c8fb65bb014830450221009afb96b58890668a463d8ebb41bdcd1d63d7f34162f49d5c85dd792c8b8309ee0220059a44434ca45ceb44c3114034042448790b550a89887d1ac5601d324ae8ec4f014c6952210389f79592930b5e86271ee8deaac2948ffd5aeb79c21fae8794de4d5fdb7c70fa2102c7ed76f4f53dcdc97164ca7f49593153a06a0e768c0337ef51b389407a6bad852102eac409567064fe38549e8f08b0eb8cf1885def3b90faf172a787a7f54e30718c53aeffffffff068033160e0000000017a9149b25a6fefe74e7100bf465055b3e38be492cbcd987e0e4b7140000000017a9142b2f65c9830050627f022958e0b304b056257a2587c0d4401b0000000017a914fae75f02068f4128791e6b1ac6f289b3370cbbea87b08bee110000000017a914232d5fdaaa3511393434b87d299f2c9080c4310b8720ccaf090000000017a91409a87734d72c5cc5c4d10ecbd92ba5559eadb8a987b8690f06000000001976a914b0e3092400b7b00511a39997fc558285b20bf01188ac00000000"
    }, 
    {
      "txid": "30cb68c9245164d1fbaeb9470d3597a29dec0f071dea7e31a5eb035c89df2092",
      "hash": "30cb68c9245164d1fbaeb9470d3597a29dec0f071dea7e31a5eb035c89df2092",
      "version": 2,
      "size": 518,
      "vsize": 518,
      "locktime": 1357652,
      "vin": [
        {
          "txid": "ece63f24d3cbbb75d86d3b7c387971d05ad9f9205af663feef7a1b76fab16b3a",
          "vout": 0,
          "scriptSig": {
            "asm": "3044022025d84252f543a6a0e8d25929b4f55375159f71a6f6f05e5a1776861414544b1502202cbe360e3683e1565ad5d75757f2ca2ff41d57279bc6cd9d8df8012b35de6e19[ALL] 031f91815ff6a3cb56e1a6e16661e08af939ca8335c7bdf80f0d197738c24895c0",
            "hex": "473044022025d84252f543a6a0e8d25929b4f55375159f71a6f6f05e5a1776861414544b1502202cbe360e3683e1565ad5d75757f2ca2ff41d57279bc6cd9d8df8012b35de6e190121031f91815ff6a3cb56e1a6e16661e08af939ca8335c7bdf80f0d197738c24895c0"
          },
          "sequence": 4294967294
        }, 
        {
          "txid": "ceb6959882fb4c0e7552129639c748605b27e94ef67c4faca913b87092029186",
          "vout": 1,
          "scriptSig": {
            "asm": "3045022100b4b132d9b8f5675e38956edaa3f088b51b0bd446bb1445082c891fb2c54294e102203d878e911b0c272cc88b4aafcf990aabbb81d0fc721f2b160dc7a8057aeb3f11[ALL] 031ab685df0c21e80da1804ea0898cee3f098604731fcab72776d0c554eca03d81",
            "hex": "483045022100b4b132d9b8f5675e38956edaa3f088b51b0bd446bb1445082c891fb2c54294e102203d878e911b0c272cc88b4aafcf990aabbb81d0fc721f2b160dc7a8057aeb3f110121031ab685df0c21e80da1804ea0898cee3f098604731fcab72776d0c554eca03d81"
          },
          "sequence": 4294967294
        }, 
        {
          "txid": "bdd0b6aca3c927e278eafdcf33b47d248a8abf05932266069596d60627468de8",
          "vout": 1,
          "scriptSig": {
            "asm": "30440220622752ab4a99a3b795d139b5933af33e7d54cb23bb221d4c339199edc1e247fc02204376bbae2617b1e16838543029613d7c420a84470ec369e0ac1b498049fdee3e[ALL] 02309258642439f19344cf6c875e6516b4dc554d510d4cc219e0d7ffe7b5fb971c",
            "hex": "4730440220622752ab4a99a3b795d139b5933af33e7d54cb23bb221d4c339199edc1e247fc02204376bbae2617b1e16838543029613d7c420a84470ec369e0ac1b498049fdee3e012102309258642439f19344cf6c875e6516b4dc554d510d4cc219e0d7ffe7b5fb971c"
          },
          "sequence": 4294967294
        }
      ],
      "vout": [
        {
          "value": 0.05108600,
          "n": 0,
          "scriptPubKey": {
            "asm": "OP_DUP OP_HASH160 fe9eb26242704b6bd7578c0c0281a693071c688d OP_EQUALVERIFY OP_CHECKSIG",
            "hex": "76a914fe9eb26242704b6bd7578c0c0281a693071c688d88ac",
            "reqSigs": 1,
            "type": "pubkeyhash",
            "addresses": [
              "LiSG1PKrYTkgw1udn1EQcjGihwHoimiFpt"
            ]
          }
        }, 
        {
          "value": 500.00000000,
          "n": 1,
          "scriptPubKey": {
            "asm": "OP_HASH160 534dc78b2d6aaafe3d38c784a3618ccd02429e8b OP_EQUAL",
            "hex": "a914534dc78b2d6aaafe3d38c784a3618ccd02429e8b87",
            "reqSigs": 1,
            "type": "scripthash",
            "addresses": [
              "MFVdVZgPzX8ceqf6iMii3Nzw1wPL21iLge"
            ]
          }
        }
      ],
      "hex": "02000000033a6bb1fa761b7aeffe63f65a20f9d95ad07179387c3b6dd875bbcbd3243fe6ec000000006a473044022025d84252f543a6a0e8d25929b4f55375159f71a6f6f05e5a1776861414544b1502202cbe360e3683e1565ad5d75757f2ca2ff41d57279bc6cd9d8df8012b35de6e190121031f91815ff6a3cb56e1a6e16661e08af939ca8335c7bdf80f0d197738c24895c0feffffff8691029270b813a9ac4f7cf64ee9275b6048c739961252750e4cfb829895b6ce010000006b483045022100b4b132d9b8f5675e38956edaa3f088b51b0bd446bb1445082c891fb2c54294e102203d878e911b0c272cc88b4aafcf990aabbb81d0fc721f2b160dc7a8057aeb3f110121031ab685df0c21e80da1804ea0898cee3f098604731fcab72776d0c554eca03d81feffffffe88d462706d696950666229305bf8a8a247db433cffdea78e227c9a3acb6d0bd010000006a4730440220622752ab4a99a3b795d139b5933af33e7d54cb23bb221d4c339199edc1e247fc02204376bbae2617b1e16838543029613d7c420a84470ec369e0ac1b498049fdee3e012102309258642439f19344cf6c875e6516b4dc554d510d4cc219e0d7ffe7b5fb971cfeffffff0278f34d00000000001976a914fe9eb26242704b6bd7578c0c0281a693071c688d88ac00743ba40b00000017a914534dc78b2d6aaafe3d38c784a3618ccd02429e8b8754b71400"
    }, 
    {
      "txid": "d628028a079839c47e1601108a8be93a255546c98e80473f92840dfd65ab5254",
      "hash": "d628028a079839c47e1601108a8be93a255546c98e80473f92840dfd65ab5254",
      "version": 1,
      "size": 192,
      "vsize": 192,
      "locktime": 0,
      "vin": [
        {
          "txid": "3881d41cb5e478927e002b882f0b97454a05632450eaa6c5a4a73e0823c4482d",
          "vout": 1,
          "scriptSig": {
            "asm": "3045022100a050a4748eae35141dfad9a0f5e8a5feba9ed64532ab9c7c36c3ab97dc108e72022047d2164e8c4de47ea8fc6e0414ac576336aaf293fe600b5e3acf142e8b5ca58f[ALL] 027fc745bf736f0193ccdc97d014ce5706eba6f6520e416a482f3c9e0dc2883ac6",
            "hex": "483045022100a050a4748eae35141dfad9a0f5e8a5feba9ed64532ab9c7c36c3ab97dc108e72022047d2164e8c4de47ea8fc6e0414ac576336aaf293fe600b5e3acf142e8b5ca58f0121027fc745bf736f0193ccdc97d014ce5706eba6f6520e416a482f3c9e0dc2883ac6"
          },
          "sequence": 4294967295
        }
      ],
      "vout": [
        {
          "value": 0.72000000,
          "n": 0,
          "scriptPubKey": {
            "asm": "OP_DUP OP_HASH160 188fc21fcb98b610c3925cebaf496bccc9a6956c OP_EQUALVERIFY OP_CHECKSIG",
            "hex": "76a914188fc21fcb98b610c3925cebaf496bccc9a6956c88ac",
            "reqSigs": 1,
            "type": "pubkeyhash",
            "addresses": [
              "LMTphKRwQH8LPN1K8VsgGKYYu8pfLo6Wi7"
            ]
          }
        }
      ],
      "hex": "01000000012d48c423083ea7a4c5a6ea502463054a45970b2f882b007e9278e4b51cd48138010000006b483045022100a050a4748eae35141dfad9a0f5e8a5feba9ed64532ab9c7c36c3ab97dc108e72022047d2164e8c4de47ea8fc6e0414ac576336aaf293fe600b5e3acf142e8b5ca58f0121027fc745bf736f0193ccdc97d014ce5706eba6f6520e416a482f3c9e0dc2883ac6ffffffff0100a24a04000000001976a914188fc21fcb98b610c3925cebaf496bccc9a6956c88ac00000000"
    }, 
    {
      "txid": "051441a2cfbec7b664c2e0e226ed953a41db7c13b05e3e35c390817c90f0ba94",
      "hash": "051441a2cfbec7b664c2e0e226ed953a41db7c13b05e3e35c390817c90f0ba94",
      "version": 1,
      "size": 226,
      "vsize": 226,
      "locktime": 0,
      "vin": [
        {
          "txid": "4121599ceeef4b5d7d51399ea35e801c6887969057b7be765f665a7085b02025",
          "vout": 1,
          "scriptSig": {
            "asm": "3045022100874f7e0ff52fdbaf617f7c4a1e1823d5a406028ca1cf5244a6a94d8f7260be6d02201acbef1d6ff3726ac71585a687d5c7930f8df0e9c248873097e6da5c010c3b94[ALL] 0384a9a36de00797765bb8cbd04dabb5aa68695b13ab3d76e64a85d79f0c76db7f",
            "hex": "483045022100874f7e0ff52fdbaf617f7c4a1e1823d5a406028ca1cf5244a6a94d8f7260be6d02201acbef1d6ff3726ac71585a687d5c7930f8df0e9c248873097e6da5c010c3b9401210384a9a36de00797765bb8cbd04dabb5aa68695b13ab3d76e64a85d79f0c76db7f"
          },
          "sequence": 4294967295
        }
      ],
      "vout": [
        {
          "value": 76.04227864,
          "n": 0,
          "scriptPubKey": {
            "asm": "OP_DUP OP_HASH160 8a4fd1372b1dd683fede7d68f2332fae2e9c9f71 OP_EQUALVERIFY OP_CHECKSIG",
            "hex": "76a9148a4fd1372b1dd683fede7d68f2332fae2e9c9f7188ac",
            "reqSigs": 1,
            "type": "pubkeyhash",
            "addresses": [
              "LXqH8V6ZtsHBrURFbVxHR59KA24qcdosN3"
            ]
          }
        }, 
        {
          "value": 10.00000000,
          "n": 1,
          "scriptPubKey": {
            "asm": "OP_DUP OP_HASH160 45ccc9005278320bdd325cc1417a03f7f9504c4d OP_EQUALVERIFY OP_CHECKSIG",
            "hex": "76a91445ccc9005278320bdd325cc1417a03f7f9504c4d88ac",
            "reqSigs": 1,
            "type": "pubkeyhash",
            "addresses": [
              "LRb2DAv3LyUeRKwRWWFcCnBNWUnNprx1ik"
            ]
          }
        }
      ],
      "hex": "01000000012520b085705a665f76beb757909687681c805ea39e39517d5d4befee9c592141010000006b483045022100874f7e0ff52fdbaf617f7c4a1e1823d5a406028ca1cf5244a6a94d8f7260be6d02201acbef1d6ff3726ac71585a687d5c7930f8df0e9c248873097e6da5c010c3b9401210384a9a36de00797765bb8cbd04dabb5aa68695b13ab3d76e64a85d79f0c76db7fffffffff02184f3fc5010000001976a9148a4fd1372b1dd683fede7d68f2332fae2e9c9f7188ac00ca9a3b000000001976a91445ccc9005278320bdd325cc1417a03f7f9504c4d88ac00000000"
    }, 
    {
      "txid": "1a1199c66ede73fb9eb3f1cf84d8fc805f096f8fbe88f6162596662ead0b43ed",
      "hash": "1a1199c66ede73fb9eb3f1cf84d8fc805f096f8fbe88f6162596662ead0b43ed",
      "version": 2,
      "size": 226,
      "vsize": 226,
      "locktime": 1357652,
      "vin": [
        {
          "txid": "be5624465797c7bab0513d659b826eda2028b2fa9eb2be157d0b90a81a252cf9",
          "vout": 2,
          "scriptSig": {
            "asm": "3045022100aa59c30296aeb1f8f35cde3fa6c1c132ef7e57d35c121b621b03f86d2da3d53d022003774c340baa403d340abfcbaf38755e8133d6cd2e3b5bf9c9f7696cd0e77b77[ALL] 036d168562d94ee3874d8c2453d2e43a10b8e0ae4f2925da3cc73dff8c8277b202",
            "hex": "483045022100aa59c30296aeb1f8f35cde3fa6c1c132ef7e57d35c121b621b03f86d2da3d53d022003774c340baa403d340abfcbaf38755e8133d6cd2e3b5bf9c9f7696cd0e77b770121036d168562d94ee3874d8c2453d2e43a10b8e0ae4f2925da3cc73dff8c8277b202"
          },
          "sequence": 4294967294
        }
      ],
      "vout": [
        {
          "value": 1.99198760,
          "n": 0,
          "scriptPubKey": {
            "asm": "OP_DUP OP_HASH160 7b98fbdd9a2ffbf7686f283898ac9b20509020ce OP_EQUALVERIFY OP_CHECKSIG",
            "hex": "76a9147b98fbdd9a2ffbf7686f283898ac9b20509020ce88ac",
            "reqSigs": 1,
            "type": "pubkeyhash",
            "addresses": [
              "LWVUeK5CYSPDLtMK9X6qV5ckiuYq8mNfyc"
            ]
          }
        }, 
        {
          "value": 2.15700088,
          "n": 1,
          "scriptPubKey": {
            "asm": "OP_DUP OP_HASH160 0a1841e4219f4e776e841447fc8466919d991257 OP_EQUALVERIFY OP_CHECKSIG",
            "hex": "76a9140a1841e4219f4e776e841447fc8466919d99125788ac",
            "reqSigs": 1,
            "type": "pubkeyhash",
            "addresses": [
              "LL9L5ZfzWmeWwovKLjcSs14ZTE6FiCPvcg"
            ]
          }
        }
      ],
      "hex": "0200000001f92c251aa8900b7d15beb29efab22820da6e829b653d51b0bac79757462456be020000006b483045022100aa59c30296aeb1f8f35cde3fa6c1c132ef7e57d35c121b621b03f86d2da3d53d022003774c340baa403d340abfcbaf38755e8133d6cd2e3b5bf9c9f7696cd0e77b770121036d168562d94ee3874d8c2453d2e43a10b8e0ae4f2925da3cc73dff8c8277b202feffffff022888df0b000000001976a9147b98fbdd9a2ffbf7686f283898ac9b20509020ce88ac7852db0c000000001976a9140a1841e4219f4e776e841447fc8466919d99125788ac54b71400"
    }, 
    {
      "txid": "9aef211c047459ef5e2546e2baa4038346905fd9ce8c0a2c08674e5abb33da76",
      "hash": "9aef211c047459ef5e2546e2baa4038346905fd9ce8c0a2c08674e5abb33da76",
      "version": 2,
      "size": 226,
      "vsize": 226,
      "locktime": 1357652,
      "vin": [
        {
          "txid": "3c035b79bafdfa5628319bbd3b14bc561ae17718f11bfb7cdd3017d83c91fb67",
          "vout": 37,
          "scriptSig": {
            "asm": "3045022100d61c8a2af437af9b7266db1c0a5706bfd05dd1772ef6f6be811fc8e8a35709460220668f029b5bc1daa182e51ecba783aacecf8a6be46170d94b442f6b5ac8297dcd[ALL] 029c64dde00a65f6f855c6577053ea2d1e8c5488ea320959eba1890e25d46c0b08",
            "hex": "483045022100d61c8a2af437af9b7266db1c0a5706bfd05dd1772ef6f6be811fc8e8a35709460220668f029b5bc1daa182e51ecba783aacecf8a6be46170d94b442f6b5ac8297dcd0121029c64dde00a65f6f855c6577053ea2d1e8c5488ea320959eba1890e25d46c0b08"
          },
          "sequence": 4294967294
        }
      ],
      "vout": [
        {
          "value": 11.15366100,
          "n": 0,
          "scriptPubKey": {
            "asm": "OP_DUP OP_HASH160 7e6e00edcf047a7d46f9a67fc80b7ff9fafda37f OP_EQUALVERIFY OP_CHECKSIG",
            "hex": "76a9147e6e00edcf047a7d46f9a67fc80b7ff9fafda37f88ac",
            "reqSigs": 1,
            "type": "pubkeyhash",
            "addresses": [
              "LWkTBZzviUz51QcvUTQ4mBUNbu26DYYTRU"
            ]
          }
        }, 
        {
          "value": 4.00000000,
          "n": 1,
          "scriptPubKey": {
            "asm": "OP_DUP OP_HASH160 92c57e1ba91a22eacb7d5513e49b4e15b66c1982 OP_EQUALVERIFY OP_CHECKSIG",
            "hex": "76a91492c57e1ba91a22eacb7d5513e49b4e15b66c198288ac",
            "reqSigs": 1,
            "type": "pubkeyhash",
            "addresses": [
              "LYc1WFJGneLjxye64j3TnxgvBcQRUVhBFg"
            ]
          }
        }
      ],
      "hex": "020000000167fb913cd81730dd7cfb1bf11877e11a56bc143bbd9b312856fafdba795b033c250000006b483045022100d61c8a2af437af9b7266db1c0a5706bfd05dd1772ef6f6be811fc8e8a35709460220668f029b5bc1daa182e51ecba783aacecf8a6be46170d94b442f6b5ac8297dcd0121029c64dde00a65f6f855c6577053ea2d1e8c5488ea320959eba1890e25d46c0b08feffffff02d4227b42000000001976a9147e6e00edcf047a7d46f9a67fc80b7ff9fafda37f88ac0084d717000000001976a91492c57e1ba91a22eacb7d5513e49b4e15b66c198288ac54b71400"
    }, 
    {
      "txid": "afd46be90bb48504120ac75732009d35dc7559f6dcab8a46038214b07fc0965b",
      "hash": "afd46be90bb48504120ac75732009d35dc7559f6dcab8a46038214b07fc0965b",
      "version": 1,
      "size": 225,
      "vsize": 225,
      "locktime": 0,
      "vin": [
        {
          "txid": "9cf7052a9c31adca18d00f959e9ca92842c370068cf7a5465fd880f310be2616",
          "vout": 35,
          "scriptSig": {
            "asm": "304402204161c5405cefbb69fc58c3d4109ae72b5027ff6d6d6112091d10a0a6aa2ad0250220525e237c70278a530d045515944d3d0858ae7414e51370e46d8a914f556b32ce[ALL] 02b87f1d7bd88c4bfdfb0df886ed132ae2f629dd0f453f4c9805115f127c6f8b61",
            "hex": "47304402204161c5405cefbb69fc58c3d4109ae72b5027ff6d6d6112091d10a0a6aa2ad0250220525e237c70278a530d045515944d3d0858ae7414e51370e46d8a914f556b32ce012102b87f1d7bd88c4bfdfb0df886ed132ae2f629dd0f453f4c9805115f127c6f8b61"
          },
          "sequence": 4294967295
        }
      ],
      "vout": [
        {
          "value": 0.10481512,
          "n": 0,
          "scriptPubKey": {
            "asm": "OP_DUP OP_HASH160 9d2f92b764da15ec1040f2084589295367df0a24 OP_EQUALVERIFY OP_CHECKSIG",
            "hex": "76a9149d2f92b764da15ec1040f2084589295367df0a2488ac",
            "reqSigs": 1,
            "type": "pubkeyhash",
            "addresses": [
              "LZZ5LmW5NmtzqhNcxwZ1E3StWDLnohEMC4"
            ]
          }
        }, 
        {
          "value": 0.03495888,
          "n": 1,
          "scriptPubKey": {
            "asm": "OP_DUP OP_HASH160 138b915febcdcb4e070d188f7c12a04afd3069a6 OP_EQUALVERIFY OP_CHECKSIG",
            "hex": "76a914138b915febcdcb4e070d188f7c12a04afd3069a688ac",
            "reqSigs": 1,
            "type": "pubkeyhash",
            "addresses": [
              "LM1JJCkUrA64eqJZnyifvUrLUVTt72pc7K"
            ]
          }
        }
      ],
      "hex": "01000000011626be10f380d85f46a5f78c0670c34228a99c9e950fd018caad319c2a05f79c230000006a47304402204161c5405cefbb69fc58c3d4109ae72b5027ff6d6d6112091d10a0a6aa2ad0250220525e237c70278a530d045515944d3d0858ae7414e51370e46d8a914f556b32ce012102b87f1d7bd88c4bfdfb0df886ed132ae2f629dd0f453f4c9805115f127c6f8b61ffffffff0268ef9f00000000001976a9149d2f92b764da15ec1040f2084589295367df0a2488acd0573500000000001976a914138b915febcdcb4e070d188f7c12a04afd3069a688ac00000000"
    }, 
    {
      "txid": "43eccb412cbb36acd40fc703ccfc555b7d978c7d85a9e826a48ca8b58f6e9684",
      "hash": "43eccb412cbb36acd40fc703ccfc555b7d978c7d85a9e826a48ca8b58f6e9684",
      "version": 1,
      "size": 225,
      "vsize": 225,
      "locktime": 0,
      "vin": [
        {
          "txid": "3709cf3d792f69c048d424a83ea8bb0b707f66bacf4e1842ae9dc179b67929d6",
          "vout": 1,
          "scriptSig": {
            "asm": "304402201c50fdd4395f86675a59273163e30280e4c1c997ae0b3b19a1795399b3834fff0220556ec86fddefcf649fb027eabe5bad6b31c55617fc569eba6d745b413869e67d[ALL] 03f401e56295444da2d2af4878f0f6ab850cf6391adf05e2e29e65dc909f785d4a",
            "hex": "47304402201c50fdd4395f86675a59273163e30280e4c1c997ae0b3b19a1795399b3834fff0220556ec86fddefcf649fb027eabe5bad6b31c55617fc569eba6d745b413869e67d012103f401e56295444da2d2af4878f0f6ab850cf6391adf05e2e29e65dc909f785d4a"
          },
          "sequence": 4294967295
        }
      ],
      "vout": [
        {
          "value": 0.27718380,
          "n": 0,
          "scriptPubKey": {
            "asm": "OP_DUP OP_HASH160 13d76457a3ebce97e2ca8c791485b7e949488091 OP_EQUALVERIFY OP_CHECKSIG",
            "hex": "76a91413d76457a3ebce97e2ca8c791485b7e94948809188ac",
            "reqSigs": 1,
            "type": "pubkeyhash",
            "addresses": [
              "LM2s8Z4tahVkJFnz7dQUUnZznZpQwvVVqV"
            ]
          }
        }, 
        {
          "value": 0.13264017,
          "n": 1,
          "scriptPubKey": {
            "asm": "OP_DUP OP_HASH160 8fe80dd07cdb3a9d030b0c952c9db80b034cc102 OP_EQUALVERIFY OP_CHECKSIG",
            "hex": "76a9148fe80dd07cdb3a9d030b0c952c9db80b034cc10288ac",
            "reqSigs": 1,
            "type": "pubkeyhash",
            "addresses": [
              "LYLrt35rHnQy4SJg56NEZUZrNi4Ax1FTJg"
            ]
          }
        }
      ],
      "hex": "0100000001d62979b679c19dae42184ecfba667f700bbba83ea824d448c0692f793dcf0937010000006a47304402201c50fdd4395f86675a59273163e30280e4c1c997ae0b3b19a1795399b3834fff0220556ec86fddefcf649fb027eabe5bad6b31c55617fc569eba6d745b413869e67d012103f401e56295444da2d2af4878f0f6ab850cf6391adf05e2e29e65dc909f785d4affffffff02ecf2a601000000001976a91413d76457a3ebce97e2ca8c791485b7e94948809188ac9164ca00000000001976a9148fe80dd07cdb3a9d030b0c952c9db80b034cc10288ac00000000"
    }, 
    {
      "txid": "9bf15e2b3df4517c38d807dbf577f870dbb2247b27de7e681abbc07402ef938b",
      "hash": "9bf15e2b3df4517c38d807dbf577f870dbb2247b27de7e681abbc07402ef938b",
      "version": 1,
      "size": 225,
      "vsize": 225,
      "locktime": 0,
      "vin": [
        {
          "txid": "a76f75956b15d626c9e0e222ae725867e8e8b0aa79fce001546f4cdb6e45baf9",
          "vout": 1,
          "scriptSig": {
            "asm": "304402203df5056022db9b6c81bf68fd8031d232c508aa76d71da7eb4336f5755087b184022026075faf13022923f2b1ac0024490f33a69e0d1eb1f47f4564b277c647e19e97[ALL] 0246af9490bc84b666dce7f0a3070ae2202239a4062273e54be6dffae868fcad80",
            "hex": "47304402203df5056022db9b6c81bf68fd8031d232c508aa76d71da7eb4336f5755087b184022026075faf13022923f2b1ac0024490f33a69e0d1eb1f47f4564b277c647e19e9701210246af9490bc84b666dce7f0a3070ae2202239a4062273e54be6dffae868fcad80"
          },
          "sequence": 4294967295
        }
      ],
      "vout": [
        {
          "value": 62.56066178,
          "n": 0,
          "scriptPubKey": {
            "asm": "OP_DUP OP_HASH160 44a9c576e723ec950e5eb99c14113394270a913a OP_EQUALVERIFY OP_CHECKSIG",
            "hex": "76a91444a9c576e723ec950e5eb99c14113394270a913a88ac",
            "reqSigs": 1,
            "type": "pubkeyhash",
            "addresses": [
              "LRV1bBEvFkiK8kpShr3iZ5S7wrTc7X9jL9"
            ]
          }
        }, 
        {
          "value": 4.43206792,
          "n": 1,
          "scriptPubKey": {
            "asm": "OP_DUP OP_HASH160 dd0df783d136241b6f28fe6718ea6ae7e8eac9d0 OP_EQUALVERIFY OP_CHECKSIG",
            "hex": "76a914dd0df783d136241b6f28fe6718ea6ae7e8eac9d088ac",
            "reqSigs": 1,
            "type": "pubkeyhash",
            "addresses": [
              "LfNnL3NLdDJDS1N9BRbCPSfBmNXGkHuthR"
            ]
          }
        }
      ],
      "hex": "0100000001f9ba456edb4c6f5401e0fc79aab0e8e8675872ae22e2e0c926d6156b95756fa7010000006a47304402203df5056022db9b6c81bf68fd8031d232c508aa76d71da7eb4336f5755087b184022026075faf13022923f2b1ac0024490f33a69e0d1eb1f47f4564b277c647e19e9701210246af9490bc84b666dce7f0a3070ae2202239a4062273e54be6dffae868fcad80ffffffff0282fee374010000001976a91444a9c576e723ec950e5eb99c14113394270a913a88ac88cc6a1a000000001976a914dd0df783d136241b6f28fe6718ea6ae7e8eac9d088ac00000000"
    }, 
    {
      "txid": "373cb83acc83bad184ee68334f1305072b69b9d96c09dee0c2f33ffb8f9f68e4",
      "hash": "373cb83acc83bad184ee68334f1305072b69b9d96c09dee0c2f33ffb8f9f68e4",
      "version": 1,
      "size": 225,
      "vsize": 225,
      "locktime": 0,
      "vin": [
        {
          "txid": "7c9cb461cbbe18b48f4def6f5c3f8aaa9b51ad61e3cba8598818269b2b975b40",
          "vout": 0,
          "scriptSig": {
            "asm": "304402206cd0181d153027077cd09e47496ee8ac38cf5508b39125e1051ff4fdd17b9b0e0220383fee0206bd4da3c7e495e02c1dec4bef0688610d088411971a74aa5f8c3a48[ALL] 031e498381a24421fe9d9d1a81e0d7bc663210555710457c5a65d3de0e93fc8e4e",
            "hex": "47304402206cd0181d153027077cd09e47496ee8ac38cf5508b39125e1051ff4fdd17b9b0e0220383fee0206bd4da3c7e495e02c1dec4bef0688610d088411971a74aa5f8c3a480121031e498381a24421fe9d9d1a81e0d7bc663210555710457c5a65d3de0e93fc8e4e"
          },
          "sequence": 4294967295
        }
      ],
      "vout": [
        {
          "value": 0.22813480,
          "n": 0,
          "scriptPubKey": {
            "asm": "OP_DUP OP_HASH160 b0e14db29450330b8569068339a41db547a18d32 OP_EQUALVERIFY OP_CHECKSIG",
            "hex": "76a914b0e14db29450330b8569068339a41db547a18d3288ac",
            "reqSigs": 1,
            "type": "pubkeyhash",
            "addresses": [
              "LbMD6LWeARbT2hyD5gnYCVzsCvxAdy75TH"
            ]
          }
        }, 
        {
          "value": 0.01447060,
          "n": 1,
          "scriptPubKey": {
            "asm": "OP_DUP OP_HASH160 ac5a12c39edbdd2b0da72d37566a63c7a1433b94 OP_EQUALVERIFY OP_CHECKSIG",
            "hex": "76a914ac5a12c39edbdd2b0da72d37566a63c7a1433b9488ac",
            "reqSigs": 1,
            "type": "pubkeyhash",
            "addresses": [
              "LawGPcMCHoqV6Uh7wrNLRLp8wXVstb3DzS"
            ]
          }
        }
      ],
      "hex": "0100000001405b972b9b26188859a8cbe361ad519baa8a3f5c6fef4d8fb418becb61b49c7c000000006a47304402206cd0181d153027077cd09e47496ee8ac38cf5508b39125e1051ff4fdd17b9b0e0220383fee0206bd4da3c7e495e02c1dec4bef0688610d088411971a74aa5f8c3a480121031e498381a24421fe9d9d1a81e0d7bc663210555710457c5a65d3de0e93fc8e4effffffff02281b5c01000000001976a914b0e14db29450330b8569068339a41db547a18d3288ac94141600000000001976a914ac5a12c39edbdd2b0da72d37566a63c7a1433b9488ac00000000"
    }, 
    {
      "txid": "22b0d0d2f9776f64092dbc7e3c89a29547d378a8b5d7cc6124f3e453115f3093",
      "hash": "22b0d0d2f9776f64092dbc7e3c89a29547d378a8b5d7cc6124f3e453115f3093",
      "version": 1,
      "size": 226,
      "vsize": 226,
      "locktime": 0,
      "vin": [
        {
          "txid": "bb467204ba8abbcf5db9f6310cb44a41f8d151025c22bc9d09504a30adb04b02",
          "vout": 1,
          "scriptSig": {
            "asm": "3045022100967612e3e156f8d68f42960e04f95ab926bfae156d8aa5e4fc6bf299cfb21d5702207637dd24d61585e3b7d1cdcc22df2659ebe6109346faea3f4ed84b2aa593e137[ALL] 037ec119b0651149e3dcf73386392e504a8dcdfa160b41f5f628c4e3e87d4abd92",
            "hex": "483045022100967612e3e156f8d68f42960e04f95ab926bfae156d8aa5e4fc6bf299cfb21d5702207637dd24d61585e3b7d1cdcc22df2659ebe6109346faea3f4ed84b2aa593e1370121037ec119b0651149e3dcf73386392e504a8dcdfa160b41f5f628c4e3e87d4abd92"
          },
          "sequence": 4294967295
        }
      ],
      "vout": [
        {
          "value": 0.58038000,
          "n": 0,
          "scriptPubKey": {
            "asm": "OP_DUP OP_HASH160 05a5ae560d6aa9ebb7baacdfe09ddf74c9e80e49 OP_EQUALVERIFY OP_CHECKSIG",
            "hex": "76a91405a5ae560d6aa9ebb7baacdfe09ddf74c9e80e4988ac",
            "reqSigs": 1,
            "type": "pubkeyhash",
            "addresses": [
              "LKjp7tZsQHJLmeewEbuoV7WFg8i5b95t33"
            ]
          }
        }, 
        {
          "value": 0.10006477,
          "n": 1,
          "scriptPubKey": {
            "asm": "OP_DUP OP_HASH160 0f0b5dd6fd22018754e058c38b544c6195c15062 OP_EQUALVERIFY OP_CHECKSIG",
            "hex": "76a9140f0b5dd6fd22018754e058c38b544c6195c1506288ac",
            "reqSigs": 1,
            "type": "pubkeyhash",
            "addresses": [
              "LLbW1rRpi3tsrRqFyZw7vFy6yo3og8iJQN"
            ]
          }
        }
      ],
      "hex": "0100000001024bb0ad304a50099dbc225c0251d1f8414ab40c31f6b95dcfbb8aba047246bb010000006b483045022100967612e3e156f8d68f42960e04f95ab926bfae156d8aa5e4fc6bf299cfb21d5702207637dd24d61585e3b7d1cdcc22df2659ebe6109346faea3f4ed84b2aa593e1370121037ec119b0651149e3dcf73386392e504a8dcdfa160b41f5f628c4e3e87d4abd92ffffffff02f0967503000000001976a91405a5ae560d6aa9ebb7baacdfe09ddf74c9e80e4988accdaf9800000000001976a9140f0b5dd6fd22018754e058c38b544c6195c1506288ac00000000"
    }, 
    {
      "txid": "96b54f39d88fff9d6286812ceb48132f8b70e67a7d73137d69f4487ea35f8fe5",
      "hash": "96b54f39d88fff9d6286812ceb48132f8b70e67a7d73137d69f4487ea35f8fe5",
      "version": 2,
      "size": 226,
      "vsize": 226,
      "locktime": 1357652,
      "vin": [
        {
          "txid": "d9ce208184d87ab0af27172c642e4564433c5e6ee30286b392533d65538f37aa",
          "vout": 1,
          "scriptSig": {
            "asm": "3045022100de06b58c43554835f062197cecf8836bd7f68602a1ae7ea8021dae26682bf68b022043cdbb894da30ce9d46612198cdfaeec8ddf2293f4375e72ac7b249c02d37a1b[ALL] 026988676785eaa102173542b790af3cbbae90bb7c4a18ebb6473886043501c2fc",
            "hex": "483045022100de06b58c43554835f062197cecf8836bd7f68602a1ae7ea8021dae26682bf68b022043cdbb894da30ce9d46612198cdfaeec8ddf2293f4375e72ac7b249c02d37a1b0121026988676785eaa102173542b790af3cbbae90bb7c4a18ebb6473886043501c2fc"
          },
          "sequence": 4294967294
        }
      ],
      "vout": [
        {
          "value": 253.53661895,
          "n": 0,
          "scriptPubKey": {
            "asm": "OP_DUP OP_HASH160 c9a2dfe949be16e72b6f59edd44ee45251c021e7 OP_EQUALVERIFY OP_CHECKSIG",
            "hex": "76a914c9a2dfe949be16e72b6f59edd44ee45251c021e788ac",
            "reqSigs": 1,
            "type": "pubkeyhash",
            "addresses": [
              "Ldc7CVy5L7NGNpEmbwZa8nxih8hLYvajTv"
            ]
          }
        }, 
        {
          "value": 1.98000000,
          "n": 1,
          "scriptPubKey": {
            "asm": "OP_DUP OP_HASH160 4fcc9727c86fe12b7cb283e0b9840fa9bdbba8ef OP_EQUALVERIFY OP_CHECKSIG",
            "hex": "76a9144fcc9727c86fe12b7cb283e0b9840fa9bdbba8ef88ac",
            "reqSigs": 1,
            "type": "pubkeyhash",
            "addresses": [
              "LSVtjZWd3uE4JycW5nWTdCbjG844fYD9k1"
            ]
          }
        }
      ],
      "hex": "0200000001aa378f53653d5392b38602e36e5e3c4364452e642c1727afb07ad8848120ced9010000006b483045022100de06b58c43554835f062197cecf8836bd7f68602a1ae7ea8021dae26682bf68b022043cdbb894da30ce9d46612198cdfaeec8ddf2293f4375e72ac7b249c02d37a1b0121026988676785eaa102173542b790af3cbbae90bb7c4a18ebb6473886043501c2fcfeffffff02c72d32e7050000001976a914c9a2dfe949be16e72b6f59edd44ee45251c021e788ac803dcd0b000000001976a9144fcc9727c86fe12b7cb283e0b9840fa9bdbba8ef88ac54b71400"
    }
  ],
  "time": 1517031084,
  "mediantime": 1517030448,
  "nonce": 119888071,
  "bits": "1a047f14",
  "difficulty": 3731199.183374282,
  "chainwork": "000000000000000000000000000000000000000000000032698eee314a9115d6",
  "previousblockhash": "f1d2e9a768d00cc157d6d462b37eb2f1013f3775abea98b843939446895be48c",
  "nextblockhash": "2bcc381d28218892aac5425fc55475bc931ac86fe9389cbd05f88f3842d0556b"
}
