{
  "hash": "fb86867f0a1003901f3f20e945f7defe649b086224ed485a785d832dd43f161d",
  "confirmations": 2551,
  "strippedsize": 1613,
  "size": 1758,
  "weight": 6597,
  "height": 1358444,
  "version": 536870912,
  "versionHex": "20000000",
  "merkleroot": "92aa631ddacc8379454260d4693791fbbd4da47b6e4e6ab93e7cfa1bf1f49ab6",
  "tx": [
    {
      "txid": "16140ff201d91ed61812ee7f442784113fb9be01332ca92c42f56b66b7d535c7",
      "hash": "bb0da27c7fc173d03e3efd4069c86ddefeb4dde9307ad264012f0acb68815dee",
      "version": 1,
      "size": 240,
      "vsize": 213,
      "locktime": 0,
      "vin": [
        {
          "coinbase": "036cba140486c36d5a080300893b0c000000fabe6d6da4e4d65a4abb9efb1915330f4286366759c8d615fc2a5548bd301c2698e8ab214000000000000000092f4c54432e544f502f",
          "sequence": 0
        }
      ],
      "vout": [
        {
          "value": 25.00136300,
          "n": 0,
          "scriptPubKey": {
            "asm": "OP_DUP OP_HASH160 0c617fdb2ea42aed30a509595ee21ba3f6688db0 OP_EQUALVERIFY OP_CHECKSIG",
            "hex": "76a9140c617fdb2ea42aed30a509595ee21ba3f6688db088ac",
            "reqSigs": 1,
            "type": "pubkeyhash",
            "addresses": [
              "LLMRAtr3qBje2ySEa3CnZ55LA4TQMWnRY3"
            ]
          }
        }, 
        {
          "value": 0.00000000,
          "n": 1,
          "scriptPubKey": {
            "asm": "OP_RETURN aa21a9ed17d888b98acdb8f729f7d2d6401b1706cef1526320637681c23228d586cfdcbf",
            "hex": "6a24aa21a9ed17d888b98acdb8f729f7d2d6401b1706cef1526320637681c23228d586cfdcbf",
            "type": "nulldata"
          }
        }
      ],
      "hex": "010000000001010000000000000000000000000000000000000000000000000000000000000000ffffffff48036cba140486c36d5a080300893b0c000000fabe6d6da4e4d65a4abb9efb1915330f4286366759c8d615fc2a5548bd301c2698e8ab214000000000000000092f4c54432e544f502f00000000026c0d0595000000001976a9140c617fdb2ea42aed30a509595ee21ba3f6688db088ac0000000000000000266a24aa21a9ed17d888b98acdb8f729f7d2d6401b1706cef1526320637681c23228d586cfdcbf0120000000000000000000000000000000000000000000000000000000000000000000000000"
    }, 
    {
      "txid": "0b3af8c58e34db0f0a4bb8e7660b90be75c9dd1a59107b403d19e93317f78281",
      "hash": "00294cbf1cca63f74b5d5ab1f3f556173a44287e7e5e6fe5fb802d1187f2d683",
      "version": 1,
      "size": 249,
      "vsize": 168,
      "locktime": 0,
      "vin": [
        {
          "txid": "320ba5b82ecbcb76654bcd2203a07e29881ca37ee57b9443b61c467b8bd36955",
          "vout": 1,
          "scriptSig": {
            "asm": "0014763ad685d107bd7a7fe3d3a7df4c7c6af471f723",
            "hex": "160014763ad685d107bd7a7fe3d3a7df4c7c6af471f723"
          },
          "txinwitness": [
            "304402203b2c599dccd3463b52cffd7ace28f2884f57bc2b2b148ad36e913880d2fefd4002203efb7fff33311ac0e6b1d4049d895b00377b500c09323295457a6de34fa4fd7201", 
            "02b4b41884ae09061e6a4efb43cebe25aab71cd0da9cc74a800674d2ee902b9e44"
          ],
          "sequence": 4294967295
        }
      ],
      "vout": [
        {
          "value": 1.46324267,
          "n": 0,
          "scriptPubKey": {
            "asm": "OP_HASH160 094f917db8a5ac4aa1a416a14bd2fdf629c38a41 OP_EQUAL",
            "hex": "a914094f917db8a5ac4aa1a416a14bd2fdf629c38a4187",
            "reqSigs": 1,
            "type": "scripthash",
            "addresses": [
              "M8kPdfH75fCwSaLAJ4V84PvbZFmHKJ92Li"
            ]
          }
        }, 
        {
          "value": 2.50000000,
          "n": 1,
          "scriptPubKey": {
            "asm": "OP_DUP OP_HASH160 f7c5c5b5dfeaf528b66c7368db35cddd64ee954b OP_EQUALVERIFY OP_CHECKSIG",
            "hex": "76a914f7c5c5b5dfeaf528b66c7368db35cddd64ee954b88ac",
            "reqSigs": 1,
            "type": "pubkeyhash",
            "addresses": [
              "Lhp464CEvH97BjbPw37ovDeGB3jnnrwFib"
            ]
          }
        }
      ],
      "hex": "010000000001015569d38b7b461cb643947be57ea31c88297ea00322cd4b6576cbcb2eb8a50b320100000017160014763ad685d107bd7a7fe3d3a7df4c7c6af471f723ffffffff022bbbb8080000000017a914094f917db8a5ac4aa1a416a14bd2fdf629c38a418780b2e60e000000001976a914f7c5c5b5dfeaf528b66c7368db35cddd64ee954b88ac0247304402203b2c599dccd3463b52cffd7ace28f2884f57bc2b2b148ad36e913880d2fefd4002203efb7fff33311ac0e6b1d4049d895b00377b500c09323295457a6de34fa4fd72012102b4b41884ae09061e6a4efb43cebe25aab71cd0da9cc74a800674d2ee902b9e4400000000"
    }, 
    {
      "txid": "cbc402cf1f009682f5869c5450d5bace9c90584511d996d9c907c9b7a7e3e0bf",
      "hash": "cbc402cf1f009682f5869c5450d5bace9c90584511d996d9c907c9b7a7e3e0bf",
      "version": 2,
      "size": 962,
      "vsize": 962,
      "locktime": 1358357,
      "vin": [
        {
          "txid": "4f0f24df56a1c2b1ca78dce9e9d6d8fab4790b3695583302b78c0990b736208d",
          "vout": 0,
          "scriptSig": {
            "asm": "3044022007ee7690351675addc0575c6b2d8fabd1d90616432c00b4e15f769c75104de0a02201dd5e0994f2ff5cc3f49be2226b4b8fbf46e744ebee6c2753f763f6a2eca4182[ALL] 0259ea4e252b9d50bf0f1af18e662d072cdc71a896346b812f6389c5526b3f5069",
            "hex": "473044022007ee7690351675addc0575c6b2d8fabd1d90616432c00b4e15f769c75104de0a02201dd5e0994f2ff5cc3f49be2226b4b8fbf46e744ebee6c2753f763f6a2eca418201210259ea4e252b9d50bf0f1af18e662d072cdc71a896346b812f6389c5526b3f5069"
          },
          "sequence": 4294967294
        }, 
        {
          "txid": "42efd03bf92abf851c048ecea28ac9048e0740361abba45e90da8186860f8839",
          "vout": 3,
          "scriptSig": {
            "asm": "30440220328a2a86207dee24bd4d6d7d59e75b109391ee6ab9b1b6756554f8e768b2f6db022003797e23574449a684e95b9507e4d63115627569445e30bd77f44397cbe8edc1[ALL] 036f8d2ed05817027a2a2a0ef3518bf76f72c3738fa3821044dc0173729943247e",
            "hex": "4730440220328a2a86207dee24bd4d6d7d59e75b109391ee6ab9b1b6756554f8e768b2f6db022003797e23574449a684e95b9507e4d63115627569445e30bd77f44397cbe8edc10121036f8d2ed05817027a2a2a0ef3518bf76f72c3738fa3821044dc0173729943247e"
          },
          "sequence": 4294967294
        }, 
        {
          "txid": "fcc19e09993d2120a7c60903b74c9580b6cd73a8bb6ac934dee458894582ad88",
          "vout": 7,
          "scriptSig": {
            "asm": "30450221008bac03d431c9f8fbcdc9d8956bce047ff81169512ba98343eaa9d2f5397bad60022030e559533c9168b6db7f8b9398c90d3a83bee613ddb7101abf640bdb6ce2692a[ALL] 0350859a4fceee5da6ace0e7d4fe880c45e95cbee415facf4236ac4f7ca4266e8e",
            "hex": "4830450221008bac03d431c9f8fbcdc9d8956bce047ff81169512ba98343eaa9d2f5397bad60022030e559533c9168b6db7f8b9398c90d3a83bee613ddb7101abf640bdb6ce2692a01210350859a4fceee5da6ace0e7d4fe880c45e95cbee415facf4236ac4f7ca4266e8e"
          },
          "sequence": 4294967294
        }, 
        {
          "txid": "6b1d5b12c34ff5e0cda645465a91ac97ab4062c3e040216b057007ab177b9f2c",
          "vout": 0,
          "scriptSig": {
            "asm": "30440220367cbc9c1ad60e44d755a1c9bceb817ce58be490b71e517bac21e3bcdc9094620220050a31e5ee61919e4534619e7ac98a8a0ba06107577103eba92b1cc5130d0146[ALL] 0257fe48cdc9bf523a3adbbd09d4e31b1df43a6c1615f157a424fee61026bb0f10",
            "hex": "4730440220367cbc9c1ad60e44d755a1c9bceb817ce58be490b71e517bac21e3bcdc9094620220050a31e5ee61919e4534619e7ac98a8a0ba06107577103eba92b1cc5130d014601210257fe48cdc9bf523a3adbbd09d4e31b1df43a6c1615f157a424fee61026bb0f10"
          },
          "sequence": 4294967294
        }, 
        {
          "txid": "beb61c0edc997567093eef1f690600635212c34ee899e4a7dea0e1a816f8bd68",
          "vout": 0,
          "scriptSig": {
            "asm": "30450221008b821ba411fbaa3b8847a3817a87c10e5eba64b9a44bc4646f71681d0fa47b5902207ae336a82840d07df461b10ed3f8090b1f2d8d63f768ed403a019d5748c58059[ALL] 03ec1de0eaeea027dc35aadf6a1106332bf45bf759282186d76e7252fe29eca891",
            "hex": "4830450221008b821ba411fbaa3b8847a3817a87c10e5eba64b9a44bc4646f71681d0fa47b5902207ae336a82840d07df461b10ed3f8090b1f2d8d63f768ed403a019d5748c58059012103ec1de0eaeea027dc35aadf6a1106332bf45bf759282186d76e7252fe29eca891"
          },
          "sequence": 4294967294
        }, 
        {
          "txid": "1c5ec0942d09cff1c087f35beb285221dd25a6c1f989a775ea163c761f88e6bc",
          "vout": 1,
          "scriptSig": {
            "asm": "3044022022961e1f9d9346c792d79b91a83f5d81c05e9a5dbeb006bed1dd41e83b2fade602201bb112a3ca5d6437b26dea33436d26a82e3e18fb0d27b19b8505c14ed97ee300[ALL] 0223e35f49f9061e52c99fb5028aff3d6a0eb99fa03e1453166ff0c6eef4b7c171",
            "hex": "473044022022961e1f9d9346c792d79b91a83f5d81c05e9a5dbeb006bed1dd41e83b2fade602201bb112a3ca5d6437b26dea33436d26a82e3e18fb0d27b19b8505c14ed97ee30001210223e35f49f9061e52c99fb5028aff3d6a0eb99fa03e1453166ff0c6eef4b7c171"
          },
          "sequence": 4294967294
        }
      ],
      "vout": [
        {
          "value": 4.00000000,
          "n": 0,
          "scriptPubKey": {
            "asm": "OP_DUP OP_HASH160 950f7c0c9f7bb236d0f16865cefc9d81a3b05dc0 OP_EQUALVERIFY OP_CHECKSIG",
            "hex": "76a914950f7c0c9f7bb236d0f16865cefc9d81a3b05dc088ac",
            "reqSigs": 1,
            "type": "pubkeyhash",
            "addresses": [
              "LYp7VgXjEb1pi6vtqZknLrTc6vZJTEzAdG"
            ]
          }
        }, 
        {
          "value": 0.01334436,
          "n": 1,
          "scriptPubKey": {
            "asm": "OP_DUP OP_HASH160 c838fe7c9d1319bdce959215d2326a686f07a5be OP_EQUALVERIFY OP_CHECKSIG",
            "hex": "76a914c838fe7c9d1319bdce959215d2326a686f07a5be88ac",
            "reqSigs": 1,
            "type": "pubkeyhash",
            "addresses": [
              "LdUdgbdKmCbWEE8ztmgtDgSukNyixTHoPs"
            ]
          }
        }
      ],
      "hex": "02000000068d2036b790098cb702335895360b79b4fad8d6e9e9dc78cab1c2a156df240f4f000000006a473044022007ee7690351675addc0575c6b2d8fabd1d90616432c00b4e15f769c75104de0a02201dd5e0994f2ff5cc3f49be2226b4b8fbf46e744ebee6c2753f763f6a2eca418201210259ea4e252b9d50bf0f1af18e662d072cdc71a896346b812f6389c5526b3f5069feffffff39880f868681da905ea4bb1a3640078e04c98aa2ce8e041c85bf2af93bd0ef42030000006a4730440220328a2a86207dee24bd4d6d7d59e75b109391ee6ab9b1b6756554f8e768b2f6db022003797e23574449a684e95b9507e4d63115627569445e30bd77f44397cbe8edc10121036f8d2ed05817027a2a2a0ef3518bf76f72c3738fa3821044dc0173729943247efeffffff88ad82458958e4de34c96abba873cdb680954cb70309c6a720213d99099ec1fc070000006b4830450221008bac03d431c9f8fbcdc9d8956bce047ff81169512ba98343eaa9d2f5397bad60022030e559533c9168b6db7f8b9398c90d3a83bee613ddb7101abf640bdb6ce2692a01210350859a4fceee5da6ace0e7d4fe880c45e95cbee415facf4236ac4f7ca4266e8efeffffff2c9f7b17ab0770056b2140e0c36240ab97ac915a4645a6cde0f54fc3125b1d6b000000006a4730440220367cbc9c1ad60e44d755a1c9bceb817ce58be490b71e517bac21e3bcdc9094620220050a31e5ee61919e4534619e7ac98a8a0ba06107577103eba92b1cc5130d014601210257fe48cdc9bf523a3adbbd09d4e31b1df43a6c1615f157a424fee61026bb0f10feffffff68bdf816a8e1a0dea7e499e84ec31252630006691fef3e09677599dc0e1cb6be000000006b4830450221008b821ba411fbaa3b8847a3817a87c10e5eba64b9a44bc4646f71681d0fa47b5902207ae336a82840d07df461b10ed3f8090b1f2d8d63f768ed403a019d5748c58059012103ec1de0eaeea027dc35aadf6a1106332bf45bf759282186d76e7252fe29eca891feffffffbce6881f763c16ea75a789f9c1a625dd215228eb5bf387c0f1cf092d94c05e1c010000006a473044022022961e1f9d9346c792d79b91a83f5d81c05e9a5dbeb006bed1dd41e83b2fade602201bb112a3ca5d6437b26dea33436d26a82e3e18fb0d27b19b8505c14ed97ee30001210223e35f49f9061e52c99fb5028aff3d6a0eb99fa03e1453166ff0c6eef4b7c171feffffff020084d717000000001976a914950f7c0c9f7bb236d0f16865cefc9d81a3b05dc088aca45c1400000000001976a914c838fe7c9d1319bdce959215d2326a686f07a5be88ac15ba1400"
    }, 
    {
      "txid": "79fc292ade2f43d98f85dde7a3181bce83f9c0be47b65e5196be42b3a95b81e5",
      "hash": "79fc292ade2f43d98f85dde7a3181bce83f9c0be47b65e5196be42b3a95b81e5",
      "version": 1,
      "size": 226,
      "vsize": 226,
      "locktime": 0,
      "vin": [
        {
          "txid": "a9b5b89084f8fd07056100db6c4bd6ebb3770777b0dd334e2fe5a557d35a61fa",
          "vout": 1,
          "scriptSig": {
            "asm": "3045022100f477f4743930aa9370760ad90a04f0446a8906b6a2c7a2f2b7d7e91197fa4cbb022018b19b95caa23cb44bc9f1d67c68907f594e4bf7157c3f255d4cc9b4cc123eea[ALL] 03d63bbdc746a4b51279c4d761d390cb734176f6d59db86092691937d33abe0902",
            "hex": "483045022100f477f4743930aa9370760ad90a04f0446a8906b6a2c7a2f2b7d7e91197fa4cbb022018b19b95caa23cb44bc9f1d67c68907f594e4bf7157c3f255d4cc9b4cc123eea012103d63bbdc746a4b51279c4d761d390cb734176f6d59db86092691937d33abe0902"
          },
          "sequence": 4294967295
        }
      ],
      "vout": [
        {
          "value": 0.08282541,
          "n": 0,
          "scriptPubKey": {
            "asm": "OP_DUP OP_HASH160 f9f15641df53af8ccb7cd42e70d3ca2011626de9 OP_EQUALVERIFY OP_CHECKSIG",
            "hex": "76a914f9f15641df53af8ccb7cd42e70d3ca2011626de988ac",
            "reqSigs": 1,
            "type": "pubkeyhash",
            "addresses": [
              "Li1XdN3AyXcAnfhfpxKR4FLGL4LCXa8SJi"
            ]
          }
        }, 
        {
          "value": 0.00120338,
          "n": 1,
          "scriptPubKey": {
            "asm": "OP_DUP OP_HASH160 c17541611641c089aed3272db32dd2f200ef1f58 OP_EQUALVERIFY OP_CHECKSIG",
            "hex": "76a914c17541611641c089aed3272db32dd2f200ef1f5888ac",
            "reqSigs": 1,
            "type": "pubkeyhash",
            "addresses": [
              "Lcrs9HPmemogTC4Q6fpJ68fpUPETAXK2MC"
            ]
          }
        }
      ],
      "hex": "0100000001fa615ad357a5e52f4e33ddb0770777b3ebd64b6cdb00610507fdf88490b8b5a9010000006b483045022100f477f4743930aa9370760ad90a04f0446a8906b6a2c7a2f2b7d7e91197fa4cbb022018b19b95caa23cb44bc9f1d67c68907f594e4bf7157c3f255d4cc9b4cc123eea012103d63bbdc746a4b51279c4d761d390cb734176f6d59db86092691937d33abe0902ffffffff02ad617e00000000001976a914f9f15641df53af8ccb7cd42e70d3ca2011626de988ac12d60100000000001976a914c17541611641c089aed3272db32dd2f200ef1f5888ac00000000"
    }
  ],
  "time": 1517142646,
  "mediantime": 1517142039,
  "nonce": 2039290188,
  "bits": "1a047f14",
  "difficulty": 3731199.183374282,
  "chainwork": "0000000000000000000000000000000000000000000000331941255e5f5b8e12",
  "previousblockhash": "143312e1df7571d537c891ae47f7c04fb8a4255578cdc4f206158f099ffe7939",
  "nextblockhash": "a6058ad46886e694186eee0ff8ef8b80165879fd0095aae2751aed2a53af2833"
}
