{
  "hash": "fba0cc3c03ebe748ac62a2f0a72b3f73e2b131eec8930ebcdda1c523c7b6314b",
  "confirmations": 3017,
  "strippedsize": 2457,
  "size": 2493,
  "weight": 9864,
  "height": 1357978,
  "version": 536870912,
  "versionHex": "20000000",
  "merkleroot": "919a79a9ca15243d8d9efae38d617721a08092c5350bbb95bd9b440b8b3bab5b",
  "tx": [
    {
      "txid": "efa9f7a835ec102d96e3c256b4f28bf1e6426a17207eb340e8223636a62792e1",
      "hash": "5215a568fe9774acee36b1cec1d60c2c8cf69f32b1dd9d3a00f87a644472a8d3",
      "version": 1,
      "size": 236,
      "vsize": 209,
      "locktime": 0,
      "vin": [
        {
          "coinbase": "039ab814045a6cace32cfabe6d6de5dbbfe9071eaca417544209768939f0df169bb6d8fad8ea8aec96bd5aef593a4000000000000000042f4c502f085c00727d1f000000",
          "sequence": 4294967295
        }
      ],
      "vout": [
        {
          "value": 25.00662400,
          "n": 0,
          "scriptPubKey": {
            "asm": "OP_DUP OP_HASH160 57757ed2ecf2052ff3126c397aca7defb9ca2cec OP_EQUALVERIFY OP_CHECKSIG",
            "hex": "76a91457757ed2ecf2052ff3126c397aca7defb9ca2cec88ac",
            "reqSigs": 1,
            "type": "pubkeyhash",
            "addresses": [
              "LTCPodGk5FwcJaRzH9yKnwicxzFUbxp6tN"
            ]
          }
        }, 
        {
          "value": 0.00000000,
          "n": 1,
          "scriptPubKey": {
            "asm": "OP_RETURN aa21a9ed034ba0c7e315198c90bd1bd6895bda5f254a61b1fd63a4d5d6e9fd665c1223c7",
            "hex": "6a24aa21a9ed034ba0c7e315198c90bd1bd6895bda5f254a61b1fd63a4d5d6e9fd665c1223c7",
            "type": "nulldata"
          }
        }
      ],
      "hex": "010000000001010000000000000000000000000000000000000000000000000000000000000000ffffffff44039ab814045a6cace32cfabe6d6de5dbbfe9071eaca417544209768939f0df169bb6d8fad8ea8aec96bd5aef593a4000000000000000042f4c502f085c00727d1f000000ffffffff0280140d95000000001976a91457757ed2ecf2052ff3126c397aca7defb9ca2cec88ac0000000000000000266a24aa21a9ed034ba0c7e315198c90bd1bd6895bda5f254a61b1fd63a4d5d6e9fd665c1223c70120000000000000000000000000000000000000000000000000000000000000000000000000"
    }, 
    {
      "txid": "b9c3371e17e5db3c92789def81c3e65737bee941d8e4ca51d20faf89adf2066e",
      "hash": "b9c3371e17e5db3c92789def81c3e65737bee941d8e4ca51d20faf89adf2066e",
      "version": 1,
      "size": 192,
      "vsize": 192,
      "locktime": 0,
      "vin": [
        {
          "txid": "9dc0d47fd8f56bcce3de657993840dfcdb7f15957fccc63b0cf175b258e3e3d5",
          "vout": 1,
          "scriptSig": {
            "asm": "3045022100832386fbdcda38a5f08f95bfb905b6d8371d132e50d90ae26b3bfd298c821a4002204e959b9faa05155f9b500f106b51dc02604d0b34292349596eb1f564b0c9f248[ALL] 0375b53a00d8a94d18ec59fdfa711896d2702eeb08d416837ca7f65dccfad93471",
            "hex": "483045022100832386fbdcda38a5f08f95bfb905b6d8371d132e50d90ae26b3bfd298c821a4002204e959b9faa05155f9b500f106b51dc02604d0b34292349596eb1f564b0c9f24801210375b53a00d8a94d18ec59fdfa711896d2702eeb08d416837ca7f65dccfad93471"
          },
          "sequence": 4294967295
        }
      ],
      "vout": [
        {
          "value": 1.44866274,
          "n": 0,
          "scriptPubKey": {
            "asm": "OP_DUP OP_HASH160 0ecaf7959a77aa42d63b6d29b97a9f71be7135b4 OP_EQUALVERIFY OP_CHECKSIG",
            "hex": "76a9140ecaf7959a77aa42d63b6d29b97a9f71be7135b488ac",
            "reqSigs": 1,
            "type": "pubkeyhash",
            "addresses": [
              "LLaAsJTaaouA54rgBiRWZ17QdfPi88wkSg"
            ]
          }
        }
      ],
      "hex": "0100000001d5e3e358b275f10c3bc6cc7f95157fdbfc0d84937965dee3cc6bf5d87fd4c09d010000006b483045022100832386fbdcda38a5f08f95bfb905b6d8371d132e50d90ae26b3bfd298c821a4002204e959b9faa05155f9b500f106b51dc02604d0b34292349596eb1f564b0c9f24801210375b53a00d8a94d18ec59fdfa711896d2702eeb08d416837ca7f65dccfad93471ffffffff01e27ba208000000001976a9140ecaf7959a77aa42d63b6d29b97a9f71be7135b488ac00000000"
    }, 
    {
      "txid": "263ceb8291c4b9b83f5e0f1076d41bc0260020ce74435312a02ac4bab4012040",
      "hash": "263ceb8291c4b9b83f5e0f1076d41bc0260020ce74435312a02ac4bab4012040",
      "version": 1,
      "size": 338,
      "vsize": 338,
      "locktime": 0,
      "vin": [
        {
          "txid": "0b623327133b924e027680e672582c1981e70127a9177a70c1011c24c7179308",
          "vout": 0,
          "scriptSig": {
            "asm": "304402201d97f18fe6e431f3446ef5a84ba20e82b35cd45d689ef8c2b9a5172f3e84860b02201489442090ec71f16a44f33ae5a6eef026a530359e63bca89b0902122bd31cad[ALL] 03953f22eb6536e5dd66efb6ed5ca84a6240dd560f09aede601a6a7bf9f9623a88",
            "hex": "47304402201d97f18fe6e431f3446ef5a84ba20e82b35cd45d689ef8c2b9a5172f3e84860b02201489442090ec71f16a44f33ae5a6eef026a530359e63bca89b0902122bd31cad012103953f22eb6536e5dd66efb6ed5ca84a6240dd560f09aede601a6a7bf9f9623a88"
          },
          "sequence": 4294967294
        }, 
        {
          "txid": "934746440822a94075d575fedd51ebd837f6d01af6590c426c07a1a237db9438",
          "vout": 0,
          "scriptSig": {
            "asm": "30440220181236de3b52b62d265cc2fd03c794aed522364c49c003560ee042e01cee484202200eac72b74922dfbd202c8ddbc88839996b70726c193f5bffb7743586dd9d4c8c[ALL] 0386ba90a539e0859215221f32732d3b306f2c301c2701c60a5d2d6b8550267fa8",
            "hex": "4730440220181236de3b52b62d265cc2fd03c794aed522364c49c003560ee042e01cee484202200eac72b74922dfbd202c8ddbc88839996b70726c193f5bffb7743586dd9d4c8c01210386ba90a539e0859215221f32732d3b306f2c301c2701c60a5d2d6b8550267fa8"
          },
          "sequence": 4294967294
        }
      ],
      "vout": [
        {
          "value": 0.15655600,
          "n": 0,
          "scriptPubKey": {
            "asm": "OP_DUP OP_HASH160 1f8d4d050fb85f9cb2076a8959ec02b2f9424cb6 OP_EQUALVERIFY OP_CHECKSIG",
            "hex": "76a9141f8d4d050fb85f9cb2076a8959ec02b2f9424cb688ac",
            "reqSigs": 1,
            "type": "pubkeyhash",
            "addresses": [
              "LN6nUv44eGzH2U2dTDWQcbB6Rv7693V1qB"
            ]
          }
        }
      ],
      "hex": "0100000002089317c7241c01c1707a17a92701e781192c5872e68076024e923b132733620b000000006a47304402201d97f18fe6e431f3446ef5a84ba20e82b35cd45d689ef8c2b9a5172f3e84860b02201489442090ec71f16a44f33ae5a6eef026a530359e63bca89b0902122bd31cad012103953f22eb6536e5dd66efb6ed5ca84a6240dd560f09aede601a6a7bf9f9623a88feffffff3894db37a2a1076c420c59f61ad0f637d8eb51ddfe75d57540a9220844464793000000006a4730440220181236de3b52b62d265cc2fd03c794aed522364c49c003560ee042e01cee484202200eac72b74922dfbd202c8ddbc88839996b70726c193f5bffb7743586dd9d4c8c01210386ba90a539e0859215221f32732d3b306f2c301c2701c60a5d2d6b8550267fa8feffffff01b0e2ee00000000001976a9141f8d4d050fb85f9cb2076a8959ec02b2f9424cb688ac00000000"
    }, 
    {
      "txid": "84dcf9bf3efad96a87877102575b67a1e849384453e0bf6b7bdcb3315e46e808",
      "hash": "84dcf9bf3efad96a87877102575b67a1e849384453e0bf6b7bdcb3315e46e808",
      "version": 1,
      "size": 192,
      "vsize": 192,
      "locktime": 0,
      "vin": [
        {
          "txid": "5a9d1f87ccd92b18a6c2603f4bd5f6776df7cf9d7f23e1a775067329446540a0",
          "vout": 0,
          "scriptSig": {
            "asm": "3045022100bc9eb607aa27cbdb84f4ba7f1ac8a28a1739d8626a53bb1b96a8bab0e08dc9ca02205a7d03da3f2c9c49d6af91e9c9aaf58906159e52bbcf475a278f009def44fc37[ALL] 02dd3525be166367cf36c9f0ef48688f967dbe4fc31d7a87865fa6313fac50dde8",
            "hex": "483045022100bc9eb607aa27cbdb84f4ba7f1ac8a28a1739d8626a53bb1b96a8bab0e08dc9ca02205a7d03da3f2c9c49d6af91e9c9aaf58906159e52bbcf475a278f009def44fc37012102dd3525be166367cf36c9f0ef48688f967dbe4fc31d7a87865fa6313fac50dde8"
          },
          "sequence": 4294967295
        }
      ],
      "vout": [
        {
          "value": 0.06911547,
          "n": 0,
          "scriptPubKey": {
            "asm": "OP_DUP OP_HASH160 5c8693d6f2a7fb146a5b3ffd6e959717710a6f10 OP_EQUALVERIFY OP_CHECKSIG",
            "hex": "76a9145c8693d6f2a7fb146a5b3ffd6e959717710a6f1088ac",
            "reqSigs": 1,
            "type": "pubkeyhash",
            "addresses": [
              "LTfBeUD8qfryEDgYwGCXBHRF9aDhMUBZGd"
            ]
          }
        }
      ],
      "hex": "0100000001a040654429730675a7e1237f9dcff76d77f6d54b3f60c2a6182bd9cc871f9d5a000000006b483045022100bc9eb607aa27cbdb84f4ba7f1ac8a28a1739d8626a53bb1b96a8bab0e08dc9ca02205a7d03da3f2c9c49d6af91e9c9aaf58906159e52bbcf475a278f009def44fc37012102dd3525be166367cf36c9f0ef48688f967dbe4fc31d7a87865fa6313fac50dde8ffffffff013b766900000000001976a9145c8693d6f2a7fb146a5b3ffd6e959717710a6f1088ac00000000"
    }, 
    {
      "txid": "6346171fb8def67af2bd7e989655a84281fe33049ea5af09bc0eefd02ac42d9b",
      "hash": "6346171fb8def67af2bd7e989655a84281fe33049ea5af09bc0eefd02ac42d9b",
      "version": 1,
      "size": 406,
      "vsize": 406,
      "locktime": 0,
      "vin": [
        {
          "txid": "16a8412e386a742e24531816d550b6f641b2f65a6cdfff85cf93b101735dba9e",
          "vout": 32,
          "scriptSig": {
            "asm": "304402205bfa5a59a1908368c1f6a7796e293053857eed1a5aa0e3246e856d519788d2b102201e0daabc2a3cb890cb17df8eda19f8dee61d97feba86f77b2e1af2afbe7801a5[ALL] 03fadb84f944c33958e0a1267873553ae2bead3c55ebb645cecc4a39c66327a1d6",
            "hex": "47304402205bfa5a59a1908368c1f6a7796e293053857eed1a5aa0e3246e856d519788d2b102201e0daabc2a3cb890cb17df8eda19f8dee61d97feba86f77b2e1af2afbe7801a5012103fadb84f944c33958e0a1267873553ae2bead3c55ebb645cecc4a39c66327a1d6"
          },
          "sequence": 4294967295
        }, 
        {
          "txid": "16a8412e386a742e24531816d550b6f641b2f65a6cdfff85cf93b101735dba9e",
          "vout": 36,
          "scriptSig": {
            "asm": "3044022043f742846be75a1a7ff464e20ababe6680b5af942fffddc4650fdb6b5e3ba3d002204b51cf21136487ecd717115ec84ab9b41a10b8fd533e6d102ab71a020e227813[ALL] 03fadb84f944c33958e0a1267873553ae2bead3c55ebb645cecc4a39c66327a1d6",
            "hex": "473044022043f742846be75a1a7ff464e20ababe6680b5af942fffddc4650fdb6b5e3ba3d002204b51cf21136487ecd717115ec84ab9b41a10b8fd533e6d102ab71a020e227813012103fadb84f944c33958e0a1267873553ae2bead3c55ebb645cecc4a39c66327a1d6"
          },
          "sequence": 4294967295
        }
      ],
      "vout": [
        {
          "value": 13.22000000,
          "n": 0,
          "scriptPubKey": {
            "asm": "OP_DUP OP_HASH160 e1c11c189880b8103478964bccd78ff26a12f5cb OP_EQUALVERIFY OP_CHECKSIG",
            "hex": "76a914e1c11c189880b8103478964bccd78ff26a12f5cb88ac",
            "reqSigs": 1,
            "type": "pubkeyhash",
            "addresses": [
              "LfoddsjYfXh77EsJU3ecy3diSgSJmxxuBG"
            ]
          }
        }, 
        {
          "value": 12.65500000,
          "n": 1,
          "scriptPubKey": {
            "asm": "OP_DUP OP_HASH160 0453fbfae547095fe52beeacb493c5bb886afba9 OP_EQUALVERIFY OP_CHECKSIG",
            "hex": "76a9140453fbfae547095fe52beeacb493c5bb886afba988ac",
            "reqSigs": 1,
            "type": "pubkeyhash",
            "addresses": [
              "LKcqaK2UGEgF8m7H3rk3icTUKjt3tz6kZB"
            ]
          }
        }, 
        {
          "value": 14.12457500,
          "n": 2,
          "scriptPubKey": {
            "asm": "OP_DUP OP_HASH160 5b3becf0d147c6d6cb8d15aa64829539661ccdfe OP_EQUALVERIFY OP_CHECKSIG",
            "hex": "76a9145b3becf0d147c6d6cb8d15aa64829539661ccdfe88ac",
            "reqSigs": 1,
            "type": "pubkeyhash",
            "addresses": [
              "LTYMYNQ8Tf9V7JWHKGjVKTnx7w76AaNcCW"
            ]
          }
        }
      ],
      "hex": "01000000029eba5d7301b193cf85ffdf6c5af6b241f6b650d5161853242e746a382e41a816200000006a47304402205bfa5a59a1908368c1f6a7796e293053857eed1a5aa0e3246e856d519788d2b102201e0daabc2a3cb890cb17df8eda19f8dee61d97feba86f77b2e1af2afbe7801a5012103fadb84f944c33958e0a1267873553ae2bead3c55ebb645cecc4a39c66327a1d6ffffffff9eba5d7301b193cf85ffdf6c5af6b241f6b650d5161853242e746a382e41a816240000006a473044022043f742846be75a1a7ff464e20ababe6680b5af942fffddc4650fdb6b5e3ba3d002204b51cf21136487ecd717115ec84ab9b41a10b8fd533e6d102ab71a020e227813012103fadb84f944c33958e0a1267873553ae2bead3c55ebb645cecc4a39c66327a1d6ffffffff03801ecc4e000000001976a914e1c11c189880b8103478964bccd78ff26a12f5cb88ac60ff6d4b000000001976a9140453fbfae547095fe52beeacb493c5bb886afba988ac1c643054000000001976a9145b3becf0d147c6d6cb8d15aa64829539661ccdfe88ac00000000"
    }, 
    {
      "txid": "93bf3e7ff826f5a59fed7699184c116064398826924621817d227cf5f9bf4b2c",
      "hash": "93bf3e7ff826f5a59fed7699184c116064398826924621817d227cf5f9bf4b2c",
      "version": 1,
      "size": 225,
      "vsize": 225,
      "locktime": 0,
      "vin": [
        {
          "txid": "42b26bb4124979dbc370b0ca1f850ecd5b4e843cbb1d8724b660ed0a3f73bd35",
          "vout": 1,
          "scriptSig": {
            "asm": "30440220349a4c6f4bba9ece50c8296445403abce74f9cf5dff3d59f278691f15927854b022053648cea5c9cda039d5a6d0423705d94df48154a59b2eeccd20dac7803020037[ALL] 02cee01f56a387c376464c16412a85d1745a7e90649fbe9dbcef503dbfd758c340",
            "hex": "4730440220349a4c6f4bba9ece50c8296445403abce74f9cf5dff3d59f278691f15927854b022053648cea5c9cda039d5a6d0423705d94df48154a59b2eeccd20dac7803020037012102cee01f56a387c376464c16412a85d1745a7e90649fbe9dbcef503dbfd758c340"
          },
          "sequence": 4294967295
        }
      ],
      "vout": [
        {
          "value": 0.50000000,
          "n": 0,
          "scriptPubKey": {
            "asm": "OP_DUP OP_HASH160 e2ab4b9a7b602fbec16c816e592e4aa8d81ebfe5 OP_EQUALVERIFY OP_CHECKSIG",
            "hex": "76a914e2ab4b9a7b602fbec16c816e592e4aa8d81ebfe588ac",
            "reqSigs": 1,
            "type": "pubkeyhash",
            "addresses": [
              "LftUBNgNKABjboHL9BeB8u6sT5RtdwD5RR"
            ]
          }
        }, 
        {
          "value": 0.05226000,
          "n": 1,
          "scriptPubKey": {
            "asm": "OP_DUP OP_HASH160 c33a690829fb00fb8076d1c1d864885f4089cbb6 OP_EQUALVERIFY OP_CHECKSIG",
            "hex": "76a914c33a690829fb00fb8076d1c1d864885f4089cbb688ac",
            "reqSigs": 1,
            "type": "pubkeyhash",
            "addresses": [
              "Ld2E1385ttCokBnMRJnSGMoFS3MjnWbGFC"
            ]
          }
        }
      ],
      "hex": "010000000135bd733f0aed60b624871dbb3c844e5bcd0e851fcab070c3db794912b46bb242010000006a4730440220349a4c6f4bba9ece50c8296445403abce74f9cf5dff3d59f278691f15927854b022053648cea5c9cda039d5a6d0423705d94df48154a59b2eeccd20dac7803020037012102cee01f56a387c376464c16412a85d1745a7e90649fbe9dbcef503dbfd758c340ffffffff0280f0fa02000000001976a914e2ab4b9a7b602fbec16c816e592e4aa8d81ebfe588ac10be4f00000000001976a914c33a690829fb00fb8076d1c1d864885f4089cbb688ac00000000"
    }, 
    {
      "txid": "4d784c9c73879d0a95234980ac9014c4ad68dccd932cd478a5aece2785e5b247",
      "hash": "4d784c9c73879d0a95234980ac9014c4ad68dccd932cd478a5aece2785e5b247",
      "version": 1,
      "size": 225,
      "vsize": 225,
      "locktime": 0,
      "vin": [
        {
          "txid": "cfd5e7b46c227fc925e90b638b6971ff9c7400acbf5025c013f5336d9fc56dd5",
          "vout": 1,
          "scriptSig": {
            "asm": "304402200f11dce66a34c03c35f4def587d46fa0d9a6f85a1e6ede2ba25c5460e8735d8802205738058771ea2bf503a623e3f03f2a7d102ab445e62ab80b1e025bdd06cf3463[ALL] 030e149429702e77cdae228b3ce0ff5814e1b87bd18685be681ec2810af15b39c5",
            "hex": "47304402200f11dce66a34c03c35f4def587d46fa0d9a6f85a1e6ede2ba25c5460e8735d8802205738058771ea2bf503a623e3f03f2a7d102ab445e62ab80b1e025bdd06cf34630121030e149429702e77cdae228b3ce0ff5814e1b87bd18685be681ec2810af15b39c5"
          },
          "sequence": 4294967295
        }
      ],
      "vout": [
        {
          "value": 55.03646392,
          "n": 0,
          "scriptPubKey": {
            "asm": "OP_DUP OP_HASH160 c14032e81134ee8ad8d671418eb66d7865fefa73 OP_EQUALVERIFY OP_CHECKSIG",
            "hex": "76a914c14032e81134ee8ad8d671418eb66d7865fefa7388ac",
            "reqSigs": 1,
            "type": "pubkeyhash",
            "addresses": [
              "LcqmarJSjQJ4DPdXDoV6ZgTgVUhPxXfm7z"
            ]
          }
        }, 
        {
          "value": 39.65310808,
          "n": 1,
          "scriptPubKey": {
            "asm": "OP_DUP OP_HASH160 9caad451f22cda585b82ebfa3f63a8dbc21f7e62 OP_EQUALVERIFY OP_CHECKSIG",
            "hex": "76a9149caad451f22cda585b82ebfa3f63a8dbc21f7e6288ac",
            "reqSigs": 1,
            "type": "pubkeyhash",
            "addresses": [
              "LZWLKa7GiRz8oAHFWzxjamyhzUXvj5aSoQ"
            ]
          }
        }
      ],
      "hex": "0100000001d56dc59f6d33f513c02550bfac00749cff71698b630be925c97f226cb4e7d5cf010000006a47304402200f11dce66a34c03c35f4def587d46fa0d9a6f85a1e6ede2ba25c5460e8735d8802205738058771ea2bf503a623e3f03f2a7d102ab445e62ab80b1e025bdd06cf34630121030e149429702e77cdae228b3ce0ff5814e1b87bd18685be681ec2810af15b39c5ffffffff02b8fa0a48010000001976a914c14032e81134ee8ad8d671418eb66d7865fefa7388ac58d759ec000000001976a9149caad451f22cda585b82ebfa3f63a8dbc21f7e6288ac00000000"
    }, 
    {
      "txid": "36595cef60b82f8b5f904f50dd8bd40e6495a2ffdd096eaa2884fd29bf5799ff",
      "hash": "36595cef60b82f8b5f904f50dd8bd40e6495a2ffdd096eaa2884fd29bf5799ff",
      "version": 1,
      "size": 225,
      "vsize": 225,
      "locktime": 0,
      "vin": [
        {
          "txid": "7006aa1f5ced6ea127ecd3da0c421bb01cede0b006dd98163d44322a659b4d24",
          "vout": 1,
          "scriptSig": {
            "asm": "30440220728305c757d2fb821302e4b5ed51a88330a63aed1c2e0bb1af2f66946222ecbf02205c4fb49f8ddd4f04f0c6f0449f6f1cdc1f2eb50f9c48c6f885c9cb18d9aae68a[ALL] 0301c1884b4610aad726abf0aab235bde02b75cb9c1d5b9c8eb581ee4846b06daf",
            "hex": "4730440220728305c757d2fb821302e4b5ed51a88330a63aed1c2e0bb1af2f66946222ecbf02205c4fb49f8ddd4f04f0c6f0449f6f1cdc1f2eb50f9c48c6f885c9cb18d9aae68a01210301c1884b4610aad726abf0aab235bde02b75cb9c1d5b9c8eb581ee4846b06daf"
          },
          "sequence": 4294967295
        }
      ],
      "vout": [
        {
          "value": 4.30541636,
          "n": 0,
          "scriptPubKey": {
            "asm": "OP_DUP OP_HASH160 b656763e04f57ed0c7fd3a9200c643bb18914d8a OP_EQUALVERIFY OP_CHECKSIG",
            "hex": "76a914b656763e04f57ed0c7fd3a9200c643bb18914d8a88ac",
            "reqSigs": 1,
            "type": "pubkeyhash",
            "addresses": [
              "Lbr4pbwGowQHj3bpdiymXbd8Ke6oUpGFVk"
            ]
          }
        }, 
        {
          "value": 4.05580375,
          "n": 1,
          "scriptPubKey": {
            "asm": "OP_DUP OP_HASH160 324756c9e38a0d99aea21ab91fa6c4e9350bcde7 OP_EQUALVERIFY OP_CHECKSIG",
            "hex": "76a914324756c9e38a0d99aea21ab91fa6c4e9350bcde788ac",
            "reqSigs": 1,
            "type": "pubkeyhash",
            "addresses": [
              "LPooWXV64oUWHBWxGXzecK5gN6BUatLXoC"
            ]
          }
        }
      ],
      "hex": "0100000001244d9b652a32443d1698dd06b0e0ed1cb01b420cdad3ec27a16eed5c1faa0670010000006a4730440220728305c757d2fb821302e4b5ed51a88330a63aed1c2e0bb1af2f66946222ecbf02205c4fb49f8ddd4f04f0c6f0449f6f1cdc1f2eb50f9c48c6f885c9cb18d9aae68a01210301c1884b4610aad726abf0aab235bde02b75cb9c1d5b9c8eb581ee4846b06dafffffffff02448ba919000000001976a914b656763e04f57ed0c7fd3a9200c643bb18914d8a88ac57aa2c18000000001976a914324756c9e38a0d99aea21ab91fa6c4e9350bcde788ac00000000"
    }, 
    {
      "txid": "922286972ac4fbb0dce964afb9dd24dc25ea4af9a01da55d7f44f561d3f95e36",
      "hash": "922286972ac4fbb0dce964afb9dd24dc25ea4af9a01da55d7f44f561d3f95e36",
      "version": 2,
      "size": 373,
      "vsize": 373,
      "locktime": 1357976,
      "vin": [
        {
          "txid": "3447a73ca979da9a784476cf16e0a1b98b38db4fbdb42a4b961eca8e4951a741",
          "vout": 0,
          "scriptSig": {
            "asm": "304402200ac4264feb9a29ad6fd3ba1be763eb2f04a87a1375ae3aa754830dc7f3d4812002201ff7d617c4ef7f84059a176f6a90b2c2311548adf9d0ea0580aada61573a36b0[ALL] 02fd66fd417772c32bb322a9c47873057a8eb081c347821d1db535e93bf83623af",
            "hex": "47304402200ac4264feb9a29ad6fd3ba1be763eb2f04a87a1375ae3aa754830dc7f3d4812002201ff7d617c4ef7f84059a176f6a90b2c2311548adf9d0ea0580aada61573a36b0012102fd66fd417772c32bb322a9c47873057a8eb081c347821d1db535e93bf83623af"
          },
          "sequence": 4294967294
        }, 
        {
          "txid": "f9f116cde41ee8f667a80b19e868ed2195d16e4c3d3d89bc5afbca51078857c0",
          "vout": 0,
          "scriptSig": {
            "asm": "3045022100f72f574bbc77b07914889148f77c62c2b373b59c352677ed789299bcc90a42d502200d7c4231b140fdb8a73cf138b0df82b9215ba5c355782abff24866ba3dad67fb[ALL] 03a98457ed65c0c04ce6520c28db60e427896c04d4be9ee0544e33a5af26433ab5",
            "hex": "483045022100f72f574bbc77b07914889148f77c62c2b373b59c352677ed789299bcc90a42d502200d7c4231b140fdb8a73cf138b0df82b9215ba5c355782abff24866ba3dad67fb012103a98457ed65c0c04ce6520c28db60e427896c04d4be9ee0544e33a5af26433ab5"
          },
          "sequence": 4294967294
        }
      ],
      "vout": [
        {
          "value": 0.01703280,
          "n": 0,
          "scriptPubKey": {
            "asm": "OP_DUP OP_HASH160 de508bd2bda50e4d66a5a5aeb3280283bcffd27b OP_EQUALVERIFY OP_CHECKSIG",
            "hex": "76a914de508bd2bda50e4d66a5a5aeb3280283bcffd27b88ac",
            "reqSigs": 1,
            "type": "pubkeyhash",
            "addresses": [
              "LfVSmFF3Y6GfNuoT8cJySYdf3behN2FVFA"
            ]
          }
        }, 
        {
          "value": 0.18711000,
          "n": 1,
          "scriptPubKey": {
            "asm": "OP_DUP OP_HASH160 c626267a17d8c262940faed10cba01de1efadb5d OP_EQUALVERIFY OP_CHECKSIG",
            "hex": "76a914c626267a17d8c262940faed10cba01de1efadb5d88ac",
            "reqSigs": 1,
            "type": "pubkeyhash",
            "addresses": [
              "LdHfkvbEJJvFqyDyDKSHdzfW64K6zMJmZG"
            ]
          }
        }
      ],
      "hex": "020000000241a751498eca1e964b2ab4bd4fdb388bb9a1e016cf7644789ada79a93ca74734000000006a47304402200ac4264feb9a29ad6fd3ba1be763eb2f04a87a1375ae3aa754830dc7f3d4812002201ff7d617c4ef7f84059a176f6a90b2c2311548adf9d0ea0580aada61573a36b0012102fd66fd417772c32bb322a9c47873057a8eb081c347821d1db535e93bf83623affeffffffc057880751cafb5abc893d3d4c6ed19521ed68e8190ba867f6e81ee4cd16f1f9000000006b483045022100f72f574bbc77b07914889148f77c62c2b373b59c352677ed789299bcc90a42d502200d7c4231b140fdb8a73cf138b0df82b9215ba5c355782abff24866ba3dad67fb012103a98457ed65c0c04ce6520c28db60e427896c04d4be9ee0544e33a5af26433ab5feffffff0270fd1900000000001976a914de508bd2bda50e4d66a5a5aeb3280283bcffd27b88acd8811d01000000001976a914c626267a17d8c262940faed10cba01de1efadb5d88ac98b81400"
    }
  ],
  "time": 1517071587,
  "mediantime": 1517071257,
  "nonce": 377375669,
  "bits": "1a047f14",
  "difficulty": 3731199.183374282,
  "chainwork": "000000000000000000000000000000000000000000000032b19db137776326be",
  "previousblockhash": "34a5e776f2861dd6c4475cb9bcf0633aae2e0fa4a82c8241dbbe0489d8c38e1a",
  "nextblockhash": "21224d1ddf9154ea18779c1f508390a8b9d3732f97729b492092185e0a589887"
}
