{
  "hash": "fbd541edb3418363a61af3d11036337cf880357ec2554441aeaa9a033403ec34",
  "confirmations": 1106,
  "strippedsize": 1927,
  "size": 1963,
  "weight": 7744,
  "height": 1359888,
  "version": 536870912,
  "versionHex": "20000000",
  "merkleroot": "7bdd1f37b606761bf7827f7f6f8e2dfc81a24c468a81a40dfba4a3021d9b4156",
  "tx": [
    {
      "txid": "d829030e7dcdfdbcbd456e5db7b6c7bed373e9c923af3b840b0a8cf2dbcba093",
      "hash": "7243edd8c72b65d1b5bd0eb11370189137e625a0213c26a98d3c36a78fd7dcfa",
      "version": 2,
      "size": 234,
      "vsize": 207,
      "locktime": 0,
      "vin": [
        {
          "coinbase": "0310c0140431d6705a2ffabe6d6d2ff988c2fbf725456488dae887e1c96e6a021223e1031000faf499cb561e5ba3010000000000000004035957fd01000000000000",
          "sequence": 4294967295
        }
      ],
      "vout": [
        {
          "value": 25.00368600,
          "n": 0,
          "scriptPubKey": {
            "asm": "OP_DUP OP_HASH160 3d29d474d0a98b5b2669d990d2917780837edf0c OP_EQUALVERIFY OP_CHECKSIG",
            "hex": "76a9143d29d474d0a98b5b2669d990d2917780837edf0c88ac",
            "reqSigs": 1,
            "type": "pubkeyhash",
            "addresses": [
              "LQoMbJnzRK2sDXazJuUNXPTx7FrKKPJgt6"
            ]
          }
        }, 
        {
          "value": 0.00000000,
          "n": 1,
          "scriptPubKey": {
            "asm": "OP_RETURN aa21a9edfe137700d5b3188235912b4f838ed0cb65174d724c6242afe3cc40ff7fb2aea0",
            "hex": "6a24aa21a9edfe137700d5b3188235912b4f838ed0cb65174d724c6242afe3cc40ff7fb2aea0",
            "type": "nulldata"
          }
        }
      ],
      "hex": "020000000001010000000000000000000000000000000000000000000000000000000000000000ffffffff420310c0140431d6705a2ffabe6d6d2ff988c2fbf725456488dae887e1c96e6a021223e1031000faf499cb561e5ba3010000000000000004035957fd01000000000000ffffffff02d8980895000000001976a9143d29d474d0a98b5b2669d990d2917780837edf0c88ac0000000000000000266a24aa21a9edfe137700d5b3188235912b4f838ed0cb65174d724c6242afe3cc40ff7fb2aea00120000000000000000000000000000000000000000000000000000000000000000000000000"
    }, 
    {
      "txid": "d1c96806a309187f0da3587f0e6afa331239e4b022e50b1ecfbcb1ed808bf2fe",
      "hash": "d1c96806a309187f0da3587f0e6afa331239e4b022e50b1ecfbcb1ed808bf2fe",
      "version": 1,
      "size": 226,
      "vsize": 226,
      "locktime": 1359885,
      "vin": [
        {
          "txid": "e44fdd42cb144f283e3e9c3e04ffca7d229e222ffb64df5dea671d063afbe975",
          "vout": 0,
          "scriptSig": {
            "asm": "3045022100a49bacfed3d17051c20e5c38e379fd5be0f0c6ec2f394fa4497b02d0d369ff1d02206c6223402f0dc8a1f02df5729a6ad5213e66dc2c1c2297277244f4e9dca8318d[ALL] 0379f889467366d32fa24c30247ad4e104fe4e5d5ae0f16624709e2ddf78d8971a",
            "hex": "483045022100a49bacfed3d17051c20e5c38e379fd5be0f0c6ec2f394fa4497b02d0d369ff1d02206c6223402f0dc8a1f02df5729a6ad5213e66dc2c1c2297277244f4e9dca8318d01210379f889467366d32fa24c30247ad4e104fe4e5d5ae0f16624709e2ddf78d8971a"
          },
          "sequence": 4294967294
        }
      ],
      "vout": [
        {
          "value": 3.77330015,
          "n": 0,
          "scriptPubKey": {
            "asm": "OP_DUP OP_HASH160 fa868568ce36d9cbf06d414fe730829164f732c7 OP_EQUALVERIFY OP_CHECKSIG",
            "hex": "76a914fa868568ce36d9cbf06d414fe730829164f732c788ac",
            "reqSigs": 1,
            "type": "pubkeyhash",
            "addresses": [
              "Li4cLrz7HxvMgY12K6p28GA6pnKV9B4s4X"
            ]
          }
        }, 
        {
          "value": 0.59000000,
          "n": 1,
          "scriptPubKey": {
            "asm": "OP_DUP OP_HASH160 fc8ffa3250f5b25309cd1c5130bde9ec4ed9059a OP_EQUALVERIFY OP_CHECKSIG",
            "hex": "76a914fc8ffa3250f5b25309cd1c5130bde9ec4ed9059a88ac",
            "reqSigs": 1,
            "type": "pubkeyhash",
            "addresses": [
              "LiFP2Gst91QgUQBDRZXvQ2bWxp3x2GJ6ZD"
            ]
          }
        }
      ],
      "hex": "010000000175e9fb3a061d67ea5ddf64fb2f229e227dcaff043e9c3e3e284f14cb42dd4fe4000000006b483045022100a49bacfed3d17051c20e5c38e379fd5be0f0c6ec2f394fa4497b02d0d369ff1d02206c6223402f0dc8a1f02df5729a6ad5213e66dc2c1c2297277244f4e9dca8318d01210379f889467366d32fa24c30247ad4e104fe4e5d5ae0f16624709e2ddf78d8971afeffffff025f997d16000000001976a914fa868568ce36d9cbf06d414fe730829164f732c788acc0448403000000001976a914fc8ffa3250f5b25309cd1c5130bde9ec4ed9059a88ac0dc01400"
    }, 
    {
      "txid": "26c91f3c06cde56c1f45ee234f7cedcb84003b91fa9fdebf8286934be6987a83",
      "hash": "26c91f3c06cde56c1f45ee234f7cedcb84003b91fa9fdebf8286934be6987a83",
      "version": 1,
      "size": 225,
      "vsize": 225,
      "locktime": 0,
      "vin": [
        {
          "txid": "5fb471c5fbb3c27b5b91cd7136a22a09f44496e85bca9907124d4295a67e5693",
          "vout": 0,
          "scriptSig": {
            "asm": "304402207cfdee5b43de355cdf0649c938633e73d6662ccc72741a969536d1f4d0707fe80220558a50ef5473e7b6324330476f761f58c67f682d35f018d08f7201a4e0f9dbda[ALL] 027b6200beca4382d92cad1c862b1a200e62f49ecac7a2a0897e9a50f2f685be81",
            "hex": "47304402207cfdee5b43de355cdf0649c938633e73d6662ccc72741a969536d1f4d0707fe80220558a50ef5473e7b6324330476f761f58c67f682d35f018d08f7201a4e0f9dbda0121027b6200beca4382d92cad1c862b1a200e62f49ecac7a2a0897e9a50f2f685be81"
          },
          "sequence": 4294967295
        }
      ],
      "vout": [
        {
          "value": 0.05966800,
          "n": 0,
          "scriptPubKey": {
            "asm": "OP_DUP OP_HASH160 faf56e60cc8cb78dfde7d227823e2479e84c68ac OP_EQUALVERIFY OP_CHECKSIG",
            "hex": "76a914faf56e60cc8cb78dfde7d227823e2479e84c68ac88ac",
            "reqSigs": 1,
            "type": "pubkeyhash",
            "addresses": [
              "Li6uD2Wha1ntB8wtBAaDdkovFApvgNwCXX"
            ]
          }
        }, 
        {
          "value": 0.91988000,
          "n": 1,
          "scriptPubKey": {
            "asm": "OP_DUP OP_HASH160 45ac6de988b363335845bd862e1ee9518cc73bc7 OP_EQUALVERIFY OP_CHECKSIG",
            "hex": "76a91445ac6de988b363335845bd862e1ee9518cc73bc788ac",
            "reqSigs": 1,
            "type": "pubkeyhash",
            "addresses": [
              "LRaMT3sBL1SZmguE9mS8n4wNDYcGo2ERPY"
            ]
          }
        }
      ],
      "hex": "010000000193567ea695424d120799ca5be89644f4092aa23671cd915b7bc2b3fbc571b45f000000006a47304402207cfdee5b43de355cdf0649c938633e73d6662ccc72741a969536d1f4d0707fe80220558a50ef5473e7b6324330476f761f58c67f682d35f018d08f7201a4e0f9dbda0121027b6200beca4382d92cad1c862b1a200e62f49ecac7a2a0897e9a50f2f685be81ffffffff02d00b5b00000000001976a914faf56e60cc8cb78dfde7d227823e2479e84c68ac88ac20a07b05000000001976a91445ac6de988b363335845bd862e1ee9518cc73bc788ac00000000"
    }, 
    {
      "txid": "82ae6cca1753b8b09e5b1de6cd5721a98dc040f61528b3bc6b8b94364d0849ab",
      "hash": "82ae6cca1753b8b09e5b1de6cd5721a98dc040f61528b3bc6b8b94364d0849ab",
      "version": 1,
      "size": 225,
      "vsize": 225,
      "locktime": 0,
      "vin": [
        {
          "txid": "a17cfbf448972bb639a2ab3e0de32064e2ca2838fadc6f33408d9ab7a00f576b",
          "vout": 0,
          "scriptSig": {
            "asm": "3044022066df8d2b67b046bccfbf6be956199904c73059bd332e2337ab9440745889f1f80220328a1b0a1faa57b4d0ef2ac1e8a584aaae404ab6ca3706512212aacebcc3fcd1[ALL] 02f541d00c89941c8521b3671a11e0569c8bb797dc31f7e8ca3e60a600ac05ea42",
            "hex": "473044022066df8d2b67b046bccfbf6be956199904c73059bd332e2337ab9440745889f1f80220328a1b0a1faa57b4d0ef2ac1e8a584aaae404ab6ca3706512212aacebcc3fcd1012102f541d00c89941c8521b3671a11e0569c8bb797dc31f7e8ca3e60a600ac05ea42"
          },
          "sequence": 4294967295
        }
      ],
      "vout": [
        {
          "value": 0.77000000,
          "n": 0,
          "scriptPubKey": {
            "asm": "OP_DUP OP_HASH160 c27b38b9020265dff34158c01064fe5f3b774101 OP_EQUALVERIFY OP_CHECKSIG",
            "hex": "76a914c27b38b9020265dff34158c01064fe5f3b77410188ac",
            "reqSigs": 1,
            "type": "pubkeyhash",
            "addresses": [
              "LcxGy1iKpHURbK5sgDNZF45a5Lq4b13fMt"
            ]
          }
        }, 
        {
          "value": 0.07644231,
          "n": 1,
          "scriptPubKey": {
            "asm": "OP_DUP OP_HASH160 32c268f843fbdbf3afe894dc30c1b361ac57ec64 OP_EQUALVERIFY OP_CHECKSIG",
            "hex": "76a91432c268f843fbdbf3afe894dc30c1b361ac57ec6488ac",
            "reqSigs": 1,
            "type": "pubkeyhash",
            "addresses": [
              "LPrLwehYLiQosjxLPcWR9vXtZaQ75LjUga"
            ]
          }
        }
      ],
      "hex": "01000000016b570fa0b79a8d40336fdcfa3828cae26420e30d3eaba239b62b9748f4fb7ca1000000006a473044022066df8d2b67b046bccfbf6be956199904c73059bd332e2337ab9440745889f1f80220328a1b0a1faa57b4d0ef2ac1e8a584aaae404ab6ca3706512212aacebcc3fcd1012102f541d00c89941c8521b3671a11e0569c8bb797dc31f7e8ca3e60a600ac05ea42ffffffff0240ed9604000000001976a914c27b38b9020265dff34158c01064fe5f3b77410188ac47a47400000000001976a91432c268f843fbdbf3afe894dc30c1b361ac57ec6488ac00000000"
    }, 
    {
      "txid": "4bffb1452e276c57af820d38467a52890bb02d3d74ea7a2519f1aaf29b2fdffb",
      "hash": "4bffb1452e276c57af820d38467a52890bb02d3d74ea7a2519f1aaf29b2fdffb",
      "version": 2,
      "size": 225,
      "vsize": 225,
      "locktime": 1359885,
      "vin": [
        {
          "txid": "12b727e81e6d8f70e30536e84fd9bfd91f93c81f43b9e1d0da5858a26ea60f4b",
          "vout": 0,
          "scriptSig": {
            "asm": "30440220088939d2ea9a0c50ec06c1974d43d98deb74c237a7f11d3bc6b871960b898a64022004bdf7c042721855685396193b6a10315da89bf1538314469c70c4d9094ec32c[ALL] 028f9d5044f64994557c04a5c5b37ddeafdae6f6cac919fca66f54d7d834bb7c2d",
            "hex": "4730440220088939d2ea9a0c50ec06c1974d43d98deb74c237a7f11d3bc6b871960b898a64022004bdf7c042721855685396193b6a10315da89bf1538314469c70c4d9094ec32c0121028f9d5044f64994557c04a5c5b37ddeafdae6f6cac919fca66f54d7d834bb7c2d"
          },
          "sequence": 4294967294
        }
      ],
      "vout": [
        {
          "value": 0.98000000,
          "n": 0,
          "scriptPubKey": {
            "asm": "OP_DUP OP_HASH160 204502aaad552943e92ffe1187155d838ef80dc3 OP_EQUALVERIFY OP_CHECKSIG",
            "hex": "76a914204502aaad552943e92ffe1187155d838ef80dc388ac",
            "reqSigs": 1,
            "type": "pubkeyhash",
            "addresses": [
              "LNAaZHABagTV5dGV2TXziqo4Zt1t2CbG3W"
            ]
          }
        }, 
        {
          "value": 286.06265668,
          "n": 1,
          "scriptPubKey": {
            "asm": "OP_DUP OP_HASH160 a9ab6931449314e0ca4dd94e9bae120fdca6c8af OP_EQUALVERIFY OP_CHECKSIG",
            "hex": "76a914a9ab6931449314e0ca4dd94e9bae120fdca6c8af88ac",
            "reqSigs": 1,
            "type": "pubkeyhash",
            "addresses": [
              "Lah5oUGpZfGmK89Y3XiS8LVGJQo2Buh9MC"
            ]
          }
        }
      ],
      "hex": "02000000014b0fa66ea25858dad0e1b9431fc8931fd9bfd94fe83605e3708f6d1ee827b712000000006a4730440220088939d2ea9a0c50ec06c1974d43d98deb74c237a7f11d3bc6b871960b898a64022004bdf7c042721855685396193b6a10315da89bf1538314469c70c4d9094ec32c0121028f9d5044f64994557c04a5c5b37ddeafdae6f6cac919fca66f54d7d834bb7c2dfeffffff02805cd705000000001976a914204502aaad552943e92ffe1187155d838ef80dc388ac44f910a9060000001976a914a9ab6931449314e0ca4dd94e9bae120fdca6c8af88ac0dc01400"
    }, 
    {
      "txid": "d2ea2ea195589f2d6de13805ee9bd92e9aba922d54a16a1acabbb4727ab0832f",
      "hash": "d2ea2ea195589f2d6de13805ee9bd92e9aba922d54a16a1acabbb4727ab0832f",
      "version": 1,
      "size": 521,
      "vsize": 521,
      "locktime": 1359885,
      "vin": [
        {
          "txid": "576bc1b689f4fc330779c0d55715f19066b64fdde68fd433e3587ae5a9183322",
          "vout": 0,
          "scriptSig": {
            "asm": "3045022100f7a7acaf2c16def672bb7457cee8141d40193e9f3b8bb3fc1927d597b6c8db2202201c8dff2fb4b86d10a3b1be753af9ab12b342439ff252def3a2ec2fb843ceb932[ALL] 024dd7d2896418b2062e5f78a848a00b621a4c3f2b896dfc1d104253f9252e7f1a",
            "hex": "483045022100f7a7acaf2c16def672bb7457cee8141d40193e9f3b8bb3fc1927d597b6c8db2202201c8dff2fb4b86d10a3b1be753af9ab12b342439ff252def3a2ec2fb843ceb9320121024dd7d2896418b2062e5f78a848a00b621a4c3f2b896dfc1d104253f9252e7f1a"
          },
          "sequence": 4294967294
        }, 
        {
          "txid": "3c19c66c52fa486c0311191a472518dd44db4378056cc793467f44d5681725ce",
          "vout": 0,
          "scriptSig": {
            "asm": "304502210095cb3f6dcc1d5d08b49ebd2bcd4a52dc6ea0f517d044b4913c2f5c32fd7c5e6602202ab57c6715b43c4e88baff60218f85caeea1ab38c9b5cf9a3ae0bccaad0502b5[ALL] 02dd5dac1fb05ab8bef5aac32ec557b4756c87bc705e8513922a24df24a4b88063",
            "hex": "48304502210095cb3f6dcc1d5d08b49ebd2bcd4a52dc6ea0f517d044b4913c2f5c32fd7c5e6602202ab57c6715b43c4e88baff60218f85caeea1ab38c9b5cf9a3ae0bccaad0502b5012102dd5dac1fb05ab8bef5aac32ec557b4756c87bc705e8513922a24df24a4b88063"
          },
          "sequence": 4294967294
        }, 
        {
          "txid": "12dfbf32751c35eadb1b07da6ed9aa1ac8c769d57a41ac5d10ec52b78d094cc7",
          "vout": 0,
          "scriptSig": {
            "asm": "304402207d4b700346cb7943f03bf560d69c508e708cc03f606b86d3377bd96480b865e702204c5b6c9ef8f1df132a257fe2379c06503ed1f711461aef06db04035485537470[ALL] 0235723e18433a24da3eb397a7a22181e955efac5f246ee07c897432cdb68b4ab3",
            "hex": "47304402207d4b700346cb7943f03bf560d69c508e708cc03f606b86d3377bd96480b865e702204c5b6c9ef8f1df132a257fe2379c06503ed1f711461aef06db0403548553747001210235723e18433a24da3eb397a7a22181e955efac5f246ee07c897432cdb68b4ab3"
          },
          "sequence": 4294967294
        }
      ],
      "vout": [
        {
          "value": 1.36576440,
          "n": 0,
          "scriptPubKey": {
            "asm": "OP_DUP OP_HASH160 d5bfad3ffbe11df2de94550459303e5c8db507de OP_EQUALVERIFY OP_CHECKSIG",
            "hex": "76a914d5bfad3ffbe11df2de94550459303e5c8db507de88ac",
            "reqSigs": 1,
            "type": "pubkeyhash",
            "addresses": [
              "Lei9p1PSXr6BTaCYq9RpuaasheSiPHnY5D"
            ]
          }
        }, 
        {
          "value": 0.01000018,
          "n": 1,
          "scriptPubKey": {
            "asm": "OP_DUP OP_HASH160 da71b198a5bba2a0ce2206ca0eec1636b5085ec1 OP_EQUALVERIFY OP_CHECKSIG",
            "hex": "76a914da71b198a5bba2a0ce2206ca0eec1636b5085ec188ac",
            "reqSigs": 1,
            "type": "pubkeyhash",
            "addresses": [
              "Lf8ymcQaUiFkwC9rKEtj91uW7xn4xR1sX7"
            ]
          }
        }
      ],
      "hex": "0100000003223318a9e57a58e333d48fe6dd4fb66690f11557d5c0790733fcf489b6c16b57000000006b483045022100f7a7acaf2c16def672bb7457cee8141d40193e9f3b8bb3fc1927d597b6c8db2202201c8dff2fb4b86d10a3b1be753af9ab12b342439ff252def3a2ec2fb843ceb9320121024dd7d2896418b2062e5f78a848a00b621a4c3f2b896dfc1d104253f9252e7f1afeffffffce251768d5447f4693c76c057843db44dd1825471a1911036c48fa526cc6193c000000006b48304502210095cb3f6dcc1d5d08b49ebd2bcd4a52dc6ea0f517d044b4913c2f5c32fd7c5e6602202ab57c6715b43c4e88baff60218f85caeea1ab38c9b5cf9a3ae0bccaad0502b5012102dd5dac1fb05ab8bef5aac32ec557b4756c87bc705e8513922a24df24a4b88063feffffffc74c098db752ec105dac417ad569c7c81aaad96eda071bdbea351c7532bfdf12000000006a47304402207d4b700346cb7943f03bf560d69c508e708cc03f606b86d3377bd96480b865e702204c5b6c9ef8f1df132a257fe2379c06503ed1f711461aef06db0403548553747001210235723e18433a24da3eb397a7a22181e955efac5f246ee07c897432cdb68b4ab3feffffff02b8fd2308000000001976a914d5bfad3ffbe11df2de94550459303e5c8db507de88ac52420f00000000001976a914da71b198a5bba2a0ce2206ca0eec1636b5085ec188ac0dc01400"
    }, 
    {
      "txid": "4e6d03139591fa6c8382f1ae5cbfb0f9d5a897df9cda48dae373f69ec9cbfed0",
      "hash": "4e6d03139591fa6c8382f1ae5cbfb0f9d5a897df9cda48dae373f69ec9cbfed0",
      "version": 2,
      "size": 226,
      "vsize": 226,
      "locktime": 1359885,
      "vin": [
        {
          "txid": "fde99a3fb166dcdede87dfd49c09b273d95dbf28efc75fc2abb6e13a30b98ca4",
          "vout": 0,
          "scriptSig": {
            "asm": "3045022100832b653edccd2f9d660c0493891107dcdc5c3edd39e406c273cfe93dee3ce23e02200d6d8bbaa5e63809af3a9f900e9f2697d4ea1a2d67cd4d6b351009a2cd569f12[ALL] 03ea3d10d10b6dae7e32d39144aca781dbb4195d4588b12bc319c26c3de78169f9",
            "hex": "483045022100832b653edccd2f9d660c0493891107dcdc5c3edd39e406c273cfe93dee3ce23e02200d6d8bbaa5e63809af3a9f900e9f2697d4ea1a2d67cd4d6b351009a2cd569f12012103ea3d10d10b6dae7e32d39144aca781dbb4195d4588b12bc319c26c3de78169f9"
          },
          "sequence": 4294967294
        }
      ],
      "vout": [
        {
          "value": 3.34004858,
          "n": 0,
          "scriptPubKey": {
            "asm": "OP_DUP OP_HASH160 bdbe05916aa155f7940b86951a8151ea613541f3 OP_EQUALVERIFY OP_CHECKSIG",
            "hex": "76a914bdbe05916aa155f7940b86951a8151ea613541f388ac",
            "reqSigs": 1,
            "type": "pubkeyhash",
            "addresses": [
              "LcXDcQpxZhNp8snbfAr4gZCCDKdvcKFJJw"
            ]
          }
        }, 
        {
          "value": 344.41380352,
          "n": 1,
          "scriptPubKey": {
            "asm": "OP_DUP OP_HASH160 af1c57e0a9b5597204a59508a01d155ffd88f5f0 OP_EQUALVERIFY OP_CHECKSIG",
            "hex": "76a914af1c57e0a9b5597204a59508a01d155ffd88f5f088ac",
            "reqSigs": 1,
            "type": "pubkeyhash",
            "addresses": [
              "LbBrU7EsVxMzkvPMcRcGE2ZKrybgzFaQLZ"
            ]
          }
        }
      ],
      "hex": "0200000001a48cb9303ae1b6abc25fc7ef28bf5dd973b2099cd4df87dededc66b13f9ae9fd000000006b483045022100832b653edccd2f9d660c0493891107dcdc5c3edd39e406c273cfe93dee3ce23e02200d6d8bbaa5e63809af3a9f900e9f2697d4ea1a2d67cd4d6b351009a2cd569f12012103ea3d10d10b6dae7e32d39144aca781dbb4195d4588b12bc319c26c3de78169f9feffffff027a82e813000000001976a914bdbe05916aa155f7940b86951a8151ea613541f388ac00c2dd04080000001976a914af1c57e0a9b5597204a59508a01d155ffd88f5f088ac0dc01400"
    }
  ],
  "time": 1517344305,
  "mediantime": 1517343548,
  "nonce": 82255595,
  "bits": "1a042eae",
  "difficulty": 4011378.762614286,
  "chainwork": "0000000000000000000000000000000000000000000000346cdaa93fbd854ea2",
  "previousblockhash": "f239b2023177633d762fef6dc49e15a6ed3f9e8c14611013811cc5f92a6590fc",
  "nextblockhash": "780d481b27e519511f5f504ca2939663d056bc508b9b5905330342a679b05e89"
}
