{
  "hash": "fc17ab3423e62fc6abd7405e0c79c80023e44b2228bac90055796c4a3f00fd9d",
  "confirmations": 3486,
  "strippedsize": 2884,
  "size": 2920,
  "weight": 11572,
  "height": 1357509,
  "version": 536870912,
  "versionHex": "20000000",
  "merkleroot": "1e34d8178cc72e5a3d2e440b359db85031a86276c57fa5b5429f524deeb49a06",
  "tx": [
    {
      "txid": "bb0d41728cb04d818d53ba3779ff06a65128c39e807f0b816f648781beada514",
      "hash": "5624801d17adca0ee9de2a2631e2aec5643846e64efbf9c4f978f74ef366e332",
      "version": 1,
      "size": 253,
      "vsize": 226,
      "locktime": 0,
      "vin": [
        {
          "coinbase": "03c5b61441d69aefe045ea2941d69aefdfa5fd512f4c54432e544f502ffabe6d6d693e7859dc8d8bb106420cd447c3d7686eb4281ad98e012adcdb67d33a1647880100000000000000792fc4931100000000000000",
          "sequence": 4294967295
        }
      ],
      "vout": [
        {
          "value": 25.00325600,
          "n": 0,
          "scriptPubKey": {
            "asm": "OP_DUP OP_HASH160 0c617fdb2ea42aed30a509595ee21ba3f6688db0 OP_EQUALVERIFY OP_CHECKSIG",
            "hex": "76a9140c617fdb2ea42aed30a509595ee21ba3f6688db088ac",
            "reqSigs": 1,
            "type": "pubkeyhash",
            "addresses": [
              "LLMRAtr3qBje2ySEa3CnZ55LA4TQMWnRY3"
            ]
          }
        }, 
        {
          "value": 0.00000000,
          "n": 1,
          "scriptPubKey": {
            "asm": "OP_RETURN aa21a9edfb41dceb4b9cbeb78cefa1ab743c0b74b84201151f4295dba704ab4c9f53b1d0",
            "hex": "6a24aa21a9edfb41dceb4b9cbeb78cefa1ab743c0b74b84201151f4295dba704ab4c9f53b1d0",
            "type": "nulldata"
          }
        }
      ],
      "hex": "010000000001010000000000000000000000000000000000000000000000000000000000000000ffffffff5503c5b61441d69aefe045ea2941d69aefdfa5fd512f4c54432e544f502ffabe6d6d693e7859dc8d8bb106420cd447c3d7686eb4281ad98e012adcdb67d33a1647880100000000000000792fc4931100000000000000ffffffff02e0f00795000000001976a9140c617fdb2ea42aed30a509595ee21ba3f6688db088ac0000000000000000266a24aa21a9edfb41dceb4b9cbeb78cefa1ab743c0b74b84201151f4295dba704ab4c9f53b1d00120000000000000000000000000000000000000000000000000000000000000000000000000"
    }, 
    {
      "txid": "fa6241eb6ca5ccb735d0336d7d3925666ae553791a40cbbdbf9ca12679bb6223",
      "hash": "fa6241eb6ca5ccb735d0336d7d3925666ae553791a40cbbdbf9ca12679bb6223",
      "version": 1,
      "size": 336,
      "vsize": 336,
      "locktime": 0,
      "vin": [
        {
          "txid": "575387870a653747f0630c4d77160f34ca84e14703770580425bfd5dfb27d21d",
          "vout": 0,
          "scriptSig": {
            "asm": "304402203baae7a10eddfe364b5080f702a14fd991e42f7008bcf4c54f677abc075b78470220338915cf8a630c7b8f810d6ae8356c0a6daa7942b042e8d87d0344f8f98a0623[ALL] 03bf07aa2ac25d4c305a6dd8419a664ebb3b4e7dfefd0fef6c937d84f121a5f7e0",
            "hex": "47304402203baae7a10eddfe364b5080f702a14fd991e42f7008bcf4c54f677abc075b78470220338915cf8a630c7b8f810d6ae8356c0a6daa7942b042e8d87d0344f8f98a0623012103bf07aa2ac25d4c305a6dd8419a664ebb3b4e7dfefd0fef6c937d84f121a5f7e0"
          },
          "sequence": 4294967295
        }, 
        {
          "txid": "d8f54a0a49d3921c51c0972494c5beca4b00f26957802922e95a03b3c536c179",
          "vout": 1,
          "scriptSig": {
            "asm": "304402200ef5ca34bab8a1b15f595cbcb5cedb629852c66d7268fd344580f9ec26d3535c022072f9a0a6ecce8a93dd138517c33310ae7585be2a24a3ad6bbdd7a5d1e4365fcb[ALL] 03bc8a64b7a866c4dd05a891f08e4f9e7f0a78d2f3c40bf27df89d03df82d7a447",
            "hex": "47304402200ef5ca34bab8a1b15f595cbcb5cedb629852c66d7268fd344580f9ec26d3535c022072f9a0a6ecce8a93dd138517c33310ae7585be2a24a3ad6bbdd7a5d1e4365fcb012103bc8a64b7a866c4dd05a891f08e4f9e7f0a78d2f3c40bf27df89d03df82d7a447"
          },
          "sequence": 4294967295
        }
      ],
      "vout": [
        {
          "value": 1.33681008,
          "n": 0,
          "scriptPubKey": {
            "asm": "OP_HASH160 a72b16b8005cea7f1cb25f3cbb0fccfa1cfb7fb3 OP_EQUAL",
            "hex": "a914a72b16b8005cea7f1cb25f3cbb0fccfa1cfb7fb387",
            "reqSigs": 1,
            "type": "scripthash",
            "addresses": [
              "MP94hKmRPvifLVGXdGWF7Lu8rfb8zf6Dex"
            ]
          }
        }
      ],
      "hex": "01000000021dd227fb5dfd5b428005770347e184ca340f16774d0c63f04737650a87875357000000006a47304402203baae7a10eddfe364b5080f702a14fd991e42f7008bcf4c54f677abc075b78470220338915cf8a630c7b8f810d6ae8356c0a6daa7942b042e8d87d0344f8f98a0623012103bf07aa2ac25d4c305a6dd8419a664ebb3b4e7dfefd0fef6c937d84f121a5f7e0ffffffff79c136c5b3035ae92229805769f2004bcabec5942497c0511c92d3490a4af5d8010000006a47304402200ef5ca34bab8a1b15f595cbcb5cedb629852c66d7268fd344580f9ec26d3535c022072f9a0a6ecce8a93dd138517c33310ae7585be2a24a3ad6bbdd7a5d1e4365fcb012103bc8a64b7a866c4dd05a891f08e4f9e7f0a78d2f3c40bf27df89d03df82d7a447ffffffff0170cff7070000000017a914a72b16b8005cea7f1cb25f3cbb0fccfa1cfb7fb38700000000"
    }, 
    {
      "txid": "6f013754c95cb412253f96cbeda13ec95595f9510bb51753a0c7b4b0c4f579ad",
      "hash": "6f013754c95cb412253f96cbeda13ec95595f9510bb51753a0c7b4b0c4f579ad",
      "version": 1,
      "size": 223,
      "vsize": 223,
      "locktime": 0,
      "vin": [
        {
          "txid": "0b5a6c96ddd3cd21a085b7088ce49d9a2ac1bb75ac1f941418d8ff951bfa36ae",
          "vout": 0,
          "scriptSig": {
            "asm": "304402207eb89a8c09ed0d44d09299d2f606066b2dd71179136d63de5fee486290496f5802206b67e49aed41af53fab965f47a63421cc9ebffa09158d096d672d97a1f378b85[ALL] 03df9d32bd2cf0a1131692e717f1181003d64b76692e35e4a52095b94fe5b4d7d8",
            "hex": "47304402207eb89a8c09ed0d44d09299d2f606066b2dd71179136d63de5fee486290496f5802206b67e49aed41af53fab965f47a63421cc9ebffa09158d096d672d97a1f378b85012103df9d32bd2cf0a1131692e717f1181003d64b76692e35e4a52095b94fe5b4d7d8"
          },
          "sequence": 4294967295
        }
      ],
      "vout": [
        {
          "value": 0.11382000,
          "n": 0,
          "scriptPubKey": {
            "asm": "OP_HASH160 0069907e3d2c86023934a3a0a6818714582dc6eb OP_EQUAL",
            "hex": "a9140069907e3d2c86023934a3a0a6818714582dc6eb87",
            "reqSigs": 1,
            "type": "scripthash",
            "addresses": [
              "M7wLhB7Kt9YcQbc926yC9HorwUQHt8GWJP"
            ]
          }
        }, 
        {
          "value": 0.15819944,
          "n": 1,
          "scriptPubKey": {
            "asm": "OP_DUP OP_HASH160 208d85918e1d08360d9334f4dab80bb3fccc692e OP_EQUALVERIFY OP_CHECKSIG",
            "hex": "76a914208d85918e1d08360d9334f4dab80bb3fccc692e88ac",
            "reqSigs": 1,
            "type": "pubkeyhash",
            "addresses": [
              "LNC5RTMwkdoJFzmEJkQUpcN6dB1YoP9Z45"
            ]
          }
        }
      ],
      "hex": "0100000001ae36fa1b95ffd81814941fac75bbc12a9a9de48c08b785a021cdd3dd966c5a0b000000006a47304402207eb89a8c09ed0d44d09299d2f606066b2dd71179136d63de5fee486290496f5802206b67e49aed41af53fab965f47a63421cc9ebffa09158d096d672d97a1f378b85012103df9d32bd2cf0a1131692e717f1181003d64b76692e35e4a52095b94fe5b4d7d8ffffffff02f0acad000000000017a9140069907e3d2c86023934a3a0a6818714582dc6eb87a864f100000000001976a914208d85918e1d08360d9334f4dab80bb3fccc692e88ac00000000"
    }, 
    {
      "txid": "4fc6ad7a2be140fb12234ffcd2cc83e13e91463d0ee5d8efb3620c57fb063028",
      "hash": "4fc6ad7a2be140fb12234ffcd2cc83e13e91463d0ee5d8efb3620c57fb063028",
      "version": 1,
      "size": 225,
      "vsize": 225,
      "locktime": 0,
      "vin": [
        {
          "txid": "588d843ba98d19e6c60f4e85af3ff9293542c2cd43abbcdee38f8f017efdcfed",
          "vout": 0,
          "scriptSig": {
            "asm": "30440220010afe9bc30dbbb9f1248c211550f8f21139f9e41ffda835a115061fe19e1a59022057cf177422ce28e375657821e0e36c538c11f2231fdd9ce3f34e819a1b3f89b6[ALL] 02d03c071931dc755ee7c4ac27bc41704fdce878fc3613e172de70aa402159c9c4",
            "hex": "4730440220010afe9bc30dbbb9f1248c211550f8f21139f9e41ffda835a115061fe19e1a59022057cf177422ce28e375657821e0e36c538c11f2231fdd9ce3f34e819a1b3f89b6012102d03c071931dc755ee7c4ac27bc41704fdce878fc3613e172de70aa402159c9c4"
          },
          "sequence": 4294967295
        }
      ],
      "vout": [
        {
          "value": 0.72515764,
          "n": 0,
          "scriptPubKey": {
            "asm": "OP_DUP OP_HASH160 db51ad8644187e6825e406fdd55cd4505f01280d OP_EQUALVERIFY OP_CHECKSIG",
            "hex": "76a914db51ad8644187e6825e406fdd55cd4505f01280d88ac",
            "reqSigs": 1,
            "type": "pubkeyhash",
            "addresses": [
              "LfDc6JJ4qJFNtH9ytdngx2XheAXGTnvXQr"
            ]
          }
        }, 
        {
          "value": 0.06855535,
          "n": 1,
          "scriptPubKey": {
            "asm": "OP_DUP OP_HASH160 01d287d41db590b67eeb29641588451476c524f8 OP_EQUALVERIFY OP_CHECKSIG",
            "hex": "76a91401d287d41db590b67eeb29641588451476c524f888ac",
            "reqSigs": 1,
            "type": "pubkeyhash",
            "addresses": [
              "LKPb9KrxmsBdr6y5iByJd88x8mMfzHQ32n"
            ]
          }
        }
      ],
      "hex": "0100000001edcffd7e018f8fe3debcab43cdc2423529f93faf854e0fc6e6198da93b848d58000000006a4730440220010afe9bc30dbbb9f1248c211550f8f21139f9e41ffda835a115061fe19e1a59022057cf177422ce28e375657821e0e36c538c11f2231fdd9ce3f34e819a1b3f89b6012102d03c071931dc755ee7c4ac27bc41704fdce878fc3613e172de70aa402159c9c4ffffffff02b4805204000000001976a914db51ad8644187e6825e406fdd55cd4505f01280d88ac6f9b6800000000001976a91401d287d41db590b67eeb29641588451476c524f888ac00000000"
    }, 
    {
      "txid": "d8fc4238b5712261f8c8d239335154afaea698b2ef61b5fc39b37163c5ef1d46",
      "hash": "d8fc4238b5712261f8c8d239335154afaea698b2ef61b5fc39b37163c5ef1d46",
      "version": 1,
      "size": 225,
      "vsize": 225,
      "locktime": 0,
      "vin": [
        {
          "txid": "487082d4a00e4b0220b617dcc58e412bdfe33c56d65a9af726ba6c6f07e842b7",
          "vout": 1,
          "scriptSig": {
            "asm": "3044022001cbb8518150776e4a37b1000528326f91f5b1ee6bea58693a0f4036c3e433f10220429c821da4f4495271913cd3de6beb1b7c713a26217a6b50c1ee8de985d6351c[ALL] 022af3fe83ccb7c3099a65118221f7db83c4f9e1597cdbb8b125d7113c9463107a",
            "hex": "473044022001cbb8518150776e4a37b1000528326f91f5b1ee6bea58693a0f4036c3e433f10220429c821da4f4495271913cd3de6beb1b7c713a26217a6b50c1ee8de985d6351c0121022af3fe83ccb7c3099a65118221f7db83c4f9e1597cdbb8b125d7113c9463107a"
          },
          "sequence": 4294967295
        }
      ],
      "vout": [
        {
          "value": 3.00000000,
          "n": 0,
          "scriptPubKey": {
            "asm": "OP_DUP OP_HASH160 c16a9c2545c3923de9284f3ac19797fb2f1d681a OP_EQUALVERIFY OP_CHECKSIG",
            "hex": "76a914c16a9c2545c3923de9284f3ac19797fb2f1d681a88ac",
            "reqSigs": 1,
            "type": "pubkeyhash",
            "addresses": [
              "LcrePdCsV96Jrwt7FQiviwkFHgfHf7qhdv"
            ]
          }
        }, 
        {
          "value": 2.25004165,
          "n": 1,
          "scriptPubKey": {
            "asm": "OP_DUP OP_HASH160 7f77bc4de02d49a381e8704e9341825b8ed732cc OP_EQUALVERIFY OP_CHECKSIG",
            "hex": "76a9147f77bc4de02d49a381e8704e9341825b8ed732cc88ac",
            "reqSigs": 1,
            "type": "pubkeyhash",
            "addresses": [
              "LWqwWwxCz13utVVR4iBUxFaAQbN7BfKBfQ"
            ]
          }
        }
      ],
      "hex": "0100000001b742e8076f6cba26f79a5ad6563ce3df2b418ec5dc17b620024b0ea0d4827048010000006a473044022001cbb8518150776e4a37b1000528326f91f5b1ee6bea58693a0f4036c3e433f10220429c821da4f4495271913cd3de6beb1b7c713a26217a6b50c1ee8de985d6351c0121022af3fe83ccb7c3099a65118221f7db83c4f9e1597cdbb8b125d7113c9463107affffffff0200a3e111000000001976a914c16a9c2545c3923de9284f3ac19797fb2f1d681a88ac854a690d000000001976a9147f77bc4de02d49a381e8704e9341825b8ed732cc88ac00000000"
    }, 
    {
      "txid": "b6060233a9220487f0db332721cf01b9e58bcc6da43463bcf08fc876bfbd5c57",
      "hash": "b6060233a9220487f0db332721cf01b9e58bcc6da43463bcf08fc876bfbd5c57",
      "version": 2,
      "size": 225,
      "vsize": 225,
      "locktime": 1357507,
      "vin": [
        {
          "txid": "8edd681d6fcbe32680aef97662d261e3f869ad06e8a481fd346961fe7283555c",
          "vout": 1,
          "scriptSig": {
            "asm": "304402206c7eeaa1cad229d23232b2e09614ef9101e8bac0b1eb70f19cb2103c35792e3a022071e685d51490a52a735ef9d15ccf43253a1371e49f7cc096383e8578bd4fe55d[ALL] 02fdecc9f2789eda249bc82bbf850c08a701b3e4a3f399609a61c171bd39f8d744",
            "hex": "47304402206c7eeaa1cad229d23232b2e09614ef9101e8bac0b1eb70f19cb2103c35792e3a022071e685d51490a52a735ef9d15ccf43253a1371e49f7cc096383e8578bd4fe55d012102fdecc9f2789eda249bc82bbf850c08a701b3e4a3f399609a61c171bd39f8d744"
          },
          "sequence": 4294967294
        }
      ],
      "vout": [
        {
          "value": 5.67408759,
          "n": 0,
          "scriptPubKey": {
            "asm": "OP_DUP OP_HASH160 f4cc67e8f79cf2c22466275b0c1bab3d0bc85850 OP_EQUALVERIFY OP_CHECKSIG",
            "hex": "76a914f4cc67e8f79cf2c22466275b0c1bab3d0bc8585088ac",
            "reqSigs": 1,
            "type": "pubkeyhash",
            "addresses": [
              "LhYL1PbjKgbTHbeJaMLVyLX6uNdTJRERAC"
            ]
          }
        }, 
        {
          "value": 0.15166835,
          "n": 1,
          "scriptPubKey": {
            "asm": "OP_DUP OP_HASH160 dff2310322ef7fd4c4d48ca4144afcfaf7a9daef OP_EQUALVERIFY OP_CHECKSIG",
            "hex": "76a914dff2310322ef7fd4c4d48ca4144afcfaf7a9daef88ac",
            "reqSigs": 1,
            "type": "pubkeyhash",
            "addresses": [
              "Lfe55kN11eK9dWiTzt9Qx5yFELTKN5vCmz"
            ]
          }
        }
      ],
      "hex": "02000000015c558372fe616934fd81a4e806ad69f8e361d26276f9ae8026e3cb6f1d68dd8e010000006a47304402206c7eeaa1cad229d23232b2e09614ef9101e8bac0b1eb70f19cb2103c35792e3a022071e685d51490a52a735ef9d15ccf43253a1371e49f7cc096383e8578bd4fe55d012102fdecc9f2789eda249bc82bbf850c08a701b3e4a3f399609a61c171bd39f8d744feffffff0277f8d121000000001976a914f4cc67e8f79cf2c22466275b0c1bab3d0bc8585088ac736de700000000001976a914dff2310322ef7fd4c4d48ca4144afcfaf7a9daef88acc3b61400"
    }, 
    {
      "txid": "5e5a815fce9af2e130f9b3275527f9facee644c3e2072a995a1205c072ee20d8",
      "hash": "5e5a815fce9af2e130f9b3275527f9facee644c3e2072a995a1205c072ee20d8",
      "version": 2,
      "size": 225,
      "vsize": 225,
      "locktime": 1357507,
      "vin": [
        {
          "txid": "af4662fb2033b1fd16e4b4eff90506d7dbd84e485dab248a0ee0141be3b9cece",
          "vout": 0,
          "scriptSig": {
            "asm": "3044022046cda65d491996a112c8c305797ebc88b2c5bfbdf97f654a2fb882d4880707870220268edce4dc5db6cefdea40ee0388dd64f90f5d1897258301b3e8694c73b2bd69[ALL] 02b06eb8dc3196285d864299d248ce10eedac959b5fd59e3fb368c42a3ebe88669",
            "hex": "473044022046cda65d491996a112c8c305797ebc88b2c5bfbdf97f654a2fb882d4880707870220268edce4dc5db6cefdea40ee0388dd64f90f5d1897258301b3e8694c73b2bd69012102b06eb8dc3196285d864299d248ce10eedac959b5fd59e3fb368c42a3ebe88669"
          },
          "sequence": 4294967294
        }
      ],
      "vout": [
        {
          "value": 368.97401019,
          "n": 0,
          "scriptPubKey": {
            "asm": "OP_DUP OP_HASH160 e1d76d62a4cdfa81e8685e7e8ff82a92dba54584 OP_EQUALVERIFY OP_CHECKSIG",
            "hex": "76a914e1d76d62a4cdfa81e8685e7e8ff82a92dba5458488ac",
            "reqSigs": 1,
            "type": "pubkeyhash",
            "addresses": [
              "Lfp6NXQnVuASKGR5iFo6PMJV9GKk7zgqsN"
            ]
          }
        }, 
        {
          "value": 0.82367000,
          "n": 1,
          "scriptPubKey": {
            "asm": "OP_DUP OP_HASH160 32f2829760916261d3715e145f73a502f721e0e9 OP_EQUALVERIFY OP_CHECKSIG",
            "hex": "76a91432f2829760916261d3715e145f73a502f721e0e988ac",
            "reqSigs": 1,
            "type": "pubkeyhash",
            "addresses": [
              "LPsLZhjvjq65eCgeSu5YJsxTScmC9MTC49"
            ]
          }
        }
      ],
      "hex": "0200000001ceceb9e31b14e00e8a24ab5d484ed8dbd70605f9efb4e416fdb13320fb6246af000000006a473044022046cda65d491996a112c8c305797ebc88b2c5bfbdf97f654a2fb882d4880707870220268edce4dc5db6cefdea40ee0388dd64f90f5d1897258301b3e8694c73b2bd69012102b06eb8dc3196285d864299d248ce10eedac959b5fd59e3fb368c42a3ebe88669feffffff02bba84197080000001976a914e1d76d62a4cdfa81e8685e7e8ff82a92dba5458488ac18d2e804000000001976a91432f2829760916261d3715e145f73a502f721e0e988acc3b61400"
    }, 
    {
      "txid": "0016ae8b2e1d8b31127bdf3cfb5d45d527f2a99bce47091805debf0dda22c2ff",
      "hash": "0016ae8b2e1d8b31127bdf3cfb5d45d527f2a99bce47091805debf0dda22c2ff",
      "version": 1,
      "size": 225,
      "vsize": 225,
      "locktime": 0,
      "vin": [
        {
          "txid": "3a72c9942d4c6610a8dc216faa02efe20cc5745242242161d635a17a35a04acf",
          "vout": 1361,
          "scriptSig": {
            "asm": "304402200fcb3ebe28f3c076f1b1fb60f8b56ab3cca5313f853d3788acbe7394e19b0a14022044ef2823ed8f5b0b04ae7cdfe8edfa5296b2fd9f3f7bed97c7c818f9b285fca0[ALL] 028514ebfc16d09c7769e70167c8533fff45adad1de3ee2e22481b083da1cbecd5",
            "hex": "47304402200fcb3ebe28f3c076f1b1fb60f8b56ab3cca5313f853d3788acbe7394e19b0a14022044ef2823ed8f5b0b04ae7cdfe8edfa5296b2fd9f3f7bed97c7c818f9b285fca00121028514ebfc16d09c7769e70167c8533fff45adad1de3ee2e22481b083da1cbecd5"
          },
          "sequence": 4294967295
        }
      ],
      "vout": [
        {
          "value": 0.00384151,
          "n": 0,
          "scriptPubKey": {
            "asm": "OP_DUP OP_HASH160 a9498355332a51b13cd7ab645d3585d7018d28aa OP_EQUALVERIFY OP_CHECKSIG",
            "hex": "76a914a9498355332a51b13cd7ab645d3585d7018d28aa88ac",
            "reqSigs": 1,
            "type": "pubkeyhash",
            "addresses": [
              "Laf4XQXY2Wv5XRGxqAPioQ3uL7iGYYcMvn"
            ]
          }
        }, 
        {
          "value": 0.00054606,
          "n": 1,
          "scriptPubKey": {
            "asm": "OP_DUP OP_HASH160 8cec890469ebc08d0dde40c723aae6a32987e677 OP_EQUALVERIFY OP_CHECKSIG",
            "hex": "76a9148cec890469ebc08d0dde40c723aae6a32987e67788ac",
            "reqSigs": 1,
            "type": "pubkeyhash",
            "addresses": [
              "LY56Dpne1veLj6FoxSU9LBuspuSBit1ag2"
            ]
          }
        }
      ],
      "hex": "0100000001cf4aa0357aa135d6612124425274c50ce2ef02aa6f21dca810664c2d94c9723a510500006a47304402200fcb3ebe28f3c076f1b1fb60f8b56ab3cca5313f853d3788acbe7394e19b0a14022044ef2823ed8f5b0b04ae7cdfe8edfa5296b2fd9f3f7bed97c7c818f9b285fca00121028514ebfc16d09c7769e70167c8533fff45adad1de3ee2e22481b083da1cbecd5ffffffff0297dc0500000000001976a914a9498355332a51b13cd7ab645d3585d7018d28aa88ac4ed50000000000001976a9148cec890469ebc08d0dde40c723aae6a32987e67788ac00000000"
    }, 
    {
      "txid": "8c4520d2a217b107aa95598249aa4cc270098c412c99e33183e862b40891e013",
      "hash": "8c4520d2a217b107aa95598249aa4cc270098c412c99e33183e862b40891e013",
      "version": 1,
      "size": 226,
      "vsize": 226,
      "locktime": 0,
      "vin": [
        {
          "txid": "54729ef8eba624499f3a7ea693cf94baef22c9fcdfc02f488ed7bade833a69e8",
          "vout": 7,
          "scriptSig": {
            "asm": "3045022100b45f86ca4ebff2300c280caf1fbf8359ad3634b95a6c0f469ce8578f8beea3fa02206e0b02fa0af19424953b8902f9846f7f026d99a560cdf38a6e0caf116da751b1[ALL] 02493784ae8a650e212ad922ea57b5b8d46e75dc31ab7247d9974a62e486811924",
            "hex": "483045022100b45f86ca4ebff2300c280caf1fbf8359ad3634b95a6c0f469ce8578f8beea3fa02206e0b02fa0af19424953b8902f9846f7f026d99a560cdf38a6e0caf116da751b1012102493784ae8a650e212ad922ea57b5b8d46e75dc31ab7247d9974a62e486811924"
          },
          "sequence": 4294967295
        }
      ],
      "vout": [
        {
          "value": 3.15822516,
          "n": 0,
          "scriptPubKey": {
            "asm": "OP_DUP OP_HASH160 56889e25c35c4f19a064d6b07037d88f65d69bb7 OP_EQUALVERIFY OP_CHECKSIG",
            "hex": "76a91456889e25c35c4f19a064d6b07037d88f65d69bb788ac",
            "reqSigs": 1,
            "type": "pubkeyhash",
            "addresses": [
              "LT7W35YEAZYV7za7i6m1QRzCa7wERjneCB"
            ]
          }
        }, 
        {
          "value": 15.00000000,
          "n": 1,
          "scriptPubKey": {
            "asm": "OP_DUP OP_HASH160 22389bdb94577efd034c9dc51903dda12b3a9ae3 OP_EQUALVERIFY OP_CHECKSIG",
            "hex": "76a91422389bdb94577efd034c9dc51903dda12b3a9ae388ac",
            "reqSigs": 1,
            "type": "pubkeyhash",
            "addresses": [
              "LNLu3z5g4kyq96n5CGgGBHox4ePdKxtCuJ"
            ]
          }
        }
      ],
      "hex": "0100000001e8693a83debad78e482fc0dffcc922efba94cf93a67e3a9f4924a6ebf89e7254070000006b483045022100b45f86ca4ebff2300c280caf1fbf8359ad3634b95a6c0f469ce8578f8beea3fa02206e0b02fa0af19424953b8902f9846f7f026d99a560cdf38a6e0caf116da751b1012102493784ae8a650e212ad922ea57b5b8d46e75dc31ab7247d9974a62e486811924ffffffff02b411d312000000001976a91456889e25c35c4f19a064d6b07037d88f65d69bb788ac002f6859000000001976a91422389bdb94577efd034c9dc51903dda12b3a9ae388ac00000000"
    }, 
    {
      "txid": "c129cc068d900e5c1a6f9c7e5666eaa8341176fb0c765c937f0f93379768408b",
      "hash": "c129cc068d900e5c1a6f9c7e5666eaa8341176fb0c765c937f0f93379768408b",
      "version": 1,
      "size": 226,
      "vsize": 226,
      "locktime": 0,
      "vin": [
        {
          "txid": "90f2293f749952a8fe0477a987669ec6c318b8e2f9d68045b3b80b41c3346169",
          "vout": 1,
          "scriptSig": {
            "asm": "3045022100bdf59d85cd16db21a770ed17349ed9d3b3be4ffd739a6a855c29a10dac22298c0220311cf215345e628e0e3c629d42502617865aee8f8faaf03d57a259bda76f679f[ALL] 0242fa772ed8a88a4aa9ed72190e169fac6794b5c9ac21bf3cfd47b3948019ae03",
            "hex": "483045022100bdf59d85cd16db21a770ed17349ed9d3b3be4ffd739a6a855c29a10dac22298c0220311cf215345e628e0e3c629d42502617865aee8f8faaf03d57a259bda76f679f01210242fa772ed8a88a4aa9ed72190e169fac6794b5c9ac21bf3cfd47b3948019ae03"
          },
          "sequence": 4294967295
        }
      ],
      "vout": [
        {
          "value": 0.28144203,
          "n": 0,
          "scriptPubKey": {
            "asm": "OP_DUP OP_HASH160 d99bfb575283de5853f9814960c6862ba08ac054 OP_EQUALVERIFY OP_CHECKSIG",
            "hex": "76a914d99bfb575283de5853f9814960c6862ba08ac05488ac",
            "reqSigs": 1,
            "type": "pubkeyhash",
            "addresses": [
              "Lf4ZkeQbAUMRJVvfRErHUsAxAB4VMYT3H1"
            ]
          }
        }, 
        {
          "value": 0.02737000,
          "n": 1,
          "scriptPubKey": {
            "asm": "OP_DUP OP_HASH160 52d1aabfb34673e11d0975bf44327b469cb22e7c OP_EQUALVERIFY OP_CHECKSIG",
            "hex": "76a91452d1aabfb34673e11d0975bf44327b469cb22e7c88ac",
            "reqSigs": 1,
            "type": "pubkeyhash",
            "addresses": [
              "LSmrqrsz2DTCC7anxXYmuT5vHncvnsD4Hh"
            ]
          }
        }
      ],
      "hex": "0100000001696134c3410bb8b34580d6f9e2b818c3c69e6687a97704fea85299743f29f290010000006b483045022100bdf59d85cd16db21a770ed17349ed9d3b3be4ffd739a6a855c29a10dac22298c0220311cf215345e628e0e3c629d42502617865aee8f8faaf03d57a259bda76f679f01210242fa772ed8a88a4aa9ed72190e169fac6794b5c9ac21bf3cfd47b3948019ae03ffffffff024b72ad01000000001976a914d99bfb575283de5853f9814960c6862ba08ac05488ac68c32900000000001976a91452d1aabfb34673e11d0975bf44327b469cb22e7c88ac00000000"
    }, 
    {
      "txid": "e689e7056bce59b97fc9ca94cf5dc56cc0a7d9b341ba3e7c82e7971a2da417f0",
      "hash": "e689e7056bce59b97fc9ca94cf5dc56cc0a7d9b341ba3e7c82e7971a2da417f0",
      "version": 1,
      "size": 224,
      "vsize": 224,
      "locktime": 0,
      "vin": [
        {
          "txid": "db1fa2fffd7df02a62547b7fdfd4d94f1ac09295d3d69727537fb30a3e5f3d9f",
          "vout": 1,
          "scriptSig": {
            "asm": "3045022100ac486d615d43698fbdf91a1cdf1004c868cfe2d5e89775b7c6fff2bc23abf9ec0220434c5ff7e9aabdfabc0c6f06c61d39ff813ab7bc4be1ae55c6ac890ffd9b3ae4[ALL] 0245c3677aa307b36fb171b6f59342b1b091fed05cfe311febf1ac19aaa74a870b",
            "hex": "483045022100ac486d615d43698fbdf91a1cdf1004c868cfe2d5e89775b7c6fff2bc23abf9ec0220434c5ff7e9aabdfabc0c6f06c61d39ff813ab7bc4be1ae55c6ac890ffd9b3ae401210245c3677aa307b36fb171b6f59342b1b091fed05cfe311febf1ac19aaa74a870b"
          },
          "sequence": 4294967295
        }
      ],
      "vout": [
        {
          "value": 32.90000000,
          "n": 0,
          "scriptPubKey": {
            "asm": "OP_HASH160 ecc15268f8cbe7496280bec3cc1c226a8db5a3f7 OP_EQUAL",
            "hex": "a914ecc15268f8cbe7496280bec3cc1c226a8db5a3f787",
            "reqSigs": 1,
            "type": "scripthash",
            "addresses": [
              "MVV1HwiiVkivjt19FG3w85KKuW475y7XeA"
            ]
          }
        }, 
        {
          "value": 1.81934491,
          "n": 1,
          "scriptPubKey": {
            "asm": "OP_DUP OP_HASH160 c3d04ec8a3470edeedeb80fccfec36bae5aca083 OP_EQUALVERIFY OP_CHECKSIG",
            "hex": "76a914c3d04ec8a3470edeedeb80fccfec36bae5aca08388ac",
            "reqSigs": 1,
            "type": "pubkeyhash",
            "addresses": [
              "Ld5Ka6XUPQNkqsSwGDM998asuEzGLqiirv"
            ]
          }
        }
      ],
      "hex": "01000000019f3d5f3e0ab37f532797d6d39592c01a4fd9d4df7f7b54622af07dfdffa21fdb010000006b483045022100ac486d615d43698fbdf91a1cdf1004c868cfe2d5e89775b7c6fff2bc23abf9ec0220434c5ff7e9aabdfabc0c6f06c61d39ff813ab7bc4be1ae55c6ac890ffd9b3ae401210245c3677aa307b36fb171b6f59342b1b091fed05cfe311febf1ac19aaa74a870bffffffff02806a19c40000000017a914ecc15268f8cbe7496280bec3cc1c226a8db5a3f7879b19d80a000000001976a914c3d04ec8a3470edeedeb80fccfec36bae5aca08388ac00000000"
    }, 
    {
      "txid": "645631cbf24fd42c9ab3a3b764bfae95db904d42ba4ca4c683bac6140bb58efb",
      "hash": "645631cbf24fd42c9ab3a3b764bfae95db904d42ba4ca4c683bac6140bb58efb",
      "version": 1,
      "size": 226,
      "vsize": 226,
      "locktime": 0,
      "vin": [
        {
          "txid": "fab4ec98bf2fd450d730c899e7d60aa43e33d51054036c7ea07154f94862b645",
          "vout": 1,
          "scriptSig": {
            "asm": "3045022100bfe02ce61800f4fef2c4a8558c5f5985504068f100663439c7c5ea8f86be876802202f452a87307863ade57f63102eac9d55c28626c806906e634aac33ed663b2d0d[ALL] 0277dca43c47c7ef5f0844c771396b8b36c95a563543b5a7a5b322304fc3672114",
            "hex": "483045022100bfe02ce61800f4fef2c4a8558c5f5985504068f100663439c7c5ea8f86be876802202f452a87307863ade57f63102eac9d55c28626c806906e634aac33ed663b2d0d01210277dca43c47c7ef5f0844c771396b8b36c95a563543b5a7a5b322304fc3672114"
          },
          "sequence": 4294967295
        }
      ],
      "vout": [
        {
          "value": 0.23109000,
          "n": 0,
          "scriptPubKey": {
            "asm": "OP_DUP OP_HASH160 ad1fa2fbcd5dd656f44accd9db68299a34e18ca7 OP_EQUALVERIFY OP_CHECKSIG",
            "hex": "76a914ad1fa2fbcd5dd656f44accd9db68299a34e18ca788ac",
            "reqSigs": 1,
            "type": "pubkeyhash",
            "addresses": [
              "Lb1M4Z2UkZPQBfiaPMiWN6J8XaKJrjD3XN"
            ]
          }
        }, 
        {
          "value": 1.13821000,
          "n": 1,
          "scriptPubKey": {
            "asm": "OP_DUP OP_HASH160 b0697bf643f27e2cbe700b215a3654760ba7d16a OP_EQUALVERIFY OP_CHECKSIG",
            "hex": "76a914b0697bf643f27e2cbe700b215a3654760ba7d16a88ac",
            "reqSigs": 1,
            "type": "pubkeyhash",
            "addresses": [
              "LbJjZ9X9mokiu2gKdDuCooXr82gpFbt9fK"
            ]
          }
        }
      ],
      "hex": "010000000145b66248f95471a07e6c035410d5333ea40ad6e799c830d750d42fbf98ecb4fa010000006b483045022100bfe02ce61800f4fef2c4a8558c5f5985504068f100663439c7c5ea8f86be876802202f452a87307863ade57f63102eac9d55c28626c806906e634aac33ed663b2d0d01210277dca43c47c7ef5f0844c771396b8b36c95a563543b5a7a5b322304fc3672114ffffffff02889d6001000000001976a914ad1fa2fbcd5dd656f44accd9db68299a34e18ca788ac48c5c806000000001976a914b0697bf643f27e2cbe700b215a3654760ba7d16a88ac00000000"
    }
  ],
  "time": 1517010814,
  "mediantime": 1517010291,
  "nonce": 1941395793,
  "bits": "1a047f14",
  "difficulty": 3731199.183374282,
  "chainwork": "000000000000000000000000000000000000000000000032494f6f6834ed8b1c",
  "previousblockhash": "029a8c700c58c3ff6370ccfbf93361680a3b0bb473724342ee863b571a786112",
  "nextblockhash": "660cb7e7f8dc25bdede7e5f717689d9ae3dbf6c27f931b06f647b968d362ea9b"
}
