{
  "hash": "fc41e04e5407083afabf98eee0210d3c4100d3e804a87fc16ea8d2d5dd0d7f2f",
  "confirmations": 2591,
  "strippedsize": 255,
  "size": 255,
  "weight": 1020,
  "height": 1358404,
  "version": 536870912,
  "versionHex": "20000000",
  "merkleroot": "a6109bcb015749d54339d0cfa2d21487121ba099596a7526de93977ec84d3fe0",
  "tx": [
    {
      "txid": "a6109bcb015749d54339d0cfa2d21487121ba099596a7526de93977ec84d3fe0",
      "hash": "a6109bcb015749d54339d0cfa2d21487121ba099596a7526de93977ec84d3fe0",
      "version": 1,
      "size": 174,
      "vsize": 174,
      "locktime": 0,
      "vin": [
        {
          "coinbase": "0344ba141c4d696e656420627920416e74506f6f6c20626a3242205a6dab860b26fabe6d6d2ce26db9903d1d80498306bfc52ab50ed841ea81a0b64f32cfef19da1b5c758e0400000000000000000500000000000004000000",
          "sequence": 4294967295
        }
      ],
      "vout": [
        {
          "value": 25.00000000,
          "n": 0,
          "scriptPubKey": {
            "asm": "OP_DUP OP_HASH160 0ff3ccc5e8be88afe24b5d634e5852d474dbdff1 OP_EQUALVERIFY OP_CHECKSIG",
            "hex": "76a9140ff3ccc5e8be88afe24b5d634e5852d474dbdff188ac",
            "reqSigs": 1,
            "type": "pubkeyhash",
            "addresses": [
              "LLgJTbzZMsRTCUF1NtvvL9SR1a4pVieW89"
            ]
          }
        }
      ],
      "hex": "01000000010000000000000000000000000000000000000000000000000000000000000000ffffffff590344ba141c4d696e656420627920416e74506f6f6c20626a3242205a6dab860b26fabe6d6d2ce26db9903d1d80498306bfc52ab50ed841ea81a0b64f32cfef19da1b5c758e0400000000000000000500000000000004000000ffffffff0100f90295000000001976a9140ff3ccc5e8be88afe24b5d634e5852d474dbdff188ac00000000"
    }
  ],
  "time": 1517136774,
  "mediantime": 1517135963,
  "nonce": 1654897623,
  "bits": "1a047f14",
  "difficulty": 3731199.183374282,
  "chainwork": "000000000000000000000000000000000000000000000033105bc499a8d62a02",
  "previousblockhash": "9aa30c2bd80d9ca921701f3a9132a9d78a6a95d943a0f141725c55ea9be89536",
  "nextblockhash": "924f9bf9ac75fe4a5993a72b4eac46331989e1a9abfa2bfa62c4a08f51e6df20"
}
