{
  "hash": "fca75749631e3c3b5188a4554c8e96cdd9942e4824b95b772f72f27486a1e35d",
  "confirmations": 2869,
  "strippedsize": 1106,
  "size": 1142,
  "weight": 4460,
  "height": 1358126,
  "version": 536870912,
  "versionHex": "20000000",
  "merkleroot": "215e4ec971f8dfb11a7ba32e5ef2fd36075983bb2ef9daf0ae2fa30af5fde374",
  "tx": [
    {
      "txid": "48856e851e9cf10cac548cce1f53bc667dd1778e041c54e715304f0325222a5f",
      "hash": "eb21a5b772c61bdfccf239b3f16c69c5fde6a844b425aef642bb3207ec349bf6",
      "version": 1,
      "size": 236,
      "vsize": 209,
      "locktime": 0,
      "vin": [
        {
          "coinbase": "032eb914045a6d013c2cfabe6d6db5994e817d6885d1ca6f3bf343c14b20a1773ca3301f2009c2c6ba37f30753354000000000000000042f4c502f085600315619000000",
          "sequence": 4294967295
        }
      ],
      "vout": [
        {
          "value": 25.00157579,
          "n": 0,
          "scriptPubKey": {
            "asm": "OP_DUP OP_HASH160 57757ed2ecf2052ff3126c397aca7defb9ca2cec OP_EQUALVERIFY OP_CHECKSIG",
            "hex": "76a91457757ed2ecf2052ff3126c397aca7defb9ca2cec88ac",
            "reqSigs": 1,
            "type": "pubkeyhash",
            "addresses": [
              "LTCPodGk5FwcJaRzH9yKnwicxzFUbxp6tN"
            ]
          }
        }, 
        {
          "value": 0.00000000,
          "n": 1,
          "scriptPubKey": {
            "asm": "OP_RETURN aa21a9ed09d72bd26cef3262de88deeac2f1450a8e2020962576716f166df4bf811ab3aa",
            "hex": "6a24aa21a9ed09d72bd26cef3262de88deeac2f1450a8e2020962576716f166df4bf811ab3aa",
            "type": "nulldata"
          }
        }
      ],
      "hex": "010000000001010000000000000000000000000000000000000000000000000000000000000000ffffffff44032eb914045a6d013c2cfabe6d6db5994e817d6885d1ca6f3bf343c14b20a1773ca3301f2009c2c6ba37f30753354000000000000000042f4c502f085600315619000000ffffffff028b600595000000001976a91457757ed2ecf2052ff3126c397aca7defb9ca2cec88ac0000000000000000266a24aa21a9ed09d72bd26cef3262de88deeac2f1450a8e2020962576716f166df4bf811ab3aa0120000000000000000000000000000000000000000000000000000000000000000000000000"
    }, 
    {
      "txid": "7be28c8cb619091f59cb34ec534fc0d6c27756bf02bae90af1a5565d213bfdec",
      "hash": "7be28c8cb619091f59cb34ec534fc0d6c27756bf02bae90af1a5565d213bfdec",
      "version": 1,
      "size": 225,
      "vsize": 225,
      "locktime": 0,
      "vin": [
        {
          "txid": "b648636fb05f34d90d36b2a2cbfc67b604a06701af57d78416322f8757f0354d",
          "vout": 1,
          "scriptSig": {
            "asm": "30440220548e86be91b0d2972931bdd04d52d63809a7e5a0ab71ab1b9bfa709445ed88b402203d2faa2427fe3fcee135ef2058e3a0638a2dc6a76365839df53354f7a12f8f56[ALL] 0308956e71050f9e6b9320a295a3f1ea85cc4c616a66f4a8151ec930ab2c397fa9",
            "hex": "4730440220548e86be91b0d2972931bdd04d52d63809a7e5a0ab71ab1b9bfa709445ed88b402203d2faa2427fe3fcee135ef2058e3a0638a2dc6a76365839df53354f7a12f8f5601210308956e71050f9e6b9320a295a3f1ea85cc4c616a66f4a8151ec930ab2c397fa9"
          },
          "sequence": 4294967295
        }
      ],
      "vout": [
        {
          "value": 10.75611761,
          "n": 0,
          "scriptPubKey": {
            "asm": "OP_DUP OP_HASH160 145ad3c0e673517356441ea3dc72e3a57727167e OP_EQUALVERIFY OP_CHECKSIG",
            "hex": "76a914145ad3c0e673517356441ea3dc72e3a57727167e88ac",
            "reqSigs": 1,
            "type": "pubkeyhash",
            "addresses": [
              "LM5aaqBNKVkV44ZFKNxAFQVGt6bmsfqtLd"
            ]
          }
        }, 
        {
          "value": 0.50000000,
          "n": 1,
          "scriptPubKey": {
            "asm": "OP_DUP OP_HASH160 110973370935b339a0a23a0bef584b84b72af1d0 OP_EQUALVERIFY OP_CHECKSIG",
            "hex": "76a914110973370935b339a0a23a0bef584b84b72af1d088ac",
            "reqSigs": 1,
            "type": "pubkeyhash",
            "addresses": [
              "LLn355LwDiuKJo6ywu47qtK65nqeg2UkQY"
            ]
          }
        }
      ],
      "hex": "01000000014d35f057872f321684d757af0167a004b667fccba2b2360dd9345fb06f6348b6010000006a4730440220548e86be91b0d2972931bdd04d52d63809a7e5a0ab71ab1b9bfa709445ed88b402203d2faa2427fe3fcee135ef2058e3a0638a2dc6a76365839df53354f7a12f8f5601210308956e71050f9e6b9320a295a3f1ea85cc4c616a66f4a8151ec930ab2c397fa9ffffffff0271881c40000000001976a914145ad3c0e673517356441ea3dc72e3a57727167e88ac80f0fa02000000001976a914110973370935b339a0a23a0bef584b84b72af1d088ac00000000"
    }, 
    {
      "txid": "21380a16da7e3fe58ff24f0c3f872ef1ab1286cdded66048c10a06c6ce8f5e40",
      "hash": "21380a16da7e3fe58ff24f0c3f872ef1ab1286cdded66048c10a06c6ce8f5e40",
      "version": 1,
      "size": 226,
      "vsize": 226,
      "locktime": 0,
      "vin": [
        {
          "txid": "7be28c8cb619091f59cb34ec534fc0d6c27756bf02bae90af1a5565d213bfdec",
          "vout": 0,
          "scriptSig": {
            "asm": "3045022100f42971408de33b6cad9085eafc4e8a12f9a7a931f8e1d973be3d2aaf00799f48022052d988cf0b84810a45b85cb85e7665008ed7f1aad37fdbce5d4419ed5a70664f[ALL] 02220c75b6a73d8c1627889ba3e10ac5a3995c6b4d224ffb62756c528c598c7593",
            "hex": "483045022100f42971408de33b6cad9085eafc4e8a12f9a7a931f8e1d973be3d2aaf00799f48022052d988cf0b84810a45b85cb85e7665008ed7f1aad37fdbce5d4419ed5a70664f012102220c75b6a73d8c1627889ba3e10ac5a3995c6b4d224ffb62756c528c598c7593"
          },
          "sequence": 4294967295
        }
      ],
      "vout": [
        {
          "value": 1.00000000,
          "n": 0,
          "scriptPubKey": {
            "asm": "OP_DUP OP_HASH160 d37c9b4a269ad6f3cd74e58db00b2b0f0c7e9114 OP_EQUALVERIFY OP_CHECKSIG",
            "hex": "76a914d37c9b4a269ad6f3cd74e58db00b2b0f0c7e911488ac",
            "reqSigs": 1,
            "type": "pubkeyhash",
            "addresses": [
              "LeWC7WPocxcHgX13mQzNwQfbD7xwZU1GjR"
            ]
          }
        }, 
        {
          "value": 9.75511761,
          "n": 1,
          "scriptPubKey": {
            "asm": "OP_DUP OP_HASH160 76a2fea422ebb28d0a7770558877683961ff8755 OP_EQUALVERIFY OP_CHECKSIG",
            "hex": "76a91476a2fea422ebb28d0a7770558877683961ff875588ac",
            "reqSigs": 1,
            "type": "pubkeyhash",
            "addresses": [
              "LW3FFvEv5ARamoFhUi6UFVHuDfEjnRYs9T"
            ]
          }
        }
      ],
      "hex": "0100000001ecfd3b215d56a5f10ae9ba02bf5677c2d6c04f53ec34cb591f0919b68c8ce27b000000006b483045022100f42971408de33b6cad9085eafc4e8a12f9a7a931f8e1d973be3d2aaf00799f48022052d988cf0b84810a45b85cb85e7665008ed7f1aad37fdbce5d4419ed5a70664f012102220c75b6a73d8c1627889ba3e10ac5a3995c6b4d224ffb62756c528c598c7593ffffffff0200e1f505000000001976a914d37c9b4a269ad6f3cd74e58db00b2b0f0c7e911488acd120253a000000001976a91476a2fea422ebb28d0a7770558877683961ff875588ac00000000"
    }, 
    {
      "txid": "e44d317cbf82e83bdada563bd2c0b99a1a1ba805b4a04502d4f0ed20f0c4309a",
      "hash": "e44d317cbf82e83bdada563bd2c0b99a1a1ba805b4a04502d4f0ed20f0c4309a",
      "version": 2,
      "size": 374,
      "vsize": 374,
      "locktime": 1356562,
      "vin": [
        {
          "txid": "f9d2979c3c765c1b3411e049efd385a2f9ea3fc6cd77a3d3aad699fce06b36fa",
          "vout": 0,
          "scriptSig": {
            "asm": "3045022100eb73a70ec6ea072a9e83082e414128900ca8d012449736315c0b3ea6b2a3686302205b9b5658e2a2bd71ee65cc5956841348191aeaa1b2fd7bc7d887c0ef700207e2[ALL] 03200f37becb18cd3d214a1c623d8198329d54a43db171b36937a23a2ceb13936a",
            "hex": "483045022100eb73a70ec6ea072a9e83082e414128900ca8d012449736315c0b3ea6b2a3686302205b9b5658e2a2bd71ee65cc5956841348191aeaa1b2fd7bc7d887c0ef700207e2012103200f37becb18cd3d214a1c623d8198329d54a43db171b36937a23a2ceb13936a"
          },
          "sequence": 4294967294
        }, 
        {
          "txid": "14917a8ede5d2a5c0e2ae3653ae79ac1118e67921f4a266700fe32c81a90eb8d",
          "vout": 0,
          "scriptSig": {
            "asm": "3045022100d49d38cb6fd2d52ed72f1fe38a522da85ecc2808e8cad64a2f1375fb7773146a02207d1093bc8d625639bc742db2ba1cbf1113b3672eb193bbea324d77b0fe204177[ALL] 0351d3ec2e2162e4469fb80fb1e9485e65d35937d1c8e883e786d264d8ac39f694",
            "hex": "483045022100d49d38cb6fd2d52ed72f1fe38a522da85ecc2808e8cad64a2f1375fb7773146a02207d1093bc8d625639bc742db2ba1cbf1113b3672eb193bbea324d77b0fe20417701210351d3ec2e2162e4469fb80fb1e9485e65d35937d1c8e883e786d264d8ac39f694"
          },
          "sequence": 4294967294
        }
      ],
      "vout": [
        {
          "value": 0.01427059,
          "n": 0,
          "scriptPubKey": {
            "asm": "OP_DUP OP_HASH160 90b5bfa4912a55c3b8cb9bd5c1be72eb508a90f9 OP_EQUALVERIFY OP_CHECKSIG",
            "hex": "76a91490b5bfa4912a55c3b8cb9bd5c1be72eb508a90f988ac",
            "reqSigs": 1,
            "type": "pubkeyhash",
            "addresses": [
              "LYR7Hx7Zj9Rt5GNTx4gSNUvLu8UuQjq9qN"
            ]
          }
        }, 
        {
          "value": 1.17000000,
          "n": 1,
          "scriptPubKey": {
            "asm": "OP_DUP OP_HASH160 0fbd76d8fb4e89907292a21a7add5b23586d0d1f OP_EQUALVERIFY OP_CHECKSIG",
            "hex": "76a9140fbd76d8fb4e89907292a21a7add5b23586d0d1f88ac",
            "reqSigs": 1,
            "type": "pubkeyhash",
            "addresses": [
              "LLfBNJC8wuLEJPKFU9Cwie1wB5y3JDaRQD"
            ]
          }
        }
      ],
      "hex": "0200000002fa366be0fc99d6aad3a377cdc63feaf9a285d3ef49e011341b5c763c9c97d2f9000000006b483045022100eb73a70ec6ea072a9e83082e414128900ca8d012449736315c0b3ea6b2a3686302205b9b5658e2a2bd71ee65cc5956841348191aeaa1b2fd7bc7d887c0ef700207e2012103200f37becb18cd3d214a1c623d8198329d54a43db171b36937a23a2ceb13936afeffffff8deb901ac832fe0067264a1f92678e11c19ae73a65e32a0e5c2a5dde8e7a9114000000006b483045022100d49d38cb6fd2d52ed72f1fe38a522da85ecc2808e8cad64a2f1375fb7773146a02207d1093bc8d625639bc742db2ba1cbf1113b3672eb193bbea324d77b0fe20417701210351d3ec2e2162e4469fb80fb1e9485e65d35937d1c8e883e786d264d8ac39f694feffffff0273c61500000000001976a91490b5bfa4912a55c3b8cb9bd5c1be72eb508a90f988ac4047f906000000001976a9140fbd76d8fb4e89907292a21a7add5b23586d0d1f88ac12b31400"
    }
  ],
  "time": 1517093180,
  "mediantime": 1517092334,
  "nonce": 2115863729,
  "bits": "1a047f14",
  "difficulty": 3731199.183374282,
  "chainwork": "000000000000000000000000000000000000000000000032d287fda8e783e5c6",
  "previousblockhash": "72c5934de5f7b86fc64ddf82ac90b2a1d177bec2fee864932e1ef549a05f3603",
  "nextblockhash": "0ecfe2402450e7b6810b0412d7089541d142d82f7d3cdca4e3f7376e4d920636"
}
