{
  "hash": "fcb7ed78551c320160f264c9b64f02c150345e3aaf02fb804eedf566e08bea9d",
  "confirmations": 2940,
  "strippedsize": 1118,
  "size": 1154,
  "weight": 4508,
  "height": 1358055,
  "version": 536870912,
  "versionHex": "20000000",
  "merkleroot": "e1a11e1c19e2da68e28be5bd38bd52e246fd8e845124a78f612f4d1992781ab9",
  "tx": [
    {
      "txid": "93c2ae170784f0c48874483ccc8f2e6d70fcb40f606490ff514e4f46eedbb1ce",
      "hash": "6d0abb7f273fb4c4ddd0fdcad0b53af6c8d6035b26b37d5ffe269c12120c491e",
      "version": 1,
      "size": 251,
      "vsize": 224,
      "locktime": 0,
      "vin": [
        {
          "coinbase": "03e7b8140000000000fabe6d6d68897d01f1178530b2a382d83476881fb99631497e362897293482837dfcc2560100000000000000041cd66c5a042aeea902081b7796bb0a0000000a42570a6657042f42572f",
          "sequence": 4294967295
        }
      ],
      "vout": [
        {
          "value": 25.00258250,
          "n": 0,
          "scriptPubKey": {
            "asm": "OP_DUP OP_HASH160 5373bc9425fd49e6bfe522d3dfc85432da2cc023 OP_EQUALVERIFY OP_CHECKSIG",
            "hex": "76a9145373bc9425fd49e6bfe522d3dfc85432da2cc02388ac",
            "reqSigs": 1,
            "type": "pubkeyhash",
            "addresses": [
              "LSqCzf5bPfkqGf94pJcfxWx5bZMPJE5XRf"
            ]
          }
        }, 
        {
          "value": 0.00000000,
          "n": 1,
          "scriptPubKey": {
            "asm": "OP_RETURN aa21a9ed2a20c2881cc01baa5ff4723f8240879d59e291cda42e0f36310d72558a85ec7b",
            "hex": "6a24aa21a9ed2a20c2881cc01baa5ff4723f8240879d59e291cda42e0f36310d72558a85ec7b",
            "type": "nulldata"
          }
        }
      ],
      "hex": "010000000001010000000000000000000000000000000000000000000000000000000000000000ffffffff5303e7b8140000000000fabe6d6d68897d01f1178530b2a382d83476881fb99631497e362897293482837dfcc2560100000000000000041cd66c5a042aeea902081b7796bb0a0000000a42570a6657042f42572fffffffff02cae90695000000001976a9145373bc9425fd49e6bfe522d3dfc85432da2cc02388ac0000000000000000266a24aa21a9ed2a20c2881cc01baa5ff4723f8240879d59e291cda42e0f36310d72558a85ec7b0120000000000000000000000000000000000000000000000000000000000000000000000000"
    }, 
    {
      "txid": "6c5fbaae9f698b54a4026b1873a5763467bb30fb1745db2343a60d1f2b0c4942",
      "hash": "6c5fbaae9f698b54a4026b1873a5763467bb30fb1745db2343a60d1f2b0c4942",
      "version": 1,
      "size": 225,
      "vsize": 225,
      "locktime": 0,
      "vin": [
        {
          "txid": "eefe9fb299646d3c82e548aa7b95e4465bf3d65fd23ed8a881b19a3250e17d86",
          "vout": 0,
          "scriptSig": {
            "asm": "304402207721ddf977a6285e06f70b6151444f6be72b43e621d9d7937da98f5ba5a45ac802204f269deb30da3c0c017dbfbe7645b7c0656e19c0639a2c6e3790f2b943d4fe34[ALL] 0306de623f9a181d0300aa90f18ce09cdb8f259d6653af9d95b080e00f2915e9a4",
            "hex": "47304402207721ddf977a6285e06f70b6151444f6be72b43e621d9d7937da98f5ba5a45ac802204f269deb30da3c0c017dbfbe7645b7c0656e19c0639a2c6e3790f2b943d4fe3401210306de623f9a181d0300aa90f18ce09cdb8f259d6653af9d95b080e00f2915e9a4"
          },
          "sequence": 4294967295
        }
      ],
      "vout": [
        {
          "value": 0.14221685,
          "n": 0,
          "scriptPubKey": {
            "asm": "OP_DUP OP_HASH160 7bedb3cadf070d0474daa77b4933791a51c7cd50 OP_EQUALVERIFY OP_CHECKSIG",
            "hex": "76a9147bedb3cadf070d0474daa77b4933791a51c7cd5088ac",
            "reqSigs": 1,
            "type": "pubkeyhash",
            "addresses": [
              "LWXE8euyfAXBGPjdnizY34gEdgXn85HVPP"
            ]
          }
        }, 
        {
          "value": 0.90973854,
          "n": 1,
          "scriptPubKey": {
            "asm": "OP_DUP OP_HASH160 f9871c6dd621879729cd7d502a5af822501cf2aa OP_EQUALVERIFY OP_CHECKSIG",
            "hex": "76a914f9871c6dd621879729cd7d502a5af822501cf2aa88ac",
            "reqSigs": 1,
            "type": "pubkeyhash",
            "addresses": [
              "LhyLNfBkoKshT7R8Pce6vkB9T2cP2o84hx"
            ]
          }
        }
      ],
      "hex": "0100000001867de150329ab181a8d83ed25fd6f35b46e4957baa48e5823c6d6499b29ffeee000000006a47304402207721ddf977a6285e06f70b6151444f6be72b43e621d9d7937da98f5ba5a45ac802204f269deb30da3c0c017dbfbe7645b7c0656e19c0639a2c6e3790f2b943d4fe3401210306de623f9a181d0300aa90f18ce09cdb8f259d6653af9d95b080e00f2915e9a4ffffffff027501d900000000001976a9147bedb3cadf070d0474daa77b4933791a51c7cd5088ac9e266c05000000001976a914f9871c6dd621879729cd7d502a5af822501cf2aa88ac00000000"
    }, 
    {
      "txid": "dee05909d389b64d77c26d085f901f6e3f530569f737b38ebd3a8f952ce7c31b",
      "hash": "dee05909d389b64d77c26d085f901f6e3f530569f737b38ebd3a8f952ce7c31b",
      "version": 1,
      "size": 224,
      "vsize": 224,
      "locktime": 0,
      "vin": [
        {
          "txid": "0a456714781666a95ac2f14146119ac49497eecc66de0b05fbfa08e23d6c6fd1",
          "vout": 2,
          "scriptSig": {
            "asm": "3045022100a49179b195ca1611531990308282e01deab8f7b2fecc7227fcf5ac74f8f7281f0220042042567476b21c3ab83b7949a30d9fa2907fb1ca589faa9cb042463b419076[ALL] 036cf5d60fe99d868e6718af50c4b25108110ecb795dbfd93d252ff82f77a3748e",
            "hex": "483045022100a49179b195ca1611531990308282e01deab8f7b2fecc7227fcf5ac74f8f7281f0220042042567476b21c3ab83b7949a30d9fa2907fb1ca589faa9cb042463b4190760121036cf5d60fe99d868e6718af50c4b25108110ecb795dbfd93d252ff82f77a3748e"
          },
          "sequence": 4294967295
        }
      ],
      "vout": [
        {
          "value": 0.99000000,
          "n": 0,
          "scriptPubKey": {
            "asm": "OP_HASH160 9fbccfb1767be74cd5e426e3ba3aada3180e3c96 OP_EQUAL",
            "hex": "a9149fbccfb1767be74cd5e426e3ba3aada3180e3c9687",
            "reqSigs": 1,
            "type": "scripthash",
            "addresses": [
              "MNTmrme3fgRA6Hzstf5MRDouV9LN7JmKhr"
            ]
          }
        }, 
        {
          "value": 4.00600000,
          "n": 1,
          "scriptPubKey": {
            "asm": "OP_DUP OP_HASH160 0cc94b0086acd3d2dfb7bc03192e4a5b1f1147c8 OP_EQUALVERIFY OP_CHECKSIG",
            "hex": "76a9140cc94b0086acd3d2dfb7bc03192e4a5b1f1147c888ac",
            "reqSigs": 1,
            "type": "pubkeyhash",
            "addresses": [
              "LLPZWbXrso9MD8saPUUL9RxhB8MhTSDigQ"
            ]
          }
        }
      ],
      "hex": "0100000001d16f6c3de208fafb050bde66ccee9794c49a114641f1c25aa96616781467450a020000006b483045022100a49179b195ca1611531990308282e01deab8f7b2fecc7227fcf5ac74f8f7281f0220042042567476b21c3ab83b7949a30d9fa2907fb1ca589faa9cb042463b4190760121036cf5d60fe99d868e6718af50c4b25108110ecb795dbfd93d252ff82f77a3748effffffff02c09ee6050000000017a9149fbccfb1767be74cd5e426e3ba3aada3180e3c9687c0abe017000000001976a9140cc94b0086acd3d2dfb7bc03192e4a5b1f1147c888ac00000000"
    }, 
    {
      "txid": "dfab987869decff6de54be9e745e48e299f6d2e19731a6b517bb02b88261c430",
      "hash": "dfab987869decff6de54be9e745e48e299f6d2e19731a6b517bb02b88261c430",
      "version": 2,
      "size": 373,
      "vsize": 373,
      "locktime": 1358053,
      "vin": [
        {
          "txid": "c2ae19cc002f4102d84290a67ce274ea2f8c1221189af6c91851408f9ad9f14a",
          "vout": 1,
          "scriptSig": {
            "asm": "304402202935139d2ddbeef9a48b8810ef4cbb9c8dfe26d050d43a89fb321c7dfaca4ecf022017a3e9c36a34fa87009304fbebc81be884cdcbc3a9fdb6cb7107b4722d7b8d8e[ALL] 02ed73b29d9b7e001d212cbd443e868935211b4b868ae07c8e2b6998bd3bf9177c",
            "hex": "47304402202935139d2ddbeef9a48b8810ef4cbb9c8dfe26d050d43a89fb321c7dfaca4ecf022017a3e9c36a34fa87009304fbebc81be884cdcbc3a9fdb6cb7107b4722d7b8d8e012102ed73b29d9b7e001d212cbd443e868935211b4b868ae07c8e2b6998bd3bf9177c"
          },
          "sequence": 4294967294
        }, 
        {
          "txid": "08e392dee0eb94e5fabc7f0e1d18b382abac43c3579550a532e6f5b693843784",
          "vout": 0,
          "scriptSig": {
            "asm": "3045022100b60ed456209e5a011f0cced197110c724bf2259f1d5bf93f2517960f2688f8ca02204a0881809fe78e8847e0806aeb620b741ea5fa3b39c992ecea0d58157dcf8f12[ALL] 0354062e4b973a2d9b2770909b1c03add82837136fadf028c490ad22794a064ec2",
            "hex": "483045022100b60ed456209e5a011f0cced197110c724bf2259f1d5bf93f2517960f2688f8ca02204a0881809fe78e8847e0806aeb620b741ea5fa3b39c992ecea0d58157dcf8f1201210354062e4b973a2d9b2770909b1c03add82837136fadf028c490ad22794a064ec2"
          },
          "sequence": 4294967294
        }
      ],
      "vout": [
        {
          "value": 0.03316462,
          "n": 0,
          "scriptPubKey": {
            "asm": "OP_DUP OP_HASH160 d7b0d736c5d3751bcc80b41d9bc33bd8649c6f6a OP_EQUALVERIFY OP_CHECKSIG",
            "hex": "76a914d7b0d736c5d3751bcc80b41d9bc33bd8649c6f6a88ac",
            "reqSigs": 1,
            "type": "pubkeyhash",
            "addresses": [
              "LetRPZa5VWp5sC58WZRNnHRZ4JrDVw8PBM"
            ]
          }
        }, 
        {
          "value": 0.01002735,
          "n": 1,
          "scriptPubKey": {
            "asm": "OP_DUP OP_HASH160 c3bdc8ce2b0a3186ae0aec392f4b8bba5eee47aa OP_EQUALVERIFY OP_CHECKSIG",
            "hex": "76a914c3bdc8ce2b0a3186ae0aec392f4b8bba5eee47aa88ac",
            "reqSigs": 1,
            "type": "pubkeyhash",
            "addresses": [
              "Ld4wP54umpHPsDrNmh6JSipK3gRBEWu61j"
            ]
          }
        }
      ],
      "hex": "02000000024af1d99a8f405118c9f69a1821128c2fea74e27ca69042d802412f00cc19aec2010000006a47304402202935139d2ddbeef9a48b8810ef4cbb9c8dfe26d050d43a89fb321c7dfaca4ecf022017a3e9c36a34fa87009304fbebc81be884cdcbc3a9fdb6cb7107b4722d7b8d8e012102ed73b29d9b7e001d212cbd443e868935211b4b868ae07c8e2b6998bd3bf9177cfeffffff84378493b6f5e632a5509557c343acab82b3181d0e7fbcfae594ebe0de92e308000000006b483045022100b60ed456209e5a011f0cced197110c724bf2259f1d5bf93f2517960f2688f8ca02204a0881809fe78e8847e0806aeb620b741ea5fa3b39c992ecea0d58157dcf8f1201210354062e4b973a2d9b2770909b1c03add82837136fadf028c490ad22794a064ec2feffffff02ee9a3200000000001976a914d7b0d736c5d3751bcc80b41d9bc33bd8649c6f6a88acef4c0f00000000001976a914c3bdc8ce2b0a3186ae0aec392f4b8bba5eee47aa88ace5b81400"
    }
  ],
  "time": 1517082140,
  "mediantime": 1517081822,
  "nonce": 3125889243,
  "bits": "1a047f14",
  "difficulty": 3731199.183374282,
  "chainwork": "000000000000000000000000000000000000000000000032c2bda51889f0ba90",
  "previousblockhash": "b2a4cd68d867e055c7d0e2cc15d7e25c36aa53ef04605033455cf518884d8386",
  "nextblockhash": "a2bb82385ec4e5fabf43e7775143dc0ba4bb0171cd29de9b5c6a984d29642b4c"
}
