{
  "hash": "fdaa85c74dbe250176ee16c89fb1e48dad7028d5e68b4be9efa3425c2008bc06",
  "confirmations": 2435,
  "strippedsize": 256,
  "size": 256,
  "weight": 1024,
  "height": 1358560,
  "version": 536870912,
  "versionHex": "20000000",
  "merkleroot": "533c9484152d265211438fb989eb428cb374909ba49a03a99ef6e403a00ae008",
  "tx": [
    {
      "txid": "533c9484152d265211438fb989eb428cb374909ba49a03a99ef6e403a00ae008",
      "hash": "533c9484152d265211438fb989eb428cb374909ba49a03a99ef6e403a00ae008",
      "version": 1,
      "size": 175,
      "vsize": 175,
      "locktime": 0,
      "vin": [
        {
          "coinbase": "03e0ba141d4d696e656420627920416e74506f6f6c20626a312045205a6dff370dd3fabe6d6d647f656bf2f310453f76724e2fd55cc0a568ea557e2895a5bb49a85410f6e2660400000000000000b60c00000000000004000000",
          "sequence": 4294967295
        }
      ],
      "vout": [
        {
          "value": 25.00000000,
          "n": 0,
          "scriptPubKey": {
            "asm": "OP_DUP OP_HASH160 0ff3ccc5e8be88afe24b5d634e5852d474dbdff1 OP_EQUALVERIFY OP_CHECKSIG",
            "hex": "76a9140ff3ccc5e8be88afe24b5d634e5852d474dbdff188ac",
            "reqSigs": 1,
            "type": "pubkeyhash",
            "addresses": [
              "LLgJTbzZMsRTCUF1NtvvL9SR1a4pVieW89"
            ]
          }
        }
      ],
      "hex": "01000000010000000000000000000000000000000000000000000000000000000000000000ffffffff5a03e0ba141d4d696e656420627920416e74506f6f6c20626a312045205a6dff370dd3fabe6d6d647f656bf2f310453f76724e2fd55cc0a568ea557e2895a5bb49a85410f6e2660400000000000000b60c00000000000004000000ffffffff0100f90295000000001976a9140ff3ccc5e8be88afe24b5d634e5852d474dbdff188ac00000000"
    }
  ],
  "time": 1517158199,
  "mediantime": 1517157900,
  "nonce": 549743798,
  "bits": "1a047f14",
  "difficulty": 3731199.183374282,
  "chainwork": "000000000000000000000000000000000000000000000033330d8acc0a44c9da",
  "previousblockhash": "120ff9e7b3a77ba58b57181d516e9beb0ede95408f46960cabae9b280ef829f7",
  "nextblockhash": "ab3ecbf77343bc1ec4c76c320b2f6b098d7b6649bdce3f16615a75f8938534c4"
}
