{
  "hash": "fe12a0a1871f9f901db5d6d6c9eafa2a20feceb9a6520014593ba8f9acd4aa13",
  "confirmations": 2255,
  "strippedsize": 234,
  "size": 234,
  "weight": 936,
  "height": 1358740,
  "version": 536870912,
  "versionHex": "20000000",
  "merkleroot": "aa8d61a858035a38fee74e03cb65601810a8a5248f82ff7554a10c1b8a19f756",
  "tx": [
    {
      "txid": "aa8d61a858035a38fee74e03cb65601810a8a5248f82ff7554a10c1b8a19f756",
      "hash": "aa8d61a858035a38fee74e03cb65601810a8a5248f82ff7554a10c1b8a19f756",
      "version": 1,
      "size": 153,
      "vsize": 153,
      "locktime": 0,
      "vin": [
        {
          "coinbase": "0394bb14045a6e69642cfabe6d6df07bc2aa703f0e9d63d1898b6450d1f040fd7d3f29779a7bdeff6e86cdf859544000000000000000042f4c502f085700768a11000000",
          "sequence": 4294967295
        }
      ],
      "vout": [
        {
          "value": 25.00000000,
          "n": 0,
          "scriptPubKey": {
            "asm": "OP_DUP OP_HASH160 57757ed2ecf2052ff3126c397aca7defb9ca2cec OP_EQUALVERIFY OP_CHECKSIG",
            "hex": "76a91457757ed2ecf2052ff3126c397aca7defb9ca2cec88ac",
            "reqSigs": 1,
            "type": "pubkeyhash",
            "addresses": [
              "LTCPodGk5FwcJaRzH9yKnwicxzFUbxp6tN"
            ]
          }
        }
      ],
      "hex": "01000000010000000000000000000000000000000000000000000000000000000000000000ffffffff440394bb14045a6e69642cfabe6d6df07bc2aa703f0e9d63d1898b6450d1f040fd7d3f29779a7bdeff6e86cdf859544000000000000000042f4c502f085700768a11000000ffffffff0100f90295000000001976a91457757ed2ecf2052ff3126c397aca7defb9ca2cec88ac00000000"
    }
  ],
  "time": 1517185380,
  "mediantime": 1517184618,
  "nonce": 1227994119,
  "bits": "1a047f14",
  "difficulty": 3731199.183374282,
  "chainwork": "0000000000000000000000000000000000000000000000335b15be413f9d0c22",
  "previousblockhash": "acc5df35ab87f4a3a2f1a9fa51678a3ea5be821c7bd0de4556a9784482938c0f",
  "nextblockhash": "2b5c55865c44f4c196db5300eebbbe6d03eb28a10edcdd0d816dfc8584c90f81"
}
