{
  "hash": "fea94092283ca11196ebe9767414b8156a3120b6f1b6042b3178fa783e85da7e",
  "confirmations": 747,
  "strippedsize": 253,
  "size": 253,
  "weight": 1012,
  "height": 1360247,
  "version": 536870912,
  "versionHex": "20000000",
  "merkleroot": "e3a6ee61fefce23cfe7802a6e78cc4ace89da018bcd3bbc19e0f900024e076d6",
  "tx": [
    {
      "txid": "e3a6ee61fefce23cfe7802a6e78cc4ace89da018bcd3bbc19e0f900024e076d6",
      "hash": "e3a6ee61fefce23cfe7802a6e78cc4ace89da018bcd3bbc19e0f900024e076d6",
      "version": 1,
      "size": 172,
      "vsize": 172,
      "locktime": 0,
      "vin": [
        {
          "coinbase": "0377c1141a4d696e656420627920416e74506f6f6c20626a331f205a71add6fabe6d6d526ace1fb33c3779cfde1a2e56d1e2119af723da675ef4c104826f6df2a15bb40400000000000000933800000000000003000000",
          "sequence": 4294967295
        }
      ],
      "vout": [
        {
          "value": 25.00000000,
          "n": 0,
          "scriptPubKey": {
            "asm": "OP_DUP OP_HASH160 0ff3ccc5e8be88afe24b5d634e5852d474dbdff1 OP_EQUALVERIFY OP_CHECKSIG",
            "hex": "76a9140ff3ccc5e8be88afe24b5d634e5852d474dbdff188ac",
            "reqSigs": 1,
            "type": "pubkeyhash",
            "addresses": [
              "LLgJTbzZMsRTCUF1NtvvL9SR1a4pVieW89"
            ]
          }
        }
      ],
      "hex": "01000000010000000000000000000000000000000000000000000000000000000000000000ffffffff570377c1141a4d696e656420627920416e74506f6f6c20626a331f205a71add6fabe6d6d526ace1fb33c3779cfde1a2e56d1e2119af723da675ef4c104826f6df2a15bb40400000000000000933800000000000003000000ffffffff0100f90295000000001976a9140ff3ccc5e8be88afe24b5d634e5852d474dbdff188ac00000000"
    }
  ],
  "time": 1517399510,
  "mediantime": 1517398599,
  "nonce": 1794515761,
  "bits": "1a042eae",
  "difficulty": 4011378.762614286,
  "chainwork": "000000000000000000000000000000000000000000000034c2b0f305ce9903f0",
  "previousblockhash": "499b818008a76d6202b62af040eb591a65fe2ab6da6da4da2e2b5bfc62bbecf6",
  "nextblockhash": "65cddd26be529e77cb152f78502c6daf8302633398c08f069a7522ce4f657753"
}
