{
  "hash": "fef09bb6b5c3c149c8641e7c1181c7473cfda69838b64022f825aa83288d0b17",
  "confirmations": 3387,
  "strippedsize": 2375,
  "size": 2411,
  "weight": 9536,
  "height": 1357608,
  "version": 536870912,
  "versionHex": "20000000",
  "merkleroot": "2cfbe5204b4441e0985253f315da3846740ba073f2bfeb3ec1223a53a1afaf53",
  "tx": [
    {
      "txid": "6a6044c5eb4a9c858739aac2df6fa40bbd8903d09417bab4f1fb0f63960a34f7",
      "hash": "ee3249e7a914f806f006c5e0f0ca6e121a7294cdf8d102c00be2fdf27fa1c2a0",
      "version": 1,
      "size": 236,
      "vsize": 209,
      "locktime": 0,
      "vin": [
        {
          "coinbase": "0328b714045a6bf9b12cfabe6d6d435d2ec54b8f733e7978a1ff631fd3e9270b41153d9c032086f3d538fdd9f1994000000000000000042f4c502f08570014dd34020000",
          "sequence": 4294967295
        }
      ],
      "vout": [
        {
          "value": 25.00384845,
          "n": 0,
          "scriptPubKey": {
            "asm": "OP_DUP OP_HASH160 57757ed2ecf2052ff3126c397aca7defb9ca2cec OP_EQUALVERIFY OP_CHECKSIG",
            "hex": "76a91457757ed2ecf2052ff3126c397aca7defb9ca2cec88ac",
            "reqSigs": 1,
            "type": "pubkeyhash",
            "addresses": [
              "LTCPodGk5FwcJaRzH9yKnwicxzFUbxp6tN"
            ]
          }
        }, 
        {
          "value": 0.00000000,
          "n": 1,
          "scriptPubKey": {
            "asm": "OP_RETURN aa21a9ed4298131513b6951cd9004b0cb6eec2e3f2b5047c783de439e6226ad664288054",
            "hex": "6a24aa21a9ed4298131513b6951cd9004b0cb6eec2e3f2b5047c783de439e6226ad664288054",
            "type": "nulldata"
          }
        }
      ],
      "hex": "010000000001010000000000000000000000000000000000000000000000000000000000000000ffffffff440328b714045a6bf9b12cfabe6d6d435d2ec54b8f733e7978a1ff631fd3e9270b41153d9c032086f3d538fdd9f1994000000000000000042f4c502f08570014dd34020000ffffffff024dd80895000000001976a91457757ed2ecf2052ff3126c397aca7defb9ca2cec88ac0000000000000000266a24aa21a9ed4298131513b6951cd9004b0cb6eec2e3f2b5047c783de439e6226ad6642880540120000000000000000000000000000000000000000000000000000000000000000000000000"
    }, 
    {
      "txid": "4533391945f41a036ee31e23bdcda47e91cfbc0d21e6b333af19c92badc8698f",
      "hash": "4533391945f41a036ee31e23bdcda47e91cfbc0d21e6b333af19c92badc8698f",
      "version": 1,
      "size": 226,
      "vsize": 226,
      "locktime": 0,
      "vin": [
        {
          "txid": "41b0115cceac78295f991418f65061aab1c099e669c4bcccf18c037115a0c556",
          "vout": 1,
          "scriptSig": {
            "asm": "3045022100c28268e2b01ce7dd887f059253b25330488b20b2ab5879589b871fb715c27efd0220287a1b5c2fe1ddbc584b82aeda7d9a5c6279565003f4e6fefb2d33aa8d3ea7c9[ALL] 02e2c6efc15cb17f2f8adff83a7b8026dc5cf76d4e02905df21d6b46c79151648e",
            "hex": "483045022100c28268e2b01ce7dd887f059253b25330488b20b2ab5879589b871fb715c27efd0220287a1b5c2fe1ddbc584b82aeda7d9a5c6279565003f4e6fefb2d33aa8d3ea7c9012102e2c6efc15cb17f2f8adff83a7b8026dc5cf76d4e02905df21d6b46c79151648e"
          },
          "sequence": 4294967295
        }
      ],
      "vout": [
        {
          "value": 0.70900000,
          "n": 0,
          "scriptPubKey": {
            "asm": "OP_DUP OP_HASH160 c6f3562fd3e6a5d2ddc1beee2d0a39ea3b3d326f OP_EQUALVERIFY OP_CHECKSIG",
            "hex": "76a914c6f3562fd3e6a5d2ddc1beee2d0a39ea3b3d326f88ac",
            "reqSigs": 1,
            "type": "pubkeyhash",
            "addresses": [
              "LdMuZXKFtqL7DVD8v47LiKnzPS9zP7KmES"
            ]
          }
        }, 
        {
          "value": 659.45086580,
          "n": 1,
          "scriptPubKey": {
            "asm": "OP_DUP OP_HASH160 e10988604098c19f733b98d35cffb6c46ff8c6b5 OP_EQUALVERIFY OP_CHECKSIG",
            "hex": "76a914e10988604098c19f733b98d35cffb6c46ff8c6b588ac",
            "reqSigs": 1,
            "type": "pubkeyhash",
            "addresses": [
              "LfjqiihYGvN1iaxP9gFtAXzKSdYeka6Nyp"
            ]
          }
        }
      ],
      "hex": "010000000156c5a01571038cf1ccbcc469e699c0b1aa6150f61814995f2978acce5c11b041010000006b483045022100c28268e2b01ce7dd887f059253b25330488b20b2ab5879589b871fb715c27efd0220287a1b5c2fe1ddbc584b82aeda7d9a5c6279565003f4e6fefb2d33aa8d3ea7c9012102e2c6efc15cb17f2f8adff83a7b8026dc5cf76d4e02905df21d6b46c79151648effffffff0220d93904000000001976a914c6f3562fd3e6a5d2ddc1beee2d0a39ea3b3d326f88ac742aa25a0f0000001976a914e10988604098c19f733b98d35cffb6c46ff8c6b588ac00000000"
    }, 
    {
      "txid": "e564be08119789bcb79cb6f6a333240ec8f8337657bce6a604739abe1655b0eb",
      "hash": "e564be08119789bcb79cb6f6a333240ec8f8337657bce6a604739abe1655b0eb",
      "version": 1,
      "size": 289,
      "vsize": 289,
      "locktime": 0,
      "vin": [
        {
          "txid": "daf824f2813729062eefade294258b9b0f636e88ab8a3183cbf36763fbd026ce",
          "vout": 0,
          "scriptSig": {
            "asm": "3044022061bc089a16a1445f0324080235dd87159305170badce8d31c81ebf4a1be015a602201368b9b4c29a02808e329372231ccbc5d892538eac6941db6fbb89405f64d15c[ALL] 039762aeac7f2dfa57183ab23600f5107f0cc2007a223bbea994de8e876041974f",
            "hex": "473044022061bc089a16a1445f0324080235dd87159305170badce8d31c81ebf4a1be015a602201368b9b4c29a02808e329372231ccbc5d892538eac6941db6fbb89405f64d15c0121039762aeac7f2dfa57183ab23600f5107f0cc2007a223bbea994de8e876041974f"
          },
          "sequence": 4294967295
        }
      ],
      "vout": [
        {
          "value": 4.10161953,
          "n": 0,
          "scriptPubKey": {
            "asm": "OP_DUP OP_HASH160 8054d8d8dd6bce91125bcfe8bbb473f54afcdc60 OP_EQUALVERIFY OP_CHECKSIG",
            "hex": "76a9148054d8d8dd6bce91125bcfe8bbb473f54afcdc6088ac",
            "reqSigs": 1,
            "type": "pubkeyhash",
            "addresses": [
              "LWvWQ3XMoipFsAqE1EZPQFUovLea7DC1ef"
            ]
          }
        }, 
        {
          "value": 0.00344337,
          "n": 1,
          "scriptPubKey": {
            "asm": "OP_HASH160 995984bdc471864345d0756236f37b5bdb7510e6 OP_EQUAL",
            "hex": "a914995984bdc471864345d0756236f37b5bdb7510e687",
            "reqSigs": 1,
            "type": "scripthash",
            "addresses": [
              "MMszrdr5gJaSCbEu9WXcvw9NscPcLf4T35"
            ]
          }
        }, 
        {
          "value": 1.02420591,
          "n": 2,
          "scriptPubKey": {
            "asm": "OP_HASH160 71ead4d0979fe33bf7cfe6f7a9f635d358088d54 OP_EQUAL",
            "hex": "a91471ead4d0979fe33bf7cfe6f7a9f635d358088d5487",
            "reqSigs": 1,
            "type": "scripthash",
            "addresses": [
              "MJHVuUMD4YCk9LTFsLzttCCLjDRZhJQ3xX"
            ]
          }
        }, 
        {
          "value": 0.28365858,
          "n": 3,
          "scriptPubKey": {
            "asm": "OP_DUP OP_HASH160 bf20af355ff7321aed62d33b425a3a94582b2de0 OP_EQUALVERIFY OP_CHECKSIG",
            "hex": "76a914bf20af355ff7321aed62d33b425a3a94582b2de088ac",
            "reqSigs": 1,
            "type": "pubkeyhash",
            "addresses": [
              "LceYUoefZ797skSwk9W3nwW6m7V2VJUybr"
            ]
          }
        }
      ],
      "hex": "0100000001ce26d0fb6367f3cb83318aab886e630f9b8b2594e2adef2e06293781f224f8da000000006a473044022061bc089a16a1445f0324080235dd87159305170badce8d31c81ebf4a1be015a602201368b9b4c29a02808e329372231ccbc5d892538eac6941db6fbb89405f64d15c0121039762aeac7f2dfa57183ab23600f5107f0cc2007a223bbea994de8e876041974fffffffff0421937218000000001976a9148054d8d8dd6bce91125bcfe8bbb473f54afcdc6088ac114105000000000017a914995984bdc471864345d0756236f37b5bdb7510e6876fd01a060000000017a91471ead4d0979fe33bf7cfe6f7a9f635d358088d548722d4b001000000001976a914bf20af355ff7321aed62d33b425a3a94582b2de088ac00000000"
    }, 
    {
      "txid": "730a9893d319fb4bb6ac29101212e4cfc68c1e4c98b87e17954aa9e92a5cf05f",
      "hash": "730a9893d319fb4bb6ac29101212e4cfc68c1e4c98b87e17954aa9e92a5cf05f",
      "version": 1,
      "size": 225,
      "vsize": 225,
      "locktime": 0,
      "vin": [
        {
          "txid": "05bad7573368eeef6b7cdcc30483436b67445502b896d1dca6ccd18274229e0c",
          "vout": 0,
          "scriptSig": {
            "asm": "30440220360c48c222fb16b7cdcbb2fc1bd938d487342459b1089f6eef2b8782a9dbbda802202ef5faaf3a12a4c59f11ae45a9d740c262f7ae61a9faf2ee8ad86c18cd5d89ed[ALL] 03605abb6c19b813800f89b1c75dcd1d4219177ccd054043aa5eb8f36364141950",
            "hex": "4730440220360c48c222fb16b7cdcbb2fc1bd938d487342459b1089f6eef2b8782a9dbbda802202ef5faaf3a12a4c59f11ae45a9d740c262f7ae61a9faf2ee8ad86c18cd5d89ed012103605abb6c19b813800f89b1c75dcd1d4219177ccd054043aa5eb8f36364141950"
          },
          "sequence": 4294967295
        }
      ],
      "vout": [
        {
          "value": 4.00000000,
          "n": 0,
          "scriptPubKey": {
            "asm": "OP_DUP OP_HASH160 837e068f4feb36b5c7d6791e52e4f77811b837a6 OP_EQUALVERIFY OP_CHECKSIG",
            "hex": "76a914837e068f4feb36b5c7d6791e52e4f77811b837a688ac",
            "reqSigs": 1,
            "type": "pubkeyhash",
            "addresses": [
              "LXDDkkqjXfLeQBKi5Q8yRHxmNY5rvfyJge"
            ]
          }
        }, 
        {
          "value": 38.34629920,
          "n": 1,
          "scriptPubKey": {
            "asm": "OP_DUP OP_HASH160 a0325fa26c2e006a1c3bd0c9b4ca00ed7ed79112 OP_EQUALVERIFY OP_CHECKSIG",
            "hex": "76a914a0325fa26c2e006a1c3bd0c9b4ca00ed7ed7911288ac",
            "reqSigs": 1,
            "type": "pubkeyhash",
            "addresses": [
              "LZpzivVL2sZYZJNpJhxfeB3oEVDdg1wv3M"
            ]
          }
        }
      ],
      "hex": "01000000010c9e227482d1cca6dcd196b8025544676b438304c3dc7c6befee683357d7ba05000000006a4730440220360c48c222fb16b7cdcbb2fc1bd938d487342459b1089f6eef2b8782a9dbbda802202ef5faaf3a12a4c59f11ae45a9d740c262f7ae61a9faf2ee8ad86c18cd5d89ed012103605abb6c19b813800f89b1c75dcd1d4219177ccd054043aa5eb8f36364141950ffffffff020084d717000000001976a914837e068f4feb36b5c7d6791e52e4f77811b837a688ac20cf8fe4000000001976a914a0325fa26c2e006a1c3bd0c9b4ca00ed7ed7911288ac00000000"
    }, 
    {
      "txid": "728e2f412d9c54957ca9b1033e5ac9728638715c10fabba73fb7816abe0022d2",
      "hash": "728e2f412d9c54957ca9b1033e5ac9728638715c10fabba73fb7816abe0022d2",
      "version": 1,
      "size": 225,
      "vsize": 225,
      "locktime": 0,
      "vin": [
        {
          "txid": "29a5ecef1a46e84e97e8b87da1c47040cf117bf1f3e921b7178d09a54b1bbe3d",
          "vout": 1,
          "scriptSig": {
            "asm": "304402201d20a2e22496f01350bde693a457f261f35b223e47c98d7895aaf39dfc6dfccb022059497cfd42c87aebf9a7d4b0d302f772db17b307331533c67d06b076b5f5a399[ALL] 02952d45e1298aec790bf60aa9b169f5b279920286d37e4bb6ad241f1e186513dd",
            "hex": "47304402201d20a2e22496f01350bde693a457f261f35b223e47c98d7895aaf39dfc6dfccb022059497cfd42c87aebf9a7d4b0d302f772db17b307331533c67d06b076b5f5a399012102952d45e1298aec790bf60aa9b169f5b279920286d37e4bb6ad241f1e186513dd"
          },
          "sequence": 4294967295
        }
      ],
      "vout": [
        {
          "value": 0.11229100,
          "n": 0,
          "scriptPubKey": {
            "asm": "OP_DUP OP_HASH160 5a11431593bc3f5288b9e2e6b93769f103dad621 OP_EQUALVERIFY OP_CHECKSIG",
            "hex": "76a9145a11431593bc3f5288b9e2e6b93769f103dad62188ac",
            "reqSigs": 1,
            "type": "pubkeyhash",
            "addresses": [
              "LTSBksB3fsAWUMNYMCELQvkUJtvb8vfQ9P"
            ]
          }
        }, 
        {
          "value": 0.00110000,
          "n": 1,
          "scriptPubKey": {
            "asm": "OP_DUP OP_HASH160 9e3deebbfcbf461d5cdf42046906da33f62ea0f4 OP_EQUALVERIFY OP_CHECKSIG",
            "hex": "76a9149e3deebbfcbf461d5cdf42046906da33f62ea0f488ac",
            "reqSigs": 1,
            "type": "pubkeyhash",
            "addresses": [
              "LZefDfufzf4RoUAXYtkUiN9Q22o8ZBFgB6"
            ]
          }
        }
      ],
      "hex": "01000000013dbe1b4ba5098d17b721e9f3f17b11cf4070c4a17db8e8974ee8461aefeca529010000006a47304402201d20a2e22496f01350bde693a457f261f35b223e47c98d7895aaf39dfc6dfccb022059497cfd42c87aebf9a7d4b0d302f772db17b307331533c67d06b076b5f5a399012102952d45e1298aec790bf60aa9b169f5b279920286d37e4bb6ad241f1e186513ddffffffff02ac57ab00000000001976a9145a11431593bc3f5288b9e2e6b93769f103dad62188acb0ad0100000000001976a9149e3deebbfcbf461d5cdf42046906da33f62ea0f488ac00000000"
    }, 
    {
      "txid": "ab1414542757e09adf229793ed2601edbb4cd62063cda909ab55107d30f4b4f0",
      "hash": "ab1414542757e09adf229793ed2601edbb4cd62063cda909ab55107d30f4b4f0",
      "version": 1,
      "size": 225,
      "vsize": 225,
      "locktime": 0,
      "vin": [
        {
          "txid": "61f22bbf1465a2f1dee21e4afcc916410139088e687916ceded3aa5630aaeec9",
          "vout": 0,
          "scriptSig": {
            "asm": "304402206d16db59a4d330ac9f31c8ede590506901ead2ece8782766e08f000f60e238df022031244e8d5c4ab9aefb25f83995e70e42fd53e4632143ce7427f01117a30ba436[ALL] 02644e638bf8d924ac1248bdfd062cd6e751c07b92400317c4d3b873d6d9843e38",
            "hex": "47304402206d16db59a4d330ac9f31c8ede590506901ead2ece8782766e08f000f60e238df022031244e8d5c4ab9aefb25f83995e70e42fd53e4632143ce7427f01117a30ba436012102644e638bf8d924ac1248bdfd062cd6e751c07b92400317c4d3b873d6d9843e38"
          },
          "sequence": 4294967295
        }
      ],
      "vout": [
        {
          "value": 41.05353668,
          "n": 0,
          "scriptPubKey": {
            "asm": "OP_DUP OP_HASH160 757050517f70130ab1fd8252add66c2e8b69d666 OP_EQUALVERIFY OP_CHECKSIG",
            "hex": "76a914757050517f70130ab1fd8252add66c2e8b69d66688ac",
            "reqSigs": 1,
            "type": "pubkeyhash",
            "addresses": [
              "LVvusMRMHwotG3c7pync7E8fRAw2LYUjLq"
            ]
          }
        }, 
        {
          "value": 1.00000000,
          "n": 1,
          "scriptPubKey": {
            "asm": "OP_DUP OP_HASH160 48bacb7c4c6575eb57504749eba96a3e694a37d6 OP_EQUALVERIFY OP_CHECKSIG",
            "hex": "76a91448bacb7c4c6575eb57504749eba96a3e694a37d688ac",
            "reqSigs": 1,
            "type": "pubkeyhash",
            "addresses": [
              "LRrWgm1VVkKmC4V9aivEsMRktVz1WFzndG"
            ]
          }
        }
      ],
      "hex": "0100000001c9eeaa3056aad3dece1679688e0839014116c9fc4a1ee2def1a26514bf2bf261000000006a47304402206d16db59a4d330ac9f31c8ede590506901ead2ece8782766e08f000f60e238df022031244e8d5c4ab9aefb25f83995e70e42fd53e4632143ce7427f01117a30ba436012102644e638bf8d924ac1248bdfd062cd6e751c07b92400317c4d3b873d6d9843e38ffffffff02c4b9b2f4000000001976a914757050517f70130ab1fd8252add66c2e8b69d66688ac00e1f505000000001976a91448bacb7c4c6575eb57504749eba96a3e694a37d688ac00000000"
    }, 
    {
      "txid": "fed8cdfcee8ea8df2cc941a5facbb3470c7aa83051107e92d2933a5ddc04e62b",
      "hash": "fed8cdfcee8ea8df2cc941a5facbb3470c7aa83051107e92d2933a5ddc04e62b",
      "version": 1,
      "size": 226,
      "vsize": 226,
      "locktime": 0,
      "vin": [
        {
          "txid": "134dab02cb7a953251568b6f694a197bdbb4c3bab3219f03ed410bef7c0eaa58",
          "vout": 0,
          "scriptSig": {
            "asm": "3045022100b6b79a7e273b611703629306df772022dae3e0af2658f96722a53ceb49388a270220373aaf2c4b496157c3bddeb224ba023eccd1937113d270d6a17f4a1d85643509[ALL] 02bc7e495e154a280cec0ed86f7844cc633ae176a3683253e0c5b08d9715fc5096",
            "hex": "483045022100b6b79a7e273b611703629306df772022dae3e0af2658f96722a53ceb49388a270220373aaf2c4b496157c3bddeb224ba023eccd1937113d270d6a17f4a1d85643509012102bc7e495e154a280cec0ed86f7844cc633ae176a3683253e0c5b08d9715fc5096"
          },
          "sequence": 4294967295
        }
      ],
      "vout": [
        {
          "value": 4.00000000,
          "n": 0,
          "scriptPubKey": {
            "asm": "OP_DUP OP_HASH160 b4e37be6e482a91c804f94864442744a4eade928 OP_EQUALVERIFY OP_CHECKSIG",
            "hex": "76a914b4e37be6e482a91c804f94864442744a4eade92888ac",
            "reqSigs": 1,
            "type": "pubkeyhash",
            "addresses": [
              "LbiQQcBM8MTRTTWsgSqrkSFFytnFdqLQh3"
            ]
          }
        }, 
        {
          "value": 37.24944906,
          "n": 1,
          "scriptPubKey": {
            "asm": "OP_DUP OP_HASH160 60a69dd70eaad5e2afca6932ccd4a26156052763 OP_EQUALVERIFY OP_CHECKSIG",
            "hex": "76a91460a69dd70eaad5e2afca6932ccd4a2615605276388ac",
            "reqSigs": 1,
            "type": "pubkeyhash",
            "addresses": [
              "LU2zjMHE94BftRXFZBHPoUn3Cd5BDMfZu7"
            ]
          }
        }
      ],
      "hex": "010000000158aa0e7cef0b41ed039f21b3bac3b4db7b194a696f8b565132957acb02ab4d13000000006b483045022100b6b79a7e273b611703629306df772022dae3e0af2658f96722a53ceb49388a270220373aaf2c4b496157c3bddeb224ba023eccd1937113d270d6a17f4a1d85643509012102bc7e495e154a280cec0ed86f7844cc633ae176a3683253e0c5b08d9715fc5096ffffffff020084d717000000001976a914b4e37be6e482a91c804f94864442744a4eade92888ac0a2606de000000001976a91460a69dd70eaad5e2afca6932ccd4a2615605276388ac00000000"
    }, 
    {
      "txid": "e9197033f67bc5ef0a386506685138ce70d8bcf7824ced48bda8b58e20a2243d",
      "hash": "e9197033f67bc5ef0a386506685138ce70d8bcf7824ced48bda8b58e20a2243d",
      "version": 1,
      "size": 226,
      "vsize": 226,
      "locktime": 0,
      "vin": [
        {
          "txid": "2299afc2ac12f4a2ef58b0f3059f29cded3c55505ec231a7d3b2306fbf66168b",
          "vout": 1,
          "scriptSig": {
            "asm": "3045022100addb6af6766e72218e8cb0bc361ca1955be15e2f8b2f52a86c70fd61640eaa0c02201e3195250bf3ccac2126d41c62fe651014db837a94e78aa3b68a1745397f3062[ALL] 034e0a7211575c189c8d7098e1dc35a8a33cbc8426dd096a091a7451369dfbdbe1",
            "hex": "483045022100addb6af6766e72218e8cb0bc361ca1955be15e2f8b2f52a86c70fd61640eaa0c02201e3195250bf3ccac2126d41c62fe651014db837a94e78aa3b68a1745397f30620121034e0a7211575c189c8d7098e1dc35a8a33cbc8426dd096a091a7451369dfbdbe1"
          },
          "sequence": 4294967295
        }
      ],
      "vout": [
        {
          "value": 0.25076338,
          "n": 0,
          "scriptPubKey": {
            "asm": "OP_DUP OP_HASH160 3c60f6ad24ad1a12bc5593cd6fc5251f26416b4b OP_EQUALVERIFY OP_CHECKSIG",
            "hex": "76a9143c60f6ad24ad1a12bc5593cd6fc5251f26416b4b88ac",
            "reqSigs": 1,
            "type": "pubkeyhash",
            "addresses": [
              "LQjCxsSSizMMbFg6hTYje3o9ekXTEVw868"
            ]
          }
        }, 
        {
          "value": 0.55399000,
          "n": 1,
          "scriptPubKey": {
            "asm": "OP_DUP OP_HASH160 66015d78736921c0a1889c3f237ad681bef4a384 OP_EQUALVERIFY OP_CHECKSIG",
            "hex": "76a91466015d78736921c0a1889c3f237ad681bef4a38488ac",
            "reqSigs": 1,
            "type": "pubkeyhash",
            "addresses": [
              "LUXJpdV6qeXL8xJDrkUhLaJztWT8eBo9zV"
            ]
          }
        }
      ],
      "hex": "01000000018b1666bf6f30b2d3a731c25e50553cedcd299f05f3b058efa2f412acc2af9922010000006b483045022100addb6af6766e72218e8cb0bc361ca1955be15e2f8b2f52a86c70fd61640eaa0c02201e3195250bf3ccac2126d41c62fe651014db837a94e78aa3b68a1745397f30620121034e0a7211575c189c8d7098e1dc35a8a33cbc8426dd096a091a7451369dfbdbe1ffffffff0272a27e01000000001976a9143c60f6ad24ad1a12bc5593cd6fc5251f26416b4b88ac58524d03000000001976a91466015d78736921c0a1889c3f237ad681bef4a38488ac00000000"
    }, 
    {
      "txid": "ddfad4e15f214d87adf116e3e65f67e479385ecac7af324a2d7a2f399bb6f54a",
      "hash": "ddfad4e15f214d87adf116e3e65f67e479385ecac7af324a2d7a2f399bb6f54a",
      "version": 1,
      "size": 226,
      "vsize": 226,
      "locktime": 0,
      "vin": [
        {
          "txid": "d4a327c622a5e7d6318a6b23c2721a1a8c401716d2312984d0c0a70bf78e681e",
          "vout": 1,
          "scriptSig": {
            "asm": "3045022100beb16777997d5ef8fbea62f55140d060c11253ae58819aee974727d030fca6fd02204148607785a0b33513f1f9aaa27c5f83b5f7e5ef54dd73d398072d01e32fbf5e[ALL] 032a7f40e9f178583b3c7bb4d36643a0590bca9529d6f3325f8ea81e493e9a7a75",
            "hex": "483045022100beb16777997d5ef8fbea62f55140d060c11253ae58819aee974727d030fca6fd02204148607785a0b33513f1f9aaa27c5f83b5f7e5ef54dd73d398072d01e32fbf5e0121032a7f40e9f178583b3c7bb4d36643a0590bca9529d6f3325f8ea81e493e9a7a75"
          },
          "sequence": 4294967295
        }
      ],
      "vout": [
        {
          "value": 43.41482168,
          "n": 0,
          "scriptPubKey": {
            "asm": "OP_DUP OP_HASH160 2af2b53e644e80a35c0ff2c979e41e99c9a0c332 OP_EQUALVERIFY OP_CHECKSIG",
            "hex": "76a9142af2b53e644e80a35c0ff2c979e41e99c9a0c33288ac",
            "reqSigs": 1,
            "type": "pubkeyhash",
            "addresses": [
              "LP93Pv6NsiqSJ7oP3GjHv68fPrrZSJieUf"
            ]
          }
        }, 
        {
          "value": 0.55045827,
          "n": 1,
          "scriptPubKey": {
            "asm": "OP_DUP OP_HASH160 0ad3d59b01389e412fbcef8535bde90212ca2695 OP_EQUALVERIFY OP_CHECKSIG",
            "hex": "76a9140ad3d59b01389e412fbcef8535bde90212ca269588ac",
            "reqSigs": 1,
            "type": "pubkeyhash",
            "addresses": [
              "LLDCneG2XYz8YtvjEMx3k3bfarGVm7oyNZ"
            ]
          }
        }
      ],
      "hex": "01000000011e688ef70ba7c0d0842931d21617408c1a1a72c2236b8a31d6e7a522c627a3d4010000006b483045022100beb16777997d5ef8fbea62f55140d060c11253ae58819aee974727d030fca6fd02204148607785a0b33513f1f9aaa27c5f83b5f7e5ef54dd73d398072d01e32fbf5e0121032a7f40e9f178583b3c7bb4d36643a0590bca9529d6f3325f8ea81e493e9a7a75ffffffff02b8c2c502010000001976a9142af2b53e644e80a35c0ff2c979e41e99c9a0c33288acc3ee4703000000001976a9140ad3d59b01389e412fbcef8535bde90212ca269588ac00000000"
    }, 
    {
      "txid": "95ad25ed5a48eb434bffa44a6cf99b7181b4f258956033f393025af54848ac89",
      "hash": "95ad25ed5a48eb434bffa44a6cf99b7181b4f258956033f393025af54848ac89",
      "version": 2,
      "size": 226,
      "vsize": 226,
      "locktime": 1357606,
      "vin": [
        {
          "txid": "66219a525aaae6e03a706bb801a3822a81691c363618ae3fcfd32ac3c0af2cb6",
          "vout": 0,
          "scriptSig": {
            "asm": "3045022100cdd3ac92b48a87fe8263ba673c015de51852ec01a28c78cbf4112bdb9ddce56c02200cc43672ac200b96a29bed3ebfc365050ff117f12136d7c88bbd3bbf9b6e0a68[ALL] 03ab4d0ac73e024557c42ce85a4720fc7c32eb980361d84db9b83fe310df776aa0",
            "hex": "483045022100cdd3ac92b48a87fe8263ba673c015de51852ec01a28c78cbf4112bdb9ddce56c02200cc43672ac200b96a29bed3ebfc365050ff117f12136d7c88bbd3bbf9b6e0a68012103ab4d0ac73e024557c42ce85a4720fc7c32eb980361d84db9b83fe310df776aa0"
          },
          "sequence": 4294967294
        }
      ],
      "vout": [
        {
          "value": 0.29643077,
          "n": 0,
          "scriptPubKey": {
            "asm": "OP_DUP OP_HASH160 05c5f8bbb0b22e718ef23841cb3eea3abbe832d5 OP_EQUALVERIFY OP_CHECKSIG",
            "hex": "76a91405c5f8bbb0b22e718ef23841cb3eea3abbe832d588ac",
            "reqSigs": 1,
            "type": "pubkeyhash",
            "addresses": [
              "LKkUoUrVouNKT2rn23J6tn2DjdqfTTYJ52"
            ]
          }
        }, 
        {
          "value": 0.93593664,
          "n": 1,
          "scriptPubKey": {
            "asm": "OP_DUP OP_HASH160 96eb19cd013b2012793116fce4a7e90409de5fe4 OP_EQUALVERIFY OP_CHECKSIG",
            "hex": "76a91496eb19cd013b2012793116fce4a7e90409de5fe488ac",
            "reqSigs": 1,
            "type": "pubkeyhash",
            "addresses": [
              "LYywG5PRYhFzd4KQ48XFKLZAh2ke9XLvpe"
            ]
          }
        }
      ],
      "hex": "0200000001b62cafc0c32ad3cf3fae1836361c69812a82a301b86b703ae0e6aa5a529a2166000000006b483045022100cdd3ac92b48a87fe8263ba673c015de51852ec01a28c78cbf4112bdb9ddce56c02200cc43672ac200b96a29bed3ebfc365050ff117f12136d7c88bbd3bbf9b6e0a68012103ab4d0ac73e024557c42ce85a4720fc7c32eb980361d84db9b83fe310df776aa0feffffff024551c401000000001976a91405c5f8bbb0b22e718ef23841cb3eea3abbe832d588ac40209405000000001976a91496eb19cd013b2012793116fce4a7e90409de5fe488ac26b71400"
    }
  ],
  "time": 1517025713,
  "mediantime": 1517024787,
  "nonce": 33425355,
  "bits": "1a047f14",
  "difficulty": 3731199.183374282,
  "chainwork": "0000000000000000000000000000000000000000000000325f53f21bdf11492a",
  "previousblockhash": "788ceaca282f25aaaeef16fda0a0aaefd31c3157cb89afd8b9578631bfafed36",
  "nextblockhash": "cf0769d2fc205c941b091423f028ec158331d7576ad74d079a24408652f0b1f1"
}
