{
  "hash": "ff5b34643b1d6f9617252cf69cb377dfa8392ef8be3a238e4341a0270ff4879e",
  "confirmations": 3317,
  "strippedsize": 234,
  "size": 234,
  "weight": 936,
  "height": 1357678,
  "version": 536870912,
  "versionHex": "20000000",
  "merkleroot": "143942d35fda8158a405fa7921a7fecf46bacf0e0da17a3ceb91d95aee3d3ace",
  "tx": [
    {
      "txid": "143942d35fda8158a405fa7921a7fecf46bacf0e0da17a3ceb91d95aee3d3ace",
      "hash": "143942d35fda8158a405fa7921a7fecf46bacf0e0da17a3ceb91d95aee3d3ace",
      "version": 1,
      "size": 153,
      "vsize": 153,
      "locktime": 0,
      "vin": [
        {
          "coinbase": "036eb714045a6c1a242cfabe6d6dc6f659ef8df398fd2d682da5544e80d0d647abf6f7f21aa1acd95d2a6ce982a24000000000000000042f4c502f0816006f3394010000",
          "sequence": 4294967295
        }
      ],
      "vout": [
        {
          "value": 25.00000000,
          "n": 0,
          "scriptPubKey": {
            "asm": "OP_DUP OP_HASH160 57757ed2ecf2052ff3126c397aca7defb9ca2cec OP_EQUALVERIFY OP_CHECKSIG",
            "hex": "76a91457757ed2ecf2052ff3126c397aca7defb9ca2cec88ac",
            "reqSigs": 1,
            "type": "pubkeyhash",
            "addresses": [
              "LTCPodGk5FwcJaRzH9yKnwicxzFUbxp6tN"
            ]
          }
        }
      ],
      "hex": "01000000010000000000000000000000000000000000000000000000000000000000000000ffffffff44036eb714045a6c1a242cfabe6d6dc6f659ef8df398fd2d682da5544e80d0d647abf6f7f21aa1acd95d2a6ce982a24000000000000000042f4c502f0816006f3394010000ffffffff0100f90295000000001976a91457757ed2ecf2052ff3126c397aca7defb9ca2cec88ac00000000"
    }
  ],
  "time": 1517034020,
  "mediantime": 1517033405,
  "nonce": 2760107287,
  "bits": "1a047f14",
  "difficulty": 3731199.183374282,
  "chainwork": "0000000000000000000000000000000000000000000000326ee55b741e7ab846",
  "previousblockhash": "560120ba23a1818c13c706e6003771aaa89f996f17774b58a530b9154d393b4e",
  "nextblockhash": "c3fec2ddd8278273c6460d4d28d53875292376d82f5b45cd3f089d6bd1c40479"
}
