{
  "hash": "ff9c116294f615460c616d467962cbc831332472d56d356555996b22733fad2c",
  "confirmations": 809,
  "strippedsize": 4026,
  "size": 4062,
  "weight": 16140,
  "height": 1360185,
  "version": 536870912,
  "versionHex": "20000000",
  "merkleroot": "dca2fdeadfebf41bcc590e98051d710526d65cc700c5c4d6e02b96b8c8a0a779",
  "tx": [
    {
      "txid": "9dea8aa6952bfe01085fadc1aff0e0fa8402637f1c5690dcda4c36e0302349b2",
      "hash": "4fa7904db499e93124d06da331d4a31fd8de5e8af3468567fccf6cbc85bc24f4",
      "version": 1,
      "size": 287,
      "vsize": 260,
      "locktime": 0,
      "vin": [
        {
          "coinbase": "0339c11441d69c5f2b75eed441d69c5f2ae1d90d2f4c54432e544f502ffabe6d6d295ae4ea2e7752fb36256a94bc072e1f68e943a0515397466f05d29552c3c3d50100000000000000573c8c6f0100000000000000",
          "sequence": 4294967295
        }
      ],
      "vout": [
        {
          "value": 24.75517201,
          "n": 0,
          "scriptPubKey": {
            "asm": "OP_DUP OP_HASH160 7b96c291c4d9e252907e9275cd3d14fdeaeac0f1 OP_EQUALVERIFY OP_CHECKSIG",
            "hex": "76a9147b96c291c4d9e252907e9275cd3d14fdeaeac0f188ac",
            "reqSigs": 1,
            "type": "pubkeyhash",
            "addresses": [
              "LWVRyoJawzDYtvRmLVzUXqUSkNT7H1MLTt"
            ]
          }
        }, 
        {
          "value": 0.00000000,
          "n": 1,
          "scriptPubKey": {
            "asm": "OP_RETURN aa21a9edd777b499b4fc9ba2a918f6ece64c27f07419185218e531907cf24350d3988cfb",
            "hex": "6a24aa21a9edd777b499b4fc9ba2a918f6ece64c27f07419185218e531907cf24350d3988cfb",
            "type": "nulldata"
          }
        }, 
        {
          "value": 0.25005224,
          "n": 2,
          "scriptPubKey": {
            "asm": "OP_DUP OP_HASH160 0c617fdb2ea42aed30a509595ee21ba3f6688db0 OP_EQUALVERIFY OP_CHECKSIG",
            "hex": "76a9140c617fdb2ea42aed30a509595ee21ba3f6688db088ac",
            "reqSigs": 1,
            "type": "pubkeyhash",
            "addresses": [
              "LLMRAtr3qBje2ySEa3CnZ55LA4TQMWnRY3"
            ]
          }
        }
      ],
      "hex": "010000000001010000000000000000000000000000000000000000000000000000000000000000ffffffff550339c11441d69c5f2b75eed441d69c5f2ae1d90d2f4c54432e544f502ffabe6d6d295ae4ea2e7752fb36256a94bc072e1f68e943a0515397466f05d29552c3c3d50100000000000000573c8c6f0100000000000000ffffffff0311658d93000000001976a9147b96c291c4d9e252907e9275cd3d14fdeaeac0f188ac0000000000000000266a24aa21a9edd777b499b4fc9ba2a918f6ece64c27f07419185218e531907cf24350d3988cfba88c7d01000000001976a9140c617fdb2ea42aed30a509595ee21ba3f6688db088ac0120000000000000000000000000000000000000000000000000000000000000000000000000"
    }, 
    {
      "txid": "b87f318e3fab8977cd9a088e597a55fb8193e9e094cd6e0fadd6f61f54f8dd51",
      "hash": "b87f318e3fab8977cd9a088e597a55fb8193e9e094cd6e0fadd6f61f54f8dd51",
      "version": 1,
      "size": 226,
      "vsize": 226,
      "locktime": 0,
      "vin": [
        {
          "txid": "9450d0822460caf363431a67543143eee0f04304dfa122aa853ef3a9ba5c67f9",
          "vout": 1,
          "scriptSig": {
            "asm": "3045022100ff6627b61991c7d1816d69fefdaa328bc84a2cdb31fbd32404b5ee77f44c71040220649bc1ba52e052957d013d478dabd8027a5bf72adf1c27aa6d3f1f40c88523b5[ALL] 0384a9a36de00797765bb8cbd04dabb5aa68695b13ab3d76e64a85d79f0c76db7f",
            "hex": "483045022100ff6627b61991c7d1816d69fefdaa328bc84a2cdb31fbd32404b5ee77f44c71040220649bc1ba52e052957d013d478dabd8027a5bf72adf1c27aa6d3f1f40c88523b501210384a9a36de00797765bb8cbd04dabb5aa68695b13ab3d76e64a85d79f0c76db7f"
          },
          "sequence": 4294967295
        }
      ],
      "vout": [
        {
          "value": 0.42509999,
          "n": 0,
          "scriptPubKey": {
            "asm": "OP_DUP OP_HASH160 930559cd0ecafe4626802568a0a29d9c73c7c27c OP_EQUALVERIFY OP_CHECKSIG",
            "hex": "76a914930559cd0ecafe4626802568a0a29d9c73c7c27c88ac",
            "reqSigs": 1,
            "type": "pubkeyhash",
            "addresses": [
              "LYdL1C3JhsUNqoCUwa8oZBGz2BxH3d4jJv"
            ]
          }
        }, 
        {
          "value": 11.30805735,
          "n": 1,
          "scriptPubKey": {
            "asm": "OP_DUP OP_HASH160 8a4fd1372b1dd683fede7d68f2332fae2e9c9f71 OP_EQUALVERIFY OP_CHECKSIG",
            "hex": "76a9148a4fd1372b1dd683fede7d68f2332fae2e9c9f7188ac",
            "reqSigs": 1,
            "type": "pubkeyhash",
            "addresses": [
              "LXqH8V6ZtsHBrURFbVxHR59KA24qcdosN3"
            ]
          }
        }
      ],
      "hex": "0100000001f9675cbaa9f33e85aa22a1df0443f0e0ee433154671a4363f3ca602482d05094010000006b483045022100ff6627b61991c7d1816d69fefdaa328bc84a2cdb31fbd32404b5ee77f44c71040220649bc1ba52e052957d013d478dabd8027a5bf72adf1c27aa6d3f1f40c88523b501210384a9a36de00797765bb8cbd04dabb5aa68695b13ab3d76e64a85d79f0c76db7fffffffff02afa68802000000001976a914930559cd0ecafe4626802568a0a29d9c73c7c27c88ace7b96643000000001976a9148a4fd1372b1dd683fede7d68f2332fae2e9c9f7188ac00000000"
    }, 
    {
      "txid": "e81e146f0cf57d96750858e22bd42284179859f8dc3b0a09b6ab1beeede6415f",
      "hash": "e81e146f0cf57d96750858e22bd42284179859f8dc3b0a09b6ab1beeede6415f",
      "version": 2,
      "size": 225,
      "vsize": 225,
      "locktime": 0,
      "vin": [
        {
          "txid": "bd01137614721cb105c0f0e1cd18ae9170743d09a42a1939a649c11ab45ed8ea",
          "vout": 1,
          "scriptSig": {
            "asm": "304402200570d06440bd24b7cb73d9f3bf33a18384ea308b2c4b9956ad8d45944d3a6865022047fa9a741b6d5f0ee7c8975b61a467b404ab94761dee1d447e11f78af650db83[ALL] 03d86365bd14d5aed92cd6d38fbe3dab9fc430f054b8f8367f501967b2b7b6e35f",
            "hex": "47304402200570d06440bd24b7cb73d9f3bf33a18384ea308b2c4b9956ad8d45944d3a6865022047fa9a741b6d5f0ee7c8975b61a467b404ab94761dee1d447e11f78af650db83012103d86365bd14d5aed92cd6d38fbe3dab9fc430f054b8f8367f501967b2b7b6e35f"
          },
          "sequence": 4294967295
        }
      ],
      "vout": [
        {
          "value": 0.39317000,
          "n": 0,
          "scriptPubKey": {
            "asm": "OP_DUP OP_HASH160 0750e61c98c7f5989159d9855ee5376501a715dd OP_EQUALVERIFY OP_CHECKSIG",
            "hex": "76a9140750e61c98c7f5989159d9855ee5376501a715dd88ac",
            "reqSigs": 1,
            "type": "pubkeyhash",
            "addresses": [
              "LKtduWRacDw15xd8Qgk9PdFw2x2i16tT5U"
            ]
          }
        }, 
        {
          "value": 28.19493645,
          "n": 1,
          "scriptPubKey": {
            "asm": "OP_DUP OP_HASH160 87ec2ff6b5a307c50b92fb0d891b67a1eb2512e4 OP_EQUALVERIFY OP_CHECKSIG",
            "hex": "76a91487ec2ff6b5a307c50b92fb0d891b67a1eb2512e488ac",
            "reqSigs": 1,
            "type": "pubkeyhash",
            "addresses": [
              "LXceRhHodr5KDXgZfDinHcWF2YzezvQUqg"
            ]
          }
        }
      ],
      "hex": "0200000001ead85eb41ac149a639192aa4093d747091ae18cde1f0c005b11c7214761301bd010000006a47304402200570d06440bd24b7cb73d9f3bf33a18384ea308b2c4b9956ad8d45944d3a6865022047fa9a741b6d5f0ee7c8975b61a467b404ab94761dee1d447e11f78af650db83012103d86365bd14d5aed92cd6d38fbe3dab9fc430f054b8f8367f501967b2b7b6e35fffffffff0208ee5702000000001976a9140750e61c98c7f5989159d9855ee5376501a715dd88ac0d0f0ea8000000001976a91487ec2ff6b5a307c50b92fb0d891b67a1eb2512e488ac00000000"
    }, 
    {
      "txid": "cd5d0b97774bb280870abe39a26b881cf34b08abb4e40325593a4a3765b47455",
      "hash": "cd5d0b97774bb280870abe39a26b881cf34b08abb4e40325593a4a3765b47455",
      "version": 2,
      "size": 225,
      "vsize": 225,
      "locktime": 0,
      "vin": [
        {
          "txid": "b9dbdbc5b7d3453e83c7c4ddf6f3ed26eda392c067878eac25ef88a6f0b77492",
          "vout": 5,
          "scriptSig": {
            "asm": "304402205e1b3d9bcf7c1563b7fc863256e266bd279867eabcc1e1fc6f2198cf23e2c5dd022067c94fd03e209aa1791bc4f05513dbfe43015ae8a0ee748e15cb66d6c06e7ceb[ALL] 0293168a2eeb339ab447347f0c4bbe1856b61458f58ee8073ce6446e7c84b88c59",
            "hex": "47304402205e1b3d9bcf7c1563b7fc863256e266bd279867eabcc1e1fc6f2198cf23e2c5dd022067c94fd03e209aa1791bc4f05513dbfe43015ae8a0ee748e15cb66d6c06e7ceb01210293168a2eeb339ab447347f0c4bbe1856b61458f58ee8073ce6446e7c84b88c59"
          },
          "sequence": 0
        }
      ],
      "vout": [
        {
          "value": 0.60700000,
          "n": 0,
          "scriptPubKey": {
            "asm": "OP_DUP OP_HASH160 bf4ec6019095d90ef4c1b175b3a939f6d0bcfae5 OP_EQUALVERIFY OP_CHECKSIG",
            "hex": "76a914bf4ec6019095d90ef4c1b175b3a939f6d0bcfae588ac",
            "reqSigs": 1,
            "type": "pubkeyhash",
            "addresses": [
              "LcfVh8R7FejfFQNbQc7eLy7KfpdAuQwJhf"
            ]
          }
        }, 
        {
          "value": 1.39151184,
          "n": 1,
          "scriptPubKey": {
            "asm": "OP_DUP OP_HASH160 613bec4ec35ce929d595f81a02c0611f52d44baf OP_EQUALVERIFY OP_CHECKSIG",
            "hex": "76a914613bec4ec35ce929d595f81a02c0611f52d44baf88ac",
            "reqSigs": 1,
            "type": "pubkeyhash",
            "addresses": [
              "LU65bMC4nVA7G8F4p1rc4rLJrSFroUqsfe"
            ]
          }
        }
      ],
      "hex": "02000000019274b7f0a688ef25ac8e8767c092a3ed26edf3f6ddc4c7833e45d3b7c5dbdbb9050000006a47304402205e1b3d9bcf7c1563b7fc863256e266bd279867eabcc1e1fc6f2198cf23e2c5dd022067c94fd03e209aa1791bc4f05513dbfe43015ae8a0ee748e15cb66d6c06e7ceb01210293168a2eeb339ab447347f0c4bbe1856b61458f58ee8073ce6446e7c84b88c59000000000260359e03000000001976a914bf4ec6019095d90ef4c1b175b3a939f6d0bcfae588ac50474b08000000001976a914613bec4ec35ce929d595f81a02c0611f52d44baf88ac00000000"
    }, 
    {
      "txid": "7c62cd5c3a486db0989c395018a85bdc880d02c864415c17955aed614ba7d5a7",
      "hash": "7c62cd5c3a486db0989c395018a85bdc880d02c864415c17955aed614ba7d5a7",
      "version": 1,
      "size": 1474,
      "vsize": 1474,
      "locktime": 0,
      "vin": [
        {
          "txid": "c672d7fd9ec72bff7e8d716b28fb3db5c3350c943524335847e504420fd28ebf",
          "vout": 3,
          "scriptSig": {
            "asm": "3045022100a9e817f31394a007addb2b54b5f091b1bb17e8495f8c65f2437cd51f5e60daea0220382b6bd5d7eb5e59089b70d7b88837ab1297fcdb9d87941ba00147d7b43488f2[ALL] 02949992ddbefb7a9a048b8e0960ec7ac6ed7c04f8240e0fc4bdae736374b602d9",
            "hex": "483045022100a9e817f31394a007addb2b54b5f091b1bb17e8495f8c65f2437cd51f5e60daea0220382b6bd5d7eb5e59089b70d7b88837ab1297fcdb9d87941ba00147d7b43488f2012102949992ddbefb7a9a048b8e0960ec7ac6ed7c04f8240e0fc4bdae736374b602d9"
          },
          "sequence": 4294967295
        }, 
        {
          "txid": "9f9167a146a9aa69bf417cee0b0a9998994ebfa1df7c3d4655657d267f846311",
          "vout": 2,
          "scriptSig": {
            "asm": "30440220319213b0ee0926b258d12011deae93cd1e27e27fbcbc168838bacd151698b924022017a88490ccc8b41eba571ad60339f418a80a3de1aa820ba13a98597dc67d53dd[ALL] 0300da079c720efcc4ce4b5fe35365f675a848c8f7e1637465ee3ec3e51ba984a4",
            "hex": "4730440220319213b0ee0926b258d12011deae93cd1e27e27fbcbc168838bacd151698b924022017a88490ccc8b41eba571ad60339f418a80a3de1aa820ba13a98597dc67d53dd01210300da079c720efcc4ce4b5fe35365f675a848c8f7e1637465ee3ec3e51ba984a4"
          },
          "sequence": 4294967295
        }, 
        {
          "txid": "880fd6dcbca2224eb792e0714c387e2f1d71905df244969a324d0d33c0323b0b",
          "vout": 10,
          "scriptSig": {
            "asm": "3045022100b5df46161b2e66fc4d9a6e9da6c0f0d869d3973f9d8ab07d8111aa2a77e19a220220773c91dd08ef2e58b3f1e421c584cabfce793996bbdee0d3d8b14399c50305fe[ALL] 02ae5be42cc2ba005754cdecf1316635deb3681d4c14dcbadc75bdc87813e16564",
            "hex": "483045022100b5df46161b2e66fc4d9a6e9da6c0f0d869d3973f9d8ab07d8111aa2a77e19a220220773c91dd08ef2e58b3f1e421c584cabfce793996bbdee0d3d8b14399c50305fe012102ae5be42cc2ba005754cdecf1316635deb3681d4c14dcbadc75bdc87813e16564"
          },
          "sequence": 4294967295
        }, 
        {
          "txid": "880fd6dcbca2224eb792e0714c387e2f1d71905df244969a324d0d33c0323b0b",
          "vout": 13,
          "scriptSig": {
            "asm": "3045022100c97090fa95ea36d69ee79bb07ee45ae7aebd85f7b7c764514b0fdee3832a6995022063869f1dfc3b53346d89886e041e85ef784ac99ca8f62f610b63e4f205278c3d[ALL] 022e100c34656b7ef4bfa0399bcf64133b9c2d29d0ab5c0922ef3cddeef5e11426",
            "hex": "483045022100c97090fa95ea36d69ee79bb07ee45ae7aebd85f7b7c764514b0fdee3832a6995022063869f1dfc3b53346d89886e041e85ef784ac99ca8f62f610b63e4f205278c3d0121022e100c34656b7ef4bfa0399bcf64133b9c2d29d0ab5c0922ef3cddeef5e11426"
          },
          "sequence": 4294967295
        }, 
        {
          "txid": "1516da78c4ea1bce2d0a6aa1dd8b54a801c8983d75f445ad41a0a48445a65794",
          "vout": 1,
          "scriptSig": {
            "asm": "304402200b9cb1da4dc26a09a6a55caa03bda0f187f5dee1c05d4112f6a7eef62e598b1b022002ed23183b57c370edc3e912de0016823eeaed813ca981fb5d2fa0d8dd6fd597[ALL] 03aa8f8b64870b829849a3f284cfe692cb458700e139417e82c8e6ceaf1c94ec32",
            "hex": "47304402200b9cb1da4dc26a09a6a55caa03bda0f187f5dee1c05d4112f6a7eef62e598b1b022002ed23183b57c370edc3e912de0016823eeaed813ca981fb5d2fa0d8dd6fd597012103aa8f8b64870b829849a3f284cfe692cb458700e139417e82c8e6ceaf1c94ec32"
          },
          "sequence": 4294967295
        }, 
        {
          "txid": "9f9167a146a9aa69bf417cee0b0a9998994ebfa1df7c3d4655657d267f846311",
          "vout": 1,
          "scriptSig": {
            "asm": "3045022100c6c393644cfd964f35f1e5ffb4190458bfbd1395dc9c445e83c9b8720aa6f47b0220598c260b69d3383e4b71f6b54c0d308567c0ad4937adf9508a20277f3b248745[ALL] 033a4021482fc0fde98c922c9c931bc5f276d12dbcb0d96fcad470abd72a08707f",
            "hex": "483045022100c6c393644cfd964f35f1e5ffb4190458bfbd1395dc9c445e83c9b8720aa6f47b0220598c260b69d3383e4b71f6b54c0d308567c0ad4937adf9508a20277f3b2487450121033a4021482fc0fde98c922c9c931bc5f276d12dbcb0d96fcad470abd72a08707f"
          },
          "sequence": 4294967295
        }, 
        {
          "txid": "78e683a669ee19e499d3d0649aba388cf8533592005ce7c6205f2ce38739d76f",
          "vout": 6,
          "scriptSig": {
            "asm": "3045022100b26ee5fb93ae9963703cb3ef9af7f42c11bdcf73c6e05247b0865b971d14e50502202a7431bd12e36689465e80bef2c9880ab08b67c6512b91732d13f35772752b4e[ALL] 03886ef7244491ad36e367ec8262d71c182cd5ca30017b511b5ea97e9f52ad8ac2",
            "hex": "483045022100b26ee5fb93ae9963703cb3ef9af7f42c11bdcf73c6e05247b0865b971d14e50502202a7431bd12e36689465e80bef2c9880ab08b67c6512b91732d13f35772752b4e012103886ef7244491ad36e367ec8262d71c182cd5ca30017b511b5ea97e9f52ad8ac2"
          },
          "sequence": 4294967295
        }, 
        {
          "txid": "65149f699f0b7bbea07b587ab8480492203468b5ef8765d1fdfa450523e0a3de",
          "vout": 1,
          "scriptSig": {
            "asm": "304502210084c91ca13c780bd2c02efee53aa81008235218aafc19f881249c47e0b41ea62002203e4af7f12d393e47b6477f879782f884a048dc53491dc4f213576e97dcee41bf[ALL] 036ffbfdbcaad4801c8cb421068933c5dc5c619129bedce9e147e59aad2ab81c1f",
            "hex": "48304502210084c91ca13c780bd2c02efee53aa81008235218aafc19f881249c47e0b41ea62002203e4af7f12d393e47b6477f879782f884a048dc53491dc4f213576e97dcee41bf0121036ffbfdbcaad4801c8cb421068933c5dc5c619129bedce9e147e59aad2ab81c1f"
          },
          "sequence": 4294967295
        }, 
        {
          "txid": "8c6fc2c5731d414f5fd212c20e31dfa3a6af2bf44e0a6a8e939184293025850e",
          "vout": 3,
          "scriptSig": {
            "asm": "30450221009e22429d2acb6e5c1b15a72b70638c66a8a0597e46a3cb47322ae30eae2d59c502202f2aa60b13be40d59bf972cb6d159a19e064562727ad6ef82d5d67ce3878f33c[ALL] 0328c9ae635abf580c261c44815dc1aac309e16ff26250525b7e99951369d2b8c7",
            "hex": "4830450221009e22429d2acb6e5c1b15a72b70638c66a8a0597e46a3cb47322ae30eae2d59c502202f2aa60b13be40d59bf972cb6d159a19e064562727ad6ef82d5d67ce3878f33c01210328c9ae635abf580c261c44815dc1aac309e16ff26250525b7e99951369d2b8c7"
          },
          "sequence": 4294967295
        }
      ],
      "vout": [
        {
          "value": 1.19600000,
          "n": 0,
          "scriptPubKey": {
            "asm": "OP_DUP OP_HASH160 5da60715c2cc189d4248582375d3f2beff53c44e OP_EQUALVERIFY OP_CHECKSIG",
            "hex": "76a9145da60715c2cc189d4248582375d3f2beff53c44e88ac",
            "reqSigs": 1,
            "type": "pubkeyhash",
            "addresses": [
              "LTm7zrjtNdiJ8iv2sESxXuKKFHxoBEhyxb"
            ]
          }
        }, 
        {
          "value": 11.70000000,
          "n": 1,
          "scriptPubKey": {
            "asm": "OP_HASH160 d29e22919dff5f488b8e4cf6f5a1736e9a7a523c OP_EQUAL",
            "hex": "a914d29e22919dff5f488b8e4cf6f5a1736e9a7a523c87",
            "reqSigs": 1,
            "type": "scripthash",
            "addresses": [
              "MT6oa8TXVBs42u7XCXJEJi5D4TfTegV3do"
            ]
          }
        }, 
        {
          "value": 149.99900000,
          "n": 2,
          "scriptPubKey": {
            "asm": "OP_DUP OP_HASH160 44eaf4b0d646cbfd6e9c62c8ee886ff606aae2b4 OP_EQUALVERIFY OP_CHECKSIG",
            "hex": "76a91444eaf4b0d646cbfd6e9c62c8ee886ff606aae2b488ac",
            "reqSigs": 1,
            "type": "pubkeyhash",
            "addresses": [
              "LRWMgGrwVcjw9yxniJJApWYwQU6a7mv3mE"
            ]
          }
        }, 
        {
          "value": 105.77244107,
          "n": 3,
          "scriptPubKey": {
            "asm": "OP_DUP OP_HASH160 c6e3836c2f4cd8f9c53e32813ded99ac0ce001f1 OP_EQUALVERIFY OP_CHECKSIG",
            "hex": "76a914c6e3836c2f4cd8f9c53e32813ded99ac0ce001f188ac",
            "reqSigs": 1,
            "type": "pubkeyhash",
            "addresses": [
              "LdMac6qdwFnBCVXN96dvoPjzbcE36gzs64"
            ]
          }
        }
      ],
      "hex": "0100000009bf8ed20f4204e54758332435940c35c3b53dfb286b718d7eff2bc79efdd772c6030000006b483045022100a9e817f31394a007addb2b54b5f091b1bb17e8495f8c65f2437cd51f5e60daea0220382b6bd5d7eb5e59089b70d7b88837ab1297fcdb9d87941ba00147d7b43488f2012102949992ddbefb7a9a048b8e0960ec7ac6ed7c04f8240e0fc4bdae736374b602d9ffffffff1163847f267d6555463d7cdfa1bf4e9998990a0bee7c41bf69aaa946a167919f020000006a4730440220319213b0ee0926b258d12011deae93cd1e27e27fbcbc168838bacd151698b924022017a88490ccc8b41eba571ad60339f418a80a3de1aa820ba13a98597dc67d53dd01210300da079c720efcc4ce4b5fe35365f675a848c8f7e1637465ee3ec3e51ba984a4ffffffff0b3b32c0330d4d329a9644f25d90711d2f7e384c71e092b74e22a2bcdcd60f880a0000006b483045022100b5df46161b2e66fc4d9a6e9da6c0f0d869d3973f9d8ab07d8111aa2a77e19a220220773c91dd08ef2e58b3f1e421c584cabfce793996bbdee0d3d8b14399c50305fe012102ae5be42cc2ba005754cdecf1316635deb3681d4c14dcbadc75bdc87813e16564ffffffff0b3b32c0330d4d329a9644f25d90711d2f7e384c71e092b74e22a2bcdcd60f880d0000006b483045022100c97090fa95ea36d69ee79bb07ee45ae7aebd85f7b7c764514b0fdee3832a6995022063869f1dfc3b53346d89886e041e85ef784ac99ca8f62f610b63e4f205278c3d0121022e100c34656b7ef4bfa0399bcf64133b9c2d29d0ab5c0922ef3cddeef5e11426ffffffff9457a64584a4a041ad45f4753d98c801a8548bdda16a0a2dce1beac478da1615010000006a47304402200b9cb1da4dc26a09a6a55caa03bda0f187f5dee1c05d4112f6a7eef62e598b1b022002ed23183b57c370edc3e912de0016823eeaed813ca981fb5d2fa0d8dd6fd597012103aa8f8b64870b829849a3f284cfe692cb458700e139417e82c8e6ceaf1c94ec32ffffffff1163847f267d6555463d7cdfa1bf4e9998990a0bee7c41bf69aaa946a167919f010000006b483045022100c6c393644cfd964f35f1e5ffb4190458bfbd1395dc9c445e83c9b8720aa6f47b0220598c260b69d3383e4b71f6b54c0d308567c0ad4937adf9508a20277f3b2487450121033a4021482fc0fde98c922c9c931bc5f276d12dbcb0d96fcad470abd72a08707fffffffff6fd73987e32c5f20c6e75c00923553f88c38ba9a64d0d399e419ee69a683e678060000006b483045022100b26ee5fb93ae9963703cb3ef9af7f42c11bdcf73c6e05247b0865b971d14e50502202a7431bd12e36689465e80bef2c9880ab08b67c6512b91732d13f35772752b4e012103886ef7244491ad36e367ec8262d71c182cd5ca30017b511b5ea97e9f52ad8ac2ffffffffdea3e0230545fafdd16587efb5683420920448b87a587ba0be7b0b9f699f1465010000006b48304502210084c91ca13c780bd2c02efee53aa81008235218aafc19f881249c47e0b41ea62002203e4af7f12d393e47b6477f879782f884a048dc53491dc4f213576e97dcee41bf0121036ffbfdbcaad4801c8cb421068933c5dc5c619129bedce9e147e59aad2ab81c1fffffffff0e852530298491938e6a0a4ef42bafa6a3df310ec212d25f4f411d73c5c26f8c030000006b4830450221009e22429d2acb6e5c1b15a72b70638c66a8a0597e46a3cb47322ae30eae2d59c502202f2aa60b13be40d59bf972cb6d159a19e064562727ad6ef82d5d67ce3878f33c01210328c9ae635abf580c261c44815dc1aac309e16ff26250525b7e99951369d2b8c7ffffffff0480f32007000000001976a9145da60715c2cc189d4248582375d3f2beff53c44e88ac80c8bc450000000017a914d29e22919dff5f488b8e4cf6f5a1736e9a7a523c87604f107e030000001976a91444eaf4b0d646cbfd6e9c62c8ee886ff606aae2b488accbef7376020000001976a914c6e3836c2f4cd8f9c53e32813ded99ac0ce001f188ac00000000"
    }, 
    {
      "txid": "b61bc745b6eaf245c26c7a75f829fcc84b4b5f2582e2587f1552ad32c15dac08",
      "hash": "b61bc745b6eaf245c26c7a75f829fcc84b4b5f2582e2587f1552ad32c15dac08",
      "version": 1,
      "size": 192,
      "vsize": 192,
      "locktime": 0,
      "vin": [
        {
          "txid": "0023425a5d791c7f8e9e986785c774cff5a8f3404e29fd03445a32a4489d277d",
          "vout": 0,
          "scriptSig": {
            "asm": "3045022100ce889ce6fc52a4389b77c3ecb9b60165a8c4984aafb82b88e74f563d70b7be26022035eaa08060af403e77833fd2ef5269937ea9ea93344423d63c772cfc278bb535[ALL] 024b38f32b696e090308a605451c96899a1314935b033920ddc7fcc65ea6e89aba",
            "hex": "483045022100ce889ce6fc52a4389b77c3ecb9b60165a8c4984aafb82b88e74f563d70b7be26022035eaa08060af403e77833fd2ef5269937ea9ea93344423d63c772cfc278bb5350121024b38f32b696e090308a605451c96899a1314935b033920ddc7fcc65ea6e89aba"
          },
          "sequence": 4294967295
        }
      ],
      "vout": [
        {
          "value": 0.99980701,
          "n": 0,
          "scriptPubKey": {
            "asm": "OP_DUP OP_HASH160 b6bb211f31c7697b00113ad1bc5d59a8abc44290 OP_EQUALVERIFY OP_CHECKSIG",
            "hex": "76a914b6bb211f31c7697b00113ad1bc5d59a8abc4429088ac",
            "reqSigs": 1,
            "type": "pubkeyhash",
            "addresses": [
              "Lbt9R6xevQtDgzgExsR5HNfUF65eVHMsNL"
            ]
          }
        }
      ],
      "hex": "01000000017d279d48a4325a4403fd294e40f3a8f5cf74c78567989e8e7f1c795d5a422300000000006b483045022100ce889ce6fc52a4389b77c3ecb9b60165a8c4984aafb82b88e74f563d70b7be26022035eaa08060af403e77833fd2ef5269937ea9ea93344423d63c772cfc278bb5350121024b38f32b696e090308a605451c96899a1314935b033920ddc7fcc65ea6e89abaffffffff019d95f505000000001976a914b6bb211f31c7697b00113ad1bc5d59a8abc4429088ac00000000"
    }, 
    {
      "txid": "98ca7a878b6ab8b3e7b53e2d645c2a39b88e6b7ef3cf9d3972af90e5ec048c34",
      "hash": "98ca7a878b6ab8b3e7b53e2d645c2a39b88e6b7ef3cf9d3972af90e5ec048c34",
      "version": 1,
      "size": 225,
      "vsize": 225,
      "locktime": 0,
      "vin": [
        {
          "txid": "2398135eefcc17cf611e203f30b09651a21b9e14616575bd1ad3c7e9d1ac1280",
          "vout": 0,
          "scriptSig": {
            "asm": "304402200b41af4b3e73d3697874be7af4c6d64f20173ac3aa0f319eb6da2f492eed4b61022008cb607888a25c356dfca68821cd1fb084127697f8ef025dc36fdd454e9d766b[ALL] 0306dba7dcffb7f7a7197168fad7cd4a525621a45834a198a9cd0260f94b39c592",
            "hex": "47304402200b41af4b3e73d3697874be7af4c6d64f20173ac3aa0f319eb6da2f492eed4b61022008cb607888a25c356dfca68821cd1fb084127697f8ef025dc36fdd454e9d766b01210306dba7dcffb7f7a7197168fad7cd4a525621a45834a198a9cd0260f94b39c592"
          },
          "sequence": 4294967295
        }
      ],
      "vout": [
        {
          "value": 0.00732069,
          "n": 0,
          "scriptPubKey": {
            "asm": "OP_DUP OP_HASH160 9f52a4fa1825f118c57a4fe595bf6b46ff2bab38 OP_EQUALVERIFY OP_CHECKSIG",
            "hex": "76a9149f52a4fa1825f118c57a4fe595bf6b46ff2bab3888ac",
            "reqSigs": 1,
            "type": "pubkeyhash",
            "addresses": [
              "LZkNhx5hKEfUcXxWkZCN3GLrKF2Mi9es7w"
            ]
          }
        }, 
        {
          "value": 0.35638800,
          "n": 1,
          "scriptPubKey": {
            "asm": "OP_DUP OP_HASH160 90049899e823ca8cc0f6d071411b21e654c8fc4d OP_EQUALVERIFY OP_CHECKSIG",
            "hex": "76a91490049899e823ca8cc0f6d071411b21e654c8fc4d88ac",
            "reqSigs": 1,
            "type": "pubkeyhash",
            "addresses": [
              "LYMT5BLnNY6w2BzFA19RdoAQ3zK3Fa1Y9X"
            ]
          }
        }
      ],
      "hex": "01000000018012acd1e9c7d31abd756561149e1ba25196b0303f201e61cf17ccef5e139823000000006a47304402200b41af4b3e73d3697874be7af4c6d64f20173ac3aa0f319eb6da2f492eed4b61022008cb607888a25c356dfca68821cd1fb084127697f8ef025dc36fdd454e9d766b01210306dba7dcffb7f7a7197168fad7cd4a525621a45834a198a9cd0260f94b39c592ffffffff02a52b0b00000000001976a9149f52a4fa1825f118c57a4fe595bf6b46ff2bab3888ac10ce1f02000000001976a91490049899e823ca8cc0f6d071411b21e654c8fc4d88ac00000000"
    }, 
    {
      "txid": "176d7d863b1c05b33e296d026e4348dd7409a9a36b6b6ab8ffeb6b2c321d8981",
      "hash": "176d7d863b1c05b33e296d026e4348dd7409a9a36b6b6ab8ffeb6b2c321d8981",
      "version": 1,
      "size": 225,
      "vsize": 225,
      "locktime": 1360183,
      "vin": [
        {
          "txid": "a00a70879bd55e56d37ef769c89f14b2463a9ba817add958f5343b923f373787",
          "vout": 3,
          "scriptSig": {
            "asm": "304402204412901b250b91a758b2f11731b3139d37f1a63faad5875ab83be0c04b39f3a60220141f2aa4fad70d80a8560b4e1b6df6f54b789270a455708abc19f58e735a8375[ALL] 0306d350837ab5f39820808ed8c16f0de9ba006191f6d5d09631e376dc5212acd6",
            "hex": "47304402204412901b250b91a758b2f11731b3139d37f1a63faad5875ab83be0c04b39f3a60220141f2aa4fad70d80a8560b4e1b6df6f54b789270a455708abc19f58e735a837501210306d350837ab5f39820808ed8c16f0de9ba006191f6d5d09631e376dc5212acd6"
          },
          "sequence": 4294967294
        }
      ],
      "vout": [
        {
          "value": 1.19283872,
          "n": 0,
          "scriptPubKey": {
            "asm": "OP_DUP OP_HASH160 fe337219ebb0494272c97510ace5093f7140549d OP_EQUALVERIFY OP_CHECKSIG",
            "hex": "76a914fe337219ebb0494272c97510ace5093f7140549d88ac",
            "reqSigs": 1,
            "type": "pubkeyhash",
            "addresses": [
              "LiQ3XSxfXbXsbk2d7EDuRWhvWLpXkdUph1"
            ]
          }
        }, 
        {
          "value": 0.83351111,
          "n": 1,
          "scriptPubKey": {
            "asm": "OP_DUP OP_HASH160 49624766fc36eeecfc4e940d0bfee9d67fa326a9 OP_EQUALVERIFY OP_CHECKSIG",
            "hex": "76a91449624766fc36eeecfc4e940d0bfee9d67fa326a988ac",
            "reqSigs": 1,
            "type": "pubkeyhash",
            "addresses": [
              "LRuyKkmKxNA1HLShAPvrZm7ZB9hoSqXzm6"
            ]
          }
        }
      ],
      "hex": "01000000018737373f923b34f558d9ad17a89b3a46b2149fc869f77ed3565ed59b87700aa0030000006a47304402204412901b250b91a758b2f11731b3139d37f1a63faad5875ab83be0c04b39f3a60220141f2aa4fad70d80a8560b4e1b6df6f54b789270a455708abc19f58e735a837501210306d350837ab5f39820808ed8c16f0de9ba006191f6d5d09631e376dc5212acd6feffffff02a0201c07000000001976a914fe337219ebb0494272c97510ace5093f7140549d88ac47d6f704000000001976a91449624766fc36eeecfc4e940d0bfee9d67fa326a988ac37c11400"
    }, 
    {
      "txid": "091ebe4edd5ff96e8cba7a69e788d879b5897860feb82c2d03a5255f888bb4be",
      "hash": "091ebe4edd5ff96e8cba7a69e788d879b5897860feb82c2d03a5255f888bb4be",
      "version": 1,
      "size": 225,
      "vsize": 225,
      "locktime": 0,
      "vin": [
        {
          "txid": "22d76f8d7e9fa8b783a7fcce9cf9c1761a879a4cdf2d8e7e403fa3f1845c483c",
          "vout": 1,
          "scriptSig": {
            "asm": "30440220404a77839b9ffaa3d9a9f18d9b6a95a41771a880b9eec67302dac7c78de1f208022069391407d7cb9b85c134542c3678b47606a98903e4fa1e5e21f18d1de2a132e0[ALL] 0313d9f33d80d077cdb391fc553884baad3041ee99379cc1ba3cfaf3bc5e53258e",
            "hex": "4730440220404a77839b9ffaa3d9a9f18d9b6a95a41771a880b9eec67302dac7c78de1f208022069391407d7cb9b85c134542c3678b47606a98903e4fa1e5e21f18d1de2a132e001210313d9f33d80d077cdb391fc553884baad3041ee99379cc1ba3cfaf3bc5e53258e"
          },
          "sequence": 4294967295
        }
      ],
      "vout": [
        {
          "value": 0.00769271,
          "n": 0,
          "scriptPubKey": {
            "asm": "OP_DUP OP_HASH160 95ec0d334fd2fc18acf7b689cff9471e0f399a32 OP_EQUALVERIFY OP_CHECKSIG",
            "hex": "76a91495ec0d334fd2fc18acf7b689cff9471e0f399a3288ac",
            "reqSigs": 1,
            "type": "pubkeyhash",
            "addresses": [
              "LYtfiwpTTLXewnXBZsXWvgzeWAq3XKYyuR"
            ]
          }
        }, 
        {
          "value": 0.30402529,
          "n": 1,
          "scriptPubKey": {
            "asm": "OP_DUP OP_HASH160 b5ded57c256ba4ada7be747eb5f85b0bc417641e OP_EQUALVERIFY OP_CHECKSIG",
            "hex": "76a914b5ded57c256ba4ada7be747eb5f85b0bc417641e88ac",
            "reqSigs": 1,
            "type": "pubkeyhash",
            "addresses": [
              "LbobWhxG8VVNGnAeVyLon5CDmMMHjw2pd1"
            ]
          }
        }
      ],
      "hex": "01000000013c485c84f1a33f407e8e2ddf4c9a871a76c1f99ccefca783b7a89f7e8d6fd722010000006a4730440220404a77839b9ffaa3d9a9f18d9b6a95a41771a880b9eec67302dac7c78de1f208022069391407d7cb9b85c134542c3678b47606a98903e4fa1e5e21f18d1de2a132e001210313d9f33d80d077cdb391fc553884baad3041ee99379cc1ba3cfaf3bc5e53258effffffff02f7bc0b00000000001976a91495ec0d334fd2fc18acf7b689cff9471e0f399a3288ace1e7cf01000000001976a914b5ded57c256ba4ada7be747eb5f85b0bc417641e88ac00000000"
    }, 
    {
      "txid": "30e9abd352fecbc6528cdef1bc505ef3965812bbca6d5cd12ed8713e499ac9d1",
      "hash": "30e9abd352fecbc6528cdef1bc505ef3965812bbca6d5cd12ed8713e499ac9d1",
      "version": 1,
      "size": 225,
      "vsize": 225,
      "locktime": 0,
      "vin": [
        {
          "txid": "fca97bef8d8259dc86294de4e35ff423b6c3557d38d031a0d1fe2c0edab90174",
          "vout": 1,
          "scriptSig": {
            "asm": "3044022060acc0c9834913f645543670051aebd4e3851366b4bfbc94dac67f3ccee760df02206d3c882daff2e9fe1b02bd505ea864101fb91c9408da28dd17d5ede2ba496bd5[ALL] 03e9aecd16074676317088f185985426241f666899628be1196e04d63088873f22",
            "hex": "473044022060acc0c9834913f645543670051aebd4e3851366b4bfbc94dac67f3ccee760df02206d3c882daff2e9fe1b02bd505ea864101fb91c9408da28dd17d5ede2ba496bd5012103e9aecd16074676317088f185985426241f666899628be1196e04d63088873f22"
          },
          "sequence": 4294967295
        }
      ],
      "vout": [
        {
          "value": 0.93038850,
          "n": 0,
          "scriptPubKey": {
            "asm": "OP_DUP OP_HASH160 b6997ee4bc96a11e05801a6ca16400acb6757baa OP_EQUALVERIFY OP_CHECKSIG",
            "hex": "76a914b6997ee4bc96a11e05801a6ca16400acb6757baa88ac",
            "reqSigs": 1,
            "type": "pubkeyhash",
            "addresses": [
              "LbsT8C8sHKey5Bcj5m6JoF2CmXGqWHGqSz"
            ]
          }
        }, 
        {
          "value": 0.06938550,
          "n": 1,
          "scriptPubKey": {
            "asm": "OP_DUP OP_HASH160 05cfcdff0bff96a35949dd905d57796de0a43f22 OP_EQUALVERIFY OP_CHECKSIG",
            "hex": "76a91405cfcdff0bff96a35949dd905d57796de0a43f2288ac",
            "reqSigs": 1,
            "type": "pubkeyhash",
            "addresses": [
              "LKkgahCkrrg9yEjdzcWqY2uHnu6AfaW2u4"
            ]
          }
        }
      ],
      "hex": "01000000017401b9da0e2cfed1a031d0387d55c3b623f45fe3e44d2986dc59828def7ba9fc010000006a473044022060acc0c9834913f645543670051aebd4e3851366b4bfbc94dac67f3ccee760df02206d3c882daff2e9fe1b02bd505ea864101fb91c9408da28dd17d5ede2ba496bd5012103e9aecd16074676317088f185985426241f666899628be1196e04d63088873f22ffffffff0202a98b05000000001976a914b6997ee4bc96a11e05801a6ca16400acb6757baa88acb6df6900000000001976a91405cfcdff0bff96a35949dd905d57796de0a43f2288ac00000000"
    }, 
    {
      "txid": "609acbbfcc675329e79e076ecf4a277ea0ef07e99265c3c16a0965d93baff755",
      "hash": "609acbbfcc675329e79e076ecf4a277ea0ef07e99265c3c16a0965d93baff755",
      "version": 2,
      "size": 226,
      "vsize": 226,
      "locktime": 1360183,
      "vin": [
        {
          "txid": "ab152ad57392ab08037643e5daa5d596f291d60c494eac4d8d44aaf7108596e7",
          "vout": 1,
          "scriptSig": {
            "asm": "3045022100de6d84b0cee41fde2fa598ed080c61f0b8cd0fc82b084cfdefc5a89cc4cc99b702202d48336af8697fe51909a0628c11be1d0ef758557f48f6c9456b509f4e9e3b7d[ALL] 028c0d3dc08e4ea4af3defa810bc261911d764592a620334dcf4c5a7dac89ad5fa",
            "hex": "483045022100de6d84b0cee41fde2fa598ed080c61f0b8cd0fc82b084cfdefc5a89cc4cc99b702202d48336af8697fe51909a0628c11be1d0ef758557f48f6c9456b509f4e9e3b7d0121028c0d3dc08e4ea4af3defa810bc261911d764592a620334dcf4c5a7dac89ad5fa"
          },
          "sequence": 4294967294
        }
      ],
      "vout": [
        {
          "value": 8.98000000,
          "n": 0,
          "scriptPubKey": {
            "asm": "OP_DUP OP_HASH160 e34db5b2369b49c1d5fb93c380ff238a6ee891c6 OP_EQUALVERIFY OP_CHECKSIG",
            "hex": "76a914e34db5b2369b49c1d5fb93c380ff238a6ee891c688ac",
            "reqSigs": 1,
            "type": "pubkeyhash",
            "addresses": [
              "Lfwpk8JHfZnbnzmH1FknLJPeLTeby4zwTt"
            ]
          }
        }, 
        {
          "value": 78.57153248,
          "n": 1,
          "scriptPubKey": {
            "asm": "OP_DUP OP_HASH160 294a739675d2be1c6c4b4fdf8b7c9d1a40aafbed OP_EQUALVERIFY OP_CHECKSIG",
            "hex": "76a914294a739675d2be1c6c4b4fdf8b7c9d1a40aafbed88ac",
            "reqSigs": 1,
            "type": "pubkeyhash",
            "addresses": [
              "LNzHA4S2zDbS3zKVNma4PFRxmVQcRXpbWi"
            ]
          }
        }
      ],
      "hex": "0200000001e7968510f7aa448d4dac4e490cd691f296d5a5dae543760308ab9273d52a15ab010000006b483045022100de6d84b0cee41fde2fa598ed080c61f0b8cd0fc82b084cfdefc5a89cc4cc99b702202d48336af8697fe51909a0628c11be1d0ef758557f48f6c9456b509f4e9e3b7d0121028c0d3dc08e4ea4af3defa810bc261911d764592a620334dcf4c5a7dac89ad5fafeffffff0280648635000000001976a914e34db5b2369b49c1d5fb93c380ff238a6ee891c688ace0a452d4010000001976a914294a739675d2be1c6c4b4fdf8b7c9d1a40aafbed88ac37c11400"
    }, 
    {
      "txid": "51472aae0335e2eca9ada3ca94eb6e9f045947e0b9af786b010f464790bbddb1",
      "hash": "51472aae0335e2eca9ada3ca94eb6e9f045947e0b9af786b010f464790bbddb1",
      "version": 2,
      "size": 226,
      "vsize": 226,
      "locktime": 1360183,
      "vin": [
        {
          "txid": "3ccd71cf30224b0bcc7e23ea3f4c3ab85f09b6e458472ec684d714eefddac500",
          "vout": 0,
          "scriptSig": {
            "asm": "3045022100a9a93c62a599c6998b4f82254af3893698a8d7f89b2f7ac065c41d64444166e302207d011b3aeaab833b9bb63b349e28624d7941327cc67c6001a4050228f7a9956a[ALL] 0285b8480154ddf86084bc2dbd7c982b4b0ae67986a3eb71da2ad0acf8226c64dd",
            "hex": "483045022100a9a93c62a599c6998b4f82254af3893698a8d7f89b2f7ac065c41d64444166e302207d011b3aeaab833b9bb63b349e28624d7941327cc67c6001a4050228f7a9956a01210285b8480154ddf86084bc2dbd7c982b4b0ae67986a3eb71da2ad0acf8226c64dd"
          },
          "sequence": 4294967294
        }
      ],
      "vout": [
        {
          "value": 0.71645947,
          "n": 0,
          "scriptPubKey": {
            "asm": "OP_DUP OP_HASH160 8782539aae245e170b84956259f8bc7d61b89686 OP_EQUALVERIFY OP_CHECKSIG",
            "hex": "76a9148782539aae245e170b84956259f8bc7d61b8968688ac",
            "reqSigs": 1,
            "type": "pubkeyhash",
            "addresses": [
              "LXaTcMosPwJWdae7mGm9qbuEBHW9RzWEkV"
            ]
          }
        }, 
        {
          "value": 279.32791647,
          "n": 1,
          "scriptPubKey": {
            "asm": "OP_DUP OP_HASH160 deac053cb7351461f2728f21d1fdf8c0c42b3b23 OP_EQUALVERIFY OP_CHECKSIG",
            "hex": "76a914deac053cb7351461f2728f21d1fdf8c0c42b3b2388ac",
            "reqSigs": 1,
            "type": "pubkeyhash",
            "addresses": [
              "LfXLLzPdgK1FnMsRttFku5ouXzcdBars8X"
            ]
          }
        }
      ],
      "hex": "020000000100c5dafdee14d784c62e4758e4b6095fb83a4c3fea237ecc0b4b2230cf71cd3c000000006b483045022100a9a93c62a599c6998b4f82254af3893698a8d7f89b2f7ac065c41d64444166e302207d011b3aeaab833b9bb63b349e28624d7941327cc67c6001a4050228f7a9956a01210285b8480154ddf86084bc2dbd7c982b4b0ae67986a3eb71da2ad0acf8226c64ddfeffffff02fb3a4504000000001976a9148782539aae245e170b84956259f8bc7d61b8968688ac5f93ec80060000001976a914deac053cb7351461f2728f21d1fdf8c0c42b3b2388ac37c11400"
    }
  ],
  "time": 1517386923,
  "mediantime": 1517386361,
  "nonce": 1506857539,
  "bits": "1a042eae",
  "difficulty": 4011378.762614286,
  "chainwork": "000000000000000000000000000000000000000000000034b3ddf26785c3f674",
  "previousblockhash": "61df8bb6c5001edf4eecb1538639ef2eadd4b784b253b1a38ee2c132bbf6e7de",
  "nextblockhash": "1fdafab809460f7457c15ffed3082f0f798252e4e5af168ebc778c5c7e7166eb"
}
