{
  "hash": "ffd1580660c225044ba2e70b44b3c55c14e98cc22ec5f1a099a5689ea767ec19",
  "confirmations": 2632,
  "strippedsize": 3189,
  "size": 3889,
  "weight": 13456,
  "height": 1358363,
  "version": 536870912,
  "versionHex": "20000000",
  "merkleroot": "a681e42e28b988212e54a45e63403836ac92367160de216a6e2fd4f99b7e6a6a",
  "tx": [
    {
      "txid": "2c6e2342eb6eca756621307215ecce87f6fddede67fc6a720c941fb45c18e09e",
      "hash": "1b1c1054b609398f513791703b08e3ccd8ddaf69910e360318bed8b756f7ef33",
      "version": 1,
      "size": 253,
      "vsize": 226,
      "locktime": 0,
      "vin": [
        {
          "coinbase": "031bba1441d69b66516f17f541d69b6650cd2e2d2f4c54432e544f502ffabe6d6d57b93834aa86a597e779bd8e70a303d20d5e8068fe559c2ac70560dd471d9adf01000000000000004704b8100f00000000000000",
          "sequence": 4294967295
        }
      ],
      "vout": [
        {
          "value": 25.00842400,
          "n": 0,
          "scriptPubKey": {
            "asm": "OP_DUP OP_HASH160 0c617fdb2ea42aed30a509595ee21ba3f6688db0 OP_EQUALVERIFY OP_CHECKSIG",
            "hex": "76a9140c617fdb2ea42aed30a509595ee21ba3f6688db088ac",
            "reqSigs": 1,
            "type": "pubkeyhash",
            "addresses": [
              "LLMRAtr3qBje2ySEa3CnZ55LA4TQMWnRY3"
            ]
          }
        }, 
        {
          "value": 0.00000000,
          "n": 1,
          "scriptPubKey": {
            "asm": "OP_RETURN aa21a9eda1ddffed1257c509365dc33d00ab0b37a10ea34598b5fcce567245258a56172d",
            "hex": "6a24aa21a9eda1ddffed1257c509365dc33d00ab0b37a10ea34598b5fcce567245258a56172d",
            "type": "nulldata"
          }
        }
      ],
      "hex": "010000000001010000000000000000000000000000000000000000000000000000000000000000ffffffff55031bba1441d69b66516f17f541d69b6650cd2e2d2f4c54432e544f502ffabe6d6d57b93834aa86a597e779bd8e70a303d20d5e8068fe559c2ac70560dd471d9adf01000000000000004704b8100f00000000000000ffffffff02a0d30f95000000001976a9140c617fdb2ea42aed30a509595ee21ba3f6688db088ac0000000000000000266a24aa21a9eda1ddffed1257c509365dc33d00ab0b37a10ea34598b5fcce567245258a56172d0120000000000000000000000000000000000000000000000000000000000000000000000000"
    }, 
    {
      "txid": "2fae37da5d475cc6422329a4354163f7ebf0faf5b700eb4882c398a100869781",
      "hash": "2fae37da5d475cc6422329a4354163f7ebf0faf5b700eb4882c398a100869781",
      "version": 1,
      "size": 226,
      "vsize": 226,
      "locktime": 0,
      "vin": [
        {
          "txid": "cc50ac0a0052f386dbb7170c26ea8c9b00a3889a5a263cdc8337edce0614ffde",
          "vout": 697,
          "scriptSig": {
            "asm": "3045022100db0c0d6847a684530c16e084e214224c01e08f03f200d19d2dec21c15b1a6fa602203cb798c4bdf23cba498233c67aa2ea84a3b15c30ea6b2ad9394738214e611c4a[ALL] 03ece21d17629f2a2fc328707eab257e69a6ffafdb6489565ba811d52962a2bf08",
            "hex": "483045022100db0c0d6847a684530c16e084e214224c01e08f03f200d19d2dec21c15b1a6fa602203cb798c4bdf23cba498233c67aa2ea84a3b15c30ea6b2ad9394738214e611c4a012103ece21d17629f2a2fc328707eab257e69a6ffafdb6489565ba811d52962a2bf08"
          },
          "sequence": 4294967295
        }
      ],
      "vout": [
        {
          "value": 0.47194528,
          "n": 0,
          "scriptPubKey": {
            "asm": "OP_DUP OP_HASH160 a8980626e413c4c3587474fcd98a82cfea6e4272 OP_EQUALVERIFY OP_CHECKSIG",
            "hex": "76a914a8980626e413c4c3587474fcd98a82cfea6e427288ac",
            "reqSigs": 1,
            "type": "pubkeyhash",
            "addresses": [
              "LabPuFmKdh6iTJDndgJLsB7Vn8mk8Cwk4E"
            ]
          }
        }, 
        {
          "value": 0.01025006,
          "n": 1,
          "scriptPubKey": {
            "asm": "OP_DUP OP_HASH160 4cfd384162059336b5c37d966563080ba5184265 OP_EQUALVERIFY OP_CHECKSIG",
            "hex": "76a9144cfd384162059336b5c37d966563080ba518426588ac",
            "reqSigs": 1,
            "type": "pubkeyhash",
            "addresses": [
              "LSF2xorWMYDXhuzaiGCGhPWYqySEFdEbCU"
            ]
          }
        }
      ],
      "hex": "0100000001deff1406ceed3783dc3c265a9a88a3009b8cea260c17b7db86f352000aac50ccb90200006b483045022100db0c0d6847a684530c16e084e214224c01e08f03f200d19d2dec21c15b1a6fa602203cb798c4bdf23cba498233c67aa2ea84a3b15c30ea6b2ad9394738214e611c4a012103ece21d17629f2a2fc328707eab257e69a6ffafdb6489565ba811d52962a2bf08ffffffff02a021d002000000001976a914a8980626e413c4c3587474fcd98a82cfea6e427288aceea30f00000000001976a9144cfd384162059336b5c37d966563080ba518426588ac00000000"
    }, 
    {
      "txid": "2335fb50c8891b62baadc6028cf8de43e682d7fb2f5862101f180dda482d1d2e",
      "hash": "2335fb50c8891b62baadc6028cf8de43e682d7fb2f5862101f180dda482d1d2e",
      "version": 1,
      "size": 225,
      "vsize": 225,
      "locktime": 0,
      "vin": [
        {
          "txid": "c82184e26358a787bf3fefb1527a3a5ec9e2cb260cc0d9a8505922f1e29eb50f",
          "vout": 1,
          "scriptSig": {
            "asm": "304402203530fc805491f5a3288f0de50299f788101111f272e65d98544593e97c6e753e022074e5cc869ef5e442a36dc999481e30a685f4a836d781221b10f041e62a4f3b97[ALL] 03942498f224d4babe598b7b7ba3bdbc10a7f3e3e8b0c45e970f6d8dc414f02edb",
            "hex": "47304402203530fc805491f5a3288f0de50299f788101111f272e65d98544593e97c6e753e022074e5cc869ef5e442a36dc999481e30a685f4a836d781221b10f041e62a4f3b97012103942498f224d4babe598b7b7ba3bdbc10a7f3e3e8b0c45e970f6d8dc414f02edb"
          },
          "sequence": 4294967295
        }
      ],
      "vout": [
        {
          "value": 6.58000000,
          "n": 0,
          "scriptPubKey": {
            "asm": "OP_DUP OP_HASH160 b7b1643a6556518984b8420c65a9169e70d85520 OP_EQUALVERIFY OP_CHECKSIG",
            "hex": "76a914b7b1643a6556518984b8420c65a9169e70d8552088ac",
            "reqSigs": 1,
            "type": "pubkeyhash",
            "addresses": [
              "LbyERhMbQhFzr74Y5qkWtv6zuw9pZXvdhj"
            ]
          }
        }, 
        {
          "value": 26.50290226,
          "n": 1,
          "scriptPubKey": {
            "asm": "OP_DUP OP_HASH160 803ce567011a673659bf221bca35ae394c46844b OP_EQUALVERIFY OP_CHECKSIG",
            "hex": "76a914803ce567011a673659bf221bca35ae394c46844b88ac",
            "reqSigs": 1,
            "type": "pubkeyhash",
            "addresses": [
              "LWv1huJznhpfqsVZrGV34eNi9EybamMCA5"
            ]
          }
        }
      ],
      "hex": "01000000010fb59ee2f1225950a8d9c00c26cbe2c95e3a7a52b1ef3fbf87a75863e28421c8010000006a47304402203530fc805491f5a3288f0de50299f788101111f272e65d98544593e97c6e753e022074e5cc869ef5e442a36dc999481e30a685f4a836d781221b10f041e62a4f3b97012103942498f224d4babe598b7b7ba3bdbc10a7f3e3e8b0c45e970f6d8dc414f02edbffffffff0280483827000000001976a914b7b1643a6556518984b8420c65a9169e70d8552088ac3238f89d000000001976a914803ce567011a673659bf221bca35ae394c46844b88ac00000000"
    }, 
    {
      "txid": "29106ee1a80d45c9cdb1457a1545386fe8daf6d9f12fabc7244fb2d52665f544",
      "hash": "29106ee1a80d45c9cdb1457a1545386fe8daf6d9f12fabc7244fb2d52665f544",
      "version": 1,
      "size": 520,
      "vsize": 520,
      "locktime": 0,
      "vin": [
        {
          "txid": "e85e3c90bbb4ab596dfa0d39abaca93a797e634e42728506739a255cc223733c",
          "vout": 43,
          "scriptSig": {
            "asm": "3044022056363e69b07658407ccb29ff22a1f7569d29905e7736ee9bbb9a3cc089b8398a02205c279d0b3ee06e0b3439524db69456175518e3ae7a988ca8e35a0f297af036e1[ALL] 03046cc04e888ebe97440ebb21eff12a94cc6f12adae8b629fc13921345b990527",
            "hex": "473044022056363e69b07658407ccb29ff22a1f7569d29905e7736ee9bbb9a3cc089b8398a02205c279d0b3ee06e0b3439524db69456175518e3ae7a988ca8e35a0f297af036e1012103046cc04e888ebe97440ebb21eff12a94cc6f12adae8b629fc13921345b990527"
          },
          "sequence": 4294967295
        }, 
        {
          "txid": "2a0db1ffe2db9a129792e6c39c9cd5ebd0c5cce81e9d396f0ec1166cdf0f081b",
          "vout": 0,
          "scriptSig": {
            "asm": "3044022040a93ff83bced6e6ddc8638da5947ecb213099cb0cc70e73fcedc0fbd98124ff02200efaa7ef596e76ecec3afd6a659d9fbaf16132923ef06e2bbf92e780dbc59793[ALL] 029dceeb514f687123361cb358f5b319c19e2d8359cb8cf20a45018d6340ac5471",
            "hex": "473044022040a93ff83bced6e6ddc8638da5947ecb213099cb0cc70e73fcedc0fbd98124ff02200efaa7ef596e76ecec3afd6a659d9fbaf16132923ef06e2bbf92e780dbc597930121029dceeb514f687123361cb358f5b319c19e2d8359cb8cf20a45018d6340ac5471"
          },
          "sequence": 4294967295
        }, 
        {
          "txid": "cff5f6f2ba257b962f4ff3fa794ae23e20cfe8256d31c9c3af822f9145085296",
          "vout": 1,
          "scriptSig": {
            "asm": "3045022100eb44c01ab8289b750aa20c0bf50074171138d28414701e5c963d4fd3bcb844e302202774ab606e7254f37d0caf57845350622508415f5295147fe9e6b2b8a3f77436[ALL] 022bc09fff431e5f6f629311993fe90e39fa9acdebaf0a4d2341777ed9c38effd5",
            "hex": "483045022100eb44c01ab8289b750aa20c0bf50074171138d28414701e5c963d4fd3bcb844e302202774ab606e7254f37d0caf57845350622508415f5295147fe9e6b2b8a3f774360121022bc09fff431e5f6f629311993fe90e39fa9acdebaf0a4d2341777ed9c38effd5"
          },
          "sequence": 4294967295
        }
      ],
      "vout": [
        {
          "value": 1.33047723,
          "n": 0,
          "scriptPubKey": {
            "asm": "OP_DUP OP_HASH160 7c430289ef64270a08b723aab24b1cde12f88df8 OP_EQUALVERIFY OP_CHECKSIG",
            "hex": "76a9147c430289ef64270a08b723aab24b1cde12f88df888ac",
            "reqSigs": 1,
            "type": "pubkeyhash",
            "addresses": [
              "LWYzKvvzAGHN8nkhdiJK2yhfDygoiUUqr7"
            ]
          }
        }, 
        {
          "value": 0.01000204,
          "n": 1,
          "scriptPubKey": {
            "asm": "OP_DUP OP_HASH160 80e4c453f1b622190249c42d663fe84444fd74ba OP_EQUALVERIFY OP_CHECKSIG",
            "hex": "76a91480e4c453f1b622190249c42d663fe84444fd74ba88ac",
            "reqSigs": 1,
            "type": "pubkeyhash",
            "addresses": [
              "LWyUomeWEVUeZWU289ftxHvaw2BncpQenE"
            ]
          }
        }
      ],
      "hex": "01000000033c7323c25c259a73068572424e637e793aa9acab390dfa6d59abb4bb903c5ee82b0000006a473044022056363e69b07658407ccb29ff22a1f7569d29905e7736ee9bbb9a3cc089b8398a02205c279d0b3ee06e0b3439524db69456175518e3ae7a988ca8e35a0f297af036e1012103046cc04e888ebe97440ebb21eff12a94cc6f12adae8b629fc13921345b990527ffffffff1b080fdf6c16c10e6f399d1ee8ccc5d0ebd59c9cc3e69297129adbe2ffb10d2a000000006a473044022040a93ff83bced6e6ddc8638da5947ecb213099cb0cc70e73fcedc0fbd98124ff02200efaa7ef596e76ecec3afd6a659d9fbaf16132923ef06e2bbf92e780dbc597930121029dceeb514f687123361cb358f5b319c19e2d8359cb8cf20a45018d6340ac5471ffffffff96520845912f82afc3c9316d25e8cf203ee24a79faf34f2f967b25baf2f6f5cf010000006b483045022100eb44c01ab8289b750aa20c0bf50074171138d28414701e5c963d4fd3bcb844e302202774ab606e7254f37d0caf57845350622508415f5295147fe9e6b2b8a3f774360121022bc09fff431e5f6f629311993fe90e39fa9acdebaf0a4d2341777ed9c38effd5ffffffff02ab25ee07000000001976a9147c430289ef64270a08b723aab24b1cde12f88df888ac0c430f00000000001976a91480e4c453f1b622190249c42d663fe84444fd74ba88ac00000000"
    }, 
    {
      "txid": "969de56ab2fe1b82a0f853321dc402371310867e3db416fed789bb32ea504a09",
      "hash": "969de56ab2fe1b82a0f853321dc402371310867e3db416fed789bb32ea504a09",
      "version": 1,
      "size": 338,
      "vsize": 338,
      "locktime": 0,
      "vin": [
        {
          "txid": "ee80f4361513b3e713624a80cbc40f8ce89ff5cfbc307fa3e2812ae5fb62dd77",
          "vout": 0,
          "scriptSig": {
            "asm": "304402203cd9bd93cda8bd55d5353866da7a3d63102187422db06138168ac168de8a108a02205a6a20c596a5af9ed6cc24c8df4be0bd2e42c766a79f3a558c1aba40e5b3b29e[ALL] 03a9c16f2127ca4ba8feb12d75e667d38f763081b006fec67987e6953ae1edd952",
            "hex": "47304402203cd9bd93cda8bd55d5353866da7a3d63102187422db06138168ac168de8a108a02205a6a20c596a5af9ed6cc24c8df4be0bd2e42c766a79f3a558c1aba40e5b3b29e012103a9c16f2127ca4ba8feb12d75e667d38f763081b006fec67987e6953ae1edd952"
          },
          "sequence": 4294967295
        }, 
        {
          "txid": "f53d83e0799d22ae2f7cf44784d9f51df831e6ceafa48d97082fb0acafcde061",
          "vout": 4,
          "scriptSig": {
            "asm": "304402206dcd73ca3d456b668ce5c755ab96b07eb080dc001e3df26e5af1605ce0f23ff7022035e7afc93370956e2cc24f7dac720036d65067ff3c0c85f3784f4d3ef52b10a0[ALL] 03a9c16f2127ca4ba8feb12d75e667d38f763081b006fec67987e6953ae1edd952",
            "hex": "47304402206dcd73ca3d456b668ce5c755ab96b07eb080dc001e3df26e5af1605ce0f23ff7022035e7afc93370956e2cc24f7dac720036d65067ff3c0c85f3784f4d3ef52b10a0012103a9c16f2127ca4ba8feb12d75e667d38f763081b006fec67987e6953ae1edd952"
          },
          "sequence": 4294967295
        }
      ],
      "vout": [
        {
          "value": 0.01239553,
          "n": 0,
          "scriptPubKey": {
            "asm": "OP_DUP OP_HASH160 fd232cf42c66e293764ab06285f7b1d22d903b20 OP_EQUALVERIFY OP_CHECKSIG",
            "hex": "76a914fd232cf42c66e293764ab06285f7b1d22d903b2088ac",
            "reqSigs": 1,
            "type": "pubkeyhash",
            "addresses": [
              "LiJRMnkoTYnojpDV3w7rdPAeYL3D1eMDaS"
            ]
          }
        }
      ],
      "hex": "010000000277dd62fbe52a81e2a37f30bccff59fe88c0fc4cb804a6213e7b3131536f480ee000000006a47304402203cd9bd93cda8bd55d5353866da7a3d63102187422db06138168ac168de8a108a02205a6a20c596a5af9ed6cc24c8df4be0bd2e42c766a79f3a558c1aba40e5b3b29e012103a9c16f2127ca4ba8feb12d75e667d38f763081b006fec67987e6953ae1edd952ffffffff61e0cdafacb02f08978da4afcee631f81df5d98447f47c2fae229d79e0833df5040000006a47304402206dcd73ca3d456b668ce5c755ab96b07eb080dc001e3df26e5af1605ce0f23ff7022035e7afc93370956e2cc24f7dac720036d65067ff3c0c85f3784f4d3ef52b10a0012103a9c16f2127ca4ba8feb12d75e667d38f763081b006fec67987e6953ae1edd952ffffffff0101ea1200000000001976a914fd232cf42c66e293764ab06285f7b1d22d903b2088ac00000000"
    }, 
    {
      "txid": "87d1019bccb27dbf19bba583613c488477d8ba2d1a49f4e9dc091b62a4d68f55",
      "hash": "452fb6734b33648f87cfb21fc9a39538433e18e40a44d2770e58764d931fa164",
      "version": 1,
      "size": 374,
      "vsize": 208,
      "locktime": 0,
      "vin": [
        {
          "txid": "1a4e24b05d1ad72353953c650071e6d8e8005699eba0bfeff9c043332e381645",
          "vout": 1,
          "scriptSig": {
            "asm": "0020d6b9d7422bc028abd896f1a050b3db44927eb7aad83e7bc49bcf78428ef17cbb",
            "hex": "220020d6b9d7422bc028abd896f1a050b3db44927eb7aad83e7bc49bcf78428ef17cbb"
          },
          "txinwitness": [
            "", 
            "3045022100ea76a00a9051bdfa6ac2a5517d15d0f863b3fc8259f5c93525bb17916db8ea7d0220411939eee6197fa0af77c80cc9144aa73b4049a92b1a794e7b1444421c185bb001", 
            "304502210081c165859e138bb0ddf24b3997dd29d71c77a7f207a9247903f3422bc80df679022014183e468203d1be1948e6c2fd1d573b216704f9defbf20ad97c9d39c1f2508e01", 
            "5221023d6a5222534bcc76030a552edadb8158af53e3f38ad0368c0a21988eefdbb0eb21020f2fea6018ec3a73e671484acfea91e6c59b61c3519137ab9d138c3a87c1a5cb52ae"
          ],
          "sequence": 4294967295
        }
      ],
      "vout": [
        {
          "value": 0.08236900,
          "n": 0,
          "scriptPubKey": {
            "asm": "OP_DUP OP_HASH160 bf27835c42a3758d041e2d42ee8ff2c51b5bf8a9 OP_EQUALVERIFY OP_CHECKSIG",
            "hex": "76a914bf27835c42a3758d041e2d42ee8ff2c51b5bf8a988ac",
            "reqSigs": 1,
            "type": "pubkeyhash",
            "addresses": [
              "LcegfGmuJc2c897sedqVfSJbJY2rafmgom"
            ]
          }
        }, 
        {
          "value": 19.00797730,
          "n": 1,
          "scriptPubKey": {
            "asm": "OP_HASH160 13a34b95a00b80159e400dccf5dae76c8b90bad4 OP_EQUAL",
            "hex": "a91413a34b95a00b80159e400dccf5dae76c8b90bad487",
            "reqSigs": 1,
            "type": "scripthash",
            "addresses": [
              "M9gzh2aMQKjg8tDNWV8Lp3bwsF9V5ERQuE"
            ]
          }
        }
      ],
      "hex": "010000000001014516382e3343c0f9efbfa0eb995600e8d8e67100653c955323d71a5db0244e1a0100000023220020d6b9d7422bc028abd896f1a050b3db44927eb7aad83e7bc49bcf78428ef17cbbffffffff0264af7d00000000001976a914bf27835c42a3758d041e2d42ee8ff2c51b5bf8a988ac22df4b710000000017a91413a34b95a00b80159e400dccf5dae76c8b90bad4870400483045022100ea76a00a9051bdfa6ac2a5517d15d0f863b3fc8259f5c93525bb17916db8ea7d0220411939eee6197fa0af77c80cc9144aa73b4049a92b1a794e7b1444421c185bb00148304502210081c165859e138bb0ddf24b3997dd29d71c77a7f207a9247903f3422bc80df679022014183e468203d1be1948e6c2fd1d573b216704f9defbf20ad97c9d39c1f2508e01475221023d6a5222534bcc76030a552edadb8158af53e3f38ad0368c0a21988eefdbb0eb21020f2fea6018ec3a73e671484acfea91e6c59b61c3519137ab9d138c3a87c1a5cb52ae00000000"
    }, 
    {
      "txid": "20835d8bd0c42142dbc8eef2778d2fbf46ef3a6a991e727a220f215bba1e91ac",
      "hash": "64b7e27be8645204eca9a85aaa3b60c5e8bc08e6eb8b3234d6636bef2d90d6ba",
      "version": 1,
      "size": 373,
      "vsize": 208,
      "locktime": 0,
      "vin": [
        {
          "txid": "420d453db4fc448b117da0b9787d65d624eaa67d312c8ea3b7e1cd8cbb1e85e6",
          "vout": 1,
          "scriptSig": {
            "asm": "0020409fd93c7351b461fa46963fa28755038f397ee054ab9e56eda0b1081d768cc4",
            "hex": "220020409fd93c7351b461fa46963fa28755038f397ee054ab9e56eda0b1081d768cc4"
          },
          "txinwitness": [
            "", 
            "3045022100d9db4470c6693262eb1263ce4fa6e466545824b753920a1ea735a2e55f9e0c3f0220051ee0be8e5770e7c977eff6cdbe37f215c7929595cf4a27f66c82f0455cd17e01", 
            "3044022025ce414095cc1b6843543682ea3b46f889766973c0c417ee7259a19fe4afcf9902206ff0a9e2a3fdd97b870d7a228e4aa58c1bb86f3726511fb6a6a8f7350e79ba5201", 
            "522103ceb293b39e087131961da42b3deaef48432d57a08bfd111247901be2936525b32103fa185b0d6c2a6d812d1a9418c54b3cea527d229a73a0c6c72345a1851ebcdad352ae"
          ],
          "sequence": 4294967295
        }
      ],
      "vout": [
        {
          "value": 0.01041700,
          "n": 0,
          "scriptPubKey": {
            "asm": "OP_DUP OP_HASH160 ffeb9494a597dce1d3b4ab0603ae7e727b57d846 OP_EQUALVERIFY OP_CHECKSIG",
            "hex": "76a914ffeb9494a597dce1d3b4ab0603ae7e727b57d84688ac",
            "reqSigs": 1,
            "type": "pubkeyhash",
            "addresses": [
              "LiZ8nYR3EPDzUxv5xnzyNexKBdqSjW6TZt"
            ]
          }
        }, 
        {
          "value": 0.21131800,
          "n": 1,
          "scriptPubKey": {
            "asm": "OP_HASH160 2d9ba1f1c217fd18a576b17eaf8a1c6f1cd2f1de OP_EQUAL",
            "hex": "a9142d9ba1f1c217fd18a576b17eaf8a1c6f1cd2f1de87",
            "reqSigs": 1,
            "type": "scripthash",
            "addresses": [
              "MC4K5c2x6rcVohDBLrLNQRsqL5atuzztot"
            ]
          }
        }
      ],
      "hex": "01000000000101e6851ebb8ccde1b7a38e2c317da6ea24d6657d78b9a07d118b44fcb43d450d420100000023220020409fd93c7351b461fa46963fa28755038f397ee054ab9e56eda0b1081d768cc4ffffffff0224e50f00000000001976a914ffeb9494a597dce1d3b4ab0603ae7e727b57d84688ac187242010000000017a9142d9ba1f1c217fd18a576b17eaf8a1c6f1cd2f1de870400483045022100d9db4470c6693262eb1263ce4fa6e466545824b753920a1ea735a2e55f9e0c3f0220051ee0be8e5770e7c977eff6cdbe37f215c7929595cf4a27f66c82f0455cd17e01473044022025ce414095cc1b6843543682ea3b46f889766973c0c417ee7259a19fe4afcf9902206ff0a9e2a3fdd97b870d7a228e4aa58c1bb86f3726511fb6a6a8f7350e79ba520147522103ceb293b39e087131961da42b3deaef48432d57a08bfd111247901be2936525b32103fa185b0d6c2a6d812d1a9418c54b3cea527d229a73a0c6c72345a1851ebcdad352ae00000000"
    }, 
    {
      "txid": "eeedfc39fdce43b43cd52ffbb39744a031548236da6d52a5f3e23adc9c2c07f0",
      "hash": "0bafc746260fe6c5e3a7b2b8125d607743f23b119c6e46b9a1d9f793a297dc74",
      "version": 1,
      "size": 373,
      "vsize": 208,
      "locktime": 0,
      "vin": [
        {
          "txid": "34f85c48c24707414de06c19fb9b66ab1400d7b51bce64247d7ff028288eac21",
          "vout": 1,
          "scriptSig": {
            "asm": "0020409fd93c7351b461fa46963fa28755038f397ee054ab9e56eda0b1081d768cc4",
            "hex": "220020409fd93c7351b461fa46963fa28755038f397ee054ab9e56eda0b1081d768cc4"
          },
          "txinwitness": [
            "", 
            "3044022077af6645befe38047992c374b1ab7b5ebbab551a5788ec44060310b175c825dc022077e1f8f1fa93f2e0325e7c9507e410a3d4e4a9e5950997b7103d2e668e4be00001", 
            "3045022100def870965f06496be6a15725929f79b002484b47a1f4f0f1b14b4de272c5aa6e02205ec0bb95b72857f71c84123e79246c7d2459780f0054922e45016e30276ad2d801", 
            "522103ceb293b39e087131961da42b3deaef48432d57a08bfd111247901be2936525b32103fa185b0d6c2a6d812d1a9418c54b3cea527d229a73a0c6c72345a1851ebcdad352ae"
          ],
          "sequence": 4294967295
        }
      ],
      "vout": [
        {
          "value": 0.05208300,
          "n": 0,
          "scriptPubKey": {
            "asm": "OP_DUP OP_HASH160 4dbd79fa58e78f619fed99466be8dd472b8bfa00 OP_EQUALVERIFY OP_CHECKSIG",
            "hex": "76a9144dbd79fa58e78f619fed99466be8dd472b8bfa0088ac",
            "reqSigs": 1,
            "type": "pubkeyhash",
            "addresses": [
              "LSK1H3HuMcjdgp2dx9TCZQzdJbALq4Dv1s"
            ]
          }
        }, 
        {
          "value": 0.15274100,
          "n": 1,
          "scriptPubKey": {
            "asm": "OP_HASH160 2d9ba1f1c217fd18a576b17eaf8a1c6f1cd2f1de OP_EQUAL",
            "hex": "a9142d9ba1f1c217fd18a576b17eaf8a1c6f1cd2f1de87",
            "reqSigs": 1,
            "type": "scripthash",
            "addresses": [
              "MC4K5c2x6rcVohDBLrLNQRsqL5atuzztot"
            ]
          }
        }
      ],
      "hex": "0100000000010121ac8e2828f07f7d2464ce1bb5d70014ab669bfb196ce04d410747c2485cf8340100000023220020409fd93c7351b461fa46963fa28755038f397ee054ab9e56eda0b1081d768cc4ffffffff02ec784f00000000001976a9144dbd79fa58e78f619fed99466be8dd472b8bfa0088ac7410e9000000000017a9142d9ba1f1c217fd18a576b17eaf8a1c6f1cd2f1de870400473044022077af6645befe38047992c374b1ab7b5ebbab551a5788ec44060310b175c825dc022077e1f8f1fa93f2e0325e7c9507e410a3d4e4a9e5950997b7103d2e668e4be00001483045022100def870965f06496be6a15725929f79b002484b47a1f4f0f1b14b4de272c5aa6e02205ec0bb95b72857f71c84123e79246c7d2459780f0054922e45016e30276ad2d80147522103ceb293b39e087131961da42b3deaef48432d57a08bfd111247901be2936525b32103fa185b0d6c2a6d812d1a9418c54b3cea527d229a73a0c6c72345a1851ebcdad352ae00000000"
    }, 
    {
      "txid": "3b4dd72a96042e341b2ba34598d941846db559da2d64f43235342eab89af80c2",
      "hash": "3b4dd72a96042e341b2ba34598d941846db559da2d64f43235342eab89af80c2",
      "version": 1,
      "size": 225,
      "vsize": 225,
      "locktime": 0,
      "vin": [
        {
          "txid": "3eac7ea3f88258aba32920bc49edb378381f84696da4a2f8a5bad933d56554af",
          "vout": 1,
          "scriptSig": {
            "asm": "304402201a6d363719161d4ec3c941678040433b008079baed5fe7eecdef955885875719022012a0689395103d40e76facf0528d023908c19420cff0444adee3f619c07cf55e[ALL] 03209837d893ecad700f1229834827690fd7fdffbc33526cc6ec92f60946684b8d",
            "hex": "47304402201a6d363719161d4ec3c941678040433b008079baed5fe7eecdef955885875719022012a0689395103d40e76facf0528d023908c19420cff0444adee3f619c07cf55e012103209837d893ecad700f1229834827690fd7fdffbc33526cc6ec92f60946684b8d"
          },
          "sequence": 4294967295
        }
      ],
      "vout": [
        {
          "value": 0.23097228,
          "n": 0,
          "scriptPubKey": {
            "asm": "OP_DUP OP_HASH160 b30d7e93de4447a4602b68a5dbe79bd7f0055f90 OP_EQUALVERIFY OP_CHECKSIG",
            "hex": "76a914b30d7e93de4447a4602b68a5dbe79bd7f0055f9088ac",
            "reqSigs": 1,
            "type": "pubkeyhash",
            "addresses": [
              "LbYhPAJ2VLJsfvgnzmH5KtAsv7g49oJsxh"
            ]
          }
        }, 
        {
          "value": 0.01880172,
          "n": 1,
          "scriptPubKey": {
            "asm": "OP_DUP OP_HASH160 a64c9850ec88213f8b723d648dae3a665c8fa177 OP_EQUALVERIFY OP_CHECKSIG",
            "hex": "76a914a64c9850ec88213f8b723d648dae3a665c8fa17788ac",
            "reqSigs": 1,
            "type": "pubkeyhash",
            "addresses": [
              "LaPGByCLyjvndjBjb6NGfGdhkn26GrRt6G"
            ]
          }
        }
      ],
      "hex": "0100000001af5465d533d9baa5f8a2a46d69841f3878b3ed49bc2029a3ab5882f8a37eac3e010000006a47304402201a6d363719161d4ec3c941678040433b008079baed5fe7eecdef955885875719022012a0689395103d40e76facf0528d023908c19420cff0444adee3f619c07cf55e012103209837d893ecad700f1229834827690fd7fdffbc33526cc6ec92f60946684b8dffffffff028c6f6001000000001976a914b30d7e93de4447a4602b68a5dbe79bd7f0055f9088ac6cb01c00000000001976a914a64c9850ec88213f8b723d648dae3a665c8fa17788ac00000000"
    }, 
    {
      "txid": "6acff7135a0be874a68b5ad67c3deae9b8d603c829efa34619d9ca25b1c90ddd",
      "hash": "6acff7135a0be874a68b5ad67c3deae9b8d603c829efa34619d9ca25b1c90ddd",
      "version": 1,
      "size": 225,
      "vsize": 225,
      "locktime": 0,
      "vin": [
        {
          "txid": "9b85165fd65b1c9d554adf4c7864ec5eddb8ebd79e59ccf3cd3181aa9708cd99",
          "vout": 1,
          "scriptSig": {
            "asm": "30440220214f56820d0d0aee1870e8bbed74b4619dad3848b6256fe4ca1822d66ed70c37022001a00984fb39b73676f7a28e3c6181fdd50c1d1ba894524fd475d06ce542843d[ALL] 038f5d64060790882d5cb0deb2577ec1f7b1727e873533cb22986ba0d34828c5c3",
            "hex": "4730440220214f56820d0d0aee1870e8bbed74b4619dad3848b6256fe4ca1822d66ed70c37022001a00984fb39b73676f7a28e3c6181fdd50c1d1ba894524fd475d06ce542843d0121038f5d64060790882d5cb0deb2577ec1f7b1727e873533cb22986ba0d34828c5c3"
          },
          "sequence": 4294967295
        }
      ],
      "vout": [
        {
          "value": 0.02946590,
          "n": 0,
          "scriptPubKey": {
            "asm": "OP_DUP OP_HASH160 e654c775f6b7920a91697afe97d26d9464beef16 OP_EQUALVERIFY OP_CHECKSIG",
            "hex": "76a914e654c775f6b7920a91697afe97d26d9464beef1688ac",
            "reqSigs": 1,
            "type": "pubkeyhash",
            "addresses": [
              "LgDqEthZbw254qt9qFFpdjy2HsKTgeKS3t"
            ]
          }
        }, 
        {
          "value": 0.50000000,
          "n": 1,
          "scriptPubKey": {
            "asm": "OP_DUP OP_HASH160 330d9d548a0fe10fe87ce1d87cbac0d936b4b4c8 OP_EQUALVERIFY OP_CHECKSIG",
            "hex": "76a914330d9d548a0fe10fe87ce1d87cbac0d936b4b4c888ac",
            "reqSigs": 1,
            "type": "pubkeyhash",
            "addresses": [
              "LPsu2xFLwy5Qc4ZcUu8i5n9TzoMzKtAgoG"
            ]
          }
        }
      ],
      "hex": "010000000199cd0897aa8131cdf3cc599ed7ebb8dd5eec64784cdf4a559d1c5bd65f16859b010000006a4730440220214f56820d0d0aee1870e8bbed74b4619dad3848b6256fe4ca1822d66ed70c37022001a00984fb39b73676f7a28e3c6181fdd50c1d1ba894524fd475d06ce542843d0121038f5d64060790882d5cb0deb2577ec1f7b1727e873533cb22986ba0d34828c5c3ffffffff021ef62c00000000001976a914e654c775f6b7920a91697afe97d26d9464beef1688ac80f0fa02000000001976a914330d9d548a0fe10fe87ce1d87cbac0d936b4b4c888ac00000000"
    }, 
    {
      "txid": "b075ac47229d4d05d4d0593234c5151076a51b0fae7f1f3cc69f33de32f0da38",
      "hash": "b075ac47229d4d05d4d0593234c5151076a51b0fae7f1f3cc69f33de32f0da38",
      "version": 1,
      "size": 224,
      "vsize": 224,
      "locktime": 0,
      "vin": [
        {
          "txid": "7d90b605b11ea95a53ea09cb5ff455e00a82434ee5df9a59cde5e635a64ec788",
          "vout": 1,
          "scriptSig": {
            "asm": "3045022100b406eadf0ada7a52454f5b101fa8534ae86723036338417e6a37aed4185db259022065e5cf3be309797e80a6033c8b171bcd026ac385878fc313f9cb17705bde16cd[ALL] 035614aeb1f072ce78ae163efeab32845eb5b045c9a9043022ed10471e9603cbf0",
            "hex": "483045022100b406eadf0ada7a52454f5b101fa8534ae86723036338417e6a37aed4185db259022065e5cf3be309797e80a6033c8b171bcd026ac385878fc313f9cb17705bde16cd0121035614aeb1f072ce78ae163efeab32845eb5b045c9a9043022ed10471e9603cbf0"
          },
          "sequence": 4294967295
        }
      ],
      "vout": [
        {
          "value": 1.96550969,
          "n": 0,
          "scriptPubKey": {
            "asm": "OP_DUP OP_HASH160 3b33702c42bf6105cd91e155682512944140aa3a OP_EQUALVERIFY OP_CHECKSIG",
            "hex": "76a9143b33702c42bf6105cd91e155682512944140aa3a88ac",
            "reqSigs": 1,
            "type": "pubkeyhash",
            "addresses": [
              "LQcykX16wTPXikptzavW7harUQamz6CFHQ"
            ]
          }
        }, 
        {
          "value": 10.98725335,
          "n": 1,
          "scriptPubKey": {
            "asm": "OP_HASH160 3dfad83b5d14ea17d86aa2ed8bc1dcab8b532d93 OP_EQUAL",
            "hex": "a9143dfad83b5d14ea17d86aa2ed8bc1dcab8b532d9387",
            "reqSigs": 1,
            "type": "scripthash",
            "addresses": [
              "MDYsx89fFhV5PW5EPh1kXACTqrVJ5HBXRq"
            ]
          }
        }
      ],
      "hex": "010000000188c74ea635e6e5cd599adfe54e43820ae055f45fcb09ea535aa91eb105b6907d010000006b483045022100b406eadf0ada7a52454f5b101fa8534ae86723036338417e6a37aed4185db259022065e5cf3be309797e80a6033c8b171bcd026ac385878fc313f9cb17705bde16cd0121035614aeb1f072ce78ae163efeab32845eb5b045c9a9043022ed10471e9603cbf0ffffffff023921b70b000000001976a9143b33702c42bf6105cd91e155682512944140aa3a88acd7377d410000000017a9143dfad83b5d14ea17d86aa2ed8bc1dcab8b532d938700000000"
    }, 
    {
      "txid": "b856d4a3b236bc3faaf6f76d6f0e1625bc83e9722ee58035697e879935c1fe8b",
      "hash": "b856d4a3b236bc3faaf6f76d6f0e1625bc83e9722ee58035697e879935c1fe8b",
      "version": 1,
      "size": 226,
      "vsize": 226,
      "locktime": 0,
      "vin": [
        {
          "txid": "2e5afeb04593bfd5e82b75c834c350ea8dfc16b564b04075ac0434810d658062",
          "vout": 0,
          "scriptSig": {
            "asm": "3045022100b7113a6d3940b1d187ed1a77c6410823d78f2794a1ef396aba2badfa23c0056302202bcca82857ced041c6e1244c68b5d9b7365d19214a81106eddd1d090d91ea31d[ALL] 02d0fdb54da7f69032260f89b82227b0abec41a8856c990511934ad31d40471829",
            "hex": "483045022100b7113a6d3940b1d187ed1a77c6410823d78f2794a1ef396aba2badfa23c0056302202bcca82857ced041c6e1244c68b5d9b7365d19214a81106eddd1d090d91ea31d012102d0fdb54da7f69032260f89b82227b0abec41a8856c990511934ad31d40471829"
          },
          "sequence": 4294967295
        }
      ],
      "vout": [
        {
          "value": 0.10827693,
          "n": 0,
          "scriptPubKey": {
            "asm": "OP_DUP OP_HASH160 f423ed1f4436b76958e35735e8eb8be2c32e3fa2 OP_EQUALVERIFY OP_CHECKSIG",
            "hex": "76a914f423ed1f4436b76958e35735e8eb8be2c32e3fa288ac",
            "reqSigs": 1,
            "type": "pubkeyhash",
            "addresses": [
              "LhUrBDhkPhRPKkLFSqntBcGgkJh32YY8ty"
            ]
          }
        }, 
        {
          "value": 2.97801391,
          "n": 1,
          "scriptPubKey": {
            "asm": "OP_DUP OP_HASH160 b790d18e2218118c0de63637e3810c86182ded1e OP_EQUALVERIFY OP_CHECKSIG",
            "hex": "76a914b790d18e2218118c0de63637e3810c86182ded1e88ac",
            "reqSigs": 1,
            "type": "pubkeyhash",
            "addresses": [
              "LbxZQVKAVzgvBUpZabsi3xxZrtjTHU6XjM"
            ]
          }
        }
      ],
      "hex": "01000000016280650d813404ac7540b064b516fc8dea50c334c8752be8d5bf9345b0fe5a2e000000006b483045022100b7113a6d3940b1d187ed1a77c6410823d78f2794a1ef396aba2badfa23c0056302202bcca82857ced041c6e1244c68b5d9b7365d19214a81106eddd1d090d91ea31d012102d0fdb54da7f69032260f89b82227b0abec41a8856c990511934ad31d40471829ffffffff02ad37a500000000001976a914f423ed1f4436b76958e35735e8eb8be2c32e3fa288acaf16c011000000001976a914b790d18e2218118c0de63637e3810c86182ded1e88ac00000000"
    }, 
    {
      "txid": "5cfb3a6f8c9fc4582debd7ee2ad92a1fb84b18474bb34ef930ebd6ad71ab4cbd",
      "hash": "5cfb3a6f8c9fc4582debd7ee2ad92a1fb84b18474bb34ef930ebd6ad71ab4cbd",
      "version": 1,
      "size": 226,
      "vsize": 226,
      "locktime": 0,
      "vin": [
        {
          "txid": "e369a9d7c19ca1bc7a3fc0278fafdf2bc71b03abc2e125b742d0c9cb07979b7c",
          "vout": 1,
          "scriptSig": {
            "asm": "3045022100abce1c19e9187c0f3417d6644676b84cd9ff30c85690b5ac4ded734604be4f8802205e23198331d031a6bad6ba588752690d680f81566b57c037a2a3e78402fbedfc[ALL] 021d34a597b8d84004e5f5542e637d4d3a27159c8e1089876099c2ec9da372e1a5",
            "hex": "483045022100abce1c19e9187c0f3417d6644676b84cd9ff30c85690b5ac4ded734604be4f8802205e23198331d031a6bad6ba588752690d680f81566b57c037a2a3e78402fbedfc0121021d34a597b8d84004e5f5542e637d4d3a27159c8e1089876099c2ec9da372e1a5"
          },
          "sequence": 4294967295
        }
      ],
      "vout": [
        {
          "value": 0.00151250,
          "n": 0,
          "scriptPubKey": {
            "asm": "OP_DUP OP_HASH160 56fce0a00c70f55de8e6efcb9dd69cce6561c1de OP_EQUALVERIFY OP_CHECKSIG",
            "hex": "76a91456fce0a00c70f55de8e6efcb9dd69cce6561c1de88ac",
            "reqSigs": 1,
            "type": "pubkeyhash",
            "addresses": [
              "LT9uJwexv53f6PimXfYYLWGyXatmkPxGS9"
            ]
          }
        }, 
        {
          "value": 0.17760000,
          "n": 1,
          "scriptPubKey": {
            "asm": "OP_DUP OP_HASH160 a08ec7cd134fcaa173e35424ad5d9841fb78f141 OP_EQUALVERIFY OP_CHECKSIG",
            "hex": "76a914a08ec7cd134fcaa173e35424ad5d9841fb78f14188ac",
            "reqSigs": 1,
            "type": "pubkeyhash",
            "addresses": [
              "LZruRU3Shnyyk83vxUxDiutyiwXYgce8xu"
            ]
          }
        }
      ],
      "hex": "01000000017c9b9707cbc9d042b725e1c2ab031bc72bdfaf8f27c03f7abca19cc1d7a969e3010000006b483045022100abce1c19e9187c0f3417d6644676b84cd9ff30c85690b5ac4ded734604be4f8802205e23198331d031a6bad6ba588752690d680f81566b57c037a2a3e78402fbedfc0121021d34a597b8d84004e5f5542e637d4d3a27159c8e1089876099c2ec9da372e1a5ffffffff02d24e0200000000001976a91456fce0a00c70f55de8e6efcb9dd69cce6561c1de88ac00ff0e01000000001976a914a08ec7cd134fcaa173e35424ad5d9841fb78f14188ac00000000"
    }
  ],
  "time": 1517132099,
  "mediantime": 1517131494,
  "nonce": 134825518,
  "bits": "1a047f14",
  "difficulty": 3731199.183374282,
  "chainwork": "000000000000000000000000000000000000000000000033073d749cd42709d8",
  "previousblockhash": "8df80768b489d2f48ecdf19d1390d499d192edbff035458fef48f34c16822eb9",
  "nextblockhash": "dc2e7863464d06f0b1fc300a25d52b4667fa4cd0f61321d4f117929099ad9f8c"
}
