{
  "hash": "ffecdd9ad840afb04888f5bcf0f52edc934d5a702b0dc717b62fad3af9269652",
  "confirmations": 1645,
  "strippedsize": 254,
  "size": 254,
  "weight": 1016,
  "height": 1359349,
  "version": 536870912,
  "versionHex": "20000000",
  "merkleroot": "b5203722464a6f6c52d3c738a319bf75978e6f879dd9c4bbe6f8c90893070fc6",
  "tx": [
    {
      "txid": "b5203722464a6f6c52d3c738a319bf75978e6f879dd9c4bbe6f8c90893070fc6",
      "hash": "b5203722464a6f6c52d3c738a319bf75978e6f879dd9c4bbe6f8c90893070fc6",
      "version": 1,
      "size": 173,
      "vsize": 173,
      "locktime": 0,
      "vin": [
        {
          "coinbase": "03f5bd141b4d696e656420627920416e74506f6f6c20626a302042205a6fb481fabe6d6d89c6b327803efc55cf766fdcae49af11d3ecb8d897cd1b192af18fe9348dbee304000000000000000a1f00000000000004000000",
          "sequence": 4294967295
        }
      ],
      "vout": [
        {
          "value": 25.00000000,
          "n": 0,
          "scriptPubKey": {
            "asm": "OP_DUP OP_HASH160 0ff3ccc5e8be88afe24b5d634e5852d474dbdff1 OP_EQUALVERIFY OP_CHECKSIG",
            "hex": "76a9140ff3ccc5e8be88afe24b5d634e5852d474dbdff188ac",
            "reqSigs": 1,
            "type": "pubkeyhash",
            "addresses": [
              "LLgJTbzZMsRTCUF1NtvvL9SR1a4pVieW89"
            ]
          }
        }
      ],
      "hex": "01000000010000000000000000000000000000000000000000000000000000000000000000ffffffff5803f5bd141b4d696e656420627920416e74506f6f6c20626a302042205a6fb481fabe6d6d89c6b327803efc55cf766fdcae49af11d3ecb8d897cd1b192af18fe9348dbee304000000000000000a1f00000000000004000000ffffffff0100f90295000000001976a9140ff3ccc5e8be88afe24b5d634e5852d474dbdff188ac00000000"
    }
  ],
  "time": 1517270145,
  "mediantime": 1517269558,
  "nonce": 2739183066,
  "bits": "1a042eae",
  "difficulty": 4011378.762614286,
  "chainwork": "000000000000000000000000000000000000000000000033ebfa9fbea77269ec",
  "previousblockhash": "379bf076f9e9f1161723799b719fce2a87530c636e4fafc80335720d2e3c9867",
  "nextblockhash": "13e7adbdf26ae328f2f362e2150040b3ef3f3d00dc91d0b4f6241e12c6acf6ca"
}
